:020000040800F2
:1050000000500020859A00088591000887910008CB
:10501000919100089B910008A591000800000000F4
:10502000000000000000000000000000AF91000838
:10503000B191000800000000B3910008B59100088C
:10504000D99A0008D99A0008D99A0008DD93000877
:10505000D99A0008D99A00081592000835920008DC
:105060005592000889920008A9920008D99A000870
:10507000D99A0008D99A0008D99A000845940008DE
:10508000D99A0008D99A0008C5910008D99A000851
:1050900049940008D99A0008D99A0008C9920008D2
:1050A000D99A0008D99A0008D99A00089193000863
:1050B000D99A0008D99A0008D99A0008E591000801
:1050C000F5910008D99A0008D99A000805920008BD
:1050D000D99A0008D99A0008D5910008D99A0008F1
:1050E0001993000805940008D99A000800000000F0
:1050F00000000000000000000000000000000000B0
:0C51000000000000000000005FF808F153
:10511000844641EA000313F0030349D1403A23D304
:105120000B6803604B6843608B688360CB68C36027
:105130000B6903614B6943618B698361CB69C3610F
:105140000B6A03624B6A43628B6A8362CB6AC362F7
:105150000B6B03634B6B43638B6B8363CB6BC363DF
:1051600040304031403ADBD230320BD30B68036021
:105170004B6843608B688360CB68C360103010312C
:10518000103AF3D20C3205D351F8043B40F8043BFB
:10519000043AF9D2043208D0D2071CBF11F8013BFF
:1051A00000F8013B01D30B8803806046704700BFC5
:1051B000082A13D38B07B1D010F00303AED0C3F18C
:1051C0000403D21ADB071CBF11F8013B00F8013BB6
:1051D000A4D331F8023B20F8023B9FE7043AD9D32D
:1051E000013A11F8013B00F8013BF9D20B7803704A
:1051F0004B7843708B7883706046704740EA010CAF
:105200001CF0070F27D1BDF1100DCDE90245CDE906
:1052100000676FF000064FF0000700BFF0E80223C0
:10522000F1E80245A242A2F1013C2CEA020C0CF08A
:10523000803C08BFBCF1000F40F0E580AB42A3F119
:10524000013C2CEA030C0CF0803C08BFBCF1000FC1
:1052500040F0D680E2E710F0030C21D020F00300EC
:1052600050F8042B5FEACC7C08D00FD211F801CBA8
:105270005FFA92F3B3EB0C0C10D17BB111F801CBB8
:105280005FFAA2F3B3EB0C0C08D13BB111F801CBE0
:105290005FFAB2F3B3EB0C0C00D10BB96046704768
:1052A000BDF1100DCDE90245CDE900676FF00006B4
:1052B0004FF0000711F0030C33D110F0040F0FD0A2
:1052C00050F8042B51F8044BA242A2F1013C2CEA05
:1052D000020C0CF0803C08BFBCF1000F40F0938042
:1052E00011F0040F99D051F8045B00BFF0E80223DD
:1052F000AA42A2F1013C2CEA020C0CF0803C08BF4F
:10530000BCF1000F79D1F1E80245A342A3F1013CC1
:105310002CEA030C0CF0803C08BFBCF1000F69D1F3
:10532000E4E721F00301BCF1020F20D03FDA51F88D
:10533000045B00BF50F8043B4FEA1525A3F1013C84
:105340002CEA030C0CF0803CB7EB0C2F03EA16227E
:1053500008BFAA4251D151F8045BBCF1000F82EAA8
:1053600003034FEA056208BF934240D1E2E751F8D8
:10537000045B00BF50F8043B4FEA1545A3F1013C24
:105380002CEA030C0CF0803CB7EB0C4F03EA1642FE
:1053900008BFAA4231D151F8045BBCF1000F82EA88
:1053A00003034FEA054208BF934220D1E2E751F8D8
:1053B000045B00BF50F8043B4FEA1565A3F1013CC4
:1053C0002CEA030C0CF0803CB7EB0C6F03EA16627E
:1053D00008BFAA4211D151F8045BBCF1000F82EA68
:1053E00003034FEA052208BF934200D1E2E719BA4E
:1053F00012BA0AE019BA22BA07E011BA2ABA04E0CE
:1054000019BA2ABA01E011BA22BA9CFA8CF0DDE985
:105410000067DDE902451DF1100D38B1B0FA80F0EA
:10542000C0F1180021FA00F122FA00F201209142A5
:1054300098BF8041704700BF014B0360704700BFB9
:1054400068460108014B0360704700BF80460108B1
:1054500010B5034B0446036001F00AFC204610BD62
:10546000684601081FB5084C0146684602F0D1FDA8
:105470006946204601F02AF8684602F066FD20469B
:1054800000F060FF04B010BD780B0020014800F070
:10549000F1BE00BF780B002010B5104C012384F83A
:1054A00040320F4B88B01888002102F029F804F52B
:1054B0001171684602F0ADFD04F5157104A802F003
:1054C000A8FD694604AA204600F0F1FE04A802F0F7
:1054D0003CFD684602F039FD08B010BD780B002095
:1054E0000000002010B5104C002384F840320F4B10
:1054F00088B01888012102F003F804F5117168469C
:1055000002F087FD04F5197104A802F082FD6946D6
:1055100004AA204600F0CBFE04A802F016FD68465F
:1055200002F013FD08B010BD780B00200000002031
:10553000034B93F840320BB1FFF7D4BFFFF7ACBF7A
:10554000780B002010B50C4C052002F00BF900215F
:10555000A08801F0D5FF052002F004F9A088012100
:1055600001F0CEFF054BD3F874223F2ADCBF013295
:10557000C3F8742210BD00BF00000020780B00208B
:1055800010B50C4C052002F0EDF80021208901F047
:10559000B7FF052002F0E6F82089012101F0B0FFF5
:1055A000054BD3F87422002AC4BF02F1FF32C3F8BE
:1055B000742210BD00000020780B002010B5174C9D
:1055C00088B094F87832F3B13C2808D03E2823D133
:1055D000684602F01EFD04A804F51F7105E0684648
:1055E00002F017FD04A804F5237102F012FD6946CC
:1055F00004AA204600F05BFE04A802F0A6FC684660
:1056000002F0A3FC08E03C2804D03E2804D1FFF7B8
:1056100099FF01E0FFF7B4FF08B010BD780B002040
:1056200010B5124C8CB06846114902F0D0FCD4F889
:105630007412684602F03EFD04F5277104A802F0DA
:10564000E8FC694608A802F0E4FC04A908AA204680
:1056500000F0A0FE08A802F078FC04A802F075FC97
:10566000684602F072FC0CB010BD00BF780B002041
:105670001C73010810B51F4C88B094F8AC32684612
:1056800004F52C712BB102F0C4FC04A804F53071B0
:1056900004E002F0BEFC04A804F5347102F0B9FC89
:1056A000694604AA204600F075FE04A802F04DFCED
:1056B000684602F04AFC94F8403268460E4923B12D
:1056C00002F0A7FC04A80D4903E002F0A2FC0C497B
:1056D00004A802F09EFC694604AA064800F05AFE9F
:1056E00004A802F032FC684602F02FFCFFF798FF96
:1056F00008B010BD780B0020BC0D0020380E002033
:10570000480E002038B50D4B0546D3F87442A04230
:105710000BDDFFF717FF01340A2002F023F8AC423B
:10572000F7DDBDE83840FFF77BBFFFF729FF013CFD
:105730000A2002F017F8AC42F7DAF2E7780B002003
:1057400010B5184B88B0184C9889012101F0D8FE8B
:105750000123142084F8AC32FFF7D4FF04A81349C6
:1057600002F035FC04A904F5387000F043FF04A8EA
:1057700002F0EBFB04F52C71684602F04AFC04F5DC
:10578000157104A802F045FC694604AA204600F001
:105790008EFD04A802F0D9FB684602F0D6FB08B0E3
:1057A00010BD00BF00000020780B0020A070010891
:1057B00010B5002088B0FFF7A5FF114B114C988958
:1057C000002184F8AC1201F09BFE04F5387000F063
:1057D000D5FE04F52C71684602F01BFC04F5197126
:1057E00004A802F016FC694604AA204600F05FFDFA
:1057F00004A802F0AAFB684602F0A7FB08B010BD9F
:1058000000000020780B0020034B93F8AC320BB162
:10581000FFF7CEBFFFF794BF780B002070B5204C88
:1058200088B094F8783205460E46F3B1482808D07F
:10583000502832D1684602F0ECFB04A804F546710A
:1058400005E0684602F0E5FB04A804F54A7102F0A1
:10585000E0FB694604AA204600F029FD04A802F0F6
:1058600074FB684602F071FB17E0084604F54E71C0
:1058700002F070FC18B1502D01D1FFF7C5FF304682
:10588000084902F067FC20B1502D02D1064800F013
:10589000ACFE3046054902F05DFC08B070BD00BFAB
:1058A000780B0020C00E0020580E0020D00E0020E3
:1058B00008B51420FFF726FFBDE80840FFF712BE29
:1058C00030B5624D85B0284600F0DDFC05F55A7014
:1058D00000F0B1FB05F565710446684602F099FBDE
:1058E00069462046FFF76AFE684602F02EFB05F582
:1058F000697000F02BFC05F552710446684602F011
:1059000088FB69462046FFF789FF684602F01DFBC9
:1059100005F5707000F01AFC05F54E7104466846F6
:1059200002F077FB69462046FFF778FF684602F0F1
:105930000CFB05F5777000F009FC05F5567104467F
:10594000684602F066FB69462046FFF767FF684637
:1059500002F0FBFA284600F04DFD0446284600F010
:105960007EFC85F8780210B16846394901E0394972
:10597000684602F02CFB05F53870694600F03AFEE7
:10598000684602F0E2FA344B1A7CA2425CD05A7CA0
:10599000A24259D09A7CA24256D0DA7CA24253D07D
:1059A0001A7DA24250D05A7DA2424DD09A7DA24289
:1059B0004AD0DA7DA24247D01A7EA24244D05A7E13
:1059C000A24241D01A469B7EA34202D1FFF764FD5A
:1059D0003AE0D37EA34202D1FFF784FD34E0137F87
:1059E000A34202D1FFF7A4FD2EE0537FA34202D1D0
:1059F000FFF7A6FE28E0937FA34202D1FFF7D8FE6F
:105A000022E0D37FA34202D1FFF7FEFE1CE092F812
:105A10002030A34202D1FFF795FD05E092F8213036
:105A2000A34204D1FFF7ACFDFFF7FAFD0CE092F8BA
:105A30002230A34202D1FFF73BFF05E092F823306A
:105A4000A34201D1FFF716FE05B030BD780B002050
:105A5000A0700108A6700108000000202DE9F04F99
:105A6000934C87B0934D002104F57E760B46924F00
:105A700000910A46304602F0EDF804F530782A46E7
:105A800030468E498E4E0DF02BFC3946404602F0D2
:105A90009EFA4046DFF83C822A4604F534793146C6
:105AA0000DF01EFC4146484602F091FA2A46314666
:105AB000484604F580690DF013FC4146484602F063
:105AC00086FA04F546782A46314648460DF008FC29
:105AD000DFF804A23946404602F079FA2A463146F8
:105AE000404604F54A780DF0FBFBDFF8F091514693
:105AF000404602F06CFA2A463146404604F51578D5
:105B00000DF0EEFB4946404602F061FA4046DFF8F0
:105B1000D0812A4604F5197B31460DF0E1FB414660
:105B2000584602F054FA2A46314658460DF0D8FB42
:105B3000DFF8B0C104F5826B61465846CDF810C05D
:105B400002F045FA2A46314658460DF0C9FB5D4B36
:105B500004F5846B19465846039302F038FA31462F
:105B60002A465846DFF880B10DF0BAFB04F51F72E3
:105B700059461046059202F02AFA059A3146104617
:105B80002A460DF0ADFB04F5237210464E490592EE
:105B900002F01DFA059A314610462A460DF0A0FB88
:105BA00004F5527239461046059202F010FA059A31
:105BB000314610462A460DF093FBDDF810C004F57F
:105BC0004E776146384602F002FA2A463146384698
:105BD0000DF086FB039B04F556771946384602F014
:105BE000F6F92A463146384604F565770DF078FB1C
:105BF0005946384602F0EBF92A463146384604F554
:105C000011770DF06DFB5146384602F0E0F92A4657
:105C10003146384604F52C770DF062FB494638468C
:105C200002F0D5F92A463146384604F527770DF0BB
:105C300057FB4146384602F0CAF931462A463846F3
:105C40000DF04EFB204600F0CDFA2A461F4D2046AF
:105C50001F490DF045FB696AAA6A04F55A7000F005
:105C6000C3F905F12C010EC904F5387000F05AFC97
:105C7000A96B04F56970022200F048FAE96B04F59B
:105C80007070022200F042FA296C04F5777002224B
:105C900000F03CFA6A6CD4F83034A96CC4F83824AB
:105CA000C4F83414C4F83C3407B0BDE8F08F00BF2A
:105CB000780B002060110020BE70010839540008E4
:105CC0004B7F000818710108AE7001080000002029
:105CD00045540008AA700108CE700108DE70010862
:105CE000EE70010811710108AC70010870B5194916
:105CF0000646194802F04AF810211848202201F0FF
:105D0000BBFE1548164902F041F8144801F088FD21
:105D10001F28FADD1048134902F038F80A24102C25
:105D20000E4808BF002401F083FD06EB4405000285
:105D3000A8810A4801F07CFDAB89092C43EA0000E8
:105D4000A88101D00134EAE703480749BDE8704063
:105D500002F01CB8B0700108381E0020681C00203A
:105D6000C0700108D0700108E070010870B5102102
:105D700006460C4801F094FE002433191D8A094898
:105D8000290A01F09BFD02340648E9B201F096FDB4
:105D90000C2CF2D1034801F0EBFED0F1010038BF2A
:105DA000002070BD681C002070B50A2671430446AF
:105DB000A1F50855FFF79AFF638A2E3D23F4FF7380
:105DC00095FBF6F523F001031D436FEA45456FEAA5
:105DD000554565822046FFF7C9FF2046FFF786FF3D
:105DE000238C5A04F9D52046FFF780FF638A2046AA
:105DF000C3F30E036382FFF7B9FF2046FFF776FF78
:105E0000238C5B04F9D470BD38B50C460546FFF70A
:105E10006DFF002C03DB0F2CA8BF0F2400E0002433
:105E2000EB8A284623F00F031C43EC82BDE8384080
:105E3000FFF79CBF38B500210446008801F0E6FA60
:105E4000A088002101F0E2FAA088002101F058FBAF
:105E50002088002101F054FB0120254D01F082FC37
:105E60002088012101F04CFB012001F07BFC21493D
:105E7000284601F08BFF204801F046FD1F492846C7
:105E800001F084FF2046FFF731FF1D49284601F04D
:105E90007DFF4FF4014363832046FFF767FF1949F5
:105EA000284601F073FF4FF4FA7001F05BFC2046C6
:105EB000FFF71CFF1449284601F068FF44F2010374
:105EC0002382A38A204643F4C053A382E38A23F0AB
:105ED0000F0343F01103E382FFF748FF28460B4905
:105EE00001F054FFBDE838406E2001F03BBC00BF1C
:105EF000381E0020F0700108681C0020F7700108AF
:105F0000FE700108057101080C7101081371010888
:105F100010B505490446054801F038FF2046BDE8A4
:105F20001040FFF787BF00BF1A710108381E00201C
:105F300038B52748274C284900F088FF27482849CA
:105F400000F084FFB4F84C00002101F05FFAA08853
:105F5000002101F05BFA2089002101F057FA208826
:105F6000002101F053FAA089002101F04FFAB4F8A2
:105F70004800002101F04AFAA088002101F0C0FA8F
:105F8000184D2089002101F0BBFAB4F84C00012122
:105F900001F0B6FA2846FFF7BBFF28460C21FFF7B1
:105FA00033FF284640F26F31FFF7FEFE4FF4FA70E0
:105FB00001F0D8FBA088012101F0A2FA208901217B
:105FC00001F09EFAFFF78EFABDE83840FFF7B8BB44
:105FD00025710108000000206554000822710108A5
:105FE0008D540008AC0F00202DE9F04115461FFA32
:105FF00081F804460E464046AFB2022101F006FA8F
:106000003846022101F002FA4046012101F078FAF7
:106010003846012101F074FA0123E36023616361D2
:10602000A36100236660A560E36123626362A362EB
:106030002046BDE8F081002310B504460370808837
:1060400001F0A0FAE060208901F09CFAE36862693F
:106050002061934202D1A26990423CD0012B63613E
:10606000A06106D1012801D1002309E048B903232A
:1060700006E033B9012801D1E06102E008B902234A
:10608000E361E369226A23629A1A82EAE271A1EB70
:10609000E271022962620DD0012A01D0D01C02D126
:1060A000A26A013205E0511C01D0032A02D1A26A82
:1060B000013AA2627BB9A26A002A04DDA36201232D
:1060C00023703E2010BD04D001222270A3623C2028
:1060D00010BD2370A3622D2010BD000013B5084C25
:1060E000002100910A460B46204601F0B3FD054908
:1060F000054A204602B0BDE810400DF0F1B800BFDF
:10610000D80F00203954000860110020F8B58EB275
:1061100004460D4630461146174601F077F94FF414
:10612000FA620023022FE2604FF001020CBF62729C
:1061300063723046636025602374A3720CBF2372C0
:106140002272617A01F0DCF92046F8BD10B50446F0
:1061500001F006FB6061208801F014FAA27A606009
:10616000237C4AB9B3B9217A884213D10123A3729F
:1061700001F0F6FAA0611AE063B9217A884209D1E8
:10618000A369E2681A446369934210D90123237416
:10619000482010BD617A884209D10AB92D2002E059
:1061A000002BFBD150200023A372237410BD2D209F
:1061B00010BD000013B5084C002100910A460B46A3
:1061C000204601F047FD0549054A204602B0BDE8DA
:1061D00010400DF085B800BFE00F002039540008D2
:1061E0006011002010B5ADF5067D044602F07CF983
:1061F000684602F079F9022384F81832032384F800
:106200001932042384F81A32052384F81B3206233A
:1062100084F81C32072384F81D32102384F81E32C0
:10622000172384F81F3241F288330022C4F8203249
:10623000C4F82832642384F82422C4F82C3201F0F4
:106240008FFAC4F8340201F08BFAC4F8380201F076
:1062500087FAC4F83C0220460DF5067D10BD02F019
:1062600078B9D0F82822D0F834321344C0F8383244
:106270000120704710B5044602F018F8204602F0DD
:106280004BF8012010BD10B5044602F062F928B1A8
:10629000D4F83422D4F838329A4204D82046BDE8E3
:1062A0001040FFF7DCBF2046FFF7E4FFF6E77FB5BD
:1062B00004460E46154602F04CF910B32046FFF78F
:1062C000D0FF94F81812684601F0BFFE31466846C8
:1062D00001F001FF94F8191201F01CFF294601F0AA
:1062E000FAFE94F81A1201F015FF0146204601F05B
:1062F00022FD684601F029FE0A2001F033FA012050
:1063000001E04FF0FF3004B070BD000010B588B060
:106310000446684600F066FE04A8094901F057FEED
:10632000694604AA2046FFF7C2FF044604A801F00C
:106330000CFE684601F009FE204608B010BD00BF03
:10634000AA70010813B5044602F003F928B12046EB
:1063500001F0ACFF204601F0DFFF94F8243213B9BE
:106360004FF0FF3013E004F50C71684601F07EFC3D
:1063700020466946B4F8202202F03DF80028EFD00C
:106380002046FFF76EFF2046FFF7C0FF012002B056
:1063900010BD00007FB504460E46154602F0D9F840
:1063A00008B32046FFF75DFF94F81812684601F025
:1063B0004CFE3146684601F08EFE0D4901F098FE14
:1063C000294601F088FE94F81A1201F0A3FE014656
:1063D000204601F0B0FC684601F0B7FD0A2001F04C
:1063E000C1F9012001E04FF0FF3004B070BD00BFE3
:1063F0002D71010810B5044601F098FFB8B1204690
:10640000FFF72FFF204601F024FF94F81B32C0B2A3
:10641000834205D1204694F81C1201F0A6FC06E048
:1064200094F81D32834204D12046FFF76FFF94F8A1
:106430001A0210BDF0B5104685B00D462E21144647
:1064400001F0C0FE0646334621460022684601F0B0
:10645000BDFE684601F0E7FE771C2870684601F033
:1064600074FD3A4620462E2101F09EFE0646334634
:1064700021463A46684601F0A9FE684601F0D3FE7F
:10648000771C6870684601F060FD3A4620462E2170
:1064900001F08AFE0646334621463A46684601F038
:1064A00095FE684601F0BFFEA870684601F04DFDFC
:1064B0002146721C684601F0AFFE684601F0B3FE4B
:1064C000E870684601F041FD05B0F0BD1FB5044617
:1064D000684601F09EFD204604F50C716A46FFF700
:1064E000A9FF684601F031FD012084F8240204B0C0
:1064F00010BD000013B5084C002100910A460B4660
:10650000204601F0A7FB0549054A204602B0BDE838
:1065100010400CF0E5BE00BFE80F00203954000821
:106520006011002038B580E80E004FF4AF730025ED
:106530004363322304464362C56005614561C5611A
:1065400088B2294600F062FFA088294600F05EFF6D
:106550002089294600F05AFF204638BD10B5002199
:106560000446008801F048F8A088002101F044F8B2
:1065700020890021BDE8104001F03EB8FFF7EEBFD2
:10658000F8B5044616460F460088C9B21D4601F00C
:1065900033F8A088F1B201F02FF82089E9B201F0B8
:1065A0002BF8E76026616561F8BD0269642392FB00
:1065B000F3F270B501FB02F64269416292FBF3F21D
:1065C00001FB02F5C268044692FBF3F359430088CD
:1065D000C9B201F011F8A088F1B201F00DF82089DC
:1065E000E9B2BDE8704001F007B800214162FFF751
:1065F000DCBF000038B5002304460D4680F820308B
:1066000080F8213008462E4901F0B2FD28B1FF2163
:1066100020460A460B46FFF7B3FF2846294901F0FA
:10662000A7FD28B100222046FF211346FFF7A8FF4F
:106630002846254901F09CFD28B100212046FF2273
:106640000B46FFF79DFF2846204901F091FD28B138
:10665000002120460A46FF23FFF792FF28461C49E7
:1066600001F086FD28B1FF22204600211346FFF7E6
:1066700087FF2846174901F07BFD28B1FF212046FE
:1066800000220B46FFF77CFF2846134901F070FDFE
:1066900028B1FF2120460A460023FFF771FF284654
:1066A0000E4901F065FD28B12046FF21A5220023F7
:1066B000FFF766FF2046616ABDE83840FFF775BF07
:1066C0002F710108A6700108A0700108357101083A
:1066D0003A7101083F710108477101084E710108C4
:1066E00013B5084C002100910A460B46204601F0E4
:1066F000B1FA0549054A204602B0BDE810400CF049
:10670000EFBD00BFF00F00203954000860110020D9
:10671000013101EB420291420BD0030F092B94BFD0
:106720003033373301F8013C0023000101F8023B0C
:10673000F1E770471F4B10B51A88032A04D80420CC
:106740000146188006F03AFD4FF000604FF4A0417A
:1067500006F02AFD0124184B184821461C7006F04B
:1067600039FF05F0E1FD05F0B7FA2146402007F0BA
:10677000FBF86FF07F4005F031FCE72005F0AAFC44
:106780000F4B1C7005F0F2FA7D2007F01DF918B1CF
:106790000C4B1C7007F02CF940F6B83005F04FFB9D
:1067A00006F098F806F008FB074A01231370074A21
:1067B000137010BD301F0020101F00200004300097
:1067C000751E0020D4280020D41E0020901E00201A
:1067D00038B52F4C2388042B04D8052104202180B0
:1067E00006F0ECFC2B4D2B7813B12B4802F0B6FAD7
:1067F0002B7853B12388052B05D8254B062104207F
:10680000198006F0DBFC02F03DFB2B7863B1234BD3
:106810001B784BB9224B1B7833B1224B1B781BB929
:10682000214B1B78002BE3D0204B1B78002BDFD1B2
:106830001F4B1B78002BDBD11B4B1B78012B0FD080
:106840001C4B6BB12388062B05D8114B0721042064
:10685000198006F0B3FCFFF76BFB134B01221A7093
:10686000154B002BC4D02388072B05D8084B0821D3
:106870000420198006F0A2FCFFF722F82388082BD9
:10688000B6D8034B09210420198006F097FCAFE726
:10689000301F0020D41E002015710008891E002022
:1068A000901E0020731E0020F80F0020741E002090
:1068B000D4280020315F0008C1580008F8B5524BB9
:1068C0001A6812B11A68013A1A60504B504D1B7881
:1068D0003BB1504B1B78002B28D04F4B002B47D19E
:1068E00024E04E4C2368264613B12368013B0FE099
:1068F0004B4B1B78D3B94B4B1B78BBB94A4B1B781E
:10690000A3B94A4F3B782BB1E72005F057FC14237D
:1069100023600BE02B78002B2DD1E72005F008FC3D
:10692000434B1B78002B34D0322333602B7833B1A8
:10693000404C23781BB92EE05A6801325A603E4B16
:106940001A68B2F57A7F0FD300221A6006F06AFF48
:106950003A4B4FF6FF711A888A4254D019800420AE
:10696000BDE8F84006F02ABC1A6801321A60F8BD8A
:1069700000F018FCDAE7324B1B78002BCDD04FF635
:10698000FF7005F02BFBE72005F0A4FB01233B7013
:10699000CCE76423C9E7234B1B788BB1294B47F223
:1069A0002F5259689142C7D9BFF34F8F264A274BC0
:1069B000D16801F4E0610B43D360BFF34F8FFEE772
:1069C000174D2B7803F0FF0633B9304605F0FEFC77
:1069D00040F6B73398420DD8002005F0F7FC41F699
:1069E00057339842ABD9002005F0F8FC184B012230
:1069F0001A70A4E7304605F0F1FC2378002B9ED1F5
:106A000001232B709BE7F8BDDC280020F01E00203E
:106A1000D41E002094130020A5710008D82800205F
:106A2000701E0020741E0020761E0020751E00209F
:106A3000721E0020891E0020E0280020301F002048
:106A4000731E0020F80F002000ED00E00400FA059E
:106A5000781E002008B5094B186005F0E1FE002003
:106A600005F02AFF064805F05BF905F0F1FE05F098
:106A70000FFFBDE8084007F0A3BE00BF1C020020C6
:106A8000A0860100074B1B68052B08D1064B1A7A1C
:106A9000012A04D1987A1B7BC01AC0B2704700202B
:106AA000704700BF341F0020F80F00200D4B10B5B9
:106AB0001B68052B13D10C4C237A012B0FD1628953
:106AC000A389D31A012B04D100230320237207F0DA
:106AD000CEFFA3895A1CA2811C44A07B10BD4FF09D
:106AE000FF3010BD341F0020F80F002008B50C4BFC
:106AF0001B68052B12D10B4B1A6D99180132B2F598
:106B0000807F08BF002281F854001A6505F056FD09
:106B100020B16420BDE8084005F002B908BD00BFFF
:106B2000341F0020F80F0020F8B5234B93F85421B0
:106B3000012A3FD0D3F85821196DB2F5807F04BFE8
:106B40000022C3F85821D3F858411B4A8C4203D184
:106B5000002382F85431F8BD8CBFC4F58071C4EBBA
:106B60000101C2F85C11D3F85C61134D402EA2B252
:106B700007D94034403EC5F85841C5F85C6140270C
:106B800006E034440021B7B2C5F85841C5F85C119D
:106B90000A4801241044C0213A4683F8544107F0C2
:106BA000E1FE2046394607F0E5FF2046BDE8F84003
:106BB00007F04ABFF8BD00BFF80F00204C100020BE
:106BC000094B10B593E8140008331B68D0180AD09D
:106BD00006490822FFF79CFD204605490422BDE82E
:106BE0001040FFF795BD10BDE8F7FF1FCB01002057
:106BF000DB01002013B5084C002100910A460B462A
:106C0000204601F027F80549054A204602B0BDE8B4
:106C100010400CF065BB00BF58110020395400082B
:106C20006011002038B504460D46AC4203D254F83A
:106C3000043B9847F9E738BD08B507480749FFF70F
:106C4000F1FF07480749FFF7EDFFBDE80840064898
:106C50000649FFF7E7BF00BFE8740108E8740108C0
:106C6000E87401084C7501084C7501084C75010861
:106C70000CF07ABC08B5072006F0C2F9FEE7000068
:106C8000074A08B5136818441060064A904204D9B0
:106C9000082006F0B5F90CF029FB184608BD00BF26
:106CA00050000020004800204FF0FF3070470120C6
:106CB000704708B50C2006F0A3F9FEE7014B1868F1
:106CC000704700BF64110020064B0246582000FBAD
:106CD000013101F1080303CB106051601868906026
:106CE000704700BF64110020014BD3F86401704766
:106CF00064110020064B0246142000FB013101F50F
:106D0000B67303CB1060516018689060704700BF85
:106D10006411002038B50546064C28B105F000FA8C
:106D2000012384F8303238BD05F0A8F984F83052D8
:106D300038BD00BF641100200E4B2DE9F041D3F89F
:106D4000647180460024BC4211DA14256543094E63
:106D5000414606F5B67028440C220DF0FDFA20B924
:106D60003544D5F86801BDE8F0810134EBE7002037
:106D7000BDE8F08164110020044B01221A70044B1D
:106D800000224FF4C0201A6005F00ABE741E0020D5
:106D9000FC0F0020034A00231370034A136005F020
:106DA00063BE00BF741E0020FC0F0020024B0022B7
:106DB0001A6005F01BBE00BFFC0F00202DE9F04754
:106DC00088B0804668460D4601F001F91E4B00244C
:106DD000D3F800A054452DDA55B3582666431A4F10
:106DE000414607F1080030440C2207F104090DF078
:106DF000B3FAE8B928460DF07FFA06F110034028EF
:106E000034BF02464022294609EB0300FEF780F911
:106E10003E44012386F85830694604A8746801F09E
:106E2000F8F804A8A047044604A801F08EF803E08F
:106E30000134CFE74FF0FF34684601F086F8204672
:106E400008B0BDE8F08700BF641100202DE9F84FBD
:106E50000446894600293DD000283BD01E4D2E68AF
:106E6000042E37D005F108074FF0000805F1040A99
:106E7000B0450DDA57F8043C4B4505D1384621465C
:106E80000C220DF069FA28B308F101085837EFE732
:106E90004FF0580808FB06F805EB080708F110004A
:106EA00000214022C7F8049050440CF09BFE0AEBEE
:106EB0000800002104300C220CF094FE2068616868
:106EC00007F1080303C3A06801361860002387F8A0
:106ED00058302E60BDE8F88F6411002010B5064CC4
:106EE000206803F00FFA2368013303D0431E584291
:106EF000584110BD012010BD5400002070B50B4B4F
:106F000005461B780C4673B9094B1B785BB9FFF734
:106F1000E5FF034638B9074A294610682246BDE80E
:106F2000704004F0A9B94FF0FF3070BD881E0020FA
:106F3000891E0020540000202DE9F041264B86B028
:106F40001B7880460F46002B41D1244B1B78002B29
:106F50003DD1FFF7C3FF0446002838D1204D8DF8FE
:106F60000C008DF80D008DF80E008DF80F002868CC
:106F700006AA460902EB8606012100F01F02914095
:106F800056F80C2C01300A4346F80C2C41F288329A
:106F9000059204AA009203A922462346049404F011
:106FA0004DF8002815DD2B6806AA590902EB81016E
:106FB00051F80C5C03F01F02154115F0010008D0D8
:106FC000184641463A46234604F0D8F801E04FF00F
:106FD000FF3006B0BDE8F081881E0020891E002029
:106FE00054000020F0B5144985B0064600F0EFFFCC
:106FF000124B01AC93E8070084E807000025675DA9
:1070000030463B0903F13001392984BF03F15701B0
:10701000C9B207F00F0701F040F807F13001392934
:1070200084BF5737F9B23046013501F036F80C2DE0
:10703000E5D1304605B0F0BD1C730108E8F7FF1F2D
:1070400030B51E48ADF5797D07F0FFFD002832D13F
:107050001B4B15A804931B4B5FAD05931A4B039074
:1070600006931A4B0CAC0793194B02950893194BD6
:107070000993194B0A93194B0B93194B0C93194B0A
:107080000D93194B0E93194B0F93194B1093194BEA
:107090001193194B1293194B1393194B149305F039
:1070A00029FD284605F02CFD00940448154902AA44
:1070B00004AB07F0D1FD0DF5797D30BD98130020AC
:1070C000FD6E0008396F0008796D0008956D0008A5
:1070D00031CB0008AD6D0008156D00086177000820
:1070E000BD6C0008C96C0008BD6D0008E96C0008A3
:1070F000F56C0008B1730008396D00080DCB00086D
:1071000021CB0008E8F7FF1F014808F0D6BB00BFFD
:107110009813002030B502208DB00146112203F0F3
:10712000D3FE051E28DB07A8144907F0B8FE02238A
:10713000ADF80C3016238DF80E3033238DF80F3058
:10714000E0238DF8103000238DF8113001238DF8E5
:107150001230BB238DF81330032403AB00931023AC
:107160000193284607A91322002304F08FF8013C5D
:10717000F3D1284603F0D6FE0DB030BDE8F7FF1F6F
:1071800010B5074CFFF75CFF204607F061FD204675
:1071900008F0D5F80446FFF7BDFF204610BD00BF3C
:1071A0009813002038B5114CD4F8445A2DB1D4F8B6
:1071B000443A013BC4F8443A38BDD4F8483A0C4A42
:1071C00052F8230004F032FFE72004F083FF642329
:1071D000084AC4F8443AD4F8483A52680133934212
:1071E000C4F8483AA8BFC4F8485A38BD6411002012
:1071F00010460108540000207FB50220012106221C
:1072000003F062FE041E24DB0223ADF800300023ED
:107210008DF8023035238DF803304FF4FA500823EF
:107220008DF804308DF805308DF806308DF8073074
:1072300001F08CFD694610220546204603F0D0FE81
:107240000646284601F082FD204603F06BFE3046DC
:1072500001E04FF0FF3004B070BD000010B5064CE7
:107260002068002805DB03F05DFE4FF0FF3323604C
:1072700010BD002010BD00BF54000020F0B5A7B025
:10728000FFF7ECFF02200121062203F01DFE324F22
:107290000028386050DB314D0223A5F84C3A162304
:1072A00085F84E3A05A8332385F84F3A05F0EEFBF2
:1072B000002300939DF814303BB1012B17D0284BCD
:1072C00001AC03F1100E224602E0069B009313E08E
:1072D00018685968264603C6083373453446F7D103
:1072E0000FCA06AC07C424F8023B1B0C23700A2407
:1072F000009B0BB9013C22D1009B0BB9194B0093A9
:10730000009B4FF4FA501A0E85F8502A1A0C85F893
:10731000512A1A0A85F8533A85F8522A01F016FDC7
:10732000114904461022386803F05AFE05462046EB
:1073300001F00CFD28460CE04FF0FF3009E006A8F4
:107340007E210DF063F86A4681B206A803F010FEB4
:10735000CEE727B0F0BD00BF54000020641100202C
:107360005571010804E5D036B01B00200F4B2DE904
:10737000F041D3F8647180460024BC4211DA142530
:1073800065430A4E414606F5B67028440C220CF0BF
:10739000E3FF20B9354495F87801BDE8F081013468
:1073A000EBE74FF0FF30BDE8F08100BF6411002033
:1073B00008B5FFF7DBFF0138082803D8024B184453
:1073C000007F08BD022008BD1046010803F008BE7A
:1073D00037B50B4C002104F65C250B4600910A469C
:1073E000284600F037FC28460649074A0BF078FF8C
:1073F00004F50D7003B0BDE8304007F011BC00BFCC
:1074000064110020395400086011002014282DE96F
:10741000F34104460E4669D8FF2967D000F01CFDF1
:1074200020B1A4F10D039BB2022B5FD900F0A6FBA3
:1074300008B1012C5AD901F037FA20B1A4F1120396
:107440009BB2012B52D92B4D24012B192F59B3F884
:107450000480294B9F4201D1042003E0274B9F4227
:1074600003D10820012106F08BFAADF80480062E26
:1074700038D8DFE806F0040D13191F283100102357
:107480008DF8073003238DF806302C44002328E0C4
:1074900004238DF807302C44012322E048238DF883
:1074A00007302C4402231CE028238DF807302C449D
:1074B000032316E018238DF8073003238DF80630D8
:1074C0002C4404230DE01C238DF8073003238DF892
:1074D00006302C44052304E000238DF807302C44AB
:1074E0000623A373384601A906F01CF802B0BDE8D4
:1074F000F08100BF5C00002000080140000C01404A
:107500001428F8B505460F4638D81D4E0401331926
:107510009B7B5A1ED2B2022A30D9062B2ED0FF2BCB
:107520002CD000F099FC28B1A5F10D039BB2022BE1
:1075300000D8F8BD00F022FB10B1012D00D8F8BD35
:1075400001F0B2F928B1A5F112039BB2012B00D8CA
:10755000F8BD33199B7B042B03D128460021FFF78C
:1075600055FF012F04D13219335992881A61F8BDA1
:1075700027B93219335992885A61F8BDF8BD00BF56
:107580005C000020142870B5044602D94FF0FF308B
:1075900070BD184E050173199B7B013BDBB2FD2BBF
:1075A000F4D800F059FC20B1A4F10D039BB2022BDA
:1075B000ECD900F0E3FA08B1012CE7D901F074F935
:1075C00020B1A4F112039BB2012BDFD973199B7B6D
:1075D000062B09D1074B93F850114B1EDBB2FD2B44
:1075E000D4D82046FFF712FF73197059998805F017
:1075F000E7FF70BD5C0000202DE9F043142889B03E
:107600000446884600F29E80504F0601BB199B68D5
:10761000002B00F0978000F01FFC28B1A4F10D03AF
:107620009BB2022B40F28E8000F0A8FA10B1012C20
:1076300040F2888001F038F920B1A4F112039BB226
:10764000012B7FD9BD19AB7B13F0FB0F7AD1404BD7
:1076500001201A683F4B0146B2FBF3F94BF6803329
:1076600003FB08F8FF2398FBF3F806F089F920469E
:107670000421FFF7CBFEAB6809F1FF39B3F1804F6E
:107680001FFA89F91FFA88F802D10120014609E0A2
:10769000314A934208BF022003D0304A934203D1BB
:1076A0000420012106F078F9BC1900254BF67F3340
:1076B000A06801A9ADF80830ADF80A50ADF8065041
:1076C000ADF8049006F060FA6023ADF81850A58973
:1076D000ADF810300123ADF81230ADF8168045B981
:1076E000A06804A906F09AFAA068082106F0D6FB63
:1076F0001FE0042D08D1A06804A906F0D3FAA06801
:10770000082106F0D3FB14E0082D08D1A06804A9D5
:1077100006F00CFBA068294606F0D2FB09E00C2D10
:1077200007D1A06804A906F043FBA068082106F071
:10773000CFFB3E44B068012106F0A4FBB0680121F4
:1077400006F07DFB09B0BDE8F08300BF5C000020BF
:107750000C03002000366E010004004000080040C9
:1077600005F020BA30B54FF47A7385B01C4C009305
:10777000236805460344236005F014FA019006F0DF
:1077800051F805F00FFA0290029A019BD31A039365
:10779000039B002B03DA019B029A13440393039B80
:1077A000AB421AD20F4B1B78002BE8D00E4B1B7844
:1077B000002BE4D1039A009B9A4203D22368B3F5CD
:1077C0007A7FDCD3039B03F57A73009301F05AFBB5
:1077D000064B1B78002BF9D1D1E705B030BD00BFB7
:1077E000841E0020D41E0020891E0020741E00204C
:1077F00013B5084C002100910A460B46204600F0C4
:1078000029FA0549054A204602B0BDE810400BF0B0
:1078100067BD00BFF41B0020395400086011002030
:10782000024B18785B78C01A704700BFFC1B002021
:10783000064B5A781978914204D999180132887800
:107840005A7070474FF0FF30704700BFFC1B00209C
:10785000054B5A781978914202D9134498787047A9
:107860004FF0FF30704700BFFC1B00207047000046
:10787000014B0360704700BF8046010810B5034B01
:1078800004460360FFF7F4F9204610BD8046010866
:10789000F8B5094B054693F82230164653B10C460D
:1078A0008F18BC4206D02B6828469B6814F8011B31
:1078B0009847F6E73046F8BDFC1B002010B50C4B8E
:1078C000012293F822408CB193F823401F2C02D957
:1078D0004260002010BD93F824001C1884F8251085
:1078E000411CC9B283F8241083F82310104610BD40
:1078F000FC1B0020002242604FF47A728260014A31
:10790000026070474046010838B51C4C00254FF412
:10791000001001216570257084F8245084F82350EC
:1079200006F03AF801200521FFF770FD28460521F1
:10793000FFF76CFD124805F093FE4BF6FF73A4F8B9
:107940004E3094F85830A4F84C500BB9A4F850308D
:107950004FF48063A4F852304FF48043A4F85430BD
:10796000084B07480849A36405F094FE0448012128
:1079700005F0FEFE012384F8593038BDFC1B0020C1
:1079800000540040A0860100441C00202DE9F8436B
:1079900033480C46012190461F4605F0F5FEFFF7DF
:1079A000DFFE05462E482F4905F01EFF28B9FFF7D8
:1079B000D7FE401B0A28F5D927E021462848012296
:1079C00005F00BFFFFF7CCFE04462548264905F0DD
:1079D0000BFF28B9FFF7C4FE001B0A28F5D914E0F5
:1079E000FFF7BEFEB8F1200F28BF4FF02008064673
:1079F0000024E5B2C5EB080313F0FF0908D0FFF738
:107A0000AFFE801B09280ED902E00020BDE8F883F4
:107A10001348012105F0D0FE144B00225A701D704E
:107A20002846BDE8F883B9F1010F09D1012F07D12C
:107A30000B48002105F0C0FE0948394605F0B0FEAC
:107A400007480B4905F0D0FE0028D8D0044805F0BF
:107A5000C1FE084B1855FFF783FE01340646C8E700
:107A6000005400400100030002000300FC1B002042
:107A700040000300FE1B0020C9B2D2B20123FFF771
:107A800085BF0000054B012283F82220002283F8E5
:107A90005A1083F8242083F823207047FC1B002011
:107AA000C9B2FFF7EFBF00002DE9F0412A480E46AA
:107AB000012105F069FEFFF753FE044626482749D9
:107AC00005F092FE38B9FFF74BFE001B0A28F5D9E6
:107AD0000420BDE8F081224C1F4894F85A1000227F
:107AE00005F07BFEFFF73CFE05461B481D4905F0EF
:107AF0007BFE28B9FFF734FE401B0A28F5D9E7E7DB
:107B000094F823700025EBB29F4215D0164B124813
:107B1000595D05F05DFEFFF723FE80460E481349D0
:107B200005F062FE30B9FFF71BFEC8EB00000A2823
:107B3000F4D9CDE70135E6E7012E03D106483146F9
:107B400005F02EFE002084F8240084F8230084F839
:107B50002200BDE8F08100BF005400400100030096
:107B6000FC1B002082000700211C0020840007006D
:107B70000121FFF799BF704770470000014B93F850
:107B800059007047FC1B002073B50E4C002104F116
:107B900064050D4E0B4600910A46284600F05AF83F
:107BA0006C343246094928460BF09AFB2046FFF711
:107BB000A1FE07492046324602B0BDE870400BF0F6
:107BC0008FBB00BFFC1B002060110020395400084F
:107BD0007178000808B5034B53F8203003B198477B
:107BE00008BD00BF781C002013B5084C002100918F
:107BF0000A460B46204600F02DF80549054A204666
:107C000002B0BDE810400BF06BBB00BFB81C0020F9
:107C100039540008601100202DE9F0410024074686
:107C20000E4625463B1919790A22304600F0E2F843
:107C30002E218046304600F098F801344044032C51
:107C40000544EFD13046F9790A2200F0D3F82844F0
:107C5000BDE8F08130B58371034D9DF80C300560AF
:107C600001714271C37130BD68460108024A026069
:107C70000A684260704700BF684601080548064B25
:107C800006490360064A0023037143718371C3717F
:107C90000BF026BBC01C00206846010839540008C0
:107CA0006011002013B5084C002100910A460B46D4
:107CB0002046FFF7CFFF0549054A204602B0BDE840
:107CC00010400BF00DBB00BFC81C00203954000849
:107CD00060110020014B0360704700BF804601081F
:107CE000F8B506460C468F180025BC4207D033680D
:107CF00030469B6814F8011B98470544F5E7284671
:107D0000F8BD000010B5034B04460360FEF7B0FF5A
:107D1000204610BD8046010838B505460C46084689
:107D200041B10CF0E9FA2B680246DB68284621468F
:107D3000984738BD38BD2DE9F041002406460F466E
:107D40002546BB68A1B2994204F101040AD2336806
:107D50003846D3F8088000F01EFA01463046C04786
:107D60000544EEE72846BDE8F08108B503689B6846
:107D7000984708BD38B50D210546FFF7F6FF0A21E3
:107D800004462846FFF7F1FF204438BD38B50446C5
:107D9000FFF7C2FF05462046FFF7ECFF284438BD39
:107DA00030B500238BB08DF82430012A98BF0A2209
:107DB0000DF12304B1FBF2F303FB1211CDB2092D37
:107DC00094BF30353735EDB2214604F801590BB177
:107DD0001946EFE7FFF7A0FF0BB030BD10B522B991
:107DE0000268C9B29268904710BDD2B2BDE8104097
:107DF000FFF7D6BFFFF7F2BF13B5084C0021009183
:107E00000A460B462046FFF725FF0549054A20464E
:107E100002B0BDE810400BF063BA00BFD81C0020D0
:107E2000395400086011002013B5084C002100915E
:107E30000A460B462046FFF70DFF0549054A204636
:107E400002B0BDE810400BF04BBA00BFE01C0020B0
:107E50003954000860110020014B587D704700BF65
:107E6000E81C00207047000013B5084C0021009169
:107E70000A460B462046FFF7EDFE0549054A204617
:107E800002B0BDE810400BF02BBA00BF001D00206F
:107E9000395400086011002013B5084C00210091EE
:107EA0000A460B462046FFF7D5FE0549054A2046FF
:107EB00002B0BDE810400BF013BA00BF0C1D00204B
:107EC000395400086011002010B504460CF014FA73
:107ED000013823462044834206D21A78017803F8F9
:107EE000011B00F80129F6E710BD38B5931EDBB27F
:107EF000222B0C461BD8A8B10B46B0FBF2F102FBBB
:107F00001100C5B2092803F8015BD4BF30355735DD
:107F100003F8015C09B10846EFE719702046FFF746
:107F2000D3FF02E030230B704870204638BD00209C
:107F300038BD031E10B50C4603DA2D2001F8010BE5
:107F40005842FFF7D2FF204610BD10B50446006826
:107F50000BF00AFB204610BD10B50446006808B1BE
:107F60000BF002FB00232360A360636010BD38B5F3
:107F700004460D46006801310BF0A2FE10B184E802
:107F80002100012038BD036810B5044613B14368D1
:107F90008B4207D22046FFF7EAFF20B1A3680BB956
:107FA00022681370012010BD70B50E4611460446BC
:107FB0001546FFF7E8FF18B92046FFF7CDFF04E0AC
:107FC000A560206831460CF039F9204670BD38B5FF
:107FD0000023044603604360836003730D4639B198
:107FE00008460CF089F9294602462046FFF7DCFFD7
:107FF000204638BD884210B50B46044607D00968B4
:1080000019B19A68FFF7D0FF01E0FFF7A5FF2046FE
:1080100010BD10B500230446036043608360037302
:10802000FFF7E8FF204610BD38B505460C4641B1C4
:1080300008460CF061F9214602462846FFF7B4FFD6
:1080400001E0FFF789FF284638BD13B500238DF8FE
:108050000410036043608360037301A904468DF834
:108060000530FFF7E1FF204602B010BD70B50446B1
:1080700085680E4609B9002070BD62B115442946D5
:10808000FFF781FF0028F6D02068A3683146184426
:108090000CF0D4F8A560012070BD07B500238DF861
:1080A0000410012201A98DF80530FFF7DFFF03B0AE
:1080B0005DF804FB13B50A22044608466946FFF73B
:1080C00038FF68460CF018F9694602462046FFF76B
:1080D000CDFF02B010BD0B4610B509689A68044682
:1080E000FFF7C4FF10B92046FFF736FF204610BD4A
:1080F00038B504460D4641B108460CF0FDF8294656
:1081000002462046FFF7B2FF10B92046FFF724FFD2
:10811000204638BD10B50446FFF7BFFF10B9204612
:10812000FFF71AFF204610BD03680A680BB15AB961
:1081300005E022B1896811B11078404270473BB127
:10814000806830B11878704718461146FDF756B868
:108150001846704708B582688B689A4206D1FFF7C7
:10816000E3FFD0F1010038BF002008BD002008BDAA
:10817000826808B50B4612B919B9012008BD11B9BA
:108180000368187802E00068FDF738F8D0F10100C4
:1081900038BF002008BD8368994203D2006810B13F
:1081A000405C704700207047836810B59A4206D241
:1081B0000468A0180BF0C8FF08B1001B10BD4FF0F9
:1081C000FF3010BD0022FFF7EFBF00009A422DE9FB
:1081D000F04107460D4614461E4601D93446164660
:1081E00038460C49FFF7F3FEAB689C420FD89E421D
:1081F00028BF1E462B68002213F806809A5529686E
:1082000038462144FFF710FF2B6803F806803846F4
:10821000BDE8F0811C73010810B58B680446FFF7B8
:10822000D5FF204610BD006808B10BF067B8704755
:10823000014B0360704700BF8046010813B5026818
:1082400002AB03F8011DD46819460122A04702B011
:1082500010BD10B5B0F81622B0F8143204469A4298
:1082600007D0B4F814325A1CA4F814221C44207D00
:1082700010BD03681B6998470028F2D14FF0FF300A
:1082800010BD10B5B0F81622B0F8143204469A4268
:1082900004D0B4F814321C44207D10BD03681B695F
:1082A00098470028F5D14FF0FF3010BD0023A0F80B
:1082B0001432A0F81632704710B5034B0446036021
:1082C000FEF7D6FC204610BD80460108F8B51746DB
:1082D000B0F81432B0F8162204469A420E4606D17F
:1082E00003681B69984710B94FF0FF3512E0B4F8E6
:1082F0001432B4F81652E118ED1ABD4228BF3D46BB
:10830000304614312A46FCF703FFB4F814322B44EC
:10831000A4F814322846F8BD10B5044600690828B0
:1083200001D002F0FFFD0823236110BD30B5B0F885
:10833000163287B0044633B1B0F814229A4202D103
:108340000368DB69984700F041FB022838D12069B7
:10835000082835D0B4F81632B3F5007F30D243097F
:1083600006AA02EB8303012100F01F0291400025C1
:108370008DF80C508DF80D508DF80E508DF80F5073
:1083800053F80C2C01300A4343F80C2C41F288338B
:10839000059304AB009303A92A462B46049502F0EB
:1083A0004DFEA8420CDD206906AB420903EB8202B8
:1083B00052F80C2C00F01F0342FA03F3DB0706D43B
:1083C000B4F81602B4F81432C01A07B030BDB4F8CD
:1083D00016222B46A1181431C2F5007202F0CEFE0F
:1083E0000028EDDDB4F816320BB9A4F814320344BA
:1083F000A4F81632E4E7F0B585B004460D461646FB
:1084000000F0E4FA0228074634D10121062202F0E6
:108410005BFD002820612DDB23682046DB6998473F
:10842000330A8DF802302B794FF4FA508DF804306E
:108430006B798DF803608DF80530AB79ADF800707D
:108440008DF80630EB798DF8073000F07FFC694637
:10845000054610222069FEF7B9FF0646284600F0BF
:1084600075FC002E04DA23682046DB6A984701E099
:10847000012000E0002005B0F0BD00002DE9F04132
:1084800088B006460F46904600F0A0FA02284FF04A
:10849000000422D108AD384645F8144D0BF02CFFEE
:1084A0002A4681B2384602F063FDA04215DD039BE7
:1084B00004A8DAB20092190EC3F30742C3F30723EC
:1084C000FFF7C8FB336830461C6A064B06A90693C3
:1084D000059B42460793A04700E0204608B0BDE850
:1084E000F08100BF684601084FF47A718160054948
:1084F00000220160082142600161A0F81422A0F866
:108500001622704798460108036910B5082B0446E7
:1085100001D1002010BD00F059FA0228F9D12069DC
:1085200001F0F0FED0F1010038BF002010BD70B5A1
:1085300004460E461546FFF7E7FF38B1206931467D
:108540002A460023BDE8704002F096BE4FF0FF308F
:1085500070BD38B50446FFF7D7FF01281BD0B4F82B
:108560001622B4F814329A4217D12069082803D091
:1085700001F0C8FE012801D000250FE02368204645
:108580001B699847051C18BF01253DB92368204683
:10859000DB6A984702E0054600E00125284638BD21
:1085A00008B5FFF7B1FF003018BF012008BD00007B
:1085B00013B5084C002100910A460B462046FFF7F0
:1085C00049FB0549054A204602B0BDE810400AF0C3
:1085D00087BE00BF141D0020395400086011002020
:1085E00013B5084C002100910A460B462046FFF7C0
:1085F00031FB0549054A204602B0BDE810400AF0AB
:108600006FBE00BF1C1D00203954000860110020FF
:1086100038B5184C94F92C305BB394F82D3043B333
:1086200005F00EFA94F82C2094F82D5051B2002940
:1086300095FBF1F106DD01290BDC013A84F82C20D1
:10864000002307E0013104DB013284F82C200223EF
:1086500000E0012394F82D20013A84F82D20C4185D
:1086600005F022FA204605F0FFF9BDE8384005F094
:108670001BBA38BD241D002013B5084C0021009101
:108680000A460B462046FFF7E5FA0549054A20460B
:1086900002B0BDE810400AF023BE00BF541D002008
:1086A000395400086011002013B5084C00210091D6
:1086B0000A460B462046FFF7CDFA0549054A2046F3
:1086C00002B0BDE810400AF00BBE00BF601D0020E4
:1086D0003954000860110020014B0360704700BF4F
:1086E000804601080369186C5B6CC01A00F03F00FB
:1086F00070470369196C5A6C914202D05A6C985CAD
:1087000070474FF0FF3070470369196C5A6C914203
:1087100007D05A6C985C5A6C013202F03F025A64DE
:1087200070474FF0FF30704710B5034B04460360AD
:10873000FEF79EFA204610BD80460108436910B539
:108740000446196C5A6C9142FBD1237E13B9002365
:10875000237610BD0348402105F0F3FB0028F6D135
:10876000F3E700BF0044004070B504460E462C48B5
:1087700040F2277105F0EBFB20B963691A6C5B6C62
:108780009A4211D163691D6C013505F03F0563699B
:108790005A6C95420FD0EFF31082D20732D5196C84
:1087A0005A6C914207D12DE01D4840F227710122F9
:1087B00005F0A7FBE6E71A4840F2277105F0C7FB72
:1087C0000028E4D01648802105F0BBFB0028DED04D
:1087D000134840F22771002205F093FB63691048AB
:1087E0005A6C511C5964995C05F0A3FB63690C48F1
:1087F0005A6C40F2277102F03F025A64012205F0E0
:1088000080FBC4E71A6C06489E54636940F22771E6
:108810001D64012525762A4605F073FB284670BDA8
:108820000044004010B51E4840F2255105F08FFB72
:1088300078B11B4805F081FB1A4BC0B25A6D996D97
:10884000013202F03F028A4203D0596D5A65194441
:108850000875134840F2277105F079FBF8B1114C07
:10886000D4F89C20D4F8A0309A4207D1BDE810403B
:108870000B4840F22771002205F043BBD4F8A0302A
:1088800007485A1C234493F85C10C4F8A02005F054
:1088900050FBD4F8A03003F03F03C4F8A03010BD63
:1088A00000440040681D0020014B187C704700BF49
:1088B000681D0020F7B5164C002504F1A406154FDD
:1088C0002B4629462A4600953046FFF7C3F93A461B
:1088D000304611490AF004FD4FF47A73C4F8B430FD
:1088E0000E4B0F49C4F8AC3004F11403C4F8BC308B
:1088F00004F1AC0004F15C033A46C4F8B050C4F88B
:10890000C03084F8C45003B0BDE8F0400AF0E8BCC1
:10891000681D00206011002039540008D846010865
:10892000D986000870474FF0FF307047014B036055
:10893000704700BF8046010810B5034B0446036032
:10894000FEF796F9204610BD80460108FEF7AEB846
:1089500008B5FEF797F808BD08B50846FEF7C6F853
:10896000012008BD002242604FF47A728260014A01
:1089700002607047004701080846FEF76BB8000028
:1089800037B50D4C00210D4D0B4600910A4620468F
:10899000FFF760F92A460A49204608340AF0A0FC8D
:1089A0002046FFF7DFFF074920462A4603B0BDE80F
:1089B00030400AF095BC00BF301E0020601100203E
:1089C000395400082D89000870470000054B1B78BA
:1089D00003F0FF002BB1044B1B78002B14BF0220C7
:1089E00001207047791E0020711E002037B50B4C06
:1089F00000210B4D0B4600910A462046FFF72AF94D
:108A00002A46204607490AF06BFC074904F1080092
:108A10002A4603B0BDE830400AF062BC481E002080
:108A20006011002039540008C98900080023036040
:108A30001846704700230360184670470023036000
:108A4000184670472DE9F0410B7886B0002B0C4694
:108A500014BF90464FF0000806460BF04DFC074649
:108A600020460BF049FC182301931E230125029395
:108A700002230393059000950494404631463A46FC
:108A8000002302F037FD034B18705D7006B0BDE89F
:108A9000F08100BF541E002048F20202904210B53F
:108AA00024D006DC992855D048F20102904213D018
:108AB00010BD48F28002904207D0B0F5084F4ED06A
:108AC00048F2100290425CD130E02E4B01229A70A5
:108AD000DA7000221A7110BD2A4C01236371FEF76F
:108AE0003FFE00F5EA403030A06010BD254C6379B0
:108AF0004BB100234FF47F40A36003F06FFAE720EF
:108B000003F0E8FA06E0237B13B1013B237301E095
:108B100001232377002363716377A377E37784F8D6
:108B2000203084F8213084F8223010BD0A7D154BA6
:108B30006AB99A604FF47F4001225A7783F8212066
:108B400003F04CFABDE81040E72003F0C3BA00225E
:108B50005A7710BD0B4B012283F8232010BD084625
:108B6000002100F0D0FF0121044601F013F8064B6C
:108B70001B689C4205D1034B002283F82020DA7742
:108B80009A7710BD541E0020540000201FB54FF4EA
:108B900061504FF461610A2200238DE80F00064BFB
:108BA00044F620621A60684601A902AA03AB01F0EC
:108BB000AFFC05B05DF804FBEC1E00201FB50023E0
:108BC000009301930293039301A8694602AA03ABA1
:108BD00001F064FC05B05DF804FB000030B5554DB4
:108BE00000249FB0FF20AC70EC706C706C716C77DF
:108BF00085F82340AC77EC7785F8204085F8214054
:108C000003F0ECF9E72003F065FA214622462046FE
:108C100002F04CFC2B46012103F80D4F0E200A46B2
:108C200001F0FCFC6B79012B05D1642003F070F896
:108C300001F0D0F8F6E710210C2001F03BFD3E4892
:108C400002F0FEF83D4802F0A7FD012002F088FD89
:108C500068463B4900F0DAFDAB786A78354C1A4338
:108C60001CD194F82430002B5AD0FF2002F02AFDAA
:108C7000002855D11A24013C06D0E72003F058FA09
:108C8000322003F045F8F6E70E20012122462D4B55
:108C90002C7301F0C3FC85F82440DDE7E72003F0E6
:108CA00019FA04F10C030E200121002201F088FCC6
:108CB000A37813B102F090FD20702B7801210133CD
:108CC0002B7300221F4B0E2001F0A8FC0020012472
:108CD0000146012202F0EAFB214622461A4B0E20F1
:108CE0006C7301F09BFC02F065FB642003F010F84C
:108CF000002002F029FB85F825404FF47F40002436
:108D000085F8214003F06AF9E72003F0E3F948F21F
:108D1000442002F0F3FCFFF739FF2C771FB030BD81
:108D2000E72003F005FAFA2002F0F2FF684600F0AF
:108D3000C9FD91E7541E002020470108B001002022
:108D4000458A0008601E0020611E0020024B1A6840
:108D500018601046704700BFEC1E00207FB53D4CE8
:108D60000025A06203F08CFC03F0CCFB3A4B3B4A9D
:108D700000933B4B3B4901933B4B3C4802933C4B9C
:108D800003933C4B02F0C8FA642002F0C1FF0020BC
:108D900002F0DAFA012348F2442084F8253084F8FE
:108DA000215002F0ABFC344B1A881E46012A2DD00C
:108DB0000E2010212A4604F10C0301F001FC1028BA
:108DC00024D12379234D93B92B7B13B901232B771E
:108DD0000DE0687B58B90146012202F067FB0121D2
:108DE0002B4603F80D1F0E200A4601F017FC2379CD
:108DF0003BBB184B1B7F23B3204801F041FCFFF71E
:108E0000DDFE04B0BDE87040FFF7C0BEFF2002F0F9
:108E100059FC00210E2001F04DFC10210E2001F024
:108E200049FC0021102216480AF0DCFE1021002225
:108E3000134B0E2001F0F2FB0023338003F06CFD96
:108E4000BFE74FF47F4003F0C9F8E72003F042F991
:108E5000D2E700BF541E0020BDC50008358A0008B7
:108E6000D1C500082D8A00083DC60008998A00086F
:108E700065C600083D8A0008FE020020801E002012
:108E8000601E00202DE9F341AC4C04F0CBFC002324
:108E9000236394F834304BB994F8353033B9A36870
:108EA0008BB3FEF75DFCA36898422CD394F8253071
:108EB000A24D002B43D000266E71AE606E77AE637C
:108EC00085F83460012785F82560AE77EE7785F860
:108ED000206085F8226002F06DFA6FF07F4085F81F
:108EE000217003F07BF8E72003F0F4F8642002F02F
:108EF0000FFF2B7F1BB3304602F026FA85F8257052
:108F0000FFF76CFE1BE094F825308C4DBBB92B7934
:108F10002BB9FEF725FC00F5EA403030A8600020B0
:108F200002F012FA012384F825304FF47F40002329
:108F300084F8213003F052F8E72003F0CBF8237FC8
:108F40007E4E13B1FFF74AFE06E0337923B1737FFB
:108F500003F0FF05002B6FD0E278784B012A13D184
:108F60005A7F012A10D15B79012B0DD1032574485A
:108F70000BF0C2F9013D82B27149012002F092F971
:108F800015F0FF05F3D1E57094F83C306B4D33B923
:108F9000AB7F002B68D1EB7F002B65D1CAE06B7FE4
:108FA0000BB395F83530F3B9AB7F002B6DD01AE0D9
:108FB0002B4603F80F2F0E200121032201F02EFB78
:108FC00000264FF6FF7084F8216003F007F8E720D1
:108FD00003F080F8FEF752F9B042584DC0F281809C
:108FE0000123AE63AB77A37F544D002B00F0A2802A
:108FF000EB7FBBB9FEF7C4F8002811D002DA4FF4BA
:109000007F0007E0012801D14E4803E0022803D188
:109010004FF0FF1002F0E2FFE72003F05BF801E001
:109020000123EB77FEF770F8002840F0838084F886
:109030002000E077A0777DE029462A462846B560E3
:1090400002F034FA40480BF057F9404F804638465A
:109050000BF052F900970190791F032042462B46EE
:1090600002F0BEF9357177E7FEF7F8F800234FF408
:109070007F4084F82030E377A37702F0AFFFE7204A
:1090800002B0BDE8F04103F025B8642002F040FED4
:1090900005F13D0001F082FA95F82230002B8FD0C7
:1090A0004FF47F0002F09AFF94F82230234D03F032
:1090B000FF02002B3FF47CAFE72003F00BF84FF4E6
:1090C000FA7002F025FEE72003F012F84FF4FA7070
:1090D00002F01EFE95F82230013BDBB285F822300B
:1090E000E2E795F834302BBBAB6B0133022BAB635B
:1090F00004BF012385F83430FEF77EF800280ADA31
:10910000A36B0133022BA36303D10C4B012283F821
:109110003420022300E0032384F8223094F8223024
:109120000E20E37301210A4B032201F077FA00239A
:10913000A37758E702B0BDE8F08100BF541E0020BD
:10914000B30100200060FF00BA010020BF01002031
:10915000631E002013B5084C002100910A460B46FF
:109160002046FEF777FD0549054A204602B0BDE8D6
:1091700010400AF0B5B800BFCC1E002039540008DA
:1091800060110020704708B5012003F039FFFEE7A9
:1091900008B5032003F034FFFEE708B5042003F010
:1091A0002FFFFEE708B5052003F02AFFFEE7704712
:1091B0007047704708B503F0EDFCBDE80840FDF7C7
:1091C0007DBB000008B5024B0BB1AFF3008008BDBA
:1091D0000000000008B5024B0BB1FFF723FB08BDF0
:1091E0002588000808B5024B0BB1FEF7C4FC08BD8A
:1091F000777B000808B5024B0BB1FEF7BDFC08BD3C
:10920000797B000808B5024B0BB1FEF72BFE08BDB9
:10921000657E000808B5012004F0F6F838B1012099
:1092200004F000F9024B13B10020FEF7D3FC08BD97
:10923000D57B000808B5022004F0E6F838B102201A
:1092400004F0F0F8024B13B10120FEF7C3FC08BD97
:10925000D57B000808B5042004F0D6F878B10420C6
:1092600004F0E0F80020064B0146188002F0E8FF09
:10927000BDE8084003481021012204F0FABD08BDF2
:109280000C1F0020002C014008B5082004F0BCF899
:1092900038B1082004F0C6F8024B13B10320FEF7E2
:1092A00099FC08BDD57B000808B5102004F0ACF887
:1092B00038B1102004F0B6F8024B13B10420FEF7C9
:1092C00089FC08BDD57B000808B5202004F09CF877
:1092D00038B1202004F0A6F80E4B13B10520FEF79C
:1092E00079FC402004F090F838B1402004F09AF85E
:1092F000084B13B10620FEF76DFC802004F084F8C3
:1093000038B1802004F08EF8024B13B10720FEF72D
:1093100061FC08BDD57B000808B54FF4005004F08F
:1093200073F840B14FF4005004F07CF8174B13B1C0
:109330000D20FEF74FFC4FF4804004F065F840B17B
:109340004FF4804004F06EF8104B13B10E20FEF77E
:1093500041FC4FF4004004F057F840B14FF4004096
:1093600004F060F8094B13B10F20FEF733FC4FF403
:10937000006004F049F838B14FF4006004F052F88E
:10938000BDE8084002F04EBC08BD00BFD57B000818
:1093900008B51048102104F0A5FDC8B10D481021F2
:1093A00004F0ABFD002003F001F830B90A4B1A8835
:1093B00092B20A3292B21A8008BD064810210022E9
:1093C00004F057FDBDE808400020012102F038BF3D
:1093D00008BD00BF002C01400C1F002008B5012073
:1093E00004F078FB50B1012004F084FB044B0BB176
:1093F000FFF70EF9BDE8084004F056BB08BD00BFFA
:109400001186000808B5022004F064FBB0B10C4BD3
:1094100000224FF400301A7004F004F8012004F028
:109420002BFA10B1012004F031FA04F03DFB0220C8
:1094300004F060FBBDE8084004F036BB08BD00BF87
:10944000891E002002F080BB00F062B838B51449D4
:109450000B78012B23D1134A13680BB90B7038BD5D
:10946000114C402B206881B205D94030403B206030
:109470001360402504E09DB2034423600023136081
:109480000A482A460844C02105F06CFA0120294602
:1094900005F070FBBDE83840012005F0D5BA38BDB5
:1094A0004C11002054110020501100204C100020BD
:1094B00008B5094B01221A70084B002203201A80BC
:1094C00005F088FB064B024618804FF4887105486A
:1094D000BDE8084005F05EBA00100020041000202E
:1094E0000210002006100020074B1B68052B09D135
:1094F000064B1A68511C052A196003D100221A6014
:10950000FDF712BB704700BF341F0020D81E00209B
:1095100070B52B4D2B4C2B682B4E9BB22380228891
:1095200033881340990508D54FF6FF532B60A37875
:109530000133DBB2A370FFF7D7FF228833881340D3
:109540001A0401D505F058F92288338813405B05C9
:1095500005D54FF6FF332B601C4B5B68984722887C
:1095600033881A40900444BF4DF6FF722A60228867
:109570001340D90405D54EF6FF732B60002003F08D
:10958000FDFC2288338813401A050BD5104B1B783D
:1095900013B103F0D3FC02E0022003F0EFFC4FF222
:1095A000FF732B60228833881340DB0507D54FF605
:1095B000FF632B600720BDE8704003F0DFBC70BD87
:1095C000445C0040DC1E00202029002024020020F2
:1095D00020030020034B9B7A13B1034B05221A6032
:1095E000704700BFFC280020341F0020014B0422DC
:1095F0001A607047341F0020034B1A78202A04BFDA
:1096000000221A70704700BFE01E00207047000063
:10961000212810B508D1114B1B681B7803F07F037C
:10962000212B10D0022010BD2028FBD10B4B0C4A5F
:109630001B681B78107003F07F03212B094B18BFA8
:1096400000230BB9EEE7084B044A002412682046B9
:10965000936154829847204610BD00BF1C2900200A
:10966000E01E0020B9960008A1960008074B1B6871
:109670001B7803F07F03212B06D100F0DF000228C6
:1096800014BF022000207047022070471C290020D0
:1096900009B1022070470128FBD808467047000036
:1096A00020B9034B08221B681A8270470148704793
:1096B0001C2900201C02002020B9034B08221B6833
:1096C0001A827047014870471C2900201C020020A4
:1096D00010B5FDF775FA054B00241B689C7203F06A
:1096E00015FC05F08DFA024B1C6010BD1C290020F2
:1096F000341F0020334B344A1B68D27910B5002444
:109700005A729C72DC72204605F056F920464FF4DE
:10971000007105F059F92046102105F063F9204643
:10972000402105F0FBF98021204605F0E7F92046AD
:1097300005F0B0F9254B204693F8341005F028FACF
:10974000204605F094F90120214605F03DF901205D
:10975000C02105F0D3F90120202105F043F90120B3
:10976000214605F058F902204FF4C06105F02CF9AC
:1097700002204FF4807105F0C1F90220214605F066
:109780004AF90220202105F02DF90320214605F099
:109790001BF903204FF4887105F0C0F90320402124
:1097A00005F0F6F903204FF4405105F034F9032099
:1097B000214605F017F9204604F0B2FF044B0122C0
:1097C0001A6010BD1C2900208D4701081C020020D2
:1097D000341F0020014904F09FBD00BF5402002047
:1097E000014904F099BD00BF5C020020054B1B68D5
:1097F000DB78042B04D8044901EBC30104F08CBDD1
:10980000002070471C2900206402002038B504465F
:109810000D46FFF7A7F8204625614FF41651FFF7D4
:10982000ABF8204638BD70B506460D4600242846E4
:109830000AF062FD844208D2295D3046FFF78CF8B9
:10984000012002F065FA0134F1E770BD2DE9F04125
:1098500004460E46904600252046FFF779F800287A
:10986000FADD2046FFF772F84545C1B206D1002364
:10987000337020461249FFF7D6FF15E00D29F6D0C8
:109880000A29F4D0082901D07F2904D1002DE3D082
:10989000771E013D02E0771C317001352046EDB2A4
:1098A000FFF75AF83E46D7E72046FFF751F8002861
:1098B00003DD2046FFF74AF8F6E7BDE8F08100BF78
:1098C0001A730108F0B585B00446FFF741F8002887
:1098D00040F39D802046FFF739F8C0B2772868D161
:1098E00004F1140600212122304604F135050AF066
:1098F00079F94122002128460AF074F904F176072B
:10990000002384F87630204642497B70FFF78BFFB6
:10991000204631462022FFF799FF20463E49FFF7B7
:1099200082FF012220463946FFF790FF94F87630F7
:10993000A3F13002D2B2032AEFD8312B0BD120464B
:109940003649FFF770FF20463549FFF76CFF204688
:109950003449FFF768FF94F87620B2F1300708D059
:1099600020463149FFF75FFF204629464022FFF796
:109970006DFF20462D49FFF756FF23693A463046D2
:109980002946984720462A49FFF74DFF2046294996
:10999000FFF749FF20462849FFF745FF20462749A2
:1099A000FFF741FF20462649FFF73DFF20462549A6
:1099B00028E069282BD1244B01AD93E8070085E806
:1099C000070020462149FFF72EFF0026AF5D204605
:1099D0003B0903F13001392984BF03F15701C9B2B2
:1099E00007F00F07FEF7B8FF07F13001392984BFF0
:1099F0005737F9B220460136FEF7AEFF0C2EE5D1FF
:109A00001349204605B0BDE8F040FFF70CBF05B094
:109A1000F0BD00BF6E71010875710108A2710108E7
:109A2000D8710108037201084972010854720108D3
:109A300097720108B7720108EA7201081D730108E4
:109A40005C7301088D730108E8F7FF1FA373010819
:109A50001A73010813B5084C002100910A460B4601
:109A60002046FEF7F7F80549054A204602B0BDE852
:109A7000104009F035BC00BFE41E00203954000836
:109A800060110020002100F004B80E4B5B584350D9
:109A900004310D480D4B42189A42FFF4F6AF0C4AC0
:109AA00000F003B8002342F8043B0A4B9A42FFF44B
:109AB000F9AF03F0B1F9FCF73DFEFDF7BDF8FCF797
:109AC00087FE70474C75010800000020780B0020CD
:109AD000780B00202C290020FFF7FEBF0B0A017035
:109AE00043700B0C090E8370C17004307047017015
:109AF000090A41700230704743185A78435C03EBFF
:109B0000022080B2704710B543189A78DC78415C27
:109B1000120402EB046258780A4402EB002010BDE4
:109B200073B544790023022C01930FD0032C19D074
:109B3000012C2BD1164D2B692E4623B12B6901A880
:109B400098470246B8B9B16801201BE0104DEB6898
:109B50002E4623B1EB6801A89847024658B9B16870
:109B600002200FE00A4D6B692E464BB16B6901A8CC
:109B70009847024620B1A9682046BDF8043003E0AA
:109B8000B16803200022134600F024FC02B070BD2F
:109B900064200020072830B512D8012910D8EFF32F
:109BA000108472B60125854001FA00F0054B1A6851
:109BB00022EA050202431A602346DB0700D462B69C
:109BC00030BD00BFAC02002070B5012186B0054653
:109BD000FFF792FF430404462AD5B0F5824F27D100
:109BE00028460521FFF788FF05EB8000EE1D0024C5
:109BF000C51DAE4206D030460221FFF77DFF043678
:109C00000444F6E7724B1A8E92B2224492B21A863C
:109C1000DA6B1444DC63D96B9A6B914240F0CA80D2
:109C200093F84020002A00F0C5809B69992031E01C
:109C300024F4FF4020F07F0080B2002800F09780DD
:109C400048F210039C4228D00CD8B4F5004F40F2E3
:109C5000BC8048F202039C4215D948F204039C429E
:109C600011D0B2E048F280039C420CD004D848F2F4
:109C700040039C424FD0A8E0B4F5024F03D0B4F5A6
:109C8000084F6BD0A1E0524B9A69002A00F09280F5
:109C90009B69204600210A4667E00023EA185279B2
:109CA0000DF803200133042BF8D16B7A05F10D0078
:109CB0008DF80430AB7A8DF80530EB7A8DF80630EC
:109CC0002B7B8DF80730002300AA1A44C15C0133B6
:109CD000042B1172F8D105F11100002300AA1A44D7
:109CE000C15C0133042B1173F8D105F11500002379
:109CF00000AA1A44C15C0133042B1174F8D12B79EA
:109D00008DF81430324B9A69002A53D09B69204653
:109D10006946152229E0053500212846FFF7F3FEA4
:109D2000042100902846FFF7EEFE08210190284606
:109D3000FFF7E9FE0C2102902846FFF7E4FE102110
:109D400003902846FFF7DFFE214B04909A69002A12
:109D500030D09B6920466946142206E01C4B9A6964
:109D600042B39B692046691D0122984722E041F2D7
:109D700003039C4205D0A4F580530E3B9BB2012BFC
:109D80001AD86C1D20460421FFF7BDFE39301CD1C6
:109D90002A790F4B00212046DA62FFF7B4FE042136
:109DA00005462046FFF7AFFE393003D12846012192
:109DB000FFF7F0FE012009E0054B1B889BB29C4297
:109DC00004D0B4F5805FF5D100E0002006B070BD8E
:109DD0006420002070B50E4C6688B6B2B6B16068DB
:109DE00005782B1F5D425D412DB1FFF7EDFE003080
:109DF00018BF012000E02846064618B935B194F88E
:109E000041301BB90023638001F0B4FD304670BDC2
:109E1000642000202DE9F04F85B004468A46914623
:109E200002F0C0FE00250190DFF83083B8F8023060
:109E300046469BB2002B40F0938003F0F3FC02F007
:109E4000B1FE0290029A019BD31A0393039B002B4D
:109E500003DA019B029A13440393BF4B1B68002B48
:109E6000E2D0039A9A42DFD3338841F207029BB2D1
:109E7000934227D841F20602934261D240F2022275
:109E800093425DD00FD80C2B08D8082B58D2002B4A
:109E90004FD0062B88BF00235AD851E00D2B4CD051
:109EA00040F201220BE041F2020293424BD8B3F59B
:109EB000805F45D8B3F5017F3FD940F20722934236
:109EC00037D13AE041F21102934236D014D841F230
:109ED0000B02934234D005D841F2090293422FD0AD
:109EE00031D82AE041F20F0293422CD028D841F217
:109EF0000D02934227D01CE042F2060293421CD08E
:109F000007D8B3F5005F14D942F20402934221D876
:109F100013E0B3F5804F00F0EE8105D8A3F50053B0
:109F2000083B012B09D904E044F20B02934200F0F4
:109F3000E2810B2003F064F8DDE1FF232370DAE116
:109F40004FF0FF3304E04FF0FF3323606360D2E152
:109F50002360D0E1204600213A2209F043FECAE105
:109F6000D8F804603378042B40F079813046012121
:109F7000FFF7C2FD05463046FFF726FE002840F0F9
:109F8000638141F207039D4206F1050755D841F26E
:109F900006039D4280F0AE8040F202239D4200F015
:109FA000A98014D80C2D09D8082D80F0A380002D8D
:109FB00000F04A81062D00F2E5809BE00D2D00F0B7
:109FC000968040F201239D4200F091803CE141F2F5
:109FD00002039D4218D8B5F5805F00F28B80B5F57D
:109FE000017F40F2848040F207239D4240F02C81A3
:109FF0003379384604F8013B0021FFF784FD014620
:10A000002046FFF76BFD1FE141F204039D4200F083
:10A010008B8040F2A58000213846FFF774FD0421B3
:10A0200020603846FFF76FFD083444F8040C06F151
:10A030000D03224606F11D016FE041F211039D421E
:10A0400055D02BD841F20B039D4253D01CD841F27E
:10A0500009039D424ED000F2908000213846FFF760
:10A0600052FD042120603846FFF74DFD0821606055
:10A070003846FFF748FD0C21A0603846FFF743FD46
:10A0800004F10C0BE060DEE041F20F039D4267D06B
:10A0900036D841F20D039D4246D0D5E042F2060388
:10A0A0009D4224D00BD8B5F5005F40F2CD8042F23E
:10A0B00004039D4288BF002300F2888017E042F22B
:10A0C00008039D42C0F0C08042F209039D420ED9B0
:10A0D00044F20B039D4240F0B7807379384601216A
:10A0E000A8F83030FFF708FDA8F83200ACE033796B
:10A0F0002370A9E038460021FFF705FD2060A3E0AA
:10A1000000213846FFF7FFFCA3464BF8040B04215F
:10A110003846FFF7F8FC606095E053F8040B8B427B
:10A1200042F8040BF9D18FE000213846FFF7EBFC31
:10A13000042120603846FFF7E6FC082160603846BD
:10A14000FFF7E1FCE36804F1080B3933A0607AD132
:10A150000121FFF71FFD76E0EC1E002064200020A7
:10A1600000213846FFF7CFFC042120603846FFF776
:10A17000CAFC083444F8040C66E0337923713B6868
:10A18000236061E000213846FFF7BDFC0421206018
:10A190003846FFF7B8FC082160603846FFF7ACFC92
:10A1A0000A21A0603846FFF7A7FC0C3444F8020CE3
:10A1B00006F11103224606F1350153F8040B8B42D8
:10A1C00042F8040BF9D11B8813803DE0F218527954
:10A1D000E2540133042BF9D106F109000023C15CDC
:10A1E000E2180133042B1171F9D106F10D0000239F
:10A1F000C15CE2180133042B1172F9D106F1110090
:10A200000023C15CE2180133042B1173F9D106F16C
:10A2100015000023C15CE2180133042B1174F9D13D
:10A2200006F119000023C15CE2180133062B1175F9
:10A23000F9D106F11F000023C15CE2180133202B85
:10A240009176F9D100E05C46B8F800202C4B92B230
:10A25000954236D100221A8083F8412031E0B8F8C7
:10A2600036309BB26BB33046032196F802B0FFF74D
:10A2700043FC0746BAF1000F0BD00421701DFFF715
:10A2800042FC06F115010246C9F800005046FAF7F3
:10A290003FFFCBEB07077B1EB3F5806F07D20BF1B7
:10A2A0000501204631443A46FAF732FF01E04FF00B
:10A2B000FF37B9F1000F01D0C9F800700023A8F8EA
:10A2C00036300023A8F8023001F054FB3378042B19
:10A2D00005D1B5F5805F02D13046FFF721FCB8F813
:10A2E00000309BB2002B7FF49FAD054BDB8E9BB201
:10A2F000002B7FF499AD002005B0BDE8F08F00BFC2
:10A300006420002007284FF001030FD8EFF31082DC
:10A3100072B603FA00F0064B1968134608420CBFE8
:10A3200000200120DB0702D462B670471846704750
:10A33000AC020020034B1880084600210A46FFF7B4
:10A3400069BD00BF6420002010B5034B0124DC86EA
:10A35000BDE81040FFF75EBD6420002038B503461D
:10A36000154601224A710C46881D1946FFF7BFFBAE
:10A37000291D0570204601F06DFB002038BD38B561
:10A38000BDF814500C462B44D518ADB202216171B2
:10A39000A071E271294604F10800FFF7A8FB691DCE
:10A3A000204689B201F056FB002038BD38B5134471
:10A3B0000C469DB202216171A0712946E27104F13F
:10A3C0000800FFF794FB691D204689B2BDE83840BC
:10A3D00001F040BB2DE9F84F1C4604F1020B0323AA
:10A3E00001F107091FFA8BFB88710D464B71484636
:10A3F00059461646FFF77BFBB4F57A7F824605F196
:10A400000B0812D82146FFF772FB21465046FFF792
:10A410006EFB314640462246FAF77AFEA11D2846D9
:10A4200089B2BDE8F84F01F015BB4FF47A77B4FB61
:10A43000F7F30BEB430189B2FFF759FB394650465E
:10A44000FFF755FB314640463A46FAF761FEA4F560
:10A450007A74284640F2EE31A4B23E4401F0FAFA92
:10A46000B4F57A7F84BFA4F57A74A7B2A84688BFF2
:10A470004FF47A74314628F8054F4846224698BF73
:10A480000027FAF745FEA11C404689B2264401F098
:10A49000E1FA0FB13C46E3E7BDE8F88FF7B51E4699
:10A4A000FF238DF80730194B00259C68475D631921
:10A4B0000135042D5F72F9D100200D5C23180130A5
:10A4C00004285D73F9D10021505C6318013104291F
:10A4D0005874F9D104F115000021FFF7FFFA0022AA
:10A4E000B35C83540132042AFAD12146142242F289
:10A4F0000100FFF733FF42F201000DF10701FFF702
:10A5000019FF9DF9070003B0F0BD00BF64200020D3
:10A510002DE9F3411F46FF238DF807301E4B0646F9
:10A52000D3F8088033680C46013B122B9CBF1423E0
:10A5300033600B6808F10900013B122B9CBF142308
:10A540000B6013681546013B122B9CBF142313604C
:10A550003B68013B122B9CBF14233B603168FFF723
:10A56000BDFA2168FFF7BAFA2968FFF7B7FA396828
:10A57000FFF7B4FA4146142242F20900FFF7EEFE5B
:10A5800042F209000DF10701FFF7D4FE9DF9070023
:10A5900002B0BDE8F08100BF6420002010B5074B79
:10A5A0000446996842F205000022FFF7D7FE2146D3
:10A5B00042F20500BDE81040FFF7BCBE6420002059
:10A5C0002DE9F3411F4602ACFF2304F8053D124B71
:10A5D00086469D680E4605F1090071469046FFF7D4
:10A5E0007DFA3146FFF77AFA4146FFF777FA2946B6
:10A5F0000C2240F20120FFF7B1FE214640F201207B
:10A60000FFF798FE3846002101AAFFF79DFE01984A
:10A6100002B0BDE8F08100BF642000202DE9F341C5
:10A62000984602AD4FF0FF3345F8043D134B864684
:10A630009E680C4606F10A0071461746FFF74EFA6F
:10A640000C21FFF74BFA2146FFF748FA3946FFF78E
:10A6500045FA4146224606F11A00FAF759FD3146FD
:10A660001022A3B29020FFF7A1FE40F2022029465B
:10A67000FFF760FE019802B0BDE8F0816420002081
:10A6800013B50B4B04469968002240F20720FFF7F0
:10A6900065FE40F207206946FFF74CFE9DF8033047
:10A6A0009DF8000023709DF80430637002B010BD67
:10A6B0006420002037B50E4A034694680D4604F125
:10A6C00009001946FFF70AFA2946FFF707FA21465B
:10A6D000082240F20320FFF741FE40F203200DF173
:10A6E0000601FFF727FEBDF8060003B030BD00BF2E
:10A6F000642000202DE9F0430023CA5CC2540133DA
:10A70000102BFAD10022344B467B991891F8018026
:10A710000178847B88EA01089919C97A90F80CC0FD
:10A7200088EA01081919CF7A417880F810804F40E3
:10A73000C17B47745D1895F80B908578634489EA6E
:10A74000050593F80B90C378FFB289EA030390F8EC
:10A750000490857488EA090890F80590EDB287EABC
:10A76000090790F80690C37485EA090590F80790E8
:10A77000DBB283EA090390F8089080F814805FFA4E
:10A7800088F888EA090890F809904775FFB287EAC7
:10A79000090790F80A908575EDB285EA090590F8E9
:10A7A0000B90C375DBB283EA0903013288EA0C0C13
:10A7B0007E406C4059400A2A80F81880477685769A
:10A7C000C37680F81CC046778477C17700F110000B
:10A7D00099D1BDE8F08300BFE247010810F0800F77
:10A7E0004FEA400018BF80F01B00C0B27047000065
:10A7F0002DE9F04F91F8A03090F800A042788AEA55
:10A80000030A80F800A091F8A13097B0534043703C
:10A810008278079391F8A23090F8049053408370A7
:10A82000C278059391F8A33046795340C3700693DC
:10A8300091F8A430827989EA030980F8049091F8AC
:10A84000A53090F808805E40467191F8A630477AAE
:10A8500053408371C279089391F8A730044653405E
:10A86000C3710C9391F8A8304FF0000B88EA0308ED
:10A8700080F8088091F8A9305F404772827A91F899
:10A88000AA30534083720993C07A91F8AB3094F8A0
:10A890000CC04340E3720D9391F8AC3094F80DE096
:10A8A0008CEA030C84F80CC091F8AD30A57B8EEADD
:10A8B000030E84F80DE091F8AE30E27B5D40A573A5
:10A8C00091F8AF305A40464BE2739A449AF80B0124
:10A8D00091F890A0994480EA0A00207099F80BA1A1
:10A8E00091F8949098448AEA090984F8049098F8B9
:10A8F0000B9191F898809C4489EA080884F80880B4
:10A900009CF80B8191F89CC09E4488EA0C0C84F85A
:10A910000CC09EF80BC191F891E01F448CEA0E0E1A
:10A9200097F80BC191F89D701E448CEA0707677376
:10A9300096F80B7191F899601D447E406672079EEF
:10A940000D981E4496F80B7191F8956084F801E01B
:10A950007E406671059E18441E4496F80B7191F86E
:10A960009A607740089E1E4496F80BE191F89E602D
:10A970008EEA0606DDF824E09E449EF80BC191F8AD
:10A9800092E08CEA0E0E84F802E095F80BE191F863
:10A990009650A7728EEA0505A571069DA6731D4403
:10A9A00095F80B6191F89F5075400C9E1E4496F8E7
:10A9B0000B7191F8936013447E40E67090F80B6140
:10A9C00091F897007040E07193F80B2191F89B305B
:10A9D000CDF81CB05340E573E3720D4602E000BFB2
:10A9E000E2470108A77894F80090103D87EA090033
:10A9F000FFF7F4FEFFF7F2FEE67894F801B0824626
:10AA000086EA0B00FFF7EAFEFFF7E8FE2179A3795B
:10AA100080EA060880EA0B0B83EA010003910293A7
:10AA2000FFF7DCFEFFF7DAFE8AEA0909E6798AEA2F
:10AA3000070A6779024686EA07000492FFF7CEFE0E
:10AA4000FFF7CCFE049A029B03995340DBB294F8C3
:10AA500008C00693A37A51404640C9B24740F6B2B7
:10AA600083EA0C000293CDF804C005910896FFF725
:10AA7000B5FEFFF7B3FE617AE67A024686EA010088
:10AA800003910492FFF7AAFEFFF7A8FE049ADDF8EF
:10AA900004C00399029B82EA0C0C53404140C9B2A6
:10AAA0005FFA8CFCDBB20A91CDF824C00B9394F8CA
:10AAB0000CC0A37B4640F6B283EA0C000293CDF8AB
:10AAC00004C00C96FFF78AFEFFF788FE617BE67BE9
:10AAD000024686EA010003910492FFF77FFEFFF72A
