:020000040800F2
:1050000000500020A5860008FD7D0008FF7D0008F7
:10501000017E0008037E0008057E000800000000F5
:10502000000000000000000000000000077E0008F3
:10503000097E0008000000000B7E00080D7E0008BD
:10504000F5860008F5860008F58600082980000826
:10505000F5860008F5860008617E0008817E00085C
:10506000A17E0008D57E0008F57E0008F5860008C0
:10507000F5860008F5860008F5860008858000089A
:10508000F5860008F5860008117E0008F586000800
:1050900089800008F5860008F5860008157F00085D
:1050A000F5860008F5860008F5860008DD7F000813
:1050B000F5860008F5860008F5860008317E0008B0
:1050C000417E0008F5860008F5860008517E00083C
:1050D000F5860008F5860008217E0008F5860008A0
:1050E000657F000845800008F58600080000000084
:1050F00000000000000000000000000000000000B0
:0C51000000000000000000005FF808F153
:10511000844641EA000313F0030349D1403A23D304
:105120000B6803604B6843608B688360CB68C36027
:105130000B6903614B6943618B698361CB69C3610F
:105140000B6A03624B6A43628B6A8362CB6AC362F7
:105150000B6B03634B6B43638B6B8363CB6BC363DF
:1051600040304031403ADBD230320BD30B68036021
:105170004B6843608B688360CB68C360103010312C
:10518000103AF3D20C3205D351F8043B40F8043BFB
:10519000043AF9D2043208D0D2071CBF11F8013BFF
:1051A00000F8013B01D30B8803806046704700BFC5
:1051B000082A13D38B07B1D010F00303AED0C3F18C
:1051C0000403D21ADB071CBF11F8013B00F8013BB6
:1051D000A4D331F8023B20F8023B9FE7043AD9D32D
:1051E000013A11F8013B00F8013BF9D20B7803704A
:1051F0004B7843708B7883706046704740EA010CAF
:105200001CF0070F27D1BDF1100DCDE90245CDE906
:1052100000676FF000064FF0000700BFF0E80223C0
:10522000F1E80245A242A2F1013C2CEA020C0CF08A
:10523000803C08BFBCF1000F40F0E580AB42A3F119
:10524000013C2CEA030C0CF0803C08BFBCF1000FC1
:1052500040F0D680E2E710F0030C21D020F00300EC
:1052600050F8042B5FEACC7C08D00FD211F801CBA8
:105270005FFA92F3B3EB0C0C10D17BB111F801CBB8
:105280005FFAA2F3B3EB0C0C08D13BB111F801CBE0
:105290005FFAB2F3B3EB0C0C00D10BB96046704768
:1052A000BDF1100DCDE90245CDE900676FF00006B4
:1052B0004FF0000711F0030C33D110F0040F0FD0A2
:1052C00050F8042B51F8044BA242A2F1013C2CEA05
:1052D000020C0CF0803C08BFBCF1000F40F0938042
:1052E00011F0040F99D051F8045B00BFF0E80223DD
:1052F000AA42A2F1013C2CEA020C0CF0803C08BF4F
:10530000BCF1000F79D1F1E80245A342A3F1013CC1
:105310002CEA030C0CF0803C08BFBCF1000F69D1F3
:10532000E4E721F00301BCF1020F20D03FDA51F88D
:10533000045B00BF50F8043B4FEA1525A3F1013C84
:105340002CEA030C0CF0803CB7EB0C2F03EA16227E
:1053500008BFAA4251D151F8045BBCF1000F82EAA8
:1053600003034FEA056208BF934240D1E2E751F8D8
:10537000045B00BF50F8043B4FEA1545A3F1013C24
:105380002CEA030C0CF0803CB7EB0C4F03EA1642FE
:1053900008BFAA4231D151F8045BBCF1000F82EA88
:1053A00003034FEA054208BF934220D1E2E751F8D8
:1053B000045B00BF50F8043B4FEA1565A3F1013CC4
:1053C0002CEA030C0CF0803CB7EB0C6F03EA16627E
:1053D00008BFAA4211D151F8045BBCF1000F82EA68
:1053E00003034FEA052208BF934200D1E2E719BA4E
:1053F00012BA0AE019BA22BA07E011BA2ABA04E0CE
:1054000019BA2ABA01E011BA22BA9CFA8CF0DDE985
:105410000067DDE902451DF1100D38B1B0FA80F0EA
:10542000C0F1180021FA00F122FA00F201209142A5
:1054300098BF8041704700BF1FB5084C01466846C1
:1054400001F02CFF6946204600F0E7FB684601F0BA
:10545000C1FE204600F0A3FC04B010BD500B00209C
:10546000014800F081BC00BF500B002010B51E4C5D
:1054700088B094F83C30684604F140012BB101F04B
:105480000DFF04A804F1500104E001F007FF04A897
:1054900004F1600101F002FF694604AA204600F011
:1054A0002FFC04A801F096FE684601F093FE94F8E4
:1054B000703068460D4923B101F0F0FE04A80C4994
:1054C00003E001F0EBFE0B4904A801F0E7FE69469A
:1054D00004AA054800F014FC04A801F07BFE68460D
:1054E00001F078FE08B010BD500B0020C40B002066
:1054F000A00B0020B00B002000B5482889B007D0D1
:10550000502817D1684601F0C9FE04A80B4904E0F1
:10551000684601F0C3FE0A4904A801F0BFFE6946CF
:1055200004AA084800F0A1FB04A801F053FE684655
:1055300001F050FE09B05DF804FB00BFD40B002061
:10554000E40B0020500B002010B5104C012384F810
:1055500070300F4B88B01888002101F063FB04F114
:105560007401684601F09AFE04F1A40104A801F058
:1055700095FE694604AA204600F077FB04A801F0D6
:1055800029FE684601F026FE08B010BD500B002031
:105590000000002010B5104C002384F870300F4B31
:1055A00088B01888012101F03DFB04F174016846C0
:1055B00001F074FE04F1B40104A801F06FFE694625
:1055C00004AA204600F051FB04A801F003FE68463F
:1055D00001F000FE08B010BD500B002000000020BC
:1055E000034B93F870300BB1FFF7D4BFFFF7ACBF9C
:1055F000500B002010B5104B104C88B0988801213A
:1056000084F83C1001F00EFB04F14001684601F003
:1056100045FE04F1A40104A801F040FE694604AA75
:10562000204600F022FB04A801F0D4FD684601F0FA
:10563000D1FD08B010BD00BF00000020500B0020BD
:1056400010B5104B104C88B09888002184F83C109D
:1056500001F0E8FA04F14001684601F01FFE04F190
:10566000B40104A801F01AFE694604AA204600F01D
:10567000FCFA04A801F0AEFD684601F0ABFD08B0ED
:1056800010BD00BF00000020500B002010B5144CCE
:1056900014484FF4165102F05DF8A088002101F083
:1056A00047FA2089002101F043FAA089002101F086
:1056B0003FFA2088002101F03BFA208A022101F004
:1056C00037FA0948094901F021F80948094901F068
:1056D0001DF8FFF75FFFBDE81040FFF7B1BF00BF47
:1056E00000000020041B00208F55010839540008D9
:1056F0008C55010861540008034B93F83C300BB102
:10570000FFF79EBFFFF776BF500B002038B50C4B5C
:1057100093F870301BB1BDE83840FFF73BBF03245E
:10572000084D0021288901F07DFA052001F0B0FB29
:105730002889012101F076FA013CF1D138BD00BF82
:10574000500B00200000002038B50324074D002135
:10575000A88901F067FA052001F09AFBA8890121C8
:1057600001F060FA013CF1D138BD00BF000000201B
:105770001FB5504800F0D6FB4F4800F0FEFA4F48E6
:1057800000F08CF94E490446684601F087FD6946F1
:105790002046FFF7B1FE684601F01CFD464800F0C8
:1057A00021FB484B1A7D82421A4603D1414800F042
:1057B00074FB7DE0597D814202D16846424904E094
:1057C000997D81420BD14149684601F045FD394838
:1057D000694600F0B5FB684601F0FCFC68E0D97D45
:1057E000814202D168463A49EFE7197E814202D1EF
:1057F00068463849E9E7597E814202D16846364910
:10580000E3E7997E814202D168463449DDE7D97EDB
:10581000814202D168463249D7E71B7F834203D1D8
:10582000244800F059FB43E0537F834203D12148D1
:1058300000F04BFB3CE0927F224B824202D1FFF70B
:1058400083FE35E0DA7F824202D1FFF7A3FE2FE02C
:1058500093F82020824202D1FFF7C2FE28E093F89D
:105860002120824202D1FFF7C5FE21E093F82220D9
:10587000824202D1FFF7E4FE1AE093F8232082422D
:1058800002D1FFF739FF13E093F82420824202D1BE
:10589000FFF73CFF0CE093F82520824202D1FFF78E
:1058A00053FF05E093F82630834201D1FFF7DEFD78
:1058B00004B010BD140C0020500B0020480C002038
:1058C000640C002000000020975501089D55010838
:1058D000A1550108A7550108AC550108B1550108AB
:1058E000B95501082DE9F347544C0021544F0B469C
:1058F0000A4604F15008009104F5927001F08EFB05
:10590000504E514D3946404601F0A6FC4046DFF866
:105910004C812A4604F1600931460BF0B7FF41463D
:10592000484601F099FC2A463146484604F59679E6
:105930000BF0ACFF4146484601F08EFC04F18408B0
:105940002A46314648460BF0A1FFDFF8149139464C
:10595000404601F081FC2A463146404604F1940855
:105960000BF094FF4946404601F076FC4046DFF8D4
:10597000F4802A4604F1A40A31460BF087FF414621
:10598000504601F069FC2A463146504604F1B40AFB
:105990000BF07CFF50462D4901F05EFC2A46314653
:1059A000504604F59E7A0BF071FF5046284901F0ED
:1059B00053FC2A463146504604F5A67A0BF066FFA2
:1059C0005046244901F048FC2A463146504604F529
:1059D0008A7A0BF05BFF3946504601F03DFC04F13A
:1059E00074072A46314650460BF050FF4946384668
:1059F00001F032FC2A463146384604F140070BF0EC
:105A000045FF4146384601F027FC31462A463846D4
:105A1000114D0BF03BFF204600F082F805F1280104
:105A20000EC904F1C40000F0F9F9296904F1F80085
:105A3000022202B0BDE8F04700F016B8500B00207B
:105A40003D580108D5710008240E0020C6550108F4
:105A5000C8550108CA55010800000020C0550108BA
:105A6000C2550108C455010870B504460D4688B2F8
:105A70001146164601F05CF84FF4FA620023022E3C
:105A8000E2604FF00102636025602374A37207BFD8
:105A90002372627222726372204670BD10B5044692
:105AA00001F0F0F96061208801F0FEF8A27A6060F0
:105AB000237C4AB9B3B9217A884213D10123A37256
:105AC00001F0E0F9A0611AE063B9217A884209D1B6
:105AD000A369E2681A446369934210D901232374CD
:105AE000482010BD617A884209D10AB92D2002E010
:105AF000002BFBD150200023A372237410BD2D2056
:105B000010BD000007B5002100910A460B4603486E
:105B100001F084FA03B05DF804FB00BFAC0C002078
:105B200010B586B0044601F07BFD01A801F078FDB8
:105B300002232375032363750423A3750523E375EB
:105B400006232376072363761023A37641F2883356
:105B50000022E3616362642384F82020A36201F0E1
:105B600091F9206301F08EF9606301F08BF9A06375
:105B7000204606B010BD426A036B13444363012004
:105B80007047F0B5104685B00D462E21144601F041
:105B900029FC0646334621460022684601F026FCD1
:105BA000684601F050FC771C2870684601F012FB33
:105BB0003A4620462E2101F007FC06463346214690
:105BC0003A46684601F012FC684601F03CFC771C3E
:105BD0006870684601F0FEFA3A4620462E2101F030
:105BE000F3FB0646334621463A46684601F0FEFB83
:105BF000684601F028FCA870684601F0EBFA2146DF
:105C0000721C684601F018FC684601F01CFCE87044
:105C1000684601F0DFFA05B0F0BD1FB504466846DE
:105C200001F03CFB204604F12C016A46FFF7A9FF76
:105C3000684601F0CFFA012084F8200004B010BDBE
:105C400007B5002100910A460B46034801F0E6F92A
:105C500003B05DF804FB00BFB40C002008B501F0F0
:105C60001DFC003018BF012008BD7FB504460E465C
:105C7000154601F013FC10B32046FFF77CFF217D91
:105C8000684601F027FB3146684601F058FB617D0C
:105C900001F074FB294601F052FBA17E01F06EFB7E
:105CA000A17D01F06BFB0146204601F007FA684632
:105CB00001F090FA0A2001F0EBF8012001E04FF02A
:105CC000FF3004B070BD000010B588B004466846CF
:105CD00000F064FD04A8094901F0BEFA694604AA6F
:105CE0002046FFF7C2FF044604A801F073FA684695
:105CF00001F070FA204608B010BD00BFC055010881
:105D00007FB504460E46154601F0C8FB28B3204671
:105D1000FFF731FF217D684601F0DCFA3146684625
:105D200001F00DFB617D01F029FB0E4901F014FB30
:105D3000A17E01F023FB294601F001FBA17D01F0CA
:105D40001DFB0146204601F0B9F9684601F042FA10
:105D50000A2001F09DF8012001E04FF0FF3004B06F
:105D600070BD00BFCC55010810B5044601F089FB99
:105D7000204601F04CFC012010BD10B5044601F096
:105D80008DFB18B1226B636B9A4204D82046BDE8A4
:105D90001040FFF763BF2046FFF7E6FFF6E713B5B5
:105DA000044601F07BFB28B1204601F06AFB204647
:105DB00001F02DFC94F8203013B94FF0FF300FE0C4
:105DC00004F12C01684601F035F920466946A28BA2
:105DD00001F09EFB0028F0D02046FFF7CCFE01200A
:105DE00002B010BD10B5044601F0C3FBA0B12046BF
:105DF000FFF7C1FE204601F0F5FBE37DC0B2834210
:105E000004D12046217E01F073F905E0637E8342D0
:105E100003D12046FFF758FFA07D10BD38B50025FF
:105E200080E80E004FF4AF7304460363C56005615C
:105E30004561C56188B2294600F07AFEA0882946EE
:105E400000F076FE2089294600F072FE204638BD1B
:105E500010B500210446008800F060FFA0880021F2
:105E600000F05CFF20890021BDE8104000F056BF23
:105E7000F8B5044616460F460088C9B21D4600F024
:105E80004DFFA088F1B200F049FF2089E9B200F08F
:105E900045FFE76026616561F8BD00210A460B46B3
:105EA000FFF7E6BF30B502690C464569C168642357
:105EB00091FBF3F192FBF3F295FBF3F36143624341
:105EC0006343BDE83040FFF7D3BF012380F82030A3
:105ED000002380F821307047002380F82030012310
:105EE00080F82130026B436A1344C3627047426AF0
:105EF000C36A10B59A42044613D9C36913B9FFF7B0
:105F0000A7FF04E000F10C010EC9FFF7B1FFE36940
:105F1000226BD3F1010338BF0023E361636A1344AA
:105F2000E36210BD10B5044600F0ACFF94F82130D8
:105F3000606223B12046BDE81040FFF7D8BF10BD16
:105F400038B5002304460D4680F8203080F8213013
:105F500008462E4901F01CFA28B1FF2120460A46C6
:105F60000B46FFF785FF2846294901F011FA28B1B1
:105F700000222046FF211346FFF77AFF28462549D5
:105F800001F006FA28B100212046FF220B46FFF758
:105F90006FFF2846204901F0FBF928B10021204677
:105FA0000A46FF23FFF764FF28461C4901F0F0F979
:105FB00028B1FF22204600211346FFF759FF28464B
:105FC000174901F0E5F928B1FF21204600220B46D0
:105FD000FFF74EFF2846134901F0DAF928B1FF21F7
:105FE00020460A460023FFF743FF28460E4901F0EA
:105FF000CFF928B12046FF21A5220023FFF738FF63
:1060000020461921BDE83840FFF74CBF97550108DD
:106010009D550108A1550108A7550108AC55010877
:10602000B1550108B9550108CE55010807B5002141
:1060300000910A460B46034800F0F0FF03B05DF8FC
:1060400004FB00BFBC0C0020013101EB4202914275
:106050000BD0030F092B94BF3033373301F8013CC9
:106060000023000101F8023BF1E7704710B54FF043
:1060700000604FF4A04105F005FD0124284B29489C
:1060800021461C7005F016FF04F072FE04F052FB6E
:106090002146402005F0C6FF6FF07F4004F0C2FCAF
:1060A000E72004F03BFD204B1C7004F083FB7D20B7
:1060B00005F0DCFF18B11D4B1C7005F0EBFF40F63E
:1060C000B83004F0E0FB05F023F905F0B5FA184804
:1060D00001F0BCFC174B01221A7001F041FD164B78
:1060E0001B781BB9154B1B78002BF6D0144B1B7873
:1060F000002BF2D10D4B1B78002BEED10F4C2378E7
:10610000012B01D00F4B33B90F4B0BB1FFF730FB15
:1061100000F0F2FCE1E7FFF7B9FA01232370F3E79F
:10612000B21B0020000430002F1B00206825002037
:10613000CD680008441B00202D1B0020C40C00204B
:106140002E1B00208D56000871570008F8B54C4BE7
:106150005A6801325A604B4B1A6812B11A68013AF8
:106160001A60494B494D1B782BB1494B1B78DBB169
:10617000484B2BBB18E0484C236813B12368013B04
:1061800011E02B7883B9454B1B786BB9444B1B78D6
:1061900053B9444F444E3B78BBB1E72004F032FD85
:1061A000337883B1142323602C78404E002C33D1F4
:1061B000204604F027FE40F6B73398421BD82BE068
:1061C00000F0CCFBF0E70123EDE733784BB14FF65D
:1061D000FF7004F027FCE72004F0A0FC01233B70D3
:1061E000E2E7E72004F0C8FC314B1B780BB1322307
:1061F000D9E76423D7E7204604F00CFE3378C3B90F
:106200002C4B1B782BB12A4B274A1B7812781A4249
:106210002ED001232B700CE0002004F0F3FD41F69A
:106220005733984205D9002004F0F4FD224B012297
:106230001A70337803F0FF025BB91B4B1B7843B134
:106240001E4B47F22F511868884214D91A6000F08B
:1062500015FC1B4B1A68B2F57A7F05D300221A6031
:10626000BDE8F84005F07EBE1A6801321A60F8BD3C
:1062700000F004FCCDE71A6801321A60E9E700BFBC
:10628000C40C0020702500209C1B00202A1B00202D
:10629000581000205D6900086C2500202E1B00208E
:1062A000301B00202F1B00202D1B0020431B002033
:1062B0002C1B00202B1B0020391B0020341B00202E
:1062C0007425002008B5094B186004F0C7FF0020B2
:1062D00005F010F8064804F055FA04F0D7FF04F072
:1062E000F5FFBDE8084006F061BD00BF08020020D0
:1062F000A0860100074B1B68052B08D1064B1A7AB4
:10630000012A04D1987A1B7BC01AC0B270470020C2
:10631000704700BFCC1B0020C40C00200D4B10B5F3
:106320001B68052B13D10C4C237A012B0FD16289EA
:10633000A389D31A012B04D100230320237206F072
:106340008CFEA3895A1CA2811C44A07B10BD4FF077
:10635000FF3010BDCC1B0020C40C0020084B1B6874
:10636000052B0CD1074B1A6D99180132B2F5807FBD
:106370001A6508BF002281F8540008BF1A657047EB
:10638000CC1B0020C40C0020F8B5234B93F85421FB
:10639000012A3FD0D3F85821196DB2F5807F04BF90
:1063A0000022C3F85821D3F858411B4A8C4203D12C
:1063B000002382F85431F8BD8CBFC4F58071C4EB62
:1063C0000101C2F85C11D3F85C61134D402EA2B2FA
:1063D00007D94034403EC5F85841C5F85C614027B4
:1063E00006E034440021B7B2C5F85841C5F85C1145
:1063F0000A4801241044C0213A4683F8544106F06B
:10640000A7FD2046394606F0ABFE2046BDE8F84021
:1064100006F010BEF8BD00BFC40C0020180D00200F
:10642000094B10B593E8140008331B68D0180AD044
:1064300006490822FFF708FE204605490422BDE868
:106440001040FFF701BE10BDE8F7FF1FB7010020A5
:10645000C701002038B504460D46AC4203D254F8BB
:10646000043B9847F9E738BD08B507480749FFF7E7
:10647000F1FF07480749FFF7EDFFBDE80840064870
:106480000649FFF7E7BF00BF5459010854590108F6
:1064900054590108A8590108A8590108A859010828
:1064A000FEE70000054A08B5136818441060044A66
:1064B000904201D90BF0F0F9184608BD34000020D5
:1064C000004800204FF0FF30704701207047000067
:1064D000014B1868704700BF280E0020064B02468B
:1064E000582000FB013101F1080303CB106051601B
:1064F00018689060704700BF280E0020014BD3F849
:1065000064017047280E0020064B0246142000FB51
:10651000013101F5B67303CB1060516018689060CB
:10652000704700BF280E002038B50546064C28B13C
:1065300004F01AFB012384F8303238BD04F0C2FAAB
:1065400084F8305238BD00BF280E00200E4B2DE9D4
:10655000F041D3F8647180460024BC4211DA14255E
:106560006543094E414606F5B67028440C220CF0EE
:10657000C9F920B93544D5F86801BDE8F081013486
:10658000EBE70020BDE8F081280E00200A46044910
:106590000346D1F834021946002303F061BB00BF63
:1065A000280E00202DE9F341274B80461B780F462B
:1065B000002B44D1254B1B7803F0FF05002B3ED167
:1065C000234C0121D4F8340284F8385200F01F0221
:1065D0009140460984F8395284F83A5284F83B5283
:1065E00004EB8606D6F83822C4F83C520A43C6F8B3
:1065F000382241F28832C4F8402204F50F7200922A
:10660000013004F50E712A462B4603F017FA0028D4
:1066100017DDD4F834325A0904EB8204D4F8384236
:1066200003F01F02144114F001000AD0184641463D
:106630002B463A4603F09AFA064B1D6001E04FF0F4
:10664000FF3002B0BDE8F081421B0020431B002058
:10665000280E0020341B0020034B01224FF4C020E1
:106660001A7004F0B9BE00BF2E1B0020024B00229E
:106670001A7004F015BF00BF2E1B00202DE9F04753
:1066800088B0804668460D4600F0E6FD1E4B0024AB
:10669000D3F800A054452DDA55B3582666431A4F57
:1066A000414607F1080030440C2207F104090CF0C0
:1066B00029F9E8B928460CF0F5F806F1100340284E
:1066C00034BF02464022294609EB0300FEF720FDB5
:1066D0003E44012386F85830694604A8746800F0E7
:1066E000DDFD04A8A047044604A800F073FD03E004
:1066F0000134CFE74FF0FF34684600F06BFD2046D1
:1067000008B0BDE8F08700BF280E00202DE9F84F43
:106710000446894600293DD000283BD01E4D2E68F6
:10672000042E37D005F108074FF0000805F1040AE0
:10673000B0450DDA57F8043C4B4505D138462146A3
:106740000C220CF0DFF828B308F101085837EFE706
:106750004FF0580808FB06F805EB080708F1100091
:1067600000214022C7F8049050440BF011FD0AEBC1
:106770000800002104300C220BF00AFD206861683B
:1067800007F1080303C3A06801361860002387F8E7
:1067900058302E60BDE8F88F280E0020F0B514495F
:1067A00085B0064600F058FD124B01AC93E8070097
:1067B00084E807000025675D30463B0903F130019E
:1067C000392984BF03F15701C9B207F00F0700F060
:1067D000A9FD07F13001392984BF5737F9B2304696
:1067E000013500F09FFD0C2DE5D1304605B0F0BD20
:1067F0008C570108E8F7FF1F30B51E48ADF5797DCD
:1068000006F03BFD002832D11B4B15A804931B4B0F
:106810005FAD05931A4B039006931A4B0CAC07938C
:10682000194B02950893194B0993194B0A93194B6D
:106830000B93194B0C93194B0D93194B0E93194B4A
:106840000F93194B1093194B1193194B1293194B2A
:106850001393194B149304F035FE284604F038FEC8
:1068600000940448154902AA04AB06F00DFD0DF58D
:10687000797D30BD681100208D650008A565000890
:10688000596600086D66000801B5000825B40008C7
:1068900029650008856E0008D1640008DD640008E1
:1068A0007D660008FD64000809650008DD6A0008CF
:1068B0004D650008DDB40008F1B40008E8F7FF1FDB
:1068C000014807F0E0BA00BF6811002030B502208F
:1068D0008DB00146112202F0F7FF051E28DB07A844
:1068E000144906F0E7FD0223ADF80C3016238DF8AD
:1068F0000E3033238DF80F30E0238DF81030002355
:106900008DF8113001238DF81230BB238DF8133030
:10691000032403AB009310230193284607A91322F5
:10692000002303F0A7F9013CF3D1284602F0FAFF57
:106930000DB030BDE8F7FF1F10B5074CFFF75CFF47
:10694000204606F09DFC204607F003F80446FFF7BA
:10695000BDFF204610BD00BF6811002038B5114CA6
:10696000D4F8505B2DB1D4F8503B013BC4F8503BF8
:1069700038BDD4F8543B0C4A52F8230004F07AF89E
:10698000E72004F0CBF86423084AC4F8503BD4F85D
:10699000543B126801339342C4F8543BA8BFC4F877
:1069A000545B38BD280E00208C2B010838000020D5
:1069B00030B5022085B00121062202F085FF041EB9
:1069C0001BDB0223ADF8003000238DF802303523A5
:1069D0008DF803306946082310228DF804308DF8B5
:1069E00005308DF806308DF8073002F0F9FF0546C6
:1069F000204602F097FF284601E04FF0FF3005B037
:106A000030BD000010B5054CD4F8340202F08AFF06
:106A100018B94FF0FF33C4F8343210BD280E0020EF
:106A200008B5FFF7EFFF01210220062202F04CFF1C
:106A300011490028C1F834021BDB0223A1F8583B9E
:106A4000162381F85A3B332381F85B3B362381F8C8
:106A50005C3BD02381F85D3BE52381F85E3B04235A
:106A600081F85F3B102201F65831BDE8084002F082
:106A7000B7BF4FF0FF3008BD280E0020044B0122A5
:106A800000215A801980D986024B1A70704700BFC6
:106A9000FC1C0020421B00200F4B2DE9F041D3F8D5
:106AA000647180460024BC4211DA142565430A4E05
:106AB000414606F5B67028440C220BF023FF20B99E
:106AC000354495F87801BDE8F0810134EBE74FF0EB
:106AD000FF30BDE8F08100BF280E002008B5FFF7A9
:106AE000DBFF0138082803D8024B1844007F08BD9B
:106AF000022008BD8C2B0108084B0022D3F8481255
:106B000003F513738A4208DA93F8500010B100209D
:106B100083F8500001325133F4E77047280E00200B
:106B200002F05EBF014806F093BB00BF6811002071
:106B300014282DE9F34104460E4669D8FF2967D091
:106B400000F024FB20B1A4F10D039BB2022B5FD90E
:106B500000F014FA08B1012C5AD900F0C7FD20B199
:106B6000A4F112039BB2012B52D92B4D24012B19F6
:106B70002F59B3F80480294B9F4201D1042003E030
:106B8000274B9F4203D10820012105F057FAADF8A9
:106B90000480062E38D8DFE806F0040D13191F28EC
:106BA000310010238DF8073003238DF806302C4474
:106BB000002328E004238DF807302C44012322E031
:106BC00048238DF807302C4402231CE028238DF83D
:106BD00007302C44032316E018238DF807300323D5
:106BE0008DF806302C4404230DE01C238DF807306B
:106BF00003238DF806302C44052304E000238DF890
:106C000007302C440623A373384601A905F0FAF88F
:106C100002B0BDE8F08100BF48000020000801403C
:106C2000000C01401428F8B505460F4638D81D4E13
:106C3000040133199B7B5A1ED2B2022A30D9062B8B
:106C40002ED0FF2B2CD000F0A1FA28B1A5F10D0316
:106C50009BB2022B00D8F8BD00F090F910B1012DC5
:106C600000D8F8BD00F042FD28B1A5F112039BB297
:106C7000012B00D8F8BD33199B7B042B03D1284688
:106C80000021FFF755FF012F04D1321933599288A3
:106C90001A61F8BD27B93219335992885A61F8BD83
:106CA000F8BD00BF48000020142870B5044602D982
:106CB0004FF0FF3070BD184E050173199B7B013BEF
:106CC000DBB2FD2BF4D800F061FA20B1A4F10D0382
:106CD0009BB2022BECD900F051F908B1012CE7D995
:106CE00000F004FD20B1A4F112039BB2012BDFD907
:106CF00073199B7B062B09D1074B93F850114B1E40
:106D0000DBB2FD2BD4D82046FFF712FF7319705960
:106D1000998805F0C5F870BD480000202DE9F043C2
:106D2000142889B00446884600F29E80504F060120
:106D3000BB199B68002B00F0978000F027FA28B160
:106D4000A4F10D039BB2022B40F28E8000F016F9E5
:106D500010B1012C40F2888000F0C8FC20B1A4F1F1
:106D600012039BB2012B7FD9BD19AB7B13F0FB0F34
:106D70007AD1404B01201A683F4B0146B2FBF3F930
:106D80004BF6803303FB08F8FF2398FBF3F805F07C
:106D900055F920460421FFF7CBFEAB6809F1FF3916
:106DA000B3F1804F1FFA89F91FFA88F802D1012048
:106DB000014609E0314A934208BF022003D0304A1D
:106DC000934203D10420012105F044F9BC190025A8
:106DD0004BF67F33A06801A9ADF80830ADF80A5032
:106DE000ADF80650ADF8049005F0FCF96023ADF85D
:106DF0001850A589ADF810300123ADF81230ADF868
:106E0000168045B9A06804A905F036FAA0680821E3
:106E100005F072FB1FE0042D08D1A06804A905F05D
:106E20006FFAA068082105F06FFB14E0082D08D167
:106E3000A06804A905F0A8FAA068294605F06EFB31
:106E400009E00C2D07D1A06804A905F0DFFAA068BD
:106E5000082105F06BFB3E44B068012105F040FBC2
:106E6000B068012105F019FB09B0BDE8F08300BF4F
:106E700048000020F802002000366E0100040040A7
:106E800000080040014B1868704700BFC80C002084
:106E900003F06CBC07B5002100910A460B4603487D
:106EA00000F0BCF803B05DF804FB00BF9C190020A3
:106EB000024B18785B78C01A704700BFA4190020F5
:106EC000064B5A781978914204D99918013288787A
:106ED0005A7070474FF0FF30704700BFA419002070
:106EE000054B5A781978914202D913449878704723
:106EF0004FF0FF30704700BFA4190020704700001A
:106F0000F8B5094B054693F82230164653B10C46A6
:106F10008F18BC4206D02B6828461B6814F8011B4A
:106F20009847F6E73046F8BDA419002010B50C4B81
:106F3000012293F822408CB193F823401F2C02D9F0
:106F40004260002010BD93F824001C1884F825101E
:106F5000411CC9B283F8241083F82310104610BDD9
:106F6000A4190020002242604FF47A728260014A24
:106F700002607047C02B010870477047014B93F8BF
:106F800059007047A419002013B5084C0021009146
:106F900004F164000A460B4600F040F804F16C006E
:106FA00002B0BDE81040FFF7DDBF00BFA41900200C
:106FB00008B5034B53F8203003B1984708BD00BF14
:106FC000201A002007B5002100910A460B4603480D
:106FD00000F024F803B05DF804FB00BF601A002045
:106FE0002DE9F041002407460E4625463B19197944
:106FF0000A22304600F0ABF82E218046304600F0E1
:1070000077F801344044032C0544EFD13046F97938
:107010000A2200F09CF82844BDE8F08130B5837165
:10702000034D9DF80C30056001714271C37130BD94
:10703000E02B0108024A02600A684260704700BF04
:10704000E02B0108044B054A1A6000221A715A719C
:107050009A71DA71704700BF681A0020E02B0108AE
:1070600007B5002100910A460B460348FFF7D6FFFB
:1070700003B05DF804FB00BF701A0020F8B50646A7
:107080000C468F180025BC4207D0336830461B6879
:1070900014F8011B98470544F5E72846F8BD38B5B4
:1070A00005460C46084641B10BF0FCFB2B68024636
:1070B0005B6828462146984738BD38BD2DE9F04128
:1070C000002406460F462546BB68A1B2994204F14A
:1070D00001040AD233683846D3F8008000F06BF917
:1070E00001463046C0470544EEE72846BDE8F0813A
:1070F00008B503681B68984708BD30B500238BB0FE
:107100008DF82430012A98BF0A220DF12304B1FB27
:10711000F2F303FB1211CDB2092D94BF3035373590
:10712000EDB2214604F801590BB11946EFE7FFF71C
:10713000B6FF0BB030BD10B522B90268C9B21268F3
:10714000904710BDD2B2BDE81040FFF7D6BFFFF7A1
:10715000F2BF000007B5002100910A460B46034824
:10716000FFF75CFF03B05DF804FB00BF7C1A002052
:1071700007B5002100910A460B460348FFF74EFF72
:1071800003B05DF804FB00BF841A0020014B587D5A
:10719000704700BF8C1A00207047000007B500211F
:1071A00000910A460B460348FFF738FF03B05DF82D
:1071B00004FB00BFA41A002007B5002100910A4675
:1071C0000B460348FFF72AFF03B05DF804FB00BF3E
:1071D000B01A002010B5044600680AF09BFC204657
:1071E00010BD10B50446006808B10AF093FC0023F6
:1071F0002360A360636010BD38B504460D46006887
:1072000001310BF033F810B184E82100012038BDC2
:10721000036810B5044613B143688B4207D2204679
:10722000FFF7EAFF20B1A3680BB9226813700120B1
:1072300010BD70B50E46114604461546FFF7E8FF2F
:1072400018B92046FFF7CDFF04E0A560206831465D
:107250000BF0CAFA204670BD38B50023044603601F
:107260004360836003730D4639B108460BF01AFB87
:10727000294602462046FFF7DCFF204638BD8842FB
:1072800010B50B46044607D0096819B19A68FFF794
:10729000D0FF01E0FFF7A5FF204610BD10B5002389
:1072A00004460360436083600373FFF7E8FF2046F2
:1072B00010BD38B505460C4641B108460BF0F2FA50
:1072C000214602462846FFF7B4FF01E0FFF789FF99
:1072D000284638BD13B500238DF8041003604360C1
:1072E0008360037301A904468DF80530FFF7E1FFC1
:1072F000204602B010BD70B5044685680E4609B937
:10730000002070BD62B115442946FFF781FF0028B7
:10731000F6D02068A368314618440BF065FAA560E2
:10732000012070BD07B500238DF80410012201A9CA
:107330008DF80530FFF7DFFF03B05DF804FB0B4667
:1073400010B509689A680446FFF7D5FF10B92046C2
:10735000FFF747FF204610BD38B504460D4641B142
:1073600008460BF09FFA294602462046FFF7C3FF66
:1073700010B92046FFF735FF204638BD10B504464A
:10738000FFF7D0FF10B92046FFF72BFF204610BDB6
:10739000826808B50B4612B919B9012008BD11B9A8
:1073A0000368187802E00068FDF728FFD0F10100BB
:1073B00038BF002008BD8368994203D2006810B12D
:1073C000405C704700207047836810B59A4206D22F
:1073D0000468A0180BF08EF908B1001B10BD4FF027
:1073E000FF3010BD0022FFF7EFBF00009A422DE9E9
:1073F000F04107460D4614461E4601D9344616464E
:1074000038460C49FFF728FFAB689C420FD89E42D4
:1074100028BF1E462B68002213F806809A5529685B
:1074200038462144FFF745FF2B6803F806803846AD
:10743000BDE8F0818C57010810B58B680446FFF752
:10744000D5FF204610BD006808B10AF02DBA70477C
:1074500013B5026802AB03F8011D546819460122F6
:10746000A04702B010BD036810B59B68044698475A
:1074700020B123682046DB68984710BD4FF0FF30ED
:1074800010BD10B50446236820469B68984720B17C
:1074900023682046DB689847F5E710BD006903388C
:1074A00018BF012070470069033818BF01207047DA
:1074B0002DE9F04188B0002608AC054608460F4685
:1074C000904644F8146D0BF0EDF9224681B238462F
:1074D00002F04EFAB04215DD039B04A8DAB2009226
:1074E000190EC3F30742C3F30723FFF797FD2B6879
:1074F00028469C69054B06A90693059B42460793BF
:10750000A04700E0304608B0BDE8F081E02B01085C
:107510007FB505460C46164602200121062202F0E0
:10752000D3F9002828611BDB0223ADF80030330AB1
:107530008DF80230237969468DF804306379102282
:107540008DF80530A3798DF803608DF80630E37966
:107550008DF80730FFF7E4FA002803DA03232B61E4
:10756000002000E0012004B070BD0069002302F09B
:1075700077BB30B5036987B05A0906A901EB8202CF
:10758000054603F01F010120884000248DF80C40BF
:107590008DF80D408DF80E408DF80F4052F80C1C00
:1075A0000494014342F80C1C41F28832059204AA6B
:1075B0000092581C03A92246234602F03FFAA0423B
:1075C0000DDD286906AA430902EB830353F80C4C2E
:1075D00000F01F0044FA00F000F0010000E0204637
:1075E00007B030BD07B500230DF107010122006986
:1075F00002F0BCFA0028CCBF9DF807004FF0FF3026
:1076000003B05DF804FB0069002302F0AFBA10B5C7
:107610000446006902F086F908B90323236110BD0E
:10762000002242604FF47A728260024A02600322B2
:1076300002617047F02B010807B5002100910A464E
:107640000B460348FFF7EAFC03B05DF804FB00BFFC
:10765000B81A002007B5002100910A460B460348DE
:10766000FFF7DCFC03B05DF804FB00BFC01A00208C
:1076700007B5002100910A460B460348FFF7CEFCF0
:1076800003B05DF804FB00BFC81A00204FF0FF30C4
:107690007047704708B52021034804F068FF0030A8
:1076A00018BF012008BD00BF0044004008B50248D3
:1076B00004F059FF08BD00BF0044004008B505486C
:1076C00004F04DFF0348802104F051FF0028F9D059
:1076D000012008BD00440040002242604FF47A724D
:1076E0008260014A02607047282C0108014B187C17
:1076F000704700BFD01A002013B5084C002100913C
:1077000004F114000A460B46FFF788FC04F11C0044
:1077100002B0BDE81040FFF7DFBF00BFD01A002065
:1077200070474FF0FF307047FEF7F8BD08B5FEF721
:10773000E1FD08BD08B50846FEF710FE012008BDB2
:10774000002242604FF47A728260014A0260704700
:10775000482C01080846FEF7B5BD000013B5074CDC
:107760000021009120460A460B46FFF757FC04F122
:10777000080002B0BDE81040FFF7E2BFFC1A00208D
:1077800000230360184670470023036018467047C3
:1077900000230360184670472DE9F0410B7886B04E
:1077A000002B0C4614BF90464FF0000806460BF025
:1077B00079F8074620460BF075F8182301931E232D
:1077C00001250293022303930590009504944046FB
:1077D00031463A46002302F091FB034B18705D706E
:1077E00006B0BDE8F08100BF141B002048F2020380
:1077F000984210B51AD006DC992847D048F2010308
:1078000098420FD010BD48F2100398422DD048F294
:10781000800398423ED1204B01229A70DA700022F8
:107820001A7110BD1C4B01225A7110BD1A4C63799C
:1078300053B11A4B00224FF47F401A7003F0F2F854
:10784000E72003F06BF906E0A37913B1013BA371C4
:1078500001E00123A3750023237663716376E3754A
:10786000A376E3762377236210BD0A7D0A4B52B9D3
:1078700001224FF47F40DA7503F0D4F8BDE81040E0
:10788000E72003F04BB90022DA7510BD024B01224C
:1078900083F8242010BD00BF141B00209C1B002077
:1078A0001FB54FF461504FF461610A223C238DE80B
:1078B0000F00684601A902AA03AB01F04BFB05B01B
:1078C0005DF804FB1FB5002300930193029303931B
:1078D00001A8694602AA03AB01F002FB05B05DF8FE
:1078E00004FB000030B5534D00249FB0FF202C76E0
:1078F000AC706C76EC70AC766C70EC766C71EC7590
:1079000085F824402C6203F08DF8E72003F006F997
:1079100021462246204602F0CDFA2B46012103F8EB
:10792000074F0E200A4601F09BFB6B79012B05D116
:10793000642002F01BFF01F031F8F6E710210C2063
:1079400001F0DAFB3C4801F097FF3C4802F026FCCE
:10795000012002F007FC6846394900F077FD6A789B
:10796000AB78344C13431CD194F82530002B57D0FE
:10797000FF2002F0A9FB002852D11A24013C06D0B6
:10798000E72003F0F9F8322002F0F0FEF6E70E20CF
:10799000012122462B4BAC7101F062FB85F825409A
:1079A000DDE7E72003F0BAF8A31D0E200121002235
:1079B00001F028FBA37813B102F010FC20702B78A3
:1079C00001210133AB7100221E4B0E2001F048FB58
:1079D000002001240146012202F06CFA21462246D1
:1079E000194B0E20EC7101F03BFB02F0E7F964202B
:1079F00002F0BCFE002002F097F948F2442085F81E
:107A0000264002F07DFB4FF47F4003F00BF8E720A7
:107A100003F084F8FFF744FF0023AB751FB030BDBF
:107A2000E72003F0A9F8FA2002F0A0FE684600F073
:107A300071FD94E7141B0020602C01089C010020BC
:107A4000997700081A1B00201B1B00207FB5384CBB
:107A50000025A06203F030FB03F070FA354B364A84
:107A60000093364B36490193364B37480293374BD8
:107A70000393374B02F044F9642002F077FE0020B4
:107A800002F052F9012348F24420E57684F82630CA
:107A900002F036FB2F4B1A881E46012A06D00E2014
:107AA00010212A46A31D01F0ADFAA0B1FF2002F07B
:107AB0000BFB10210E2001F01FFB0021264B00259F
:107AC000CD5401311029F9D10E202A4601F0C8FA0F
:107AD000358003F03FFC2379154D93B9AB7913B989
:107AE0000123AB750DE0E87958B90146012202F097
:107AF000E1F901212B4603F8071F0E200A4601F089
:107B0000AFFA237913B90A4B9B7D33B94FF47F4009
:107B100002F088FFE72003F001F8104801F0D2FAE4
:107B2000FFF7D0FE04B0BDE87040FFF7B9BE00BF5C
:107B3000141B0020F5AF00088977000809B0000881
:107B40008177000875B00008ED7700089DB0000847
:107B500091770008EA0200201A1B0020401B002039
:107B60002DE9F341974C94F82E30002B40F0BA8069
:107B700094F82F30002B40F0B58094F8263003F0B5
:107B8000FF0023B902F0D0F8012384F82630A37D4A
:107B90008C4E13B1FFF7A6FE19E03379BBB1F57D2A
:107BA000ADB929462A46284602F084F986480AF0EB
:107BB00079FE864F804638460AF074FE00970190A1
:107BC000791F032042462B4602F00EF93571E27808
:107BD0007C4B012A13D1DA7D012A10D15B79012B6C
:107BE0000DD103257A480AF05DFE013D82B2784945
:107BF000012002F04BF815F0FF05F3D1E57094F881
:107C00003030704D43B92B7E002B40F09B806B7E53
:107C1000002B40F09780D1E0EB7D93B395F82F30A7
:107C20007BBB2B7E002B00F09E802AE02B4603F8C6
:107C3000092F0E200121032201F012FA4FF6FF70E6
:107C400002F0F0FEE72002F069FFFEF7E9FE0028EF
:107C500080F2B28094F82E305A4D002B40F0AE8066
:107C6000FEF7A6FE0028B4BF022303232B77237F51
:107C70000E2063720121574B032201F0F1F900231A
:107C80002376237E4F4D002B00F098806B7EBBB98E
:107C9000FEF752FE002811D002DA4FF47F0007E011
:107CA000012801D14C4803E0022803D14FF0FF1016
:107CB00002F0B8FEE72002F031FF01E001236B760D
:107CC000FEF7FEFD002879D1444B1B780BB102F082
:107CD000F9FE0023A376E37663762376012384F806
:107CE0002E306BE094F82630002B3FF450AF3B4B26
:107CF0001B780BB102F0E6FE0025284684F82E50D2
:107D0000657184F82650E57525766576A576E57665
:107D10002577256203F0C2F9642002F027FDA37DD8
:107D200043B1284602F000F8264B012283F82620B2
:107D3000FFF7D8FD4FF47F4002F074FEE72002F019
:107D4000EDFE24E7FEF75EFE00234FF47F40A376AE
:107D5000E3766376237602F065FEE72002B0BDE8A5
:107D6000F04102F0DBBE642002F000FD05F13100BD
:107D700001F036F92B7F002B3FF460AF4FF47F000A
:107D800002F050FE237F0F4D03F0FF02002B3FF463
:107D90004DAFE72002F0C2FE4FF4FA7002F0E6FCAD
:107DA000E72002F0C9FE4FF4FA7002F0DFFC2B7FEF
:107DB000013BDBB22B77E5E7012361E702B0BDE8C9
:107DC000F08100BF141B00209F010020A4010020AF
:107DD000AD0100201D1B00200060FF009C1B002047
:107DE00007B5002100910A460B460348FFF716F934
:107DF00003B05DF804FB00BF801B00207047FEE766
:107E0000FEE7FEE7FEE7704770477047FEF79EB952
:107E100008B5024B0BB1AFF3008008BD00000000B5
:107E200008B5024B0BB1AFF3008008BD00000000A5
:107E300008B5024B0BB1FFF79FF808BD796F00083A
:107E400008B5024B0BB1FFF798F808BD7B6F00082F
:107E500008B5024B0BB1FFF79FF908BD99710008F7
:107E600008B5012003F040FF38B1012003F04AFFBC
:107E7000024B13B10020FFF79BF808BDB16F00085B
:107E800008B5022003F030FF38B1022003F03AFFBA
:107E9000024B13B10120FFF78BF808BDB16F00084A
:107EA00008B5042003F020FF78B1042003F02AFF76
:107EB0000020064B0146188002F0E6FEBDE80840AF
:107EC00003481021012204F002BB08BDAE1B0020B4
:107ED000002C014008B5082003F006FF38B1082047
:107EE00003F010FF024B13B10320FFF761F808BD48
:107EF000B16F000808B5102003F0F6FE38B110206D
:107F000003F000FF024B13B10420FFF751F808BD46
:107F1000B16F000808B5202003F0E6FE38B120203C
:107F200003F0F0FE0E4B13B10520FFF741F840209F
:107F300003F0DAFE38B1402003F0E4FE084B13B141
:107F40000620FFF735F8802003F0CEFE38B1802000
:107F500003F0D8FE024B13B10720FFF729F808BD44
:107F6000B16F000808B54FF4005003F0BDFE40B1FA
:107F70004FF4005003F0C6FE174B13B10D20FFF76E
:107F800017F84FF4804003F0AFFE40B14FF480404B
:107F900003F0B8FE104B13B10E20FFF709F84FF4B1
:107FA000004003F0A1FE40B14FF4004003F0AAFEF0
:107FB000094B13B10F20FEF7FBFF4FF4006003F0F5
:107FC00093FE38B14FF4006003F09CFEBDE808401A
:107FD00002F048BB08BD00BFB16F000808B51048EB
:107FE000102104F0ADFAC8B10D48102104F0B3FA25
:107FF000002002F0F7FE30B90A4B1A8892B20A321A
:1080000092B21A8008BD06481021002204F05FFADF
:10801000BDE808400020012102F036BE08BD00BFC7
:10802000002C0140AE1B002008B5012004F080F8B0
:1080300030B1012004F08CF8BDE8084004F062B8CB
:1080400008BD000008B5022004F072F8B0B10C4B76
:1080500000224FF400301A7003F054FE012003F0A8
:10806000ABFF10B1012003F0B1FF04F04BF8022088
:1080700004F06EF8BDE8084004F044B808BD00BF45
:10808000431B002002F080BA00F062B838B51449F2
:108090000B78012B23D1134A13680BB90B7038BD31
:1080A000114C402B206881B205D94030403B206004
:1080B0001360402504E09DB2034423600023136055
:1080C0000A482A460844C02104F042FF01202946FC
:1080D00005F046F8BDE83840012004F0ABBF38BDDC
:1080E000180E0020200E00201C0E0020180D00206D
:1080F00008B5094B01221A70084B002203201A8090
:1081000005F05EF8064B024618804FF4887105486A
:10811000BDE8084004F034BFCC0C0020D00C002097
:10812000CE0C0020D20C0020074B1B68052B09D178
:10813000064B1A68511C052A196003D100221A60E7
:10814000FEF722B9704700BFCC1B0020881B00201F
:1081500070B52B4D2B4C2B682B4E9BB22380228865
:1081600033881340990508D54FF6FF532B60A37849
:108170000133DBB2A370FFF7D7FF228833881340A7
:108180001A0401D504F02EFE2288338813405B05C3
:1081900005D54FF6FF332B601C4B5B689847228850
:1081A00033881A40900444BF4DF6FF722A6022883B
:1081B0001340D90405D54EF6FF732B60002003F061
:1081C000E1FB2288338813401A050BD5104B1B782E
:1081D00013B103F0B7FB02E0022003F0D3FB4FF230
:1081E000FF732B60228833881340DB0507D54FF6D9
:1081F000FF632B600720BDE8704003F0C3BB70BD78
:10820000445C00408C1B0020B4250020100200209C
:108210000C030020034B9B7A13B1034B05221A6019
:10822000704700BF90250020CC1B0020014B04228A
:108230001A607047CC1B0020034B1A78202A04BF19
:1082400000221A70704700BF901B0020704700008A
:10825000212810B508D1114B1B681B7803F07F0350
:10826000212B10D0022010BD2028FBD10B4B0C4A33
:108270001B681B78107003F07F03212B094B18BF7C
:1082800000230BB9EEE7084B044A0024126820468D
:10829000936154829847204610BD00BFB02500204E
:1082A000901B0020F9820008E1820008074B1B6840
:1082B0001B7803F07F03212B06D100F0DF0002289A
:1082C00014BF02200020704702207047B025002014
:1082D00009B1022070470128FBD80846704700000A
:1082E00020B9034B08221B681A8270470148704767
:1082F000B02500200802002020B9034B08221B688B
:108300001A82704701487047B025002008020020FB
:1083100010B5FEF785F8054B00241B689C7203F02E
:10832000F9FA04F063FF024B1C6010BDB025002079
:10833000CC1B0020334B344A1B68D27910B5002483
:108340005A729C72DC72204604F02CFE20464FF4D8
:10835000007104F02FFE2046102104F039FE204663
:10836000402104F0D1FE8021204604F0BDFE2046CD
:1083700004F086FE254B204693F8341004F0FEFEF0
:10838000204604F06AFE0120214604F013FE01207D
:10839000C02104F0A9FE0120202104F019FE0120D3
:1083A000214604F02EFE02204FF4C06104F002FECC
:1083B00002204FF4807104F097FE0220214604F061
:1083C00020FE0220202104F003FE0320214604F0B9
:1083D000F1FD03204FF4887104F096FE0320402144
:1083E00004F0CCFE03204FF4405104F00AFE0320B9
:1083F000214604F0EDFD204604F088FC044B0122E8
:108400001A6010BDB0250020CD2C01080802002004
:10841000CC1B0020014904F075BA00BF40020020C7
:10842000014904F06FBA00BF48020020054B1B68E9
:10843000DB78042B04D8044901EBC30104F062BAD1
:1084400000207047B02500205002002038B50446B7
:108450000D46FFF775F9204625614FF41651FFF7D9
:1084600079F9204638BD000007B5002100910A4681
:108470000B460348FEF7D2FD03B05DF804FB00BFD6
:10848000941B002070B506460D46002428460AF0CD
:1084900009FA844208D2295D3046FFF74BF90120E2
:1084A00002F064F90134F1E770BD00002DE9F843F2
:1084B00004460F4690460D46C7EB05095FFA89F959
:1084C0002046FFF733F90028FADD2046FFF72CF9A4
:1084D000C145C6B206D100232B7020460C49FFF7D8
:1084E000D1FF0AE00D2EF6D00A2EF4D020463146F8
:1084F000FFF720F905F8016BDEE72046FFF716F9D4
:10850000002803DD2046FFF70FF9F6E7BDE8F88302
:108510008A570108F0B585B00446FFF707F900282F
:1085200040F39D802046FFF7FFF8C0B2772868D15E
:1085300004F1140600212122304604F1350509F02A
:1085400027FE41220021284609F022FE04F1760789
:10855000002384F87630204642497B70FFF792FF73
:10856000204631462022FFF7A1FF20463E49FFF773
:1085700089FF012220463946FFF798FF94F87630AC
:10858000A3F13002D2B2032AEFD8312B0BD120460F
:108590003649FFF777FF20463549FFF773FF20463E
:1085A0003449FFF76FFF94F87620B2F1300708D016
:1085B00020463149FFF766FF204629464022FFF753
:1085C00075FF20462D49FFF75DFF23693A46304687
:1085D0002946984720462A49FFF754FF2046294953
:1085E000FFF750FF20462849FFF74CFF2046274958
:1085F000FFF748FF20462649FFF744FF204625495C
:1086000028E069282BD1244B01AD93E8070085E8C9
:10861000070020462149FFF735FF0026AF5D2046C1
:108620003B0903F13001392984BF03F15701C9B275
:1086300007F00F07FFF77EF807F13001392984BFF3
:108640005737F9B220460136FFF774F80C2EE5D102
:108650001349204605B0BDE8F040FFF713BF05B051
:10866000F0BD00BFDE550108E555010812560108AE
:108670004856010873560108B9560108C456010846
:1086800007570108275701085A5701088D57010855
:10869000CC570108FD570108E8F7FF1F13580108E0
:1086A0008A570108002100F004B80D4B5B58435075
:1086B00004310C480C4B42189A42FFF4F6AF0B4AB7
:1086C00000F003B8002342F8043B094B9A42FFF440
:1086D000F9AF03F0A5F8FDF7C7FEFDF7C7FC70473B
:1086E000A859010800000020500B0020500B00206A
:1086F000C0250020FFF7FEBF73B544790023022C8C
:1087000001930FD0032C19D0012C2BD1164D2B69BE
:108710002E4623B12B6901A898470246B8B9B16823
:1087200001201BE0104DEB682E4623B1EB6801A839
:108730009847024658B9B16802200FE00A4D6B69AC
:108740002E464BB16B6901A89847024620B1A96833
:108750002046BDF8043003E0B16803200022134630
:1087600000F05AFB02B070BDFC1C0020072810B5B9
:108770000BD8012909D80124844001FA00F0034BE9
:108780001A6822EA040202431A6010BD980200200F
:1087900070B5012186B0054604F046FD4304044649
:1087A0002AD5B0F5824F27D12846052104F03CFD9B
:1087B00005EB8000EE1D0024C51DAE4206D03046FC
:1087C000022104F031FD04360444F6E7724B1A8EA0
:1087D00092B2224492B21A86DA6B1444DC63D96BEB
:1087E0009A6B914240F0CA8093F84020002A00F032
:1087F000C5809B69992031E024F4FF4020F07F0080
:1088000080B2002800F0978048F210039C4228D0E4
:108810000CD8B4F5004F40F2BC8048F202039C42F1
:1088200015D948F204039C4211D0B2E048F280030B
:108830009C420CD004D848F240039C424FD0A8E0A0
:10884000B4F5024F03D0B4F5084F6BD0A1E0524B02
:108850009A69002A00F092809B69204600210A460E
:1088600067E00023EA1852790DF803200133042B46
:10887000F8D16B7A05F10D008DF80430AB7A8DF8E4
:108880000530EB7A8DF806302B7B8DF8073000230E
:1088900000AA1A44C15C0133042B1172F8D105F10E
:1088A0001100002300AA1A44C15C0133042B117388
:1088B000F8D105F11500002300AA1A44C15C013368
:1088C000042B1174F8D12B798DF81430324B9A693E
:1088D000002A53D09B6920466946152229E00535B8
:1088E0000021284604F0A7FC04210090284604F04B
:1088F000A2FC08210190284604F09DFC0C21029066
:10890000284604F098FC10210390284604F093FCBC
:10891000214B04909A69002A30D09B692046694611
:10892000142206E01C4B9A6942B39B692046691DDC
:108930000122984722E041F203039C4205D0A4F5AE
:1089400080530E3B9BB2012B1AD86C1D204604218C
:1089500004F071FC39301CD12A790F4B00212046DC
:10896000DA6204F068FC04210546204604F063FC4A
:10897000393003D128460121FFF7F8FE012009E034
:10898000054B1B889BB29C4204D0B4F5805FF5D1A7
:1089900000E0002006B070BDFC1C002038B50A4C79
:1089A00063889BB20BB9002038BD60680378042B44
:1089B000F9D1FFF7EDFE01280546F4D100236380CD
:1089C00001F092FC284638BDFC1C00202DE9F84F30
:1089D0000446894692460025DFF87483B8F80230D1
:1089E0009BB2002BF8D0D8F804603378042B40F009
:1089F00073813046012104F017FC05463046FFF72D
:108A0000C7FE002840F05F8141F207039D4206F156
:108A1000050755D841F206039D4280F0AE8040F232
:108A200002239D4200F0A98014D80C2D09D8082DEE
:108A300080F0A380002D00F04681062D00F2E18039
:108A40009BE00D2D00F0968040F201239D4200F046
:108A5000918038E141F202039D4218D8B5F5805F5C
:108A600000F28B80B5F5017F40F2848040F207234D
:108A70009D4240F028813379384604F8013B0021BB
:108A800004F0D9FB0146204604F0C0FB1BE141F293
:108A900004039D4200F08B8040F2A1800021384603
:108AA00004F0C9FB04212060384604F0C4FB0834FC
:108AB00044F8040C06F10D03224606F11D016FE097
:108AC00041F211039D4255D02BD841F20B039D4238
:108AD00053D01CD841F209039D424ED000F28C8045
:108AE0000021384604F0A7FB04212060384604F03A
:108AF000A2FB08216060384604F09DFB0C21A060B9
:108B0000384604F098FB04F10C0BE060DAE041F227
:108B10000F039D4263D036D841F20D039D4246D0EB
:108B2000D1E042F206039D4224D00BD8B5F5005F98
:108B300040F2C98042F204039D4288BF002300F244
:108B4000848017E042F208039D42C0F0BC8042F2EC
:108B500009039D420ED944F20B039D4240F0B380BD
:108B6000737938460121A8F8303004F05DFBA8F88D
:108B70003200A8E033792370A5E03846002104F0E4
:108B80005AFB20609FE00021384604F054FBA346C6
:108B90004BF8040B0421384604F04DFB606091E073
:108BA00053F8040B8B4242F8040BF9D18BE00021FF
:108BB000384604F040FB04212060384604F03BFBBB
:108BC00008216060384604F036FBE36804F1080BC6
:108BD0003933A06076D10121FFF7C8FD72E0002192
:108BE000384604F028FB04212060384604F023FBBB
:108BF000083444F8040C66E0337923713B68236041
:108C000061E00021384604F016FB0421206038465C
:108C100004F011FB08216060384604F005FB0A21CE
:108C2000A060384604F000FB0C3444F8020C06F156
:108C30001103224606F1350153F8040B8B4242F82A
:108C4000040BF9D11B8813803DE0F2185279E254ED
:108C50000133042BF9D106F109000023C15CE218AD
:108C60000133042B1171F9D106F10D000023C15C11
:108C7000E2180133042B1172F9D106F1110000231F
:108C8000C15CE2180133042B1173F9D106F1150010
:108C90000023C15CE2180133042B1174F9D106F1F1
:108CA00019000023C15CE2180133062B1175F9D1BC
:108CB00006F11F000023C15CE2180133202B9176DE
:108CC000F9D100E05C46B8F800309BB29D4223D158
:108CD0001F4B00221A801FE030460321B77804F0B2
:108CE000A3FA8346B9F1000F0CD00421701D04F0E3
:108CF000A2FA0246CAF8000006F115014846D2B2AF
:108D0000FCF706FA791D20463144C7EB0B02FCF74D
:108D1000FFF90023A8F836300023A8F8023001F04C
:108D2000E3FA3378042B05D1B5F5805F02D13046E4
:108D3000FFF7E2FCB8F800309BB2002B7FF44CAE9A
:108D4000034BD88E80B200287FF446AEBDE8F88F82
:108D5000FC1C002007284FF0010308D803FA00F09C
:108D6000044B1A6810420CBF0020012070471846BF
:108D7000704700BF98020020034B1880084600216E
:108D80000A46FFF723BE00BFFC1C002010B5034BB2
:108D90000124DC86BDE81040FFF718BEFC1C002053
:108DA00038B50346154601224A710C46881D1946FE
:108DB00004F035FA291D0570204601F057FB00200C
:108DC00038BD38B5BDF814500C462B44D518ADB29B
:108DD00002216171A071E271294604F1080004F0DA
:108DE0001EFA691D204689B201F040FB002038BD03
:108DF00038B513440C469DB202216171A071294619
:108E0000E27104F1080004F00AFA691D204689B2F3
:108E1000BDE8384001F02ABB2DE9F84F1C4604F1AB
:108E2000020B032301F107091FFA8BFB88710D4622
:108E30004B7148465946164604F0F1F9B4F57A7F6D
:108E4000824605F10B0812D8214604F0E8F92146C4
:108E5000504604F0E4F9314640462246FCF758F902
:108E6000A11D284689B2BDE8F84F01F0FFBA4FF4C2
:108E70007A77B4FBF7F30BEB430189B204F0CFF937
:108E80003946504604F0CBF9314640463A46FCF7A5
:108E90003FF9A4F57A74284640F2EE31A4B23E447C
:108EA00001F0E4FAB4F57A7F84BFA4F57A74A7B22E
:108EB000A84688BF4FF47A74314628F8054F4846D3
:108EC000224698BF0027FCF723F9A11C404689B22F
:108ED000264401F0CBFA0FB13C46E3E7BDE8F88F3A
:108EE000F7B51E46FF238DF80730194B00259C6807
:108EF000475D63190135042D5F72F9D100200D5CC7
:108F00002318013004285D73F9D10021505C6318E7
:108F1000013104295874F9D104F11500002104F03D
:108F200075F90022B35C83540132042AFAD1214638
:108F3000142242F20100FFF733FF42F201000DF16B
:108F40000701FFF719FF9DF9070003B0F0BD00BF4F
:108F5000FC1C00202DE9F3411F46FF238DF807304C
:108F60001E4B0646D3F8088033680C46013B122B93
:108F70009CBF142333600B6808F10900013B122BDE
:108F80009CBF14230B6013681546013B122B9CBF3A
:108F9000142313603B68013B122B9CBF14233B60DE
:108FA000316804F033F9216804F030F9296804F0DD
:108FB0002DF9396804F02AF94146142242F20900D9
:108FC000FFF7EEFE42F209000DF10701FFF7D4FEB4
:108FD0009DF9070002B0BDE8F08100BFFC1C002035
:108FE00010B5074B0446996842F205000022FFF7CE
:108FF000D7FE214642F20500BDE81040FFF7BCBE97
:10900000FC1C00202DE9F3411F4602ACFF2304F8AD
:10901000013D124B86469D680E4605F109007146DA
:10902000904604F0F3F8314604F0F0F8414604F0BD
:10903000EDF829460C2240F20120FFF7B1FE21464F
:1090400040F20120FFF798FE002138460A46FFF75C
:109050009DFE9DF8070002B0BDE8F081FC1C0020D9
:109060002DE9F341984602AD4FF0FF3345F8043D3A
:10907000134B86469E680C4606F10A007146174659
:1090800004F0C4F80C2104F0C1F8214604F0BEF845
:10909000394604F0BBF84146224606F11A00FCF7B7
:1090A00037F831461022A3B29020FFF7A1FE40F21C
:1090B00002202946FFF760FE019802B0BDE8F0816A
:1090C000FC1C002013B50B4B04469968002240F2AB
:1090D0000720FFF765FE40F207206946FFF74CFEC8
:1090E0009DF803309DF8000023709DF804306370F4
:1090F00002B010BDFC1C002037B50E4A0346946830
:109100000D4604F10900194604F080F8294604F0E0
:109110007DF82146082240F20320FFF741FE40F28D
:1091200003200DF10601FFF727FEBDF8060003B08E
:1091300030BD00BFFC1C00202DE9F0430023CA5CB9
:10914000C2540133102BFAD10022344B467B9918BC
:1091500091F801800178847B88EA01089919C97A1D
:1091600090F80CC088EA01081919CF7A417880F884
:1091700010804F40C17B47745D1895F80B9085783F
:10918000634489EA050593F80B90C378FFB289EA36
:10919000030390F80490857488EA090890F8059014
:1091A000EDB287EA090790F80690C37485EA0905CD
:1091B00090F80790DBB283EA090390F8089080F8F2
:1091C00014805FFA88F888EA090890F809904775D2
:1091D000FFB287EA090790F80A908575EDB285EA33
:1091E000090590F80B90C375DBB283EA09030132DD
:1091F00088EA0C0C7E406C4059400A2A80F818809E
:1092000047768576C37680F81CC046778477C17729
:1092100000F1100099D1BDE8F08300BF222D0108B4
:1092200010F0800F4FEA400018BF80F01B00C0B262
:10923000704700002DE9F04F91F8A03090F800A0A1
:1092400042788AEA030A80F800A091F8A13097B02A
:10925000534043708278079391F8A23090F80490BD
:1092600053408370C278059391F8A33046795340F8
:10927000C370069391F8A430827989EA030980F8D3
:10928000049091F8A53090F808805E40467191F8FE
:10929000A630477A53408371C279089391F8A7307A
:1092A00004465340C3710C9391F8A8304FF0000B63
:1092B00088EA030880F8088091F8A9305F40477277
:1092C000827A91F8AA30534083720993C07A91F858
:1092D000AB3094F80CC04340E3720D9391F8AC307E
:1092E00094F80DE08CEA030C84F80CC091F8AD30D2
:1092F000A57B8EEA030E84F80DE091F8AE30E27B98
:109300005D40A57391F8AF305A40464BE2739A44E2
:109310009AF80B0191F890A0994480EA0A00207015
:1093200099F80BA191F8949098448AEA090984F875
:10933000049098F80B9191F898809C4489EA080869
:1093400084F808809CF80B8191F89CC09E4488EAC0
:109350000C0C84F80CC09EF80BC191F891E01F44EE
:109360008CEA0E0E97F80BC191F89D701E448CEAA2
:109370000707677396F80B7191F899601D447E405A
:109380006672079E0D981E4496F80B7191F89560D1
:1093900084F801E07E406671059E18441E4496F8EC
:1093A0000B7191F89A607740089E1E4496F80BE185
:1093B00091F89E608EEA0606DDF824E09E449EF851
:1093C0000BC191F892E08CEA0E0E84F802E095F859
:1093D0000BE191F89650A7728EEA0505A571069DDE
:1093E000A6731D4495F80B6191F89F5075400C9E33
:1093F0001E4496F80B7191F8936013447E40E6701A
:1094000090F80B6191F897007040E07193F80B2190
:1094100091F89B30CDF81CB05340E573E3720D46D4
:1094200002E000BF222D0108A77894F80090103DBB
:1094300087EA0900FFF7F4FEFFF7F2FEE67894F8FA
:1094400001B0824686EA0B00FFF7EAFEFFF7E8FE6E
:109450002179A37980EA060880EA0B0B83EA0100F0
:1094600003910293FFF7DCFEFFF7DAFE8AEA0909AF
:10947000E6798AEA070A6779024686EA07000492D3
:10948000FFF7CEFEFFF7CCFE049A029B03995340F0
:10949000DBB294F808C00693A37A51404640C9B2A3
:1094A0004740F6B283EA0C000293CDF804C0059160
:1094B0000896FFF7B5FEFFF7B3FE617AE67A02463B
:1094C00086EA010003910492FFF7AAFEFFF7A8FEC7
:1094D000049ADDF804C00399029B82EA0C0C534005
:1094E0004140C9B25FFA8CFCDBB20A91CDF824C0CE
:1094F0000B9394F80CC0A37B4640F6B283EA0C00B1
:109500000293CDF804C00C96FFF78AFEFFF788FEA1
:10951000617BE67B024686EA010003910492FFF735
:109520007FFEFFF77DFE049A029BDDF804C00399DD
:10953000534082EA0C0C5FFA89F95FFA8BFB5FFA01
:109540008AFA5FFA88F84140DBB24640C9B28BEA3A
:1095500009005FFA8CFC0F93F6B288EA0A030E91B9
:109560000293CDF834C0109683EA0006FFF758FE48
:1095700089EA000086EA000C5FFA8CFC84F800C0DF
:109580008AEA0B00CDF804C0FFF74AFE8BEA000020
:10959000029B86EA000B5FFA8BFB184684F801B049
:1095A000CDF844B0FFF73CFE8AEA000086EA000AE4
:1095B0005FFA8AFA88EA090084F802A0CDF848A088
:1095C000FFF72EFE88EA0000059BDDF818B0DDF8F5
:1095D00020A04640FFB2F6B287EA03008AEA0B08F1
:1095E000E670139688EA0006FFF71AFE05994840D0
:1095F0007040C0B2149020718BEA0700FFF710FE94
:10960000784086EA0007FFB2677140461597FFF77A
:1096100007FE8BEA0000059A7040C0B20690A07168
:109620008AEA0200FFF7FCFD8AEA00000B990A9B18
:10963000DDF824A0DDF830B04640F6B283EA0A0037
:109640000596E6718BEA010686EA0007FFF7E8FD5A
:109650008AEA00000A9B0B9A87EA00085FFA88F8FA
:1096600082EA030084F80880FFF7DAFDDDF828A01D
:109670008AEA000087EA00095FFA89F9304684F82F
:109680000990FFF7CDFDDDF82CB00C998BEA0000B6
:10969000099A87EA000B5FFA8BFB81EA020084F8E3
:1096A0000AB0FFF7BDFD0C9B0D99DDF838A05840BE
:1096B000109A47408AEA0100DDF83CA0FFB282EA36
:1096C0000A03E77283EA000A0293FFF7A9FD0D99E6
:1096D0000F9A48408AEA00060E99F6B282EA010023
:1096E0002673FFF79DFD0E9A029B50408AEA000107
:1096F000C9B2617318460391FFF792FD0F9BDDF825
:1097000034E058408AEA0002109BD2B2A27383EA86
:109710000E000492FFF784FD109BDDF804C0584052
:109720008AEA000A494B5FFA8AFA84F80FA003EB31
:109730000C0090F80BC195F890001E448CEA0000D4
:10974000207014981F44184490F80BC195F89400A9
:109750008CEA0000207103EB080090F80BC195F82B
:1097600098008CEA0000207295F89C0096F80B6136
:10977000039970402073194491F80B0195F89110EA
:10978000049A414003EB090090F80B6195F89D00A5
:109790001A44704060731598184490F80B6195F85E
:1097A0009900704060721198184490F80B6195F818
:1097B00095006170129970406071194491F80B0125
:1097C00095F89A1048400699194491F80B6195F85C
:1097D0009E10714003EB0B0696F80BC195F8926052
:1097E0008CEA0606A67092F80B6195F89620A07296
:1097F0007240139EA1731E4496F80B11A271059E30
:1098000095F89F201E4496F80B014A4095F8931056
:1098100053444140E17095F8971097F80B01DDF83B
:109820001CA04140E17193F80B1195F89B30AAF10F
:10983000100A4B401AF1900FE372E273CDF81CA0AE
:109840007FF4F2AD17B0BDE8F08F00BF222D010804
:1098500038B5054C05462046FFF76EFC28462146E4
:10986000BDE83840FFF7E6BC081C00200346102185
:109870000C200022FFF7C6BB034610210C2000225B
:10988000FFF7EEBB38B505460E4CE36A4BB108F066
:1098900019F8E36A03600023E36208F013F8006834
:1098A00038BD2846FFF756FA48B9228E92B2002AF0
:1098B000EAD0228E92B2013A92B2228638BD4FF09F
:1098C000FF3038BDFC1C0020F7B5174602AC4FF046
:1098D000FF3244F8042D124A034695680E4605F1FE
:1098E0000900194603F092FC314603F08FFC39461B
:1098F00003F08CFC0C22294641F20100FFF750FADC
:10990000214641F20100FFF737FA07F0DBFF019B28
:10991000002103601846FEF729FF019803B0F0BD4F
:10992000FC1C002073B54FF0FF3302AC44F8043D3B
:109930000E4B05469E68294606F1090003F066FCB9
:109940000422314641F20B00FFF72AFA214641F288
:109950000B00FFF711FA07F0B5FF019B012103602F
:109960002846FEF703FF019802B070BDFC1C0020E2
:10997000F7B50C460746164607F0A4FF4FF0FF3335
:10998000E62C036025D8154B08219D6805F10900D8
:1099900003F03CFC214603F039FC0346191A09B2D6
:1099A000A14203DA7A5C03F8012BF7E704F108021D
:1099B000D2B2294641F21000FFF7F2F941F210004D
:1099C0006946FFF7D9F907F07DFF009B0360019B13
:1099D000336007F077FF006803B0F0BDFC1C002087
:1099E00037B54FF0FF320192134A034694680D4693
:1099F00004F10900194603F009FC082103F006FCF4
:109A0000082103F003FC0023EA5CC2540133082B55
:109A1000FAD11422214641F20700FFF7C1F901A94A
:109A200041F20700FFF7A8F907F04CFF019B036024
:109A3000184603B030BD00BFFC1C00202DE9FF41DB
:109A40001D46314B8646D3F808800F4608F10900C1
:109A5000714616460A9C03F0D9FB142103F0D6FB8D
:109A6000142103F0D3FB142103F0D0FB142103F0E5
:109A7000CDFBD4F1010138BF002103F0C7FB0FB1CA
:109A8000396800E0394603F0C1FB0EB1316800E0EF
:109A9000314603F0BBFB0DB1296800E0294603F015
:109AA000B5FB74B1216839B9636841F287329342DA
:109AB000DCBF41F28833636003F0A8FB616803F008
:109AC000A5FB41462C2241F20800FFF769F941F25B
:109AD00008006946FFF750F9009B002B09DB0FB126
:109AE000019838600EB1029830604DB1039828603B
:109AF00006E007F0E7FE009B03604FF0FF3000E058
:109B0000184604B0BDE8F081FC1C00202DE9FF419F
:109B10009846154B07469D6814460E4605F1090008
:109B2000394603F073FB214603F070FB414603F016
:109B30006DFBBDF8304029460C222046FFF730F976
:109B4000204601A9FFF718F9029B002B04DD3046DF
:109B50000A990B9AFFF71AF907F0B4FE029B03600B
:109B6000184604B0BDE8F081FC1C00201FB500249D
:109B70000094019441F204040294FFF7C7FF04B07B
:109B800010BD00002DE9F04F89B0039114469B46AB
:109B9000139E149D0290FFF775FEDDF808C00028A3
:109BA00058D12E4B812D9A6B02F101029A63D3F8A2
:109BB000089009F10A0307D0832D0AD104F1080A9D
:109BC00009F12208182704E009F11A0810270646AF
:109BD00012906146184603F019FB391F03F016FB7B
:109BE000214603F013FB594603F010FB832D05D1EA
:109BF000514603F00BFB082103F008FB4346C8EB7A
:109C0000030109B2A14204DA039A515C03F8011B73
:109C1000F5E7832D18460ED0129BB6B2009301963D
:109C2000E8B249463A46A3B2FFF7CBF8832D0BD1F1
:109C300041F20F000AE0191A09B2B142ECDA129AA5
:109C4000515C03F8011BF6E741F2030005A9FFF799
:109C500093F8204609B0BDE8F08F00BFFC1C00203F
:109C60001FB500240094019481240294FFF78AFF19
:109C700004B010BD1FB5069C0094079C019483247A
:109C80000294FFF77FFF04B010BD0000202A73B5D7
:109C900003460E46144624D8144A1946956805F121
:109CA000090003F0B3FA082103F0B0FA214603F0EB
:109CB000ADFA03461A1A12B2A24203DAB25C03F8F2
:109CC000012BF7E704F10C022946D2B241F2110050
:109CD000FFF766F841F2110001A9FFF74DF801986E
:109CE00001E04FF0FF3002B070BD00BFFC1C00204F
:109CF000024B01225A805860FEF750BEFC1C002027
:109D000010B5084CE16022616361029BE361039B33
:109D10002362049B6362059BA3620123A06184F814
:109D2000403010BDFC1C002070B5214C0023A36303
:109D3000E363238023866386A386E386E3626380EE
:109D400063601C4B05461C48A36000F0ABFAE36956
:109D50009847A36A06460120984706B3E3699847E7
:109D60000028FBD1002DA16814BF022300234B72F1
:109D700001224FF48040FFF713F84FF48040002198
:109D8000FEF7FAFFA16844F20B000022FFF708F883
:109D9000BDE8704044F20B000021FEF7EDBFE3691F
:109DA00098470028FBD0E36998470028FBD1D9E702
:109DB000FC1C0020641D0020F19C000838B5094CF3
:109DC0000020A36A98472546EB69064C984700286F
:109DD000FAD0A3680BB10023A360BDE8384000F0BF
:109DE00075BA00BFFC1C00202DE9F04F994685B0E4
:109DF0004FF0FF3301932E4B1546D3F808A00024F3
:109E0000834688460AF109001C210F9E0E9F02948A
:109E1000ADF80C4003F0FAF9294603F0F7F959467A
:109E200003F0F4F905F1100103F0F0F9314603F005
:109E3000EDF9214603F0F3F9B9F1000F08D019F854
:109E4000043003550134062CF9D10630034607E0EF
:109E50004B4602AA9A5CC2540133062BF9D1F4E7AF
:109E60001A1A12B2AA4204DA18F8022003F8012BD7
:109E7000F6E7194646B13FB15A1A12B2B24203DAB6
:109E8000BA5C03F8012BF7E71C367219D2B25146BF
:109E90000120FEF785FF01A90120FEF76DFF07F005
:109EA00011FD019B0360184605B0BDE8F08F00BFAF
:109EB000FC1C0020F7B5174602AC4FF0FF3244F807
:109EC000042D0D4A034695680E4605F10900194612
:109ED00003F09CF9314603F099F9394603F096F9FD
:109EE00029460C220420FEF75BFF04202146FEF7E2
:109EF00043FF019803B0F0BDFC1C00202DE9F04F9A
:109F0000144685B000220292ADF80C206D4A8046BE
:109F1000D2F808A00F460AF1090041469B460F9D62
:109F2000139E03F073F9B8F1030F00F2BD80DFE870
:109F300008F0022C7575142103F068F9214603F02E
:109F400065F9002103F06BF9BBF1000F07D0002287
:109F50001BF8021081540132062AF9D106E05B4653
:109F600002AA9A5CC2540133062BF9D106300E992D
:109F700003F04CF903461A1A12B2A24203D2BA5C99
:109F800003F8012BF7E718348CE0202103F03EF9A9
:109F9000214603F03BF9002103F041F9BBF1000F2A
:109FA00007D000221BF8021081540132062AF9D191
:109FB00006E05B4602AA9A5CC2540133062BF9D133
:109FC0000E99063003F022F904F10C0103F01EF99A
:109FD000294603F01BF9109903F018F903461A1AE1
:109FE00012B2A24203D2BA5C03F8012BF7E712982F
:109FF00004211A46D61A36B2AE4203D2865D02F862
:10A00000016BF7E70139284401D01346F1E704EB6F
:10A01000850909F124091FFA89F945E0282103F08F
:10A02000F5F8214603F0F2F8002103F0F8F8BBF14F
:10A03000000F07D000221BF8021081540132062ABB
:10A04000F9D106E05B4602AA9A5CC2540133062BA2
:10A05000F9D10E99063003F0D9F8294603F0D6F865
:10A06000109903F0D3F8119903F0D0F804F1080126
:10A0700003F0CCF8314603F0C9F803461A1A12B2BD
:10A08000A24203D2BA5C03F8012BF7E719465A1A29
:10A0900012B2B24204D21298825C03F8012BF6E7A6
:10A0A0002C3634441FFA84F951465FFA89F20520B0
:10A0B000FEF776FE052001A9FEF75EFE019805B0C9
:10A0C000BDE8F08FFC1C002037B50C4B01469D68A5
:10A0D00002AC05F1090003F099F84FF0FF3344F8A2
:10A0E000043D294604220620FEF75AFE062021469A
:10A0F000FEF742FE019803B030BD00BFFC1C0020FB
:10A1000037B548F2080248F2080102408A42034685
:10A1100013490BD10020934281F840001ED023F454
:10A12000004323F0080343F4004302E0012281F8D6
:10A1300040208D684FF0FF32194602AC05F109004E
:10A1400044F8042D03F062F8294604220820FEF7A3
:10A1500027FE08202146FEF70FFE019803B030BD10
:10A16000FC1C002073B50C4B01469D684FF0FF3678
:10A1700002AC05F10900019603F048F844F8046DBB
:10A18000294604220A20FEF70BFE0A202146FEF78C
:10A19000F3FD019802B070BDFC1C002013B50E4AFF
:10A1A0004FF0FF330193916898B1542303704370CB
:10A1B00083700022845C8B180132032A5C72F9D10F
:10A1C0000C20FEF7EDFD0C2001A9FEF7D5FD01984E
:10A1D00000E0184602B010BDFC1C0020F0B52E486F
:10A1E00087B0FFF743FB0246002852D12B4D0D20CC
:10A1F00043212B46FEF706FF00284AD12E78264938
:10A20000F71C7C192046FFF723FB2B782B445B7847
:10A21000102B04D904F110001F49FFF719FBE37F4D
:10A220001BB1EB5D1F2B03D100E0EB5D013400E0BF
:10A2300020232A781544AA78032A29D8DFE802F0D7
:10A24000020E19190020012300930190029003903F
:10A250000490059012493246034616E001208DE82D
:10A260000900002302930393049405930C4932469A
:10A270000BE0012018211E2202258DE82700084945
:10A2800005930494032032460023FFF737FE00E0D5
:10A29000002007B0F0BD00BF401D0020B81C00200A
:10A2A000B91C002008B50649064B00229A601860C8
:10A2B0001961DA80DA609A80034B1B6A984708BDFF
:10A2C00064210020501D0020FC1C002008B5044B18
:10A2D0001A690AB100221A61024B5B6A984708BDED
:10A2E000501D0020FC1C0020024B4FF480725A606D
:10A2F000704700BF00E100E008B5074B4FF48072E3
:10A30000C3F8842000F06EFE044B022218699A60A4
:10A3100005301B68984708BD00E100E0501D002093
:10A3200070B50646002014460D4600F04BFE012E87
:10A33000A4B207D130462946224600F0CBFD0020CA
:10A34000124907E0124B01201969224600F0C2FDB4
:10A3500000202946224600F0BDFD0E4802210122C0
:10A3600001F05FFC012000F02DFE0A4801F061FCC5
:10A370000028FAD1084801F05CFC0028FAD107480F
:10A38000802101F028FF0028F9D170BD9C02002037
:10A39000501D002058000240440002400038004098
:10A3A00003460A4601201946FFF7BABF70B50646B4
:10A3B000002014460D4600F005FE012EA4B207D180
:10A3C00030462946224600F085FD0020104907E06E
:10A3D000104B01201969224600F07CFD002029461F
:10A3E000224600F077FD012000F0ECFD0A4801F064
:10A3F00020FC0028FAD1094801F01BFC0028FAD102
:10A400000748802101F0E7FE0028F9D170BD00BFA8
:10A410009C020020501D00205800024044000240D1
:10A420000038004003460A4600201946FFF7BEBF29
:10A4300038B504460D4600F08BFE322000F0A2F93C
:10A44000214604220020FFF7B1FF322000F09AF9E4
:10A450000020211D2A1FFFF7A9FF034B02229A604B
:10A4600000F0C0FD002038BD501D0020F8B501F0FF
:10A47000010383F00103012202700546CA18C2F3EA
:10A480000720AA704E1D0022194C6870EA702A71CC
:10A49000B6B21E44A368B6B213B9A368012BFCD1AF
:10A4A000A368012B07D128463146FFF7C1FFA368F7
:10A4B000022BFCD11AE0A368022BFCD10D488021AD
:10A4C00001F089FE0028F9D10B4FFB69984700285D
:10A4D000FAD00323A360E560A68000F039FEFB6993
:10A4E00098470028FBD0A368022BFCD10020F8BDC0
:10A4F000501D002000380040FC1C0020F8B5184E0C
:10A50000356937466B79022B08D0042B24D12C7A7D
:10A51000631E13F0010F08BF1C4614E0681D0321E1
:10A5200002F082FEB0F5806F044608DB05F10A00F8
:10A530004FF480610724FFF733FFB4600DE0C307D9
:10A5400001D4441C00E024B105F10A00A1B2FFF7D8
:10A5500027FF0823BB6000E000242046F8BD00BFB1
:10A56000501D0020024B012019690A22FFF7D8BEB6
:10A57000501D002008B5FFF7C1FF18B9BDE808401D
:10A58000FFF7BABE08BD0000F8B5344C4FF40030F8
:10A59000276901F051FB06464FF4005001F04CFBD7
:10A5A000A3682546062B0BD1002E56D0002854D088
:10A5B0004FF4083001F04EFBBDE8F840FFF7DABF7A
:10A5C000A368072B19D1002847D04FF4083001F0B9
:10A5D00041FB0321781D02F027FEA0F5806189B2BE
:10A5E000CB0758BFA0F2FF31206958BF89B200F2F3
:10A5F0000A40FFF7D5FE08231CE0A368082B08D10A
:10A6000058B34FF4083001F025FBBDE8F840FFF7E0
:10A6100073BEA368052B0FD1FEB11148802101F054
:10A62000DAFD0028F9D14FF4083001F013FB00F0F7
:10A63000D9FC0223AB60F8BDA368042B0DD166B131
:10A64000A188E0680523A1F58061A36000F5806022
:10A6500089B2BDE8F840FFF7E5BEF8BD501D002007
:10A660000038004008B5164BDB69984738BB154BDE
:10A670009A6812B901229A6008BD9A68022A07D125
:10A6800006229A6000F064FDBDE80840FFF76ABF4B
:10A690009A68032A13D19A88B2F5806F06D80521EB
:10A6A0009960D968BDE80840FFF73ABE04229A6075
:10A6B000D8684FF48061BDE80840FFF7B3BE08BD1D
:10A6C000FC1C0020501D0020BFF34F8F044A054B97
:10A6D000D16801F4E0610B43D360BFF34F8FFEE715
:10A6E00000ED00E00400FA050D4B0E4A197839B967
:10A6F000D98889B21187198989B291879B8806E028
:10A70000D98989B21187198A89B291879B899BB2AD
:10A710009386054B63221A70FF225A70704700BF60
:10A720009C1B0020002C0140A40200204FF440702C
:10A7300001F06AB90A4BF0211A684FF47A73B2FB40
:10A74000F3F2084B013A5A60074A82F823100021BD
:10A75000996007211960D02382F82330704700BF29
:10A76000F802002010E000E000ED00E082B001906F
:10A77000019A034B1A601A68002AFCD102B0704794
:10A780007025002013B50849084B01900C68084952
:10A7900001985A68B4FBF1F100FB01215A6891421B
:10A7A000FCD802B010BD00BFF8020020001000E08D
:10A7B00040420F0030B54FF4003085B001F0A2FAEE
:10A7C0004FF4003302930823002501240DEB03000E
:10A7D0008DF80D308DF80C508DF80E4001F044FAD4
:10A7E000032301A88DF804308DF805308DF806504C
:10A7F0008DF8074001F012F929238DF80430042365
:10A800000DEB03008DF805308DF806508DF80740EC
:10A8100001F004F9022001F0CFFB50B1022001F059
:10A82000D5FB01F077FC24204FF6FF7101F034F9DD
:10A8300027E0242001F03EF94AF2A553984201D1C5
:10A8400001F0A6FB012001F0CFFB412001F00EFC3E
:10A850000028FAD04FF4807001F0D6FB012001F0FF
:10A86000DBFB01F057FC01F04DFC0320012101F05E
:10A8700019FC01F047FC47F6FF7001F033FC01F0D2
:10A8800041FC05B030BD10B5044645F2555001F00D
:10A8900057FB062001F05AFB42F21070844228BF99
:10A8A000044628206043C0F30F2001F055FB01F05F
:10A8B00059FBBDE8104001F05DBB0000082814D82A
:10A8C000012908D10B4B0C4A03EB80035B6832F87B
:10A8D00010201A610BE051B9064B074A03EB8003C5
:10A8E0005B6832F810205A6101E0FF2000E0002090
:10A8F00040B27047A4020020302F010873B50F4EFC
:10A900008500731904460121186901F097FB36F898
:10A91000143001A9ADF8043010238DF8073003235B
:10A920008DF80630064B1D44686801F06BFA20462E
:10A930000021FFF7C3FF02B070BD00BF302F010838
:10A94000A402002070B5012188B04FF4006001F02E
:10A9500075FB314B01A81C68304B0025B4FBF3F4A8
:10A96000A4B201F087FD01A801F084FDADF8044018
:10A970002B4C42F20F7301A92046ADF80830ADF818
:10A980000A50ADF8065001F02DFC04A801F07BFD43
:10A9900060230126ADF810302046022304A9ADF84B
:10A9A0001830ADF81260ADF81650ADF81C5001F03B
:10A9B00063FC2046294601F09FFD204604A901F0D2
:10A9C0009FFC2046294601F09FFD204604A901F086
:10A9D000DBFC2046294601F0A1FD204604A9ADF884
:10A9E0001050ADF81260ADF81650ADF8185001F0E7
:10A9F0000DFD2046294601F099FD2046314601F023
:10AA00006FFD2046314601F048FD2046314601F0F9
:10AA100050FD08B070BD00BFF802002040420F009A
:10AA2000002C014030B51049104B8C8D93F8243028
:10AA3000A4B204FB0334C0F3074254430C4A240C71
:10AA4000D4808C8DC0F30725A4B204FB03346C437F
:10AA5000240C1481898DC0B289B201FB03334343B6
:10AA60001B0C938030BD00BF002C0140A4020020CD
:10AA70009C1B002030B51049104B8C8D93F824306E
:10AA8000A4B204FB0334C0F3074254430C4A240C21
:10AA9000D4818C8DC0F30725A4B204FB03346C432E
:10AAA000240C1482898DC0B289B201FB0333434365
:10AAB0001B0C938130BD00BF002C0140A40200207C
:10AAC0009C1B0020024B00221A70FFF70DBE00BF36
:10AAD0009C1B002073B50F4E85007319044601219D
