:020000040800F2
:1050000000500020E19F0008E1960008E3960008A8
:10501000ED960008F79600080197000800000000D0
:105020000000000000000000000000000B970008D6
:105030000D970008000000000F9700081197000866
:1050400035A0000835A0000835A0000839990008EF
:1050500035A0000835A00008719700089197000856
:10506000B1970008E59700080598000835A00008EA
:1050700035A0000835A0000835A00008A199000857
:1050800035A0000835A000082197000835A00008C9
:10509000A599000835A0000835A00008259800084B
:1050A00035A0000835A0000835A00008ED980008DC
:1050B00035A0000835A0000835A000084197000879
:1050C0005197000835A0000835A000086197000836
:1050D00035A0000835A000083197000835A0000869
:1050E000759800086199000835A0000800000000CC
:1050F00000000000000000000000000000000000B0
:0C51000000000000000000005FF808F153
:10511000844641EA000313F0030349D1403A23D304
:105120000B6803604B6843608B688360CB68C36027
:105130000B6903614B6943618B698361CB69C3610F
:105140000B6A03624B6A43628B6A8362CB6AC362F7
:105150000B6B03634B6B43638B6B8363CB6BC363DF
:1051600040304031403ADBD230320BD30B68036021
:105170004B6843608B688360CB68C360103010312C
:10518000103AF3D20C3205D351F8043B40F8043BFB
:10519000043AF9D2043208D0D2071CBF11F8013BFF
:1051A00000F8013B01D30B8803806046704700BFC5
:1051B000082A13D38B07B1D010F00303AED0C3F18C
:1051C0000403D21ADB071CBF11F8013B00F8013BB6
:1051D000A4D331F8023B20F8023B9FE7043AD9D32D
:1051E000013A11F8013B00F8013BF9D20B7803704A
:1051F0004B7843708B7883706046704740EA010CAF
:105200001CF0070F27D1BDF1100DCDE90245CDE906
:1052100000676FF000064FF0000700BFF0E80223C0
:10522000F1E80245A242A2F1013C2CEA020C0CF08A
:10523000803C08BFBCF1000F40F0E580AB42A3F119
:10524000013C2CEA030C0CF0803C08BFBCF1000FC1
:1052500040F0D680E2E710F0030C21D020F00300EC
:1052600050F8042B5FEACC7C08D00FD211F801CBA8
:105270005FFA92F3B3EB0C0C10D17BB111F801CBB8
:105280005FFAA2F3B3EB0C0C08D13BB111F801CBE0
:105290005FFAB2F3B3EB0C0C00D10BB96046704768
:1052A000BDF1100DCDE90245CDE900676FF00006B4
:1052B0004FF0000711F0030C33D110F0040F0FD0A2
:1052C00050F8042B51F8044BA242A2F1013C2CEA05
:1052D000020C0CF0803C08BFBCF1000F40F0938042
:1052E00011F0040F99D051F8045B00BFF0E80223DD
:1052F000AA42A2F1013C2CEA020C0CF0803C08BF4F
:10530000BCF1000F79D1F1E80245A342A3F1013CC1
:105310002CEA030C0CF0803C08BFBCF1000F69D1F3
:10532000E4E721F00301BCF1020F20D03FDA51F88D
:10533000045B00BF50F8043B4FEA1525A3F1013C84
:105340002CEA030C0CF0803CB7EB0C2F03EA16227E
:1053500008BFAA4251D151F8045BBCF1000F82EAA8
:1053600003034FEA056208BF934240D1E2E751F8D8
:10537000045B00BF50F8043B4FEA1545A3F1013C24
:105380002CEA030C0CF0803CB7EB0C4F03EA1642FE
:1053900008BFAA4231D151F8045BBCF1000F82EA88
:1053A00003034FEA054208BF934220D1E2E751F8D8
:1053B000045B00BF50F8043B4FEA1565A3F1013CC4
:1053C0002CEA030C0CF0803CB7EB0C6F03EA16627E
:1053D00008BFAA4211D151F8045BBCF1000F82EA68
:1053E00003034FEA052208BF934200D1E2E719BA4E
:1053F00012BA0AE019BA22BA07E011BA2ABA04E0CE
:1054000019BA2ABA01E011BA22BA9CFA8CF0DDE985
:105410000067DDE902451DF1100D38B1B0FA80F0EA
:10542000C0F1180021FA00F122FA00F201209142A5
:1054300098BF8041704700BF014B0360704700BFB9
:10544000F84C0108014B0360704700BF104D010884
:1054500010B5034B0446036002F004F8204610BD6B
:10546000F84C010810B5034B0446036001F0FAFF45
:10547000204610BD104D010808B5FFF7BFFED0F162
:10548000010038BF002008BD38B5044602F01AFDFF
:10549000234600216518013100220A2985F8C82019
:1054A00003F104035A6243F8040CC3F89C20F1D1C1
:1054B000C4F8FC20204638BDD0F8FC30092B0ADCAB
:1054C000002300EB8302926A1AB101330A2BF8D150
:1054D00001E0184670474FF0FF3070472DE9F0416A
:1054E00004460F4616469846FFF7E6FF051E16DBF4
:1054F000AEB104EB85006319012207658662C0F82E
:10550000788083F8C82002F0DDFC44F82500D4F848
:10551000FC3028460133C4F8FC30BDE8F0814FF080
:10552000FF30BDE8F0810023FFF7D8BF092910B58F
:1055300013DCD0F8FC4084B100EB81039A6A62B1BD
:1055400000220144013C9A6281F8C820C3F8D420AB
:105550001A65C3F8A020C0F8FC4010BD70B506461F
:1055600002F0B0FC06F1240300220021C3F8B010C1
:1055700053F8041FE9B153F8281C9C6A451AA54248
:1055800017D3214443F8281CB11891F8C81081B1F1
:10559000196D09B901210AE09C6F8C4209DA0125D5
:1055A0002C448C42C3F8AC509C6702DB0221C3F848
:1055B000AC1001320A2AD8D134460025D4F8D430B0
:1055C000012B08D0022B08D1A36A98473046294600
:1055D000FFF7ACFF01E0A36A984701350A2D04F1FB
:1055E0000404EBD170BD10B50446206803681B6944
:1055F00098470028F9D0206803685B699847C0B2D3
:1056000010BD2DE9F84305468946FFF7ECFF01265A
:1056100028710027B0462846FFF7E5FF05EB080391
:10562000187100F07F0303FB067708F101040306FD
:10563000A4B2BFB24FEAC61601D5A046EBE7631E7F
:1056400089F800300026B3B2BB4212D27F2C0AD8B0
:105650002846FFF7C8FF04F101081FFA88F82C4418
:105660002071444603E02846FFF7BDFF00240136C1
:10567000E9E72046BDE8F883F7B507461E46DDB2E8
:10568000002405F07F0302A8ED09204418BF43F071
:105690008003013400F8043CE4B2002DF1D1C4F1E0
:1056A000040302EB030ED154A54206DA01A9695C9A
:1056B000131B2B4459710135F6E73868721C0368D7
:1056C0002244DB6871469847054602F0FBFB013433
:1056D000C7F888002644E8B2831B5842584103B0FB
:1056E000F0BD023370B59BB20025ACB201354E1946
:1056F00016F8016C181980B20EB11654F5E7031BA9
:105700001A44231202F8023C02F8014C70BD38B56D
:105710000546006848B103681B6B9847044628B9E2
:1057200028680368DB6A984700E00446204638BDD5
:105730002DE9F04F85B004468A4690461F46DDF8B5
:105740003890FFF7E4FF0646002840F0A280256865
:10575000D4F89C102B6829B15B6A2846B4F8A020C5
:1057600098470BE0D4F8981001A8D3F820B002F0C5
:105770002FFE284601A9B4F8A020D847002800F041
:105780008380464A012310685168A4F8843001AB35
:1057900003C3127A01A81A700023E218C15C013316
:1057A000092B5172F9D1B9F1000F0AD09DF8405080
:1057B0009DF83C306D0145F0060545EAC305EDB2A4
:1057C00000E00225B8F1000F05D017B945F08005BB
:1057D00001E045F0C0050023A574E374251D0523F1
:1057E00023752046112351462A46FFF77AFF0346C8
:1057F000B9F1000F0BD049462A462046FFF771FF4A
:10580000119903462A462046FFF76BFF0346B8F17D
:10581000000F0CD0204641462A46FFF762FF0346A0
:105820002FB1204639462A46FFF75BFF0346053B6A
:1058300010212A469BB22046FFF71EFF02F042FBD2
:10584000C4F88800C4F88C00206803681B69984776
:1058500048B902F037FBD4F88C3041F28832C01AD4
:105860009042F1D910E020460DF10301FFF7C9FE87
:10587000042809D1E5793DB902F024FB0126C4F8DA
:105880008C0084F8905005E020680368DB6A984734
:1058900000E00026304605B0BDE8F08F904C0108CE
:1058A0001FB58DE80C009DF8183000220293079B6D
:1058B00003931346FFF73CFF05B05DF804FB2DE9A9
:1058C000F04704460E46924699469DF82080FFF721
:1058D0001EFF08B3251D314620462A460523FFF743
:1058E00000FF00218FB246184F45B6B201F1010109
:1058F00004D21AF8073026443371F3E7B8F1000FE9
:10590000A6F1050320462A4614BF312130219BB25F
:10591000BDE8F047FFF7B0BEBDE8F08773B50546B8
:10592000104614460E460EF0BBFF002203460092BE
:10593000284631462246FFF7C2FF02B070BD012A59
:105940002DE9F04104460F46154621D8FFF7DFFE4A
:10595000F0B1B4F8843001339BB203B90123A4F849
:105960008430B4F88430261D1A126272A37239464C
:10597000324620460723FFF7B4FE23181D71031F8C
:105980003246204682219BB2BDE8F041FFF774BE4B
:105990000020BDE8F0810022FFF7D1BF70B50446BA
:1059A0000D46FFF7B4FE50B12B126372A57220466C
:1059B000221D40210223BDE87040FFF75DBE70BD8F
:1059C0002DE9F04383B000AF0446FFF7A0FE0028A6
:1059D00000F0988002F076FAD4F88C300546C21AAE
:1059E00041F288339A4204D8D4F88820821A9A4225
:1059F00017D994F89030206823B10368DB6A984780
:105A000000207FE0C022227163710368211DDB68E2
:105A1000022298470123C4F88850C4F88C5084F8B7
:105A20009030206803681B699847002869D0204699
:105A3000F91DFFF7E6FD8046002862D02279C4F800
:105A40008C5002F0F002302A48D1D4F89430002B68
:105A500057D0FD796E4661194A798B7903EB0223A1
:105A60009BB203F10802D208A6EBC20085460022D1
:105A70001FFA82FE9E4507D201EB020E9EF807E058
:105A800000F802E00132F3E70022C2542279D4F890
:105A900094C012F0020F05F10302C5EB08081A4486
:105AA00014D02244517992F80490C3EB080201EB20
:105AB0000929691D194421441FFA89F90431053A5D
:105AC000E04720464946FFF769FF05E0A118A8F125
:105AD00003020431D21AE047B54612E0C02A0BD1C6
:105AE000D0232146237151F8040B0023637103680E
:105AF0000222DB68984704E0D02A04BF002384F820
:105B0000903001200C37BD46BDE8F08308B5034B4B
:105B100000221A705A705B68984708BDC80B0020B5
:105B2000B0B51C4C8CB000AF054604F1080107F17C
:105B3000200002F0F0FD294607F1100002F0C9FD37
:105B400007F1100107F1200002F014FE014638466B
:105B500002F0E1FD07F1100002F079FD07F12000ED
:105B600002F075FDBA68384602F1080323F0070316
:105B7000ADEB030D01320023694602F01AFE6946BF
:105B800004F11800FFF707FF384602F060FD3037D8
:105B9000BD46B0BDC80B002090B58DB002AF31231B
:105BA000214907F11800BB8002F0B5FD1F4907F13C
:105BB000180002F0ECFD014607F1080002F0ABFD11
:105BC00007F1180002F043FD3A6907F1080002F1FD
:105BD000080323F00703ADEB030D02AC21460132AD
:105BE000002302F0E6FD1248FFF791FDA0B90090F6
:105BF0000F483B1D019300F1A40122460123FFF74A
:105C00004FFE48B10B48FFF78BFF0B48FFF788FFAB
:105C100007480A49FFF7BFFE07F1080002F017FD29
:105C20002C37BD4690BD00BFD00B00203077010857
:105C3000E00B00204A770108527701085C770108E1
:105C4000F0B589B00446684616460F4601F07CFD63
:105C50001B4B04A81B491C6002F03BFD694604A8CD
:105C600002F088FD184902F092FD184C014604F13B
:105C70000805284602F040FD04A802F0E8FC28468A
:105C800004F1D5011E22002302F093FD0023684693
:105C900004F1BC01192202F08CFD4FF4FA610C4AA8
:105CA00004F1F800C4F8F4706660FFF73CFCC4F837
:105CB000F801FFF771FF684602F0C9FC09B0F0BDBA
:105CC000000000206677010800780108C80B00205A
:105CD000995B0008F0B51D4C8DB000AF06460D462F
:105CE00007F1200004F1080102F015FD314607F12B
:105CF000100002F0EEFC07F1100107F1200002F0A5
:105D000039FD0146384602F006FD07F1100002F0A9
:105D10009EFC07F1200002F09AFCBB68384603F1B4
:105D2000080222F00702ADEB020D69465A1C00235F
:105D300002F03FFD69462A4604F11800FFF7EEFD28
:105D4000384602F084FC3437BD46F0BDC80B002055
:105D5000B0B58CB000AF05460C4607F120001849DD
:105D600002F0B7FC294607F1100002F0B2FC07F17F
:105D7000100107F1200002F0FDFC0146384602F058
:105D8000CAFC07F1100002F062FC07F1200002F0EB
:105D90005EFCBA68384602F1080323F00703ADEB56
:105DA000030D01320023694602F003FD68462146D7
:105DB000FFF790FF384602F04AFC3037BD46B0BDD1
:105DC0006B77010810B5174C04F11800FFF7F8FDC8
:105DD00004F1F800FFF7C2FB04F11800FFF797FC8D
:105DE000D4F8F83170B1092B03DC2344002283F886
:105DF000C02194F8FC311BB90B480C49FFF7A8FFF0
:105E000001230CE0092B03DC2344012283F8C02189
:105E100094F8FC3113B1034B5B689847002384F876
:105E2000FC3110BDC80B0020E6770108737701082C
:105E3000F8B506460C46104624491546FFF71CFBEC
:105E4000234907463046FFF717FB10B12148224986
:105E500022E030462149FFF70FFB18B1BDE8F840BA
:105E6000FFF754BE20461E49FFF706FB18B11D4B35
:105E700083F8FD71F8BD20461B49FFF7FDFA20B1FC
:105E80001A4B1B481968FFF763FF20461949FFF7B3
:105E9000F3FA28B118480D49BDE8F840FFF758BF9C
:105EA00020461649FFF7E8FA78B128461449FFF76B
:105EB000E3FA50B107481349FFF74AFF094B0122A3
:105EC0005A701A70D3F8F4309847F8BD7777010804
:105ED0007C770108E6770108737701089477010859
:105EE000AF770108C80B0020BB7701080000002035
:105EF000C3770108CC770108D4770108DE77010861
:105F0000F6770108F9770108F8B50F4B00AF93F861
:105F1000FD3106460D46A3B10EF0C2FC0B3020F059
:105F200007006C46ADEB000D684608490EF05AFCC0
:105F3000684631460EF0B6FB68462946FFF7CAFEB2
:105F4000A546BD46F8BD00BFC80B0020FD7701087F
:105F5000074B1B7853B13C2804D03E2806D1054896
:105F6000054901E003480549FFF7B4BE704700BF8B
:105F7000C80B002006780108117801081478010880
:105F8000F8B50446383015460E461F46FFF77CFA32
:105F90004FF4AF736560636300251E23E362B0B204
:105FA00029462660A760E56025616561A561E56118
:105FB000A56201F0DDFDA088294601F0D9FD208908
:105FC000294601F0D5FD2046F8BD10B50021044654
:105FD000008801F0C3FEA088002101F0BFFE2089E7
:105FE0000021BDE8104001F0B9BE00228261FFF738
:105FF000ECBF836970B5012B044681621CD1026934
:10600000642392FBF3F201FB02F6426992FBF3F286
:1060100001FB02F5C268008892FBF3F35943C9B251
:1060200001F09CFEA088F1B201F098FE2089E9B24F
:10603000BDE8704001F092BE70BD816AFFF7D9BF24
:1060400010B504463830FFF789FAA369012B06D151
:10605000E36923B92046BDE81040FFF7EEBF10BD4D
:106060008269012A06D1816A0129D4BFC16A491017
:10607000FFF7BFBF7047000038B504460D466162A8
:1060800008462649FFF7BAF818B9FF23E3602361F1
:10609000636128462249FFF7B1F818B9FF23E3608E
:1060A0002061606128461F49FFF7A8F818B9FF234F
:1060B000E0602361606128461B49FFF79FF818B92B
:1060C000FF23E0602061636128461849FFF796F8D6
:1060D00018B9FF23E0602361636128461449FFF784
:1060E0008DF818B9FF23E3602061636128461149E8
:1060F000FFF784F818B9FF23E36023616061284645
:106100000D49FFF77BF820B9FF23E360A523236146
:1061100060612046BDE83840FFF78FBF3278010844
:10612000387801083C78010842780108477801086E
:106130004C780108547801085B780108014802494D
:10614000FFF79ABFC80D00203C78010801480249BA
:10615000FFF792BFC80D002038780108174B13B520
:106160001B78044643B3164B16495A7A00238DF820
:1061700000208DF801308DF802308DF804208DF864
:106180000530114A8DF80630836901A8012B08BF3C
:1061900011460EF027FB0A226946A06A02F04BFA6C
:1061A0000A4801A9FFF796FD09486946FFF792FDE5
:1061B0000848616AFFF78EFD02B010BDC80B0020D1
:1061C000904C010862780108737A0108667801082A
:1061D000777801088C780108114B13B51B780446B9
:1061E000E3B1104A0023527A69468DF80420006812
:1061F0000A22ADF800308DF805308DF8063002F037
:106200001AFA01A90A22606802F015FA06486946DE
:10621000FFF760FD054801A9FFF75CFD02B010BD66
:10622000C80B0020904C01089D780108B178010846
:10623000F8B58EB204460D4630461146174601F0B9
:1062400097FC4FF4FA620023022FE2604FF0010244
:106250000CBF627263723046636025602374A37260
:106260000CBF23722272617A01F0FCFC2046F8BD5B
:1062700010B5044601F026FE6061208801F034FD6F
:10628000A27A6060237C4AB9B3B9217A884213D1DB
:106290000123A37201F016FEA0611AE063B9217A0E
:1062A000884209D1A369E2681A446369934210D90C
:1062B00001232374482010BD617A884209D10AB9AC
:1062C0002D2002E0002BFBD150200023A372237469
:1062D00010BD2D2010BD2DE9F04115461FFA81F8A3
:1062E00004460E464046AFB2022101F041FC38465A
:1062F000022101F03DFC4046012101F0B3FC38468B
:10630000012101F0AFFC0123E36023616361A3611C
:1063100000236660A560E36123626362A362204696
:10632000BDE8F081002310B504460370808801F0B9
:10633000DBFCE060208901F0D7FCE3686269206142
:10634000934202D1A26990423CD0012B6361A061CB
:1063500006D1012801D1002309E048B9032306E052
:1063600033B9012801D1E06102E008B90223E361F9
:10637000E369226A23629A1A82EAE271A1EBE2716E
:10638000022962620DD0012A01D0D01C02D1A26A7A
:10639000013205E0511C01D0032A02D1A26A013A60
:1063A000A2627BB9A26A002A04DDA36201232370E2
:1063B0003E2010BD04D001222270A3623C2010BDFB
:1063C0002370A3622D2010BD10B50C4C052001F0E8
:1063D0007BFD0021A08801F045FC052001F074FD43
:1063E000A088012101F03EFC054BD3F838233F2A59
:1063F000DCBF0132C3F8382310BD00BF000000200D
:10640000C80B002010B50C4C052001F05DFD0021EB
:10641000208901F027FC052001F056FD208901218B
:1064200001F020FC054BD3F83823002AC4BF02F149
:10643000FF32C3F8382310BD00000020C80B002035
:1064400010B56524FFF7DEFF0A2001F03DFD013C99
:10645000F8D1024BC3F8384310BD00BFC80B002071
:1064600038B5094B0546D3F83843A04205DD013461
:10647000FFF7AAFFAC42FAD138BDAC4203D0FFF718
:10648000C1FF013CF9E738BDC80B002007B5094B37
:10649000094A93F83C13094B01A800290CBF114687
:1064A00019460EF09FF9064801A9FFF713FC03B047
:1064B0005DF804FBC80B002062780108737A0108BC
:1064C000C678010807B5074B01A9D3F838030A229B
:1064D00002F0B1F8044801A9FFF7FCFB03B05DF836
:1064E00004FB00BFC80B0020D97801080A4A08B590
:1064F000127B62B13C2804D03E280CD1FFF764FF28
:1065000001E0FFF77FFFBDE80840FFF7DBBFBDE814
:106510000840FFF71DBD08BD0000002008B5FFF7CB
:10652000B5FFBDE80840FFF7CDBF000070B50B4ECA
:106530000B4C01252946308AC4F8185201F092FB11
:106540007069FFF78DFF84F83C53FFF7E7FF04F510
:106550000070BDE87040FFF701BE00BF00000020E2
:10656000C80B002038B50C4D05F500742046FFF728
:106570003CFD0020FFF774FF084B0021188A01F052
:1065800071FB002385F83C33FFF7C8FF2046BDE8C8
:106590003840FFF7E3BD00BFC80B0020000000201B
:1065A000034B93F83C330BB1FFF7DCBFFFF7BEBFE3
:1065B000C80B002007B5FFF7B1FF0C4B0C4A197B45
:1065C0000C4B684600290CBF114619460EF00AF91B
:1065D00069460948FFF77EFB0848FFF7BFFD0848FA
:1065E000FFF7FAFD03B05DF804FB00BF00000020D8
:1065F000ED78010877770108F3780108C80D0020CD
:10660000080F0020F7B5314C002104F55D75304EC0
:106610000B4600910A46284601F0CEFE32462D492F
:10662000284604F55F750DF009F9284602F024FAB2
:106630003246294928460DF001F904F1080704F112
:10664000F800FEF721FF3846244902F042F83246AE
:10665000384623490DF0F2F8A561224B224DC4F8CB
:10666000AC3005F11803C4F8B43005F1240140F250
:106670005B73A4F8B83004F500700EC9FFF780FC16
:106680002A6B696BD4F89435C4F84813C4F84C23CA
:10669000A96BEA6B04F5B360C4F85033FFF71BFE37
:1066A000296C04F2C4500222FFF7C2FD696C04F5A4
:1066B000BC600222FFF7BCFDA96C04F2FC50022270
:1066C00003B0BDE8F040FFF7B3BD00BFC80B00202A
:1066D000501300203954000845540008DB7C0108A1
:1066E0004F860008696C00080000002070B510217A
:1066F000064620220F4801F071FD0E4801F042FCD1
:106700001F28FADD0A24102C0A4808BF002401F0D3
:1067100041FC06EB44050002A881064801F03AFC62
:10672000AB89092C43EA0000A88101D00134EAE7D3
:1067300070BD00BF581E002070B5102106460C48E1
:1067400001F060FD002433191D8A0948290A01F06F
:1067500067FC02340648E9B201F062FC0C2CF2D16D
:10676000034801F0B7FDD0F1010038BF002070BD33
:10677000581E002070B50A2671430446A1F508553D
:10678000FFF7B4FF638A2E3D23F4FF7395FBF6F504
:1067900023F001031D436FEA45456FEA55456582C5
:1067A0002046FFF7C9FF2046FFF7A0FF238C5A04BD
:1067B000F9D52046FFF79AFF638A2046C3F30E03FC
:1067C0006382FFF7B9FF2046FFF790FF238C5B043D
:1067D000F9D470BD42688A4203D041600830FFF7A7
:1067E000C9BF70471A4840F28F31D0F818368B4233
:1067F0001FD0B3F5647F0ADA40F26F32934213D0B0
:1068000040F27D3293421ED100F550701EE040F2FE
:10681000A932934212D040F2CB32934213D100F509
:10682000507040F2F53111E000F5507040F27D31CA
:106830000CE000F5507040F2A93107E000F550700F
:1068400040F2CB3102E0034840F26F31FFF7C2BFA4
:10685000C80B0020080F0020254B70B51B7804469C
:106860000D46244E5BB3F36C99420AD1482804D0FC
:10687000502806D12048214901E01F482049FFF750
:1068800029FA336D9D420AD1482C04D0502C06D1F0
:106890001C481A4901E01B481949FFF71BFA736DA0
:1068A0009D4223D1482C04D0502C1FD116481349A7
:1068B00001E015481249BDE87040FFF70BBAF36CD0
:1068C000994203D1502801D1FFF76AFE336D9D42F2
:1068D00003D1502C01D1FFF75FF9736D9D4205D1B3
:1068E000502C03D1BDE87040FFF77CBF70BD00BFE6
:1068F000C80B0020000000200D790108277801084E
:106900002D7801081F7901083179010838B5134C39
:10691000134DFFF757FA04F50070FFF791FB04F5EC
:10692000B360FFF7FFFCA96DFFF7E0FD04F2C45070
:10693000FFF79EFC296DFFF78FFF04F5BC60FFF7A2
:1069400097FCE96CFFF788FF04F2FC50FFF790FC1E
:10695000696DBDE83840FFF77FBF00BFC80B00205E
:106960000000002038B50C460546FFF7BFFE002C9E
:1069700003DB0F2CA8BF0F2400E00024EB8A28467D
:1069800023F00F031C43EC82BDE83840FFF7D4BE70
:1069900002688A4203D040F8081BFFF7E3BF704744
:1069A0002DE9F341044618461D4690460CF054FF6D
:1069B0008B4906462846FEF75FFD01A90A220746D5
:1069C000404601F038FE874801A9FFF79DFA2046AE
:1069D0008549FEF751FD10B1844BDE65FDE0204690
:1069E0008349FEF749FD10B1804B1F73F5E0204647
:1069F0008049FEF741FD18B17F4BC3F82C62ECE0F3
:106A000020467E49FEF738FD10B1FFF7D3FDE4E0E4
:106A100020467B49FEF730FD10B1FFF77FFDDCE03B
:106A200020467849FEF728FD10B1FFF74BFDD4E072
:106A300020467549FEF720FD18B17448FFF78EFB1C
:106A4000CBE020467249FEF717FD18B17148FFF7F9
:106A5000C3FBC2E020467049FEF70EFD78B1284620
:106A60006E49FEF709FD002800F0A480624B93F800
:106A70003C33002B40F09E80FFF758FDADE02046F0
:106A80006749FEF7F9FC002832D028466549FEF731
:106A9000F3FC10B1FFF798FC9FE028466249FEF72F
:106AA000EBFC10B1FFF7AEFC97E028465F49FEF71C
:106AB000E3FC10B1FFF7C4FC8FE028465C49FEF709
:106AC000DBFC10B1494B186E06E028465949FEF729
:106AD000D3FC20B1454B586EFFF7C2FC7DE0284641
:106AE0005549FEF7C9FC002877D0404B986EF3E774
:106AF00020465249FEF7C0FC08B13046ECE720467C
:106B00004F49FEF7B9FC20B142483146FFF740FF3C
:106B100063E020464B49FEF7AFFCA8B128464A493E
:106B2000FEF7AAFC10B1FFF75DFE56E02846474984
:106B3000FEF7A2FC18B12D4B3648D96D01E035485F
:106B40003146FFF747FE48E020464149FEF794FCF6
:106B500098B128463149FEF78FFC20B1264B01221F
:106B6000C3F8182239E028463A49FEF785FC002888
:106B700033D02648FFF739FA2FE020463649FEF792
:106B80007BFC18B12148FFF76BFA26E02046334919
:106B9000FEF772FC20B11D482946FFF76DFA1CE094
:106BA00020462F49FEF768FCB8B118483146FFF778
:106BB00020FA12E028462749FEF75EFC30B10E4B62
:106BC00093F83C3313B1FFF7CDFC06E02846254986
:106BD000FEF752FC08B1FFF7E3FC02B0BDE8F0811C
:106BE00077770108447901085079010800000020F6
:106BF0006C79010886790108C80B00209E7901088C
:106C0000B1790108C4790108D7790108C80D0020BD
:106C1000EA790108080F0020FF790108737A01085A
:106C2000137A01081178010814780108297A0108FB
:106C3000577801082F7A0108337A0108387A010859
:106C40004B7A0108607A0108767A01087B7A01089C
:106C5000817A010862780108937A0108A37A010811
:106C6000B57A0108CB7A01082DE9F04F89B000AF61
:106C700080468A46C7F80CD01546002A00F0878067
:106C8000D31D23F00703ADEB030D0DF009FE073014
:106C900020F007006E46ADEB000D40460DF000FE03
:106CA0000730E94620F00700ADEB000D41464846AD
:106CB0000DF098FD514607F1100001F00AFD6A1C25
:106CC00007F110003146002301F073FD40462F21EB
:106CD0000DF00EFD6C4683460025BBF1000F0CD075
:106CE0000BF101002F210DF003FD83461DB9204655
:106CF00059460DF077FD0135EFE720460DF0D0FD48
:106D0000611C024620460DF0B5F9AA000A3222F0B5
:106D100007026B1EADEB020DBB60EA46EDB91E48E3
:106D20004946FFF7F1F81D482146FFF7EDF81C48EA
:106D30003146FFF7E9F8334620465146BA68FFF777
:106D40002FFE484621463246FFF772F807F1100041
:106D500001F07DFCFB689D4619E0404611490DF0AD
:106D600073FE58460F490DF06FFEE8460123AB4213
:106D7000D5DA0C4900207B600DF066FE014648F82C
:106D8000040F0948FFF7C0F87B680133EFE72437A9
:106D9000BD46BDE8F08F00BFD27A0108E57A010850
:106DA000F97A01089C4C01080A7B010810B5002102
:106DB0000446008800F0DCFEA088002100F0D8FE28
:106DC000A088002100F04EFF2088002100F04AFF3B
:106DD000012001F079F80121208800F043FF012013
:106DE00001F072F8134801F041F92046FFF77EFCEC
:106DF0004FF4014363832046FFF79EFC4FF4FA7083
:106E000001F062F82046FFF771FC44F2010323828F
:106E1000A38A204643F4C053A382E38A23F00F03DE
:106E200043F01103E382FFF787FCBDE810406E20BA
:106E300001F04AB8581E002070B52C4C2C484FF475
:106E4000165102F061F82B4A04F16C002A49FEF752
:106E5000F7FEB4F87400002100F08AFEA08800213B
:106E600000F086FE2089002100F082FE208A0021A9
:106E700000F07EFEA08E002100F07AFEA0880021A6
:106E800000F0F0FE1D4D2089002100F0EBFEB4F86B
:106E90007400012100F0E6FE05F5507605F552700C
:106EA000FFF784FF3046A16FFFF772FDE16D3046BA
:106EB000FFF790FC4FF4FA7001F006F8A08801216A
:106EC00000F0D0FE2089012100F0CCFEE36F05F533
:106ED0000075EB62D4F880102846FFF78AF8284640
:106EE0000749BDE87040FFF7C7B800BF00000020A9
:106EF000282000204D6100083D610008C80B0020DB
:106F000038780108013101EB420291420BD0030FA6
:106F1000092B94BF3033373301F8013C00230001C3
:106F200001F8023BF1E770471F4B10B51A88032A9E
:106F300004D804200146188006F0EEFB4FF00060F4
:106F40004FF4A04106F0DEFB0124184B18482146FF
:106F50001C7006F0EDFD05F095FC05F06BF921467F
:106F6000402006F0AFFF6FF07F4005F0E5FAE72024
:106F700005F05EFB0F4B1C7005F0A6F97D2006F0B6
:106F8000D1FF18B10C4B1C7006F0E0FF40F6B83092
:106F900005F003FA05F04CFF06F0BCF9074A01239F
:106FA0001370074A137010BD20210020002100201B
:106FB0000004300054200020C42A0020C4200020F7
:106FC0008020002038B52F4C2388042B04D80521BD
:106FD0000420218006F0A0FB2B4D2B7813B12B4809
:106FE00002F078F92B7853B12388052B05D8254B6F
:106FF00006210420198006F08FFB02F0FFF92B78A0
:1070000063B1234B1B784BB9224B1B7833B1224B16
:107010001B781BB9214B1B78002BE3D0204B1B782E
:10702000002BDFD11F4B1B78002BDBD11B4B1B78B8
:10703000012B0FD01C4B6BB12388062B05D8114BAD
:1070400007210420198006F067FBFFF7F5FE134BBC
:1070500001221A70154B002BC4D02388072B05D8AA
:10706000084B08210420198006F056FBFFF74EFC60
:107070002388082BB6D8034B09210420198006F079
:107080004BFBAFE720210020C420002079780008C6
:10709000792000208020002052200020E8110020CC
:1070A00053200020C42A0020396E00080D69000812
:1070B000F8B5524B1A6812B11A68013A1A60504B6F
:1070C000504D1B783BB1504B1B78002B28D04F4BB9
:1070D000002B47D124E04E4C2368264613B1236889
:1070E000013B0FE04B4B1B78D3B94B4B1B78BBB923
:1070F0004A4B1B78A3B94A4F3B782BB1E72005F0E8
:107100000BFB142323600BE02B78002B2DD1E72001
:1071100005F0BCFA434B1B78002B34D0322333608C
:107120002B7833B1404C23781BB92EE05A680132DA
:107130005A603E4B1A68B2F57A7F0FD300221A606C
:1071400006F01EFE3A4B4FF6FF711A888A4254D061
:1071500019800420BDE8F84006F0DEBA1A68013252
:107160001A60F8BD00F0D0FBDAE7324B1B78002B39
:10717000CDD04FF6FF7005F0DFF9E72005F058FAA3
:1071800001233B70CCE76423C9E7234B1B788BB109
:10719000294B47F22F5259689142C7D9BFF34F8FFD
:1071A000264A274BD16801F4E0610B43D360BFF35B
:1071B0004F8FFEE7174D2B7803F0FF0633B93046AB
:1071C00005F0B2FB40F6B73398420DD8002005F029
:1071D000ABFB41F657339842ABD9002005F0ACFB2E
:1071E000184B01221A70A4E7304605F0A5FB23785E
:1071F000002B9ED101232B709BE7F8BDCC2A0020E9
:10720000E0200020C4200020841500200979000817
:10721000C82A00206920002053200020552000208B
:10722000542000205120002079200020D02A002066
:107230002021002052200020E811002000ED00E075
:107240000400FA056720002008B5094B186005F016
:1072500095FD002005F0DEFD064805F00FF805F06D
:10726000A5FD05F0C3FDBDE8084007F057BD00BF10
:107270006C020020A0860100074B1B68052B08D17B
:10728000064B1A7A012A04D1987A1B7BC01AC0B225
:1072900070470020704700BF24210020E811002023
:1072A0000D4B10B51B68052B13D10C4C237A012B09
:1072B0000FD16289A389D31A012B04D100230320A3
:1072C000237207F082FEA3895A1CA2811C44A07B72
:1072D00010BD4FF0FF3010BD24210020E811002028
:1072E00008B50C4B1B68052B12D10B4B1A6D991866
:1072F0000132B2F5807F08BF002281F854001A6580
:1073000005F00AFC20B16420BDE8084004F0B6BFD7
:1073100008BD00BF24210020E8110020F8B5234B50
:1073200093F85421012A3FD0D3F85821196DB2F5B2
:10733000807F04BF0022C3F85821D3F858411B4A6C
:107340008C4203D1002382F85431F8BD8CBFC4F5C0
:107350008071C4EB0101C2F85C11D3F85C61134D7C
:10736000402EA2B207D94034403EC5F85841C5F876
:107370005C61402706E034440021B7B2C5F85841AB
:10738000C5F85C110A4801241044C0213A4683F82C
:10739000544107F095FD2046394607F099FE2046F6
:1073A000BDE8F84007F0FEBDF8BD00BFE8110020C1
:1073B0003C120020094B10B593E8140008331B68F9
:1073C000D0180AD006490822FFF79CFD204605493F
:1073D0000422BDE81040FFF795BD10BDE8F7FF1F80
:1073E0001B0200202B02002013B5084C0021009145
:1073F0000A460B46204600F0DFFF0549054A2046B5
:1074000002B0BDE810400CF019BA00BF48130020CC
:10741000395400085013002038B504460D46AC42DC
:1074200003D254F8043B9847F9E738BD08B507483C
:107430000749FFF7F1FF07480749FFF7EDFFBDE8F0
:10744000084006480649FFF7E7BF00BFA47E0108D1
:10745000A47E0108A47E0108F87E0108F87E0108D8
:10746000F87E01080CF02EBB08B5072006F076F870
:10747000FEE70000074A08B5136818441060064A82
:10748000904204D9082006F069F80CF0DDF918469E
:1074900008BD00BFA0000020004800204FF0FF30D2
:1074A00070470120704708B50C2006F057F8FEE73A
:1074B000014B1868704700BF54130020064B02466A
:1074C000582000FB013101F1080303CB106051602B
:1074D00018689060704700BF54130020014BD3F828
:1074E0006401704754130020064B0246142000FB31
:1074F000013101F5B67303CB1060516018689060DC
:10750000704700BF5413002038B50546064C28B11B
:1075100005F0B4F8012384F8303238BD05F05CF88A
:1075200084F8305238BD00BF541300200E4B2DE9B3
:10753000F041D3F8647180460024BC4211DA14256E
:107540006543094E414606F5B67028440C220DF0FD
:10755000D7F920B93544D5F86801BDE8F081013488
:10756000EBE70020BDE8F08154130020044B01221A
:107570001A70044B00224FF4C0201A6005F0BEBC04
:1075800053200020EC110020034A00231370034A0B
:10759000136005F017BD00BF53200020EC11002040
:1075A000024B00221A6005F0CFBC00BFEC11002096
:1075B0002DE9F04788B0804668460D4601F089F80D
:1075C0001E4B0024D3F800A054452DDA55B358269D
:1075D00066431A4F414607F1080030440C2207F178
:1075E00004090DF08DF9E8B928460DF059F906F1B6
:1075F0001003402834BF02464022294609EB03000D
:10760000FDF786FD3E44012386F85830694604A8FC
:10761000746801F080F804A8A047044604A801F0AB
:1076200016F803E00134CFE74FF0FF34684601F06D
:107630000EF8204608B0BDE8F08700BF54130020C4
:1076400010B5064C206803F00BF92368013303D012
:10765000431E5842584110BD012010BDA400002017
:1076600070B50B4B05461B780C4673B9094B1B785C
:107670005BB9FFF7E5FF034638B9074A29461068AA
:107680002246BDE8704004F0A5B84FF0FF3070BD51
:107690007820002079200020A40000202DE9F0416E
:1076A000264B86B01B7880460F46002B41D1244BD9
:1076B0001B78002B3DD1FFF7C3FF0446002838D1CB
:1076C000204D8DF80C008DF80D008DF80E008DF812
:1076D0000F00286806AA460902EB8606012100F081
:1076E0001F02914056F80C2C01300A4346F80C2C2E
:1076F00041F28832059204AA009203A92246234649
:10770000049403F049FF002815DD2B6806AA5909E7
:1077100002EB810151F80C5C03F01F02154115F0DA
:10772000010008D0184641463A46234603F0D4FFEC
:1077300001E04FF0FF3006B0BDE8F0817820002076
:1077400079200020A4000020F0B5144985B0064639
:1077500000F0BFFF124B01AC93E8070084E807007C
:107760000025675D30463B0903F13001392984BFAC
:1077700003F15701C9B207F00F0700F0EEFF07F160
:107780003001392984BF5737F9B23046013500F04E
:10779000E4FF0C2DE5D1304605B0F0BDDB7C0108DF
:1077A000E8F7FF1F30B51E48ADF5797D07F0FBFC0B
:1077B000002832D11B4B15A804931B4B5FAD0593DA
:1077C0001A4B039006931A4B0CAC0793194B029576
:1077D0000893194B0993194B0A93194B0B93194BA7
:1077E0000C93194B0D93194B0E93194B0F93194B87
:1077F0001093194B1193194B1293194B1393194B67
:10780000149305F025FC284605F028FC0094044854
:10781000154902AA04AB07F0CDFC0DF5797D30BD0A
:1078200088150020617600089D7600086D750008B7
:10783000897500088DD00008A17500080975000839
:10784000C57E0008B1740008BD740008B175000859
:10785000DD740008E9740008157B00082D75000828
:1078600069D000087DD00008E8F7FF1F014808F044
:10787000D2BA00BF8815002030B502208DB0014675
:10788000112203F0CFFD051E28DB07A8144907F0DD
:10789000B4FD0223ADF80C3016238DF80E303323DF
:1078A0008DF80F30E0238DF8103000238DF8113063
:1078B00001238DF81230BB238DF81330032403AB62
:1078C000009310230193284607A91322002303F0F5
:1078D0008BFF013CF3D1284603F0D2FD0DB030BD43
:1078E000E8F7FF1F10B5074CFFF75CFF204607F0D5
:1078F0005DFC204607F0D1FF0446FFF7BDFF2046A0
:1079000010BD00BF8815002038B5114CD4F8445A7A
:107910002DB1D4F8443A013BC4F8443A38BDD4F808
:10792000483A0C4A52F8230004F02EFEE72004F0F7
:107930007FFE6423084AC4F8443AD4F8483A5268AF
:1079400001339342C4F8483AA8BFC4F8485A38BD36
:1079500054130020A04C0108A40000207FB5022091
:107960000121062203F05EFD041E24DB0223ADF894
:10797000003000238DF8023035238DF803304FF4AA
:10798000FA5008238DF804308DF805308DF8063054
:107990008DF8073001F096FC694610220546204616
:1079A00003F0CCFD0646284601F08CFC204603F08F
:1079B00067FD304601E04FF0FF3004B070BD0000BD
:1079C00010B5064C2068002805DB03F059FD4FF088
:1079D000FF33236010BD002010BD00BFA4000020B5
:1079E000F0B5A7B0FFF7ECFF02200121062203F05B
:1079F00019FD324F0028386050DB314D0223A5F8C5
:107A00004C3A162385F84E3A05A8332385F84F3AA9
:107A100005F0EAFA002300939DF814303BB1012BE6
:107A200017D0284B01AC03F1100E224602E0069B52
:107A3000009313E018685968264603C60833734557
:107A40003446F7D10FCA06AC07C424F8023B1B0C1E
:107A500023700A24009B0BB9013C22D1009B0BB977
:107A6000194B0093009B4FF4FA501A0E85F8502AD8
:107A70001A0C85F8512A1A0A85F8533A85F8522AC1
:107A800001F020FC114904461022386803F056FD2D
:107A90000546204601F016FC28460CE04FF0FF306A
:107AA00009E006A87E210CF0B7FF6A4681B206A85D
:107AB00003F00CFDCEE727B0F0BD00BFA40000200E
:107AC000541300201D7B010804E5D036A01D0020C2
:107AD0000F4B2DE9F041D3F8647180460024BC427D
:107AE00011DA142565430A4E414606F5B67028445E
:107AF0000C220CF005FF20B9354495F87801BDE85B
:107B0000F0810134EBE74FF0FF30BDE8F08100BFBA
:107B10005413002008B5FFF7DBFF0138082803D80D
:107B2000024B1844007F08BD022008BDA04C01088C
:107B300003F004BD37B50B4C002104F65C250B4661
:107B400000910A46284600F037FC28460649074AB5
:107B50000BF074FE04F50D7003B0BDE8304007F083
:107B60000DBB00BF541300203954000850130020EF
:107B700014282DE9F34104460E4669D8FF2967D041
:107B800000F0ECFC20B1A4F10D039BB2022B5FD9F5
:107B900000F0A6FB08B1012C5AD901F04DF920B133
:107BA000A4F112039BB2012B52D92B4D24012B19A6
:107BB0002F59B3F80480294B9F4201D1042003E0E0
:107BC000274B9F4203D10820012106F087F9ADF829
:107BD0000480062E38D8DFE806F0040D13191F289C
:107BE000310010238DF8073003238DF806302C4424
:107BF000002328E004238DF807302C44012322E0E1
:107C000048238DF807302C4402231CE028238DF8EC
:107C100007302C44032316E018238DF80730032384
:107C20008DF806302C4404230DE01C238DF807301A
:107C300003238DF806302C44052304E000238DF83F
:107C400007302C440623A373384601A905F018FF1A
:107C500002B0BDE8F08100BFAC0000200008014088
:107C6000000C01401428F8B505460F4638D81D4EC3
:107C7000040133199B7B5A1ED2B2022A30D9062B3B
:107C80002ED0FF2B2CD000F069FC28B1A5F10D03FC
:107C90009BB2022B00D8F8BD00F022FB10B1012DE1
:107CA00000D8F8BD01F0C8F828B1A5F112039BB2C5
:107CB000012B00D8F8BD33199B7B042B03D1284638
:107CC0000021FFF755FF012F04D132193359928853
:107CD0001A61F8BD27B93219335992885A61F8BD33
:107CE000F8BD00BFAC000020142870B5044602D9CE
:107CF0004FF0FF3070BD184E050173199B7B013B9F
:107D0000DBB2FD2BF4D800F029FC20B1A4F10D0367
:107D10009BB2022BECD900F0E3FA08B1012CE7D9B1
:107D200001F08AF820B1A4F112039BB2012BDFD934
:107D300073199B7B062B09D1074B93F850114B1EEF
:107D4000DBB2FD2BD4D82046FFF712FF7319705910
:107D5000998805F0E3FE70BDAC0000202DE9F043EA
:107D6000142889B00446884600F29E80504F0601D0
:107D7000BB199B68002B00F0978000F0EFFB28B147
:107D8000A4F10D039BB2022B40F28E8000F0A8FA02
:107D900010B1012C40F2888001F04EF820B1A4F11E
:107DA00012039BB2012B7FD9BD19AB7B13F0FB0FE4
:107DB0007AD1404B01201A683F4B0146B2FBF3F9E0
:107DC0004BF6803303FB08F8FF2398FBF3F806F02B
:107DD00085F820460421FFF7CBFEAB6809F1FF3997
:107DE000B3F1804F1FFA89F91FFA88F802D10120F8
:107DF000014609E0314A934208BF022003D0304ACD
:107E0000934203D10420012106F074F8BC19002527
:107E10004BF67F33A06801A9ADF80830ADF80A50E1
:107E2000ADF80650ADF8049006F05CF96023ADF8AB
:107E30001850A589ADF810300123ADF81230ADF817
:107E4000168045B9A06804A906F096F9A068082133
:107E500006F0D2FA1FE0042D08D1A06804A906F0AC
:107E6000CFF9A068082106F0CFFA14E0082D08D158
:107E7000A06804A906F008FAA068294606F0CEFA20
:107E800009E00C2D07D1A06804A906F03FFAA0680C
:107E9000082106F0CBFA3E44B068012106F0A0FAB2
:107EA000B068012106F079FA09B0BDE8F08300BF9F
:107EB000AC0000205C03002000366E01000400408E
:107EC0000008004005F01CB930B54FF47A7385B056
:107ED0001C4C0093236805460344236005F010F909
:107EE000019005F04DFF05F00BF90290029A019BFD
:107EF000D31A0393039B002B03DA019B029A1344CA
:107F00000393039BAB421AD20F4B1B78002BE8D094
:107F10000E4B1B78002BE4D1039A009B9A4203D2AC
:107F20002368B3F57A7FDCD3039B03F57A73009360
:107F300001F064FA064B1B78002BF9D1D1E705B0AC
:107F400030BD00BF74200020C42000207920002014
:107F50005320002013B5084C002100910A460B461F
:107F6000204600F029FA0549054A204602B0BDE83E
:107F700010400BF063BC00BFE41D00203954000822
:107F800050130020024B18785B78C01A704700BF6E
:107F9000EC1D0020064B5A781978914204D99918A3
:107FA000013288785A7070474FF0FF30704700BF39
:107FB000EC1D0020054B5A781978914202D91344E0
:107FC000987870474FF0FF30704700BFEC1D0020DD
:107FD00070470000014B0360704700BF104D01085F
:107FE00010B5034B04460360FFF73CFA204610BD72
:107FF000104D0108F8B5094B054693F82230164696
:1080000053B10C468F18BC4206D02B6828469B689B
:1080100014F8011B9847F6E73046F8BDEC1D002028
:1080200010B50C4B012293F822408CB193F82340F9
:108030001F2C02D94260002010BD93F824001C18A8
:1080400084F82510411CC9B283F8241083F823104A
:10805000104610BDEC1D0020002242604FF47A72E1
:108060008260014A02607047D04C010838B51C4C50
:1080700000254FF4001001216570257084F824500C
:1080800084F8235005F036FF01200521FFF770FD2D
:1080900028460521FFF76CFD124805F08FFD4BF6D1
:1080A000FF73A4F84E3094F85830A4F84C500BB934
:1080B000A4F850304FF48063A4F852304FF480435A
:1080C000A4F85430084B07480849A36405F090FD14
:1080D0000448012105F0FAFD012384F8593038BD28
:1080E000EC1D002000540040A0860100341E00203A
:1080F0002DE9F84333480C46012190461F4605F010
:10810000F1FDFFF7DFFE05462E482F4905F01AFE68
:1081100028B9FFF7D7FE401B0A28F5D927E02146EA
:108120002848012205F007FEFFF7CCFE044625484B
:10813000264905F007FE28B9FFF7C4FE001B0A28F0
:10814000F5D914E0FFF7BEFEB8F1200F28BF4FF0BD
:10815000200806460024E5B2C5EB080313F0FF092A
:1081600008D0FFF7AFFE801B09280ED902E00020DF
:10817000BDE8F8831348012105F0CCFD144B002223
:108180005A701D702846BDE8F883B9F1010F09D176
:10819000012F07D10B48002105F0BCFD09483946E5
:1081A00005F0ACFD07480B4905F0CCFD0028D8D000
:1081B000044805F0BDFD084B1855FFF783FE013458
:1081C0000646C8E700540040010003000200030017
:1081D000EC1D002040000300EE1D0020C9B2D2B209
:1081E0000123FFF785BF0000054B012283F8222001
:1081F000002283F85A1083F8242083F82320704744
:10820000EC1D0020C9B2FFF7EFBF00002DE9F041DF
:108210002A480E46012105F065FDFFF753FE04468E
:108220002648274905F08EFD38B9FFF74BFE001BA5
:108230000A28F5D90420BDE8F081224C1F4894F8A3
:108240005A10002205F077FDFFF73CFE05461B485B
:108250001D4905F077FD28B9FFF734FE401B0A28B9
:10826000F5D9E7E794F823700025EBB29F4215D0CB
:10827000164B1248595D05F059FDFFF723FE804665
:108280000E48134905F05EFD30B9FFF71BFEC8EB41
:1082900000000A28F4D9CDE70135E6E7012E03D125
:1082A0000648314605F02AFD002084F8240084F8B1
:1082B000230084F82200BDE8F08100BF0054004094
:1082C00001000300EC1D002082000700111E0020A9
:1082D000840007000121FFF799BF70477047000035
:1082E000014B93F859007047EC1D002073B50E4CFC
:1082F000002104F164050D4E0B4600910A46284604
:1083000000F05AF86C343246094928460BF096FAC8
:108310002046FFF7A1FE07492046324602B0BDE8DD
:1083200070400BF08BBA00BFEC1D002050130020F2
:1083300039540008D57F000808B5034B53F82030A6
:1083400003B1984708BD00BF681E002013B5084C54
:10835000002100910A460B46204600F02DF8054901
:10836000054A204602B0BDE810400BF067BA00BFD6
:10837000A81E002039540008501300202DE9F041B8
:10838000002407460E4625463B1919790A22304635
:1083900000F0B2F82E218046304600F07EF801341D
:1083A0004044032C0544EFD13046F9790A2200F00D
:1083B000A3F82844BDE8F08130B58371034D9DF8E2
:1083C0000C30056001714271C37130BDF84C010879
:1083D000024A02600A684260704700BFF84C010818
:1083E0000548064B06490360064A002303714371A2
:1083F0008371C3710BF022BAB01E0020F84C010843
:10840000395400085013002013B5084C0021009186
:108410000A460B462046FFF7CFFF0549054A20468E
:1084200002B0BDE810400BF009BA00BFB81E002032
:108430003954000850130020014B0360704700BFFF
:10844000104D0108F8B506460C468F180025BC42B1
:1084500007D0336830469B6814F8011B98470544E1
:10846000F5E72846F8BD000010B5034B044603604D
:10847000FEF7F8FF204610BD104D010838B505463F
:108480000C46084641B10CF00BFA2B680246DB683B
:1084900028462146984738BD38BD08B503689B6813
:1084A000984708BD30B500238BB08DF82430012AE1
:1084B00098BF0A220DF12304B1FBF2F303FB121162
:1084C000CDB2092D94BF30353735EDB2214604F8D1
:1084D00001590BB11946EFE7FFF7D0FF0BB030BDE4
:1084E00010B522B90268C9B29268904710BDD2B2E5
:1084F000BDE81040FFF7D6BFFFF7F2BF13B5084C39
:10850000002100910A460B462046FFF755FF05491A
:10851000054A204602B0BDE810400BF08FB900BFFD
:10852000C81E0020395400085013002013B5084C11
:10853000002100910A460B462046FFF73DFF054902
:10854000054A204602B0BDE810400BF077B900BFE5
:10855000D01E00203954000850130020014B587DD4
:10856000704700BFD81E00207047000013B5084CAC
:10857000002100910A460B462046FFF71DFF0549E2
:10858000054A204602B0BDE810400BF057B900BFC5
:10859000F01E0020395400085013002013B5084C79
:1085A000002100910A460B462046FFF705FF0549CA
:1085B000054A204602B0BDE810400BF03FB900BFAD
:1085C000FC1E0020395400085013002010B504464A
:1085D0000CF066F9013823462044834206D21A780B
:1085E000017803F8011B00F80129F6E710BD38B542
:1085F000931EDBB2222B0C461BD8A8B10B46B0FB56
:10860000F2F102FB1100C5B2092803F8015BD4BFE7
:108610003035573503F8015C09B10846EFE71970AA
:108620002046FFF7D3FF02E030230B70487020464E
:1086300038BD002038BD031E10B50C4603DA2D20CE
:1086400001F8010B5842FFF7D2FF204610BD10B5CC
:10865000044600680BF036FA204610BD10B50446FB
:10866000006808B10BF02EFA00232360A36063605A
:1086700010BD38B504460D46006801310BF0CEFD43
:1086800010B184E82100012038BD036810B504460C
:1086900013B143688B4207D22046FFF7EAFF20B1AF
:1086A000A3680BB922681370012010BD70B50E4687
:1086B000114604461546FFF7E8FF18B92046FFF7B4
:1086C000CDFF04E0A560206831460CF08BF8204611
:1086D00070BD38B5002304460360436083600373B4
:1086E0000D4639B108460CF0DBF829460246204613
:1086F000FFF7DCFF204638BD884210B50B46044624
:1087000007D0096819B19A68FFF7D0FF01E0FFF7B9
:10871000A5FF204610BD10B500230446036043604A
:1087200083600373FFF7E8FF204610BD70B5044671
:1087300085680E4609B9002070BD62B1154429460E
:10874000FFF7A3FF0028F6D02068A368314618443D
:108750000CF048F8A560012070BD07B500238DF826
:108760000410012201A98DF80530FFF7DFFF03B0E7
:108770005DF804FB0B4610B509689A680446FFF7DC
:10878000D5FF10B92046FFF769FF204610BD38B568
:1087900004460D4641B108460CF082F829460246CF
:1087A0002046FFF7C3FF10B92046FFF757FF2046CA
:1087B00038BD38B50C469AB191B181688B4202D36D
:1087C0000023237038BDC91A551E8D4228BF0D469F
:1087D00001682A46194420460CF0ECF80023635542
:1087E00038BD13B5026802AB03F8011DD468194601
:1087F0000122A04702B010BD10B5B0F81622B0F8A3
:10880000143204469A4207D0B4F814325A1CA4F821
:1088100014221C44207D10BD03681B699847002862
:10882000F2D14FF0FF3010BD10B5B0F81622B0F8FD
:10883000143204469A4204D0B4F814321C44207D09
:1088400010BD03681B6998470028F5D14FF0FF3031
:1088500010BD0023A0F81432A0F816327047F8B506
:108860001746B0F81432B0F8162204469A420E4663
:1088700006D103681B69984710B94FF0FF3512E025
:10888000B4F81432B4F81652E118ED1ABD4228BFFC
:108890003D46304614312A46FCF73AFCB4F814320F
:1088A0002B44A4F814322846F8BD10B504460069DC
:1088B000082801D002F0E4FD0823236110BD30B583
:1088C000B0F8163287B0044633B1B0F814229A4299
:1088D00002D10368DB69984700F040FB022838D1D9
:1088E0002069082835D0B4F81632B3F5007F30D2AD
:1088F000430906AA02EB8303012100F01F02914005
:1089000000258DF80C508DF80D508DF80E508DF817
:108910000F5053F80C2C01300A4343F80C2C41F251
:108920008833059304AB009303A92A462B4604958C
:1089300002F032FEA8420CDD206906AB420903EBCF
:10894000820252F80C2C00F01F0342FA03F3DB07FB
:1089500006D4B4F81602B4F81432C01A07B030BD09
:10896000B4F816222B46A1181431C2F5007202F099
:10897000B3FE0028EDDDB4F816320BB9A4F81432BA
:108980000344A4F81632E4E7F0B585B004460D467A
:10899000164600F0E3FA0228074634D101210622E8
:1089A00002F040FD002820612DDB23682046DB69B2
:1089B0009847330A8DF802302B794FF4FA508DF82E
:1089C00004306B798DF803608DF80530AB79ADF824
:1089D00000708DF80630EB798DF8073000F072FCEE
:1089E0006946054610222069FFF7A2F80646284688
:1089F00000F068FC002E04DA23682046DB6A984702
:108A000001E0012000E0002005B0F0BD2DE9F041BB
:108A100088B006460F46904600F0A0FA02284FF0B4
:108A2000000422D108AD384645F8144D0BF038FF4C
:108A30002A4681B2384602F049FDA04215DD039B6B
:108A400004A8DAB20092190EC3F30742C3F3072356
:108A5000FFF7B2FC336830461C6A064B06A9069342
:108A6000059B42460793A04700E0204608B0BDE8BA
:108A7000F08100BFF84C01084FF47A71816005491C
:108A800000220160082142600161A0F81422A0F8D0
:108A900016227047284D0108036910B5082B0446BB
:108AA00001D1002010BD00F059FA0228F9D1206947
:108AB00001F0D6FED0F1010038BF002010BD70B526
:108AC00004460E461546FFF7E7FF38B120693146E8
:108AD0002A460023BDE8704002F07CBE4FF0FF3014
:108AE00070BD38B50446FFF7D7FF01281BD0B4F896
:108AF0001622B4F814329A4217D12069082803D0FC
:108B000001F0AEFE012801D000250FE023682046C9
:108B10001B699847051C18BF01253DB923682046ED
:108B2000DB6A984702E0054600E00125284638BD8B
:108B300008B5FFF7B1FF003018BF012008BD0000E5
:108B400013B5084C002100910A460B462046FFF75A
:108B500033FC0549054A204602B0BDE810400AF042
:108B60006DBE00BF041F00203954000850130020C0
:108B700013B5084C002100910A460B462046FFF72A
:108B80001BFC0549054A204602B0BDE810400AF02A
:108B900055BE00BF0C1F00203954000850130020A0
:108BA00038B5184C94F92C305BB394F82D3043B39E
:108BB00005F0F4F994F82C2094F82D5051B20029C6
:108BC00095FBF1F106DD01290BDC013A84F82C203C
:108BD000002307E0013104DB013284F82C2002235A
:108BE00000E0012394F82D20013A84F82D20C418C8
:108BF00005F008FA204605F0E5F9BDE8384005F033
:108C000001BA38BD141F002013B5084C0021009193
:108C10000A460B462046FFF7CFFB0549054A20468A
:108C200002B0BDE810400AF009BE00BF441F00209A
:108C3000395400085013002013B5084C002100914E
:108C40000A460B462046FFF7B7FB0549054A204672
:108C500002B0BDE810400AF0F1BD00BF501F002077
:108C60003954000850130020014B0360704700BFC7
:108C7000104D01080369186C5B6CC01A00F03F00CE
:108C800070470369196C5A6C914202D05A6C985C17
:108C900070474FF0FF3070470369196C5A6C91426E
:108CA00007D05A6C985C5A6C013202F03F025A6449
:108CB00070474FF0FF30704710B5034B0446036018
:108CC000FEF7D0FB204610BD104D0108436910B5DA
:108CD0000446196C5A6C9142FBD1237E13B90023D0
:108CE000237610BD0348402105F0D9FB0028F6D1BA
:108CF000F3E700BF0044004070B504460E462C4820
:108D000040F2277105F0D1FB20B963691A6C5B6CE6
:108D10009A4211D163691D6C013505F03F05636905
:108D20005A6C95420FD0EFF31082D20732D5196CEE
:108D30005A6C914207D12DE01D4840F22771012263
:108D400005F08DFBE6E71A4840F2277105F0ADFB10
:108D50000028E4D01648802105F0A1FB0028DED0D1
:108D6000134840F22771002205F079FB636910482F
:108D70005A6C511C5964995C05F089FB63690C4875
:108D80005A6C40F2277102F03F025A64012205F04A
:108D900066FBC4E71A6C06489E54636940F227716B
:108DA0001D64012525762A4605F059FB284670BD2D
:108DB0000044004010B51E4840F2255105F075FBF7
:108DC00078B11B4805F067FB1A4BC0B25A6D996D1C
:108DD000013202F03F028A4203D0596D5A651944AC
:108DE0000875134840F2277105F05FFBF8B1114C8C
:108DF000D4F89C20D4F8A0309A4207D1BDE81040A6
:108E00000B4840F22771002205F029BBD4F8A030AE
:108E100007485A1C234493F85C10C4F8A02005F0BE
:108E200036FBD4F8A03003F03F03C4F8A03010BDE7
:108E300000440040581F0020014B187C704700BFC1
:108E4000581F0020F7B5164C002504F1A406154F55
:108E50002B4629462A4600953046FFF7ADFA3A469A
:108E6000304611490AF0EAFC4FF47A73C4F8B43082
:108E70000E4B0F49C4F8AC3004F11403C4F8BC30F5
:108E800004F1AC0004F15C033A46C4F8B050C4F8F5
:108E9000C03084F8C45003B0BDE8F0400AF0CEBC46
:108EA000581F00205013002039540008684D010855
:108EB000698C000870474FF0FF307047014B03602A
:108EC000704700BF104D010810B5034B0446036006
:108ED000FEF7C8FA204610BD104D0108FEF7E0B9B4
:108EE00008B5FEF7C9F908BD08B50846FEF7F8F958
:108EF000012008BD002242604FF47A728260014A6C
:108F000002607047904D01080846FEF79DB90000C9
:108F100037B50D4C00210D4D0B4600910A462046F9
:108F2000FFF74AFA2A460A49204608340AF086FC26
:108F30002046FFF7DFFF074920462A4603B0BDE879
:108F400030400AF07BBC00BF2020002050130020DE
:108F500039540008BD8E000870470000054B1B788F
:108F600003F0FF002BB1044B1B78002B14BF022031
:108F700001207047682000205020002037B50B4C9E
:108F800000210B4D0B4600910A462046FFF714FACC
:108F90002A46204607490AF051FC074904F1080017
:108FA0002A4603B0BDE830400AF048BC3820002013
:108FB0005013002039540008598F00080023036023
:108FC000184670470023036018467047002303606B
:108FD000184670472DE9F0410B7886B0002B0C46FF
:108FE00014BF90464FF0000806460BF059FC0746A8
:108FF00020460BF055FC182301931E2301250293F4
:1090000002230393059000950494404631463A4666
:10901000002302F01DFD034B18705D7006B0BDE823
:10902000F08100BF4420002048F20202904210B5B7
:1090300024D006DC99284DD048F20102904213D08A
:1090400010BD48F28002904207D0B0F5084F45D0DD
:1090500048F21002904252D129E0294B01229A7025
:10906000DA7000221A7110BD254C01236371FEF7DE
:1090700029FF00F5EA403030A06010BD204C637934
:1090800063B1FEF71FFF00F5EA403030A0604FF4F7
:109090007F4003F051FAE72003F0CAFA002363711E
:1090A00023736373A373E3732374637410BD0A7D26
:1090B000134B62B99A604FF47F4001221A731A74FD
:1090C00003F03AFABDE81040E72003F0B1BA0022FD
:1090D0001A7310BD0A4B01229A7410BD0846002174
:1090E00000F0BFFF0121044601F002F8054B1B68A8
:1090F0009C4204D1024B0022DA739A735A7310BD5A
:1091000044200020A40000201FB54FF461504FF40C
:1091100061610A2200238DE80F00064B44F62062AD
:109120001A60684601A902AA03AB01F09FFC05B0D2
:109130005DF804FBDC2000201FB5002300930193A1
:109140000293039301A8694602AA03AB01F054FC01
:1091500005B05DF804FB000030B5544D00249FB00D
:10916000FF20AC70EC706C706C712C73AC746C7311
:10917000AC73EC732C7403F0DFF9E72003F058FABA
:1091800021462246204602F03FFC2B46012103F8EF
:10919000144F0E200A4601F0EFFC6B79012B05D12C
:1091A000642003F063F801F0C3F8F6E710210C2007
:1091B00001F02EFD3E4802F0F1F83E4802F09AFD23
:1091C000012002F07BFD68463B4900F0CDFDAB7805
:1091D0006A78364C1A431CD194F82330002B5AD0AD
:1091E000FF2002F01DFD002855D11A24013C06D0B5
:1091F000E72003F04BFA322003F038F8F6E70E20B0
:10920000012122462D4BEC7401F0B6FC85F8234079
:10921000DDE7E72003F00CFA04F113030E2001212F
:10922000002201F07BFCA37813B102F083FD2070D3
:109230002B7801210133EB740022204B0E2001F02A
:109240009BFC002001240146012202F0DDFB2146A7
:1092500022461B4B0E202C7501F08EFC02F058FBB1
:10926000642003F003F8002002F01CFB85F8244082
:109270004FF47F4000242C7403F05EF9E72003F0E4
:10928000D7F948F2442002F0E7FCFFF73DFF85F8EC
:1092900025401FB030BDE72003F0F8F9FA2002F0B6
:1092A000E5FF684600F0BCFD91E700BF44200020C8
:1092B000B04D010800020020D58F00085720002083
:1092C00058200020024B1A6818601046704700BFF3
:1092D000DC2000207FB53D4C0025A06203F07EFC21
:1092E00003F0BEFB3A4B3B4A00933B4B3B49019397
:1092F0003B4B3C4802933C4B03933C4B02F0BAFA85
:10930000642002F0B3FF002002F0CCFA012348F2FF
:10931000442084F82430257402F09EFC344B1A88D3
:109320001E46012A2FD00E2010212A4604F11303D5
:1093300001F0F4FB102826D12379244D9BB9EB7C56
:109340001BB9012385F825300DE0287D58B9014669
:10935000012202F059FB01212B4603F8141F0E20B5
:109360000A4601F009FC237943BB184B93F82530DA
:1093700023B3204801F032FCFFF7DEFE04B0BDE865
:109380007040FFF7C1BEFF2002F04AFC00210E2012
:1093900001F03EFC10210E2001F03AFC00211022C9
:1093A00015480AF0CDFE10210022134B0E2001F0CB
:1093B000E3FB0023338003F05DFDBDE74FF47F4006
:1093C00003F0BAF8E72003F033F9D2E74420002095
:1093D00019CB0008C58F00082DCB0008BD8F0008F1
:1093E00099CB000829900008C1CB0008CD8F000858
:1093F0004E03002070200020572000202DE9F3416B
:10940000A54C04F0BDFC0023236394F834304BB921
:1094100094F8353033B9A3687BB3FEF753FDA368E6
:1094200098422AD394F824309B4D002B40D000263C
:109430006E71AE602E73AE6385F83460012785F8D7
:1094400024606E73AE73EE736E7402F061FA6FF0A7
:109450007F402F7403F070F8E72003F0E9F86420F0
:1094600002F004FF95F8253013B3304602F01AFAE3
:1094700085F82470FFF770FE1AE094F82430864DCA
:10948000B3B92B792BB9FEF71DFD00F5EA4030305A
:10949000A860002002F006FA012384F824304FF47B
:1094A0007F400023237403F047F8E72003F0C0F85F
:1094B00094F82530784E13B1FFF74EFE06E033796D
:1094C00023B1337B03F0FF05002B6BD0E278724BA6
:1094D000012A13D11A7B012A10D15B79012B0DD1FE
:1094E00003256E480BF0DCF9013D82B26B49012087
:1094F00002F086F915F0FF05F3D1E57094F83C30E1
:10950000654D33B96B7B002B64D1AB7B002B61D1F4
:10951000BEE02B7BFBB195F83530E3B96B7B002BBC
:1095200068D018E02B4603F8162F0E2001210322E5
:1095300001F022FB00264FF6FF70267402F0FCFFBC
:10954000E72003F075F8FEF74BFAB042524D78DB96
:109550000123AE636B73637B4F4D002B00F098804B
:10956000AB7BBBB9FEF7BEF9002811D002DA4FF48D
:109570007F0007E0012801D1494803E0022803D118
:109580004FF0FF1002F0D8FFE72003F051F801E0A0
:109590000123AB73FEF76AF9002879D1E073A07359
:1095A000607375E029462A462846B56002F02CFA19
:1095B0003C480BF075F93C4F804638460BF070F98B
:1095C00000970190791F032042462B4602F0B6F91E
:1095D00035717BE7FEF7F4F900234FF47F40E37326
:1095E000A373637302F0A8FFE72002B0BDE8F04167
:1095F00003F01EB8642002F039FE05F13D0001F0D1
:109600007BFA6B7C002B95D04FF47F0002F094FF27
:10961000637C214D03F0FF02002B83D0E72003F091
:1096200007F84FF4FA7002F021FEE72003F00EF87D
:109630004FF4FA7002F01AFE6B7C013BDBB26B74E4
:10964000E6E795F834301BBBAB6B0133022BAB6301
:1096500004BF012385F83430FEF780F900280ADAC8
:10966000A36B0133022BA36303D10B4B012283F8BD
:109670003420022300E003236374637C0E20A3756F
:1096800001210A4B032201F077FA0023637362E79A
:1096900002B0BDE8F08100BF44200020030200209A
:1096A0000060FF000A0200200F0200205A20002064
:1096B00013B5084C002100910A460B462046FEF7E0
:1096C0007BFE0549054A204602B0BDE810400AF07D
:1096D000B5B800BFBC20002039540008501300204A
:1096E000704708B5012003F039FFFEE708B50320F5
:1096F00003F034FFFEE708B5042003F02FFFFEE778
:1097000008B5052003F02AFFFEE770477047704751
:1097100008B503F0EDFCBDE80840FDF7C9BC00004A
:1097200008B5024B0BB1AFF3008008BD000000008C
:1097300008B5024B0BB1FFF73DFB08BDB58D000826
:1097400008B5024B0BB1FEF7C8FD08BDDB8200086F
:1097500008B5024B0BB1FEF7C1FD08BDDD82000864
:1097600008B5024B0BB1FEF7FFFE08BD6985000886
:1097700008B5012004F0F6F838B1012004F000F932
:10978000024B13B10020FEF7D7FD08BD3983000856
:1097900008B5022004F0E6F838B1022004F0F0F831
:1097A000024B13B10120FEF7C7FD08BD3983000845
:1097B00008B5042004F0D6F878B1042004F0E0F8ED
:1097C0000020064B0146188002F0E8FFBDE8084083
:1097D00003481021012204F0FABD08BDFC2000203E
:1097E000002C014008B5082004F0BCF838B108206E
:1097F00004F0C6F8024B13B10320FEF79DFD08BD2F
:109800003983000808B5102004F0ACF838B11020F6
:1098100004F0B6F8024B13B10420FEF78DFD08BD2D
:109820003983000808B5202004F09CF838B12020C6
:1098300004F0A6F80E4B13B10520FEF77DFD402085
:1098400004F090F838B1402004F09AF8084B13B1B6
:109850000620FEF771FD802004F084F838B18020E6
:1098600004F08EF8024B13B10720FEF765FD08BD2A
:109870003983000808B54FF4005004F073F840B184
:109880004FF4005004F07CF8174B13B10D20FEF795
:1098900053FD4FF4804004F065F840B14FF4804030
:1098A00004F06EF8104B13B10E20FEF745FD4FF497
:1098B000004004F057F840B14FF4004004F060F865
:1098C000094B13B10F20FEF737FD4FF4006004F091
:1098D00049F838B14FF4006004F052F8BDE8084090
:1098E00002F04EBC08BD00BF3983000808B510481F
:1098F000102104F0A5FDC8B10D48102104F0ABFD06
:10990000002003F001F830B90A4B1A8892B20A32EB
:1099100092B21A8008BD06481021002204F057FDBB
:10992000BDE808400020012102F038BF08BD00BF9B
:10993000002C0140FC20002008B5012004F078FB39
:1099400050B1012004F084FB044B0BB1FFF728F960
:10995000BDE8084004F056BB08BD00BFA18B00085D
:1099600008B5022004F064FBB0B10C4B00224FF4A8
:1099700000301A7004F004F8012004F02BFA10B142
:10998000012004F031FA04F03DFB022004F060FBFA
:10999000BDE8084004F036BB08BD00BF79200020B8
:1099A00002F080BB00F062B838B514490B78012B87
:1099B00023D1134A13680BB90B7038BD114C402BDF
:1099C000206881B205D94030403B206013604025BB
:1099D00004E09DB203442360002313600A482A4632
:1099E0000844C02105F06CFA0120294605F070FBFF
:1099F000BDE83840012005F0D5BA38BD3C13002041
:109A000044130020401300203C12002008B5094BED
:109A100001221A70084B002203201A8005F088FBEF
:109A2000064B024618804FF488710548BDE808408F
:109A300005F05EBAF0110020F4110020F2110020B0
:109A4000F6110020074B1B68052B09D1064B1A683D
:109A5000511C052A196003D100221A60FDF75EBC73
:109A6000704700BF24210020C820002070B52B4D76
:109A70002B4C2B682B4E9BB22380228833881340BB
:109A8000990508D54FF6FF532B60A3780133DBB25D
:109A9000A370FFF7D7FF2288338813401A0401D53B
:109AA00005F058F92288338813405B0505D54FF639
:109AB000FF332B601C4B5B689847228833881A4021
:109AC000900444BF4DF6FF722A6022881340D904E7
:109AD00005D54EF6FF732B60002003F0FDFC2288B5
:109AE000338813401A050BD5104B1B7813B103F0C4
:109AF000D3FC02E0022003F0EFFC4FF2FF732B6077
:109B0000228833881340DB0507D54FF6FF632B60AF
:109B10000720BDE8704003F0DFBC70BD445C00402E
:109B2000CC200020102B00207402002070030020A5
:109B3000034B9B7A13B1034B05221A60704700BF99
:109B4000EC2A002024210020014B04221A607047D7
:109B500024210020034B1A78202A04BF00221A7007
:109B6000704700BFD020002070470000212810B5AA
:109B700008D1114B1B681B7803F07F03212B10D0F9
:109B8000022010BD2028FBD10B4B0C4A1B681B7810
:109B9000107003F07F03212B094B18BF00230BB972
:109BA000EEE7084B044A0024126820469361548271
:109BB0009847204610BD00BF0C2B0020D02000206D
:109BC000159C0008FD9B0008074B1B681B7803F0E1
:109BD0007F03212B06D100F0DF00022814BF0220F2
:109BE00000207047022070470C2B002009B1022092
:109BF00070470128FBD808467047000020B9034B86
:109C000008221B681A827047014870470C2B0020FD
:109C10006C02002020B9034B08221B681A8270478F
:109C2000014870470C2B00206C02002010B5FDF796
:109C3000C1FB054B00241B689C7203F015FC05F06A
:109C40008DFA024B1C6010BD0C2B0020242100203B
:109C5000334B344A1B68D27910B500245A729C7277
:109C6000DC72204605F056F920464FF4007105F0ED
:109C700059F92046102105F063F92046402105F0EE
:109C8000FBF98021204605F0E7F9204605F0B0F900
:109C9000254B204693F8341005F028FA204605F0AD
:109CA00094F90120214605F03DF90120C02105F07D
:109CB000D3F90120202105F043F90120214605F0C8
:109CC00058F902204FF4C06105F02CF902204FF43E
:109CD000807105F0C1F90220214605F04AF9022001
:109CE000202105F02DF90320214605F01BF9032062
:109CF0004FF4887105F0C0F90320402105F0F6F912
:109D000003204FF4405105F034F90320214605F0BB
:109D100017F9204604F0B2FF044B01221A6010BD6F
:109D20000C2B00201D4E01086C0200202421002075
:109D3000014904F09FBD00BFA4020020014904F0C6
:109D400099BD00BFAC020020054B1B68DB78042BDB
:109D500004D8044901EBC30104F08CBD0020704716
:109D60000C2B0020B402002038B504460D46FFF746
:109D7000C1F8204625614FF41651FFF7C5F820467B
:109D800038BD70B506460D46002428460AF088FD09
:109D9000844208D2295D3046FFF7A6F8012002F080
:109DA00065FA0134F1E770BD2DE9F04104460E4635
:109DB000904600252046FFF793F80028FADD20465C
:109DC000FFF78CF84545C1B206D100233370204619
:109DD0001249FFF7D6FF15E00D29F6D00A29F4D075
:109DE000082901D07F2904D1002DE3D0771E013D41
:109DF00002E0771C317001352046EDB2FFF774F8B0
:109E00003E46D7E72046FFF76BF8002803DD2046E3
:109E1000FFF764F8F6E7BDE8F08100BFD97C0108E0
:109E2000F0B585B00446FFF75BF8002840F39D804D
:109E30002046FFF753F8C0B2772868D104F1140622
:109E400000212122304604F135050AF079F941223A
:109E5000002128460AF074F904F17607002384F8FB
:109E60007630204642497B70FFF78BFF2046314613
:109E70002022FFF799FF20463E49FFF782FF01228B
:109E800020463946FFF790FF94F87630A3F1300270
:109E9000D2B2032AEFD8312B0BD120463649FFF737
:109EA00070FF20463549FFF76CFF20463449FFF725
:109EB00068FF94F87620B2F1300708D02046314987
:109EC000FFF75FFF204629464022FFF76DFF20463F
:109ED0002D49FFF756FF23693A46304629469847F1
:109EE00020462A49FFF74DFF20462949FFF749FF41
:109EF00020462849FFF745FF20462749FFF741FF45
:109F000020462649FFF73DFF2046254928E06928DD
:109F10002BD1244B01AD93E8070085E807002046CC
:109F20002149FFF72EFF0026AF5D20463B0903F1D4
:109F30003001392984BF03F15701C9B207F00F0777
:109F4000FEF7D2FF07F13001392984BF5737F9B244
:109F500020460136FEF7C8FF0C2EE5D113492046F6
:109F600005B0BDE8F040FFF70CBF05B0F0BD00BF85
:109F70002D7B0108347B0108617B0108977B010878
:109F8000C27B0108087C0108137C0108567C01088B
:109F9000767C0108A97C0108DC7C01081B7D010896
:109FA0004C7D0108E8F7FF1F627D0108D97C01089C
:109FB00013B5084C002100910A460B462046FEF7D7
:109FC000FBF90549054A204602B0BDE8104009F0FA
:109FD00035BC00BFD42000203954000850130020A5
:109FE000002100F004B80E4B5B58435004310D487B
:109FF0000D4B42189A42FFF4F6AF0C4A00F003B83A
:10A00000002342F8043B0A4B9A42FFF4F9AF03F0F5
:10A01000B1F9FCF789FFFDF709FAFCF7D3FF7047A8
:10A02000F87E010800000020C80B0020C80B0020AB
:10A030001C2B0020FFF7FEBF0B0A017043700B0CB6
:10A04000090E8370C170043070470170090A4170B5
:10A050000230704743185A78435C03EB022080B209
:10A06000704710B543189A78DC78415C120402EB13
:10A07000046258780A4402EB002010BD73B544799D
:10A080000023022C01930FD0032C19D0012C2BD1CB
:10A09000164D2B692E4623B12B6901A8984702461D
:10A0A000B8B9B16801201BE0104DEB682E4623B112
:10A0B000EB6801A89847024658B9B16802200FE042
:10A0C0000A4D6B692E464BB16B6901A89847024651
:10A0D00020B1A9682046BDF8043003E0B168032030
:10A0E0000022134600F024FC02B070BD5422002070
:10A0F000072830B512D8012910D8EFF3108472B6B2
:10A100000125854001FA00F0054B1A6822EA050294
:10A1100002431A602346DB0700D462B630BD00BF9D
:10A12000FC02002070B5012186B00546FFF792FFC2
:10A13000430404462AD5B0F5824F27D1284605218D
:10A14000FFF788FF05EB8000EE1D0024C51DAE4221
:10A1500006D030460221FFF77DFF04360444F6E7BF
:10A16000724B1A8E92B2224492B21A86DA6B14445F
:10A17000DC63D96B9A6B914240F0CA8093F840201F
:10A18000002A00F0C5809B69992031E024F4FF404B
:10A1900020F07F0080B2002800F0978048F2100382
:10A1A0009C4228D00CD8B4F5004F40F2BC8048F255
:10A1B00002039C4215D948F204039C4211D0B2E03C
:10A1C00048F280039C420CD004D848F240039C42E1
:10A1D0004FD0A8E0B4F5024F03D0B4F5084F6BD0D0
:10A1E000A1E0524B9A69002A00F092809B692046B8
:10A1F00000210A4667E00023EA1852790DF803208F
:10A200000133042BF8D16B7A05F10D008DF8043081
:10A21000AB7A8DF80530EB7A8DF806302B7B8DF814
:10A220000730002300AA1A44C15C0133042B1172C9
:10A23000F8D105F11100002300AA1A44C15C0133D2
:10A24000042B1173F8D105F11500002300AA1A445C
:10A25000C15C0133042B1174F8D12B798DF81430C3
:10A26000324B9A69002A53D09B69204669461522D1
:10A2700029E0053500212846FFF7F3FE0421009070
:10A280002846FFF7EEFE082101902846FFF7E9FE79
:10A290000C2102902846FFF7E4FE10210390284687
:10A2A000FFF7DFFE214B04909A69002A30D09B69AA
:10A2B00020466946142206E01C4B9A6942B39B690A
:10A2C0002046691D0122984722E041F203039C4287
:10A2D00005D0A4F580530E3B9BB2012B1AD86C1D00
:10A2E00020460421FFF7BDFE39301CD12A790F4BDF
:10A2F00000212046DA62FFF7B4FE0421054620461D
:10A30000FFF7AFFE393003D128460121FFF7F0FEF9
:10A31000012009E0054B1B889BB29C4204D0B4F598
:10A32000805FF5D100E0002006B070BD542200200F
:10A3300070B50E4C6688B6B2B6B1606805782B1F52
:10A340005D425D412DB1FFF7EDFE003018BF0120E9
:10A3500000E02846064618B935B194F841301BB9DB
:10A360000023638001F0B4FD304670BD542200200C
:10A370002DE9F04F85B004468A46914602F0C0FEB2
:10A3800000250190DFF83083B8F8023046469BB2D2
:10A39000002B40F0938003F0F3FC02F0B1FE02903A
:10A3A000029A019BD31A0393039B002B03DA019BB0
:10A3B000029A13440393BF4B1B68002BE2D0039A0D
:10A3C0009A42DFD3338841F207029BB2934227D8E7
:10A3D00041F20602934261D240F2022293425DD0E2
:10A3E0000FD80C2B08D8082B58D2002B4FD0062B97
:10A3F00088BF00235AD851E00D2B4CD040F20122E7
:10A400000BE041F2020293424BD8B3F5805F45D88E
:10A41000B3F5017F3FD940F20722934237D13AE0AA
:10A4200041F21102934236D014D841F20B0293420A
:10A4300034D005D841F2090293422FD031D82AE016
:10A4400041F20F0293422CD028D841F20D029342E0
:10A4500027D01CE042F2060293421CD007D8B3F585
:10A46000005F14D942F20402934221D813E0B3F5FD
:10A47000804F00F0EE8105D8A3F50053083B012B77
:10A4800009D904E044F20B02934200F0E2810B2070
:10A4900003F064F8DDE1FF232370DAE14FF0FF33CE
:10A4A00004E04FF0FF3323606360D2E12360D0E12A
:10A4B000204600213A2209F043FECAE1D8F80460A0
:10A4C0003378042B40F0798130460121FFF7C2FD3B
:10A4D00005463046FFF726FE002840F0638141F232
:10A4E00007039D4206F1050755D841F206039D4238
:10A4F00080F0AE8040F202239D4200F0A98014D883
:10A500000C2D09D8082D80F0A380002D00F04A8181
:10A51000062D00F2E5809BE00D2D00F0968040F2C4
:10A5200001239D4200F091803CE141F202039D42F3
:10A5300018D8B5F5805F00F28B80B5F5017F40F249
:10A54000848040F207239D4240F02C8133793846C5
:10A5500004F8013B0021FFF784FD01462046FFF788
:10A560006BFD1FE141F204039D4200F08B8040F23D
:10A57000A58000213846FFF774FD0421206038468D
:10A58000FFF76FFD083444F8040C06F10D03224672
:10A5900006F11D016FE041F211039D4255D02BD809
:10A5A00041F20B039D4253D01CD841F209039D4256
:10A5B0004ED000F2908000213846FFF752FD042172
:10A5C00020603846FFF74DFD082160603846FFF7F0
:10A5D00048FD0C21A0603846FFF743FD04F10C0B49
:10A5E000E060DEE041F20F039D4267D036D841F2D1
:10A5F0000D039D4246D0D5E042F206039D4224D091
:10A600000BD8B5F5005F40F2CD8042F204039D42C5
:10A6100088BF002300F2888017E042F208039D42C1
:10A62000C0F0C08042F209039D420ED944F20B03F0
:10A630009D4240F0B780737938460121A8F8303048
:10A64000FFF708FDA8F83200ACE033792370A9E0E9
:10A6500038460021FFF705FD2060A3E000213846C1
:10A66000FFF7FFFCA3464BF8040B04213846FFF725
:10A67000F8FC606095E053F8040B8B4242F8040B41
:10A68000F9D18FE000213846FFF7EBFC0421206070
:10A690003846FFF7E6FC082160603846FFF7E1FC2A
:10A6A000E36804F1080B3933A0607AD10121FFF788
:10A6B0001FFD76E0DC2000205422002000213846D7
:10A6C000FFF7CFFC042120603846FFF7CAFC0834AE
:10A6D00044F8040C66E0337923713B68236061E041
:10A6E00000213846FFF7BDFC042120603846FFF703
:10A6F000B8FC082160603846FFF7ACFC0A21A06076
:10A700003846FFF7A7FC0C3444F8020C06F111039D
:10A71000224606F1350153F8040B8B4242F8040B34
:10A72000F9D11B8813803DE0F2185279E2540133CD
:10A73000042BF9D106F109000023C15CE2180133B2
:10A74000042B1171F9D106F10D000023C15CE21850
:10A750000133042B1172F9D106F111000023C15C01
:10A76000E2180133042B1173F9D106F1150000230F
:10A77000C15CE2180133042B1174F9D106F1190000
:10A780000023C15CE2180133062B1175F9D106F1E3
:10A790001F000023C15CE2180133202B9176F9D110
:10A7A00000E05C46B8F800202C4B92B2954236D1BE
:10A7B00000221A8083F8412031E0B8F836309BB28D
:10A7C0006BB33046032196F802B0FFF743FC07460F
:10A7D000BAF1000F0BD00421701DFFF742FC06F107
:10A7E00015010246C9F800005046FAF791FCCBEB80
:10A7F00007077B1EB3F5806F07D20BF105012046DA
:10A8000031443A46FAF784FC01E04FF0FF37B9F1E2
:10A81000000F01D0C9F800700023A8F836300023DB
:10A82000A8F8023001F054FB3378042B05D1B5F5BC
:10A83000805F02D13046FFF721FCB8F800309BB2B0
:10A84000002B7FF49FAD054BDB8E9BB2002B7FF47A
:10A8500099AD002005B0BDE8F08F00BF5422002064
:10A8600007284FF001030FD8EFF3108272B603FAF6
:10A8700000F0064B1968134608420CBF0020012067
:10A88000DB0702D462B6704718467047FC0200200E
:10A89000034B1880084600210A46FFF769BD00BF38
:10A8A0005422002010B5034B0124DC86BDE8104083
:10A8B000FFF75EBD5422002038B50346154601223D
:10A8C0004A710C46881D1946FFF7BFFB291D05700C
:10A8D000204601F06DFB002038BD38B5BDF814509E
:10A8E0000C462B44D518ADB202216171A071E27102
:10A8F000294604F10800FFF7A8FB691D204689B22C
:10A9000001F056FB002038BD38B513440C469DB20B
:10A9100002216171A0712946E27104F10800FFF77C
:10A9200094FB691D204689B2BDE8384001F040BB68
:10A930002DE9F84F1C4604F1020B032301F107092E
:10A940001FFA8BFB88710D464B71484659461646D7
:10A95000FFF77BFBB4F57A7F824605F10B0812D82E
:10A960002146FFF772FB21465046FFF76EFB31464A
:10A9700040462246FAF7CCFBA11D284689B2BDE825
:10A98000F84F01F015BB4FF47A77B4FBF7F30BEBFC
:10A99000430189B2FFF759FB39465046FFF755FB93
:10A9A000314640463A46FAF7B3FBA4F57A74284696
:10A9B00040F2EE31A4B23E4401F0FAFAB4F57A7FE7
:10A9C00084BFA4F57A74A7B2A84688BF4FF47A74FE
:10A9D000314628F8054F4846224698BF0027FAF727
:10A9E00097FBA11C404689B2264401F0E1FA0FB161
:10A9F0003C46E3E7BDE8F88FF7B51E46FF238DF828
:10AA00000730194B00259C68475D63190135042DFB
:10AA10005F72F9D100200D5C2318013004285D73AA
:10AA2000F9D10021505C6318013104295874F9D11F
:10AA300004F115000021FFF7FFFA0022B35C8354F4
:10AA40000132042AFAD12146142242F20100FFF712
:10AA500033FF42F201000DF10701FFF719FF9DF9E5
:10AA6000070003B0F0BD00BF542200202DE9F341E0
:10AA70001F46FF238DF807301E4B0646D3F808808B
:10AA800033680C46013B122B9CBF142333600B68C8
:10AA900008F10900013B122B9CBF14230B601368C3
:10AAA0001546013B122B9CBF142313603B68013BEE
:10AAB000122B9CBF14233B603168FFF7BDFA21685D
:10AAC000FFF7BAFA2968FFF7B7FA3968FFF7B4FA5F
:10AAD0004146142242F20900FFF7EEFE42F209005D
