:020000040800F2
:10500000005000200DA000080D9700080F97000821
:1050100019970008239700082D970008000000004A
:1050200000000000000000000000000037970008AA
:1050300039970008000000003B9700083D970008E2
:1050400061A0000861A0000861A00008659900083F
:1050500061A0000861A000089D970008BD970008A6
:10506000DD970008119800083198000861A0000839
:1050700061A0000861A0000861A00008CD990008A7
:1050800061A0000861A000084D97000861A0000819
:10509000D199000861A0000861A00008519800089B
:1050A00061A0000861A0000861A00008199900082B
:1050B00061A0000861A0000861A000086D970008C9
:1050C0007D97000861A0000861A000088D97000886
:1050D00061A0000861A000085D97000861A00008B9
:1050E000A19800088D99000861A000080000000048
:1050F00000000000000000000000000000000000B0
:0C51000000000000000000005FF808F153
:10511000844641EA000313F0030349D1403A23D304
:105120000B6803604B6843608B688360CB68C36027
:105130000B6903614B6943618B698361CB69C3610F
:105140000B6A03624B6A43628B6A8362CB6AC362F7
:105150000B6B03634B6B43638B6B8363CB6BC363DF
:1051600040304031403ADBD230320BD30B68036021
:105170004B6843608B688360CB68C360103010312C
:10518000103AF3D20C3205D351F8043B40F8043BFB
:10519000043AF9D2043208D0D2071CBF11F8013BFF
:1051A00000F8013B01D30B8803806046704700BFC5
:1051B000082A13D38B07B1D010F00303AED0C3F18C
:1051C0000403D21ADB071CBF11F8013B00F8013BB6
:1051D000A4D331F8023B20F8023B9FE7043AD9D32D
:1051E000013A11F8013B00F8013BF9D20B7803704A
:1051F0004B7843708B7883706046704740EA010CAF
:105200001CF0070F27D1BDF1100DCDE90245CDE906
:1052100000676FF000064FF0000700BFF0E80223C0
:10522000F1E80245A242A2F1013C2CEA020C0CF08A
:10523000803C08BFBCF1000F40F0E580AB42A3F119
:10524000013C2CEA030C0CF0803C08BFBCF1000FC1
:1052500040F0D680E2E710F0030C21D020F00300EC
:1052600050F8042B5FEACC7C08D00FD211F801CBA8
:105270005FFA92F3B3EB0C0C10D17BB111F801CBB8
:105280005FFAA2F3B3EB0C0C08D13BB111F801CBE0
:105290005FFAB2F3B3EB0C0C00D10BB96046704768
:1052A000BDF1100DCDE90245CDE900676FF00006B4
:1052B0004FF0000711F0030C33D110F0040F0FD0A2
:1052C00050F8042B51F8044BA242A2F1013C2CEA05
:1052D000020C0CF0803C08BFBCF1000F40F0938042
:1052E00011F0040F99D051F8045B00BFF0E80223DD
:1052F000AA42A2F1013C2CEA020C0CF0803C08BF4F
:10530000BCF1000F79D1F1E80245A342A3F1013CC1
:105310002CEA030C0CF0803C08BFBCF1000F69D1F3
:10532000E4E721F00301BCF1020F20D03FDA51F88D
:10533000045B00BF50F8043B4FEA1525A3F1013C84
:105340002CEA030C0CF0803CB7EB0C2F03EA16227E
:1053500008BFAA4251D151F8045BBCF1000F82EAA8
:1053600003034FEA056208BF934240D1E2E751F8D8
:10537000045B00BF50F8043B4FEA1545A3F1013C24
:105380002CEA030C0CF0803CB7EB0C4F03EA1642FE
:1053900008BFAA4231D151F8045BBCF1000F82EA88
:1053A00003034FEA054208BF934220D1E2E751F8D8
:1053B000045B00BF50F8043B4FEA1565A3F1013CC4
:1053C0002CEA030C0CF0803CB7EB0C6F03EA16627E
:1053D00008BFAA4211D151F8045BBCF1000F82EA68
:1053E00003034FEA052208BF934200D1E2E719BA4E
:1053F00012BA0AE019BA22BA07E011BA2ABA04E0CE
:1054000019BA2ABA01E011BA22BA9CFA8CF0DDE985
:105410000067DDE902451DF1100D38B1B0FA80F0EA
:10542000C0F1180021FA00F122FA00F201209142A5
:1054300098BF8041704700BF014B0360704700BFB9
:10544000284D0108014B0360704700BF404D010823
:1054500010B5034B0446036001F0F6FF204610BD73
:10546000284D010810B5034B0446036001F0ECFF22
:10547000204610BD404D010810B5044C044920469B
:1054800001F0E0FA002384F8403010BD900B0020BA
:105490006077010808B5FFF7B1FED0F1010038BF11
:1054A000002008BD10B50446206803681B699847B2
:1054B0000028F9D0206803685B699847C0B210BD26
:1054C0002DE9F84305468946FFF7ECFF01262871D0
:1054D0000027B0462846FFF7E5FF05EB08031871E3
:1054E00000F07F0303FB067708F101040306A4B272
:1054F000BFB24FEAC61601D5A046EBE7631E89F896
:1055000000300026B3B2BB4212D27F2C0AD8284604
:10551000FFF7C8FF04F101081FFA88F82C44207136
:10552000444603E02846FFF7BDFF00240136E9E7C3
:105530002046BDE8F883F7B507461E46DDB20024D5
:1055400005F07F0302A8ED09204418BF43F0800353
:10555000013400F8043CE4B2002DF1D1C4F104039D
:1055600002EB030ED154A54206DA01A9695C131BB4
:105570002B4459710135F6E73868721C03682244E0
:10558000DB6871469847054602F08EFC0134C7F887
:1055900088002644E8B2831B5842584103B0F0BD4E
:1055A000023370B59BB20025ACB201354E1916F826
:1055B000016C181980B20EB11654F5E7031B1A449A
:1055C000231202F8023C02F8014C70BD38B50546C2
:1055D000006848B103681B6B9847044628B92868DF
:1055E0000368DB6A984700E00446204638BD0000A7
:1055F0002DE9F04F85B004468A4690461F46DDF8F7
:105600003890FFF7E3FF0646002840F0A2802568A7
:10561000D4F89C102B6829B15B6A2846B4F8A02006
:1056200098470BE0D4F8981001A8D3F820B002F006
:10563000C1FE284601A9B4F8A020D847002800F0F0
:105640008380464A012310685168A4F8843001AB76
:1056500003C3127A01A81A700023E218C15C013357
:10566000092B5172F9D1B9F1000F0AD09DF84050C1
:105670009DF83C306D0145F0060545EAC305EDB2E5
:1056800000E00225B8F1000F05D017B945F08005FC
:1056900001E045F0C0050023A574E374251D0F2328
:1056A00023752046112351462A46FFF779FF03460A
:1056B000B9F1000F0BD049462A462046FFF770FF8C
:1056C000119903462A462046FFF76AFF0346B8F1C0
:1056D000000F0CD0204641462A46FFF761FF0346E3
:1056E0002FB1204639462A46FFF75AFF0346053BAD
:1056F00010212A469BB22046FFF71DFF02F0D4FB83
:10570000C4F88800C4F88C00206803681B699847B7
:1057100048B902F0C9FBD4F88C3043F69822C01A7D
:105720009042F1D910E020460DF10301FFF7C8FEC9
:10573000042809D1E5793DB902F0B6FB0126C4F889
:105740008C0084F8905005E020680368DB6A984775
:1057500000E00026304605B0BDE8F08FBC4C0108E3
:105760001FB5002200920192029203921346FFF7A6
:105770003FFF05B05DF804FB2DE9F04704460E46F7
:10578000924699469DF82080FFF720FF08B3251D1B
:10579000314620462A460523FFF702FF00218FB23B
:1057A00046184F45B6B201F1010104D21AF807308C
:1057B00026443371F3E7B8F1000FA6F10503204644
:1057C0002A4614BF312130219BB2BDE8F047FFF7D4
:1057D000B2BEBDE8F08773B50546104614460E46C6
:1057E0000FF074F800220346009228463146224604
:1057F000FFF7C2FF02B070BD012A2DE9F041044657
:105800000F46154621D8FFF7E1FEF0B1B4F8843019
:1058100001339BB203B90123A4F88430B4F8843077
:10582000261D1A126272A372394632462046072399
:10583000FFF7B6FE23181D71031F32462046822152
:105840009BB2BDE8F041FFF776BE0020BDE8F081D5
:1058500070B504460D46FFF7B9FE50B12B126372C6
:10586000A5722046221D40210223BDE87040FFF7AB
:1058700062BE70BD2DE9F04383B000AF0446FFF770
:10588000A5FE002800F0988002F00EFBD4F88C30C2
:105890000546C21A43F698239A4204D8D4F88820C1
:1058A000821A9A4217D994F89030206823B103687D
:1058B000DB6A984700207FE0C02222716371036891
:1058C000211DDB68022298470123C4F88850C4F8E0
:1058D0008C5084F89030206803681B699847002832
:1058E00069D02046F91DFFF7EBFD8046002862D005
:1058F0002279C4F88C5002F0F002302A48D1D4F852
:105900009430002B57D0FD796E4661194A798B7916
:1059100003EB02239BB203F10802D208A6EBC200FC
:10592000854600221FFA82FE9E4507D201EB020E39
:105930009EF807E000F802E00132F3E70022C254CB
:105940002279D4F894C012F0020F05F10302C5EBDE
:1059500008081A4414D02244517992F80490C3EBF9
:10596000080201EB0929691D194421441FFA89F92C
:105970000431053AE04720464946FFF769FF05E054
:10598000A118A8F103020431D21AE047B54612E08B
:10599000C02A0BD1D0232146237151F8040B0023D8
:1059A000637103680222DB68984704E0D02A04BFD1
:1059B000002384F8903001200C37BD46BDE8F08309
:1059C00010B5164C04F14400FFF754FF04F1E80051
:1059D00001F020F904F14400FFF7F8FD68B104F18B
:1059E000E800D4F8E81101F061F994F8EC3113B94A
:1059F000D4F8F031984701230CE004F1E800D4F822
:105A0000E81101F04CF994F8EC3113B1D4F8F43109
:105A10009847002384F8EC3110BD00BF900B0020A4
:105A2000B0B51D4C8CB000AF054604F5FC7107F114
:105A3000200002F062FE294607F1100002F03BFE52
:105A400007F1100107F1200002F086FE01463846FA
:105A500002F053FE07F1100002F0EBFD07F1200009
:105A600002F0E7FDBA68384602F1080323F00703A5
:105A7000ADEB030D69460023013202F0B0FE69462A
:105A8000012204F14400FFF7B7FE384602F0D1FDD1
:105A90003037BD46B0BD00BF900B002008B50948A7
:105AA000FFF794FD68B9074800F5E271FFF758FE6B
:105AB00038B10548FFF7B4FFBDE808400348FFF7D9
:105AC000AFBF08BDD40B0020647701086C770108D4
:105AD000F0B589B007460E4604A81F4902F0EBFD59
:105AE000684601F023FE694604A802F035FE1B4912
:105AF00002F03FFE1A4C014604F5FC75284602F000
:105B0000EDFD684602F095FD04A802F092FD04F256
:105B1000212128461E22002302F061FE04A801F084
:105B200005FE002304A804F50271192202F057FEB5
:105B30004FF47A710B4A04F1E800C4F8F071C4F82C
:105B4000F46101F04EF8C4F8E801FFF7A7FF04A8DC
:105B500002F06FFD09B0F0BD76770108B777010854
:105B6000900B00209D5A0008F0B51D4C8DB000AF81
:105B700006460D4607F1200004F5FC7102F0BDFD5C
:105B8000314607F1100002F096FD07F1100107F110
:105B9000200002F0E1FD0146384602F0AEFD07F1BB
:105BA000100002F046FD07F1200002F042FDBB6844
:105BB000384603F1080222F00702ADEB020D6946F8
:105BC0005A1C002302F00BFE69462A4604F14400E9
:105BD000FFF701FE384602F02CFD3437BD46F0BD1C
:105BE000900B002010B5094C0949204600F02AFF0F
:105BF000012384F84030074C07482146FFF7B4FFE3
:105C000021460648BDE81040FFF7AEBF900B0020CC
:105C10007B7701089277010881770108977701085F
:105C200038B5074904461846FFF734FC05490546D0
:105C30002046FFF72FFC10B1034B83F83F5238BDCD
:105C400092770108A8770108900B0020F8B50F4B58
:105C500000AF93F83F3206460D46A3B10EF036FE74
:105C60000B3020F007006C46ADEB000D684608498C
:105C70000EF0CEFD684631460EF02AFD68462946F4
:105C8000FFF772FFA546BD46F8BD00BF900B002090
:105C9000B477010810B50C4C052002F007F900217B
:105CA000208801F0D1FF052002F000F920880121B1
:105CB00001F0CAFF054BD3F840223F2ADCBF013276
:105CC000C3F8402210BD00BF00000020900B002050
:105CD00010B50C4C052002F0E9F80021A08801F075
:105CE000B3FF052002F0E2F8A088012101F0ACFF2B
:105CF000054BD3F84022002AC4BF02F1FF32C3F89B
:105D0000402210BD00000020900B002010B565243B
:105D1000FFF7DEFF0A2002F0C9F8013CF8D1024B80
:105D2000C3F8404210BD00BF900B002038B50C4BAB
:105D30000546D3F84042A04208DDFFF7ABFF01342F
:105D40000A2002F0B3F8AC42F7D138BDAC4206D01D
:105D5000FFF7BEFF0A2002F0A9F8013CF6E738BDC4
:105D6000900B002038B5084C084D204600F0F0FD9F
:105D70002889012101F068FFE868FFF7D7FF0123B8
:105D800084F8443238BD00BF900B00200000002092
:105D900010B5084C204600F0EEFD0020FFF7C6FFCE
:105DA000054B0021188901F04FFF002384F844328D
:105DB00010BD00BF900B002000000020034B93F8A3
:105DC00044320BB1FFF7E4BFFFF7CCBF900B0020CC
:105DD00007B5074B01A9D3F840020A2202F01DFCC7
:105DE000044801A9FFF7C0FE03B05DF804FB00BF43
:105DF000900B0020BD77010808B50F4B1B7C6BB1E1
:105E00003C2806D03E2816D1FFF744FFFFF7E0FFFD
:105E100008E0FFF75DFFFFF7DBFF06E03C2804D05A
:105E20003E2808D10548064901E004480549BDE877
:105E30000840FFF799BE08BD00000020CC7701089C
:105E4000D7770108DA7701081FB5FFF7C1FF114BBB
:105E5000114A93F84412114B01A800290CBF1146B6
:105E600019460EF0D5FC01A90D48FFF77DFE0D4B3C
:105E70000D4A197C0D4B02A800290CBF114619468A
:105E80000EF0C6FC0A4802A9FFF76EFE05B05DF8E9
:105E900004FB00BF900B0020DF7701080C7A01089B
:105EA000E977010800000020E377010892770108F4
:105EB000FA77010813B5114A114C527A00238DF874
:105EC00004206946D4F848020A22ADF800308DF863
:105ED00005308DF8063002F0A0FB0A2201A9D4F8A3
:105EE0004C0202F09AFB69460648FFF73DFE064861
:105EF00001A9FFF739FE02B010BD00BFBC4C01087C
:105F0000900B0020157801082678010807B5194B79
:105F100019485A7A00238DF800208DF804208DF856
:105F200001308DF802308DF805308DF8063000F024
:105F300087FD124B1249012808BF194601A80EF02F
:105F400067FC0D4800F07AFD0A22694602F065FB05
:105F500001A90C48FFF708FE69460B48FFF704FE4D
:105F6000054800F069FD01460848FFF7FDFD03B054
:105F70005DF804FBBC4C0108900B00200C7A010872
:105F8000DF7701083B7801084C7801086178010847
:105F900008B5FFF759FFFFF7B9FFBDE80840FFF765
:105FA00089BF00002DE9F341514C524E002104F508
:105FB00014750B4600910A46284602F0EFF9324666
:105FC0004D49284604F516750DF04EFC284602F0A2
:105FD00069FD324649492846494F0DF045FC04F514
:105FE000FC7804F1E80000F0ADFD4046454902F0C0
:105FF00062FB3246394640460DF036FC6564424B42
:10600000424D04F58E68C4F8D83005F11103C4F888
:10601000E030404640F25B733D49A4F8E43002F0C2
:106020004AFB32463946404604F590680DF01CFCA8
:106030004046384902F03FFB32463946404604F5B7
:1060400092680DF011FC4046334902F034FB3246B1
:106050003946404604F594680DF006FC40462F4949
:1060600002F029FB32463946404604F596680DF0A9
:10607000FBFB40462A4902F01EFB324639464046A9
:1060800004F598680DF0F0FB4046264902F013FB3A
:106090003946324640460DF0E7FB05F11C010EC9BA
:1060A000204600F037FCAA6AE96AD4F8D034C4F874
:1060B000D414C4F8D824296B6A6B04F5A060C4F822
:1060C000DC3400F07FFEA96B04F22C50022200F0B9
:1060D0000DFEE96B04F5A960022200F007FE296CB1
:1060E00004F26450022202B0BDE8F04100F0FEBDAF
:1060F000900B0020981200203954000845540008E5
:1061000033860008647C0108B166000800000020A6
:10611000177D010872780108747801087678010803
:10612000787801087A78010870B510210646202297
:106130000F4802F045F80E4801F016FF1F28FADD5F
:106140000A24102C0A4808BF002401F015FF06EBB2
:1061500044050002A881064801F00EFFAB89092C16
:1061600043EA0000A88101D00134EAE770BD00BF16
:10617000A01D002070B5102106460C4802F034F82E
:10618000002433191D8A0948290A01F03BFF023413
:106190000648E9B201F036FF0C2CF2D1034802F0B8
:1061A0008BF8D0F1010038BF002070BDA01D002089
:1061B00070B50A2671430446A1F50855FFF7B4FFF0
:1061C000638A2E3D23F4FF7395FBF6F523F001035C
:1061D0001D436FEA45456FEA554565822046FFF746
:1061E000C9FF2046FFF7A0FF238C5A04F9D52046AB
:1061F000FFF79AFF638A2046C3F30E036382FFF71B
:10620000B9FF2046FFF790FF238C5B04F9D470BDE3
:1062100038B5054C0546294604F2D440FFF7C8FFBF
:10622000C4F84C5238BD00BF900B0020154B40F213
:106230008F30D3F84C32834219D0B3F5647F08DA3B
:1062400040F26F3293420FD040F27D32934216D02B
:1062500013E040F2A93293420CD040F2CB32934289
:106260000BD140F2F5300AE040F27D3007E040F219
:10627000A93004E040F2CB3001E040F26F30FFF78C
:10628000C7BF00BF900B002038B50D462A49044611
:1062900091F84030284601F590617BB302F091FA05
:1062A00050B1482C04D0502C06D12448244901E098
:1062B00022482449FFF758FC2846234902F081FA76
:1062C00050B1482C04D0502C06D120481C4901E084
:1062D0001E481C49FFF748FC28461D4902F071FA88
:1062E00040B3482C04D0502C24D11A48144901E062
:1062F00018481449BDE83840FFF736BC02F061FA8F
:1063000018B1502C01D1FFF759FD28460E4902F073
:1063100058FA20B1502C02D1074800F057FB28460C
:106320000B4902F04EFA28B1502C03D1BDE8384099
:10633000FFF77CBF38BD00BF900B00207C780108C0
:106340008E780108947801080010002099780108DF
:1063500020100020AB78010830B5264C85B0FFF73F
:106360002FFB204600F054FB04F5A06000F051FD27
:1063700004F594610546684602F0BFF9694628466F
:10638000FFF73AFD684602F054F904F22C5000F091
:10639000CDFC04F58E610546684602F0AEF969460B
:1063A0002846FFF771FF684602F043F904F5A9603B
:1063B00000F0BCFC04F590610546684602F09DF9CA
:1063C00069462846FFF760FF684602F032F904F29A
:1063D000645000F0ABFC04F592610546684602F09B
:1063E0008CF928466946FFF74FFF684602F021F90D
:1063F00005B030BD900B002038B50C460546FFF7C0
:1064000093FE002C03DB0F2CA8BF0F2400E0002418
:10641000EB8A284623F00F031C43EC82BDE838408A
:10642000FFF7A8BE38B5054C0546294604F2D4400E
:10643000FFF7E2FFC4F8485238BD00BF900B0020C0
:106440002DE9F341044618461D4690460DF01AFA10
:10645000754906462846FFF71DF801A90A22074696
:10646000404602F0DAF8714801A9FFF7EFFB204639
:106470006F49FFF70FF808B16E4B5E6420466E4916
:10648000FFF708F808B16B4B1F7420466B49FFF704
:1064900001F818B16A48314600F0A3FA204669496C
:1064A000FEF7F8FF08B1FFF773FD20466649FEF7D7
:1064B000F1FF18B165485C49FFF756FB2046644977
:1064C000FEF7E8FF08B1FFF7BFFC20466149FEF781
:1064D000E1FF08B1FFF77CFC20465F49FEF7DAFFD9
:1064E00008B1FFF713FD20465C49FEF7D3FF08B162
:1064F000FFF7E0FC20465A49FEF7CCFFA0B1284642
:106500005849FEF7C7FF08B1FFF72CFC284656494B
:10651000FEF7C0FF08B1FFF73BFC28465349FEF7E2
:10652000B9FF08B1FFF74AFC20465149FEF7B2FF18
:1065300000282FD028464F49FEF7ACFF08B1FFF7DF
:10654000A9FB28464C49FEF7A5FF08B1FFF7C0FBA1
:1065500028464A49FEF79EFF08B1FFF7D7FB2846B9
:106560004749FEF797FF18B1324B986CFFF7DEFBF7
:1065700028464449FEF78EFF18B12E4BD86CFFF722
:10658000D5FB28464049FEF785FF18B1294B186D09
:10659000FFF7CCFB20463D49FEF77CFF10B13046AB
:1065A000FFF7C4FB20463A49FEF774FF30B1284696
:1065B0003849FEF76FFF08B1FFF738FE204636492D
:1065C000FEF768FF10B13046FFF72CFF2046334935
:1065D000FEF760FF50B128463149FEF75BFF10B16E
:1065E000144B586C00E03046FFF712FE20462D4950
:1065F000FEF750FF10B1124800F0E8F920462A4992
:10660000FEF748FF18B10E48294600F01BFA204655
:106610002649FEF73FFF18B10948314600F0AFF9AF
:1066200002B0BDE8F08100BF92770108BE78010892
:10663000CA78010800000020E67801080079010806
:10664000900B0020187901082B7901088177010847
:106650003D790108507901086379010876790108CC
:106660008B7901080C7A0108DF7701089979010814
:10667000A0790108D7770108DA770108AF79010816
:106680009B7A0108B5790108B9790108BE7901083A
:10669000D1790108DF790108E4790108F979010865
:1066A0000F7A0108157A0108257A0108377A01085E
:1066B0002DE9F04F87B000AF82468846C7F804D076
:1066C0001546002A76D0D31D23F00703ADEB030D4A
:1066D0000EF0FCF8073020F007006E464146ADEBA7
:1066E000000D07F1080001F0E6FF6A1C07F1080041
:1066F0003146002302F073F850462F210EF00EF8B9
:106700006C4683460025BBF1000F0CD00BF1010055
:106710002F210EF003F883461DB9204659460EF08E
:1067200077F80135EFE720460EF0D0F8611C0246FD
:1067300020460DF0B5FCAA000A3222F00702ADEBAC
:10674000020D05F1FF39E846D5B91C482146FFF78F
:106750007DFA1B483146FFF779FA204641464A4602
:106760003346FFF75DFA3346204641464A46FFF777
:1067700067FE07F1080001F05CFF7B689D4619E0A9
:10678000504610490EF076F958460E490EF072F94F
:10679000EA460123AB42D8DA0A4900203B600EF0FA
:1067A00069F901464AF8040F0748FFF74FFA3B68BA
:1067B0000133EFE71C37BD46BDE8F08F4D7A010885
:1067C0005C7A0108C84C01086D7A010810B50021F7
:1067D0000446008801F0BEF9A088002101F0BAF952
:1067E000A088002101F030FA2088002101F02CFA65
:1067F000012001F05BFB0121208801F025FA012036
:1068000001F054FB134801F023FC2046FFF78CFCF9
:106810004FF4014363832046FFF7ACFC4FF4FA705A
:1068200001F044FB2046FFF77FFC44F20103238282
:10683000A38A204643F4C053A382E38A23F00F03C4
:1068400043F01103E382FFF795FCBDE810406E2092
:1068500001F02CBBA01D002038B52848284C4FF46F
:10686000165102F067FB27482749FFF731F9B4F8C2
:106870005400002101F06EF92088002101F06AF92E
:10688000A088002101F066F92089002101F062F959
:10689000A08D002101F05EF9208800211B4D01F040
:1068A000D3F9A088002101F0CFF90121B4F85400F8
:1068B00001F0CAF905F2D440FFF788FFA06DFFF799
:1068C000B1FD606CFFF7A4FC4FF4FA7001F0EEFA32
:1068D0002088012101F0B8F9A088012101F0B4F964
:1068E0002846E16D00F07DF82846216E00F047F85B
:1068F00028460749BDE8384000F0A4B8701F0020C2
:1069000000000020E55B000879540008900B00208F
:106910006077010838B580E80E004FF4AF730025AA
:10692000C3631E230446C362C5600561456185617A
:10693000C561856288B2294601F00CF9A088294614
:1069400001F008F92089294601F004F9204638BDF4
:1069500001238361704710B500210446008801F0CF
:10696000EFF9A088002101F0EBF920890021BDE8B2
:10697000104001F0E5B900228261FFF7ECBF8369A6
:1069800070B5012B044681621CD10269642392FB1D
:10699000F3F201FB02F6426992FBF3F201FB02F50E
:1069A000C268008892FBF3F35943C9B201F0C8F9F9
:1069B000A088F1B201F0C4F92089E9B2BDE87040C5
:1069C00001F0BEB970BD816AFFF7D9BF8269012AA3
:1069D00006D1816A0129D4BFC16A4910FFF7CFBF30
:1069E0007047C1627047026B836B10B59A420446D0
:1069F0000DD9C3690BB9FFF7AEFFE369E26BD3F1C1
:106A0000010338BF0023E361236B1344A36310BD6C
:106A100010B5044601F048FA94F82530206313B10C
:106A20002046FFF7E0FFA369012B04D12046BDE813
:106A30001040FFF7C8BF10BD006A7047806A7047FA
:106A40008069704738B50446002380F8243080F808
:106A500025300D46216208462649FEF7CFFB18B9BE
:106A6000FF23E3602361636128462349FEF7C6FBE9
:106A700018B9FF23E3602061606128461F49FEF7D3
:106A8000BDFB18B9FF23E0602361606128461C4903
:106A9000FEF7B4FB18B9FF23E0602061636128466C
:106AA0001849FEF7ABFB18B9FF23E060236163616F
:106AB00028461549FEF7A2FB18B9FF23E3602061C1
:106AC000636128461149FEF799FB18B9FF23E3607B
:106AD0002361606128460E49FEF790FB20B9FF2331
:106AE000E360A523236160612046BDE83840FFF7DD
:106AF0006ABF00BF807A0108607701087B770108D0
:106B0000867A01088B7A0108907A0108987A010840
:106B10009F7A010813B5084C002100910A460B46E4
:106B2000204601F03BFC0549054A204602B0BDE87D
:106B300010400CF099BE00BF10110020395400081D
:106B40009812002038B5044601F0AEF92346002122
:106B50006518013100220A2985F8C82003F10403D1
:106B60005A6243F8040CC3F89C20F1D1C4F8FC200D
:106B7000204638BDD0F8FC30092B0ADC002300EB9E
:106B80008302926A1AB101330A2BF8D101E0184648
:106B900070474FF0FF3070472DE9F04104460F4633
:106BA00016469846FFF7E6FF051E16DBAEB104EB6E
:106BB00085006319012207658662C0F8788083F832
:106BC000C82001F071F944F82500D4F8FC302846BB
:106BD0000133C4F8FC30BDE8F0814FF0FF30BDE870
:106BE000F0810023FFF7D8BF092910B511DCD0F8D8
:106BF000FC4074B100EB81039A6A52B10022014457
:106C0000013C9A6281F8C8201A65C3F8A020C0F838
:106C1000FC4010BD70B5064601F046F906F12403AC
:106C200000220021C3F8B01053F8041FE9B153F853
:106C3000281C9C6A451AA54217D3214443F8281CF6
:106C4000B11891F8C81081B1196D09B901210AE094
:106C50009C6F8C4209DA01252C448C42C3F8AC505D
:106C60009C6702DB0221C3F8AC1001320A2AD8D19A
:106C700034460025D4F8D430012B08D0022B08D19B
:106C8000A36A984730462946FFF7AEFF01E0A36AA2
:106C9000984701350A2D04F10404EBD170BD092990
:106CA00003DC0144012381F8C8307047092903DC63
:106CB0000144002381F8C8307047000013B5084C28
:106CC000002100910A460B46204601F067FB05496A
:106CD000054A204602B0BDE810400CF0C5BD00BF1B
:106CE000181100203954000898120020F8B58EB20F
:106CF00004460D4630461146174600F02BFF4FF470
:106D0000FA620023022FE2604FF001020CBF6272B0
:106D100063723046636025602374A3720CBF2372D4
:106D20002272617A00F090FF2046F8BD10B504464B
:106D300001F0BAF86061208800F0C8FFA27A6060B4
:106D4000237C4AB9B3B9217A884213D10123A372B3
:106D500001F0AAF8A0611AE063B9217A884209D14A
:106D6000A369E2681A446369934210D9012323742A
:106D7000482010BD617A884209D10AB92D2002E06D
:106D8000002BFBD150200023A372237410BD2D20B3
:106D900010BD000013B5084C002100910A460B46B7
:106DA000204601F0FBFA0549054A204602B0BDE83D
:106DB00010400CF059BD00BF2011002039540008CC
:106DC000981200202DE9F04115461FFA81F804467B
:106DD0000E464046AFB2022100F0BCFE384602210A
:106DE00000F0B8FE4046012100F02EFF3846012198
:106DF00000F02AFF0123E36023616361A3610023A4
:106E00006660A560E36123626362A3622046BDE819
:106E1000F081002310B504460370808800F056FF0F
:106E2000E060208900F052FFE368626920619342CC
:106E300002D1A26990423CD0012B6361A06106D1CE
:106E4000012801D1002309E048B9032306E033B942
:106E5000012801D1E06102E008B90223E361E3699E
:106E6000226A23629A1A82EAE271A1EBE271022994
:106E700062620DD0012A01D0D01C02D1A26A013277
:106E800005E0511C01D0032A02D1A26A013AA26294
:106E90007BB9A26A002A04DDA362012323703E208D
:106EA00010BD04D001222270A3623C2010BD2370CB
:106EB000A3622D2010BD000013B5084C00210091E5
:106EC0000A460B46204601F069FA0549054A204664
:106ED00002B0BDE810400CF0C7BC00BF2811002074
:106EE0003954000898120020013101EB420291420E
:106EF0000BD0030F092B94BF3033373301F8013C1B
:106F00000023000101F8023BF1E770471F4B10B569
:106F10001A88032A04D804200146188006F012FCBF
:106F20004FF000604FF4A04106F002FC0124184B22
:106F3000184821461C7006F011FE05F0B9FC05F05A
:106F40008FF92146402006F0D3FF6FF07F4005F017
:106F500009FBE72005F082FB0F4B1C7005F0CAF916
:106F60007D2006F0F5FF18B10C4B1C7007F004F8FB
:106F700040F6B83005F027FA05F070FF06F0E0F9AA
:106F8000074A01231370074A137010BD68200020C0
:106F900048200020000430009C1F00200C2A002004
:106FA0000C200020C81F002038B52F4C2388042B4C
:106FB00004D805210420218006F0C4FB2B4D2B783A
:106FC00013B12B4802F09CF92B7853B12388052B81
:106FD00005D8254B06210420198006F0B3FB02F0EA
:106FE00023FA2B7863B1234B1B784BB9224B1B78C8
:106FF00033B1224B1B781BB9214B1B78002BE3D0FC
:10700000204B1B78002BDFD11F4B1B78002BDBD1D3
:107010001B4B1B78012B0FD01C4B6BB12388062B0D
:1070200005D8114B07210420198006F08BFBFFF7D0
:1070300013FC134B01221A70154B002BC4D023886C
:10704000072B05D8084B08210420198006F07AFB8D
:10705000FFF782F92388082BB6D8034B09210420B7
:10706000198006F06FFBAFE7682000200C2000209D
:107070005D780008C11F0020C81F00209A1F002053
:10708000301100209B1F00200C2A002059680008A6
:1070900059630008F8B5524B1A6812B11A68013AE0
:1070A0001A60504B504D1B783BB1504B1B78002B56
:1070B00028D04F4B002B47D124E04E4C2368264666
:1070C00013B12368013B0FE04B4B1B78D3B94B4BFB
:1070D0001B78BBB94A4B1B78A3B94A4F3B782BB1FD
:1070E000E72005F02FFB142323600BE02B78002B07
:1070F0002DD1E72005F0E0FA434B1B78002B34D06C
:10710000322333602B7833B1404C23781BB92EE007
:107110005A6801325A603E4B1A68B2F57A7F0FD333
:1071200000221A6006F042FE3A4B4FF6FF711A88B1
:107130008A4254D019800420BDE8F84006F002BB12
:107140001A6801321A60F8BD00F0D0FBDAE7324B62
:107150001B78002BCDD04FF6FF7005F003FAE72027
:1071600005F07CFA01233B70CCE76423C9E7234B8D
:107170001B788BB1294B47F22F5259689142C7D9DE
:10718000BFF34F8F264A274BD16801F4E0610B43D0
:10719000D360BFF34F8FFEE7174D2B7803F0FF0648
:1071A00033B9304605F0D6FB40F6B73398420DD8D8
:1071B000002005F0CFFB41F657339842ABD90020B1
:1071C00005F0D0FB184B01221A70A4E7304605F0F9
:1071D000C9FB2378002B9ED101232B709BE7F8BDC0
:1071E000142A0020282000200C200020CC1400208D
:1071F000ED780008102A0020B11F00209B1F0020FE
:107200009D1F00209C1F0020991F0020C11F0020EF
:10721000182A0020682000209A1F0020301100202A
:1072200000ED00E00400FA05AF1F002008B5094B8F
:10723000186005F0B9FD002005F002FE064805F0D3
:1072400033F805F0C9FD05F0E7FDBDE8084007F09B
:107250007BBD00BF34020020A0860100074B1B68E5
:10726000052B08D1064B1A7A012A04D1987A1B7B88
:10727000C01AC0B270470020704700BF6C200020C9
:10728000301100200D4B10B51B68052B13D10C4C91
:10729000237A012B0FD16289A389D31A012B04D140
:1072A00000230320237207F0A6FEA3895A1CA281A3
:1072B0001C44A07B10BD4FF0FF3010BD6C2000209F
:1072C0003011002008B50C4B1B68052B12D10B4B5D
:1072D0001A6D99180132B2F5807F08BF002281F83B
:1072E00054001A6505F02EFC20B16420BDE808406A
:1072F00004F0DABF08BD00BF6C2000203011002070
:10730000F8B5234B93F85421012A3FD0D3F85821E4
:10731000196DB2F5807F04BF0022C3F85821D3F85D
:1073200058411B4A8C4203D1002382F85431F8BDE6
:107330008CBFC4F58071C4EB0101C2F85C11D3F8B5
:107340005C61134D402EA2B207D94034403EC5F8CF
:107350005841C5F85C61402706E034440021B7B2CB
:10736000C5F85841C5F85C110A4801241044C021F1
:107370003A4683F8544107F0B9FD2046394607F0F4
:10738000BDFE2046BDE8F84007F022BEF8BD00BFB4
:107390003011002084110020094B10B593E814002F
:1073A00008331B68D0180AD006490822FFF79CFD55
:1073B000204605490422BDE81040FFF795BD10BDE9
:1073C000E8F7FF1FE3010020F301002013B5084C8C
:1073D000002100910A460B46204600F0DFFF0549D8
:1073E000054A204602B0BDE810400CF03DBA00BF8F
:1073F00090120020395400089812002038B5044635
:107400000D46AC4203D254F8043B9847F9E738BD27
:1074100008B507480749FFF7F1FF07480749FFF795
:10742000EDFFBDE8084006480649FFF7E7BF00BF8B
:10743000307E0108307E0108307E0108947E01080C
:10744000947E0108947E01080CF052BB08B5072019
:1074500006F09AF8FEE70000074A08B513681844DA
:107460001060064A904204D9082006F08DF80CF00E
:1074700001FA184608BD00BF68000020004800203F
:107480004FF0FF3070470120704708B50C2006F020
:107490007BF8FEE7014B1868704700BF9C12002084
:1074A000064B0246582000FB013101F1080303CBD3
:1074B0001060516018689060704700BF9C120020F7
:1074C000014BD3F8640170479C120020064B024622
:1074D000142000FB013101F5B67303CB106051603D
:1074E00018689060704700BF9C12002038B50546B0
:1074F000064C28B105F0D8F8012384F8303238BDA5
:1075000005F080F884F8305238BD00BF9C1200208E
:107510000E4B2DE9F041D3F8647180460024BC4243
:1075200011DA14256543094E414606F5B670284424
:107530000C220DF0FBF920B93544D5F86801BDE8FF
:10754000F0810134EBE70020BDE8F0819C120020BF
:10755000044B01221A70044B00224FF4C0201A6021
:1075600005F0E2BC9B1F002034110020034A0023D9
:107570001370034A136005F03BBD00BF9B1F002042
:1075800034110020024B00221A6005F0F3BC00BF4A
:10759000341100202DE9F04788B0804668460D463A
:1075A00001F089F81E4B0024D3F800A054452DDAD1
:1075B00055B3582666431A4F414607F10800304438
:1075C0000C2207F104090DF0B1F9E8B928460DF0D5
:1075D0007DF906F11003402834BF024640222946B7
:1075E00009EB0300FDF794FD3E44012386F8583073
:1075F000694604A8746801F080F804A8A04704460E
:1076000004A801F016F803E00134CFE74FF0FF348F
:10761000684601F00EF8204608B0BDE8F08700BFCC
:107620009C12002010B5064C206803F02FF9236847
:10763000013303D0431E5842584110BD012010BDF4
:107640006C00002070B50B4B05461B780C4673B9D7
:10765000094B1B785BB9FFF7E5FF034638B9074ACA
:10766000294610682246BDE8704004F0C9B84FF0C2
:10767000FF3070BDC01F0020C11F00206C00002023
:107680002DE9F041264B86B01B7880460F46002B33
:1076900041D1244B1B78002B3DD1FFF7C3FF04469B
:1076A000002838D1204D8DF80C008DF80D008DF894
:1076B0000E008DF80F00286806AA460902EB860620
:1076C000012100F01F02914056F80C2C01300A43B2
:1076D00046F80C2C41F28832059204AA009203A9C4
:1076E00022462346049403F06DFF002815DD2B6825
:1076F00006AA590902EB810151F80C5C03F01F0244
:10770000154115F0010008D0184641463A46234677
:1077100003F0F8FF01E04FF0FF3006B0BDE8F08164
:10772000C01F0020C11F00206C000020F0B51449CC
:1077300085B0064600F0BFFF124B01AC93E807008E
:1077400084E807000025675D30463B0903F13001FE
:10775000392984BF03F15701C9B207F00F0700F0C0
:10776000EEFF07F13001392984BF5737F9B23046AF
:10777000013500F0E4FF0C2DE5D1304605B0F0BD39
:10778000647C0108E8F7FF1F30B51E48ADF5797D30
:1077900007F01FFD002832D11B4B15A804931B4B8B
:1077A0005FAD05931A4B039006931A4B0CAC0793ED
:1077B000194B02950893194B0993194B0A93194BCE
:1077C0000B93194B0C93194B0D93194B0E93194BAB
:1077D0000F93194B1093194B1193194B1293194B8B
:1077E0001393194B149305F049FC284605F04CFC03
:1077F00000940448154902AA04AB07F0F1FC0DF50A
:10780000797D30BDD01400204576000881760008CF
:10781000517500086D750008B9D00008857500081D
:10782000ED740008A97E000895740008A174000892
:1078300095750008C1740008CD740008F97A000835
:107840001175000895D00008A9D00008E8F7FF1FBF
:10785000014808F0F6BA00BFD014002030B502206D
:107860008DB00146112203F0F3FD051E28DB07A8A9
:10787000144907F0D8FD0223ADF80C3016238DF81B
:107880000E3033238DF80F30E0238DF810300023B5
:107890008DF8113001238DF81230BB238DF8133091
:1078A000032403AB009310230193284607A9132256
:1078B000002303F0AFFF013CF3D1284603F0F6FDAF
:1078C0000DB030BDE8F7FF1F10B5074CFFF75CFFA8
:1078D000204607F081FC204607F0F5FF0446FFF73D
:1078E000BDFF204610BD00BFD014002038B5114C9C
:1078F000D4F8445A2DB1D4F8443A013BC4F8443A80
:1079000038BDD4F8483A0C4A52F8230004F052FE2D
:10791000E72004F0A3FE6423084AC4F8443AD4F8EC
:10792000483A526801339342C4F8483AA8BFC4F8B1
:10793000485A38BD9C120020CC4C01086C00002035
:107940007FB502200121062203F082FD041E24DB04
:107950000223ADF8003000238DF8023035238DF876
:1079600003304FF4FA5008238DF804308DF80530B9
:107970008DF806308DF8073001F0BAFC6946102208
:107980000546204603F0F0FD0646284601F0B0FC0F
:10799000204603F08BFD304601E04FF0FF3004B08D
:1079A00070BD000010B5064C2068002805DB03F010
:1079B0007DFD4FF0FF33236010BD002010BD00BFE0
:1079C0006C000020F0B5A7B0FFF7ECFF022001210A
:1079D000062203F03DFD324F0028386050DB314D68
:1079E0000223A5F84C3A162385F84E3A05A833230E
:1079F00085F84F3A05F00EFB002300939DF81430F4
:107A00003BB1012B17D0284B01AC03F1100E2246DD
:107A100002E0069B009313E018685968264603C6E7
:107A2000083373453446F7D10FCA06AC07C424F8AF
:107A3000023B1B0C23700A24009B0BB9013C22D192
:107A4000009B0BB9194B0093009B4FF4FA501A0E90
:107A500085F8502A1A0C85F8512A1A0A85F8533AE3
:107A600085F8522A01F044FC114904461022386876
:107A700003F07AFD0546204601F03AFC28460CE06A
:107A80004FF0FF3009E006A87E210CF0DBFF6A46CC
:107A900081B206A803F030FDCEE727B0F0BD00BFED
:107AA0006C0000209C120020A67A010804E5D03664
:107AB000E81C00200F4B2DE9F041D3F8647180469B
:107AC0000024BC4211DA142565430A4E414606F5EE
:107AD000B67028440C220CF029FF20B9354495F8E3
:107AE0007801BDE8F0810134EBE74FF0FF30BDE8ED
:107AF000F08100BF9C12002008B5FFF7DBFF0138C2
:107B0000082803D8024B1844007F08BD022008BD96
:107B1000CC4C010803F028BD37B50B4C002104F60E
:107B20005C250B4600910A46284600F037FC2846A3
:107B30000649074A0BF098FE04F50D7003B0BDE846
:107B4000304007F031BB00BF9C12002039540008C0
:107B50009812002014282DE9F34104460E4669D8F6
:107B6000FF2967D000F0ECFC20B1A4F10D039BB21B
:107B7000022B5FD900F0A6FB08B1012C5AD901F005
:107B800071F920B1A4F112039BB2012B52D92B4DF4
:107B900024012B192F59B3F80480294B9F4201D19E
:107BA000042003E0274B9F4203D10820012106F067
:107BB000ABF9ADF80480062E38D8DFE806F0040DE6
:107BC00013191F28310010238DF8073003238DF877
:107BD00006302C44002328E004238DF807302C4481
:107BE000012322E048238DF807302C4402231CE0B7
:107BF00028238DF807302C44032316E018238DF832
:107C0000073003238DF806302C4404230DE01C2399
:107C10008DF8073003238DF806302C44052304E04B
:107C200000238DF807302C440623A373384601A99E
:107C300005F03CFF02B0BDE8F08100BF74000020F9
:107C400000080140000C01401428F8B505460F4615
:107C500038D81D4E040133199B7B5A1ED2B2022A1A
:107C600030D9062B2ED0FF2B2CD000F069FC28B188
:107C7000A5F10D039BB2022B00D8F8BD00F022FB4A
:107C800010B1012D00D8F8BD01F0ECF828B1A5F134
:107C900012039BB2012B00D8F8BD33199B7B042B38
:107CA00003D128460021FFF755FF012F04D13219D7
:107CB000335992881A61F8BD27B93219335992881D
:107CC0005A61F8BDF8BD00BF74000020142870B5DB
:107CD000044602D94FF0FF3070BD184E05017319EC
:107CE0009B7B013BDBB2FD2BF4D800F029FC20B1DB
:107CF000A4F10D039BB2022BECD900F0E3FA08B11A
:107D0000012CE7D901F0AEF820B1A4F112039BB227
:107D1000012BDFD973199B7B062B09D1074B93F8F5
:107D200050114B1EDBB2FD2BD4D82046FFF712FFBB
:107D300073197059998805F007FF70BD7400002011
:107D40002DE9F043142889B00446884600F29E804D
:107D5000504F0601BB199B68002B00F0978000F084
:107D6000EFFB28B1A4F10D039BB2022B40F28E80F1
:107D700000F0A8FA10B1012C40F2888001F072F8EE
:107D800020B1A4F112039BB2012B7FD9BD19AB7BAB
:107D900013F0FB0F7AD1404B01201A683F4B01468C
:107DA000B2FBF3F94BF6803303FB08F8FF2398FB93
:107DB000F3F806F0A9F820460421FFF7CBFEAB68E4
:107DC00009F1FF39B3F1804F1FFA89F91FFA88F8DA
:107DD00002D10120014609E0314A934208BF022046
:107DE00003D0304A934203D10420012106F098F8D1
:107DF000BC1900254BF67F33A06801A9ADF8083007
:107E0000ADF80A50ADF80650ADF8049006F080F9D0
:107E10006023ADF81850A589ADF810300123ADF8F6
:107E20001230ADF8168045B9A06804A906F0BAF979
:107E3000A068082106F0F6FA1FE0042D08D1A0681A
:107E400004A906F0F3F9A068082106F0F3FA14E09B
:107E5000082D08D1A06804A906F02CFAA0682946CC
:107E600006F0F2FA09E00C2D07D1A06804A906F08B
:107E700063FAA068082106F0EFFA3E44B0680121D9
:107E800006F0C4FAB068012106F09DFA09B0BDE819
:107E9000F08300BF740000202403002000366E0130
:107EA000000400400008004005F040B930B54FF430
:107EB0007A7385B01C4C0093236805460344236005
:107EC00005F034F9019005F071FF05F02FF90290EB
:107ED000029A019BD31A0393039B002B03DA019BA5
:107EE000029A13440393039BAB421AD20F4B1B78A5
:107EF000002BE8D00E4B1B78002BE4D1039A009B9B
:107F00009A4203D22368B3F57A7FDCD3039B03F54F
:107F10007A73009301F088FA064B1B78002BF9D195
:107F2000D1E705B030BD00BFBC1F00200C200020F1
:107F3000C11F00209B1F002013B5084C0021009199
:107F40000A460B46204600F029FA0549054A204614
:107F500002B0BDE810400BF087BC00BF2C1D002014
:107F60003954000898120020024B18785B78C01A28
:107F7000704700BF341D0020064B5A781978914293
:107F800004D99918013288785A7070474FF0FF3041
:107F9000704700BF341D0020054B5A781978914274
:107FA00002D91344987870474FF0FF30704700BFF4
:107FB000341D002070470000014B0360704700BF74
:107FC000404D010810B5034B04460360FFF73CFA2F
:107FD000204610BD404D0108F8B5094B054693F801
:107FE0002230164653B10C468F18BC4206D02B687F
:107FF00028469B6814F8011B9847F6E73046F8BD01
:10800000341D002010B50C4B012293F822408CB196
:1080100093F823401F2C02D94260002010BD93F832
:1080200024001C1884F82510411CC9B283F82410C0
:1080300083F82310104610BD341D0020002242603A
:108040004FF47A728260014A02607047004D010865
:1080500038B51C4C00254FF40010012165702570C7
:1080600084F8245084F8235005F05AFF012005219C
:10807000FFF770FD28460521FFF76CFD124805F05B
:10808000B3FD4BF6FF73A4F84E3094F85830A4F8C3
:108090004C500BB9A4F850304FF48063A4F8523020
:1080A0004FF48043A4F85430084B07480849A364B0
:1080B00005F0B4FD0448012105F01EFE012384F8FB
:1080C000593038BD341D002000540040A086010006
:1080D0007C1D00202DE9F84333480C4601219046D1
:1080E0001F4605F015FEFFF7DFFE05462E482F4917
:1080F00005F03EFE28B9FFF7D7FE401B0A28F5D948
:1081000027E021462848012205F02BFEFFF7CCFE90
:1081100004462548264905F02BFE28B9FFF7C4FE82
:10812000001B0A28F5D914E0FFF7BEFEB8F1200FB6
:1081300028BF4FF0200806460024E5B2C5EB08032F
:1081400013F0FF0908D0FFF7AFFE801B09280ED9F6
:1081500002E00020BDE8F8831348012105F0F0FD9E
:10816000144B00225A701D702846BDE8F883B9F1FF
:10817000010F09D1012F07D10B48002105F0E0FDC7
:108180000948394605F0D0FD07480B4905F0F0FDD8
:108190000028D8D0044805F0E1FD084B1855FFF73A
:1081A00083FE01340646C8E7005400400100030086
:1081B00002000300341D002040000300361D002093
:1081C000C9B2D2B20123FFF785BF0000054B0122DF
:1081D00083F82220002283F85A1083F8242083F8A1
:1081E00023207047341D0020C9B2FFF7EFBF000005
:1081F0002DE9F0412A480E46012105F089FDFFF7DF
:1082000053FE04462648274905F0B2FD38B9FFF76A
:108210004BFE001B0A28F5D90420BDE8F081224C52
:108220001F4894F85A10002205F09BFDFFF73CFE12
:1082300005461B481D4905F09BFD28B9FFF734FE94
:10824000401B0A28F5D9E7E794F823700025EBB224
:108250009F4215D0164B1248595D05F07DFDFFF782
:1082600023FE80460E48134905F082FD30B9FFF722
:108270001BFEC8EB00000A28F4D9CDE70135E6E77C
:10828000012E03D10648314605F04EFD002084F84A
:10829000240084F8230084F82200BDE8F08100BFA8
:1082A0000054004001000300341D0020820007003C
:1082B000591D0020840007000121FFF799BF704776
:1082C00070470000014B93F859007047341D00209F
:1082D00073B50E4C002104F164050D4E0B46009160
:1082E0000A46284600F05AF86C34324609492846B6
:1082F0000BF0BAFA2046FFF7A1FE074920463246A6
:1083000002B0BDE870400BF0AFBA00BF341D0020D2
:108310009812002039540008B97F000808B5034BB3
:1083200053F8203003B1984708BD00BFB01D0020AE
:1083300013B5084C002100910A460B46204600F078
:108340002DF80549054A204602B0BDE810400BF063
:108350008BBA00BFF01D002039540008981200208D
:108360002DE9F041002407460E4625463B191979B0
:108370000A22304600F0B2F82E218046304600F046
:108380007EF801344044032C0544EFD13046F9799E
:108390000A2200F0A3F82844BDE8F08130B58371CB
:1083A000034D9DF80C30056001714271C37130BD01
:1083B000284D0108024A02600A684260704700BF07
:1083C000284D01080548064B06490360064A00236C
:1083D000037143718371C3710BF046BAF81D00201D
:1083E000284D0108395400089812002013B5084C94
:1083F000002100910A460B462046FFF7CFFF0549B2
:10840000054A204602B0BDE810400BF02DBA00BF6F
:10841000001E00203954000898120020014B036010
:10842000704700BF404D0108F8B506460C468F184E
:108430000025BC4207D0336830469B6814F8011B06
:1084400098470544F5E72846F8BD000010B5034BF2
:1084500004460360FEF7F8FF204610BD404D0108BA
:1084600038B505460C46084641B10CF02FFA2B688A
:108470000246DB6828462146984738BD38BD08B516
:1084800003689B68984708BD30B500238BB08DF812
:108490002430012A98BF0A220DF12304B1FBF2F324
:1084A00003FB1211CDB2092D94BF30353735EDB233
:1084B000214604F801590BB11946EFE7FFF7D0FF49
:1084C0000BB030BD10B522B90268C9B292689047AE
:1084D00010BDD2B2BDE81040FFF7D6BFFFF7F2BF24
:1084E00013B5084C002100910A460B462046FFF7C1
:1084F00055FF0549054A204602B0BDE810400BF083
:10850000B3B900BF101E0020395400089812002093
:1085100013B5084C002100910A460B462046FFF790
:108520003DFF0549054A204602B0BDE810400BF06A
:108530009BB900BF181E0020395400089812002073
:10854000014B587D704700BF201E0020704700007F
:1085500013B5084C002100910A460B462046FFF750
:108560001DFF0549054A204602B0BDE810400BF04A
:108570007BB900BF381E0020395400089812002033
:1085800013B5084C002100910A460B462046FFF720
:1085900005FF0549054A204602B0BDE810400BF032
:1085A00063B900BF441E002039540008981200200F
:1085B00010B504460CF08AF9013823462044834262
:1085C00006D21A78017803F8011B00F80129F6E7B2
:1085D00010BD38B5931EDBB2222B0C461BD8A8B1B8
:1085E0000B46B0FBF2F102FB1100C5B2092803F8FB
:1085F000015BD4BF3035573503F8015C09B108463B
:10860000EFE719702046FFF7D3FF02E030230B702D
:108610004870204638BD002038BD031E10B50C46FA
:1086200003DA2D2001F8010B5842FFF7D2FF204654
:1086300010BD10B5044600680BF05AFA204610BD74
:1086400010B50446006808B10BF052FA002323600D
:10865000A360636010BD38B504460D460068013163
:108660000BF0F2FD10B184E82100012038BD036851
:1086700010B5044613B143688B4207D22046FFF77A
:10868000EAFF20B1A3680BB922681370012010BD66
:1086900070B50E46114604461546FFF7E8FF18B9B7
:1086A0002046FFF7CDFF04E0A560206831460CF0BE
:1086B000AFF8204670BD38B5002304460360436020
:1086C000836003730D4639B108460CF0FFF8294664
:1086D00002462046FFF7DCFF204638BD884210B531
:1086E0000B46044607D0096819B19A68FFF7D0FF16
:1086F00001E0FFF7A5FF204610BD10B5002304469A
:108700000360436083600373FFF7E8FF204610BDFA
:1087100070B5044685680E4609B9002070BD62B187
:1087200015442946FFF7A3FF0028F6D02068A36868
:10873000314618440CF06CF8A560012070BD07B5F7
:1087400000238DF80410012201A98DF80530FFF7F0
:10875000DFFF03B05DF804FB0B4610B509689A68AB
:108760000446FFF7D5FF10B92046FFF769FF204602
:1087700010BD38B504460D4641B108460CF0A6F8C8
:10878000294602462046FFF7C3FF10B92046FFF7EF
:1087900057FF204638BD03680A680BB15AB905E097
:1087A00022B1896811B11078404270473BB18068AE
:1087B00030B11878704718461146FCF71FBD1846AF
:1087C000704708B582688B689A4206D1FFF7E3FFCD
:1087D000D0F1010038BF002008BD002008BD38B529
:1087E0000C469AB191B181688B4202D30023237069
:1087F00038BDC91A551E8D4228BF0D4601682A464C
:10880000194420460CF0ECF80023635538BD13B52D
:10881000026802AB03F8011DD46819460122A04783
:1088200002B010BD10B5B0F81622B0F814320446EC
:108830009A4207D0B4F814325A1CA4F814221C44EB
:10884000207D10BD03681B6998470028F2D14FF0C6
:10885000FF3010BD10B5B0F81622B0F8143204463F
:108860009A4204D0B4F814321C44207D10BD036831
:108870001B6998470028F5D14FF0FF3010BD002349
:10888000A0F81432A0F816327047F8B51746B0F8C1
:108890001432B0F8162204469A420E4606D10368F6
:1088A0001B69984710B94FF0FF3512E0B4F8143245
:1088B000B4F81652E118ED1ABD4228BF3D463046C5
:1088C00014312A46FCF724FCB4F814322B44A4F8E3
:1088D00014322846F8BD10B504460069082801D0B6
:1088E00002F0E4FD0823236110BD30B5B0F8163264
:1088F00087B0044633B1B0F814229A4202D103681B
:10890000DB69984700F040FB022838D1206908282D
:1089100035D0B4F81632B3F5007F30D2430906AA39
:1089200002EB8303012100F01F02914000258DF826
:108930000C508DF80D508DF80E508DF80F5053F8E7
:108940000C2C01300A4343F80C2C41F28833059378
:1089500004AB009303A92A462B46049502F032FE8D
:10896000A8420CDD206906AB420903EB820252F8F3
:108970000C2C00F01F0342FA03F3DB0706D4B4F813
:108980001602B4F81432C01A07B030BDB4F816227B
:108990002B46A1181431C2F5007202F0B3FE002874
:1089A000EDDDB4F816320BB9A4F814320344A4F880
:1089B0001632E4E7F0B585B004460D46164600F0E1
:1089C000E3FA0228074634D10121062202F040FDD5
:1089D000002820612DDB23682046DB699847330A95
:1089E0008DF802302B794FF4FA508DF804306B7902
:1089F0008DF803608DF80530AB79ADF800708DF817
:108A00000630EB798DF8073000F072FC69460546B8
:108A100010222069FFF77EF80646284600F068FC21
:108A2000002E04DA23682046DB6A984701E0012023
:108A300000E0002005B0F0BD2DE9F04188B0064609
:108A40000F46904600F0A0FA02284FF0000422D111
:108A500008AD384645F8144D0BF038FF2A4681B270
:108A6000384602F049FDA04215DD039B04A8DAB2A6
:108A70000092190EC3F30742C3F30723FFF78EFCDE
:108A8000336830461C6A064B06A90693059B42468E
:108A90000793A04700E0204608B0BDE8F08100BF82
:108AA000284D01084FF47A71816005490022016068
:108AB000082142600161A0F81422A0F81622704734
:108AC000584D0108036910B5082B044601D1002058
:108AD00010BD00F059FA0228F9D1206901F0D6FE44
:108AE000D0F1010038BF002010BD70B504460E461D
:108AF0001546FFF7E7FF38B1206931462A460023C3
:108B0000BDE8704002F07CBE4FF0FF3070BD38B55C
:108B10000446FFF7D7FF01281BD0B4F81622B4F89B
:108B200014329A4217D12069082803D001F0AEFE12
:108B3000012801D000250FE0236820461B699847D3
:108B4000051C18BF01253DB923682046DB6A9847FC
:108B500002E0054600E00125284638BD08B5FFF7CC
:108B6000B1FF003018BF012008BD000013B5084C4C
:108B7000002100910A460B462046FFF70FFC0549ED
:108B8000054A204602B0BDE810400AF06DBE00BFA5
:108B90004C1E0020395400089812002013B5084CD0
:108BA000002100910A460B462046FFF7F7FB0549D6
:108BB000054A204602B0BDE810400AF055BE00BF8D
:108BC000541E0020395400089812002038B5184C63
:108BD00094F92C305BB394F82D3043B305F0F4F9DD
:108BE00094F82C2094F82D5051B2002995FBF1F106
:108BF00006DD01290BDC013A84F82C20002307E074
:108C0000013104DB013284F82C20022300E001232F
:108C100094F82D20013A84F82D20C41805F008FAA4
:108C2000204605F0E5F9BDE8384005F001BA38BD49
:108C30005C1E002013B5084C002100910A460B462B
:108C40002046FFF7ABFB0549054A204602B0BDE8C8
:108C500010400AF009BE00BF8C1E002039540008E5
:108C60009812002013B5084C002100910A460B46CB
:108C70002046FFF793FB0549054A204602B0BDE8B0
:108C800010400AF0F1BD00BF981E002039540008C2
:108C900098120020014B0360704700BF404D01084F
:108CA0000369186C5B6CC01A00F03F0070470369E1
:108CB000196C5A6C914202D05A6C985C70474FF014
:108CC000FF3070470369196C5A6C914207D05A6C97
:108CD000985C5A6C013202F03F025A6470474FF0C0
:108CE000FF30704710B5034B04460360FEF7ACFB42
:108CF000204610BD404D0108436910B50446196C6B
:108D00005A6C9142FBD1237E13B90023237610BD08
:108D10000348402105F0D9FB0028F6D1F3E700BF56
:108D20000044004070B504460E462C4840F22771BE
:108D300005F0D1FB20B963691A6C5B6C9A4211D1C2
:108D400063691D6C013505F03F0563695A6C9542F6
:108D50000FD0EFF31082D20732D5196C5A6C9142C2
:108D600007D12DE01D4840F22771012205F08DFB4F
:108D7000E6E71A4840F2277105F0ADFB0028E4D081
:108D80001648802105F0A1FB0028DED0134840F2F0
:108D90002771002205F079FB636910485A6C511C59
:108DA0005964995C05F089FB63690C485A6C40F280
:108DB000277102F03F025A64012205F066FBC4E706
:108DC0001A6C06489E54636940F227711D640125A0
:108DD00025762A4605F059FB284670BD0044004020
:108DE00010B51E4840F2255105F075FB78B11B48BF
:108DF00005F067FB1A4BC0B25A6D996D013202F053
:108E00003F028A4203D0596D5A65194408751348C8
:108E100040F2277105F05FFBF8B1114CD4F89C20AB
:108E2000D4F8A0309A4207D1BDE810400B4840F278
:108E30002771002205F029BBD4F8A03007485A1C3E
:108E4000234493F85C10C4F8A02005F036FBD4F856
:108E5000A03003F03F03C4F8A03010BD0044004030
:108E6000A01E0020014B187C704700BFA01E0020F0
:108E7000F7B5164C002504F1A406154F2B462946DC
:108E80002A4600953046FFF789FA3A46304611499E
:108E90000AF0EAFC4FF47A73C4F8B4300E4B0F4971
:108EA000C4F8AC3004F11403C4F8BC3004F1AC00D5
:108EB00004F15C033A46C4F8B050C4F8C03084F8FA
:108EC000C45003B0BDE8F0400AF0CEBCA01E0020A4
:108ED0009812002039540008984D0108958C00081C
:108EE00070474FF0FF307047014B0360704700BF81
:108EF000404D010810B5034B04460360FEF7A4FA89
:108F0000204610BD404D0108FEF7BCB908B5FEF77C
:108F1000A5F908BD08B50846FEF7D4F9012008BD3B
:108F2000002242604FF47A728260014A0260704708
:108F3000C04D01080846FEF779B9000037B50D4C61
:108F400000210D4D0B4600910A462046FFF726FAF8
:108F50002A460A49204608340AF086FC2046FFF7D4
:108F6000DFFF074920462A4603B0BDE830400AF03B
:108F70007BBC00BF681F00209812002039540008F5
:108F8000E98E000870470000054B1B7803F0FF00D6
:108F90002BB1044B1B78002B14BF0220012070471B
:108FA000B01F0020981F002037B50B4C00210B4D3F
:108FB0000B4600910A462046FFF7F0F92A46204664
:108FC00007490AF051FC074904F108002A4603B09A
:108FD000BDE830400AF048BC801F002098120020F5
:108FE00039540008858F0008002303601846704735
:108FF000002303601846704700230360184670473B
:109000002DE9F0410B7886B0002B0C4614BF90463A
:109010004FF0000806460BF059FC074620460BF0BF
:1090200055FC182301931E23012502930223039369
:10903000059000950494404631463A46002302F0DC
:109040001DFD034B18705D7006B0BDE8F08100BFD8
:109050008C1F002048F20202904210B524D006DC9A
:1090600099284DD048F20102904213D010BD48F229
:109070008002904207D0B0F5084F45D048F2100268
:10908000904252D129E0294B01229A70DA700022D5
:109090001A7110BD254C01236371FEF705FF00F521
:1090A000EA403030A06010BD204C637963B1FEF718
:1090B000FBFE00F5EA403030A0604FF47F4003F043
:1090C00051FAE72003F0CAFA002363712373637334
:1090D000A373E3732374637410BD0A7D134B62B9E9
:1090E0009A604FF47F4001221A731A7403F03AFA1F
:1090F000BDE81040E72003F0B1BA00221A7310BD9A
:109100000A4B01229A7410BD0846002100F0BFFFEF
:109110000121044601F002F8054B1B689C4204D172
:10912000024B0022DA739A735A7310BD8C1F002011
:109130006C0000201FB54FF461504FF461610A22AA
:1091400000238DE80F00064B44F620621A60684643
:1091500001A902AA03AB01F09FFC05B05DF804FB76
:10916000242000201FB50023009301930293039352
:1091700001A8694602AA03AB01F054FC05B05DF8F2
:1091800004FB000030B5544D00249FB0FF20AC70AC
:10919000EC706C706C712C73AC746C73AC73EC739E
:1091A0002C7403F0DFF9E72003F058FA2146224639
:1091B000204602F03FFC2B46012103F8144F0E20FD
:1091C0000A4601F0EFFC6B79012B05D1642003F016
:1091D00063F801F0C3F8F6E710210C2001F02EFD32
:1091E0003E4802F0F1F83E4802F09AFD012002F0FC
:1091F0007BFD68463B4900F0CDFDAB786A78364C84
:109200001A431CD194F82330002B5AD0FF2002F0CF
:109210001DFD002855D11A24013C06D0E72003F09B
:109220004BFA322003F038F8F6E70E2001212246EF
:109230002D4BEC7401F0B6FC85F82340DDE7E72008
:1092400003F00CFA04F113030E200121002201F0B7
:109250007BFCA37813B102F083FD20702B780121F1
:109260000133EB740022204B0E2001F09BFC002008
:1092700001240146012202F0DDFB214622461B4B60
:109280000E202C7501F08EFC02F058FB642003F0D8
:1092900003F8002002F01CFB85F824404FF47F40C7
:1092A00000242C7403F05EF9E72003F0D7F948F2AC
:1092B000442002F0E7FCFFF73DFF85F825401FB092
:1092C00030BDE72003F0F8F9FA2002F0E5FF684628
:1092D00000F0BCFD91E700BF8C1F0020E04D0108AD
:1092E000C8010020019000089F1F0020A01F00203F
:1092F000024B1A6818601046704700BF24200020F7
:109300007FB53D4C0025A06203F07EFC03F0BEFB60
:109310003A4B3B4A00933B4B3B4901933B4B3C4808
:1093200002933C4B03933C4B02F0BAFA642002F0E8
:10933000B3FF002002F0CCFA012348F2442084F865
:109340002430257402F09EFC344B1A881E46012AF4
:109350002FD00E2010212A4604F1130301F0F4FB54
:10936000102826D12379244D9BB9EB7C1BB901230E
:1093700085F825300DE0287D58B90146012202F01C
:1093800059FB01212B4603F8141F0E200A4601F059
:1093900009FC237943BB184B93F8253023B32048AD
:1093A00001F032FCFFF7DEFE04B0BDE87040FFF7CD
:1093B000C1BEFF2002F04AFC00210E2001F03EFC5D
:1093C00010210E2001F03AFC0021102215480AF06D
:1093D000CDFE10210022134B0E2001F0E3FB0023F1
:1093E000338003F05DFDBDE74FF47F4003F0BAF832
:1093F000E72003F033F9D2E78C1F002045CB0008AB
:10940000F18F000859CB0008E98F0008C5CB000890
:1094100055900008EDCB0008F98F000816030020D6
:10942000B81F00209F1F00202DE9F341A54C04F038
:10943000BDFC0023236394F834304BB994F83530E5
:1094400033B9A3687BB3FEF72FFDA36898422AD3F4
:1094500094F824309B4D002B40D000266E71AE60F6
:109460002E73AE6385F83460012785F824606E732F
:10947000AE73EE736E7402F061FA6FF07F402F747A
:1094800003F070F8E72003F0E9F8642002F004FF2D
:1094900095F8253013B3304602F01AFA85F8247097
:1094A000FFF770FE1AE094F82430864DB3B92B799B
:1094B0002BB9FEF7F9FC00F5EA403030A860002037
:1094C00002F006FA012384F824304FF47F40002391
:1094D000237403F047F8E72003F0C0F894F8253030
:1094E000784E13B1FFF74EFE06E0337923B1337B9C
:1094F00003F0FF05002B6BD0E278724B012A13D1E9
:109500001A7B012A10D15B79012B0DD103256E48FE
:109510000BF0DCF9013D82B26B49012002F086F9C3
:1095200015F0FF05F3D1E57094F83C30654D33B983
:109530006B7B002B64D1AB7B002B61D1BEE02B7B1E
:10954000FBB195F83530E3B96B7B002B68D018E0A0
:109550002B4603F8162F0E200121032201F022FBD7
:1095600000264FF6FF70267402F0FCFFE72003F0A0
:1095700075F8FEF727FAB042524D78DB0123AE634F
:109580006B73637B4F4D002B00F09880AB7BBBB9B6
:10959000FEF79AF9002811D002DA4FF47F0007E0B5
:1095A000012801D1494803E0022803D14FF0FF1000
:1095B00002F0D8FFE72003F051F801E00123AB737C
:1095C000FEF746F9002879D1E073A073607375E067
:1095D00029462A462846B56002F02CFA3C480BF092
:1095E00075F93C4F804638460BF070F900970190B2
:1095F000791F032042462B4602F0B6F935717BE70E
:10960000FEF7D0F900234FF47F40E373A373637335
:1096100002F0A8FFE72002B0BDE8F04103F01EB859
:10962000642002F039FE05F13D0001F07BFA6B7C0D
:10963000002B95D04FF47F0002F094FF637C214D06
:1096400003F0FF02002B83D0E72003F007F84FF46C
:10965000FA7002F021FEE72003F00EF84FF4FA70E2
:1096600002F01AFE6B7C013BDBB26B74E6E795F807
:1096700034301BBBAB6B0133022BAB6304BF012344
:1096800085F83430FEF75CF900280ADAA36B013361
:10969000022BA36303D10B4B012283F83420022356
:1096A00000E003236374637C0E20A37501210A4B41
:1096B000032201F077FA0023637362E702B0BDE88A
:1096C000F08100BF8C1F0020CB0100200060FF0054
:1096D000D2010020D7010020A21F002013B5084CA2
:1096E000002100910A460B462046FEF757FE054929
:1096F000054A204602B0BDE810400AF0B5B800BFE8
:10970000042000203954000898120020704708B542
:10971000012003F039FFFEE708B5032003F034FF12
:10972000FEE708B5042003F02FFFFEE708B505208B
:1097300003F02AFFFEE770477047704708B503F053
:10974000EDFCBDE80840FDF7A5BC000008B5024BE4
:109750000BB1AFF3008008BD0000000008B5024B5C
:109760000BB1FFF73DFB08BDE18D000808B5024BCA
:109770000BB1FEF7A4FD08BDBF82000808B5024B7F
:109780000BB1FEF79DFD08BDC182000808B5024B74
:109790000BB1FEF7DBFE08BD4D85000808B50120C2
:1097A00004F0F6F838B1012004F000F9024B13B1CF
:1097B0000020FEF7B3FD08BD1D83000808B5022098
:1097C00004F0E6F838B1022004F0F0F8024B13B1CF
:1097D0000120FEF7A3FD08BD1D83000808B5042085
:1097E00004F0D6F878B1042004F0E0F80020064B2D
:1097F0000146188002F0E8FFBDE808400348102148
:10980000012204F0FABD08BD44200020002C0140D4
:1098100008B5082004F0BCF838B1082004F0C6F8F8
:10982000024B13B10320FEF779FD08BD1D8300082C
:1098300008B5102004F0ACF838B1102004F0B6F8E8
:10984000024B13B10420FEF769FD08BD1D8300081B
:1098500008B5202004F09CF838B1202004F0A6F8C8
:109860000E4B13B10520FEF759FD402004F090F88F
:1098700038B1402004F09AF8084B13B10620FEF7E7
:109880004DFD802004F084F838B1802004F08EF87B
:10989000024B13B10720FEF741FD08BD1D830008F0
:1098A00008B54FF4005004F073F840B14FF4005085
:1098B00004F07CF8174B13B10D20FEF72FFD4FF489
:1098C000804004F065F840B14FF4804004F06EF839
:1098D000104B13B10E20FEF721FD4FF4004004F0B1
:1098E00057F840B14FF4004004F060F8094B13B151
:1098F0000F20FEF713FD4FF4006004F049F838B173
:109900004FF4006004F052F8BDE8084002F04EBC8D
:1099100008BD00BF1D83000808B51048102104F0E1
:10992000A5FDC8B10D48102104F0ABFD002003F0E7
:1099300001F830B90A4B1A8892B20A3292B21A80F0
:1099400008BD06481021002204F057FDBDE808407C
:109950000020012102F038BF08BD00BF002C0140EB
:109960004420002008B5012004F078FB50B101200C
:1099700004F084FB044B0BB1FFF728F9BDE8084065
:1099800004F056BB08BD00BFCD8B000808B502200F
:1099900004F064FBB0B10C4B00224FF400301A709D
:1099A00004F004F8012004F02BFA10B1012004F0B7
:1099B00031FA04F03DFB022004F060FBBDE80840F2
:1099C00004F036BB08BD00BFC11F002002F080BB01
:1099D00000F062B838B514490B78012B23D1134A33
:1099E00013680BB90B7038BD114C402B206881B245
:1099F00005D94030403B20601360402504E09DB213
:109A000003442360002313600A482A460844C02107
:109A100005F06CFA0120294605F070FBBDE83840DE
:109A2000012005F0D5BA38BD841200208C12002028
:109A3000881200208411002008B5094B01221A70F9
:109A4000084B002203201A8005F088FB064B0246D3
:109A500018804FF488710548BDE8084005F05EBAEB
:109A6000381100203C1100203A1100203E11002046
:109A7000074B1B68052B09D1064B1A68511C052A98
:109A8000196003D100221A60FDF73ABC704700BF8D
:109A90006C2000201020002070B52B4D2B4C2B6823
:109AA0002B4E9BB22380228833881340990508D51A
:109AB0004FF6FF532B60A3780133DBB2A370FFF79F
:109AC000D7FF2288338813401A0401D505F058F9CE
:109AD0002288338813405B0505D54FF6FF332B6092
:109AE0001C4B5B689847228833881A40900444BF17
:109AF0004DF6FF722A6022881340D90405D54EF630
:109B0000FF732B60002003F0FDFC22883388134094
:109B10001A050BD5104B1B7813B103F0D3FC02E0F0
:109B2000022003F0EFFC4FF2FF732B602288338892
:109B30001340DB0507D54FF6FF632B600720BDE818
:109B4000704003F0DFBC70BD445C00401420002076
:109B5000582A00203C02002038030020034B9B7A47
:109B600013B1034B05221A60704700BF342A00204E
:109B70006C200020014B04221A6070476C200020EA
:109B8000034B1A78202A04BF00221A70704700BFC6
:109B90001820002070470000212810B508D1114B73
:109BA0001B681B7803F07F03212B10D0022010BD0F
:109BB0002028FBD10B4B0C4A1B681B78107003F05C
:109BC0007F03212B094B18BF00230BB9EEE7084B8D
:109BD000044A002412682046936154829847204624
:109BE00010BD00BF542A002018200020419C00080E
:109BF000299C0008074B1B681B7803F07F03212B6F
:109C000006D100F0DF00022814BF022000207047B8
:109C100002207047542A002009B102207047012811
:109C2000FBD808467047000020B9034B08221B6888
:109C30001A82704701487047542A002034020020DD
:109C400020B9034B08221B681A82704701487047ED
:109C5000542A00203402002010B5FDF79DFB054B6F
:109C600000241B689C7203F015FC05F08DFA024B72
:109C70001C6010BD542A00206C200020334B344A55
:109C80001B68D27910B500245A729C72DC7220468F
:109C900005F056F920464FF4007105F059F92046B9
:109CA000102105F063F92046402105F0FBF98021E1
:109CB000204605F0E7F9204605F0B0F9254B20468F
:109CC00093F8341005F028FA204605F094F90120A5
:109CD000214605F03DF90120C02105F0D3F901200E
:109CE000202105F043F90120214605F058F9022012
:109CF0004FF4C06105F02CF902204FF4807105F09B
:109D0000C1F90220214605F04AF90220202105F080
:109D10002DF90320214605F01BF903204FF488712B
:109D200005F0C0F90320402105F0F6F903204FF4B7
:109D3000405105F034F90320214605F017F920467B
:109D400004F0B2FF044B01221A6010BD542A002017
:109D50004D4E0108340200206C200020014904F01F
:109D60009FBD00BF6C020020014904F099BD00BFF7
:109D700074020020054B1B68DB78042B04D80449CF
:109D800001EBC30104F08CBD00207047542A002071
:109D90007C02002038B504460D46FFF7C1F8204686
:109DA00025614FF41651FFF7C5F8204638BD70B550
:109DB00006460D46002428460AF088FD844208D253
:109DC000295D3046FFF7A6F8012002F065FA01345C
:109DD000F1E770BD2DE9F04104460E46904600259E
:109DE0002046FFF793F80028FADD2046FFF78CF8AD
:109DF0004545C1B206D10023337020461249FFF712
:109E0000D6FF15E00D29F6D00A29F4D0082901D093
:109E10007F2904D1002DE3D0771E013D02E0771C9D
:109E2000317001352046EDB2FFF774F83E46D7E7B2
:109E30002046FFF76BF8002803DD2046FFF764F8A3
:109E4000F6E7BDE8F08100BF627C0108F0B585B09F
:109E50000446FFF75BF8002840F39D802046FFF79B
:109E600053F8C0B2772868D104F1140600212122EA
:109E7000304604F135050AF079F9412200212846DF
:109E80000AF074F904F17607002384F8763020464E
:109E900042497B70FFF78BFF204631462022FFF7B7
:109EA00099FF20463E49FFF782FF012220463946AE
:109EB000FFF790FF94F87630A3F13002D2B2032A74
:109EC000EFD8312B0BD120463649FFF770FF2046E3
:109ED0003549FFF76CFF20463449FFF768FF94F8D7
:109EE0007620B2F1300708D020463149FFF75FFFF6
:109EF000204629464022FFF76DFF20462D49FFF7F7
:109F000056FF23693A4630462946984720462A4953
:109F1000FFF74DFF20462949FFF749FF2046284912
:109F2000FFF745FF20462749FFF741FF2046264916
:109F3000FFF73DFF2046254928E069282BD1244B17
:109F400001AD93E8070085E8070020462149FFF7A7
:109F50002EFF0026AF5D20463B0903F13001392971
:109F600084BF03F15701C9B207F00F07FEF7D2FF14
:109F700007F13001392984BF5737F9B2204601363D
:109F8000FEF7C8FF0C2EE5D11349204605B0BDE809
:109F9000F040FFF70CBF05B0F0BD00BFB67A010876
:109FA000BD7A0108EA7A0108207B01084B7B010891
:109FB000917B01089C7B0108DF7B0108FF7B010886
:109FC000327C0108657C0108A47C0108D57C01086D
:109FD000E8F7FF1FEB7C0108627C010813B5084C11
:109FE000002100910A460B462046FEF7D7F90549A5
:109FF000054A204602B0BDE8104009F035BC00BF5C
:10A000001C2000203954000898120020002100F084
:10A0100004B80E4B5B58435004310D480D4B4218A9
:10A020009A42FFF4F6AF0C4A00F003B8002342F85E
:10A03000043B0A4B9A42FFF4F9AF03F0B1F9FCF785
:10A0400065FFFDF7E5F9FCF7AFFF7047947E010867
:10A0500000000020900B0020900B0020642A0020BC
:10A06000FFF7FEBF0B0A017043700B0C090E8370E3
:10A07000C170043070470170090A417002307047A6
:10A0800043185A78435C03EB022080B2704710B546
:10A0900043189A78DC78415C120402EB0462587829
:10A0A0000A4402EB002010BD73B544790023022C52
:10A0B00001930FD0032C19D0012C2BD1164D2B69F5
:10A0C0002E4623B12B6901A898470246B8B9B1685A
:10A0D00001201BE0104DEB682E4623B1EB6801A870
:10A0E0009847024658B9B16802200FE00A4D6B69E3
:10A0F0002E464BB16B6901A89847024620B1A9686A
:10A100002046BDF8043003E0B16803200022134666
:10A1100000F024FC02B070BD9C210020072830B55F
:10A1200012D8012910D8EFF3108472B601258540AA
:10A1300001FA00F0054B1A6822EA050202431A6090
:10A140002346DB0700D462B630BD00BFC402002046
:10A1500070B5012186B00546FFF792FF430404461F
:10A160002AD5B0F5824F27D128460521FFF788FF71
:10A1700005EB8000EE1D0024C51DAE4206D0304622
:10A180000221FFF77DFF04360444F6E7724B1A8E76
:10A1900092B2224492B21A86DA6B1444DC63D96B11
:10A1A0009A6B914240F0CA8093F84020002A00F058
:10A1B000C5809B69992031E024F4FF4020F07F00A6
:10A1C00080B2002800F0978048F210039C4228D00B
:10A1D0000CD8B4F5004F40F2BC8048F202039C4218
:10A1E00015D948F204039C4211D0B2E048F2800332
:10A1F0009C420CD004D848F240039C424FD0A8E0C7
:10A20000B4F5024F03D0B4F5084F6BD0A1E0524B28
:10A210009A69002A00F092809B69204600210A4634
:10A2200067E00023EA1852790DF803200133042B6C
:10A23000F8D16B7A05F10D008DF80430AB7A8DF80A
:10A240000530EB7A8DF806302B7B8DF80730002334
:10A2500000AA1A44C15C0133042B1172F8D105F134
:10A260001100002300AA1A44C15C0133042B1173AE
:10A27000F8D105F11500002300AA1A44C15C01338E
:10A28000042B1174F8D12B798DF81430324B9A6964
:10A29000002A53D09B6920466946152229E00535DE
:10A2A00000212846FFF7F3FE042100902846FFF71F
:10A2B000EEFE082101902846FFF7E9FE0C210290EE
:10A2C0002846FFF7E4FE102103902846FFF7DFFE43
:10A2D000214B04909A69002A30D09B692046694638
:10A2E000142206E01C4B9A6942B39B692046691D03
:10A2F0000122984722E041F203039C4205D0A4F5D5
:10A3000080530E3B9BB2012B1AD86C1D20460421B2
:10A31000FFF7BDFE39301CD12A790F4B00212046B2
:10A32000DA62FFF7B4FE042105462046FFF7AFFED0
:10A33000393003D128460121FFF7F0FE012009E062
:10A34000054B1B889BB29C4204D0B4F5805FF5D1CD
:10A3500000E0002006B070BD9C21002070B50E4CBE
:10A360006688B6B2B6B1606805782B1F5D425D4164
:10A370002DB1FFF7EDFE003018BF012000E02846A8
:10A38000064618B935B194F841301BB900236380F3
:10A3900001F0B4FD304670BD9C2100202DE9F04F46
:10A3A00085B004468A46914602F0C0FE0025019021
:10A3B000DFF83083B8F8023046469BB2002B40F0FD
:10A3C000938003F0F3FC02F0B1FE0290029A019B2D
:10A3D000D31A0393039B002B03DA019B029A1344C5
:10A3E0000393BF4B1B68002BE2D0039A9A42DFD342
:10A3F000338841F207029BB2934227D841F206020A
:10A40000934261D240F2022293425DD00FD80C2BCE
:10A4100008D8082B58D2002B4FD0062B88BF00231A
:10A420005AD851E00D2B4CD040F201220BE041F202
:10A43000020293424BD8B3F5805F45D8B3F5017F54
:10A440003FD940F20722934237D13AE041F211025C
:10A45000934236D014D841F20B02934234D005D83F
:10A4600041F2090293422FD031D82AE041F20F0283
:10A4700093422CD028D841F20D02934227D01CE001
:10A4800042F2060293421CD007D8B3F5005F14D9FC
:10A4900042F20402934221D813E0B3F5804F00F05A
:10A4A000EE8105D8A3F50053083B012B09D904E040
:10A4B00044F20B02934200F0E2810B2003F064F8B7
:10A4C000DDE1FF232370DAE14FF0FF3304E04FF0CA
:10A4D000FF3323606360D2E12360D0E12046002196
:10A4E0003A2209F043FECAE1D8F804603378042B1D
:10A4F00040F0798130460121FFF7C2FD0546304624
:10A50000FFF726FE002840F0638141F207039D42D9
:10A5100006F1050755D841F206039D4280F0AE8052
:10A5200040F202239D4200F0A98014D80C2D09D8D6
:10A53000082D80F0A380002D00F04A81062D00F246
:10A54000E5809BE00D2D00F0968040F201239D42B6
:10A5500000F091803CE141F202039D4218D8B5F52C
:10A56000805F00F28B80B5F5017F40F2848040F27D
:10A5700007239D4240F02C813379384604F8013B93
:10A580000021FFF784FD01462046FFF76BFD1FE128
:10A5900041F204039D4200F08B8040F2A58000212F
:10A5A0003846FFF774FD042120603846FFF76FFD41
:10A5B000083444F8040C06F10D03224606F11D018F
:10A5C0006FE041F211039D4255D02BD841F20B03AD
:10A5D0009D4253D01CD841F209039D424ED000F257
:10A5E000908000213846FFF752FD04212060384654
:10A5F000FFF74DFD082160603846FFF748FD0C214C
:10A60000A0603846FFF743FD04F10C0BE060DEE08C
:10A6100041F20F039D4267D036D841F20D039D42AF
:10A6200046D0D5E042F206039D4224D00BD8B5F5C2
:10A63000005F40F2CD8042F204039D4288BF0023B8
:10A6400000F2888017E042F208039D42C0F0C0800B
:10A6500042F209039D420ED944F20B039D4240F0A1
:10A66000B780737938460121A8F83030FFF708FD2C
:10A67000A8F83200ACE033792370A9E03846002115
:10A68000FFF705FD2060A3E000213846FFF7FFFC3F
:10A69000A3464BF8040B04213846FFF7F8FC606032
:10A6A00095E053F8040B8B4242F8040BF9D18FE08C
:10A6B00000213846FFF7EBFC042120603846FFF705
:10A6C000E6FC082160603846FFF7E1FCE36804F12E
:10A6D000080B3933A0607AD10121FFF71FFD76E026
:10A6E000242000209C21002000213846FFF7CFFCC9
:10A6F000042120603846FFF7CAFC083444F8040CF3
:10A7000066E0337923713B68236061E000213846BD
:10A71000FFF7BDFC042120603846FFF7B8FC082194
:10A7200060603846FFF7ACFC0A21A0603846FFF7AE
:10A73000A7FC0C3444F8020C06F11103224606F182
:10A74000350153F8040B8B4242F8040BF9D11B88F6
:10A7500013803DE0F2185279E2540133042BF9D111
:10A7600006F109000023C15CE2180133042B1171CA
:10A77000F9D106F10D000023C15CE2180133042B6E
:10A780001172F9D106F111000023C15CE218013306
:10A79000042B1173F9D106F115000023C15CE218F6
:10A7A0000133042B1174F9D106F119000023C15CA7
:10A7B000E2180133062B1175F9D106F11F000023B1
:10A7C000C15CE2180133202B9176F9D100E05C46A0
:10A7D000B8F800202C4B92B2954236D100221A8054
:10A7E00083F8412031E0B8F836309BB26BB3304685
:10A7F000032196F802B0FFF743FC0746BAF1000FB9
:10A800000BD00421701DFFF742FC06F11501024632
:10A81000C9F800005046FAF77BFCCBEB07077B1E1C
:10A82000B3F5806F07D20BF10501204631443A465B
:10A83000FAF76EFC01E04FF0FF37B9F1000F01D0DD
:10A84000C9F800700023A8F836300023A8F80230B9
:10A8500001F054FB3378042B05D1B5F5805F02D1AC
:10A860003046FFF721FCB8F800309BB2002B7FF494
:10A870009FAD054BDB8E9BB2002B7FF499AD002082
:10A8800005B0BDE8F08F00BF9C21002007284FF0E5
:10A8900001030FD8EFF3108272B603FA00F0064BF3
:10A8A0001968134608420CBF00200120DB0702D4C0
:10A8B00062B6704718467047C4020020034B1880E8
:10A8C000084600210A46FFF769BD00BF9C21002011
:10A8D00010B5034B0124DC86BDE81040FFF75EBDD8
:10A8E0009C21002038B50346154601224A710C46CA
:10A8F000881D1946FFF7BFFB291D0570204601F092
:10A900006DFB002038BD38B5BDF814500C462B4403
:10A91000D518ADB202216171A071E271294604F12E
:10A920000800FFF7A8FB691D204689B201F056FB1D
:10A93000002038BD38B513440C469DB20221617128
:10A94000A0712946E27104F10800FFF794FB691D2C
:10A95000204689B2BDE8384001F040BB2DE9F84FF0
:10A960001C4604F1020B032301F107091FFA8BFBBC
:10A9700088710D464B71484659461646FFF77BFBDA
:10A98000B4F57A7F824605F10B0812D82146FFF70D
:10A9900072FB21465046FFF76EFB31464046224689
:10A9A000FAF7B6FBA11D284689B2BDE8F84F01F0C1
:10A9B00015BB4FF47A77B4FBF7F30BEB430189B285
:10A9C000FFF759FB39465046FFF755FB31464046E5
:10A9D0003A46FAF79DFBA4F57A74284640F2EE3128
:10A9E000A4B23E4401F0FAFAB4F57A7F84BFA4F52C
:10A9F0007A74A7B2A84688BF4FF47A74314628F813
:10AA0000054F4846224698BF0027FAF781FBA11C54
:10AA1000404689B2264401F0E1FA0FB13C46E3E733
:10AA2000BDE8F88FF7B51E46FF238DF80730194BA8
:10AA300000259C68475D63190135042D5F72F9D1CB
:10AA400000200D5C2318013004285D73F9D100212A
:10AA5000505C6318013104295874F9D104F11500D0
:10AA60000021FFF7FFFA0022B35C83540132042A6D
:10AA7000FAD12146142242F20100FFF733FF42F2DD
:10AA800001000DF10701FFF719FF9DF9070003B061
:10AA9000F0BD00BF9C2100202DE9F3411F46FF239C
:10AAA0008DF807301E4B0646D3F8088033680C46F5
:10AAB000013B122B9CBF142333600B6808F1090083
:10AAC000013B122B9CBF14230B6013681546013BFE
:10AAD000122B9CBF142313603B68013B122B9CBFBD
