:020000040800F2
:10500000005000200D8300080D7A00080F7A000878
:10501000197A0008237A00082D7A000800000000A1
:10502000000000000000000000000000377A0008C7
:10503000397A0008000000003B7A00083D7A000839
:10504000618300086183000861830008657C0008B3
:1050500061830008618300089D7A0008BD7A00081A
:10506000DD7A0008117B0008317B000861830008AD
:10507000618300086183000861830008CD7C00081B
:1050800061830008618300084D7A0008618300088D
:10509000D17C00086183000861830008517B00080F
:1050A000618300086183000861830008197C00089F
:1050B0006183000861830008618300086D7A00083D
:1050C0007D7A000861830008618300088D7A0008FA
:1050D00061830008618300085D7A0008618300082D
:1050E000A17B00088D7C000861830008000000009F
:1050F00000000000000000000000000000000000B0
:0C51000000000000000000005FF808F153
:10511000844641EA000313F0030349D1403A23D304
:105120000B6803604B6843608B688360CB68C36027
:105130000B6903614B6943618B698361CB69C3610F
:105140000B6A03624B6A43628B6A8362CB6AC362F7
:105150000B6B03634B6B43638B6B8363CB6BC363DF
:1051600040304031403ADBD230320BD30B68036021
:105170004B6843608B688360CB68C360103010312C
:10518000103AF3D20C3205D351F8043B40F8043BFB
:10519000043AF9D2043208D0D2071CBF11F8013BFF
:1051A00000F8013B01D30B8803806046704700BFC5
:1051B000082A13D38B07B1D010F00303AED0C3F18C
:1051C0000403D21ADB071CBF11F8013B00F8013BB6
:1051D000A4D331F8023B20F8023B9FE7043AD9D32D
:1051E000013A11F8013B00F8013BF9D20B7803704A
:1051F0004B7843708B7883706046704740EA010CAF
:105200001CF0070F27D1BDF1100DCDE90245CDE906
:1052100000676FF000064FF0000700BFF0E80223C0
:10522000F1E80245A242A2F1013C2CEA020C0CF08A
:10523000803C08BFBCF1000F40F0E580AB42A3F119
:10524000013C2CEA030C0CF0803C08BFBCF1000FC1
:1052500040F0D680E2E710F0030C21D020F00300EC
:1052600050F8042B5FEACC7C08D00FD211F801CBA8
:105270005FFA92F3B3EB0C0C10D17BB111F801CBB8
:105280005FFAA2F3B3EB0C0C08D13BB111F801CBE0
:105290005FFAB2F3B3EB0C0C00D10BB96046704768
:1052A000BDF1100DCDE90245CDE900676FF00006B4
:1052B0004FF0000711F0030C33D110F0040F0FD0A2
:1052C00050F8042B51F8044BA242A2F1013C2CEA05
:1052D000020C0CF0803C08BFBCF1000F40F0938042
:1052E00011F0040F99D051F8045B00BFF0E80223DD
:1052F000AA42A2F1013C2CEA020C0CF0803C08BF4F
:10530000BCF1000F79D1F1E80245A342A3F1013CC1
:105310002CEA030C0CF0803C08BFBCF1000F69D1F3
:10532000E4E721F00301BCF1020F20D03FDA51F88D
:10533000045B00BF50F8043B4FEA1525A3F1013C84
:105340002CEA030C0CF0803CB7EB0C2F03EA16227E
:1053500008BFAA4251D151F8045BBCF1000F82EAA8
:1053600003034FEA056208BF934240D1E2E751F8D8
:10537000045B00BF50F8043B4FEA1545A3F1013C24
:105380002CEA030C0CF0803CB7EB0C4F03EA1642FE
:1053900008BFAA4231D151F8045BBCF1000F82EA88
:1053A00003034FEA054208BF934220D1E2E751F8D8
:1053B000045B00BF50F8043B4FEA1565A3F1013CC4
:1053C0002CEA030C0CF0803CB7EB0C6F03EA16627E
:1053D00008BFAA4211D151F8045BBCF1000F82EA68
:1053E00003034FEA052208BF934200D1E2E719BA4E
:1053F00012BA0AE019BA22BA07E011BA2ABA04E0CE
:1054000019BA2ABA01E011BA22BA9CFA8CF0DDE985
:105410000067DDE902451DF1100D38B1B0FA80F0EA
:10542000C0F1180021FA00F122FA00F201209142A5
:1054300098BF8041704700BF014B0360704700BFB9
:10544000D82C010810B5034B0446036000F024FC7F
:10545000204610BDD82C0108F0B5012185B00546C5
:1054600001F034FDA0F13006072E044625D8164978
:10547000684601F0B1FC2846694601F015FD074673
:10548000684601F067FC0FB1B4B20EE00F49684600
:1054900001F0A2FC2846694601F006FD0546684673
:1054A00001F058FC65B1263CA4B22046032100F06F
:1054B00091FF204601F04AF804E04FF0FF3001E090
:1054C0006FF0010005B0F0BDD0560108D2560108BA
:1054D000F0B5012185B0044601F0F8FCA0F13006DA
:1054E000072E49D8684621460322072301F0F0FC25
:1054F0006846264901F0AEFC0546684601F02AFCE4
:105500007DB9684621460322062301F0E1FC684686
:105510001F4901F09FFC0746684601F01BFC0FB9CC
:105520002DE001251B49684601F056FC20466946DE
:1055300001F0BAFC0746684601F00CFC1FB1B6B298
:105540003046002110E01449684601F045FC204631
:10555000694601F0A9FC0446684601F0FBFB8CB1EA
:105560000A36B6B23046394600F034FF3046294696
:1055700000F0AAFF012007E04FF0FF3004E06FF0D9
:10558000010001E06FF0020005B0F0BDD456010843
:10559000D9560108D0560108D2560108F0B50121AC
:1055A00085B0054601F092FCA0F13006072E0446B6
:1055B00025D81649684601F00FFC2846694601F0D7
:1055C00073FC0746684601F0C5FB0FB1B4B20EE0AC
:1055D0000F49684601F000FC2846694601F064FC6A
:1055E0000546684601F0B6FB65B1263CA4B22046EC
:1055F000012100F0EFFE204601F062F804E04FF0D8
:10560000FF3001E06FF0010005B0F0BDD056010899
:10561000D2560108F0B5012189B0044601F056FCCC
:10562000A0F13007072F06463ED8032268462146E0
:1056300001F074FC1F4904A801F0CEFB204604A928
:1056400001F032FC054604A801F084FB55B1BFB25D
:105650000021384600F0BEFE684601F066FCC1B28B
:10566000384617E0144904A801F0B6FB204604A907
:1056700001F01AFC044604A801F06CFB74B1263E4C
:10568000B6B22946304600F0A5FE684601F04DFC52
:10569000C1B2304601F0ACF8012401E06FF0010422
:1056A000684601F057FB01E04FF0FF34204609B097
:1056B000F0BD00BFD0560108D256010808B5094810
:1056C000094900F0D7FB0948094900F0D3FB094814
:1056D000094900F0CFFBBDE808400848084900F040
:1056E000C9BB00BFDD56010859540008E95601083E
:1056F000D1540008F65601089D55000801570108CD
:10570000155600087047000013B5084C00210091A1
:105710000A460B46204601F01BFA0549054A204679
:1057200002B0BDE810400CF08BB900BF180B002090
:1057300039540008880C0020013101EB42029142EB
:105740000BD0030F092B94BF3033373301F8013CE2
:105750000023000101F8023BF1E770471F4B10B531
:105760001A88032A04D804200146188006F00CFA8F
:105770004FF000604FF4A04106F05AF90124184B95
:10578000184821461C7006F00DFC05F011FA04F0D3
:10579000E7FE2146402006F0C7FC6FF07F4005F091
:1057A00061F8E72005F0DAF80F4B1C7004F022FFD7
:1057B0007D2006F0DDFC18B10C4B1C7006F0ECFCF3
:1057C00040F6B83004F07FFF05F0C8FC05F038FF64
:1057D000074A01231370074A137010BD101A0020E6
:1057E000F01900200004300055190020B4230020D7
:1057F000B41900207019002038B52F4C2388042BD1
:1058000004D805210420218006F0BEF92B4D2B7809
:1058100013B12B4801F0E6FE2B7853B12388052BFA
:1058200005D8254B06210420198006F0ADF901F0BA
:105830006DFF2B7863B1234B1B784BB9224B1B7840
:1058400033B1224B1B781BB9214B1B78002BE3D0C3
:10585000204B1B78002BDFD11F4B1B78002BDBD19B
:105860001B4B1B78012B0FD01C4B6BB12388062BD5
:1058700005D8114B07210420198006F085F9FFF7A0
:105880001DFF134B01221A70154B002BC4D0238827
:10589000072B05D8084B08210420198006F074F95D
:1058A000FFF730FF2388082BB6D8034B09210420CB
:1058B000198006F069F9AFE7101A0020B41900202A
:1058C000E1600008691900207019002053190020B8
:1058D000200B002054190020B4230020BD560008DE
:1058E00005570008F8B5524B1A6812B11A68013A08
:1058F0001A60504B504D1B783BB1504B1B78002B1E
:1059000028D04F4B002B47D124E04E4C236826462D
:1059100013B12368013B0FE04B4B1B78D3B94B4BC2
:105920001B78BBB94A4B1B78A3B94A4F3B782BB1C4
:10593000E72005F087F8142323600BE02B78002B79
:105940002DD1E72005F038F8434B1B78002B34D0DD
:10595000322333602B7833B1404C23781BB92EE0CF
:105960005A6801325A603E4B1A68B2F57A7F0FD3FB
:1059700000221A6006F06EFB3A4B4FF6FF711A8850
:105980008A4254D019800420BDE8F84006F0FCB8E3
:105990001A6801321A60F8BD00F0EAFBDAE7324B10
:1059A0001B78002BCDD04FF6FF7004F05BFFE72093
:1059B00004F0D4FF01233B70CCE76423C9E7234BF9
:1059C0001B788BB1294B47F22F5259689142C7D9A6
:1059D000BFF34F8F264A274BD16801F4E0610B4398
:1059E000D360BFF34F8FFEE7174D2B7803F0FF0610
:1059F00033B9304605F02EF940F6B73398420DD84A
:105A0000002005F027F941F657339842ABD9002022
:105A100005F028F9184B01221A70A4E7304605F06A
:105A200021F92378002B9ED101232B709BE7F8BD31
:105A3000BC230020D0190020B4190020BC0E002087
:105A400071610008B823002050190020541900206B
:105A500056190020551900205219002069190020FC
:105A6000C0230020101A002053190020200B002012
:105A700000ED00E00400FA055819002008B5094BB4
:105A8000186005F011FB002005F05AFB064804F0F1
:105A90008BFD05F021FB05F03FFBBDE8084007F05A
:105AA0003FBA00BFCC010020A0860100074B1B6855
:105AB000052B08D1064B1A7A012A04D1987A1B7B50
:105AC000C01AC0B270470020704700BF141A0020EF
:105AD000200B00200D4B10B51B68052B13D10C4C6F
:105AE000237A012B0FD16289A389D31A012B04D108
:105AF00000230320237207F06AFBA3895A1CA281AA
:105B00001C44A07B10BD4FF0FF3010BD141A0020C4
:105B1000200B002008B50C4B1B68052B12D10B4B3A
:105B20001A6D99180132B2F5807F08BF002281F802
:105B300054001A6505F086F920B16420BDE80840DC
:105B400004F032BD08BD00BF141A0020200B002055
:105B5000F8B5234B93F85421012A3FD0D3F85821AC
:105B6000196DB2F5807F04BF0022C3F85821D3F825
:105B700058411B4A8C4203D1002382F85431F8BDAE
:105B80008CBFC4F58071C4EB0101C2F85C11D3F87D
:105B90005C61134D402EA2B207D94034403EC5F897
:105BA0005841C5F85C61402706E034440021B7B293
:105BB000C5F85841C5F85C110A4801241044C021B9
:105BC0003A4683F8544107F07DFA2046394607F0FB
:105BD00081FB2046BDE8F84007F0E6BAF8BD00BFFB
:105BE000200B0020740B0020094B10B593E8140023
:105BF00008331B68D0180AD006490822FFF79CFD1D
:105C0000204605490422BDE81040FFF795BD10BDB0
:105C1000E8F7FF1F7B0100208B01002013B5084C23
:105C2000002100910A460B46204600F091FF0549ED
:105C3000054A204602B0BDE810400BF001BF00BF8E
:105C4000800C002039540008880C002038B5044628
:105C50000D46AC4203D254F8043B9847F9E738BDEF
:105C600008B507480749FFF7F1FF07480749FFF75D
:105C7000EDFFBDE8084006480649FFF7E7BF00BF53
:105C8000A05A0108A05A0108A05A0108EC5A0108BC
:105C9000EC5A0108EC5A01080CF016B808B50720B8
:105CA00005F0F2FDFEE70000074A08B51368184446
:105CB0001060064A904204D9082005F0E5FD0BF07B
:105CC000C5FE184608BD00BF0000002000480020A7
:105CD0004FF0FF3070470120704708B50C2005F0E9
:105CE000D3FDFEE7014B1868704700BF8C0C002005
:105CF000064B0246582000FB013101F1080303CB9B
:105D00001060516018689060704700BF8C0C0020D4
:105D1000014BD3F8640170478C0C0020064B0246FF
:105D2000142000FB013101F5B67303CB1060516004
:105D300018689060704700BF8C0C002038B505468D
:105D4000064C28B104F030FE012384F8303238BD0F
:105D500004F0D8FD84F8305238BD00BF8C0C002010
:105D60000E4B2DE9F041D3F8647180460024BC420B
:105D700011DA14256543094E414606F5B6702844EC
:105D80000C220CF01FFE20B93544D5F86801BDE89F
:105D9000F0810134EBE70020BDE8F0818C0C00209D
:105DA000044B01221A70044B00224FF4C0201A60E9
:105DB00005F03ABA54190020240B0020034A0023AE
:105DC0001370034A136005F093BA00BF5419002002
:105DD000240B0020024B00221A6005F04BBA00BFD2
:105DE000240B00202DE9F04788B0804668460D4618
:105DF00000F0F2FF1E4B0024D3F800A054452DDA2A
:105E000055B3582666431A4F414607F108003044FF
:105E10000C2207F104090CF0D5FDE8B928460CF076
:105E2000A1FD06F11003402834BF02464022294656
:105E300009EB0300FFF76CF93E44012386F8583064
:105E4000694604A8746800F0E9FF04A8A047044666
:105E500004A800F07FFF03E00134CFE74FF0FF34E8
:105E6000684600F077FF204608B0BDE8F08700BF25
:105E70008C0C00202DE9F84F0446894600293DD0BE
:105E800000283BD01E4D2E68042E37D005F10807A0
:105E90004FF0000805F1040AB0450DDA57F8043C4C
:105EA0004B4505D1384621460C220CF08BFD28B31A
:105EB00008F101085837EFE74FF0580808FB06F8DB
:105EC00005EB080708F1100000214022C7F80490F4
:105ED00050440CF037FA0AEB0800002104300C2281
:105EE0000CF030FA2068616807F1080303C3A0686A
:105EF00001361860002387F858302E60BDE8F88F0F
:105F00008C0C002010B5064C206802F03FFE236880
:105F1000013303D0431E5842584110BD012010BD2B
:105F20000400002070B50B4B05461B780C4673B976
:105F3000094B1B785BB9FFF7E5FF034638B9074A01
:105F4000294610682246BDE8704003F0D9BD4FF0E5
:105F5000FF3070BD6819002069190020040000207E
:105F60002DE9F041264B86B01B7880460F46002B6A
:105F700041D1244B1B78002B3DD1FFF7C3FF0446D2
:105F8000002838D1204D8DF80C008DF80D008DF8CB
:105F90000E008DF80F00286806AA460902EB860657
:105FA000012100F01F02914056F80C2C01300A43E9
:105FB00046F80C2C41F28832059204AA009203A9FB
:105FC00022462346049403F07DFC002815DD2B684F
:105FD00006AA590902EB810151F80C5C03F01F027B
:105FE000154115F0010008D0184641463A462346AF
:105FF00003F008FD01E04FF0FF3006B0BDE8F0818E
:1060000068190020691900200400002030B51E48DE
:10601000ADF5797D07F0C9F9002832D11B4B15A8E1
:1060200004931B4B5FAD05931A4B039006931A4BD9
:106030000CAC0793194B02950893194B0993194B14
:106040000A93194B0B93194B0C93194B0D93194B46
:106050000E93194B0F93194B1093194B1193194B26
:106060001293194B1393194B149305F087F9284693
:1060700005F08AF900940448154902AA04AB07F018
:106080009BF90DF5797D30BDC00E0020255F00081D
:10609000615F0008A15D0008BD5D0008B9B300089C
:1060A000D55D00083D5D000859690008E55C000801
:1060B000F15C0008E55D0008115D00081D5D000849
:1060C0007D630008615D000895B30008A9B300086E
:1060D000E8F7FF1F014807F0A0BF00BFC00E002077
:1060E00030B502208DB00146112203F031FB051EB0
:1060F00028DB07A8144907F082FA0223ADF80C3018
:1061000016238DF80E3033238DF80F30E0238DF8F1
:10611000103000238DF8113001238DF81230BB238D
:106120008DF81330032403AB00931023019328460A
:1061300007A91322002303F0EDFC013CF3D128460C
:1061400003F034FB0DB030BDE8F7FF1F10B5074C6E
:10615000FFF75CFF204607F02BF9204607F09FFC75
:106160000446FFF7BDFF204610BD00BFC00E002053
:1061700038B5114CD4F8445A2DB1D4F8443A013B07
:10618000C4F8443A38BDD4F8483A0C4A52F82300CF
:1061900004F090FBE72004F0E1FB6423084AC4F814
:1061A000443AD4F8483A526801339342C4F8483A22
:1061B000A8BFC4F8485A38BD8C0C00207C2C0108BC
:1061C000040000207FB502200121062203F0C0FA5E
:1061D000041E24DB0223ADF8003000238DF80230CA
:1061E00035238DF803304FF4FA5008238DF804302E
:1061F0008DF805308DF806308DF8073001F0EAF99A
:10620000694610220546204603F02EFB0646284626
:1062100001F0E0F9204603F0C9FA304601E04FF002
:10622000FF3004B070BD000010B5064C2068002897
:1062300005DB03F0BBFA4FF0FF33236010BD0020F5
:1062400010BD00BF04000020F0B5A7B0FFF7ECFFC1
:1062500002200121062203F07BFA324F0028386029
:1062600050DB314D0223A5F84C3A162385F84E3AFF
:1062700005A8332385F84F3A05F04CF80023009326
:106280009DF814303BB1012B17D0284B01AC03F122
:10629000100E224602E0069B009313E0186859682E
:1062A000264603C6083373453446F7D10FCA06ACF9
:1062B00007C424F8023B1B0C23700A24009B0BB973
:1062C000013C22D1009B0BB9194B0093009B4FF46A
:1062D000FA501A0E85F8502A1A0C85F8512A1A0A13
:1062E00085F8533A85F8522A01F074F911490446A9
:1062F0001022386803F0B8FA0546204601F06AF922
:1063000028460CE04FF0FF3009E006A87E210CF093
:10631000B3FB6A4681B206A803F06EFACEE727B057
:10632000F0BD00BF040000208C0C00200D570108B8
:1063300004E5D036D81600200F4B2DE9F041D3F8F4
:10634000647180460024BC4211DA142565430A4E6C
:10635000414606F5B67028440C220CF033FB20B9F8
:10636000354495F87801BDE8F0810134EBE74FF052
:10637000FF30BDE8F08100BF8C0C002008B5FFF7AE
:10638000DBFF0138082803D8024B1844007F08BD02
:10639000022008BD7C2C010837B50B4C002104F607
:1063A0005C250B4600910A46284600F0D1FB2846A2
:1063B0000649074A0BF044FB04F50D7003B0BDE835
:1063C000304006F0DDBF00BF8C0C002039540008BF
:1063D000880C002014282DE9F34104460E4669D8A4
:1063E000FF2967D000F07EFC20B1A4F10D039BB221
:1063F000022B5FD900F040FB08B1012C5AD900F004
:10640000C9FE20B1A4F112039BB2012B52D92B4D2E
:1064100024012B192F59B3F80480294B9F4201D135
:10642000042003E0274B9F4203D10820012105F0FF
:1064300087FEADF80480062E38D8DFE806F0040D9C
:1064400013191F28310010238DF8073003238DF80E
:1064500006302C44002328E004238DF807302C4418
:10646000012322E048238DF807302C4402231CE04E
:1064700028238DF807302C44032316E018238DF8C9
:10648000073003238DF806302C4404230DE01C2331
:106490008DF8073003238DF806302C44052304E0E3
:1064A00000238DF807302C440623A373384601A936
:1064B00005F020FD02B0BDE8F08100BF0C00002017
:1064C00000080140000C01401428F8B505460F46AD
:1064D00038D81D4E040133199B7B5A1ED2B2022AB2
:1064E00030D9062B2ED0FF2B2CD000F0FBFB28B18F
:1064F000A5F10D039BB2022B00D8F8BD00F0BCFA49
:1065000010B1012D00D8F8BD00F044FE28B1A5F16E
:1065100012039BB2012B00D8F8BD33199B7B042BCF
:1065200003D128460021FFF755FF012F04D132196E
:10653000335992881A61F8BD27B9321933599288B4
:106540005A61F8BDF8BD00BF0C000020142870B5DA
:10655000044602D94FF0FF3070BD184E0501731983
:106560009B7B013BDBB2FD2BF4D800F0BBFB20B1E1
:10657000A4F10D039BB2022BECD900F07DFA08B117
:10658000012CE7D900F006FE20B1A4F112039BB262
:10659000012BDFD973199B7B062B09D1074B93F88D
:1065A00050114B1EDBB2FD2BD4D82046FFF712FF53
:1065B00073197059998805F0EBFC70BD0C00002030
:1065C000F0B54FF4004091B005F086FD0120014682
:1065D00005F0AAFD01214FF4C06005F0B1FD33487C
:1065E00005F0F6FA324B00240593324B2F48069300
:1065F0000A23089380230A934FF400730B934FF4FC
:1066000000630C9305A94FF400530E9301254FF43A
:1066100000274FF46026079409940D940F9405F019
:106620004FFB2548694600978DF804408DF80540DA
:10663000029603948DF8105005F004FA1F4869463D
:1066400000978DF804408DF80540029603948DF86C
:10665000105005F0F7F91848294605F017FA1648C2
:1066600005F026FA144805F028FA0028FAD1124855
:1066700005F027FA104805F029FA0028FAD10F484A
:10668000012105F003FA0D4805F012FA0B4805F058
:1066900014FA0028FAD1094805F013FA074805F062
:1066A00015FA0028FAD111B0F0BD00BF0800024071
:1066B0004C240140F4160020002401400028014031
:1066C000092870B504469CBF00F10A04A4B200F08A
:1066D00009FB38B1A4F10D039BB2022B02D84FF095
:1066E000FF3070BD00F0C8F900F054FD20B1A4F1F6
:1066F00012039BB2012BF2D9142CF0D8374D26018E
:10670000AB199A79FF2AEAD095F85211914206D036
:106710009B7B2046062185F85031FFF75BFE95F8FC
:106720005331012B05D1FFF74BFF2C4B002283F88F
:1067300053212E44B17995F85231284C8B420FD019
:106740002748012294F8513105F0CDF994F85131E0
:106750002448B179012205F0C6F9B37984F85231A1
:106760000021214C002344F8213001310A29F8D1BD
:106770001E4805F0D6FA1B48012105F0FCF91B481C
:10678000012105F0BBFA1648012105F088F91448EB
:10679000012105F09FF9022005F0C6FA0028FAD081
:1067A000022005F0CFFA0E48002105F078F90F48D5
:1067B000002105F0A3FA00231A4654F8230054F8E8
:1067C0002310013389B201EB10410A2B0A44F4D1A2
:1067D0001420B2FBF0F290B270BD00BF0C0000209C
:1067E0000024014000280140F41600200800024067
:1067F0002DE9F043142889B00446884600F29E80B3
:10680000504F0601BB199B68002B00F0978000F0E9
:1068100069FA28B1A4F10D039BB2022B40F28E80DD
:1068200000F02AF910B1012C40F2888000F0B2FC8F
:1068300020B1A4F112039BB2012B7FD9BD19AB7B10
:1068400013F0FB0F7AD1404B01201A683F4B0146F1
:10685000B2FBF3F94BF6803303FB08F8FF2398FBF8
:10686000F3F805F06DFC20460421FFF7B3FDAB689B
:1068700009F1FF39B3F1804F1FFA89F91FFA88F83F
:1068800002D10120014609E0314A934208BF0220AB
:1068900003D0304A934203D10420012105F05CFC6F
:1068A000BC1900254BF67F33A06801A9ADF808306C
:1068B000ADF80A50ADF80650ADF8049005F014FD9F
:1068C0006023ADF81850A589ADF810300123ADF85C
:1068D0001230ADF8168045B9A06804A905F04EFD48
:1068E000A068082105F08AFE1FE0042D08D1A068E9
:1068F00004A905F087FDA068082105F087FE14E0D3
:10690000082D08D1A06804A905F0C0FDA06829469B
:1069100005F086FE09E00C2D07D1A06804A905F05A
:10692000F7FDA068082105F083FE3E44B068012110
:1069300005F058FEB068012105F031FE09B0BDE850
:10694000F08300BF0C000020BC02002000366E0166
:10695000000400400008004004F068BD13B5084C76
:10696000002100910A460B46204600F0F1F8054947
:10697000054A204602B0BDE810400BF061B800BFE8
:106980001C17002039540008880C0020024B18788E
:106990005B78C01A704700BF24170020064B5A7856
:1069A0001978914204D99918013288785A70704741
:1069B0004FF0FF30704700BF24170020054B5A7876
:1069C0001978914202D91344987870474FF0FF30FC
:1069D000704700BF2417002070470000014B036080
:1069E000704700BFF02C010810B5034B044603604C
:1069F000FFF752F9204610BDF02C0108F8B5094BFD
:106A0000054693F82230164653B10C468F18BC4207
:106A100006D02B6828469B6814F8011B9847F6E7B8
:106A20003046F8BD2417002010B50C4B012293F816
:106A300022408CB193F823401F2C02D942600020E1
:106A400010BD93F824001C1884F82510411CC9B20D
:106A500083F8241083F82310104610BD241700205B
:106A6000002242604FF47A728260014A02607047ED
:106A7000B02C010870477047014B93F859007047DC
:106A80002417002073B50E4C002104F164050D4E4F
:106A90000B4600910A46284600F05AF86C343246FC
:106AA000094928460AF0CCFF2046FFF7D9FF0749DD
:106AB0002046324602B0BDE870400AF0C1BF00BFB8
:106AC00024170020880C002039540008DD690008D4
:106AD00008B5034B53F8203003B1984708BD00BFF9
:106AE000A017002013B5084C002100910A460B4660
:106AF000204600F02DF80549054A204602B0BDE8C1
:106B000010400AF09DBF00BFE01700203954000874
:106B1000880C00202DE9F041002407460E4625464A
:106B20003B1919790A22304600F0AAF82E21804636
:106B3000304600F076F801344044032C0544EFD190
:106B40003046F9790A2200F09BF82844BDE8F0812C
:106B500030B58371034D9DF80C30056001714271B1
:106B6000C37130BDD82C01080548064B06490360A7
:106B7000064A0023037143718371C3710AF060BF39
:106B8000E8170020D82C010839540008880C002090
:106B900013B5084C002100910A460B462046FFF72A
:106BA000D7FF0549054A204602B0BDE810400AF06B
:106BB00047BF00BFF017002039540008880C0020A0
:106BC000014B0360704700BFF02C0108F8B5064682
:106BD0000C468F180025BC4207D0336830469B68AE
:106BE00014F8011B98470544F5E72846F8BD000056
:106BF00010B5034B04460360FFF74EF8204610BD66
:106C0000F02C010838B505460C46084641B10BF09A
:106C1000A9FE2B680246DB6828462146984738BD06
:106C200038BD08B503689B68984708BD30B5002398
:106C30008BB08DF82430012A98BF0A220DF123046D
:106C4000B1FBF2F303FB1211CDB2092D94BF303525
:106C50003735EDB2214604F801590BB11946EFE77B
:106C6000FFF7D0FF0BB030BD10B522B90268C9B232
:106C70009268904710BDD2B2BDE81040FFF7D6BF72
:106C8000FFF7F2BF13B5084C002100910A460B46EE
:106C90002046FFF75DFF0549054A204602B0BDE8E2
:106CA00010400AF0CDBE00BF001800203954000883
:106CB000880C002013B5084C002100910A460B46B1
:106CC0002046FFF745FF0549054A204602B0BDE8CA
:106CD00010400AF0B5BE00BF081800203954000863
:106CE000880C0020014B587D704700BF1018002011
:106CF0007047000013B5084C002100910A460B466E
:106D00002046FFF725FF0549054A204602B0BDE8A9
:106D100010400AF095BE00BF281800203954000822
:106D2000880C002013B5084C002100910A460B4640
:106D30002046FFF70DFF0549054A204602B0BDE891
:106D400010400AF07DBE00BF3418002039540008FE
:106D5000880C002010B5044600680AF0B5FF2046F4
:106D600010BD10B50446006808B10AF0ADFF00235D
:106D70002360A360636010BD38B504460D4600680B
:106D800001310BF04DFB10B184E82100012038BD2A
:106D9000036810B5044613B143688B4207D22046FE
:106DA000FFF7EAFF20B1A3680BB922681370012036
:106DB00010BD70B50E46114604461546FFF7E8FFB4
:106DC00018B92046FFF7CDFF04E0A56020683146E2
:106DD0000BF06AFD204670BD38B500230446036001
:106DE0004360836003730D4639B108460BF0BAFD6A
:106DF000294602462046FFF7DCFF204638BD884280
:106E000010B50B46044607D0096819B19A68FFF718
:106E1000D0FF01E0FFF7A5FF204610BD10B500230D
:106E200004460360436083600373FFF7E8FF204676
:106E300010BD38B505460C4641B108460BF092FD31
:106E4000214602462846FFF7B4FF01E0FFF789FF1D
:106E5000284638BD826808B50B4612B919B9012019
:106E600008BD11B90368187802E00068FEF7C6F99A
:106E7000D0F1010038BF002008BD10B58B688468D0
:106E8000E41AA2420CD8006868B1096851B11044F4
:106E90001A460BF097FDD0F1010038BF002010BD5D
:106EA000002010BD084610BD82688B689A4202D34C
:106EB0000022FFF7E2BF002070478368994203D2A7
:106EC000006810B1405C704700207047FFF7F5BFC5
:106ED0009A422DE9F04107460D4614461E4601D957
:106EE0003446164638460C49FFF776FFAB689C429D
:106EF0000FD89E4228BF1E462B68002213F806803A
:106F00009A55296838462144FFF793FF2B6803F808
:106F100006803846BDE8F081D458010810B58B686A
:106F20000446FFF7D5FF204610BD006808B10AF0FF
:106F300095BD704713B5084C002100910A460B46D9
:106F40002046FFF705FE0549054A204602B0BDE888
:106F500010400AF075BD00BF3C18002039540008ED
:106F6000880C002013B5084C002100910A460B46FE
:106F70002046FFF7EDFD0549054A204602B0BDE871
:106F800010400AF05DBD00BF4418002039540008CD
:106F9000880C002013B5084C002100910A460B46CE
:106FA0002046FFF7D5FD0549054A204602B0BDE859
:106FB00010400AF045BD00BF4C18002039540008AD
:106FC000880C0020014B0360704700BFF02C0108C3
:106FD0000369186C5B6CC01A00F03F0070470369CE
:106FE000196C5A6C914202D05A6C985C70474FF001
:106FF000FF3070470369196C5A6C914207D05A6C84
:10700000985C5A6C013202F03F025A6470474FF0AC
:10701000FF30704710B5034B04460360FEF73CFE9B
:10702000204610BDF02C0108436910B50446196CC8
:107030005A6C9142FBD1237E13B90023237610BDF5
:107040000348402105F02DFB0028F6D1F3E700BFEF
:107050000044004070B504460E462C4840F22771AB
:1070600005F025FB20B963691A6C5B6C9A4211D15B
:1070700063691D6C013505F03F0563695A6C9542E3
:107080000FD0EFF31082D20732D5196C5A6C9142AF
:1070900007D12DE01D4840F22771012205F0E1FAE9
:1070A000E6E71A4840F2277105F001FB0028E4D01A
:1070B0001648802105F0F5FA0028DED0134840F28A
:1070C0002771002205F0CDFA636910485A6C511CF3
:1070D0005964995C05F0DDFA63690C485A6C40F21A
:1070E000277102F03F025A64012205F0BAFAC4E7A0
:1070F0001A6C06489E54636940F227711D6401258D
:1071000025762A4605F0ADFA284670BD00440040B9
:1071100010B51E4840F2255105F0C9FA78B11B4858
:1071200005F0BBFA1A4BC0B25A6D996D013202F0EC
:107130003F028A4203D0596D5A65194408751348B5
:1071400040F2277105F0B3FAF8B1114CD4F89C2045
:10715000D4F8A0309A4207D1BDE810400B4840F265
:107160002771002205F07DBAD4F8A03007485A1CD8
:10717000234493F85C10C4F8A02005F08AFAD4F8F0
:10718000A03003F03F03C4F8A03010BD004400401D
:1071900054180020014B187C704700BF5418002081
:1071A000F7B5164C002504F1A406154F2B462946C9
:1071B0002A4600953046FFF7CBFC3A463046114947
:1071C0000AF03EFC4FF47A73C4F8B4300E4B0F490A
:1071D000C4F8AC3004F11403C4F8BC3004F1AC00C2
:1071E00004F15C033A46C4F8B050C4F8C03084F8E7
:1071F000C45003B0BDE8F0400AF022BC541800208F
:10720000880C002039540008082D0108C56F0008BB
:1072100070474FF0FF307047014B0360704700BF6D
:10722000F02C010810B5034B04460360FEF734FD53
:10723000204610BDF02C0108FEF74CBC08B5FEF747
:1072400035FC08BD08B50846FEF764FC012008BD02
:10725000002242604FF47A728260014A02607047F5
:10726000302D01080846FEF709BC000037B50D4C6B
:1072700000210D4D0B4600910A462046FFF768FCA1
:107280002A460A49204608340AF0DAFB2046FFF76E
:10729000DFFF074920462A4603B0BDE830400AF028
:1072A000CFBB00BF1C190020880C002039540008F7
:1072B000197200080023036018467047002303601A
:1072C0001846704700230360184670472DE9F041C7
:1072D0000B7886B0002B0C4614BF90464FF0000888
:1072E00006460BF03FFB074620460BF03BFB1823FE
:1072F00001931E2301250293022303930590009519
:107300000494404631463A46002302F037FD034BD1
:1073100018705D7006B0BDE8F08100BF3419002020
:1073200048F20202904210B524D006DC992855D0CC
:1073300048F20102904213D010BD48F28002904200
:1073400007D0B0F5084F4ED048F2100290425CD101
:1073500030E02E4B01229A70DA7000221A7110BDB3
:107360002A4C01236371FFF7F7FA00F5EA40303049
:10737000A06010BD254C63794BB100234FF47F40D2
:10738000A36003F06FFAE72003F0E8FA06E0237B3E
:1073900013B1013B237301E00123237700236371C1
:1073A0006377A377E37784F8203084F8213084F87A
:1073B000223010BD0A7D154B6AB99A604FF47F40A8
:1073C00001225A7783F8212003F04CFABDE81040DF
:1073D000E72003F0C3BA00225A7710BD0B4B0122FD
:1073E00083F8232010BD0846002100F0D0FF0121C2
:1073F000044601F013F8064B1B689C4205D1034B71
:10740000002283F82020DA779A7710BD3419002003
:10741000040000201FB54FF461504FF461610A224F
:1074200000238DE80F00064B44F620621A60684680
:1074300001A902AA03AB01F0AFFC05B05DF804FBA3
:10744000CC1900201FB500230093019302930393EE
:1074500001A8694602AA03AB01F064FC05B05DF81F
:1074600004FB000030B5554D00249FB0FF20AC70E8
:10747000EC706C706C716C7785F82340AC77EC77AE
:1074800085F8204085F8214003F0ECF9E72003F06F
:1074900065FA21462246204602F04CFC2B4601218B
:1074A00003F80D4F0E200A4601F0FCFC6B79012B0E
:1074B00005D1642003F070F801F0D0F8F6E7102150
:1074C0000C2001F03BFD3E4802F0FEF83D4802F082
:1074D000A7FD012002F088FD68463B4900F0DAFD77
:1074E000AB786A78354C1A431CD194F82430002BC1
:1074F0005AD0FF2002F02AFD002855D11A24013C61
:1075000006D0E72003F058FA322003F045F8F6E7FA
:107510000E20012122462D4B2C7301F0C3FC85F86F
:107520002440DDE7E72003F019FA04F10C030E20F4
:107530000121002201F088FCA37813B102F090FD34
:1075400020702B78012101332B7300221F4B0E205A
:1075500001F0A8FC002001240146012202F0EAFB10
:10756000214622461A4B0E206C7301F09BFC02F060
:1075700065FB642003F010F8002002F029FB85F879
:1075800025404FF47F40002485F8214003F06AF93C
:10759000E72003F0E3F948F2442002F0F3FCFFF7A0
:1075A00039FF2C771FB030BDE72003F005FAFA2031
:1075B00002F0F2FF684600F0C9FD91E7341900209F
:1075C000502D010860010020CD72000840190020F4
:1075D00041190020024B1A6818601046704700BF1E
:1075E000CC1900207FB53D4C0025A06203F08CFC37
:1075F00003F0CCFB3A4B3B4A00933B4B3B49019396
:107600003B4B3C4802933C4B03933C4B02F0C8FA83
:10761000642002F0C1FF002002F0DAFA012348F2F0
:10762000442084F8253084F8215002F0ABFC344B20
:107630001A881E46012A2DD00E2010212A4604F158
:107640000C0301F001FC102824D12379234D93B9B8
:107650002B7B13B901232B770DE0687B58B90146CA
:10766000012202F067FB01212B4603F80D1F0E20BB
:107670000A4601F017FC23793BBB184B1B7F23B351
:10768000204801F041FCFFF7DDFE04B0BDE870408A
:10769000FFF7C0BEFF2002F059FC00210E2001F0D0
:1076A0004DFC10210E2001F049FC0021102216484B
:1076B0000AF048FE10210022134B0E2001F0F2FBCD
:1076C0000023338003F06CFDBFE74FF47F4003F0ED
:1076D000C9F8E72003F042F9D2E700BF34190020CF
:1076E00045AE0008BD72000859AE0008B57200082A
:1076F000C5AE000821730008EDAE0008C572000891
:10770000AE02002060190020401900202DE9F3414D
:10771000AC4C04F09FFC0023236394F834304BB945
:1077200094F8353033B9A3688BB3FFF715F9A36824
:1077300098422CD394F82530A24D002B43D000263C
:107740006E71AE606E77AE6385F83460012785F8A0
:107750002560AE77EE7785F8206085F8226002F02C
:107760006DFA6FF07F4085F8217003F07BF8E72019
:1077700003F0F4F8642002F00FFF2B7F1BB33046B8
:1077800002F026FA85F82570FFF76CFE1BE094F8EE
:1077900025308C4DBBB92B792BB9FFF7DDF800F5FF
:1077A000EA403030A860002002F012FA012384F889
:1077B00025304FF47F40002384F8213003F052F845
:1077C000E72003F0CBF8237F7E4E13B1FFF74AFE8C
:1077D00006E0337923B1737F03F0FF05002B6FD0F0
:1077E000E278784B012A13D15A7F012A10D15B79B4
:1077F000012B0DD1032574480BF0B4F8013D82B282
:107800007149012002F092F915F0FF05F3D1E570FE
:1078100094F83C306B4D33B9AB7F002B68D1EB7FD4
:10782000002B65D1CAE06B7F0BB395F83530F3B907
:10783000AB7F002B6DD01AE02B4603F80F2F0E20E4
:107840000121032201F02EFB00264FF6FF7084F881
:10785000216003F007F8E72003F080F8FEF7F4FC5E
:10786000B042584DC0F281800123AE63AB77A37F55
:10787000544D002B00F0A280EB7FBBB9FEF766FCF5
:10788000002811D002DA4FF47F0007E0012801D16F
:107890004E4803E0022803D14FF0FF1002F0E2FF50
:1078A000E72003F05BF801E00123EB77FEF712FC21
:1078B000002840F0838084F82000E077A0777DE006
:1078C00029462A462846B56002F034FA40480BF0B3
:1078D00049F8404F804638460BF044F80097019035
:1078E000791F032042462B4602F0BEF9357177E737
:1078F000FEF79AFC00234FF47F4084F82030E377B2
:10790000A37702F0AFFFE72002B0BDE8F04103F03B
:1079100025B8642002F040FE05F13D0001F082FA36
:1079200095F82230002B8FD04FF47F0002F09AFFA1
:1079300094F82230234D03F0FF02002B3FF47CAF7C
:10794000E72003F00BF84FF4FA7002F025FEE72071
:1079500003F012F84FF4FA7002F01EFE95F8223090
:10796000013BDBB285F82230E2E795F834302BBBDF
:10797000AB6B0133022BAB6304BF012385F83430BA
:10798000FEF720FC00280ADAA36B0133022BA36365
:1079900003D10C4B012283F83420022300E003239F
:1079A00084F8223094F822300E20E37301210A4B30
:1079B000032201F077FA0023A37758E702B0BDE86D
:1079C000F08100BF34190020630100200060FF0037
:1079D0006A0100206F0100204319002013B5084CF4
:1079E000002100910A460B462046FFF7B1F80549F1
:1079F000054A204602B0BDE810400AF021B800BF99
:107A0000AC19002039540008880C0020704708B5D4
:107A1000012003F039FFFEE708B5032003F034FF2F
:107A2000FEE708B5042003F02FFFFEE708B50520A8
:107A300003F02AFFFEE770477047704708B503F070
:107A4000EDFCBDE80840FDF74DBF000008B5024B56
:107A50000BB1AFF3008008BD0000000008B5024B79
:107A60000BB1FFF755FB08BD1171000808B5024BBB
:107A70000BB1FEF7FFFF08BD756A000808B5024BA1
:107A80000BB1FEF7F8FF08BD776A000808B5024B96
:107A90000BB1FFF72DF908BDF16C000808B5012006
:107AA00004F09AF938B1012004F0A4F9024B13B1A3
:107AB0000020FFF70DF808BDD16A000808B50220C4
:107AC00004F08AF938B1022004F094F9024B13B1A2
:107AD0000120FEF7FDFF08BDD16A000808B50420AB
:107AE00004F07AF978B1042004F084F90020064B00
:107AF0000146188002F0E8FFBDE808400348102165
:107B0000012204F066BD08BDEC190020002C0140E4
:107B100008B5082004F060F938B1082004F06AF9CB
:107B2000024B13B10320FEF7D3FF08BDD16A000852
:107B300008B5102004F050F938B1102004F05AF9BB
:107B4000024B13B10420FEF7C3FF08BDD16A000841
:107B500008B5202004F040F938B1202004F04AF99B
:107B60000E4B13B10520FEF7B3FF402004F034F9AB
:107B700038B1402004F03EF9084B13B10620FEF75F
:107B8000A7FF802004F028F938B1802004F032F9F2
:107B9000024B13B10720FEF79BFF08BDD16A000816
:107BA00008B54FF4005004F017F940B14FF40050FD
:107BB00004F020F9174B13B10D20FEF789FF4FF4A5
:107BC000804004F009F940B14FF4804004F012F90C
:107BD000104B13B10E20FEF77BFF4FF4004004F072
:107BE000FBF840B14FF4004004F004F9094B13B125
:107BF0000F20FEF76DFF4FF4006004F0EDF838B190
:107C00004FF4006004F0F6F8BDE8084002F04EBC06
:107C100008BD00BFD16A000808B51048102104F063
:107C200011FDC8B10D48102104F017FD002003F02C
:107C300001F830B90A4B1A8892B20A3292B21A800D
:107C400008BD06481021002204F0C3FCBDE808402E
:107C50000020012102F038BF08BD00BF002C014008
:107C6000EC19002008B5012004F0E4FA50B101201D
:107C700004F0F0FA044B0BB1AFF30080BDE808400C
:107C800004F0C2BA08BD00BF0000000008B5022021
:107C900004F0D0FAB0B10C4B00224FF400301A704F
:107CA00004F0A8F8012004F0FFF910B1012004F05D
:107CB00005FA04F0A9FA022004F0CCFABDE8084065
:107CC00004F0A2BA08BD00BF6919002002F080BB11
:107CD00000F062B838B514490B78012B23D1134A50
:107CE00013680BB90B7038BD114C402B206881B262
:107CF00005D94030403B20601360402504E09DB230
:107D000003442360002313600A482A460844C02124
:107D100005F0D8F90120294605F0DCFABDE8384025
:107D2000012005F041BA38BD740C00207C0C002005
:107D3000780C0020740B002008B5094B01221A7042
:107D4000084B002203201A8005F0F4FA064B024685
:107D500018804FF488710548BDE8084005F0CAB99D
:107D6000280B00202C0B00202A0B00202E0B0020BB
:107D7000074B1B68052B09D1064B1A68511C052AB5
:107D8000196003D100221A60FDF7E2BE704700BF00
:107D9000141A0020B819002070B52B4D2B4C2B68FD
:107DA0002B4E9BB22380228833881340990508D537
:107DB0004FF6FF532B60A3780133DBB2A370FFF7BC
:107DC000D7FF2288338813401A0401D505F0C4F880
:107DD0002288338813405B0505D54FF6FF332B60AF
:107DE0001C4B5B689847228833881A40900444BF34
:107DF0004DF6FF722A6022881340D90405D54EF64D
:107E0000FF732B60002003F0FDFC228833881340B1
:107E10001A050BD5104B1B7813B103F0D3FC02E00D
:107E2000022003F0EFFC4FF2FF732B6022883388AF
:107E30001340DB0507D54FF6FF632B600720BDE835
:107E4000704003F0DFBC70BD445C0040BC190020F2
:107E500000240020D4010020D0020020034B9B7A94
:107E600013B1034B05221A60704700BFDC230020CA
:107E7000141A0020014B04221A607047141A0020C3
:107E8000034B1A78202A04BF00221A70704700BFE3
:107E9000C019002070470000212810B508D1114BEF
:107EA0001B681B7803F07F03212B10D0022010BD2C
:107EB0002028FBD10B4B0C4A1B681B78107003F079
:107EC0007F03212B094B18BF00230BB9EEE7084BAA
:107ED000044A002412682046936154829847204641
:107EE00010BD00BFFC230020C0190020417F000806
:107EF000297F0008074B1B681B7803F07F03212BA9
:107F000006D100F0DF00022814BF022000207047D5
:107F100002207047FC23002009B10220704701288D
:107F2000FBD808467047000020B9034B08221B68A5
:107F30001A82704701487047FC230020CC010020C2
:107F400020B9034B08221B681A827047014870470A
:107F5000FC230020CC01002010B5FDF745FE054BA9
:107F600000241B689C7203F015FC05F0F9F9024B24
:107F70001C6010BDFC230020141A0020334B344A2F
:107F80001B68D27910B500245A729C72DC722046AC
:107F900005F0C2F820464FF4007105F0C5F8204600
:107FA000102105F0CFF82046402105F067F9802127
:107FB000204605F053F9204605F01CF9254B2046D4
:107FC00093F8341005F094F9204605F000F90120EB
:107FD000214605F0A9F80120C02105F03FF9012054
:107FE000202105F0AFF80120214605F0C4F8022059
:107FF0004FF4C06105F098F802204FF4807105F04D
:108000002DF90220214605F0B6F80220202105F0C6
:1080100099F80320214605F087F803204FF4887172
:1080200005F02CF90320402105F062F903204FF4FC
:10803000405105F0A0F80320214605F083F82046C2
:1080400004F01EFF044B01221A6010BDFC23002027
:10805000BD2D0108CC010020141A0020014904F0B4
:108060000BBD00BF04020020014904F005BD00BFA4
:108070000C020020054B1B68DB78042B04D8044954
:1080800001EBC30104F0F8BC00207047FC23002082
:108090001402002038B504460D46FFF7D9F82046F3
:1080A00025614FF41651FFF7DDF8204638BD70B555
:1080B00006460D46002428460AF054FC844208D2A5
:1080C000295D3046FFF7BEF8012002F065FA013461
:1080D000F1E770BD2DE9F04104460E4690460025BB
:1080E0002046FFF7ABF80028FADD2046FFF7A4F89A
:1080F0004545C1B206D10023337020461249FFF72F
:10810000D6FF15E00D29F6D00A29F4D0082901D0B0
:108110007F2904D1002DE3D0771E013D02E0771CBA
:10812000317001352046EDB2FFF78CF83E46D7E7B7
:108130002046FFF783F8002803DD2046FFF77CF890
:10814000F6E7BDE8F08100BFD2580108F0B585B070
:108150000446FFF773F8002840F39D802046FFF7A0
:108160006BF8C0B2772868D104F1140600212122EF
:10817000304604F135050AF0E5F841220021284691
:108180000AF0E0F804F17607002384F87630204600
:1081900042497B70FFF78BFF204631462022FFF7D4
:1081A00099FF20463E49FFF782FF012220463946CB
:1081B000FFF790FF94F87630A3F13002D2B2032A91
:1081C000EFD8312B0BD120463649FFF770FF204600
:1081D0003549FFF76CFF20463449FFF768FF94F8F4
:1081E0007620B2F1300708D020463149FFF75FFF13
:1081F000204629464022FFF76DFF20462D49FFF714
:1082000056FF23693A4630462946984720462A4970
:10821000FFF74DFF20462949FFF749FF204628492F
:10822000FFF745FF20462749FFF741FF2046264933
:10823000FFF73DFF2046254928E069282BD1244B34
:1082400001AD93E8070085E8070020462149FFF7C4
:108250002EFF0026AF5D20463B0903F1300139298E
:1082600084BF03F15701C9B207F00F07FEF7EAFF19
:1082700007F13001392984BF5737F9B2204601365A
:10828000FEF7E0FF0C2EE5D11349204605B0BDE80E
:10829000F040FFF70CBF05B0F0BD00BF2657010846
:1082A0002D5701085A57010890570108BB5701087C
:1082B000015801080C5801084F5801086F5801086F
:1082C000A2580108D5580108145901084559010858
:1082D000E8F7FF1F5B590108D258010813B5084C95
:1082E000002100910A460B462046FEF731FC054965
:1082F000054A204602B0BDE8104009F0A1BB00BF0E
:10830000C419002039540008880C0020002100F016
:1083100004B80E4B5B58435004310D480D4B4218C6
:108320009A42FFF4F6AF0C4A00F003B8002342F87B
:10833000043B0A4B9A42FFF4F9AF03F0B1F9FDF7A1
:108340000DFAFDF78DFCFDF757FA7047EC5A01085E
:1083500000000020180B0020180B00200C24002027
:10836000FFF7FEBF0B0A017043700B0C090E837000
:10837000C170043070470170090A417002307047C3
:1083800043185A78435C03EB022080B2704710B563
:1083900043189A78DC78415C120402EB0462587846
:1083A0000A4402EB002010BD73B544790023022C6F
:1083B00001930FD0032C19D0012C2BD1164D2B6912
:1083C0002E4623B12B6901A898470246B8B9B16877
:1083D00001201BE0104DEB682E4623B1EB6801A88D
:1083E0009847024658B9B16802200FE00A4D6B6900
:1083F0002E464BB16B6901A89847024620B1A96887
:108400002046BDF8043003E0B16803200022134683
:1084100000F024FC02B070BD441B0020072830B5DA
:1084200012D8012910D8EFF3108472B601258540C7
:1084300001FA00F0054B1A6822EA050202431A60AD
:108440002346DB0700D462B630BD00BF5C020020CB
:1084500070B5012186B00546FFF792FF430404463C
:108460002AD5B0F5824F27D128460521FFF788FF8E
:1084700005EB8000EE1D0024C51DAE4206D030463F
:108480000221FFF77DFF04360444F6E7724B1A8E93
:1084900092B2224492B21A86DA6B1444DC63D96B2E
:1084A0009A6B914240F0CA8093F84020002A00F075
:1084B000C5809B69992031E024F4FF4020F07F00C3
:1084C00080B2002800F0978048F210039C4228D028
:1084D0000CD8B4F5004F40F2BC8048F202039C4235
:1084E00015D948F204039C4211D0B2E048F280034F
:1084F0009C420CD004D848F240039C424FD0A8E0E4
:10850000B4F5024F03D0B4F5084F6BD0A1E0524B45
:108510009A69002A00F092809B69204600210A4651
:1085200067E00023EA1852790DF803200133042B89
:10853000F8D16B7A05F10D008DF80430AB7A8DF827
:108540000530EB7A8DF806302B7B8DF80730002351
:1085500000AA1A44C15C0133042B1172F8D105F151
:108560001100002300AA1A44C15C0133042B1173CB
:10857000F8D105F11500002300AA1A44C15C0133AB
:10858000042B1174F8D12B798DF81430324B9A6981
:10859000002A53D09B6920466946152229E00535FB
:1085A00000212846FFF7F3FE042100902846FFF73C
:1085B000EEFE082101902846FFF7E9FE0C2102900B
:1085C0002846FFF7E4FE102103902846FFF7DFFE60
:1085D000214B04909A69002A30D09B692046694655
:1085E000142206E01C4B9A6942B39B692046691D20
:1085F0000122984722E041F203039C4205D0A4F5F2
:1086000080530E3B9BB2012B1AD86C1D20460421CF
:10861000FFF7BDFE39301CD12A790F4B00212046CF
:10862000DA62FFF7B4FE042105462046FFF7AFFEED
:10863000393003D128460121FFF7F0FE012009E07F
:10864000054B1B889BB29C4204D0B4F5805FF5D1EA
:1086500000E0002006B070BD441B002070B50E4C39
:108660006688B6B2B6B1606805782B1F5D425D4181
:108670002DB1FFF7EDFE003018BF012000E02846C5
:10868000064618B935B194F841301BB90023638010
:1086900001F0B4FD304670BD441B00202DE9F04FC1
:1086A00085B004468A46914602F0C0FE002501903E
:1086B000DFF83083B8F8023046469BB2002B40F01A
:1086C000938003F0C7FC02F0B1FE0290029A019B76
:1086D000D31A0393039B002B03DA019B029A1344E2
:1086E0000393BF4B1B68002BE2D0039A9A42DFD35F
:1086F000338841F207029BB2934227D841F2060227
:10870000934261D240F2022293425DD00FD80C2BEB
:1087100008D8082B58D2002B4FD0062B88BF002337
:108720005AD851E00D2B4CD040F201220BE041F21F
:10873000020293424BD8B3F5805F45D8B3F5017F71
:108740003FD940F20722934237D13AE041F2110279
:10875000934236D014D841F20B02934234D005D85C
:1087600041F2090293422FD031D82AE041F20F02A0
:1087700093422CD028D841F20D02934227D01CE01E
:1087800042F2060293421CD007D8B3F5005F14D919
:1087900042F20402934221D813E0B3F5804F00F077
:1087A000EE8105D8A3F50053083B012B09D904E05D
:1087B00044F20B02934200F0E2810B2003F064F8D4
:1087C000DDE1FF232370DAE14FF0FF3304E04FF0E7
:1087D000FF3323606360D2E12360D0E120460021B3
:1087E0003A2209F0AFFDCAE1D8F804603378042BCF
:1087F00040F0798130460121FFF7C2FD0546304641
:10880000FFF726FE002840F0638141F207039D42F6
:1088100006F1050755D841F206039D4280F0AE806F
:1088200040F202239D4200F0A98014D80C2D09D8F3
:10883000082D80F0A380002D00F04A81062D00F263
:10884000E5809BE00D2D00F0968040F201239D42D3
:1088500000F091803CE141F202039D4218D8B5F549
:10886000805F00F28B80B5F5017F40F2848040F29A
:1088700007239D4240F02C813379384604F8013BB0
:108880000021FFF784FD01462046FFF76BFD1FE145
:1088900041F204039D4200F08B8040F2A58000214C
:1088A0003846FFF774FD042120603846FFF76FFD5E
:1088B000083444F8040C06F10D03224606F11D01AC
:1088C0006FE041F211039D4255D02BD841F20B03CA
:1088D0009D4253D01CD841F209039D424ED000F274
:1088E000908000213846FFF752FD04212060384671
:1088F000FFF74DFD082160603846FFF748FD0C2169
:10890000A0603846FFF743FD04F10C0BE060DEE0A9
:1089100041F20F039D4267D036D841F20D039D42CC
:1089200046D0D5E042F206039D4224D00BD8B5F5DF
:10893000005F40F2CD8042F204039D4288BF0023D5
:1089400000F2888017E042F208039D42C0F0C08028
:1089500042F209039D420ED944F20B039D4240F0BE
:10896000B780737938460121A8F83030FFF708FD49
:10897000A8F83200ACE033792370A9E03846002132
:10898000FFF705FD2060A3E000213846FFF7FFFC5C
:10899000A3464BF8040B04213846FFF7F8FC60604F
:1089A00095E053F8040B8B4242F8040BF9D18FE0A9
:1089B00000213846FFF7EBFC042120603846FFF722
:1089C000E6FC082160603846FFF7E1FCE36804F14B
:1089D000080B3933A0607AD10121FFF71FFD76E043
:1089E000CC190020441B002000213846FFF7CFFCA3
:1089F000042120603846FFF7CAFC083444F8040C10
:108A000066E0337923713B68236061E000213846DA
:108A1000FFF7BDFC042120603846FFF7B8FC0821B1
:108A200060603846FFF7ACFC0A21A0603846FFF7CB
:108A3000A7FC0C3444F8020C06F11103224606F19F
:108A4000350153F8040B8B4242F8040BF9D11B8813
:108A500013803DE0F2185279E2540133042BF9D12E
:108A600006F109000023C15CE2180133042B1171E7
:108A7000F9D106F10D000023C15CE2180133042B8B
:108A80001172F9D106F111000023C15CE218013323
:108A9000042B1173F9D106F115000023C15CE21813
:108AA0000133042B1174F9D106F119000023C15CC4
:108AB000E2180133062B1175F9D106F11F000023CE
:108AC000C15CE2180133202B9176F9D100E05C46BD
:108AD000B8F800202C4B92B2954236D100221A8071
:108AE00083F8412031E0B8F836309BB26BB33046A2
:108AF000032196F802B0FFF743FC0746BAF1000FD6
:108B00000BD00421701DFFF742FC06F1150102464F
:108B1000C9F800005046FCF7FBFACBEB07077B1EB9
:108B2000B3F5806F07D20BF10501204631443A4678
:108B3000FCF7EEFA01E04FF0FF37B9F1000F01D07A
:108B4000C9F800700023A8F836300023A8F80230D6
:108B500001F054FB3378042B05D1B5F5805F02D1C9
:108B60003046FFF721FCB8F800309BB2002B7FF4B1
:108B70009FAD054BDB8E9BB2002B7FF499AD00209F
:108B800005B0BDE8F08F00BF441B002007284FF060
:108B900001030FD8EFF3108272B603FA00F0064B10
:108BA0001968134608420CBF00200120DB0702D4DD
:108BB00062B67047184670475C020020034B18806D
:108BC000084600210A46FFF769BD00BF441B00208C
:108BD00010B5034B0124DC86BDE81040FFF75EBDF5
:108BE000441B002038B50346154601224A710C4645
:108BF000881D1946FFF7BFFB291D0570204601F0AF
:108C00006DFB002038BD38B5BDF814500C462B4420
:108C1000D518ADB202216171A071E271294604F14B
:108C20000800FFF7A8FB691D204689B201F056FB3A
:108C3000002038BD38B513440C469DB20221617145
:108C4000A0712946E27104F10800FFF794FB691D49
:108C5000204689B2BDE8384001F040BB2DE9F84F0D
:108C60001C4604F1020B032301F107091FFA8BFBD9
:108C700088710D464B71484659461646FFF77BFBF7
:108C8000B4F57A7F824605F10B0812D82146FFF72A
:108C900072FB21465046FFF76EFB314640462246A6
:108CA000FCF736FAA11D284689B2BDE8F84F01F05D
:108CB00015BB4FF47A77B4FBF7F30BEB430189B2A2
:108CC000FFF759FB39465046FFF755FB3146404602
:108CD0003A46FCF71DFAA4F57A74284640F2EE31C4
:108CE000A4B23E4401F0FAFAB4F57A7F84BFA4F549
:108CF0007A74A7B2A84688BF4FF47A74314628F830
:108D0000054F4846224698BF0027FCF701FAA11CF0
:108D1000404689B2264401F0E1FA0FB13C46E3E750
:108D2000BDE8F88FF7B51E46FF238DF80730194BC5
:108D300000259C68475D63190135042D5F72F9D1E8
:108D400000200D5C2318013004285D73F9D1002147
:108D5000505C6318013104295874F9D104F11500ED
:108D60000021FFF7FFFA0022B35C83540132042A8A
:108D7000FAD12146142242F20100FFF733FF42F2FA
:108D800001000DF10701FFF719FF9DF9070003B07E
:108D9000F0BD00BF441B00202DE9F3411F46FF2317
:108DA0008DF807301E4B0646D3F8088033680C4612
:108DB000013B122B9CBF142333600B6808F10900A0
:108DC000013B122B9CBF14230B6013681546013B1B
:108DD000122B9CBF142313603B68013B122B9CBFDA
:108DE00014233B603168FFF7BDFA2168FFF7BAFA38
:108DF0002968FFF7B7FA3968FFF7B4FA4146142239
:108E000042F20900FFF7EEFE42F209000DF1070100
:108E1000FFF7D4FE9DF9070002B0BDE8F08100BF66
:108E2000441B002010B5074B0446996842F2050028
:108E30000022FFF7D7FE214642F20500BDE81040B0
:108E4000FFF7BCBE441B00202DE9F3411F4602ACD6
:108E5000FF2304F8053D124B86469D680E4605F13A
:108E6000090071469046FFF77DFA3146FFF77AFA1E
:108E70004146FFF777FA29460C2240F20120FFF71E
:108E8000B1FE214640F20120FFF798FE384600214E
:108E900001AAFFF79DFE019802B0BDE8F08100BF76
:108EA000441B00202DE9F341984602AD4FF0FF33FB
:108EB00045F8043D134B86469E680C4606F10A00B1
:108EC00071461746FFF74EFA0C21FFF74BFA214681
:108ED000FFF748FA3946FFF745FA4146224606F1C0
:108EE0001A00FCF715F931461022A3B29020FFF7C3
:108EF000A1FE40F202202946FFF760FE019802B071
:108F0000BDE8F081441B002013B50B4B0446996863
:108F1000002240F20720FFF765FE40F20720694675
:108F2000FFF74CFE9DF803309DF8000023709DF87C
:108F30000430637002B010BD441B002037B50E4AE8
:108F4000034694680D4604F109001946FFF70AFA32
:108F50002946FFF707FA2146082240F20320FFF7CF
:108F600041FE40F203200DF10601FFF727FEBDF898
:108F7000060003B030BD00BF441B00202DE9F043C4
:108F80000023CA5CC2540133102BFAD10022344BA7
:108F9000467B991891F801800178847B88EA010862
:108FA0009919C97A90F80CC088EA01081919CF7A82
:108FB000417880F810804F40C17B47745D1895F868
:108FC0000B908578634489EA050593F80B90C37884
:108FD000FFB289EA030390F80490857488EA0908CF
:108FE00090F80590EDB287EA090790F80690C374EF
:108FF00085EA090590F80790DBB283EA090390F847
:10900000089080F814805FFA88F888EA090890F8D8
:1090100009904775FFB287EA090790F80A908575AD
:10902000EDB285EA090590F80B90C375DBB283EACF
:109030000903013288EA0C0C7E406C4059400A2A30
:1090400080F8188047768576C37680F81CC046770E
:109050008477C17700F1100099D1BDE8F08300BF9B
:10906000122E010810F0800F4FEA400018BF80F068
:109070001B00C0B2704700002DE9F04F91F8A030FE
:1090800090F800A042788AEA030A80F800A091F8DC
:10909000A13097B0534043708278079391F8A23083
:1090A00090F8049053408370C278059391F8A330F0
:1090B00046795340C370069391F8A430827989EAC7
:1090C000030980F8049091F8A53090F808805E407C
:1090D000467191F8A630477A53408371C27908935C
:1090E00091F8A73004465340C3710C9391F8A8300F
:1090F0004FF0000B88EA030880F8088091F8A93047
:109100005F404772827A91F8AA3053408372099384
:10911000C07A91F8AB3094F80CC04340E3720D93E1
:1091200091F8AC3094F80DE08CEA030C84F80CC094
:1091300091F8AD30A57B8EEA030E84F80DE091F82E
:10914000AE30E27B5D40A57391F8AF305A40464B9C
:10915000E2739A449AF80B0191F890A0994480EA3E
:109160000A00207099F80BA191F8949098448AEA2B
:10917000090984F8049098F80B9191F898809C4420
:1091800089EA080884F808809CF80B8191F89CC053
:109190009E4488EA0C0C84F80CC09EF80BC191F830
:1091A00091E01F448CEA0E0E97F80BC191F89D7068
:1091B0001E448CEA0707677396F80B7191F8996063
:1091C0001D447E406672079E0D981E4496F80B71F2
:1091D00091F8956084F801E07E406671059E184420
:1091E0001E4496F80B7191F89A607740089E1E44D1
:1091F00096F80BE191F89E608EEA0606DDF824E011
:109200009E449EF80BC191F892E08CEA0E0E84F811
:1092100002E095F80BE191F89650A7728EEA0505E9
:10922000A571069DA6731D4495F80B6191F89F509A
:1092300075400C9E1E4496F80B7191F89360134490
:109240007E40E67090F80B6191F897007040E071F5
:1092500093F80B2191F89B30CDF81CB05340E57387
:10926000E3720D4602E000BF122E0108A77894F8C1
:109270000090103D87EA0900FFF7F4FEFFF7F2FEC9
:10928000E67894F801B0824686EA0B00FFF7EAFE22
:10929000FFF7E8FE2179A37980EA060880EA0B0B44
:1092A00083EA010003910293FFF7DCFEFFF7DAFE89
:1092B0008AEA0909E6798AEA070A6779024686EAAC
:1092C00007000492FFF7CEFEFFF7CCFE049A029B44
:1092D00003995340DBB294F808C00693A37A514037
:1092E0004640C9B24740F6B283EA0C000293CDF87B
:1092F00004C005910896FFF7B5FEFFF7B3FE617A4B
:10930000E67A024686EA010003910492FFF7AAFE7C
:10931000FFF7A8FE049ADDF804C00399029B82EAD5
:109320000C0C53404140C9B25FFA8CFCDBB20A918D
:10933000CDF824C00B9394F80CC0A37B4640F6B242
:1093400083EA0C000293CDF804C00C96FFF78AFE66
:10935000FFF788FE617BE67B024686EA0100039107
:109360000492FFF77FFEFFF77DFE049A029BDDF873
:1093700004C00399534082EA0C0C5FFA89F95FFA42
:109380008BFB5FFA8AFA5FFA88F84140DBB246400D
:10939000C9B28BEA09005FFA8CFC0F93F6B288EA37
:1093A0000A030E910293CDF834C0109683EA0006AA
:1093B000FFF758FE89EA000086EA000C5FFA8CFC91
:1093C00084F800C08AEA0B00CDF804C0FFF74AFE1B
:1093D0008BEA0000029B86EA000B5FFA8BFB1846C3
:1093E00084F801B0CDF844B0FFF73CFE8AEA0000F3
:1093F00086EA000A5FFA8AFA88EA090084F802A07D
:10940000CDF848A0FFF72EFE88EA0000059BDDF8A6
:1094100018B0DDF820A04640FFB2F6B287EA03009C
:109420008AEA0B08E670139688EA0006FFF71AFE30
:10943000059948407040C0B2149020718BEA070033
:10944000FFF710FE784086EA0007FFB267714046DA
:109450001597FFF707FE8BEA0000059A7040C0B22F
:109460000690A0718AEA0200FFF7FCFD8AEA00007C
:109470000B990A9BDDF824A0DDF830B04640F6B227
:1094800083EA0A000596E6718BEA010686EA000780
:10949000FFF7E8FD8AEA00000A9B0B9A87EA0008BA
:1094A0005FFA88F882EA030084F80880FFF7DAFDA3
:1094B000DDF828A08AEA000087EA00095FFA89F946
:1094C000304684F80990FFF7CDFDDDF82CB00C99FB
:1094D0008BEA0000099A87EA000B5FFA8BFB81EAAE
:1094E000020084F80AB0FFF7BDFD0C9B0D99DDF872
:1094F00038A05840109A47408AEA0100DDF83CA0A5
:10950000FFB282EA0A03E77283EA000A0293FFF7D6
:10951000A9FD0D990F9A48408AEA00060E99F6B205
:1095200082EA01002673FFF79DFD0E9A029B5040D0
:109530008AEA0001C9B2617318460391FFF792FDF0
:109540000F9BDDF834E058408AEA0002109BD2B24B
:10955000A27383EA0E000492FFF784FD109BDDF8EE
:1095600004C058408AEA000A494B5FFA8AFA84F834
:109570000FA003EB0C0090F80BC195F890001E446F
:109580008CEA0000207014981F44184490F80BC116
:1095900095F894008CEA0000207103EB080090F825
:1095A0000BC195F898008CEA0000207295F89C0099
:1095B00096F80B61039970402073194491F80B01E0
:1095C00095F89110049A414003EB090090F80B6163
:1095D00095F89D001A44704060731598184490F8EF
:1095E0000B6195F89900704060721198184490F8DA
:1095F0000B6195F895006170129970406071194483
:1096000091F80B0195F89A1048400699194491F881
:109610000B6195F89E10714003EB0B0696F80BC199
:1096200095F892608CEA0606A67092F80B6195F8A0
:109630009620A0727240139EA1731E4496F80B11DF
:10964000A271059E95F89F201E4496F80B014A4092
:1096500095F8931053444140E17095F8971097F8AE
:109660000B01DDF81CA04140E17193F80B1195F856
:109670009B30AAF1100A4B401AF1900FE372E2738B
:10968000CDF81CA07FF4F2AD17B0BDE8F08F00BF9D
:10969000122E010838B5054C05462046FFF76EFC32
:1096A00028462146BDE83840FFF7E6BC501A0020A6
:1096B00008B51021034600220C20FFF7C5FB103827
:1096C00018BF6FF0000008BD034610210C200022D7
:1096D000FFF7E8BB30B585B0054601F0A7FE019065
:1096E000194CE36A4BB108F0C7F9E36A0360002341
:1096F000E36208F0C1F9006824E02846FFF746FA63
:1097000010B14FF0FF301DE001F090FE0290029A80
:10971000019BD31A0393039B002B03DA019B029A4C
:1097200013440393094B039A1B689A42E9D2228E91
:10973000054B92B2002AD3D01A8E002092B2013A81
:1097400092B21A8605B030BD441B0020CC1900200F
:10975000F7B5174602AC4FF0FF3244F8042D124A19
:10976000034695680E4605F109001946FEF7FAFD15
:109770003146FEF7F7FD3946FEF7F4FD0C22294687
:1097800041F20100FFF72EFA214641F20100FFF7F6
:1097900015FA08F071F9019B002103601846FEF7E5
:1097A0003DFE019803B0F0BD441B002073B54FF09F
:1097B000FF3302AC44F8043D0E4B05469E68294633
:1097C00006F10900FEF7CEFD0422314641F20B00FE
:1097D000FFF708FA214641F20B00FFF7EFF908F016
:1097E0004BF9019B012103602846FEF717FE019803
:1097F00002B070BD441B0020F7B50C460746164664
:1098000008F03AF94FF0FF33E62C036025D8154BEA
:1098100008219D6805F10900FEF7A4FD2146FEF729
:10982000A1FD0346191A09B2A14203DA7A5C03F8D2
:10983000012BF7E704F10802D2B2294641F21000E9
:10984000FFF7D0F941F210006946FFF7B7F908F0C9
:1098500013F9009B0360019B336008F00DF9006869
:1098600003B0F0BD441B002037B54FF0FF3201922A
:10987000134A034694680D4604F109001946FEF7A1
:1098800071FD0821FEF76EFD0821FEF76BFD002338
:10989000EA5CC2540133082BFAD11422214641F26A
:1098A0000700FFF79FF901A941F20700FFF786F9CA
:1098B00008F0E2F8019B0360184603B030BD00BF1A
:1098C000441B00202DE9FF411D46314B8646D3F84D
:1098D00008800F4608F10900714616460A9CFEF7FB
:1098E00041FD1421FEF73EFD1421FEF73BFD14213E
:1098F000FEF738FD1421FEF735FDD4F1010138BF24
:109900000021FEF72FFD0FB1396800E03946FEF760
:1099100029FD0EB1316800E03146FEF723FD0DB19F
:10992000296800E02946FEF71DFD74B1216839B9A8
:10993000636841F287329342DCBF41F2883363604F
:10994000FEF710FD6168FEF70DFD41462C2241F245
:109950000800FFF747F941F208006946FFF72EF9C2
:10996000009B002B09DB0FB1019838600EB1029803
:1099700030604DB10398286006E008F07DF8009B48
:1099800003604FF0FF3000E0184604B0BDE8F081FE
:10999000441B00202DE9FF419846194B86469E68DE
:1099A00015460F4606F1090071460B9CFEF7DAFCDE
:1099B0002946FEF7D7FC4146FEF7D4FCBDF83050EF
:1099C00031460C222846FFF70DF9284601A9FFF77A
:1099D000F5F8029B002B0ADD38460A996A46FFF724
:1099E000F7F8009B04B12360002BD8BF029308F066
:1099F00043F8029B0360184604B0BDE8F08100BF45
:109A0000441B00201FB500240094019441F204047B
:109A10000294FFF7BFFF04B010BD00002DE9F04F26
:109A200089B017468A469B46149C0390FFF752FE66
:109A3000DDF80CC0024600285DD1304B812C996BBB
:109A400001F101019963D3F8088008F10A0007D0F9
:109A5000832C0CD107F1080908F12205182609E02A
:109A600008F11A05914610261392129202E015464B
:109A7000914616466146FEF775FC311FFEF772FCF3
:109A80003946FEF76FFC5946FEF76CFC832C05D176
:109A90004946FEF767FC0821FEF764FC2846421B96
:109AA00012B2BA4204DA1AF8022000F8012BF6E7E3
:109AB000832C01460FD0129BE0B20093139B4146CA
:109AC0009AB20192BBB23246FFF79DF8832C0CD1BB
:109AD00041F20F000BE0421A139B12B29A42EADAEB
:109AE000129B9A5C00F8012BF5E741F2030005A9EF
:109AF000FFF764F8069809B0BDE8F08F441B00201A
:109B00001FB500240094019481240294FFF786FF7E
:109B100004B010BD1FB5069C0094079C01948324DB
:109B20000294FFF77BFF04B010BD0000202A73B53C
:109B300003460E46144624D8144A1946956805F182
:109B40000900FEF70FFC0821FEF70CFC2146FEF78A
:109B500009FC03461A1A12B2A24203DAB25C03F8F5
:109B6000012BF7E704F10C022946D2B241F21100B1
:109B7000FFF738F841F2110001A9FFF71FF801982B
:109B800001E04FF0FF3002B070BD00BF441B002069
:109B9000024B01225A805860FEF760BD441B002032
:109BA00010B50A4CE16022616361029BE361039B93
:109BB0002362049B6362059BA3620123A06184F876
:109BC0004030002384F8413010BD00BF441B00200A
:109BD00070B5174B174D002406461748AC63EC636D
:109BE0002C802C866C86AC86EC86EC626C806C607B
:109BF000AB6000F0CBFAA642A9680CBF2346022353
:109C00004B7201224FF48040FEF7ECFF21464FF4E7
:109C10008040FEF7D3FFA968224644F20B00FEF70E
:109C2000E1FF214644F20B00BDE87040FEF7C6BFDD
:109C3000B01B0020441B0020919B000838B5094C44
:109C40000020A36A98472546EB69064C98470028F0
:109C5000FAD0A3680BB10023A360BDE8384000F040
:109C6000BDBA00BF441B00202DE9F04F994685B0D6
:109C70004FF0FF3301932E4B1546D3F808A0002474
:109C8000834688460AF109001C210F9E0E9F02940C
:109C9000ADF80C40FEF766FB2946FEF763FB59461C
:109CA000FEF760FB05F11001FEF75CFB3146FEF7A5
:109CB00059FB2146FEF75FFBB9F1000F08D019F8F8
:109CC000043003550134062CF9D10630034607E071
:109CD0004B4602AA9A5CC2540133062BF9D1F4E731
:109CE0001A1A12B2AA4204DA18F8022003F8012B59
:109CF000F6E7194646B13FB15A1A12B2B24203DA38
:109D0000BA5C03F8012BF7E71C367219D2B2514640
:109D10000120FEF767FF01A90120FEF74FFF07F0C2
:109D2000ABFE019B0360184605B0BDE8F08F00BF95
:109D3000441B0020F7B5174602AC4FF0FF3244F841
:109D4000042D0D4A034695680E4605F10900194693
:109D5000FEF708FB3146FEF705FB3946FEF702FB2E
:109D600029460C220420FEF73DFF04202146FEF781
:109D700025FF019803B0F0BD441B00202DE9F04FF2
:109D8000144685B000220292ADF80C206E4A83463C
:109D9000D2F808900F4609F1090059469A46DDF8B5
:109DA00038800F9D139EFEF7DDFABBF1030F00F222
:109DB000BD80DFE80BF0022C75751421FEF7D2FA96
:109DC0002146FEF7CFFA0021FEF7D5FABAF1000FCF
:109DD00007D000221AF8021081540132062AF9D164
:109DE00006E0534602AA9A5CC2540133062BF9D10D
:109DF00006304146FEF7B6FA03461A1A12B2A242DC
:109E000003D2BA5C03F8012BF7E718348CE0202169
:109E1000FEF7A8FA2146FEF7A5FA0021FEF7ABFAF5
:109E2000BAF1000F07D000221AF802108154013253
:109E3000062AF9D106E0534602AA9A5CC2540133BD
:109E4000062BF9D141460630FEF78CFA04F10C01DD
:109E5000FEF788FA2946FEF785FA1099FEF782FA8E
:109E600003461A1A12B2A24203D2BA5C03F8012BBB
:109E7000F7E7DDF848A004211A46D01A00B2A8423C
:109E800004D21AF8000002F8010BF6E70139AA44DF
:109E900001D01346F0E704EB8502243292B246E08B
:109EA0002821FEF75FFA2146FEF75CFA0021FEF753
:109EB00062FABAF1000F07D000221AF8021081549A
:109EC0000132062AF9D106E0534602AA9A5CC2542E
:109ED0000133062BF9D141460630FEF743FA2946F5
:109EE000FEF740FA1099FEF73DFA1199FEF73AFA9B
:109EF00004F10801FEF736FA3146FEF733FA03465D
:109F00001A1A12B2A24203D2BA5C03F8012BF7E785
:109F100019465A1A12B2B24204D21298825C03F85D
:109F2000012BF6E72C363444A2B200E00022494669
:109F3000D2B20520FEF756FE052001A9FEF73EFE2F
:109F4000019805B0BDE8F08F441B002037B50C4BDD
:109F500001469D6802AC05F10900FEF703FA4FF0D7
:109F6000FF3344F8043D294604220620FEF73AFE5A
:109F700006202146FEF722FE019803B030BD00BF47
:109F8000441B002037B548F2080248F2080102409D
:109F90008A42034613490BD10020934281F84000C6
:109FA0001ED023F4004323F0080343F4004302E0EF
:109FB000012281F840208D684FF0FF32194602AC33
:109FC00005F1090044F8042DFEF7CCF929460422D6
:109FD0000820FEF707FE08202146FEF7EFFD019856
:109FE00003B030BD441B002073B50C4B01469D6887
:109FF0004FF0FF3602AC05F109000196FEF7B2F909
:10A0000044F8046D294604220A20FEF7EBFD0A20DD
:10A010002146FEF7D3FD019802B070BD441B00201D
:10A0200013B50E4A4FF0FF330193916898B1542352
:10A030000370437083700022845C8B180132032A02
:10A040005C72F9D10C20FEF7CDFD0C2001A9FEF7C2
:10A05000B5FD019800E0184602B010BD441B002079
:10A06000F0B52F4887B0FFF723FB0246002855D1F3
:10A070002C4D0D2043212B46FEF7E6FE432802D04F
:10A080004FF0FF304AE02E782549F71C7C19204616
:10A09000FFF700FB2B782B445B78102B04D904F1DD
:10A0A00010001F49FFF7F6FAE37F1BB1EB5D1F2B92
:10A0B00003D100E0EB5D013400E020232A78154451
:10A0C000AA78032A29D8DFE802F0020E1919002025
:10A0D000012300930190029003900490059012498F
:10A0E0003246034616E001208DE809000023029362
:10A0F0000393049405930C4932460BE00120182188
:10A100001E2202258DE827000749059304940320A9
:10A1100032460023FFF732FE00E0002007B0F0BD1A
:10A12000881B0020001B0020011B002000F0010301
:10A1300083F0010003B962B6704700002DE9F041D9
:10A140000546EFF3108872B60E4C237A27469D42DF
:10A1500009D0052D01D0012606E00B4BDB6998479D
:10A160000028F8D1257200264046FFF7DFFF16B120
:10A170006369002BE5D07869D0F1010038BF002079
:10A18000BDE8F081981B0020441B00200F4B10B548
:10A1900000220F490F4C1A721961DA80DA609A8036
:10A1A00018601046A36A98470B4800F0FDF9236A2F
:10A1B00098474FF47A7000F0F7F9A36A01209847A6
:10A1C000BDE810400120FFF7B9BF00BF981B002079
:10A1D000B01F0020441B0020E093040010B5054C84
:10A1E000636A9847A36A00209847034B00221A61CC
:10A1F00010BD00BF441B0020981B0020024B4FF4F1
:10A2000080725A60704700BF00E100E02DE9F8431A
:10A2100080460F4614461E46EFF3108072B61F4D5F
:10A22000A4B295F80890FFF781FF002000F0F2FD3E
:10A230005FFA89F90120B8F1000F06D139462246AC
:10A2400000F070FD4046164905E02969224600F0FD
:10A2500069FD00203946224600F064FD11480221C4
:10A26000012201F056FD012000F0D4FD9EB1EFF374
:10A27000108072B62C7AFFF759FFE4B2A14503D1E2
:10A28000064B5B69002BF2D06869D0F1010038BF42
:10A290000020BDE8F8833046BDE8F883981B002015
:10A2A0006002002058000240CB074CBF0B464B1CFD
:10A2B00010B5C3F3072444700024C4700471054C26
:10A2C00001220270837084F84120034AD06091809B
:10A2D000581D10BD441B0020981B00202DE9F84399
:10A2E00005460E46EFF3108072B6384C277AFFB25F
:10A2F000FFF71CFF17B1012F05D02AE00120FFF75F
:10A300001DFF00285DD0EFF3108872B60323277A73
:10A31000237200F045FE4046FFF708FF284631460D
:10A32000FFF7C2FFFFB20446002F4AD0322000F0F0
:10A330003BF90120294604220346FFF767FF002866
:10A340003FD03220A4B200F02FF90120291D221F96
:10A350002DE00220FFF7F2FE002832D0EFF3108844
:10A3600072B6277ABB1E5F425F4157B1EFF3108987
:10A3700072B6237A0423237200F012FE4846FFF7D8
:10A38000D5FE4046FFF7D2FE17B96369002BE5D032
:10A390006369B3B928463146FFF786FF04460520B6
:10A3A000FFF7CCFE68B1A4B201202946224603463D
:10A3B000FFF72CFF002814BF20464FF0FF30BDE808
:10A3C000F8834FF0FF30BDE8F88300BF981B0020F2
:10A3D00070B54FF4003001F0A7FC314C05464FF446
:10A3E000005001F0A1FC237A033B052B52D8DFE893
:10A3F00003F03B513B510329002D50D000284ED093
:10A400004FF4083001F09EFC082323722369B3F84F
:10A410000330C3F3072545EA0325ADB2002D3ED036
:10A42000EB075CBF0135ADB2B5F5806F02D90A20EC
:10A4300001F02AFA002021692A460346BDE870404F
:10A44000FFF7E4BE58B34FF4083001F07BFC022361
:10A450002372144B4FF48072C3F8842000F0EAFC9E
:10A4600023682069984770BDCDB10F48802101F065
:10A4700034FF0028F9D14FF4083001F063FC237A4F
:10A48000074D032B01D1052302E000F0D3FC02238A
:10A490002B7270BD0B20BDE8704001F0F5B970BDA6
:10A4A000981B002000E100E0003800400F4B70B521
:10A4B000DB6998470546B8B90D4C237ADBB2022B0D
:10A4C00004D0042B0ED07BB901230CE007232372A8
:10A4D00000F066FD284621692B460522BDE8704044
:10A4E000FFF794BE0523237270BD00BF441B0020FC
:10A4F000981B0020BFF34F8F044A054BD16801F42D
:10A50000E0610B43D360BFF34F8FFEE700ED00E047
:10A510000400FA050D4B0E4A197839B9D98889B269
:10A520001187198989B291879B8806E0D98989B2F8
:10A530001187198A89B291879B899BB29386054BB3
:10A5400063221A70FF225A70704700BFD019002092
:10A55000002C0140680200204FF4407001F02ABA3C
:10A560000A4BF0211A684FF47A73B2FBF3F2084BEE
:10A57000013A5A60074A82F82310002199600721A6
:10A580001960D02382F82330704700BFBC0200203E
:10A5900010E000E000ED00E0024B18601A68002AAD
:10A5A000FCD17047BC23002007B50F4B5B680093BC
:10A5B0000E4B1A680E4BB2FBF3F34FF0FF32B2FBB7
:10A5C000F3F2904228BF104643430193064B59686B
:10A5D000009A019B8A1A9A4202D201F03BFDF5E7EC
:10A5E00003B05DF804FB00BF001000E0BC020020D7
:10A5F00040420F0030B54FF4003085B001F0FAFB57
:10A600004FF4003302930823002501240DEB0300CF
:10A610008DF80D308DF80C508DF80E4001F09CFB3C
:10A62000032301A88DF804308DF805308DF806500D
:10A630008DF8074001F0C8F929238DF80430042370
:10A640000DEB03008DF805308DF806508DF80740AE
:10A6500001F0BAF9022001F027FD50B1022001F00B
:10A660002DFD01F0D9FD24204FF6FF7101F08CFA89
:10A6700027E0242001F096FA4AF2A553984201D12E
:10A6800001F0FEFC012001F031FD412001F070FDE0
:10A690000028FAD04FF4807001F038FD012001F05D
:10A6A0003DFD01F0B9FD01F0AFFD0320012101F0F6
:10A6B0007BFD01F0A9FD47F6FF7001F095FD01F06B
:10A6C000A3FD05B030BD10B5044645F2555001F06C
:10A6D000AFFC062001F0B2FC2820604340F6FF7377
:10A6E000000A984228BF184680B201F0ADFC01F084
:10A6F000B1FCBDE8104001F0B5BC0000082814D83A
:10A70000012908D10B4B0C4A03EB80035B6832F83C
:10A7100010201A610BE051B9064B074A03EB800386
:10A720005B6832F810205A6101E0FF2000E0002051
:10A7300040B27047680200202030010873B50F4E08
:10A740008500731904460121186901F0F9FC36F8F7
:10A75000143001A9ADF8043010238DF8073003231D
:10A760008DF80630064B1D44686801F0C3FB204697
:10A770000021FFF7C3FF02B070BD00BF2030010809
:10A780006802002070B5012188B04FF4006001F02C
:10A79000D7FC314B01A81C68304B0025B4FBF3F407
:10A7A000A4B201F0E9FE01A801F0E6FEADF8044014
:10A7B0002B4C42F20F7301A92046ADF80830ADF8DA
:10A7C0000A50ADF8065001F08FFD04A801F0DDFE3F
:10A7D00060230126ADF810302046022304A9ADF80D
:10A7E0001830ADF81260ADF81650ADF81C5001F0FD
:10A7F000C5FD2046294601F001FF204604A901F0CD
:10A8000001FE2046294601F001FF204604A901F07F
:10A810003DFE2046294601F003FF204604A9ADF87D
:10A820001050ADF81260ADF81650ADF8185001F0A8
:10A830006FFE2046294601F0FBFE2046314601F01E
:10A84000D1FE2046314601F0AAFE2046314601F0F5
:10A85000B2FE08B070BD00BFBC02002040420F0035
:10A86000002C014030B51049104B8C8D93F82430EA
:10A87000A4B204FB0334C0F307456C430C4A240C18
:10A88000D4808C8DC0F30725A4B204FB03346C4341
:10A89000240C1481898D506189B2C0B201FB000083
:10A8A00043431B0C938030BD002C01406802002004
:10A8B000D019002030B51049104B8C8D93F82430FE
:10A8C000A4B204FB0334C0F307456C430C4A240CC8
:10A8D000D4818C8DC0F30725A4B204FB03346C43F0
:10A8E000240C1482898D906189B2C0B201FB0000F2
:10A8F00043431B0C938130BD002C014068020020B3
:10A90000D0190020024B00221A70FFF703BE00BFCF
:10A91000D019002073B50F4E85007319044601212C
:10A92000186B06EB440601F00BFCB6F84030ADF8AE
:10A9300004300CB9102300E018238DF807300323EE
:10A940008DF80630044B01A91D44A86A01F0D2FA23
:10A9500002B070BD203001086802002010B1E72865
:10A9600006D07047034B4FF400529B6A1A61704740
:10A97000FFF7D0BD6802002010B1E72806D070476D
:10A98000074B4FF400529B6A5A617047054A0023F7
:10A99000138793879386024A13700123537070477D
:10A9A00068020020002C0140024B0122E7201A70AF
:10A9B000FFF7E2BFD019002010B1E72807D0704799
:10A9C0001D4B9B6ADA6882F40052DA6070471B4ABA
:10A9D0001B4B1178A1B9188F80B208B9D18889B200
:10A9E00019879B8F16499BB20BB1002301E0138995
:10A9F0009BB28B87124B998E89B2B1B9928817E0BE
:10AA0000198F89B209B1002101E0D18989B2198772
:10AA10009B8F0B499BB20BB1002301E0138A9BB2C1
:10AA20008B87074B998E89B209B1002201E0928988
:10AA300092B29A86704700BF68020020D0190020A9
:10AA4000002C014010B51D4A13780BB9012102E01A
:10AA5000632B01D1FF2151705178E7280B44DBB201
:10AA6000137029D1164A6320147816497CB9D4880A
:10AA7000A4B25C43B4FBF0F4A4B20C871489A4B272
:10AA80005C43B4FBF0F4A4B28C8792880EE0D489C6
:10AA9000A4B25C43B4FBF0F4A4B20C87148AA4B251
:10AAA0005C43B4FBF0F4A4B28C87928992B2534316
:10AAB000B3FBF0F080B2888610BD00BF68020020B2
:10AAC000D0190020002C014073B5104C0E4604EB49
:10AAD000400494F84C10054694F8480001F092FAAE
