:020000040800F2
:1050000000500020F98D0008B9840008BB84000816
:10501000C5840008CF840008D9840008000000007F
:10502000000000000000000000000000E384000811
:10503000E584000800000000E7840008E984000817
:105040004D8E00084D8E00084D8E000851870008D7
:105050004D8E00084D8E000859850008798500089E
:1050600099850008CD850008ED8500084D8E000863
:105070004D8E00084D8E00084D8E0008B98700083F
:105080004D8E00084D8E0008F98400084D8E0008F2
:10509000BD8700084D8E00084D8E00080D86000863
:1050A0004D8E00084D8E00084D8E0008D5860008F4
:1050B00021870008318700084187000829850008FA
:1050C000398500084D8E00084D8E0008498500087E
:1050D0004D8E000809850008198500084D8E0008CE
:1050E0005D860008798700084D8E000800000000EA
:1050F00000000000000000000000000000000000B0
:0C51000000000000000000005FF808F153
:1051100010F8012B11F8013B012A28BF9A42F7D061
:10512000D01A704781F0004102E000BF83F00043D5
:1051300030B54FEA41044FEA430594EA050F08BF32
:1051400090EA020F1FBF54EA000C55EA020C7FEAF6
:10515000645C7FEA655C00F0E2804FEA5454D4EB73
:105160005555B8BF6D420CDD2C4480EA020281EA3D
:10517000030382EA000083EA010180EA020281EA75
:105180000303362D88BF30BD11F0004F4FEA0131C7
:105190004FF4801C4CEA113102D0404261EB4101D6
:1051A00013F0004F4FEA03334CEA133302D052425C
:1051B00063EB430394EA050F00F0A780A4F1010418
:1051C000D5F1200E0DDB02FA0EFC22FA05F2801852
:1051D00041F1000103FA0EF2801843FA05F3594138
:1051E0000EE0A5F120050EF1200E012A03FA0EFCB7
:1051F00028BF4CF0020C43FA05F3C01851EBE371E1
:1052000001F0004507D54FF0000EDCF1000C7EEBFD
:1052100000006EEB0101B1F5801F1BD3B1F5001F3B
:105220000CD349085FEA30004FEA3C0C04F101045A
:105230004FEA445212F5800F80F09A80BCF1004F83
:1052400008BF5FEA500C50F1000041EB045141EA05
:10525000050130BD5FEA4C0C404141EB010111F406
:10526000801FA4F10104E9D191F0000F04BF0146B1
:105270000020B1FA81F308BF2033A3F10B03B3F18F
:1052800020020CDA0C3208DD02F1140CC2F10C021F
:1052900001FA0CF021FA02F10CE002F11402D8BF7D
:1052A000C2F1200C01FA02F120FA0CFCDCBF41EA49
:1052B0000C019040E41AA2BF01EB0451294330BD18
:1052C0006FEA04041F3C1CDA0C340EDC04F11404F5
:1052D000C4F1200220FA04F001FA02F340EA0300CC
:1052E00021FA04F345EA030130BDC4F10C04C4F112
:1052F000200220FA02F001FA04F340EA03002946F2
:1053000030BD21FA04F0294630BD94F0000F83F43B
:10531000801306BF81F480110134013D4EE77FEA1E
:10532000645C18BF7FEA655C29D094EA050F08BF6A
:1053300090EA020F05D054EA000C04BF194610464B
:1053400030BD91EA030F1EBF0021002030BD5FEA8F
:10535000545C05D14000494128BF41F0004130BDB7
:1053600014F580043CBF01F5801130BD01F000450B
:1053700045F0FE4141F470014FF0000030BD7FEA7E
:10538000645C1ABF194610467FEA655C1CBF0B4679
:10539000024650EA013406BF52EA033591EA030F90
:1053A00041F4002130BD00BF90F0000F04BF002188
:1053B000704730B54FF4806404F132044FF00005BB
:1053C0004FF0000150E700BF90F0000F04BF002134
:1053D000704730B54FF4806404F1320410F000459A
:1053E00048BF40424FF000013EE700BF42004FEA95
:1053F000E2014FEA31014FEA02701FBF12F07F4312
:1054000093F07F4F81F06051704792F0000F14BF0E
:1054100093F07F4F704730B54FF4607401F0004552
:1054200021F0004120E700BF50EA010208BF7047A9
:1054300030B54FF000050AE050EA010208BF70479E
:1054400030B511F0004502D5404261EB41014FF407
:10545000806404F132045FEA915C3FF4DCAE4FF00B
:1054600003025FEADC0C18BF03325FEADC0C18BFF2
:10547000033202EBDC02C2F1200300FA03FC20FA43
:1054800002F001FA03FE40EA0E0021FA02F1144490
:10549000C1E600BF70B54FF0FF0C4CF4E06C1CEAA5
:1054A00011541DBF1CEA135594EA0C0F95EA0C0F1A
:1054B00000F0DEF82C4481EA030621EA4C5123EA8D
:1054C0004C5350EA013518BF52EA033541F48011BC
:1054D00043F4801338D0A0FB02CE4FF00005E1FB6F
:1054E00002E506F00042E0FB03E54FF00006E1FBB9
:1054F00003569CF0000F18BF4EF0010EA4F1FF04FC
:10550000B6F5007F64F5407404D25FEA4E0E6D413B
:1055100046EB060642EAC62141EA55514FEAC5204C
:1055200040EA5E504FEACE2EB4F1FD0C88BFBCF5C8
:10553000E06F1ED8BEF1004F08BF5FEA500E50F179
:10554000000041EB045170BD06F0004646EA01013F
:1055500040EA020081EA0301B4EB5C04C2BFD4EB71
:105560000C0541EA045170BD41F480114FF0000E6A
:10557000013C00F3AB8014F1360FDEBF002001F0D8
:10558000004170BDC4F10004203C35DA0C341BDC52
:1055900004F11404C4F1200500FA05F320FA04F024
:1055A00001FA05F240EA020001F0004221F0004158
:1055B00010EBD37021FA04F642EB06015EEA430ECB
:1055C00008BF20EAD37070BDC4F10C04C4F12005FB
:1055D00000FA04F320FA05F001FA04F240EA0200AE
:1055E00001F0004110EBD37041F100015EEA430E7F
:1055F00008BF20EAD37070BDC4F1200500FA05F29F
:105600004EEA020E20FA04F301FA05F243EA02031D
:1056100021FA04F001F0004121FA04F220EA02002C
:1056200000EBD3705EEA430E08BF20EAD37070BD72
:1056300094F0000F0FD101F00046400041EB010152
:1056400011F4801F08BF013CF7D041EA060195F034
:10565000000F18BF704703F00046520043EB0303EE
:1056600013F4801F08BF013DF7D043EA06037047DB
:1056700094EA0C0F0CEA135518BF95EA0C0F0CD0E6
:1056800050EA410618BF52EA4306D1D181EA03012C
:1056900001F000414FF0000070BD50EA410606BF26
:1056A0001046194652EA430619D094EA0C0F02D16B
:1056B00050EA013613D195EA0C0F05D152EA0336B0
:1056C0001CBF104619460AD181EA030101F00041CE
:1056D00041F0FE4141F470014FF0000070BD41F017
:1056E000FE4141F4780170BD70B54FF0FF0C4CF4F1
:1056F000E06C1CEA11541DBF1CEA135594EA0C0F10
:1057000095EA0C0F00F0A7F8A4EB050481EA030E5C
:1057100052EA03354FEA013100F088804FEA033343
:105720004FF0805545EA131343EA12634FEA022211
:1057300045EA111545EA10654FEA00260EF00041D2
:105740009D4208BF964244F1FD0404F5407402D224
:105750005B084FEA3202B61A65EB03055B084FEAB5
:1057600032024FF480104FF4002CB6EB020E75EBB2
:10577000030E22BFB61A754640EA0C005B084FEADA
:105780003202B6EB020E75EB030E22BFB61A754657
:1057900040EA5C005B084FEA3202B6EB020E75EBA2
:1057A000030E22BFB61A754640EA9C005B084FEA1A
:1057B0003202B6EB020E75EB030E22BFB61A754627
:1057C00040EADC0055EA060E18D04FEA051545EA16
:1057D00016754FEA06164FEAC30343EA52734FEABF
:1057E000C2025FEA1C1CC0D111F4801F0BD141EA38
:1057F00000014FF000004FF0004CB6E711F4801F9D
:1058000004BF01430020B4F1FD0C88BFBCF5E06F7C
:105810003FF6AFAEB5EB030C04BFB6EB020C5FEA8C
:10582000500C50F1000041EB045170BD0EF0004EE1
:105830004EEA113114EB5C04C2BFD4EB0C0541EA13
:10584000045170BD41F480114FF0000E013C90E610
:1058500045EA060E8DE60CEA135594EA0C0F08BFD4
:1058600095EA0C0F3FF43BAF94EA0C0F0AD150EAD3
:1058700001347FF434AF95EA0C0F7FF425AF104666
:1058800019462CE795EA0C0F06D152EA03353FF48E
:10589000FDAE1046194622E750EA410618BF52EA0B
:1058A00043067FF4C5AE50EA41047FF40DAF52EADF
:1058B00043057FF4EBAE12E74FF0FF3C06E000BF7C
:1058C0004FF0010C02E000BF4FF0010C4DF804CD89
:1058D0004FEA410C7FEA6C5C4FEA430C18BF7FEA49
:1058E0006C5C1BD001B050EA410C0CBF52EA430C77
:1058F00091EA030F02BF90EA020F0020704710F1F7
:10590000000F91EA030F58BF994208BF90422CBF85
:10591000D8176FEAE37040F0010070474FEA410C7E
:105920007FEA6C5C02D150EA013C07D14FEA430C9C
:105930007FEA6C5CD6D152EA033CD3D05DF8040B0D
:10594000704700BF8446104662468C46194663463F
:1059500000E000BF01B5FFF7B7FF002848BF10F116
:10596000000F01BD4DF808EDFFF7F4FF0CBF01205B
:1059700000205DF808FB00BF4DF808EDFFF7EAFFD7
:1059800034BF012000205DF808FB00BF4DF808ED92
:10599000FFF7E0FF94BF012000205DF808FB00BF87
:1059A0004DF808EDFFF7CEFF94BF012000205DF811
:1059B00008FB00BF4DF808EDFFF7C4FF34BF01201E
:1059C00000205DF808FB00BF4FEA410212F500120B
:1059D00015D211D56FF47873B3EB625212D94FEA36
:1059E000C12343F0004343EA505311F0004F23FA20
:1059F00002F018BF404270474FF00000704750EA75
:105A0000013005D111F0004008BF6FF00040704731
:105A10004FF00000704700BF014B0360704700BFAC
:105A2000A047010810B5034B0446036000F024FCB6
:105A3000204610BDA0470108F0B5012185B00546FC
:105A400001F080FEA0F13006072E044625D8164945
:105A5000684601F0FDFD2846694601F061FE0746F3
:105A6000684601F0B3FD0FB1B4B20EE00F496846CD
:105A700001F0EEFD2846694601F052FE05466846F3
:105A800001F0A4FD65B1263CA4B22046032100F03C
:105A900097FF204601F064F804E04FF0FF3001E08A
:105AA0006FF0010005B0F0BD947101089671010816
:105AB000F0B5012185B0044601F044FEA0F13006A6
:105AC000072E49D8684621460322072301F03CFEF1
:105AD0006846264901F0FAFD0546684601F076FD64
:105AE0007DB9684621460322062301F02DFE684653
:105AF0001F4901F0EBFD0746684601F067FD0FB94D
:105B00002DE001251B49684601F0A2FD20466946AB
:105B100001F006FE0746684601F058FD1FB1B6B217
:105B20003046002110E01449684601F091FD2046FE
:105B3000694601F0F5FD0446684601F047FD8CB169
:105B40000A36B6B23046394600F03AFF30462946AA
:105B500000F0BEFF012007E04FF0FF3004E06FF0DF
:105B6000010001E06FF0020005B0F0BD987101087E
:105B70009D7101089471010896710108F0B5012129
:105B800085B0054601F0DEFDA0F13006072E044683
:105B900025D81649684601F05BFD2846694601F0A4
:105BA000BFFD0746684601F011FD0FB1B4B20EE02B
:105BB0000F49684601F04CFD2846694601F0B0FDEA
:105BC0000546684601F002FD65B1263CA4B22046B8
:105BD000012100F0F5FE204601F086F804E04FF0C8
:105BE000FF3001E06FF0010005B0F0BD94710108D5
:105BF00096710108F0B5012189B0044601F0A2FDBB
:105C0000A0F13007072F06463ED8032268462146FA
:105C100001F0C0FD1F4904A801F01AFD204604A9A7
:105C200001F07EFD054604A801F0D0FC55B1BFB2DD
:105C30000021384600F0C4FE684601F0B2FDC1B252
:105C4000384617E0144904A801F002FD204604A9D3
:105C500001F066FD044604A801F0B8FC74B1263ECC
:105C6000B6B22946304600F0ABFE684601F099FD19
:105C7000C1B2304601F0D2F8012401E06FF0010416
:105C8000684601F0A3FC01E04FF0FF34204609B064
:105C9000F0BD00BF947101089671010808B509486C
:105CA000094900F0D7FB0948094900F0D3FB09482E
:105CB000094900F0CFFBBDE808400848084900F05A
:105CC000C9BB00BFA1710108395A0008AD710108B4
:105CD000B15A0008BA7101087D5B0008C57101085E
:105CE000F55B00087047000013B5084C00210091D7
:105CF0000A460B46204601F067FB0549054A204647
:105D000002B0BDE810400CF07FBD00BF6004002071
:105D1000195A0008D0050020013101EB42029142DE
:105D20000BD0030F092B94BF3033373301F8013CFC
:105D30000023000101F8023BF1E770471F4B10B54B
:105D40001A88032A04D804200146188006F0A6FC0D
:105D50004FF000604FF4A04106F0F4FB0124184B13
:105D6000184821461C7006F0ADFE05F093FC05F0C6
:105D700079F92146402006F067FF6FF07F4005F07B
:105D8000E3FAE72005F05CFB0F4B1C7005F0B4F95B
:105D90007D2006F07DFF18B10C4B1C7006F08CFFC7
:105DA00040F6B83005F002FA05F058FF06F0D2F9D7
:105DB000074A01231370074A137010BDAC15002069
:105DC0008815002000043000B8140020241F002093
:105DD000401500203615002038B52F4C2388042BA1
:105DE00004D805210420218006F058FC2B4D2B7887
:105DF00013B12B4802F052F92B7853B12388052BAD
:105E000005D8254B06210420198006F047FC02F036
:105E1000C9F92B7863B1234B1B784BB9224B1B7804
:105E200033B1224B1B781BB9214B1B78002BE3D0DD
:105E3000204B1B78002BDFD11F4B1B78002BDBD1B5
:105E40001B4B1B78012B0FD01C4B6BB12388062BEF
:105E500005D8114B07210420198006F01FFCFFF71D
:105E60001DFF134B01221A70154B002BC4D0238841
:105E7000072B05D8084B08210420198006F00EFCDA
:105E8000FFF730FF2388082BB6D8034B09210420E5
:105E9000198006F003FCAFE7AC1500204015002088
:105EA000C9660008F514002036150020B61400203D
:105EB00068040020B7140020241F00209D5C000807
:105EC000E55C0008F8B5524B1A6812B11A68013A3D
:105ED0001A60504B504D1B783BB1504B1B78002B38
:105EE00028D04F4B002B47D124E04E4C2368264648
:105EF00013B12368013B0FE04B4B1B78D3B94B4BDD
:105F00001B78BBB94A4B1B78A3B94A4F3B782BB1DE
:105F1000E72005F009FB142323600BE02B78002B0E
:105F20002DD1E72005F0BAFA434B1B78002B34D073
:105F3000322333602B7833B1404C23781BB92EE0E9
:105F40005A6801325A603E4B1A68B2F57A7F0FD315
:105F500000221A6006F00EFE3A4B4FF6FF711A88C7
:105F60008A4254D019800420BDE8F84006F096BB60
:105F70001A6801321A60F8BD00F0F0FBDAE7324B24
:105F80001B78002BCDD04FF6FF7005F0DDF9E72030
:105F900005F056FA01233B70CCE76423C9E7234B95
:105FA0001B788BB1294B47F22F5259689142C7D9C0
:105FB000BFF34F8F264A274BD16801F4E0610B43B2
:105FC000D360BFF34F8FFEE7174D2B7803F0FF062A
:105FD00033B9304605F0BEFB40F6B73398420DD8D2
:105FE000002005F0B7FB41F657339842ABD90020AB
:105FF00005F0B8FB184B01221A70A4E7304605F0F3
:10600000B1FB2378002B9ED101232B709BE7F8BDB9
:106010002C1F0020681500204015002004080020D7
:106020005D670008281F0020E6140020B714002038
:10603000B9140020B8140020B5140020F514002075
:10604000301F0020AC150020B6140020680400208A
:1060500000ED00E00400FA05E414002008B5094B47
:10606000186005F0A1FD002005F0EAFD064805F0E6
:106070001DF805F0B1FD05F0CFFDBDE8084007F0C3
:1060800003BD00BFB4020020A0860100074B1B68BF
:10609000052B08D1064B1A7A012A04D1987A1B7B6A
:1060A000C01AC0B270470020704700BFB015002072
:1060B000680400200D4B10B51B68052B13D10C4C48
:1060C000237A012B0FD16289A389D31A012B04D122
:1060D00000230320237207F02EFEA3895A1CA281FD
:1060E0001C44A07B10BD4FF0FF3010BDB015002048
:1060F0006804002008B50C4B1B68052B12D10B4B14
:106100001A6D99180132B2F5807F08BF002281F81C
:1061100054001A6505F016FC20B16420BDE8084063
:1061200004F0C4BF08BD00BFB01500206804002003
:10613000F8B5234B93F85421012A3FD0D3F85821C6
:10614000196DB2F5807F04BF0022C3F85821D3F83F
:1061500058411B4A8C4203D1002382F85431F8BDC8
:106160008CBFC4F58071C4EB0101C2F85C11D3F897
:106170005C61134D402EA2B207D94034403EC5F8B1
:106180005841C5F85C61402706E034440021B7B2AD
:10619000C5F85841C5F85C110A4801241044C021D3
:1061A0003A4683F8544107F041FD2046394607F04E
:1061B00045FE2046BDE8F84007F0AABDF8BD00BF87
:1061C00068040020BC040020094B10B593E81400BB
:1061D00008331B68D0180AD006490822FFF79CFD37
:1061E000204605490422BDE81040FFF795BD10BDCB
:1061F000E8F7FF1F630200207302002013B5084C6C
:10620000002100910A460B46204601F0DDF80549C1
:10621000054A204602B0BDE810400CF0F5BA00BFB8
:10622000C8050020195A0008D005002038B50446DA
:106230000D46AC4203D254F8043B9847F9E738BD09
:1062400008B507480749FFF7F1FF07480749FFF777
:10625000EDFFBDE8084006480649FFF7E7BF00BF6D
:10626000D8760108D8760108D87601083477010875
:1062700034770108347701080CF01EBB08B50720FD
:1062800006F08CF8FEE70000074A08B513681844CA
:106290001060064A904204D9082006F07FF80CF0FE
:1062A000E1FA184608BD00BF0000002000480020A9
:1062B0004FF0FF3070470120704708B50C2006F002
:1062C0006DF8FEE7014B1868704700BFD405002049
:1062D000064B0246582000FB013101F1080303CBB5
:1062E0001060516018689060704700BFD4050020AE
:1062F000014BD3F864017047D4050020064B0246D9
:10630000142000FB013101F5B67303CB106051601E
:1063100018689060704700BFD405002038B5054666
:10632000064C28B105F0B2F8012384F8303238BDAC
:1063300005F05AF884F8305238BD00BFD40500206B
:106340000E4B2DE9F041D3F8647180460024BC4225
:1063500011DA14256543094E414606F5B670284406
:106360000C220CF02DFC20B93544D5F86801BDE8AD
:10637000F0810134EBE70020BDE8F081D405002076
:10638000044B01221A70044B00224FF4C0201A6003
:1063900005F0DABCB71400206C040020034A002387
:1063A0001370034A136005F02DBD00BFB714002021
:1063B0006C040020024B00221A6005F0EDBC00BF07
:1063C0006C0400202DE9F04788B0804668460D46F1
:1063D00001F03EF91E4B0024D3F800A054452DDAFD
:1063E00055B3582666431A4F414607F1080030441A
:1063F0000C2207F104090CF0E3FBE8B928460CF085
:10640000D7FB06F11003402834BF0246402229463C
:1064100009EB03000CF067FA3E44012386F858307C
:10642000694604A8746801F035F904A8A047044639
:1064300004A801F0CBF803E00134CFE74FF0FF34BC
:10644000684601F0C3F8204608B0BDE8F08700BFF9
:10645000D40500202DE9F84F0446894600293DD097
:1064600000283BD01E4D2E68042E37D005F10807BA
:106470004FF0000805F1040AB0450DDA57F8043C66
:106480004B4505D1384621460C220CF099FB28B328
:1064900008F101085837EFE74FF0580808FB06F8F5
:1064A00005EB080708F1100000214022C7F804900E
:1064B00050440CF03CFA0AEB0800002104300C2296
:1064C0000CF035FA2068616807F1080303C3A0687F
:1064D00001361860002387F858302E60BDE8F88F29
:1064E000D405002010B5064C206803F0C9F82368D5
:1064F000013303D0431E5842584110BD012010BD46
:106500000400002038B50B4B05461B780C466BB9D0
:10651000094B1B7853B9FFF7E5FF034630B9074A2B
:1065200029461068224604F06BF838BD4FF0FF3062
:1065300038BD00BFF4140020F51400200400002032
:106540002DE9F041264B86B01B7880460F46002B84
:1065500041D1244B1B78002B3DD1FFF7C3FF0446EC
:10656000002838D1204D8DF80C008DF80D008DF8E5
:106570000E008DF80F00286806AA460902EB860671
:10658000012100F01F02914056F80C2C01300A4303
:1065900046F80C2C41F28832059204AA009203A915
:1065A00022462346049403F00DFF002815DD2B68D6
:1065B00006AA590902EB810151F80C5C03F01F0295
:1065C000154115F0010008D0184641463A462346C9
:1065D00003F098FF01E04FF0FF3006B0BDE8F08116
:1065E000F4140020F51400200400002030B51F48EA
:1065F000ADF57B7D07F08DFC002834D11C4B17A82E
:1066000005931C4B61AD06931B4B049007931B4BEA
:106610000EAC08931A4B039509931A4B0A931A4B25
:106620000B931A4B0C931A4B0D931A4B0E931A4B58
:106630000F931A4B10931A4B11931A4B12931A4B38
:1066400013931A4B14931A4B15931A4B169305F088
:106650001FFC284605F022FC00940448164903AAB2
:1066600005AB07F05DFC0DF57B7D30BD0808002013
:106670000565000841650008816300089D63000806
:10668000CDBE0008B56300081D630008956F0008C3
:1066900075780008C5620008D1620008C56300086B
:1066A000F1620008FD6200086969000841630008A2
:1066B000A9BE0008BDBE0008E8F7FF1F014808F0AA
:1066C00064BB00BF0808002030B502208DB0014631
:1066D000112203F0B9FD051E28DB07A8144907F0B5
:1066E0006FFD0223ADF80C3016238DF80E303323E6
:1066F0008DF80F30E0238DF8103000238DF8113025
:1067000001238DF81230BB238DF81330032403AB23
:10671000009310230193284607A91322002303F0B6
:1067200079FF013CF3D1284603F0BEFD0DB030BD2A
:10673000E8F7FF1F38B5084CFFF758FF204607F071
:10674000EBFB204607F0C5FF0546FFF7BDFF2046DF
:1067500007F02EFF284638BD0808002038B5114C38
:10676000D4F8585B2DB1D4F8583B013BC4F8583BE2
:1067700038BDD4F85C3B0C4A52F8230004F00CFE00
:10678000E72004F05DFE6423084AC4F8583BD4F8BF
:106790005C3B526801339342C4F85C3BA8BFC4F829
:1067A0005C5B38BDD4050020484701080400002088
:1067B0007FB502200121062203F046FD041E24DBE2
:1067C0000223ADF8003000238DF8023035238DF818
:1067D00003304FF4FA5008238DF804308DF805305B
:1067E0008DF806308DF8073001F050FC6946102214
:1067F0000546204603F0B8FD0646284601F046FC53
:10680000204603F051FD304601E04FF0FF3004B068
:1068100070BD000010B5064C2068002805DB03F0B1
:1068200043FD4FF0FF33236010BD002010BD00BFBB
:1068300004000020F0B5A7B0FFF7ECFF0220012113
:10684000062203F001FD324F0028386050DB314D45
:106850000223A5F8603B162385F8623B05A8332385
:1068600085F8633B05F0E0FA002300939DF81430AF
:106870003BB1012B17D0284B01AC03F1100E22467F
:1068800002E0069B009313E018685968264603C689
:10689000083373453446F7D10FCA06AC07C424F851
:1068A000023B1B0C23700A24009B0BB9013C22D134
:1068B000009B0BB9194B0093009B4FF4FA501A0E32
:1068C00085F8642B1A0C85F8652B1A0A85F8673B46
:1068D00085F8662B01F0DAFB11490446102238686E
:1068E00003F042FD0546204601F0D0FB28460CE0AF
:1068F0004FF0FF3009E006A87E210CF077F96A46D8
:1069000081B206A803F0F6FCCEE727B0F0BD00BFC9
:1069100004000020D4050020D171010804E5D03620
:10692000341100200F4B2DE9F041D3F864718046FB
:106930000024BC4211DA142565430A4E414606F58F
:10694000B67028440C220CF03BF920B9354495F878
:106950007801BDE8F0810134EBE74FF0FF30BDE88E
:10696000F08100BFD405002008B5FFF7DBFF013838
:10697000082803D8024B1844007F08BD022008BD38
:106980004847010837B50B4C002104F537650B4625
:1069900000910A46284600F017FD28460649074A96
:1069A0000BF032FF04F50D7003B0BDE8304007F086
:1069B0009BBA00BFD4050020195A0008D00500205A
:1069C00014282DE9F34104460E4677D8FF2975D0E7
:1069D00000F0C4FD20B1A4F10D039BB2022B6DD9D0
:1069E00000F086FC08B1012C68D901F0C9F820B18B
:1069F000A4F112039BB2012B60D918236343314DDC
:106A0000EA18EF58304BB2F804809F4201D10420BD
:106A100003E02E4B9F4203D10820012106F020F90C
:106A2000ADF80480062E45D8DFE806F0040F171FE6
:106A300027313C0010238DF8073003238DF80630F2
:106A4000182303FB0454002333E004238DF807309C
:106A5000182303FB045401232BE048238DF807304F
:106A6000182303FB0454022323E028238DF8073066
:106A7000182303FB045403231BE0182303228DF87F
:106A8000073003FB04548DF80620042311E01C2377
:106A90008DF8073003238DF80630182303FB0454C8
:106AA000052306E000238DF80730182303FB045468
:106AB0000623A373384601A905F0A6FF02B0BDE87E
:106AC000F08100BF0C00002000080140000C0140D4
:106AD000142870B504460E463FD8204D182303FBFA
:106AE00000539B7B5A1ED2B2022A36D9062B34D0D1
:106AF000FF2B32D000F032FD28B1A4F10D039BB280
:106B0000022B00D870BD00F0F3FB10B1012C00D8AF
:106B100070BD01F035F828B1A4F112039BB2012B2E
:106B200000D870BD182303FB04539B7B042B03D1B7
:106B300020460021FFF744FF012E06D118235C43B5
:106B40002A192B5992881A6170BD36B918235C43F3
:106B50002A192B5992885A6170BD70BD0C00002013
:106B6000142838B5044617D81E4D182303FB0053CC
:106B70009B7BFF2B10D0043BDBB2012B0CD900F028
:106B8000EDFC20B1A4F10D039BB2022B04D900F05F
:106B9000AFFB18B1012C01D8002038BD00F0F0FF88
:106BA00020B1A4F112039BB2012BF5D9182303FBEA
:106BB00004539B7B062B07D10A4B93F8F811FF294E
:106BC000EAD02046FFF7FCFE182254432544054B2B
:106BD000AA7BA988185912B905F06AFF38BD05F0DB
:106BE00061FF38BD0C000020F0B54FF4004091B0BB
:106BF00006F002F80120014606F026F801214FF4C4
:106C0000C06006F02DF8334805F06CFD324B0024CF
:106C10000593324B2F4806930A23089380230A9347
:106C20004FF400730B934FF400630C9305A94FF4DA
:106C300000530E9301254FF400274FF4602607946C
:106C400009940D940F9405F0C5FD254869460097F9
:106C50008DF804408DF80540029603948DF810508D
:106C600005F07AFC1F48694600978DF804408DF8BE
:106C70000540029603948DF8105005F06DFC1848FD
:106C8000294605F08DFC164805F09CFC144805F0DB
:106C90009EFC0028FAD1124805F09DFC104805F032
:106CA0009FFC0028FAD10F48012105F079FC0D481E
:106CB00005F088FC0B4805F08AFC0028FAD1094849
:106CC00005F089FC074805F08BFC0028FAD111B0CB
:106CD000F0BD00BF080002404C24014050110020CC
:106CE0000024014000280140092870B504469CBFDB
:106CF00000F10A04A4B200F031FC30B1A4F10D039C
:106D00009BB2022B01D8002070BD00F0F1FA00F018
:106D100037FF20B1A4F112039BB2012BF3D9142C3D
:106D2000F1D8394D182303FB04539A79FF2AEAD08E
:106D300095F8FA11914206D09B7B2046062185F8F2
:106D4000F831FFF73DFE95F8FB31012B05D1FFF738
:106D50004BFF2D4B002283F8FB21182303FB045427
:106D600095F8FA31A179284E8B420FD0274801229D
:106D700096F8F93105F041FC96F8F9312448A179EB
:106D8000012205F03AFCA37986F8FA310021214C62
:106D9000002344F8213001310A29F8D11E4805F0BA
:106DA0004AFD1B48012105F070FC1B48012105F03C
:106DB0002FFD1648012105F0FCFB1448012105F0C8
:106DC00013FC022005F03AFD0028FAD0022005F05D
:106DD00043FD0E48002105F0ECFB0F48002105F0B3
:106DE00017FD00231A4654F8230054F823100133EA
:106DF00089B201EB10410A2B0A44F4D11420B2FBF2
:106E0000F0F290B270BD00BF0C00002000240140E1
:106E10000028014050110020080002402DE9F043F5
:106E2000142889B005460E4600F2A680544F182358
:106E300003FB00739B68002B00F09E8000F08EFB2C
:106E400028B1A5F10D039BB2022B40F2958000F012
:106E50004FFA10B1012D40F28F8000F091FE28B161
:106E6000A5F112039BB2012B40F28680182404FB8B
:106E70000574A37B13F0FB0F7ED1424B4BF6803899
:106E800008FB06F81A68404B0120B2FBF3F90146F3
:106E9000FF2398FBF3F805F0E3FE28460421FFF7F3
:106EA0008FFDA36809F1FF39B3F1804F1FFA89F90B
:106EB0001FFA88F802D10120014609E0334A9342C3
:106EC00008BF022003D0324A934203D1042001219B
:106ED00005F0D2FE182404FB057400264BF67F3320
:106EE000A06801A9ADF80830ADF80A60ADF80660F9
:106EF000ADF8049005F0ACFF6023ADF81860A689EA
:106F0000ADF810300123ADF81230ADF8168046B957
:106F1000A06804A905F0E6FFA068082106F022F9A0
:106F20001FE0042E08D1A06804A906F01FF8A0688D
:106F3000082106F01FF914E0082E08D1A06804A962
:106F400006F058F8A068314606F01EF909E00C2E4C
:106F500007D1A06804A906F08FF8A068082106F000
:106F60001BF9182303FB05750121A86806F0EEF84C
:106F7000A868012106F0C7F809B0BDE8F08300BF9A
:106F80000C000020A803002000366E010004004021
:106F90000008004004F0D4BF13B5084C0021009154
:106FA0000A460B46204600F00FFA0549054A2046DE
:106FB00002B0BDE810400BF027BC00BF78110020E4
:106FC000195A0008D005002038B5184B05461C8812
:106FD00003F580631B88A4B29BB22BB94EF6EE6218
:106FE000A21A18BF012205E0F4B94EF6EE629B1A10
:106FF0005A425A4192020E4B02F1006404F5804459
:1070000013449C420ED22268013209D1204605F079
:10701000DFFC042809D1A01C294605F0D9FC38BDA5
:107020000434EEE7802038BDAB2038BD00400008B6
:10703000FE43000808B5084805F0ACFC04280AD156
:107040000548002105F0C4FC042804D1BDE808402F
:10705000024805F09FBC08BD00400008004400083D
:10706000104B10B51C8803F580631B88A4B29BB23B
:107070001CB10BB1AB2010BD01240B4BA402234467
:107080000A4A224493420AD91A8892B2824204D10F
:1070900033F8023C00200B8010BD043BF0E70120D8
:1070A00010BD00BF00400008FE4300080240000879
:1070B000F8B5444E05F02EFC434D34884EF6EE6193
:1070C000A4B22B888C429BB24FF6FF7210D0944230
:1070D00002D0002C73D142E00BB930466CE08B42F9
:1070E0006DD1304605F056FC04286AD1284632E0BE
:1070F0004BBB1C461646354B354A1B8832F814509C
:107100009BB2AB4208BFA6B233B29C4203D101345A
:10711000642CF0D10FE02E4F284607F1C801FFF78D
:107120009FFF0128F3D02846B7F8C810FFF74CFF9F
:107130000428ECD0F8BD2348002105F049FC0428C0
:107140003FD1214838E0934239D1284605F022FC4E
:10715000042836D13046002105F03AFCF8BD73B35F
:10716000934201D1284627E016461A4B184A1B883D
:1071700032F814509BB2AB4208BFA6B233B29C4265
:1071800003D10134642CF0D10FE0114F284607F1F0
:10719000C801FFF765FF0128F3D02846B7F8C810EB
:1071A000FFF712FF0428ECD0F8BD0748002105F0D6
:1071B0000FFC042805D1034805F0ECFBF8BDFFF7F0
:1071C00039FFF8BD004000080044000806400008F0
:1071D000801100200644000810B50446FFF768FF40
:1071E0000023044A22F813300133642BF9D12046DE
:1071F00010BD00BF801100200148FFF7EDBF00BFA8
:107200004A120020024B18785B78C01A704700BF02
:107210004C120020064B5A781978914204D99918DB
:10722000013288785A7070474FF0FF30704700BFC6
:107230004C120020054B5A781978914202D9134418
:10724000987870474FF0FF30704700BF4C12002015
:1072500070470000014B0360704700BFB84701084A
:1072600010B5034B04460360FFF706F8204610BD37
:10727000B8470108F8B5094B054693F82230164681
:1072800053B10C468F18BC4206D02B6828469B6829
:1072900014F8011B9847F6E73046F8BD4C12002061
:1072A00010B50C4B012293F822408CB193F8234087
:1072B0001F2C02D94260002010BD93F824001C1836
:1072C00084F82510411CC9B283F8241083F82310D8
:1072D000104610BD4C120020002242604FF47A721A
:1072E0008260014A02607047784701087047704722
:1072F000014B93F8590070474C12002073B50E4CA7
:10730000002104F164050D4E0B4600910A46284603
:1073100000F05AF86C343246094928460BF074FAEA
:107320002046FFF7D9FF07492046324602B0BDE8A4
:1073300070400BF069BA00BF4C120020D00500204D
:10734000195A00085572000808B5034B53F820304D
:1073500003B1984708BD00BFC812002013B5084C00
:10736000002100910A460B46204600F02DF8054901
:10737000054A204602B0BDE810400BF045BA00BFF8
:1073800008130020195A0008D00500202DE9F0410B
:10739000002407460E4625463B1919790A22304635
:1073A00000F0AAF82E218046304600F076F801342D
:1073B0004044032C0544EFD13046F9790A2200F00D
:1073C0009BF82844BDE8F08130B58371034D9DF8EA
:1073D0000C30056001714271C37130BDA0470108D6
:1073E0000548064B06490360064A002303714371B2
:1073F0008371C3710BF008BA10130020A047010875
:10740000195A0008D005002013B5084C002100913E
:107410000A460B462046FFF7D7FF0549054A204696
:1074200002B0BDE810400BF0EFB900BF1813002008
:10743000195A0008D0050020014B0360704700BFB7
:10744000B8470108F8B506460C468F180025BC421F
:1074500007D0336830469B6814F8011B98470544F1
:10746000F5E72846F8BD000010B5034B044603605D
:10747000FEF702FF204610BDB847010838B50546A3
:107480000C46084641B10BF093FB2B680246DB68C3
:1074900028462146984738BD38BD08B503689B6823
:1074A000984708BD30B500238BB08DF82430012AF1
:1074B00098BF0A220DF12304B1FBF2F303FB121172
:1074C000CDB2092D94BF30353735EDB2214604F8E1
:1074D00001590BB11946EFE7FFF7D0FF0BB030BDF4
:1074E00010B522B90268C9B29268904710BDD2B2F5
:1074F000BDE81040FFF7D6BFFFF7F2BF13B5084C49
:10750000002100910A460B462046FFF75DFF054922
:10751000054A204602B0BDE810400BF075B900BF27
:1075200028130020195A0008D005002013B5084C74
:10753000002100910A460B462046FFF745FF05490A
:10754000054A204602B0BDE810400BF05DB900BF0F
:1075500030130020195A0008D0050020014B587D37
:10756000704700BF381300207047000013B5084C67
:10757000002100910A460B462046FFF725FF0549EA
:10758000054A204602B0BDE810400BF03DB900BFEF
:1075900050130020195A0008D005002013B5084CDC
:1075A000002100910A460B462046FFF70DFF0549D2
:1075B000054A204602B0BDE810400BF025B900BFD7
:1075C0005C130020195A0008D005002010B50446AD
:1075D00000680BF071F9204610BD10B50446006834
:1075E00008B10BF069F900232360A360636010BD4C
:1075F00038B504460D46006801310BF073FA10B13E
:1076000084E82100012038BD036810B5044613B199
:1076100043688B4207D22046FFF7EAFF20B1A368F8
:107620000BB922681370012010BD70B50E461146CB
:1076300004461546FFF7E8FF18B92046FFF7CDFFCF
:1076400004E0A560206831460BF0AAFA204670BD20
:1076500038B50023044603604360836003730D461E
:1076600039B108460BF0A4FA294602462046FFF736
:10767000DCFF204638BD884210B50B46044607D0D3
:10768000096819B19A68FFF7D0FF01E0FFF7A5FF7D
:10769000204610BD10B5002304460360436083609C
:1076A0000373FFF7E8FF204610BD38B505460C46CA
:1076B00041B108460BF07CFA214602462846FFF706
:1076C000B4FF01E0FFF789FF284638BD826808B59E
:1076D0000B4612B919B9012008BD11B90368187811
:1076E00002E00068FDF714FDD0F1010038BF002072
:1076F00008BD10B58B688468E41AA2420CD80068F3
:1077000068B1096851B110441A460BF059FAD0F12A
:10771000010038BF002010BD002010BD084610BD7C
:1077200082688B689A4202D30022FFF7E2BF0020F2
:1077300070478368994203D2006810B1405C70477B
:1077400000207047FFF7F5BF9A422DE9F041074648
:107750000D4614461E4601D93446164638460C4995
:10776000FFF776FFAB689C420FD89E4228BF1E46AB
:107770002B68002213F806809A5529683846214460
:10778000FFF793FF2B6803F806803846BDE8F081C9
:107790009873010810B58B680446FFF7D5FF2046A3
:1077A00010BD006808B10BF064B8704713B5084C01
:1077B000002100910A460B462046FFF705FE0549C9
:1077C000054A204602B0BDE810400BF01DB800BFCE
:1077D00064130020195A0008D005002013B5084C86
:1077E000002100910A460B462046FFF7EDFD0549B2
:1077F000054A204602B0BDE810400BF005B800BFB6
:107800006C130020195A0008D005002038B5184C18
:1078100094F92C305BB394F82D3043B305F074FA2F
:1078200094F82C2094F82D5051B2002995FBF1F1D9
:1078300006DD01290BDC013A84F82C20002307E047
:10784000013104DB013284F82C20022300E0012303
:1078500094F82D20013A84F82D20C41805F088FAF8
:10786000204605F065FABDE8384005F081BA38BD1C
:107870007413002010B5044605F046FA001B00F111
:107880007F02FE2A08D905F073FA204605F050FA67
:10789000BDE8104005F06CBA054A80EAE073A3EB3E
:1078A000E0735B0082F82C0082F82D3010BD00BF21
:1078B0007413002013B5084C002100910A460B46B2
:1078C0002046FFF781FD0549054A204602B0BDE884
:1078D00010400AF099BF00BFA4130020195A0008F5
:1078E000D005002013B5084C002100910A460B4634
:1078F0002046FFF769FD0549054A204602B0BDE86C
:1079000010400AF081BF00BFB0130020195A0008D0
:10791000D005002013B5084C002100910A460B4603
:107920002046FFF751FD0549054A204602B0BDE853
:1079300010400AF069BF00BFB8130020195A0008B0
:10794000D0050020014B0360704700BFB847010815
:10795000426D836DD01A00F03F007047426D836D19
:107960009A4203D0836D1844007D70474FF0FF307A
:107970007047426D836D9A4209D0836D826D0344D6
:107980001B7D013202F03F028265184670474FF0BE
:10799000FF30704710B5034B04460360FEF76CFCE4
:1079A000204610BDB847010810B50446D4F89C2005
:1079B000D4F8A0309A42F9D1237C13B90023237460
:1079C00010BDD4F8A4304021186805F01EFC002832
:1079D000F4D1F1E7D0F8A43070B504460E4618682B
:1079E00040F2277105F017FC28B9D4F89C20D4F890
:1079F000A0309A4215D1D4F89C50013505F03F05CE
:107A0000D4F8A0309D42D4F8A43013D0EFF3108204
:107A1000D20742D5D4F89C10D4F8A020914209D1C5
:107A20003BE0D4F8A43040F227711868012205F039
:107A3000CCFBE0E7186840F2277105F0ECFB00286A
:107A4000DED0D4F8A4308021186805F0DEFB0028D1
:107A5000D6D0D4F8A43040F227711868002205F07F
:107A6000B4FBD4F8A4301868D4F8A0305A1C2344CE
:107A7000C4F8A02093F85C1005F0BFFBD4F8A03048
:107A800040F2277103F03F03C4F8A030D4F8A430CB
:107A90000122186805F099FBB2E7D4F89C2040F267
:107AA0002771224482F85C60C4F89C500125186854
:107AB00025742A4605F089FB284670BD10B540F2B2
:107AC00025510446006805F0A6FB70B1206805F05A
:107AD00098FBE369C0B21A6C596C013202F03F02A4
:107AE0008A4202D0196C58541A64206840F22771F7
:107AF00005F091FBB8B1A3692068196C5A6C9142EA
:107B000006D1BDE8104040F22771002205F05DBBB0
:107B10005A6C511C5964995C05F06FFBA3695A6C4F
:107B200002F03F025A6410BDF8B54FF47A738360D7
:107B30000C4B0446002503604560C0F8A41004F116
:107B40005C07482614308F613246C86129460AF026
:107B5000EEFE3846294632460AF0E9FE25742046F4
:107B6000F8BD00BFD04701080148FFF7A7BF00BF1D
:107B7000080200200148FFF7A1BF00BF2802002033
:107B8000014B187C704700BFC013002073B50E4C2A
:107B9000002104F114050D4E0B4600910A462846BB
:107BA000FFF712FC1C343246284609490AF02CFE25
:107BB00020460849FFF7B8FF07492046324602B081
:107BC000BDE870400AF020BEC0130020D0050020A0
:107BD000195A0008080200204579000870474FF044
:107BE000FF307047014B0360704700BFB847010882
:107BF00010B5034B04460360FEF73EFB204610BD64
:107C0000B8470108FEF756BA08B5FEF73FFA08BDB7
:107C100008B50846FEF76EFA012008BD0022426052
:107C20004FF47A728260014A02607047F847010897
:107C30000846FEF713BA000037B50D4C00210D4D74
:107C40000B4600910A462046FFF7BEFB2A460A492A
:107C5000204608340AF0D8FD2046FFF7DFFF074929
:107C600020462A4603B0BDE830400AF0CDBD00BF33
:107C700084140020D0050020195A0008E57B000874
:107C80007047000037B50B4C00210B4D0B4600919F
:107C90000A462046FFF798FB2A46204607490AF085
:107CA000B3FD074904F108002A4603B0BDE830409F
:107CB0000AF0AABD9C140020D0050020195A000823
:107CC000817C00080023036018467047002303608E
:107CD0001846704700230360184670472DE9F041AD
:107CE0000B7890B004460D4616462BB1032A54D8A3
:107CF000DFE802F002113C3C20460AF059FF012364
:107D00000246002000930190029003900490059099
:107D1000214603463DE008460AF04AFF00264FEAA6
:107D200050088DF81E60464505F1020508AF0FD0DA
:107D300015F8023C07A88DF81C3015F8013C00210D
:107D400010228DF81D300BF067F8B8550136EAE7C0
:107D500020460AF02DFF0023024601208DE8410055
:107D60000293039304970593214612E00AF020FF43
:107D7000074628460AF01CFF012118221E234FF057
:107D8000020E8DE80E4005900495304621463A4695
:107D9000002302F077FD044B1870034B01225A7048
:107DA00010B0BDE8F08100BFA8140020034610B554
:107DB00048F21004A34208464CD00DDC48F2010200
:107DC000934224D048F2020293422AD0992B64D1E4
:107DD000324B01229A7410BD48F28004A3420FD0A6
:107DE000B3F5084F49D048F24000834255D12B4C9F
:107DF00004F114000AF077FDA36A0133A36210BDF9
:107E0000264B01229A70DA7000221A7110BD234CA1
:107E100001236371FFF7BEF800F5EA403030A0603F
:107E200010BD1E4C637963B1FFF7B4F800F5EA406A
:107E30003030A0604FF47F4003F086FAE72003F073
:107E4000FFFA0023637123736373A373E3732374D3
:107E5000637410BD0A7D114B62B99A604FF47F4084
:107E600001221A731A7403F06FFABDE81040E7207C
:107E700003F0E6BA00221A7310BD002100F0FDFFE6
:107E80000121044601F040F8054B1B689C4204D1D7
:107E9000024B0022DA739A735A7310BDA8140020A3
:107EA000040000201FB54FF461504FF461610A22B5
:107EB00000238DE80F00064B44F620621A606846E6
:107EC00001A902AA03AB01F0E1FC05B05DF804FBD7
:107ED000641500201FB500230093019302930393C0
:107EE00001A8694602AA03AB01F096FC05B05DF853
:107EF00004FB000070B500210A4C0E2001F098FD33
:107F0000102510210E2001F093FD2A462046002165
:107F10000AF00DFD294623460E200022BDE87040E0
:107F200001F03ABDD414002030B5524D00249FB06A
:107F3000FF20AC70EC706C706C712C73AC746C7353
:107F4000AC73EC732C7403F0FFF9E72003F078FABC
:107F500021462246204602F071FC2B46012103F8FF
:107F60002D4F0E200A4601F017FD6B79012B05D12C
:107F7000642003F093F801F0E7F8F6E710210C20F5
:107F800001F056FD3C4802F019F93C4802F0CAFDE8
:107F9000012002F0ABFD6846394900F0F1FDAB78F5
:107FA0006A78344C1A4317D194F83C30002B57D0E0
:107FB000FF2002F04DFD002852D11A24013C06D0CA
:107FC000E72003F06BFA322003F068F8F6E7FFF7DA
:107FD00091FF85F83C40E2E7E72003F031FA04F135
:107FE0002C030E200121002201F0A8FCA37813B17C
:107FF00002F0B8FD20702B780121013385F82C3078
:108000000022204B0E2001F0C7FC00200124014675
:10801000012202F013FC214622461B4B0E2085F85C
:108020002D4001F0B9FC02F08DFB642003F036F81E
:10803000002002F051FB85F83D404FF47F400024C2
:108040002C7403F081F9E72003F0FAF948F20420D8
:1080500002F01AFDFFF726FF85F83E401FB030BD45
:10806000E72003F01BFAFA2003F018F8684600F046
:10807000E3FD94E7A81400201848010848020020F6
:10808000DD7C0008D4140020D5140020024B1A68AF
:1080900018601046704700BF641500207FB5364C4D
:1080A0000025206403F0B0FC03F0F0FB334B344AAE
:1080B0000093344B34490193344B35480293354B8C
:1080C0000393354B02F0F0FA642002F0E7FF002042
:1080D00002F002FB012348F2042084F83D302574AD
:1080E00002F0D2FC2D4B1A881E46012A31D00E20F8
:1080F00010212A4604F12C0301F020FC102828D17D
:1081000023791D4DABB995F82C301BB9012385F8A7
:108110003E300EE095F82D0058B90146012202F0DC
:108120008DFB01212B4603F82D1F0E200A4601F07E
:1081300033FC2379BBB9104B93F83E309BB1184800
:1081400001F05CFCFFF7C6FE04B0BDE87040FFF72D
:10815000A9BEFF2002F07CFCFFF7CCFE0023338099
:1081600003F0A4FDCCE74FF47F4003F0EDF8E720E7
:1081700003F066F9E3E700BFA814002045B9000842
:10818000CD7C000859B90008C57C0008C5B90008B5
:10819000AD7D0008EDB90008D57C000896030020ED
:1081A000EC1400202DE9F341AE4C04F0E3FC002375
:1081B000A36494F84C304BB994F84D3033B9A368AC
:1081C0007BB3FEF7E7FEA36898422AD394F83D30CC
:1081D000A44D002B40D000266E71AE602E732E652C
:1081E00085F84C60012785F83D606E73AE73EE73C1
:1081F0006E7402F0A7FA6FF07F402F7403F0A4F8BA
:10820000E72003F01DF9642002F048FF95F83E30A6
:1082100013B3304602F060FA85F83D70FFF784FE34
:108220001AE094F83D308F4DB3B92B792BB9FEF796
:10823000B1FE00F5EA403030A860002002F04CFAB0
:10824000012384F83D304FF47F400023237403F072
:108250007BF8E72003F0F4F894F83E30814E13B138
:10826000FFF762FE05E033791BB1337B03F0FF05B6
:10827000FBB1E2787B4B012A13D11A7B012A10D182
:108280005B79012B0DD1032577480AF091FC013D64
:1082900082B27549012002F0C9F915F0FF05F3D14A
:1082A000E570237B6F4DE3B195F84D30002B74D012
:1082B00017E029462A462846B56002F0BFFA6B4807
:1082C0000AF076FC6A4F804638460AF071FC009747
:1082D0000190791F032042462B4602F049FA35717E
:1082E000C7E794F8573023B1624800213A220AF0D8
:1082F0001EFB94F88E205B4B32B95A7B002A58D172
:108300009B7B002B55D1BBE01A7BFAB193F84D2033
:10831000E2B95A7B002A5CD018E02B4603F82F2FD5
:108320000E200121032201F037FB00264FF6FF70DB
:10833000267403F009F8E72003F082F8FEF77AFAD2
:10834000B042484D65DB01232E656B73637B454D61
:10835000002B00F09580AB7BBBB9FEF7EBF9002852
:1083600011D002DA4FF47F0007E0012801D1424822
:1083700003E0022803D14FF0FF1002F0E5FFE720F1
:1083800003F05EF801E00123AB73FEF797F90028D4
:1083900076D1E073A073607372E095F85730002BCC
:1083A000A7D1642002F07AFE05F1540001F0B4FA7E
:1083B0009FE7FEF72FFA00234FF47F40E373A37388
:1083C000637302F0C1FFE72002B0BDE8F04103F0A3
:1083D00037B85B7C002BA8D04FF47F0002F0B4FFCD
:1083E000637C204D03F0FF02002B96D0E72003F0C2
:1083F00027F84FF4FA7002F051FEE72003F02EF850
:108400004FF4FA7002F04AFE6B7C013BDBB26B74F6
:10841000E6E795F84C309BBB2B6D0133022B2B65A7
:1084200004BF012385F84C30FEF7C2F900280ADAB0
:10843000236D0133022B236503D10A4B012283F8FC
:108440004C20022300E003236374637C0E2084F835
:108450002F300121094B032201F09EFA00236373A0
:1084600074E700BFA81400204B0200205202002035
:1084700057020020FC1400200060FF00D7140020E9
:1084800002B0BDE8F08100BF13B5084C0021009197
:108490000A460B462046FEF797FF0549054A204647
:1084A00002B0BDE810400AF0AFB900BF3815002097
:1084B000195A0008D0050020704708B5012003F0C4
:1084C0006DFFFEE708B5032003F068FFFEE708B57F
:1084D000042003F063FFFEE708B5052003F05EFF0C
:1084E000FEE770477047704708B503F021FDBDE80F
:1084F0000840FDF7E7BC000008B5024B0BB1AFF335
:10850000008008BD0000000008B5024B0BB1FFF76A
:1085100031FB08BD757B000808B5024B0BB1FFF7B6
:1085200023FB08BD697B000808B5024B0BB1FEF7C1
:10853000DDFE08BDED72000808B5024B0BB1FEF779
:10854000D6FE08BDEF72000808B5024B0BB1FFF76D
:108550000BF808BD6975000808B5012004F0C6F9DC
:1085600038B1012004F0D0F9024B13B10020FEF71E
:10857000EBFE08BD4973000808B5022004F0B6F907
:1085800038B1022004F0C0F9024B13B10120FEF70C
:10859000DBFE08BD4973000808B5042004F0A6F905
:1085A00078B1042004F0B0F90020064B0146188091
:1085B00002F0FCFFBDE8084003481021012204F04E
:1085C000BCBD08BD84150020002C014008B5082062
:1085D00004F08CF938B1082004F096F9024B13B17D
:1085E0000320FEF7B1FE08BD4973000808B510204E
:1085F00004F07CF938B1102004F086F9024B13B175
:108600000420FEF7A1FE08BD4973000808B520202C
:1086100004F06CF938B1202004F076F90E4B13B158
:108620000520FEF791FE402004F060F938B14020AB
:1086300004F06AF9084B13B10620FEF785FE80208E
:1086400004F054F938B1802004F05EF9024B13B104
:108650000720FEF779FE08BD4973000808B54FF4FE
:10866000005004F043F940B14FF4005004F04CF9CD
:10867000174B13B10D20FEF767FE4FF4804004F056
:1086800035F940B14FF4804004F03EF9104B13B17E
:108690000E20FEF759FE4FF4004004F027F940B1D8
:1086A0004FF4004004F030F9094B13B10F20FEF7EE
:1086B0004BFE4FF4006004F019F938B14FF400603C
:1086C00004F022F9BDE8084002F072BC08BD00BF0A
:1086D0004973000808B51048102104F067FDC8B1BF
:1086E0000D48102104F06DFD002003F023F830B98F
:1086F0000A4B1A8892B20A3292B21A8008BD064812
:108700001021002204F019FDBDE8084000200121DD
:1087100002F04CBF08BD00BF002C014084150020B2
:1087200008B5024B1B6803B1984708BD44150020EB
:1087300008B5024B5B6803B1984708BD441500209B
:1087400008B5024B9B6803B1984708BD441500204B
:1087500008B5012004F022FB50B1012004F02EFBEB
:10876000044B0BB1FFF752F8BDE8084004F000BB22
:1087700008BD00BF0D78000808B5022004F00EFB0C
:10878000B0B10C4B00224FF400301A7004F0BCF86A
:10879000012004F019FA10B1012004F01FFA04F0CE
:1087A000E7FA022004F00AFBBDE8084004F0E0BA52
:1087B00008BD00BFF514002002F08CBB00F062B8C9
:1087C00038B514490B78012B23D1134A13680BB920
:1087D0000B7038BD114C402B206881B205D9403058
:1087E000403B20601360402504E09DB203442360B9
:1087F000002313600A482A460844C02105F016FAEF
:108800000120294605F01AFBBDE83840012005F09B
:108810007FBA38BDBC050020C4050020C00500207B
:10882000BC04002008B5094B01221A70084B002235
:1088300003201A8005F032FB064B024618804FF4E5
:1088400088710548BDE8084005F008BA70040020AA
:10885000740400207204002076040020074B1B687B
:10886000052B09D1064B1A68511C052A196003D142
:1088700000221A60FDF75CBC704700BFB0150020F5
:108880005015002070B52B4D2B4C2B682B4E9BB2F6
:108890002380228833881340990508D54FF6FF536B
:1088A0002B60A3780133DBB2A370FFF7D7FF2288D8
:1088B000338813401A0401D505F002F92288338861
:1088C00013405B0505D54FF6FF332B601C4B5B68EF
:1088D0009847228833881A40900444BF4DF6FF72AF
:1088E0002A6022881340D90405D54EF6FF732B6009
:1088F000002003F011FD2288338813401A050BD5A0
:10890000104B1B7813B103F0E7FC02E0022003F0E8
:1089100003FD4FF2FF732B60228833881340DB0581
:1089200007D54FF6FF632B600720BDE8704003F0CA
:10893000F3BC70BD445C004054150020701F002043
:10894000BC020020BC030020034B9B7A13B1034BF5
:1089500005221A60704700BF4C1F0020B015002090
:10896000014B04221A607047B0150020034B1A789F
:10897000202A04BF00221A70704700BF581500203B
:1089800070470000212810B508D1114B1B681B78D7
:1089900003F07F03212B10D0022010BD2028FBD133
:1089A0000B4B0C4A1B681B78107003F07F03212BC4
:1089B000094B18BF00230BB9EEE7084B044A00240B
:1089C00012682046936154829847204610BD00BF2C
:1089D0006C1F0020581500202D8A0008158A0008F9
:1089E000074B1B681B7803F07F03212B06D100F097
:1089F000DF00022814BF02200020704702207047C9
:108A00006C1F002009B1022070470128FBD80846DE
:108A10007047000020B9034B08221B681A82704778
:108A2000014870476C1F0020B402002020B9034B9E
:108A300008221B681A827047014870476C1F00208B
:108A4000B402002010B5FDF7BFFB054B00241B68E6
:108A50009C7203F029FC05F037FA024B1C6010BD34
:108A60006C1F0020B0150020334B344A1B68D279AC
:108A700010B500245A729C72DC72204605F000F991
:108A800020464FF4007105F003F92046102105F04F
:108A90000DF92046402105F0A5F98021204605F07A
:108AA00091F9204605F05AF9254B204693F83410E9
:108AB00005F0D2F9204605F03EF90120214605F0E7
:108AC000E7F80120C02105F07DF90120202105F003
:108AD000EDF80120214605F002F902204FF4C061B3
:108AE00005F0D6F802204FF4807105F06BF90220F2
:108AF000214605F0F4F80220202105F0D7F80320E4
:108B0000214605F0C5F803204FF4887105F06AF995
:108B10000320402105F0A0F903204FF4405105F057
:108B2000DEF80320214605F0C1F8204604F05CFF82
:108B3000044B01221A6010BD6C1F002085480108FB
:108B4000B4020020B0150020014904F049BD00BF67
:108B5000EC020020014904F043BD00BFF4020020F4
:108B6000054B1B68DB78042B04D8044901EBC301D7
:108B700004F036BD002070476C1F0020FC0200206E
:108B800038B504460D46FFF749F8204625614FF4F5
:108B90001651FFF74DF8204638BD70B506460D4614
:108BA000002428460AF004F8844208D2295D3046A1
:108BB000FFF72EF8012002F071FA0134F1E770BDE1
:108BC0002DE9F04104460E46904600252046FFF769
:108BD0001BF80028FADD2046FFF714F84545C1B21E
:108BE00006D10023337020461249FFF7D6FF15E067
:108BF0000D29F6D00A29F4D0082901D07F2904D103
:108C0000002DE3D0771E013D02E0771C3170013565
:108C10002046EDB2FEF7FCFF3E46D7E72046FEF7C2
:108C2000F3FF002803DD2046FEF7ECFFF6E7BDE882
:108C3000F08100BF96730108F0B585B00446FEF7D9
:108C4000E3FF002840F39D802046FEF7DBFFC0B223
:108C5000772868D104F1140600212122304604F15E
:108C6000350509F064FE41220021284609F05FFE27
:108C700004F17607002384F87630204642497B7061
:108C8000FFF78BFF204631462022FFF799FF204651
:108C90003E49FFF782FF012220463946FFF790FF49
:108CA00094F87630A3F13002D2B2032AEFD8312BF8
:108CB0000BD120463649FFF770FF20463549FFF7B4
:108CC0006CFF20463449FFF768FF94F87620B2F134
:108CD000300708D020463149FFF75FFF204629467C
:108CE0004022FFF76DFF20462D49FFF756FF23690D
:108CF0003A4630462946984720462A49FFF74DFF15
:108D000020462949FFF749FF20462849FFF745FF3C
:108D100020462749FFF741FF20462649FFF73DFF40
:108D20002046254928E069282BD1244B01AD93E842
:108D3000070085E8070020462149FFF72EFF00269F
:108D4000AF5D20463B0903F13001392984BF03F1AF
:108D50005701C9B207F00F07FEF75AFF07F13001BC
:108D6000392984BF5737F9B220460136FEF750FF44
:108D70000C2EE5D11349204605B0BDE8F040FFF7C1
:108D80000CBF05B0F0BD00BFEA710108F171010828
:108D90001E720108547201087F720108C572010831
:108DA000D072010813730108337301086673010858
:108DB00099730108D873010809740108E8F7FF1FC7
:108DC0001F7401089673010813B5084C0021009127
:108DD0000A460B462046FEF7F7FA0549054A2046A3
:108DE00002B0BDE8104009F00FBD00BF5C150020C7
:108DF000195A0008D0050020002100F004B80E4BDD
:108E00005B58435004310D480D4B42189A42FFF411
:108E1000F6AF0C4A00F003B8002342F8043B0A4BBB
:108E20009A42FFF4F9AF03F0C5F9FCF787FFFDF7AD
:108E300007FAFCF7D1FF70473477010800000020E3
:108E400060040020600400207C1F0020FFF7FEBFAC
:108E50000B0A017043700B0C090E8370C170043053
:108E600070470170090A41700230704743185A7800
:108E7000435C03EB022080B2704710B543189A7828
:108E8000DC78415C120402EB046258780A4402EB7D
:108E9000002010BD73B544790023022C01930FD03C
:108EA000032C19D0012C2BD1164D2B692E4623B142
:108EB0002B6901A898470246B8B9B16801201BE0A8
:108EC000104DEB682E4623B1EB6801A89847024687
:108ED00058B9B16802200FE00A4D6B692E464BB1BC
:108EE0006B6901A89847024620B1A9682046BDF8E1
:108EF000043003E0B16803200022134600F028FC90
:108F000002B070BDB4160020072830B512D8012970
:108F100010D8EFF3108472B60125854001FA00F0F5
:108F2000054B1A6822EA050202431A602346DB0752
:108F300000D462B630BD00BF4403002070B50121EB
:108F400086B00546FFF792FF430404462AD5B0F5E4
:108F5000824F27D128460521FFF788FF05EB8000C7
:108F6000EE1D0024C51DAE4206D030460221FFF79B
:108F70007DFF04360444F6E7724B1A8E92B2224407
:108F800092B21A86DA6B1444DC63D96B9A6B914205
:108F900040F0CA8093F84020002A00F0C5809B6909
:108FA000992031E024F4FF4020F07F0080B20028B7
:108FB00000F0978048F210039C4228D00CD8B4F5FA
:108FC000004F40F2BC8048F202039C4215D948F29F
:108FD00004039C4211D0B2E048F280039C420CD0C2
:108FE00004D848F240039C424FD0A8E0B4F5024FA9
:108FF00003D0B4F5084F6BD0A1E0524B9A69002A18
:1090000000F092809B69204600210A4667E0002319
:10901000EA1852790DF803200133042BF8D16B7A4A
:1090200005F10D008DF80430AB7A8DF80530EB7A40
:109030008DF806302B7B8DF80730002300AA1A44E8
:10904000C15C0133042B1172F8D105F1110000232A
:1090500000AA1A44C15C0133042B1173F8D105F145
:109060001500002300AA1A44C15C0133042B1174BB
:10907000F8D12B798DF81430324B9A69002A53D0ED
:109080009B6920466946152229E0053500212846BE
:10909000FFF7F3FE042100902846FFF7EEFE0821BB
:1090A00001902846FFF7E9FE0C2102902846FFF7C1
:1090B000E4FE102103902846FFF7DFFE214B0490C9
:1090C0009A69002A30D09B6920466946142206E03E
:1090D0001C4B9A6942B39B692046691D012298473F
:1090E00022E041F203039C4205D0A4F580530E3BDD
:1090F0009BB2012B1AD86C1D20460421FFF7BDFE40
:1091000039301CD12A790F4B00212046DA62FFF753
:10911000B4FE042105462046FFF7AFFE393003D1E7
:1091200028460121FFF7F0FE012009E0054B1B88CE
:109130009BB29C4204D0B4F5805FF5D100E00020E2
:1091400006B070BDB416002070B50E4C6688B6B27D
:10915000B6B1606805782B1F5D425D412DB1FFF708
:10916000EDFE003018BF012000E02846064618B981
:1091700035B194F841301BB90023638001F0C0FD84
:10918000304670BDB41600202DE9F04F85B004467E
:109190008A46914602F0D4FE00250190DFF808834C
:1091A000B8F8023046469BB2002B40F0938003F0A3
:1091B000E1FC02F0C5FE0290029A019BD31A0393D0
:1091C000039B002B03DA019B029A13440393B54BD4
:1091D0001B68002BE2D0039A9A42DFD3338841F216
:1091E00007029BB2934227D841F20602934261D212
:1091F00040F2022293425DD00FD80C2B08D8082BE6
:1092000058D2002B4FD0062B88BF00235AD851E0EC
:109210000D2B4CD040F201220BE041F202029342AE
:109220004BD8B3F5805F45D8B3F5017F3FD940F205
:109230000722934237D13AE041F21102934236D0ED
:1092400014D841F20B02934234D005D841F20902FE
:1092500093422FD031D82AE041F20F0293422CD012
:1092600028D841F20D02934227D01CE042F20602B8
:1092700093421CD007D8B3F5005F14D942F2040220
:10928000934221D813E0B3F5804F00F0F38105D865
:10929000A3F50053083B012B09D904E044F20B026B
:1092A000934200F0E7810B2003F078F8E2E1FF231E
:1092B0002370DFE14FF0FF3304E04FF0FF33236012
:1092C0006360D7E12360D5E1204600213A2209F00E
:1092D0002EFBCFE1D8F804603378042B40F07D8179
:1092E00001213046FFF7C2FD05463046FFF726FE56
:1092F0000146002840F0668141F207039D4206F1D5
:10930000050752D841F206039D4280F0AC8040F23E
:1093100002239D4200F0A78011D80C2D09D8082DFA
:1093200080F0A180002D00F04D81062D00F2E88034
:1093300099E00D2D00F0948040F201237EE041F28F
:1093400002039D4218D8B5F5805F00F28C80B5F518
:10935000017F40F2858040F207239D4240F0328138
:109360003379384604F8013B0021FFF786FD0146BA
:109370002046FFF76DFD25E141F204039D4200F018
:10938000958040F2AB8000213846FFF776FD04213E
:1093900020603846FFF771FD083444F8040C06F1EC
:1093A0000D03224606F11D0175E041F211039D42B5
:1093B00056D02BD841F20B039D4254D01CD841F219
:1093C00009039D424FD000F2968000213846FFF7F6
:1093D00054FD042120603846FFF74FFD08216060EE
:1093E0003846FFF74AFD0C21A0603846FFF745FDDF
:1093F00004F10C0BE060E4E041F20F039D426DD0FC
:1094000037D841F20D039D4250D0DBE042F2050314
:109410009D4200F0998007D841F212039D4235D059
:10942000B5F5005F1CD8CDE042F209039D4208D893
:1094300042F208039D4213D242F206039D420FD02E
:10944000C0E044F20B039D4240F0BC807379384683
:109450000121A8F83030FFF709FDA8F83200B1E08B
:1094600033792370AEE038460021FFF706FD206017
:10947000A8E000213846FFF700FDA3464BF8040B97
:1094800004213846FFF7F9FC60609AE03846FFF7A0
:10949000EDFC208096E053F8040B8B4242F8040B5D
:1094A000F9D18FE064150020B41600200021384661
:1094B000FFF7E3FC042120603846FFF7DEFC0821BB
:1094C00060603846FFF7D9FCE36804F1080B3933D4
:1094D000A06076D10121FFF717FD72E00021384628
:1094E000FFF7CBFC042120603846FFF7C6FC0834A8
:1094F00044F8040C66E0337923713B68236061E033
:1095000000213846FFF7B9FC042120603846FFF7F8
:10951000B4FC082160603846FFF7A8FC0A21A0606F
:109520003846FFF7A3FC0C3444F8020C06F1110393
:10953000224606F1350153F8040B8B4242F8040B26
:10954000F9D11B8813803DE073185B7963540131B6
:109550000429F9D106F109000023C15CE2180133A6
:10956000042B1171F9D106F10D000023C15CE21842
:109570000133042B1172F9D106F111000023C15CF3
:10958000E2180133042B1173F9D106F11500002301
:10959000C15CE2180133042B1174F9D106F11900F2
:1095A0000023C15CE2180133062B1175F9D106F1D5
:1095B0001F000023C15CE2180133202B9176F9D102
:1095C00000E05C46B8F800202C4B92B2954237D1AF
:1095D00000221A8083F8412032E0B8F836309BB27E
:1095E00073B33046032196F802B0FFF73FFC0746FD
:1095F000BAF1000F0CD00421701DFFF73EFC0246AB
:10960000C9F8000006F115015046D2B209F06BF915
:10961000CBEB07077B1EB3F5806F07D20BF105017B
:10962000204631443A4609F05EF901E04FF0FF3739
:10963000B9F1000F01D089F800700023A8F8363086
:109640000023A8F8023001F05BFB3378042B05D12E
:10965000B5F5805F02D13046FFF71CFCB8F800304A
:109660009BB2002B7FF49AAD044BDB8E9BB2002B98
:109670007FF494AD002005B0BDE8F08FB416002053
:1096800007284FF001030FD8EFF3108272B603FAE8
:1096900000F0064B1968134608420CBF0020012059
:1096A000DB0702D462B670471846704744030020B7
:1096B000034B1880084600210A46FFF765BD00BF2E
:1096C000B416002010B5034B0124DC86BDE8104021
:1096D000FFF75ABDB416002038B5034615460122DF
:1096E0004A710C46881D1946FFF7BBFB291D057002
:1096F000204601F075FB002038BD38B5BDF8145088
:109700000C462B44D518ADB202216171A071E271F3
:10971000294604F10800FFF7A4FB691D204689B221
:1097200001F05EFB002038BD38B513440C469DB2F5
:1097300002216171A0712946E27104F10800FFF76E
:1097400090FB691D204689B2BDE8384001F048BB56
:109750002DE9F84F1C4604F1020B032301F1070920
:109760001FFA8BFB88710D464B71484659461646C9
:10977000FFF777FBB4F57A7F824605F10B0812D824
:109780002146FFF76EFB21465046FFF76AFB314644
:109790004046224609F0A7F8A11D284689B2BDE837
:1097A000F84F01F01DBB4FF47A77B4FBF7F30BEBE6
:1097B000430189B2FFF755FB39465046FFF751FB8D
:1097C000314640463A4609F08EF8A4F57A742846A8
:1097D00040F2EE31A4B23E4401F002FBB4F57A7FD0
:1097E00084BFA4F57A74A7B2A84688BF4FF47A74F0
:1097F000314628F8054F4846224698BF002709F011
:1098000072F8A11C404689B2264401F0E9FA0FB172
:109810003C46E3E7BDE8F88FF7B51E46FF238DF819
:109820000730194B00259C68475D63190135042DED
:109830005F72F9D100200D5C2318013004285D739C
:10984000F9D10021505C6318013104295874F9D111
:1098500004F115000021FFF7FBFA0022B35C8354EA
:109860000132042AFAD12146142242F20100FFF704
:1098700033FF42F201000DF10701FFF719FF9DF9D7
:10988000070003B0F0BD00BFB41600202DE9F3417E
:109890001F46FF238DF807301E4B0646D3F808807D
:1098A00033680C46013B082B9CBF0A2333600B68CE
:1098B00008F10900013B082B9CBF0A230B601368C9
:1098C0001546013B082B9CBF0A2313603B68013BF4
:1098D000082B9CBF0A233B603168FFF7B9FA216867
:1098E000FFF7B6FA2968FFF7B3FA3968FFF7B0FA5D
:1098F0004146142242F20900FFF7EEFE42F209004F
:109900000DF10701FFF7D4FE9DF9070002B0BDE895
:10991000F08100BFB416002010B5074B04469968CB
:1099200042F205000022FFF7D7FE214642F2050071
:10993000BDE81040FFF7BCBEB41600202DE9F3418E
:109940001F4602ACFF2304F8053D124B86469D6876
:109950000E4605F1090071469046FFF779FA314647
:10996000FFF776FA4146FFF773FA29460C2240F2D8
:109970000120FFF7B1FE214640F20120FFF798FEDB
:109980003846002101AAFFF79DFE019802B0BDE80C
:10999000F08100BFB41600202DE9F341984602ADD6
:1099A0004FF0FF3345F8043D134B86469E680C4646
:1099B00006F10A0071461746FFF74AFA0C21FFF735
:1099C00047FA2146FFF744FA3946FFF741FA414684
:1099D000224606F11A0008F086FF31461022A3B293
:1099E0009020FFF7A1FE40F202202946FFF760FE1B
:1099F000019802B0BDE8F081B416002013B50B4BFE
:109A000004469968002240F20720FFF765FE40F205
:109A100007206946FFF74CFE9DF803309DF80000D3
:109A200023709DF80430637002B010BDB41600209E
:109A300037B50E4A034694680D4604F109001946ED
:109A4000FFF706FA2946FFF703FA2146082240F2FB
:109A50000320FFF741FE40F203200DF10701FFF75D
:109A600027FE9DF8070003B030BD00BFB4160020EC
:109A70002DE9F0430023CA5CC2540133102BFAD104
:109A80000022344B467B991891F801800178847B41
:109A900088EA01089919C97A90F80CC088EA010887
:109AA0001919CF7A417880F810804F40C17B4774F4
:109AB0005D1895F80B908578634489EA050593F85D
:109AC0000B90C378FFB289EA030390F80490857481
:109AD00088EA090890F80590EDB287EA090790F83E
:109AE0000690C37485EA090590F80790DBB283EA13
:109AF000090390F8089080F814805FFA88F888EAE3
:109B0000090890F809904775FFB287EA090790F8AD
:109B10000A908575EDB285EA090590F80B90C3753A
:109B2000DBB283EA0903013288EA0C0C7E406C4008
:109B300059400A2A80F8188047768576C37680F8DF
:109B40001CC046778477C17700F1100099D1BDE839
:109B5000F08300BFDA48010810F0800F4FEA4000A0
:109B600018BF80F01B00C0B2704700002DE9F04F15
:109B700091F8A03090F800A042788AEA030A80F8B1
:109B800000A091F8A13097B05340437082780793BA
:109B900091F8A23090F8049053408370C2780593F6
:109BA00091F8A33046795340C370069391F8A430DE
:109BB000827989EA030980F8049091F8A53090F839
:109BC00008805E40467191F8A630477A5340837111
:109BD000C279089391F8A73004465340C3710C939F
:109BE00091F8A8304FF0000B88EA030880F808804D
:109BF00091F8A9305F404772827A91F8AA305340B9
:109C000083720993C07A91F8AB3094F80CC043404A
:109C1000E3720D9391F8AC3094F80DE08CEA030CEC
:109C200084F80CC091F8AD30A57B8EEA030E84F861
:109C30000DE091F8AE30E27B5D40A57391F8AF3056
:109C40005A40464BE2739A449AF80B0191F890A05F
:109C5000994480EA0A00207099F80BA191F8949039
:109C600098448AEA090984F8049098F80B9191F8CD
:109C700098809C4489EA080884F808809CF80B8145
:109C800091F89CC09E4488EA0C0C84F80CC09EF8A5
:109C90000BC191F891E01F448CEA0E0E97F80BC1AE
:109CA00091F89D701E448CEA0707677396F80B7154
:109CB00091F899601D447E406672079E0D981E447F
:109CC00096F80B7191F8956084F801E07E4066711A
:109CD000059E18441E4496F80B7191F89A607740DF
:109CE000089E1E4496F80BE191F89E608EEA0606E7
:109CF000DDF824E09E449EF80BC191F892E08CEAD6
:109D00000E0E84F802E095F80BE191F89650A772D8
:109D10008EEA0505A571069DA6731D4495F80B6195
:109D200091F89F5075400C9E1E4496F80B7191F867
:109D3000936013447E40E67090F80B6191F89700B1
:109D40007040E07193F80B2191F89B30CDF81CB076
:109D50005340E573E3720D4602E000BFDA480108A4
:109D6000A77894F80090103D87EA0900FFF7F4FE09
:109D7000FFF7F2FEE67894F801B0824686EA0B001F
:109D8000FFF7EAFEFFF7E8FE2179A37980EA0608EB
:109D900080EA0B0B83EA010003910293FFF7DCFEDC
:109DA000FFF7DAFE8AEA0909E6798AEA070A67799B
:109DB000024686EA07000492FFF7CEFEFFF7CCFECC
:109DC000049A029B03995340DBB294F808C00693AF
:109DD000A37A51404640C9B24740F6B283EA0C002C
:109DE0000293CDF804C005910896FFF7B5FEFFF782
:109DF000B3FE617AE67A024686EA01000391049294
:109E0000FFF7AAFEFFF7A8FE049ADDF804C0039945
:109E1000029B82EA0C0C53404140C9B25FFA8CFCB1
:109E2000DBB20A91CDF824C00B9394F80CC0A37B4D
:109E30004640F6B283EA0C000293CDF804C00C96BB
:109E4000FFF78AFEFFF788FE617BE67B024686EA23
:109E5000010003910492FFF77FFEFFF77DFE049A55
:109E6000029BDDF804C00399534082EA0C0C5FFAB0
:109E700089F95FFA8BFB5FFA8AFA5FFA88F841404A
:109E8000DBB24640C9B28BEA09005FFA8CFC0F9343
:109E9000F6B288EA0A030E910293CDF834C0109608
:109EA00083EA0006FFF758FE89EA000086EA000C04
:109EB0005FFA8CFC84F800C08AEA0B00CDF804C07D
:109EC000FFF74AFE8BEA0000029B86EA000B5FFA6E
:109ED0008BFB184684F801B0CDF844B0FFF73CFE88
:109EE0008AEA000086EA000A5FFA8AFA88EA09002C
:109EF00084F802A0CDF848A0FFF72EFE88EA000003
:109F0000059BDDF818B0DDF820A04640FFB2F6B2A0
:109F100087EA03008AEA0B08E670139688EA0006CF
:109F2000FFF71AFE059948407040C0B214902071A6
:109F30008BEA0700FFF710FE784086EA0007FFB2C1
:109F4000677140461597FFF707FE8BEA0000059AF8
:109F50007040C0B20690A0718AEA0200FFF7FCFDD3
:109F60008AEA00000B990A9BDDF824A0DDF830B0E6
:109F70004640F6B283EA0A000596E6718BEA0106CE
:109F800086EA0007FFF7E8FD8AEA00000A9B0B9AC1
:109F900087EA00085FFA88F882EA030084F80880FC
:109FA000FFF7DAFDDDF828A08AEA000087EA000959
:109FB0005FFA89F9304684F80990FFF7CDFDDDF8A6
:109FC0002CB00C998BEA0000099A87EA000B5FFA23
:109FD0008BFB81EA020084F80AB0FFF7BDFD0C9B01
:109FE0000D99DDF838A05840109A47408AEA0100E0
:109FF000DDF83CA0FFB282EA0A03E77283EA000AB6
:10A000000293FFF7A9FD0D990F9A48408AEA0006CE
:10A010000E99F6B282EA01002673FFF79DFD0E9AB3
:10A02000029B50408AEA0001C9B26173184603914D
:10A03000FFF792FD0F9BDDF834E058408AEA0002FA
:10A04000109BD2B2A27383EA0E000492FFF784FD44
:10A05000109BDDF804C058408AEA000A494B5FFAB9
:10A060008AFA84F80FA003EB0C0090F80BC195F866
:10A0700090001E448CEA0000207014981F4418447D
:10A0800090F80BC195F894008CEA0000207103EB66
:10A09000080090F80BC195F898008CEA0000207237
:10A0A00095F89C0096F80B61039970402073194451
:10A0B00091F80B0195F89110049A414003EB0900C7
:10A0C00090F80B6195F89D001A44704060731598E4
:10A0D000184490F80B6195F89900704060721198DF
:10A0E000184490F80B6195F89500617012997040D2
:10A0F0006071194491F80B0195F89A10484006993F
:10A10000194491F80B6195F89E10714003EB0B0612
:10A1100096F80BC195F892608CEA0606A67092F844
:10A120000B6195F89620A0727240139EA1731E4495
:10A1300096F80B11A271059E95F89F201E4496F883
:10A140000B014A4095F8931053444140E17095F853
:10A15000971097F80B01DDF81CA04140E17193F8CE
:10A160000B1195F89B30AAF1100A4B401AF1900F91
:10A17000E372E273CDF81CA07FF4F2AD17B0BDE836
:10A18000F08F00BFDA48010838B5054C0546204677
:10A19000FFF76EFC28462146BDE83840FFF7E6BCD5
:10A1A000C015002008B51021034600220C20FFF73F
:10A1B000C5FB103818BF6FF0000008BD0346102122
:10A1C0000C200022FFF7E8BB30B585B0054601F052
:10A1D000B7FE01901A4CE36A4BB108F05FFBE36AEB
:10A1E00003600023E36208F059FB008824E028465E
:10A1F000FFF746FA10B14FF6FF701DE001F0A0FE28
:10A200000290029A019BD31A0393039B002B03DA5B
:10A21000019B029A134403930A4B039A1B689A42C8
:10A22000E9D2228E064B92B2002AD3D01A8E002099
:10A2300092B2013A92B21A8600B205B030BD00BFA8
:10A24000B416002064150020F7B5174602AC4FF095
:10A25000FF3244F8042D134A034695680E4605F173
:10A2600009001946FEF7F4FD3146FEF7F1FD3946C7
:10A27000FEF7EEFD0C22294641F20100FFF72CFA11
:10A28000214641F20100FFF713FA08F007FB019B9A
:10A29000002103601846FEF737FEBDF9040003B045
:10A2A000F0BD00BFB416002073B54FF0FF3302AC11
:10A2B00044F8043D0E4B05469E68294606F1090008
:10A2C000FEF7C6FD0422314641F20B00FFF704FA07
:10A2D000214641F20B00FFF7EBF908F0DFFA019B92
:10A2E000012103602846FEF70FFE019802B070BD01
:10A2F000B4160020F7B50C460746164608F0CEFA0D
:10A300004FF0FF33E62C036025D8164B08219D68DB
:10A3100005F10900FEF79CFD2146FEF799FD034675
:10A32000191A09B2A14203DA7A5C03F8012BF7E7A4
:10A3300004F10802D2B2294641F21000FFF7CCF92D
:10A3400041F210006946FFF7B3F908F0A7FA009B45
:10A350000360019B336008F0A1FA008800B203B0EB
:10A36000F0BD00BFB416002037B54FF0FF320192A8
:10A37000134A034694680D4604F109001946FEF796
:10A3800067FD0821FEF764FD0821FEF761FD00234B
:10A39000EA5CC2540133082BFAD11422214641F25F
:10A3A0000700FFF799F901A941F20700FFF780F9CB
:10A3B00008F074FA019B0360184603B030BD00BF7B
:10A3C000B41600202DE9FF411D46314B8646D3F8D7
:10A3D00008800F4608F10900714616460A9CFEF7F0
:10A3E00037FD1421FEF734FD1421FEF731FD142151
:10A3F000FEF72EFD1421FEF72BFDD4F1010138BF2D
:10A400000021FEF725FD0FB1396800E03946FEF75F
:10A410001FFD0EB1316800E03146FEF719FD0DB1A8
:10A42000296800E02946FEF713FD74B1216839B9A7
:10A43000636841F287329342DCBF41F28833636044
:10A44000FEF706FD6168FEF703FD41462C2241F24E
:10A450000800FFF741F941F208006946FFF728F9C3
:10A46000009B002B0ADB0FB1019838600EB10298F7
:10A4700030600DB10398286098B205E008F00EFA3C
:10A48000009B03604FF6FF7000B204B0BDE8F0819E
:10A49000B41600202DE9FF419846194B86469E6868
:10A4A00015460F4606F1090071460B9CFEF7D0FCDD
:10A4B0002946FEF7CDFC4146FEF7CAFCBDF83050F8
:10A4C00031460C222846FFF707F9284601A9FFF775
:10A4D000EFF8029B002B0ADD38460A996A46FFF71F
:10A4E000F1F8009B04B12360002BD8BF029308F061
:10A4F000D5F9029B036018B204B0BDE8F08100BF3B
:10A50000B41600201FB500240094019441F2040405
:10A510000294FFF7BFFF04B010BD00002DE9F04F1B
:10A52000844689B000B2CDF808C0039115469B4619
:10A53000139E149CFFF748FEDDF808C0002859D18F
:10A540002E4B812C9A6B02F101029A63D3F808908A
:10A5500009F10A0307D0832C0AD105F1080A09F191
:10A560002208182704E009F11A081027064612905D
:10A5700061461846FEF76CFC391FFEF769FC294658
:10A58000FEF766FC5946FEF763FC832C05D1514665
:10A59000FEF75EFC0821FEF75BFC4346C8EB0301B7
:10A5A00009B2A94204DA039A515C03F8011BF5E7EA
:10A5B000832C18460ED0129BB6B200930196E0B2DF
:10A5C00049463A46ABB2FFF798F8832C0BD141F2DB
:10A5D0000F000AE0191A09B2B142ECDA129A515C82
:10A5E00003F8011BF6E741F2030005A9FFF760F845
:10A5F000BDF8180000B209B0BDE8F08FB416002015
:10A600001FB500240094019481240294FFF786FF73
:10A6100004B010BD1FB5069C0094079C01948324D0
:10A620000294FFF77BFF04B010BD0000202A73B531
:10A6300003460E46144627D8164A1946956805F172
:10A640000900FEF705FC0821FEF702FC2146FEF793
:10A65000FFFB03461A1A12B2A24203DAB25C03F8F5
:10A66000012BF7E704F10C022946D2B241F21100A6
:10A67000FFF732F841F211000DF10701FFF718F86A
:10A680009DF9070080B201E04FF6FF7000B202B002
:10A6900070BD00BFB4160020024B01225A805860E2
:10A6A000FEF752BDB416002010B50A4CE1602261DD
:10A6B0006361029BE361039B2362049B6362059BCE
:10A6C000A3620123A06184F84030002384F8413064
:10A6D00010BD00BFB416002070B5174B174D0024F5
:10A6E00006461748AC63EC632C802C866C86AC86DF
:10A6F000EC86EC626C806C60AB6000F0C9FAA6423C
:10A70000A9680CBF234602234B7201224FF48040FC
:10A71000FEF7E2FF21464FF48040FEF7C9FFA9682B
:10A72000224644F20B00FEF7D7FF214644F20B000D
:10A73000BDE87040FEF7BCBF20170020B416002013
:10A7400099A6000838B5094C0020A36A9847254609
:10A75000EB69064C98470028FAD0A3680BB1002398
:10A76000A360BDE8384000F0BBBA00BFB4160020BB
:10A770002DE9F04F994685B04FF0FF3301932E4BF2
:10A780001546D3F808A00024834688460AF109003C
:10A790001C210F9E0E9F0294ADF80C40FEF758FB53
:10A7A0002946FEF755FB5946FEF752FB05F110010D
:10A7B000FEF74EFB3146FEF74BFB2146FEF751FB01
:10A7C000B9F1000F08D019F8043003550134062CF4
:10A7D000F9D10630034607E04B4602AA9A5CC25400
:10A7E0000133062BF9D1F4E71A1A12B2AA4204DA9D
:10A7F00018F8022003F8012BF6E7194646B13FB1DD
:10A800005A1A12B2B24203DABA5C03F8012BF7E724
:10A810001C367219D2B251460120FEF75DFF01A924
:10A820000120FEF745FF08F039F8019B0360184648
:10A8300005B0BDE8F08F00BFB4160020F7B517468D
:10A8400002AC4FF0FF3244F8042D0D4A03469568E0
:10A850000E4605F109001946FEF7FAFA3146FEF7F1
:10A86000F7FA3946FEF7F4FA29460C220420FEF7DF
:10A8700033FF04202146FEF71BFF019803B0F0BD13
:10A88000B41600202DE9F04F144685B00022029244
:10A89000ADF80C206D4A8046D2F808A00F460AF1A8
:10A8A000090041469B460F9D139EFEF7D1FAB8F171
:10A8B000030F00F2BD80DFE808F0022C757514214B
:10A8C000FEF7C6FA2146FEF7C3FA0021FEF7C9FAE1
:10A8D000BBF1000F07D000221BF802108154013297
:10A8E000062AF9D106E05B4602AA9A5CC2540133FB
:10A8F000062BF9D106300E99FEF7AAFA03461A1A6A
:10A9000012B2A24203D2BA5C03F8012BF7E7183463
:10A910008CE02021FEF79CFA2146FEF799FA0021EF
:10A92000FEF79FFABBF1000F07D000221BF80210C0
:10A9300081540132062AF9D106E05B4602AA9A5CEC
:10A94000C2540133062BF9D10E990630FEF780FA76
:10A9500004F10C01FEF77CFA2946FEF779FA10990A
:10A96000FEF776FA03461A1A12B2A24203D2BA5C72
:10A9700003F8012BF7E7129804211A46D61A36B2CB
:10A98000AE4203D2865D02F8016BF7E70139284435
:10A9900001D01346F1E704EB850909F124091FFAF8
:10A9A00089F945E02821FEF753FA2146FEF750FACF
:10A9B0000021FEF756FABBF1000F07D000221BF86A
:10A9C000021081540132062AF9D106E05B4602AA40
:10A9D0009A5CC2540133062BF9D10E990630FEF76A
:10A9E00037FA2946FEF734FA1099FEF731FA119931
:10A9F000FEF72EFA04F10801FEF72AFA3146FEF7B7
:10AA000027FA03461A1A12B2A24203D2BA5C03F81A
:10AA1000012BF7E719465A1A12B2B24204D2129821
:10AA2000825C03F8012BF6E72C3634441FFA84F9D4
:10AA300051465FFA89F20520FEF74EFE052001A976
:10AA4000FEF736FE019805B0BDE8F08FB416002081
:10AA500037B50C4B01469D6802AC05F10900FEF7C5
:10AA6000F7F94FF0FF3344F8043D2946042206204D
:10AA7000FEF732FE06202146FEF71AFE019803B0CB
:10AA800030BD00BFB416002037B548F2080248F2C6
:10AA9000080102408A42034613490BD10020934229
:10AAA00081F840001ED023F4004323F0080343F450
:10AAB000004302E0012281F840208D684FF0FF3210
:10AAC000194602AC05F1090044F8042DFEF7C0F95F
:10AAD000294604220820FEF7FFFD08202146FEF744
