:020000040800F2
:1050000000500020FD7E0008557600085776000805
:10501000597600085B7600085D7600080000000005
:105020000000000000000000000000005F760008A3
:1050300061760008000000006376000865760008CD
:105040004D7F00084D7F00084D7F000881780008E3
:105050004D7F00084D7F0008B9760008D97600081A
:10506000F97600082D7700084D7700084D7F00087D
:105070004D7F00084D7F00084D7F0008DD78000857
:105080004D7F00084D7F0008697600084D7F0008BD
:10509000E17800084D7F00084D7F00086D7700081B
:1050A0004D7F00084D7F00084D7F000835780008CF
:1050B0004D7F00084D7F00084D7F0008897600086D
:1050C000997600084D7F00084D7F0008A9760008FA
:1050D0004D7F00084D7F0008797600084D7F00085D
:1050E000BD7700089D7800084D7F00080000000093
:1050F00000000000000000000000000000000000B0
:0C51000000000000000000005FF808F153
:10511000844641EA000313F0030349D1403A23D304
:105120000B6803604B6843608B688360CB68C36027
:105130000B6903614B6943618B698361CB69C3610F
:105140000B6A03624B6A43628B6A8362CB6AC362F7
:105150000B6B03634B6B43638B6B8363CB6BC363DF
:1051600040304031403ADBD230320BD30B68036021
:105170004B6843608B688360CB68C360103010312C
:10518000103AF3D20C3205D351F8043B40F8043BFB
:10519000043AF9D2043208D0D2071CBF11F8013BFF
:1051A00000F8013B01D30B8803806046704700BFC5
:1051B000082A13D38B07B1D010F00303AED0C3F18C
:1051C0000403D21ADB071CBF11F8013B00F8013BB6
:1051D000A4D331F8023B20F8023B9FE7043AD9D32D
:1051E000013A11F8013B00F8013BF9D20B7803704A
:1051F0004B7843708B788370604670471FB5084CBE
:105200000146684601F09CFC6946204600F055FBCB
:10521000684601F031FC204600F0DDFB04B010BD13
:10522000380B0020014800F0BBBB00BF380B00204A
:1052300008B50C484FF4165101F0B8FE0A4B022194
:10524000988F01F07BF9094B0221188801F076F95B
:105250000748084900F060FFBDE8084006480749D4
:1052600000F05ABF701B0020380B00200000002007
:10527000E74D0108FD510008E44D010825520008E2
:1052800000B53C2889B007D03E2817D1684601F008
:1052900057FC04A80B4904E0684601F051FC0A4998
:1052A00004A801F04DFC694604AA084800F02DFB53
:1052B00004A801F0E1FB684601F0DEFB09B05DF8EF
:1052C00004FB00BF780B0020880B0020380B002067
:1052D00000B5482889B007D0502817D1684601F09A
:1052E0002FFC04A80B4904E0684601F029FC0A4998
:1052F00004A801F025FC694604AA084800F005FB53
:1053000004A801F0B9FB684601F0B6FB09B05DF8EE
:1053100004FB00BF980B0020A80B0020380B0020D6
:105320007FB5374C204600F044FB204600F076FB6A
:1053300004F1800000F087F904F1AC050646294627
:10534000684601F0FDFB69463046FFF799FF684665
:1053500001F092FB04F1BC0000F0F0F9294606468A
:10536000684601F0EDFB69463046FFF7B1FF68463D
:1053700001F082FB04F1D80000F0E0F904F1F4013F
:105380000546684601F0DCFB69462846FFF7A0FFAA
:10539000684601F071FB04F5827000F0CFF904F566
:1053A00090710546684601F0CBFB69462846FFF739
:1053B0008FFF684601F060FB04F5987000F0BEF9BD
:1053C00004F5A6710546684601F0BAFB6946284611
:1053D000FFF77EFF684601F04FFB04F5AE7000F06A
:1053E000ADF904F5BC710546684601F0A9FB2846F5
:1053F0006946FFF76DFF684601F03EFB04B070BDE3
:10540000380B00202DE9F04F6E4C85B000216E4E18
:105410006E4D0B460A4604F5C877009104F5C4703A
:1054200001F04EFADFF8C0B13846694901F066FB79
:105430002A463146384604F160070BF053FEDFF888
:10544000ACA15946384601F059FB2A463146384648
:1054500004F170070BF046FEDFF894915146384690
:1054600001F04CFB2A463146384604F140070BF068
:1054700039FEDFF880814946384601F03FFB2A4675
:105480003146384604F150070BF02CFE41463846B1
:1054900001F034FB2A46314638464E4F0BF022FECF
:1054A00004F5D07339461846039301F027FB039B9C
:1054B0002A46314618460BF015FE04F1F40359460E
:1054C0001846039301F01AFB039B2A4618463146FF
:1054D00004F5907B0BF006FE5146584601F00EFB9A
:1054E00004F5A67A2A46314658460BF0FBFD49469C
:1054F000504601F003FB04F5BC792A46314650467C
:105500000BF0F0FD4146484601F0F8FA04F1AC0812
:105510002A46314648460BF0E5FD3946404601F043
:10552000EDFA04F5D8772A46314640460BF0DAFD0D
:105530003846294901F0E2FA2A463146384604F550
:10554000E0770BF0CFFD3846244901F0D7FA2A4620
:105550003146384604F5E8770BF0C4FD384620495B
:1055600001F0CCFA31462A4638461E4D0BF0BAFD02
:10557000204600F025F9E16B2A6804F1800000F074
:105580003BF8696804F1BC00032200F0BDF8A9688B
:1055900004F1D800032200F0B7F8E96804F582703E
:1055A000032200F0B1F8296904F59870032200F095
:1055B000ABF8696904F5AE70032205B0BDE8F04FA1
:1055C00000F0A2B8380B0020796A0008900E002085
:1055D000EF4D0108F74D0108F94D0108FB4D010899
:1055E000FD4D01080000002069500108F14D01083F
:1055F000F34D0108F54D01082DE9F04115461FFA5C
:1056000081F804460E464046AFB2012100F096FFF5
:105610003846012100F092FF4046012101F008F8D0
:105620003846012101F004F80123E360236163613E
:10563000A36100236660A560E36123626362A362E5
:105640002046BDE8F081002310B504460370808831
:1056500001F030F8E060208901F02CF8E36862691D
:105660002061934202D1A26990423CD0012B636138
:10567000A06106D1012801D1002309E048B9032324
:1056800006E033B9012801D1E06102E008B9022344
:10569000E361E369226A23629A1A82EAE271A1EB6A
:1056A000E271022962620DD0012A01D0D01C02D120
:1056B000A26A013205E0511C01D0032A02D1A26A7C
:1056C000013AA2627BB9A26A002A04DDA362012327
:1056D00023703E2010BD04D001222270A3623C2022
:1056E00010BD2370A3622D2010BD000007B500215E
:1056F00000910A460B46034801F0E2F803B05DF85A
:1057000004FB00BF180D002070B504460D4688B29A
:105710001146164600F012FF4FF4FA620023022EE3
:10572000E2604FF00102636025602374A37207BF3B
:105730002372627222726372204670BD10B50446F5
:1057400000F0F2FF6061208800F0B4FFA27A606090
:10575000237C4AB9B3B9217A884213D10123A372B9
:1057600000F0E2FFA0611AE063B9217A884209D112
:10577000A369E2681A446369934210D90123237430
:10578000482010BD617A884209D10AB92D2002E073
:10579000002BFBD150200023A372237410BD2D20B9
:1057A00010BD000007B5002100910A460B460348D2
:1057B00001F086F803B05DF804FB00BF200D002067
:1057C00010B586B0044601F057FB01A801F054FB68
:1057D00002232375032363750423A3750523E3754F
:1057E00006232376072363761023A37641F28833BA
:1057F0000022E3616362642384F82020A36200F046
:1058000093FF206300F090FF606300F08DFFA063C2
:10581000204606B010BD426A036B13444363012067
:105820007047F0B5104685B00D462E21144601F0A4
:1058300006FA0646334621460022684601F002FA7F
:10584000684601F02CFA771C2870684601F014F9BC
:105850003A4620462E2101F0E4F906463346214619
:105860003A46684601F0EEF9684601F018FA771CEE
:105870006870684601F000F93A4620462E2101F092
:10588000D0F90646334621463A46684601F0DAF931
:10589000684601F004FAA870684601F0EDF8214668
:1058A000721C684601F0F4F9684601F0F8F9E870F6
:1058B000684601F0E1F805B0F0BD1FB50446684642
:1058C00001F03EF9204604F12C016A46FFF7A9FFDA
:1058D000684601F0D1F8012084F8200004B010BD22
:1058E00007B5002100910A460B46034800F0E8FF87
:1058F00003B05DF804FB00BF280D002008B501F0DF
:10590000F9F9003018BF012008BD7FB504460E46E6
:10591000154601F0EFF910B32046FFF77CFF217D1B
:10592000684601F029F93146684601F05AF9617D6F
:1059300001F064F9294601F054F9A17E01F05EF905
:10594000A17D01F05BF90146204601F009F86846A7
:1059500001F092F80A2000F0EDFE012001E04FF086
:10596000FF3004B070BD000010B588B00446684632
:1059700000F01AFC04A8094901F0C0F8694604AA1D
:105980002046FFF7C2FF044604A801F075F86846F8
:1059900001F072F8204608B010BD00BFEF4D0108BD
:1059A00010B5044601F099F9204601F05CFA012097
:1059B00010BD10B5044601F09DF918B1226B636B60
:1059C0009A4204D82046BDE81040FFF797BF204612
:1059D000FFF7E6FFF6E713B5044601F08BF928B1AF
:1059E000204601F07AF9204601F03DFA94F8203083
:1059F00013B94FF0FF300FE004F12C01684600F0BE
:105A00006BFF20466946A28B01F0AEF90028F0D06A
:105A10002046FFF700FF012002B010BD10B504467C
:105A200001F0D3F9A0B12046FFF7F5FE204601F0C2
:105A300005FAE37DC0B2834204D12046217E00F006
:105A4000A9FF05E0637E834203D12046FFF78CFF68
:105A5000A07D10BD013101EB420291420BD0030F3A
:105A6000092B94BF3033373301F8013C0023000188
:105A700001F8023BF1E7704710B54FF000604FF4BA
:105A8000A04105F02BFC0124284B294821461C701D
:105A900005F03CFE04F098FD04F078FA2146402021
:105AA00005F0ECFE6FF07F4004F0E8FBE72004F027
:105AB00061FC204B1C7004F0A9FA7D2005F002FF68
:105AC00018B11D4B1C7005F011FF40F6B83004F002
:105AD00006FB05F049F805F0DBF9184801F0E2FB98
:105AE000174B01221A7001F067FC164B1B781BB98B
:105AF000154B1B78002BF6D0144B1B78002BF2D1E2
:105B00000D4B1B78002BEED10F4C2378012B01D0CD
:105B10000F4B33B90F4B0BB1FFF702FC00F0F2FC57
:105B2000E1E7FFF785FB01232370F3E71E1C00204C
:105B3000000430009B1B0020D4250020D9620008FF
:105B4000B01B0020991B0020300D00209A1B002064
:105B50003152000821530008F8B54C4B5A68013205
:105B60005A604B4B1A6812B11A68013A1A60494BD5
:105B7000494D1B782BB1494B1B78DBB1484B2BBBF4
:105B800018E0484C236813B12368013B11E02B78DF
:105B900083B9454B1B786BB9444B1B7853B9444FC1
:105BA000444E3B78BBB1E72004F058FC337883B116
:105BB000142323602C78404E002C33D1204604F06F
:105BC0004DFD40F6B73398421BD82BE000F0CCFBDC
:105BD000F0E70123EDE733784BB14FF6FF7004F0A7
:105BE0004DFBE72004F0C6FB01233B70E2E7E72012
:105BF00004F0EEFB314B1B780BB13223D9E7642361
:105C0000D7E7204604F032FD3378C3B92C4B1B781C
:105C10002BB12A4B274A1B7812781A422ED0012327
:105C20002B700CE0002004F019FD41F65733984228
:105C300005D9002004F01AFD224B01221A70337896
:105C400003F0FF025BB91B4B1B7843B11E4B47F2BD
:105C50002F511868884214D91A6000F015FC1B4BAC
:105C60001A68B2F57A7F05D300221A60BDE8F840C1
:105C700005F0A4BD1A6801321A60F8BD00F004FCFA
:105C8000CDE71A6801321A60E9E700BF300D002045
:105C9000DC250020081C0020961B0020C4100020DA
:105CA00069630008D82500209A1B00209C1B002057
:105CB0009B1B0020991B0020AF1B0020981B00207D
:105CC000971B0020A51B0020A01B0020E025002022
:105CD00008B5094B186004F0EDFE002004F036FF13
:105CE000064804F07BF904F0FDFE04F01BFFBDE85C
:105CF000084006F087BC00BFEC010020A086010030
:105D0000074B1B68052B08D1064B1A7A012A04D1D0
:105D1000987A1B7BC01AC0B270470020704700BF42
:105D2000381C0020300D00200D4B10B51B68052BD2
:105D300013D10C4C237A012B0FD16289A389D31A7A
:105D4000012B04D100230320237206F0B2FDA389A6
:105D50005A1CA2811C44A07B10BD4FF0FF3010BD27
:105D6000381C0020300D0020084B1B68052B0CD17F
:105D7000074B1A6D99180132B2F5807F1A6508BF7A
:105D8000002281F8540008BF1A657047381C0020B3
:105D9000300D0020F8B5234B93F85421012A3FD051
:105DA000D3F85821196DB2F5807F04BF0022C3F8E3
:105DB0005821D3F858411B4A8C4203D1002382F862
:105DC0005431F8BD8CBFC4F58071C4EB0101C2F839
:105DD0005C11D3F85C61134D402EA2B207D9403458
:105DE000403EC5F85841C5F85C61402706E03444A0
:105DF0000021B7B2C5F85841C5F85C110A48012422
:105E00001044C0213A4683F8544106F0CDFC2046A8
:105E1000394606F0D1FD2046BDE8F84006F036BD13
:105E2000F8BD00BF300D0020840D0020094B10B5D7
:105E300093E8140008331B68D0180AD006490822DA
:105E4000FFF708FE204605490422BDE81040FFF791
:105E500001BE10BDE8F7FF1F9B010020AB01002031
:105E600038B504460D46AC4203D254F8043B98477B
:105E7000F9E738BD08B507480749FFF7F1FF0748BC
:105E80000749FFF7EDFFBDE8084006480649FFF760
:105E9000E7BF00BF8051010880510108805101080F
:105EA000D4510108D4510108D4510108FEE7000083
:105EB000054A08B5136818441060044A904201D995
:105EC0000BF016F9184608BD180000200048002005
:105ED0004FF0FF307047012070470000014B1868F9
:105EE000704700BF940E0020064B0246582000FB6E
:105EF000013101F1080303CB106051601868906014
:105F0000704700BF940E0020014BD3F86401704726
:105F1000940E0020064B0246142000FB013101F5CF
:105F2000B67303CB1060516018689060704700BF73
:105F3000940E002038B50546064C28B104F040FA0E
:105F4000012384F8303238BD04F0E8F984F8305287
:105F500038BD00BF940E00200E4B2DE9F041D3F860
:105F6000647180460024BC4211DA14256543094E51
:105F7000414606F5B67028440C220CF0EFF820B923
:105F80003544D5F86801BDE8F0810134EBE7002025
:105F9000BDE8F081940E00200A4604490346D1F87A
:105FA00034021946002303F087BA00BF940E002084
:105FB0002DE9F341274B80461B780F46002B44D137
:105FC000254B1B7803F0FF05002B3ED1234C01210C
:105FD000D4F8340284F8385200F01F029140460988
:105FE00084F8395284F83A5284F83B5204EB86061E
:105FF000D6F83822C4F83C520A43C6F8382241F297
:106000008832C4F8402204F50F720092013004F582
:106010000E712A462B4603F03DF9002817DDD4F80F
:1060200034325A0904EB8204D4F8384203F01F02D8
:10603000144114F001000AD0184641462B463A4656
:1060400003F0C0F9064B1D6001E04FF0FF3002B0D5
:10605000BDE8F081AE1B0020AF1B0020940E002095
:10606000A01B0020034B01224FF4C0201A7004F043
:10607000DFBD00BF9A1B0020024B00221A7004F003
:106080003BBE00BF9A1B00202DE9F04788B0804638
:1060900068460D4600F032FD1E4B0024D3F800A0E8
:1060A00054452DDA55B3582666431A4F414607F139
:1060B000080030440C2207F104090CF04FF8E8B94D
:1060C00028460CF01BF806F11003402834BF0246A6
:1060D0004022294609EB0300FFF71AF83E4401234A
:1060E00086F85830694604A8746800F029FD04A8B1
:1060F000A047044604A800F0BFFC03E00134CFE74A
:106100004FF0FF34684600F0B7FC204608B0BDE809
:10611000F08700BF940E00202DE9F84F0446894611
:1061200000293DD000283BD01E4D2E68042E37D0CC
:1061300005F108074FF0000805F1040AB0450DDA33
:1061400057F8043C4B4505D1384621460C220CF04B
:1061500005F828B308F101085837EFE74FF0580861
:1061600008FB06F805EB080708F1100000214022A3
:10617000C7F8049050440BF037FC0AEB08000021EC
:1061800004300C220BF030FC2068616807F1080332
:1061900003C3A06801361860002387F858302E60CA
:1061A000BDE8F88F940E0020F0B5144985B006467E
:1061B00000F0A4FC124B01AC93E8070084E8070050
:1061C0000025675D30463B0903F13001392984BF62
:1061D00003F15701C9B207F00F0700F0F5FC07F112
:1061E0003001392984BF5737F9B23046013500F004
:1061F000EBFC0C2DE5D1304605B0F0BDB84F0108E1
:10620000E8F7FF1F30B51E48ADF5797D06F061FC5B
:10621000002832D11B4B15A804931B4B5FAD05938F
:106220001A4B039006931A4B0CAC0793194B02952B
:106230000893194B0993194B0A93194B0B93194B5C
:106240000C93194B0D93194B0E93194B0F93194B3C
:106250001093194B1193194B1293194B1393194B1C
:10626000149304F05BFD284604F05EFD009404489E
:10627000154902AA04AB06F033FC0DF5797D30BD5B
:10628000D4110020995F0008B15F00086560000824
:106290007960000859AD00087DAC0008355F000842
:1062A00029670008DD5E0008E95E000889600008D3
:1062B000095F0008155F0008E9640008595F0008DD
:1062C00035AD000849AD0008E8F7FF1F014807F0A9
:1062D00006BA00BFD411002030B502208DB00146AF
:1062E000112202F01DFF051E28DB07A8144906F045
:1062F0000DFD0223ADF80C3016238DF80E3033233C
:106300008DF80F30E0238DF8103000238DF8113018
:1063100001238DF81230BB238DF81330032403AB17
:10632000009310230193284607A91322002303F0AA
:10633000CDF8013CF3D1284602F020FF0DB030BD6E
:10634000E8F7FF1F10B5074CFFF75CFF204606F08B
:10635000C3FB204606F029FF0446FFF7BDFF204699
:1063600010BD00BFD411002038B5114CD4F8505BDB
:106370002DB1D4F8503B013BC4F8503B38BDD4F8A4
:10638000543B0C4A52F8230003F0A0FFE72003F02F
:10639000F1FF6423084AC4F8503BD4F8543B126818
:1063A00001339342C4F8543BA8BFC4F8545B38BDD2
:1063B000940E0020E42301081C00002030B50220C8
:1063C00085B00121062202F0ABFE041E1BDB022376
:1063D000ADF8003000238DF8023035238DF80330FE
:1063E0006946082310228DF804308DF805308DF8A9
:1063F00006308DF8073002F01FFF0546204602F0F8
:10640000BDFE284601E04FF0FF3005B030BD000072
:1064100010B5054CD4F8340202F0B0FE18B94FF0B4
:10642000FF33C4F8343210BD940E002008B5FFF7D6
:10643000EFFF01210220062202F072FE114900281E
:10644000C1F834021BDB0223A1F8583B162381F864
:106450005A3B332381F85B3B362381F85C3BD023E6
:1064600081F85D3BE52381F85E3B042381F85F3BC7
:10647000102201F65831BDE8084002F0DDBE4FF0B1
:10648000FF3008BD940E0020044B012200215A80E9
:106490001980D986024B1A70704700BF681D002012
:1064A000AE1B00200F4B2DE9F041D3F864718046FC
:1064B0000024BC4211DA142565430A4E414606F514
:1064C000B67028440C220BF049FE20B9354495F8EB
:1064D0007801BDE8F0810134EBE74FF0FF30BDE813
:1064E000F08100BF940E002008B5FFF7DBFF0138F4
:1064F000082803D8024B1844007F08BD022008BDBD
:10650000E4230108084B0022D3F8481203F5137363
:106510008A4208DA93F8500010B1002083F8500046
:1065200001325133F4E77047940E002002F084BE2C
:10653000014806F0B9BA00BFD411002014282DE993
:10654000F34104460E4669D8FF2967D000F070FA7F
:1065500020B1A4F10D039BB2022B5FD900F060F9CA
:1065600008B1012C5AD900F0EDFC20B1A4F11203BE
:106570009BB2012B52D92B4D24012B192F59B3F863
:106580000480294B9F4201D1042003E0274B9F4206
:1065900003D10820012105F07DF9ADF80480062E15
:1065A00038D8DFE806F0040D13191F283100102336
:1065B0008DF8073003238DF806302C44002328E0A3
:1065C00004238DF807302C44012322E048238DF862
:1065D00007302C4402231CE028238DF807302C447C
:1065E000032316E018238DF8073003238DF80630B7
:1065F0002C4404230DE01C238DF8073003238DF871
:1066000006302C44052304E000238DF807302C4489
:106610000623A373384601A905F020F802B0BDE8AF
:10662000F08100BF2C00002000080140000C014058
:106630001428F8B505460F4638D81D4E0401331905
:106640009B7B5A1ED2B2022A30D9062B2ED0FF2BAA
:106650002CD000F0EDF928B1A5F10D039BB2022B6F
:1066600000D8F8BD00F0DCF810B1012D00D8F8BD5D
:1066700000F068FC28B1A5F112039BB2012B00D8F1
:10668000F8BD33199B7B042B03D128460021FFF76B
:1066900055FF012F04D13219335992881A61F8BD80
:1066A00027B93219335992885A61F8BDF8BD00BF35
:1066B0002C000020142870B5044602D94FF0FF309A
:1066C00070BD184E050173199B7B013BDBB2FD2B9E
:1066D000F4D800F0ADF920B1A4F10D039BB2022B68
:1066E000ECD900F09DF808B1012CE7D900F02AFCA4
:1066F00020B1A4F112039BB2012BDFD973199B7B4C
:10670000062B09D1074B93F850114B1EDBB2FD2B22
:10671000D4D82046FFF712FF73197059998804F0F6
:10672000EBFF70BD2C000020014B1868704700BFC4
:10673000340D002003F046BC07B5002100910A4645
:106740000B46034800F0BCF803B05DF804FB00BF43
:10675000081A0020024B18785B78C01A704700BFF7
:10676000101A0020064B5A781978914204D99918CA
:10677000013288785A7070474FF0FF30704700BF81
:10678000101A0020054B5A781978914202D9134407
:10679000987870474FF0FF30704700BF101A002004
:1067A00070470000F8B5094B054693F822301646AD
:1067B00053B10C468F18BC4206D02B6828461B6884
:1067C00014F8011B9847F6E73046F8BD101A002070
:1067D00010B50C4B012293F822408CB193F8234062
:1067E0001F2C02D94260002010BD93F824001C1811
:1067F00084F82510411CC9B283F8241083F82310B3
:10680000104610BD101A0020002242604FF47A7228
:106810008260014A0260704718240108704770477F
:10682000014B93F859007047101A002013B5084C1B
:106830000021009104F164000A460B4600F040F884
:1068400004F16C0002B0BDE81040FFF7DDBF00BFEF
:10685000101A002008B5034B53F8203003B19847B5
:1068600008BD00BF8C1A002007B5002100910A4620
:106870000B46034800F024F803B05DF804FB00BFAA
:10688000CC1A00202DE9F041002407460E4625468B
:106890003B1919790A22304600F0ABF82E218046C8
:1068A000304600F077F801344044032C0544EFD122
:1068B0003046F9790A2200F09CF82844BDE8F081BE
:1068C00030B58371034D9DF80C3005600171427144
:1068D000C37130BD38240108024A02600A68426070
:1068E000704700BF38240108044B054A1A60002293
:1068F0001A715A719A71DA71704700BFD41A002068
:106900003824010807B5002100910A460B460348C8
:10691000FFF7D6FF03B05DF804FB00BFDC1A0020D0
:10692000F8B506460C468F180025BC4207D03368E0
:1069300030461B6814F8011B98470544F5E72846C4
:10694000F8BD38B505460C46084641B10BF0D6FBFC
:106950002B6802465B6828462146984738BD38BDFB
:106960002DE9F041002406460F462546BB68A1B23A
:10697000994204F101040AD233683846D3F8008002
:1069800000F046F901463046C0470544EEE7284688
:10699000BDE8F08108B503681B68984708BD30B5AD
:1069A00000238BB08DF82430012A98BF0A220DF104
:1069B0002304B1FBF2F303FB1211CDB2092D94BFF6
:1069C00030353735EDB2214604F801590BB119467F
:1069D000EFE7FFF7B6FF0BB030BD10B522B9026884
:1069E000C9B21268904710BDD2B2BDE81040FFF79F
:1069F000D6BFFFF7F2BF000007B5002100910A469D
:106A00000B460348FFF75CFF03B05DF804FB00BFD3
:106A1000E81A002007B5002100910A460B460348FA
:106A2000FFF74EFF03B05DF804FB00BFF01A002033
:106A3000014B587D704700BFF81A002070470000D6
:106A400007B5002100910A460B460348FFF738FFBF
:106A500003B05DF804FB00BF101B002007B5002148
:106A600000910A460B460348FFF72AFF03B05DF882
:106A700004FB00BF1C1B002010B5044600680AF090
:106A800075FC204610BD10B50446006808B10AF038
:106A90006DFC00232360A360636010BD38B504461D
:106AA0000D46006801310BF00DF810B184E82100AB
:106AB000012038BD036810B5044613B143688B420A
:106AC00007D22046FFF7EAFF20B1A3680BB922687E
:106AD0001370012010BD70B50E46114604461546D0
:106AE000FFF7E8FF18B92046FFF7CDFF04E0A560E7
:106AF000206831460BF0A4FA204670BD38B500235B
:106B0000044603604360836003730D4639B1084651
:106B10000BF0F4FA294602462046FFF7DCFF204638
:106B200038BD884210B50B46044607D0096819B134
:106B30009A68FFF7D0FF01E0FFF7A5FF204610BDE0
:106B400010B5002304460360436083600373FFF7BE
:106B5000E8FF204610BD38B505460C4641B1084651
:106B60000BF0CCFA214602462846FFF7B4FF01E0BD
:106B7000FFF789FF284638BD13B500238DF80410B0
:106B8000036043608360037301A904468DF80530F8
:106B9000FFF7E1FF204602B010BD70B504468568DE
:106BA0000E4609B9002070BD62B115442946FFF7B1
:106BB00081FF0028F6D02068A368314618440BF006
:106BC0003FFAA560012070BD07B500238DF80410C1
:106BD000012201A98DF80530FFF7DFFF03B05DF852
:106BE00004FB0B4610B509689A680446FFF7D5FF09
:106BF00010B92046FFF747FF204610BD10B50446E8
:106C0000FFF7E2FF10B92046FFF73DFF204610BD19
:106C10008368994203D2006810B1405C704700203D
:106C20007047836810B59A4206D20468A0180BF02A
:106C30008DF908B1001B10BD4FF0FF3010BD0022D0
:106C4000FFF7EFBF9A422DE9F04107460D46144683
:106C50001E4601D93446164638460C49FFF74EFF0A
:106C6000AB689C420FD89E4228BF1E462B6800226C
:106C700013F806809A55296838462144FFF76BFFC0
:106C80002B6803F806803846BDE8F081B84F01084C
:106C900010B58B680446FFF7D5FF204610BD00688D
:106CA00008B10AF02DBA704713B5026802AB03F8B9
:106CB000011D546819460122A04702B010BD0368A7
:106CC00010B59B680446984720B123682046DB68CE
:106CD000984710BD4FF0FF3010BD10B50446236833
:106CE00020469B68984720B123682046DB68984778
:106CF000F5E710BD0069033818BF0120704700692F
:106D0000033818BF012070472DE9F04188B00026F4
:106D100008AC054608460F46904644F8146D0BF043
:106D2000EDF9224681B2384602F04EFAB04215DD46
:106D3000039B04A8DAB20092190EC3F30742C3F30F
:106D40000723FFF7BDFD2B6828469C69054B06A964
:106D50000693059B42460793A04700E0304608B0E3
:106D6000BDE8F081382401087FB505460C4616467B
:106D700002200121062202F0D3F9002828611BDB42
:106D80000223ADF80030330A8DF8023023796946CA
:106D90008DF80430637910228DF80530A3798DF8D1
:106DA00003608DF80630E3798DF80730FFF7BEFBFE
:106DB000002803DA03232B61002000E0012004B047
:106DC00070BD0069002302F077BB30B5036987B05E
:106DD0005A0906A901EB8202054603F01F010120B2
:106DE000884000248DF80C408DF80D408DF80E4041
:106DF0008DF80F4052F80C1C0494014342F80C1C0F
:106E000041F28832059204AA0092581C03A9224636
:106E1000234602F03FFAA0420DDD286906AA430985
:106E200002EB830353F80C4C00F01F0044FA00F00F
:106E300000F0010000E0204607B030BD07B5002398
:106E40000DF107010122006902F0BCFA0028CCBF55
:106E50009DF807004FF0FF3003B05DF804FB0069B8
:106E6000002302F0AFBA10B50446006902F086F9BB
:106E700008B90323236110BD002242604FF47A72E7
:106E80008260024A026003220261704748240108BE
:106E900007B5002100910A460B460348FFF710FD95
:106EA00003B05DF804FB00BF241B002007B50021E0
:106EB00000910A460B460348FFF702FD03B05DF858
:106EC00004FB00BF2C1B002007B5002100910A46DF
:106ED0000B460348FFF7F4FC03B05DF804FB00BF6A
:106EE000341B00204FF0FF307047704708B5202159
:106EF000034804F068FF003018BF012008BD00BF40
:106F00000044004008B5024804F059FF08BD00BF26
:106F10000044004008B5054804F04DFF03488021B7
:106F200004F051FF0028F9D0012008BD00440040C2
:106F3000002242604FF47A728260014A0260704718
:106F400080240108014B187C704700BF3C1B0020C7
:106F500013B5084C0021009104F114000A460B46B9
:106F6000FFF7AEFC04F11C0002B0BDE81040FFF7D3
:106F7000DFBF00BF3C1B002070474FF0FF30704761
:106F8000FEF7D2BE08B5FEF7BBFE08BD08B5084641
:106F9000FEF7EAFE012008BD002242604FF47A723B
:106FA0008260014A02607047A02401080846FEF78B
:106FB0008FBE000013B5074C0021009120460A4601
:106FC0000B46FFF77DFC04F1080002B0BDE810405D
:106FD000FFF7E2BF681B00200023036018467047DC
:106FE000002303601846704700230360184670476B
:106FF0002DE9F0410B7886B0002B0C4614BF90466B
:107000004FF0000806460BF079F8074620460BF0D3
:1070100075F8182301931E2301250293022303937D
:10702000059000950494404631463A46002302F00C
:1070300091FB034B18705D7006B0BDE8F08100BF96
:10704000801B002048F20203984210B51AD006DCDB
:10705000992847D048F2010398420FD010BD48F25A
:10706000100398422DD048F2800398423ED1204B25
:1070700001229A70DA7000221A7110BD1C4B012295
:107080005A7110BD1A4C637953B11A4B00224FF458
:107090007F401A7003F0F2F8E72003F06BF906E086
:1070A000A37913B1013BA37101E00123A375002370
:1070B000237663716376E375A376E37623772362A1
:1070C00010BD0A7D0A4B52B901224FF47F40DA7598
:1070D00003F0D4F8BDE81040E72003F04BB90022DC
:1070E000DA7510BD024B012283F8242010BD00BFC9
:1070F000801B0020081C00201FB54FF461504FF486
:1071000061610A223C238DE80F00684601A902AAAA
:1071100003AB01F04BFB05B05DF804FB1FB500238A
:10712000009301930293039301A8694602AA03AB5B
:1071300001F002FB05B05DF804FB000030B5534DD3
:1071400000249FB0FF202C76AC706C76EC70AC768F
:107150006C70EC766C71EC7585F824402C6203F051
:107160008DF8E72003F006F921462246204602F07A
:10717000CDFA2B46012103F8074F0E200A4601F0F5
:107180009BFB6B79012B05D1642002F01BFF01F002
:1071900031F8F6E710210C2001F0DAFB3C4801F051
:1071A00097FF3C4802F026FC012002F007FC6846ED
:1071B000394900F077FD6A78AB78344C13431CD121
:1071C00094F82530002B57D0FF2002F0A9FB0028AF
:1071D00052D11A24013C06D0E72003F0F9F83220FE
:1071E00002F0F0FEF6E70E20012122462B4BAC7197
:1071F00001F062FB85F82540DDE7E72003F0BAF8EF
:10720000A31D0E200121002201F028FBA37813B159
:1072100002F010FC20702B7801210133AB710022A9
:107220001E4B0E2001F048FB0020012401460122E4
:1072300002F06CFA21462246194B0E20EC7101F047
:107240003BFB02F0E7F9642002F0BCFE002002F0F4
:1072500097F948F2442085F8264002F07DFB4FF470
:107260007F4003F00BF8E72003F084F8FFF744FFBA
:107270000023AB751FB030BDE72003F0A9F8FA205A
:1072800002F0A0FE684600F071FD94E7801B00202C
:10729000B824010880010020F16F0008861B00203F
:1072A000871B00207FB5384C0025A06203F030FB1F
:1072B00003F070FA354B364A0093364B364901934A
:1072C000364B37480293374B0393374B02F044F960
:1072D000642002F077FE002002F052F9012348F208
:1072E0004420E57684F8263002F036FB2F4B1A88CE
:1072F0001E46012A06D00E2010212A46A31D01F0A9
:10730000ADFAA0B1FF2002F00BFB10210E2001F01E
:107310001FFB0021264B0025CD5401311029F9D146
:107320000E202A4601F0C8FA358003F03FFC23798D
:10733000154D93B9AB7913B90123AB750DE0E8791D
:1073400058B90146012202F0E1F901212B4603F868
:10735000071F0E200A4601F0AFFA237913B90A4B32
:107360009B7D33B94FF47F4002F088FFE72003F0A4
:1073700001F8104801F0D2FAFFF7D0FE04B0BDE8E2
:107380007040FFF7B9BE00BF801B00204DA8000869
:10739000E16F000861A80008D96F0008CDA80008B7
:1073A00045700008F5A80008E96F0008CE0200202B
:1073B000861B0020AC1B00202DE9F341974C94F86C
:1073C0002E30002B40F0BA8094F82F30002B40F084
:1073D000B58094F8263003F0FF0023B902F0D0F80E
:1073E000012384F82630A37D8C4E13B1FFF7A6FE4F
:1073F00019E03379BBB1F57DADB929462A46284657
:1074000002F084F986480AF079FE864F80463846B5
:107410000AF074FE00970190791F032042462B4624
:1074200002F00EF93571E2787C4B012A13D1DA7D36
:10743000012A10D15B79012B0DD103257A480AF07E
:107440005DFE013D82B27849012002F04BF815F053
:10745000FF05F3D1E57094F83030704D43B92B7EC1
:10746000002B40F09B806B7E002B40F09780D1E09A
:10747000EB7D93B395F82F307BBB2B7E002B00F078
:107480009E802AE02B4603F8092F0E2001210322BB
:1074900001F012FA4FF6FF7002F0F0FEE72002F062
:1074A00069FFFEF7C3FF002880F2B28094F82E3007
:1074B0005A4D002B40F0AE80FEF780FF0028B4BF8D
:1074C000022303232B77237F0E2063720121574B66
:1074D000032201F0F1F900232376237E4F4D002B88
:1074E00000F098806B7EBBB9FEF72CFF002811D00E
:1074F00002DA4FF47F0007E0012801D14C4803E095
:10750000022803D14FF0FF1002F0B8FEE72002F08E
:1075100031FF01E001236B76FEF7D8FE002879D118
:10752000444B1B780BB102F0F9FE0023A376E376FF
:1075300063762376012384F82E306BE094F82630AE
:10754000002B3FF450AF3B4B1B780BB102F0E6FE33
:107550000025284684F82E50657184F82650E5757C
:1075600025766576A576E5762577256203F0C2F95E
:10757000642002F027FDA37D43B1284602F000F805
:10758000264B012283F82620FFF7D8FD4FF47F40D9
:1075900002F074FEE72002F0EDFE24E7FEF738FF6C
:1075A00000234FF47F40A376E3766376237602F0E0
:1075B00065FEE72002B0BDE8F04102F0DBBE6420CA
:1075C00002F000FD05F1310001F036F92B7F002BB0
:1075D0003FF460AF4FF47F0002F050FE237F0F4D69
:1075E00003F0FF02002B3FF44DAFE72002F0C2FE94
:1075F0004FF4FA7002F0E6FCE72002F0C9FE4FF407
:10760000FA7002F0DFFC2B7F013BDBB22B77E5E762
:10761000012361E702B0BDE8F08100BF801B0020BC
:10762000830100208801002091010020891B002097
:107630000060FF00081C002007B5002100910A46E9
:107640000B460348FFF73CF903B05DF804FB00BFAD
:10765000EC1B00207047FEE7FEE7FEE7FEE7704701
:1076600070477047FEF778BA08B5024B0BB1AFF31D
:10767000008008BD0000000008B5024B0BB1AFF35D
:10768000008008BD0000000008B5024B0BB1FFF7F9
:10769000C5F808BD1D68000808B5024B0BB1FFF71F
:1076A000BEF808BD1F68000808B5024B0BB1FFF714
:1076B000C5F908BD3D6A000808B5012003F040FF88
:1076C00038B1012003F04AFF024B13B10020FFF74D
:1076D000C1F808BD5568000808B5022003F030FF66
:1076E00038B1022003F03AFF024B13B10120FFF73B
:1076F000B1F808BD5568000808B5042003F020FF64
:1077000078B1042003F02AFF0020064B01461880C0
:1077100002F0E6FEBDE8084003481021012204F013
:1077200002BB08BD1A1C0020002C014008B508202F
:1077300003F006FF38B1082003F010FF024B13B12D
:107740000320FFF787F808BD5568000808B510202A
:1077500003F0F6FE38B1102003F000FF024B13B126
:107760000420FFF777F808BD5568000808B5202009
:1077700003F0E6FE38B1202003F0F0FE0E4B13B10B
:107780000520FFF767F8402003F0DAFE38B140200B
:1077900003F0E4FE084B13B10620FFF75BF88020EE
:1077A00003F0CEFE38B1802003F0D8FE024B13B1B7
:1077B0000720FFF74FF808BD5568000808B54FF4DB
:1077C000005003F0BDFE40B14FF4005003F0C6FE80
:1077D000174B13B10D20FFF73DF84FF4804003F035
:1077E000AFFE40B14FF4804003F0B8FE104B13B130
:1077F0000E20FFF72FF84FF4004003F0A1FE40B138
:107800004FF4004003F0AAFE094B13B10F20FFF71D
:1078100021F84FF4006003F093FE38B14FF400609C
:1078200003F09CFEBDE8084002F048BB08BD00BF65
:107830005568000808B51048102104F0ADFAC8B129
:107840000D48102104F0B3FA002002F0F7FE30B921
:107850000A4B1A8892B20A3292B21A8008BD0648C0
:107860001021002204F05FFABDE808400020012149
:1078700002F036BE08BD00BF002C01401A1C0020DB
:1078800008B5012004F080F830B1012004F08CF834
:10789000BDE8084004F062B808BD000008B5022049
:1078A00004F072F8B0B10C4B00224FF400301A70A3
:1078B00003F054FE012003F0ABFF10B1012003F0F0
:1078C000B1FF04F04BF8022004F06EF8BDE8084068
:1078D00004F044B808BD00BFAF1B002002F080BA1E
:1078E00000F062B838B514490B78012B23D1134A44
:1078F00013680BB90B7038BD114C402B206881B256
:1079000005D94030403B20601360402504E09DB223
:1079100003442360002313600A482A460844C02118
:1079200004F042FF0120294605F046F8BDE8384042
:10793000012004F0ABBF38BD840E00208C0E002067
:10794000880E0020840D002008B5094B01221A7012
:10795000084B002203201A8005F05EF8064B024611
:1079600018804FF488710548BDE8084004F034BF22
:10797000380D00203C0D00203A0D00203E0D002067
:10798000074B1B68052B09D1064B1A68511C052AA9
:10799000196003D100221A60FEF7FCB9704700BFDE
:1079A000381C0020F41B002070B52B4D2B4C2B688D
:1079B0002B4E9BB22380228833881340990508D52B
:1079C0004FF6FF532B60A3780133DBB2A370FFF7B0
:1079D000D7FF2288338813401A0401D504F02EFE05
:1079E0002288338813405B0505D54FF6FF332B60A3
:1079F0001C4B5B689847228833881A40900444BF28
:107A00004DF6FF722A6022881340D90405D54EF640
:107A1000FF732B60002003F0E1FB228833881340C2
:107A20001A050BD5104B1B7813B103F0B7FB02E01E
:107A3000022003F0D3FB4FF2FF732B6022883388C0
:107A40001340DB0507D54FF6FF632B600720BDE829
:107A5000704003F0C3BB70BD445C0040F81B0020C5
:107A600020260020F4010020F0020020034B9B7A26
:107A700013B1034B05221A60704700BFFC2500209C
:107A8000381C0020014B04221A607047381C00206B
:107A9000034B1A78202A04BF00221A70704700BFD7
:107AA000FC1B002070470000212810B508D1114BA5
:107AB0001B681B7803F07F03212B10D0022010BD20
:107AC0002028FBD10B4B0C4A1B681B78107003F06D
:107AD0007F03212B094B18BF00230BB9EEE7084B9E
:107AE000044A002412682046936154829847204635
:107AF00010BD00BF1C260020FC1B0020517B00088D
:107B0000397B0008074B1B681B7803F07F03212B90
:107B100006D100F0DF00022814BF022000207047C9
:107B2000022070471C26002009B10220704701285E
:107B3000FBD808467047000020B9034B08221B6899
:107B40001A827047014870471C260020EC01002073
:107B500020B9034B08221B681A82704701487047FE
:107B60001C260020EC01002010B5FEF75FF9054B44
:107B700000241B689C7203F0F9FA04F063FF024BC7
:107B80001C6010BD1C260020381C0020334B344ADA
:107B90001B68D27910B500245A729C72DC722046A0
:107BA00004F02CFE20464FF4007104F02FFE204616
:107BB000102104F039FE2046402104F0D1FE80213E
:107BC000204604F0BDFE204604F086FE254B2046EC
:107BD00093F8341004F0FEFE204604F06AFE012003
:107BE000214604F013FE0120C02104F0A9FE01206B
:107BF000202104F019FE0120214604F02EFE02206F
:107C00004FF4C06104F002FE02204FF4807104F0D2
:107C100097FE0220214604F020FE0220202104F0DD
:107C200003FE0320214604F0F1FD03204FF4887188
:107C300004F096FE0320402104F0CCFE03204FF414
:107C4000405104F00AFE0320214604F0EDFD2046D9
:107C500004F088FC044B01221A6010BD1C26002091
:107C600025250108EC010020381C0020014904F002
:107C700075BA00BF24020020014904F06FBA00BFAA
:107C80002C020020054B1B68DB78042B04D8044928
:107C900001EBC30104F062BA002070471C260020EB
:107CA0003402002038B504460D46FFF775F920462A
:107CB00025614FF41651FFF779F9204638BD0000D1
:107CC00007B5002100910A460B460348FEF7F8FD70
:107CD00003B05DF804FB00BF001C002070B5064631
:107CE0000D46002428460AF009FA844208D2295D8C
:107CF0003046FFF74BF9012002F064F90134F1E757
:107D000070BD00002DE9F84304460F4690460D462D
:107D1000C7EB05095FFA89F92046FFF733F9002818
:107D2000FADD2046FFF72CF9C145C6B206D1002383
:107D30002B7020460C49FFF7D1FF0AE00D2EF6D03C
:107D40000A2EF4D020463146FFF720F905F8016BE2
:107D5000DEE72046FFF716F9002803DD2046FFF78F
:107D60000FF9F6E7BDE8F883B64F0108F0B585B026
:107D70000446FFF707F9002840F39D802046FFF7EF
:107D8000FFF8C0B2772868D104F11406002121223F
:107D9000304604F1350509F027FE4122002128462E
:107DA00009F022FE04F17607002384F8763020469D
:107DB00042497B70FFF792FF204631462022FFF7B1
:107DC000A1FF20463E49FFF789FF012220463946A0
:107DD000FFF798FF94F87630A3F13002D2B2032A6D
:107DE000EFD8312B0BD120463649FFF777FF2046DD
:107DF0003549FFF773FF20463449FFF76FFF94F8CA
:107E00007620B2F1300708D020463149FFF766FFEF
:107E1000204629464022FFF775FF20462D49FFF7EF
:107E20005DFF23693A4630462946984720462A494D
:107E3000FFF754FF20462949FFF750FF2046284905
:107E4000FFF74CFF20462749FFF748FF2046264909
:107E5000FFF744FF2046254928E069282BD1244B11
:107E600001AD93E8070085E8070020462149FFF7A8
:107E700035FF0026AF5D20463B0903F1300139296B
:107E800084BF03F15701C9B207F00F07FFF77EF86F
:107E900007F13001392984BF5737F9B2204601363E
:107EA000FFF774F80C2EE5D11349204605B0BDE864
:107EB000F040FFF713BF05B0F0BD00BF0A4E010848
:107EC000114E01083E4E0108744E01089F4E0108F4
:107ED000E54E0108F04E0108334F0108534F0108E9
:107EE000864F0108B94F0108F84F010829500108D1
:107EF000E8F7FF1F3F500108B64F0108002100F0CE
:107F000004B80D4B5B58435004310C480C4B4218DD
:107F10009A42FFF4F6AF0B4A00F003B8002342F890
:107F2000043B094B9A42FFF4F9AF03F0A5F8FDF7C3
:107F3000A1FFFDF7A1FD7047D4510108000000200A
:107F4000380B0020380B00202C260020FFF7FEBF46
:107F500073B544790023022C01930FD0032C19D060
:107F6000012C2BD1164D2B692E4623B12B6901A86C
:107F700098470246B8B9B16801201BE0104DEB6884
:107F80002E4623B1EB6801A89847024658B9B1685C
:107F900002200FE00A4D6B692E464BB16B6901A8B8
:107FA0009847024620B1A9682046BDF8043003E096
:107FB000B16803200022134600F05AFB02B070BDE6
:107FC000681D0020072810B50BD8012909D8012405
:107FD000844001FA00F0034B1A6822EA04020243CB
:107FE0001A6010BD7C02002070B5012186B00546E4
:107FF00004F046FD430404462AD5B0F5824F27D14C
:108000002846052104F03CFD05EB8000EE1D002410
:10801000C51DAE4206D03046022104F031FD0436C3
:108020000444F6E7724B1A8E92B2224492B21A8638
:10803000DA6B1444DC63D96B9A6B914240F0CA80CE
:1080400093F84020002A00F0C5809B69992031E018
:1080500024F4FF4020F07F0080B2002800F09780D9
:1080600048F210039C4228D00CD8B4F5004F40F2DF
:10807000BC8048F202039C4215D948F204039C429A
:1080800011D0B2E048F280039C420CD004D848F2F0
:1080900040039C424FD0A8E0B4F5024F03D0B4F5A2
:1080A000084F6BD0A1E0524B9A69002A00F09280F1
:1080B0009B69204600210A4667E00023EA185279AE
:1080C0000DF803200133042BF8D16B7A05F10D0074
:1080D0008DF80430AB7A8DF80530EB7A8DF80630E8
:1080E0002B7B8DF80730002300AA1A44C15C0133B2
:1080F000042B1172F8D105F11100002300AA1A44D3
:10810000C15C0133042B1173F8D105F11500002374
:1081100000AA1A44C15C0133042B1174F8D12B79E5
:108120008DF81430324B9A69002A53D09B6920464F
:108130006946152229E005350021284604F0A7FCF0
:1081400004210090284604F0A2FC08210190284652
:1081500004F09DFC0C210290284604F098FC1021AC
:108160000390284604F093FC214B04909A69002A5E
:1081700030D09B6920466946142206E01C4B9A6960
:1081800042B39B692046691D0122984722E041F2D3
:1081900003039C4205D0A4F580530E3B9BB2012BF8
:1081A0001AD86C1D2046042104F071FC39301CD112
:1081B0002A790F4B00212046DA6204F068FC042182
:1081C0000546204604F063FC393003D128460121DE
:1081D000FFF7F8FE012009E0054B1B889BB29C428B
:1081E00004D0B4F5805FF5D100E0002006B070BD8A
:1081F000681D002038B50A4C63889BB20BB900207B
:1082000038BD60680378042BF9D1FFF7EDFE012833
:108210000546F4D10023638001F092FC284638BD66
:10822000681D00202DE9F84F044689469246002536
:10823000DFF87483B8F802309BB2002BF8D0D8F87E
:1082400004603378042B40F073813046012104F040
:1082500017FC05463046FFF7C7FE002840F05F8157
:1082600041F207039D4206F1050755D841F2060386
:108270009D4280F0AE8040F202239D4200F0A98032
:1082800014D80C2D09D8082D80F0A380002D00F003
:108290004681062D00F2E1809BE00D2D00F09680D6
:1082A00040F201239D4200F0918038E141F2020347
:1082B0009D4218D8B5F5805F00F28B80B5F5017F3F
:1082C00040F2848040F207239D4240F028813379B8
:1082D000384604F8013B002104F0D9FB0146204652
:1082E00004F0C0FB1BE141F204039D4200F08B80CF
:1082F00040F2A1800021384604F0C9FB042120602F
:10830000384604F0C4FB083444F8040C06F10D03AD
:10831000224606F11D016FE041F211039D4255D046
:108320002BD841F20B039D4253D01CD841F20903D4
:108330009D424ED000F28C800021384604F0A7FB0D
:1083400004212060384604F0A2FB08216060384612
:1083500004F09DFB0C21A060384604F098FB04F16A
:108360000C0BE060DAE041F20F039D4263D036D897
:1083700041F20D039D4246D0D1E042F206039D42F8
:1083800024D00BD8B5F5005F40F2C98042F2040357
:108390009D4288BF002300F2848017E042F2080368
:1083A0009D42C0F0BC8042F209039D420ED944F2C6
:1083B0000B039D4240F0B380737938460121A8F841
:1083C000303004F05DFBA8F83200A8E03379237068
:1083D000A5E03846002104F05AFB20609FE0002110
:1083E000384604F054FBA3464BF8040B04213846EE
:1083F00004F04DFB606091E053F8040B8B4242F8AF
:10840000040BF9D18BE00021384604F040FB042135
:108410002060384604F03BFB08216060384604F0D9
:1084200036FBE36804F1080B3933A06076D10121F3
:10843000FFF7C8FD72E00021384604F028FB042154
:108440002060384604F023FB083444F8040C66E04E
:10845000337923713B68236061E00021384604F0E2
:1084600016FB04212060384604F011FB08216060EF
:10847000384604F005FB0A21A060384604F000FBF2
:108480000C3444F8020C06F11103224606F13501C2
:1084900053F8040B8B4242F8040BF9D11B8813806C
:1084A0003DE0F2185279E2540133042BF9D106F180
:1084B00009000023C15CE2180133042B1171F9D1CA
:1084C00006F10D000023C15CE2180133042B117288
:1084D000F9D106F111000023C15CE2180133042B2D
:1084E0001173F9D106F115000023C15CE2180133C4
:1084F000042B1174F9D106F119000023C15CE218B4
:108500000133062B1175F9D106F11F000023C15C60
:10851000E2180133202B9176F9D100E05C46B8F8DF
:1085200000309BB29D4223D11F4B00221A801FE0D6
:1085300030460321B77804F0A3FA8346B9F1000F5F
:108540000CD00421701D04F0A2FA0246CAF8000003
:1085500006F115014846D2B2FCF7DAFD791D204636
:108560003144C7EB0B02FCF7D3FD0023A8F83630EB
:108570000023A8F8023001F0E3FA3378042B05D188
:10858000B5F5805F02D13046FFF7E2FCB8F8003065
:108590009BB2002B7FF44CAE034BD88E80B20028E8
:1085A0007FF446AEBDE8F88F681D002007284FF025
:1085B000010308D803FA00F0044B1A6810420CBFFC
:1085C0000020012070471846704700BF7C02002041
:1085D000034B1880084600210A46FFF723BE00BF60
:1085E000681D002010B5034B0124DC86BDE8104057
:1085F000FFF718BE681D002038B503461546012256
:108600004A710C46881D194604F035FA291D05707B
:10861000204601F057FB002038BD38B5BDF8145096
:108620000C462B44D518ADB202216171A071E271E4
:10863000294604F1080004F01EFA691D204689B29B
:1086400001F040FB002038BD38B513440C469DB204
:1086500002216171A0712946E27104F1080004F061
:108660000AFA691D204689B2BDE8384001F02ABBEC
:108670002DE9F84F1C4604F1020B032301F1070911
:108680001FFA8BFB88710D464B71484659461646BA
:1086900004F0F1F9B4F57A7F824605F10B0812D89F
:1086A000214604F0E8F92146504604F0E4F9314649
:1086B00040462246FCF72CFDA11D284689B2BDE8A4
:1086C000F84F01F0FFBA4FF47A77B4FBF7F30BEBF6
:1086D000430189B204F0CFF93946504604F0CBF992
:1086E000314640463A46FCF713FDA4F57A74284615
:1086F00040F2EE31A4B23E4401F0E4FAB4F57A7FE0
:1087000084BFA4F57A74A7B2A84688BF4FF47A74E0
:10871000314628F8054F4846224698BF0027FCF707
:10872000F7FCA11C404689B2264401F0CBFA0FB1F8
:108730003C46E3E7BDE8F88FF7B51E46FF238DF80A
:108740000730194B00259C68475D63190135042DDE
:108750005F72F9D100200D5C2318013004285D738D
:10876000F9D10021505C6318013104295874F9D102
:1087700004F11500002104F075F90022B35C835464
:108780000132042AFAD12146142242F20100FFF7F5
:1087900033FF42F201000DF10701FFF719FF9DF9C8
:1087A000070003B0F0BD00BF681D00202DE9F341B4
:1087B0001F46FF238DF807301E4B0646D3F808806E
:1087C00033680C46013B122B9CBF142333600B68AB
:1087D00008F10900013B122B9CBF14230B601368A6
:1087E0001546013B122B9CBF142313603B68013BD1
:1087F000122B9CBF14233B60316804F033F92168CD
:1088000004F030F9296804F02DF9396804F02AF9E8
:108810004146142242F20900FFF7EEFE42F209003F
:108820000DF10701FFF7D4FE9DF9070002B0BDE886
:10883000F08100BF681D002010B5074B0446996801
:1088400042F205000022FFF7D7FE214642F2050062
:10885000BDE81040FFF7BCBE681D00202DE9F341C4
:108860001F4602ACFF2304F8013D124B86469D686B
:108870000E4605F109007146904604F0F3F83146C2
:1088800004F0F0F8414604F0EDF829460C2240F2DD
:108890000120FFF7B1FE214640F20120FFF798FECC
:1088A000002138460A46FFF79DFE9DF8070002B0FA
:1088B000BDE8F081681D00202DE9F341984602AD26
:1088C0004FF0FF3345F8043D134B86469E680C4637
:1088D00006F10A007146174604F0C4F80C2104F0B2
:1088E000C1F8214604F0BEF8394604F0BBF8414611
:1088F000224606F11A00FCF70BFC31461022A3B207
:108900009020FFF7A1FE40F202202946FFF760FE0B
:10891000019802B0BDE8F081681D002013B50B4B33
:1089200004469968002240F20720FFF765FE40F2F6
:1089300007206946FFF74CFE9DF803309DF80000C4
:1089400023709DF80430637002B010BD681D0020D4
:1089500037B50E4A034694680D4604F109001946DE
:1089600004F080F8294604F07DF82146082240F200
:108970000320FFF741FE40F203200DF10601FFF74F
:1089800027FEBDF8060003B030BD00BF681D002003
:108990002DE9F0430023CA5CC2540133102BFAD1F5
:1089A0000022344B467B991891F801800178847B32
:1089B00088EA01089919C97A90F80CC088EA010878
:1089C0001919CF7A417880F810804F40C17B4774E5
:1089D0005D1895F80B908578634489EA050593F84E
:1089E0000B90C378FFB289EA030390F80490857472
:1089F00088EA090890F80590EDB287EA090790F82F
:108A00000690C37485EA090590F80790DBB283EA03
:108A1000090390F8089080F814805FFA88F888EAD3
:108A2000090890F809904775FFB287EA090790F89E
:108A30000A908575EDB285EA090590F80B90C3752B
:108A4000DBB283EA0903013288EA0C0C7E406C40F9
:108A500059400A2A80F8188047768576C37680F8D0
:108A60001CC046778477C17700F1100099D1BDE82A
:108A7000F08300BF7A25010810F0800F4FEA400014
:108A800018BF80F01B00C0B2704700002DE9F04F06
:108A900091F8A03090F800A042788AEA030A80F8A2
:108AA00000A091F8A13097B05340437082780793AB
:108AB00091F8A23090F8049053408370C2780593E7
:108AC00091F8A33046795340C370069391F8A430CF
:108AD000827989EA030980F8049091F8A53090F82A
:108AE00008805E40467191F8A630477A5340837102
:108AF000C279089391F8A73004465340C3710C9390
:108B000091F8A8304FF0000B88EA030880F808803D
:108B100091F8A9305F404772827A91F8AA305340A9
:108B200083720993C07A91F8AB3094F80CC043403B
:108B3000E3720D9391F8AC3094F80DE08CEA030CDD
:108B400084F80CC091F8AD30A57B8EEA030E84F852
:108B50000DE091F8AE30E27B5D40A57391F8AF3047
:108B60005A40464BE2739A449AF80B0191F890A050
:108B7000994480EA0A00207099F80BA191F894902A
:108B800098448AEA090984F8049098F80B9191F8BE
:108B900098809C4489EA080884F808809CF80B8136
:108BA00091F89CC09E4488EA0C0C84F80CC09EF896
:108BB0000BC191F891E01F448CEA0E0E97F80BC19F
:108BC00091F89D701E448CEA0707677396F80B7145
:108BD00091F899601D447E406672079E0D981E4470
:108BE00096F80B7191F8956084F801E07E4066710B
:108BF000059E18441E4496F80B7191F89A607740D0
:108C0000089E1E4496F80BE191F89E608EEA0606D7
:108C1000DDF824E09E449EF80BC191F892E08CEAC6
:108C20000E0E84F802E095F80BE191F89650A772C9
:108C30008EEA0505A571069DA6731D4495F80B6186
:108C400091F89F5075400C9E1E4496F80B7191F858
:108C5000936013447E40E67090F80B6191F89700A2
:108C60007040E07193F80B2191F89B30CDF81CB067
:108C70005340E573E3720D4602E000BF7A25010818
:108C8000A77894F80090103D87EA0900FFF7F4FEFA
:108C9000FFF7F2FEE67894F801B0824686EA0B0010
:108CA000FFF7EAFEFFF7E8FE2179A37980EA0608DC
:108CB00080EA0B0B83EA010003910293FFF7DCFECD
:108CC000FFF7DAFE8AEA0909E6798AEA070A67798C
:108CD000024686EA07000492FFF7CEFEFFF7CCFEBD
:108CE000049A029B03995340DBB294F808C00693A0
:108CF000A37A51404640C9B24740F6B283EA0C001D
:108D00000293CDF804C005910896FFF7B5FEFFF772
:108D1000B3FE617AE67A024686EA01000391049284
:108D2000FFF7AAFEFFF7A8FE049ADDF804C0039936
:108D3000029B82EA0C0C53404140C9B25FFA8CFCA2
:108D4000DBB20A91CDF824C00B9394F80CC0A37B3E
:108D50004640F6B283EA0C000293CDF804C00C96AC
:108D6000FFF78AFEFFF788FE617BE67B024686EA14
:108D7000010003910492FFF77FFEFFF77DFE049A46
:108D8000029BDDF804C00399534082EA0C0C5FFAA1
:108D900089F95FFA8BFB5FFA8AFA5FFA88F841403B
:108DA000DBB24640C9B28BEA09005FFA8CFC0F9334
:108DB000F6B288EA0A030E910293CDF834C01096F9
:108DC00083EA0006FFF758FE89EA000086EA000CF5
:108DD0005FFA8CFC84F800C08AEA0B00CDF804C06E
:108DE000FFF74AFE8BEA0000029B86EA000B5FFA5F
:108DF0008BFB184684F801B0CDF844B0FFF73CFE79
:108E00008AEA000086EA000A5FFA8AFA88EA09001C
:108E100084F802A0CDF848A0FFF72EFE88EA0000F3
:108E2000059BDDF818B0DDF820A04640FFB2F6B291
:108E300087EA03008AEA0B08E670139688EA0006C0
:108E4000FFF71AFE059948407040C0B21490207197
:108E50008BEA0700FFF710FE784086EA0007FFB2B2
:108E6000677140461597FFF707FE8BEA0000059AE9
:108E70007040C0B20690A0718AEA0200FFF7FCFDC4
:108E80008AEA00000B990A9BDDF824A0DDF830B0D7
:108E90004640F6B283EA0A000596E6718BEA0106BF
:108EA00086EA0007FFF7E8FD8AEA00000A9B0B9AB2
:108EB00087EA00085FFA88F882EA030084F80880ED
:108EC000FFF7DAFDDDF828A08AEA000087EA00094A
:108ED0005FFA89F9304684F80990FFF7CDFDDDF897
:108EE0002CB00C998BEA0000099A87EA000B5FFA14
:108EF0008BFB81EA020084F80AB0FFF7BDFD0C9BF2
:108F00000D99DDF838A05840109A47408AEA0100D0
:108F1000DDF83CA0FFB282EA0A03E77283EA000AA6
:108F20000293FFF7A9FD0D990F9A48408AEA0006BF
:108F30000E99F6B282EA01002673FFF79DFD0E9AA4
:108F4000029B50408AEA0001C9B26173184603913E
:108F5000FFF792FD0F9BDDF834E058408AEA0002EB
:108F6000109BD2B2A27383EA0E000492FFF784FD35
:108F7000109BDDF804C058408AEA000A494B5FFAAA
:108F80008AFA84F80FA003EB0C0090F80BC195F857
:108F900090001E448CEA0000207014981F4418446E
:108FA00090F80BC195F894008CEA0000207103EB57
:108FB000080090F80BC195F898008CEA0000207228
:108FC00095F89C0096F80B61039970402073194442
:108FD00091F80B0195F89110049A414003EB0900B8
:108FE00090F80B6195F89D001A44704060731598D5
:108FF000184490F80B6195F89900704060721198D0
:10900000184490F80B6195F89500617012997040C2
:109010006071194491F80B0195F89A10484006992F
:10902000194491F80B6195F89E10714003EB0B0603
:1090300096F80BC195F892608CEA0606A67092F835
:109040000B6195F89620A0727240139EA1731E4486
:1090500096F80B11A271059E95F89F201E4496F874
:109060000B014A4095F8931053444140E17095F844
:10907000971097F80B01DDF81CA04140E17193F8BF
:109080000B1195F89B30AAF1100A4B401AF1900F82
:10909000E372E273CDF81CA07FF4F2AD17B0BDE827
:1090A000F08F00BF7A25010838B5054C05462046EB
:1090B000FFF76EFC28462146BDE83840FFF7E6BCC6
:1090C000741C0020034610210C200022FFF7C6BBB1
:1090D000034610210C200022FFF7EEBB38B50546F1
:1090E0000E4CE36A4BB108F019F8E36A0360002301
:1090F000E36208F013F8006838BD2846FFF756FA17
:1091000048B9228E92B2002AEAD0228E92B2013A57
:1091100092B2228638BD4FF0FF3038BD681D002066
:10912000F7B5174602AC4FF0FF3244F8042D124A4F
:10913000034695680E4605F10900194603F092FCB6
:10914000314603F08FFC394603F08CFC0C22294693
:1091500041F20100FFF750FA214641F20100FFF70A
:1091600037FA07F0DBFF019B002103601846FEF78A
:1091700029FF019803B0F0BD681D002073B54FF0C2
:10918000FF3302AC44F8043D0E4B05469E68294669
:1091900006F1090003F066FC0422314641F20B009F
:1091A000FFF72AFA214641F20B00FFF711FA07F008
:1091B000B5FF019B012103602846FEF703FF0198DC
:1091C00002B070BD681D0020F7B50C460746164674
:1091D00007F0A4FF4FF0FF33E62C036025D8154BB2
:1091E00008219D6805F1090003F03CFC214603F0CD
:1091F00039FC0346191A09B2A14203DA7A5C03F872
:10920000012BF7E704F10802D2B2294641F210001F
:10921000FFF7F2F941F210006946FFF7D9F907F0BC
:109220007DFF009B0360019B336007F077FF0068C0
:1092300003B0F0BD681D002037B54FF0FF3201923A
:10924000134A034694680D4604F10900194603F0D9
:1092500009FC082103F006FC082103F003FC0023AD
:10926000EA5CC2540133082BFAD11422214641F2A0
:109270000700FFF7C1F901A941F20700FFF7A8F9BC
:1092800007F04CFF019B0360184603B030BD00BFE0
:10929000681D00202DE9FF411D46314B8646D3F85D
:1092A00008800F4608F10900714616460A9C03F033
:1092B000D9FB142103F0D6FB142103F0D3FB1421B6
:1092C00003F0D0FB142103F0CDFBD4F1010138BF32
:1092D000002103F0C7FB0FB1396800E0394603F005
:1092E000C1FB0EB1316800E0314603F0BBFB0DB1AC
:1092F000296800E0294603F0B5FB74B1216839B94B
:10930000636841F287329342DCBF41F28833636085
:1093100003F0A8FB616803F0A5FB41462C2241F253
:109320000800FFF769F941F208006946FFF750F9B4
:10933000009B002B09DB0FB1019838600EB1029839
:1093400030604DB10398286006E007F0E7FE009B0F
:1093500003604FF0FF3000E0184604B0BDE8F08134
:10936000681D00202DE9FF419846154B07469D6872
:1093700014460E4605F10900394603F073FB2146F9
:1093800003F070FB414603F06DFBBDF83040294609
:109390000C222046FFF730F9204601A9FFF718F903
:1093A000029B002B04DD30460A990B9AFFF71AF94D
:1093B00007F0B4FE029B0360184604B0BDE8F081DC
:1093C000681D00201FB500240094019441F204049C
:1093D0000294FFF7C7FF04B010BD00002DE9F04F65
:1093E00089B0039114469B46139E149D0290FFF78B
:1093F00075FEDDF808C0002858D12E4B812D9A6BE0
:1094000002F101029A63D3F8089009F10A0307D028
:10941000832D0AD104F1080A09F12208182704E073
:1094200009F11A081027064612906146184603F003
:1094300019FB391F03F016FB214603F013FB5946B5
:1094400003F010FB832D05D1514603F00BFB0821DF
:1094500003F008FB4346C8EB030109B2A14204DA5A
:10946000039A515C03F8011BF5E7832D18460ED0D3
:10947000129BB6B200930196E8B249463A46A3B2AF
:10948000FFF7CBF8832D0BD141F20F000AE0191A38
:1094900009B2B142ECDA129A515C03F8011BF6E70B
:1094A00041F2030005A9FFF793F8204609B0BDE893
:1094B000F08F00BF681D00201FB5002400940194A8
:1094C00081240294FFF78AFF04B010BD1FB5069CEB
:1094D0000094079C019483240294FFF77FFF04B05B
:1094E00010BD0000202A73B503460E46144624D84A
:1094F000144A1946956805F1090003F0B3FA0821EA
:1095000003F0B0FA214603F0ADFA03461A1A12B27C
:10951000A24203DAB25C03F8012BF7E704F10C0274
:109520002946D2B241F21100FFF766F841F211006C
:1095300001A9FFF74DF8019801E04FF0FF3002B0AC
:1095400070BD00BF681D0020024B01225A80586088
:10955000FEF750BE681D002010B5084CE160226186
:109560006361029BE361039B2362049B6362059B2F
:10957000A3620123A06184F8403010BD681D002063
:1095800070B5214C0023A363E363238023866386A5
:10959000A386E386E362638063601C4B05461C4838
:1095A000A36000F0ABFAE3699847A36A064601207E
:1095B000984706B3E36998470028FBD1002DA168BE
:1095C00014BF022300234B7201224FF48040FFF7A7
:1095D00013F84FF480400021FEF7FAFFA16844F22F
:1095E0000B000022FFF708F8BDE8704044F20B00C2
:1095F0000021FEF7EDBFE36998470028FBD0E3693F
:1096000098470028FBD1D9E7681D0020D01D002015
:109610004995000838B5094C0020A36A98472546AB
:10962000EB69064C98470028FAD0A3680BB10023D9
:10963000A360BDE8384000F075BA00BF681D002087
:109640002DE9F04F994685B04FF0FF3301932E4B33
:109650001546D3F808A00024834688460AF109007D
:109660001C210F9E0E9F0294ADF80C4003F0FAF9F6
:10967000294603F0F7F9594603F0F4F905F1100112
:1096800003F0F0F9314603F0EDF9214603F0F3F968
:10969000B9F1000F08D019F8043003550134062C35
:1096A000F9D10630034607E04B4602AA9A5CC25441
:1096B0000133062BF9D1F4E71A1A12B2AA4204DADE
:1096C00018F8022003F8012BF6E7194646B13FB11E
:1096D0005A1A12B2B24203DABA5C03F8012BF7E766
:1096E0001C367219D2B251460120FEF785FF01A93E
:1096F0000120FEF76DFF07F011FD019B0360184686
:1097000005B0BDE8F08F00BF681D0020F7B5174613
:1097100002AC4FF0FF3244F8042D0D4A0346956821
:109720000E4605F10900194603F09CF9314603F095
:1097300099F9394603F096F929460C220420FEF7E0
:109740005BFF04202146FEF743FF019803B0F0BD04
:10975000681D00202DE9F04F144685B000220292CA
:10976000ADF80C206D4A8046D2F808A00F460AF1E9
:10977000090041469B460F9D139E03F073F9B8F113
:10978000030F00F2BD80DFE808F0022C757514218C
:1097900003F068F9214603F065F9002103F06BF945
:1097A000BBF1000F07D000221BF8021081540132D8
:1097B000062AF9D106E05B4602AA9A5CC25401333C
:1097C000062BF9D106300E9903F04CF903461A1A0C
:1097D00012B2A24203D2BA5C03F8012BF7E71834A5
:1097E0008CE0202103F03EF9214603F03BF90021F3
:1097F00003F041F9BBF1000F07D000221BF8021063
:1098000081540132062AF9D106E05B4602AA9A5C2D
:10981000C2540133062BF9D10E99063003F022F918
:1098200004F10C0103F01EF9294603F01BF910990D
:1098300003F018F903461A1A12B2A24203D2BA5C14
:1098400003F8012BF7E7129804211A46D61A36B20C
:10985000AE4203D2865D02F8016BF7E70139284476
:1098600001D01346F1E704EB850909F124091FFA39
:1098700089F945E0282103F0F5F8214603F0F2F8D4
:10988000002103F0F8F8BBF1000F07D000221BF80D
:10989000021081540132062AF9D106E05B4602AA81
:1098A0009A5CC2540133062BF9D10E99063003F0AD
:1098B000D9F8294603F0D6F8109903F0D3F8119996
:1098C00003F0D0F804F1080103F0CCF8314603F0BE
:1098D000C9F803461A1A12B2A24203D2BA5C03F8BC
:1098E000012BF7E719465A1A12B2B24204D2129863
:1098F000825C03F8012BF6E72C3634441FFA84F916
:1099000051465FFA89F20520FEF776FE052001A98F
:10991000FEF75EFE019805B0BDE8F08F681D0020DF
:1099200037B50C4B01469D6802AC05F1090003F008
:1099300099F84FF0FF3344F8043D294604220620ED
:10994000FEF75AFE06202146FEF742FE019803B0BC
:1099500030BD00BF681D002037B548F2080248F24C
:10996000080102408A42034613490BD1002093426A
:1099700081F840001ED023F4004323F0080343F491
:10998000004302E0012281F840208D684FF0FF3251
:10999000194602AC05F1090044F8042D03F062F801
:1099A000294604220820FEF727FE08202146FEF75C
:1099B0000FFE019803B030BD681D002073B50C4B3D
:1099C00001469D684FF0FF3602AC05F10900019693
:1099D00003F048F844F8046D294604220A20FEF7F3
:1099E0000BFE0A202146FEF7F3FD019802B070BD80
:1099F000681D002013B50E4A4FF0FF3301939168A4
:109A000098B154230370437083700022845C8B18D8
:109A10000132032A5C72F9D10C20FEF7EDFD0C2017
:109A200001A9FEF7D5FD019800E0184602B010BD6F
:109A3000681D0020F0B52E4887B0FFF743FB0246B3
:109A4000002852D12B4D0D2043212B46FEF706FF57
:109A500000284AD12E782649F71C7C192046FFF7AA
:109A600023FB2B782B445B78102B04D904F11000D6
:109A70001F49FFF719FBE37F1BB1EB5D1F2B03D1E0
:109A800000E0EB5D013400E020232A781544AA7839
:109A9000032A29D8DFE802F0020E19190020012359
:109AA0000093019002900390049005901249324671
:109AB000034616E001208DE809000023029303937A
:109AC000049405930C4932460BE0012018211E2214
:109AD00002258DE8270008490593049403203246A7
:109AE0000023FFF737FE00E0002007B0F0BD00BF05
:109AF000AC1D0020241D0020251D002008B50649AE
:109B0000064B00229A6018601961DA80DA609A8048
:109B1000034B1B6A984708BDD0210020BC1D0020C4
:109B2000681D002008B5044B1A690AB100221A61A9
:109B3000024B5B6A984708BDBC1D0020681D0020D1
:109B4000024B4FF480725A60704700BF00E100E0A2
:109B500008B5074B4FF48072C3F8842000F06EFE06
:109B6000044B022218699A6005301B68984708BDAB
:109B700000E100E0BC1D002070B506460020144640
:109B80000D4600F04BFE012EA4B207D13046294607
:109B9000224600F0CBFD0020124907E0124B0120C5
:109BA0001969224600F0C2FD00202946224600F035
:109BB000BDFD0E480221012201F05FFC012000F0F2
:109BC0002DFE0A4801F061FC0028FAD1084801F096
:109BD0005CFC0028FAD10748802101F028FF00280A
:109BE000F9D170BD80020020BC1D00205800024049
:109BF000440002400038004003460A46012019464E
:109C0000FFF7BABF70B50646002014460D4600F0B7
:109C100005FE012EA4B207D130462946224600F0A7
:109C200085FD0020104907E0104B012019692246EC
:109C300000F07CFD00202946224600F077FD01203F
:109C400000F0ECFD0A4801F020FC0028FAD1094898
:109C500001F01BFC0028FAD10748802101F0E7FE43
:109C60000028F9D170BD00BF80020020BC1D00207B
:109C700058000240440002400038004003460A46B3
:109C800000201946FFF7BEBF38B504460D4600F068
:109C90008BFE322000F0A2F9214604220020FFF7BB
:109CA000B1FF322000F09AF90020211D2A1FFFF792
:109CB000A9FF034B02229A6000F0C0FD002038BDCE
:109CC000BC1D0020F8B501F0010383F0010301225F
:109CD00002700546CA18C2F30720AA704E1D002262
:109CE000194C6870EA702A71B6B21E44A368B6B205
:109CF00013B9A368012BFCD1A368012B07D1284617
:109D00003146FFF7C1FFA368022BFCD11AE0A3681C
:109D1000022BFCD10D48802101F089FE0028F9D1E9
:109D20000B4FFB6998470028FAD00323A360E56036
:109D3000A68000F039FEFB6998470028FBD0A36895
:109D4000022BFCD10020F8BDBC1D002000380040D3
:109D5000681D0020F8B5184E356937466B79022B1F
:109D600008D0042B24D12C7A631E13F0010F08BFF6
:109D70001C4614E0681D032102F082FEB0F5806FDE
:109D8000044608DB05F10A004FF480610724FFF761
:109D900033FFB4600DE0C30701D4441C00E024B1DC
:109DA00005F10A00A1B2FFF727FF0823BB6000E01E
:109DB00000242046F8BD00BFBC1D0020024B01203E
:109DC00019690A22FFF7D8BEBC1D002008B5FFF7AD
:109DD000C1FF18B9BDE80840FFF7BABE08BD0000D2
:109DE000F8B5344C4FF40030276901F051FB0646BA
:109DF0004FF4005001F04CFBA3682546062B0BD115
:109E0000002E56D0002854D04FF4083001F04EFBFD
:109E1000BDE8F840FFF7DABFA368072B19D1002887
:109E200047D04FF4083001F041FB0321781D02F0C8
:109E300027FEA0F5806189B2CB0758BFA0F2FF31A1
:109E4000206958BF89B200F20A40FFF7D5FE082307
:109E50001CE0A368082B08D158B34FF4083001F078
:109E600025FBBDE8F840FFF773BEA368052B0FD1B3
:109E7000FEB11148802101F0DAFD0028F9D14FF43C
:109E8000083001F013FB00F0D9FC0223AB60F8BDF1
:109E9000A368042B0DD166B1A188E0680523A1F564
:109EA0008061A36000F5806089B2BDE8F840FFF7EB
:109EB000E5BEF8BDBC1D00200038004008B5164BBB
:109EC000DB69984738BB154B9A6812B901229A6032
:109ED00008BD9A68022A07D106229A6000F064FD44
:109EE000BDE80840FFF76ABF9A68032A13D19A8831
:109EF000B2F5806F06D805219960D968BDE80840A1
:109F0000FFF73ABE04229A60D8684FF48061BDE83A
:109F10000840FFF7B3BE08BD681D0020BC1D00202F
:109F2000BFF34F8F044A054BD16801F4E0610B4346
:109F3000D360BFF34F8FFEE700ED00E00400FA05A9
:109F40000D4B0E4A197839B9D98889B21187198908
:109F500089B291879B8806E0D98989B21187198ACD
:109F600089B291879B899BB29386054B63221A70B5
:109F7000FF225A70704700BF081C0020002C0140CF
:109F8000880200204FF4407001F06AB90A4BF021BA
:109F90001A684FF47A73B2FBF3F2084B013A5A6035
:109FA000074A82F823100021996007211960D02305
:109FB00082F82330704700BFDC02002010E000E090
:109FC00000ED00E082B00190019A034B1A601A681C
:109FD000002AFCD102B07047DC25002013B50849E7
:109FE000084B01900C68084901985A68B4FBF1F1DC
:109FF00000FB01215A689142FCD802B010BD00BF9D
:10A00000DC020020001000E040420F0030B54FF4A9
:10A01000003085B001F0A2FA4FF400330293082318
:10A02000002501240DEB03008DF80D308DF80C5048
:10A030008DF80E4001F044FA032301A88DF8043096
:10A040008DF805308DF806508DF8074001F012F9B3
:10A0500029238DF8043004230DEB03008DF805301F
:10A060008DF806508DF8074001F004F9022001F048
:10A07000CFFB50B1022001F0D5FB01F077FC24208A
:10A080004FF6FF7101F034F927E0242001F03EF98A
:10A090004AF2A553984201D101F0A6FB012001F03C
:10A0A000CFFB412001F00EFC0028FAD04FF4807065
:10A0B00001F0D6FB012001F0DBFB01F057FC01F0C1
:10A0C0004DFC0320012101F019FC01F047FC47F68B
:10A0D000FF7001F033FC01F041FC05B030BD10B55C
:10A0E000044645F2555001F057FB062001F05AFB9B
:10A0F00042F21070844228BF044628206043C0F317
:10A100000F2001F055FB01F059FBBDE8104001F0B4
:10A110005DBB0000082814D8012908D10B4B0C4A5C
:10A1200003EB80035B6832F810201A610BE051B931
:10A13000064B074A03EB80035B6832F810205A6134
:10A1400001E0FF2000E0002040B2704788020020BC
:10A150008827010873B50F4E850073190446012145
:10A16000186901F097FB36F8143001A9ADF80430F6
:10A1700010238DF8073003238DF80630064B1D445D
:10A18000686801F06BFA20460021FFF7C3FF02B0B8
:10A1900070BD00BF882701088802002070B501212A
:10A1A00088B04FF4006001F075FB314B01A81C68CA
:10A1B000304B0025B4FBF3F4A4B201F087FD01A8F5
:10A1C00001F084FDADF804402B4C42F20F7301A95D
:10A1D0002046ADF80830ADF80A50ADF8065001F051
:10A1E0002DFC04A801F07BFD60230126ADF81030A2
:10A1F0002046022304A9ADF81830ADF81260ADF87E
:10A200001650ADF81C5001F063FC2046294601F0C1
:10A210009FFD204604A901F09FFC2046294601F03D
:10A220009FFD204604A901F0DBFC2046294601F0F1
:10A23000A1FD204604A9ADF81050ADF81260ADF8AC
:10A240001650ADF8185001F00DFD2046294601F0DA
:10A2500099FD2046314601F06FFD2046314601F060
:10A2600048FD2046314601F050FD08B070BD00BFEA
:10A27000DC02002040420F00002C014030B51049A4
:10A28000104B8C8D93F82430A4B204FB0334C0F33C
:10A29000074254430C4A240CD4808C8DC0F307250C
:10A2A000A4B204FB03346C43240C1481898DC0B226
:10A2B00089B201FB033343431B0C938030BD00BFC5
:10A2C000002C014088020020081C002030B51049F5
:10A2D000104B8C8D93F82430A4B204FB0334C0F3EC
:10A2E000074254430C4A240CD4818C8DC0F30725BB
:10A2F000A4B204FB03346C43240C1482898DC0B2D5
:10A3000089B201FB033343431B0C938130BD00BF73
:10A31000002C014088020020081C0020024B002273
:10A320001A70FFF70DBE00BF081C002073B50F4E5A
:10A330008500731904460121186B06EB440601F0F1
:10A34000A9FAB6F84030ADF804300CB9102300E09B
:10A3500018238DF8073003238DF80630044B01A92C
:10A360001D44A86A01F07AF902B070BD882701087F
:10A370008802002010B1E72806D07047034B4FF445
:10A3800000529B6A1A617047FFF7DABD880200200D
:10A3900010B1E72806D07047074B4FF400529B6A74
:10A3A0005A617047054A0023138793879386024AB0
:10A3B000137001235370704788020020002C014065
:10A3C000024B0122E7201A70FFF7E2BF081C0020B1
:10A3D00010B1E72807D070471D4B9B6ADA6882F4FA
:10A3E0000052DA6070471B4A1B4B1178A1B9188FD5
:10A3F00080B208B9D18889B219879B8F16499BB260
:10A400000BB1002301E013899BB28B87124B998E0D
:10A4100089B2B1B9928817E0198F89B209B10021C8
:10A4200001E0D18989B219879B8F0B499BB20BB18F
:10A43000002301E0138A9BB28B87074B998E89B268
:10A4400009B1002201E0928992B29A86704700BF5A
:10A4500088020020081C0020002C014010B51D4A75
:10A4600013780BB9012102E0632B01D1FF21517058
:10A470005178E7280B44DBB2137029D1164A6320C8
:10A48000147816497CB9D488A4B25C43B4FBF0F4C8
:10A49000A4B20C871489A4B25C43B4FBF0F4A4B258
:10A4A0008C8792880EE0D489A4B25C43B4FBF0F4AC
:10A4B000A4B20C87148AA4B25C43B4FBF0F4A4B237
:10A4C0008C87928992B25343B3FBF0F080B28886B6
:10A4D00010BD00BF88020020081C0020002C014095
:10A4E00073B5104C0E4604EB400494F84C1005462E
:10A4F00094F8480001F03AF9B4F85040204601F0D1
:10A5000019F800238DF80430074B68461D4495F870
:10A51000383000948DF805308DF8066000F0D0FFDB
:10A5200002B070BD8827010888020020F7B5234ECD
:10A530008700F3190546586D0C4640F001000121D3
:10A5400001F0A8F91E4B06EB45065A1992F83A207D
:10A5500002A98DF80320B6F85C201F4421F8082DCD
:10A56000F86B694601F07AF8012C24D11021002201
:10A57000144801F0D8FB1B238DF804300027052375
:10A5800001A88DF805308DF806708DF8074000F0B1
:10A5900071FEB6F8603001A88DF8043006238DF8FE
:10A5A00005308DF806708DF8074000F063FE2846F0
:10A5B0002146FFF795FF03B0F0BD00BF88270108D3
:10A5C00088020020002C01401A4B10B5DA680024E4
:10A5D00042F08072DA60184B01215C601A684FF01B
:10A5E000C05042F001021A6001F060F9012001F050
:10A5F000F5F8FFF7C7FC0120014601F04BF9E0B286
:10A600000134FFF7A7FD082CF9D1FFF7C7FD0020A3
:10A61000FFF78CFE0120FFF789FE0220FFF786FE80
:10A620000320FFF783FEBDE8104000200121FFF763
:10A630007DBF00BFF0ED00E0001000E0054A064BD2
:10A6400002EB800203EB4003B3F85C10D06B01F027
:10A6500053B800BF8802002088270108024B03EB93
:10A660004000408A80B27047081C0020024B002244
:10A6700003EB400042827047081C002010B5082000
:10A6800086B0012101F006F94FF48040012101F06C
:10A690000DF9244C4FF40053ADF8003003238DF82E
:10A6A00002302046182369468DF8033000F0D6FFAB
:10A6B0004FF4004320466946ADF8003000F0CEFF6D
:10A6C0004FF48043ADF800302046042369468DF8EE
:10A6D000033000F0C3FF4FF48272ADF80620012270
:10A6E0000023ADF80C20A4F554444FF40072ADF8EB
:10A6F0000430ADF80830ADF80A30ADF80E20ADF8F2
:10A70000123008220723204601A9ADF81020ADF829
:10A71000143001F053F92288034B92B21A8006B02C
:10A7200010BD00BF000C0140EA25002070B50446B2
:10A7300001208CB00E460146154601F09FF8124BE1
:10A7400080220193069200234FF44052012C02967E
:10A7500005930793089309930A920B9306D10B482C
:10A760000393049500F0E8FD084807E04CB9102376
:10A7700007480393049500F0DFFD054801A900F0A8
:10A7800053FE0CB070BD00BF0C38004044000240C6
:10A790005800024073B50F230124002501A88DF84D
:10A7A00004308DF805508DF80650174E8DF807408F
:10A7B00000F060FDFFF762FF20462A461349FFF7CD
:10A7C000B5FF28462A461249124DFFF7AFFF304623
:10A7D0002246022100F051FE28462146224601F081
:10A7E00018F922462846022101F013F9284621468D
:10A7F00001F003F92146084800F034FE30462146B6
:10A8000000F030FE02B070BD58000240D0210020A0
:10A81000D01D0020003800404400024010B504461E
:10A820002146044800F01EFE21460348BDE81040C2
:10A8300000F018BE440002405800024002484FF4A5
:10A84000805100F05FBF00BF000C014008B54FF41D
:10A850000061024800F050FF08BD00BF000C01403D
:10A8600030B5092085B0012101F014F84FF40064DF
:10A870004823694614488DF80330ADF8004000F0D5
:10A88000EDFE0B21012000F071FF204600F052FE8A
:10A89000002502940C23012402A88DF80D308DF8B8
:10A8A0000C508DF80E4000F00BFE282301A88DF807
:10A8B00004308DF805408DF806508DF8074000F003
:10A8C000D9FC05B030BD00BF000C01401FB52823E6
:10A8D000002401A88DF804308DF8074000F0CAFC70
:10A8E0004FF4006302A802938DF80E4000F0E8FDDB
:10A8F00004B010BD20B105484FF4807100F002BFD4
:10A9000002484FF4807100F0FFBE00BF000C014010
:10A9100013B50820012100F0BDFF0F4C4FF4805308
:10A92000ADF804300323204601A98DF8063010232A
:10A930008DF8073000F092FEFFF780FF4FF4807330
:10A94000204601A9ADF8043000F088FE0020FFF792
:10A95000D1FF02B010BD00BF000C014010B50B4C80
:10A96000238823F040031B041B0C2380FFF766FFA2
:10A97000074B08481B884FF400719BB243F040031B
:10A980002380BDE8104000F0BFBE00BF003800408B
:10A99000E8250020000C014002484FF4007100F04F
:10A9A000B1BE00BF000C014010B50B4C238823F052
:10A9B00040031B041B0C2380FFF7EEFF074B0848E6
:10A9C0001B884FF480519BB243F040032380BDE8C5
:10A9D000104000F099BE00BF00380040EA2500207A
:10A9E000000C014070B5082086B0012100F052FF34
:10A9F0002E4C4FF48040012100F058FF4FF40053DB
:10AA0000ADF8003003261823204669468DF8033040
:10AA10008DF8026000F022FE4FF4004320466946A4
:10AA2000ADF8003000F01AFE4FF48043ADF800306E
:10AA30002046042369468DF803304FF4007500F07A
:10AA40000DFE1023204669468DF80330A4F55444CA
:10AA5000ADF800508DF8026000F000FEFFF79CFF9B
:10AA600000234FF48272ADF80430ADF80620ADF843
:10AA70000830ADF80A30ADF80C300822ADF81230CD
:10AA80002046072301A9ADF81020ADF81430ADF829
:10AA90000E5000F093FF2288054B92B22046012110
:10AAA0001A8000F0AAFF06B070BD00BF000C014084
:10AAB000E825002007B50820012100F0EBFE4FF447
:10AAC0008063ADF8043003238DF806300448142366
:10AAD00001A98DF8073000F0C1FD03B05DF804FB5B
