:020000040800F2
:10500000005000205DA000085D9700085F97000831
:1050100069970008739700087D970008000000005A
:10502000000000000000000000000000879700085A
:1050300089970008000000008B9700088D970008F2
:10504000B1A00008B1A00008B1A00008B5990008FF
:10505000B1A00008B1A00008ED9700080D98000865
:105060002D9800086198000881980008B1A00008F8
:10507000B1A00008B1A00008B1A000081D9A000866
:10508000B1A00008B1A000089D970008B1A00008D9
:10509000219A0008B1A00008B1A00008A19800085A
:1050A000B1A00008B1A00008B1A0000869990008EB
:1050B000B1A00008B1A00008B1A00008BD97000889
:1050C000CD970008B1A00008B1A00008DD97000846
:1050D000B1A00008B1A00008AD970008B1A0000879
:1050E000F1980008DD990008B1A000080000000058
:1050F00000000000000000000000000000000000B0
:0C51000000000000000000005FF808F153
:10511000844641EA000313F0030349D1403A23D304
:105120000B6803604B6843608B688360CB68C36027
:105130000B6903614B6943618B698361CB69C3610F
:105140000B6A03624B6A43628B6A8362CB6AC362F7
:105150000B6B03634B6B43638B6B8363CB6BC363DF
:1051600040304031403ADBD230320BD30B68036021
:105170004B6843608B688360CB68C360103010312C
:10518000103AF3D20C3205D351F8043B40F8043BFB
:10519000043AF9D2043208D0D2071CBF11F8013BFF
:1051A00000F8013B01D30B8803806046704700BFC5
:1051B000082A13D38B07B1D010F00303AED0C3F18C
:1051C0000403D21ADB071CBF11F8013B00F8013BB6
:1051D000A4D331F8023B20F8023B9FE7043AD9D32D
:1051E000013A11F8013B00F8013BF9D20B7803704A
:1051F0004B7843708B7883706046704740EA010CAF
:105200001CF0070F27D1BDF1100DCDE90245CDE906
:1052100000676FF000064FF0000700BFF0E80223C0
:10522000F1E80245A242A2F1013C2CEA020C0CF08A
:10523000803C08BFBCF1000F40F0E580AB42A3F119
:10524000013C2CEA030C0CF0803C08BFBCF1000FC1
:1052500040F0D680E2E710F0030C21D020F00300EC
:1052600050F8042B5FEACC7C08D00FD211F801CBA8
:105270005FFA92F3B3EB0C0C10D17BB111F801CBB8
:105280005FFAA2F3B3EB0C0C08D13BB111F801CBE0
:105290005FFAB2F3B3EB0C0C00D10BB96046704768
:1052A000BDF1100DCDE90245CDE900676FF00006B4
:1052B0004FF0000711F0030C33D110F0040F0FD0A2
:1052C00050F8042B51F8044BA242A2F1013C2CEA05
:1052D000020C0CF0803C08BFBCF1000F40F0938042
:1052E00011F0040F99D051F8045B00BFF0E80223DD
:1052F000AA42A2F1013C2CEA020C0CF0803C08BF4F
:10530000BCF1000F79D1F1E80245A342A3F1013CC1
:105310002CEA030C0CF0803C08BFBCF1000F69D1F3
:10532000E4E721F00301BCF1020F20D03FDA51F88D
:10533000045B00BF50F8043B4FEA1525A3F1013C84
:105340002CEA030C0CF0803CB7EB0C2F03EA16227E
:1053500008BFAA4251D151F8045BBCF1000F82EAA8
:1053600003034FEA056208BF934240D1E2E751F8D8
:10537000045B00BF50F8043B4FEA1545A3F1013C24
:105380002CEA030C0CF0803CB7EB0C4F03EA1642FE
:1053900008BFAA4231D151F8045BBCF1000F82EA88
:1053A00003034FEA054208BF934220D1E2E751F8D8
:1053B000045B00BF50F8043B4FEA1565A3F1013CC4
:1053C0002CEA030C0CF0803CB7EB0C6F03EA16627E
:1053D00008BFAA4211D151F8045BBCF1000F82EA68
:1053E00003034FEA052208BF934200D1E2E719BA4E
:1053F00012BA0AE019BA22BA07E011BA2ABA04E0CE
:1054000019BA2ABA01E011BA22BA9CFA8CF0DDE985
:105410000067DDE902451DF1100D38B1B0FA80F0EA
:10542000C0F1180021FA00F122FA00F201209142A5
:1054300098BF8041704700BF014B0360704700BFB9
:10544000784D0108014B0360704700BF904D010883
:1054500008B5034B00221A705B68984708BD00BF6F
:10546000C80B002010B5034B0446036002F038F867
:10547000204610BD784D010810B5034B044603606B
:1054800002F02EF8204610BD904D010810B5054CD5
:10549000054904F1080001F01BFB012384F84031A9
:1054A00010BD00BFC80B0020B077010810B5054C37
:1054B000054904F1080001F00BFB002384F840319A
:1054C00010BD00BFC80B0020B677010808B5FFF774
:1054D00095FED0F1010038BF002008BD10B504468C
:1054E000206803681B6998470028F9D02068036882
:1054F0005B699847C0B210BD2DE9F843054689465F
:10550000FFF7ECFF012628710027B0462846FFF779
:10551000E5FF05EB0803187100F07F0303FB067736
:1055200008F101040306A4B2BFB24FEAC61601D5C2
:10553000A046EBE7631E89F800300026B3B2BB42F9
:1055400012D27F2C0AD82846FFF7C8FF04F10108C1
:105550001FFA88F82C442071444603E02846FFF7E0
:10556000BDFF00240136E9E72046BDE8F883F7B522
:1055700007461E46DDB2002405F07F0302A8ED09B0
:10558000204418BF43F08003013400F8043CE4B227
:10559000002DF1D1C4F1040302EB030ED154A54256
:1055A00006DA01A9695C131B2B4459710135F6E732
:1055B0003868721C03682244DB68714698470546C8
:1055C00002F0BEFC0134C7F888002644E8B2831B11
:1055D0005842584103B0F0BD023370B59BB200256C
:1055E000ACB201354E1916F8016C181980B20EB123
:1055F0001654F5E7031B1A44231202F8023C02F882
:10560000014C70BD38B50546006848B103681B6B96
:105610009847044628B928680368DB6A984700E081
:105620000446204638BD00002DE9F04F85B0044601
:105630008A4690461F46DDF83890FFF7E3FF06469E
:10564000002840F0A2802568D4F89C102B6829B16E
:105650005B6A2846B4F8A02098470BE0D4F898106D
:1056600001A8D3F820B002F0F1FE284601A9B4F851
:10567000A020D847002800F08380464A0123106804
:105680005168A4F8843001AB03C3127A01A81A70E0
:105690000023E218C15C0133092B5172F9D1B9F131
:1056A000000F0AD09DF840509DF83C306D0145F048
:1056B000060545EAC305EDB200E00225B8F1000F8A
:1056C00005D017B945F0800501E045F0C00500237D
:1056D000A574E374251D0F2323752046112351461D
:1056E0002A46FFF779FF0346B9F1000F0BD0494670
:1056F0002A462046FFF770FF119903462A462046A6
:10570000FFF76AFF0346B8F1000F0CD02046414670
:105710002A46FFF761FF03462FB1204639462A4645
:10572000FFF75AFF0346053B10212A469BB220464D
:10573000FFF71DFF02F004FCC4F88800C4F88C00D9
:10574000206803681B69984748B902F0F9FBD4F850
:105750008C3043F69822C01A9042F1D910E02046CE
:105760000DF10301FFF7C8FE042809D1E5793DB921
:1057700002F0E6FB0126C4F88C0084F8905005E0A6
:1057800020680368DB6A984700E00026304605B0D1
:10579000BDE8F08F0C4D01081FB500220092019268
:1057A000029203921346FFF73FFF05B05DF804FB3A
:1057B0002DE9F04704460E46924699469DF8208012
:1057C000FFF720FF08B3251D314620462A46052352
:1057D000FFF702FF00218FB246184F45B6B201F124
:1057E000010104D21AF8073026443371F3E7B8F107
:1057F000000FA6F1050320462A4614BF31213021AF
:105800009BB2BDE8F047FFF7B2BEBDE8F08773B5C5
:105810000546104614460E460FF080F80022034657
:105820000092284631462246FFF7C2FF02B070BD03
:10583000012A2DE9F04104460F46154621D8FFF70D
:10584000E1FEF0B1B4F8843001339BB203B9012317
:10585000A4F88430B4F88430261D1A126272A37240
:105860003946324620460723FFF7B6FE23181D713E
:10587000031F3246204682219BB2BDE8F041FFF76C
:1058800076BE0020BDE8F0810022FFF7D1BF70B5E1
:1058900004460D46FFF7B6FE50B12B126372A57297
:1058A0002046221D40210223BDE87040FFF75FBE65
:1058B00070BD2DE9F04383B000AF0446FFF7A2FEB0
:1058C000002800F0988002F03BFBD4F88C300546AD
:1058D000C21A43F698239A4204D8D4F88820821A30
:1058E0009A4217D994F89030206823B10368DB6A94
:1058F000984700207FE0C022227163710368211D58
:10590000DB68022298470123C4F88850C4F88C5001
:1059100084F89030206803681B699847002869D094
:105920002046F91DFFF7E8FD8046002862D0227965
:10593000C4F88C5002F0F002302A48D1D4F89430E8
:10594000002B57D0FD796E4661194A798B7903EBAC
:1059500002239BB203F10802D208A6EBC2008546DF
:1059600000221FFA82FE9E4507D201EB020E9EF82E
:1059700007E000F802E00132F3E70022C254227986
:10598000D4F894C012F0020F05F10302C5EB080829
:105990001A4414D02244517992F80490C3EB0802BF
:1059A00001EB0929691D194421441FFA89F90431C1
:1059B000053AE04720464946FFF769FF05E0A11890
:1059C000A8F103020431D21AE047B54612E0C02A1A
:1059D0000BD1D0232146237151F8040B00236371AE
:1059E00003680222DB68984704E0D02A04BF002342
:1059F00084F8903001200C37BD46BDE8F0830000EC
:105A0000B0B51C4C8CB000AF054604F5A27107F18F
:105A1000200002F0BEFE294607F1100002F097FEBA
:105A200007F1100107F1200002F0E2FE01463846BE
:105A300002F0AFFE07F1100002F047FE07F1200070
:105A400002F043FEBA68384602F1080323F0070368
:105A5000ADEB030D01320023694602F0E8FE694612
:105A600004F5AA70FFF710FF384602F02EFE30371B
:105A7000BD46B0BDC80B002008B50B48FFF7C2FDFE
:105A800088B9094800F1A401FFF786FE58B107481C
:105A9000FFF7B6FF0648FFF7B3FFBDE8084002482E
:105AA0000449FFF7F1BE08BD1C0D0020BA770108BC
:105AB000C2770108CC770108F0B589B007460E46D9
:105AC00004A8234902F043FE684601F07BFE6946C4
:105AD00004A802F08DFE1F4902F097FE1E4C0146FD
:105AE00004F5A275284602F045FE684602F0EDFD79
:105AF00004A802F0EAFD04F2112128461E22002328
:105B000002F095FE04A801F05DFE04F50D7500237A
:105B100004A804F5FC71192202F089FE28464FF40E
:105B20007A710E4AC4F83072666001F09AF841F258
:105B300088310B4AC4F83403284601F092F8C4F8BF
:105B40003803FFF799FF04A802F0BFFD09B0F0BDCC
:105B5000D67701083D780108C80B0020795A000863
:105B6000495C0008F0B51D4C8DB000AF06460D46EF
:105B700007F1200004F5A27102F00BFE314607F197
:105B8000100002F0E4FD07F1100107F1200002F01F
:105B90002FFE0146384602F0FCFD07F1100002F02E
:105BA00094FD07F1200002F090FDBB68384603F138
:105BB000080222F00702ADEB020D69465A1C0023D1
:105BC00002F035FE69462A4604F5AA70FFF71FFE6B
:105BD000384602F07AFD3437BD46F0BDC80B0020D0
:105BE00010B5164C04F5AA70FFF763FE04F50D70AE
:105BF00001F053F804F5AA70FFF704FD70B104F545
:105C00000D70D4F8341301F09EF894F83C331BB9AE
:105C10000B480C49FFF7A6FF01230BE004F50D70BC
:105C2000D4F8341301F088F894F83C330BB163686E
:105C30009847002384F83C3310BD00BFC80B0020F8
:105C4000DB770108EA77010810B5084C4FF4FA61D8
:105C500004F50D70064A01F007F80649C4F8400340
:105C60000548BDE81040FFF77DBF00BFC80B00200E
:105C700051540008FF770108EE7701082DE9F04143
:105C800080460E4610461D491546FFF71FFC1C4C6A
:105C90000746D4F8381304F50D7001F043F804F505
:105CA0000D70D4F8401300F0E2FF40461549FFF7AD
:105CB0000DFC28B114481549BDE8F041FFF752BF6B
:105CC00030461349FFF702FC18B184F84473BDE86D
:105CD000F08130460F49FFF7F9FB68B128460E49BD
:105CE000FFF7F4FB40B108480C49FFF73BFF0123E5
:105CF0002370D4F830329847BDE8F081027801086B
:105D0000C80B002007780108DB770108EA77010853
:105D100017780108237801083378010836780108DC
:105D2000F8B50F4B00AF93F8443306460D46A3B1C8
:105D30000EF0F4FD0B3020F007006C46ADEB000DCB
:105D4000684608490EF08CFD684631460EF0E8FCC6
:105D500068462946FFF706FFA546BD46F8BD00BFC9
:105D6000C80B00203A78010810B50C4C052002F051
:105D7000E9F80021208801F0B3FF052002F0E2F8E5
:105D80002088012101F0ACFF054BD3F848233F2ABE
:105D9000DCBF0132C3F8482310BD00BF0000002063
:105DA000C80B002010B50C4C052002F0CBF80021E8
:105DB000A08801F095FF052002F0C4F8A088012119
:105DC00001F08EFF054BD3F84823002AC4BF02F12F
:105DD000FF32C3F8482310BD00000020C80B00208C
:105DE00010B56524FFF7DEFF0A2002F0ABF8013C96
:105DF000F8D1024BC3F8484310BD00BFC80B0020C8
:105E000038B5094B0546D3F84843A04205DD0134B7
:105E1000FFF7AAFFAC42FAD138BDAC4203D0FFF77E
:105E2000C1FF013CF9E738BDC80B002007B5094B9D
:105E3000094A93F84C13094B01A800290CBF1146DD
:105E400019460EF00DFD064801A9FFF78BFE03B0C1
:105E50005DF804FBC80B002043780108B67A0108FE
:105E60004778010807B5074B01A9D3F848030A2270
:105E700002F01FFC044801A9FFF774FE03B05DF8AF
:105E800004FB00BFC80B00205A78010808B50F4B6F
:105E90001B7A6BB13C2806D03E2816D1FFF764FF71
:105EA000FFF7E0FF08E0FFF77DFFFFF7DBFF06E00D
:105EB0003C2804D03E2808D10548064901E00448A2
:105EC0000549BDE80840FFF74DBE08BD00000020B1
:105ED0006E780108797801087C78010807B5FFF72A
:105EE000A5FFFFF7BFFF094B094A197A094B68461E
:105EF00000290CBF114619460EF0B2FC064869464F
:105F0000FFF730FE03B05DF804FB00BF0000002087
:105F100081780108027801088778010813B5114AD1
:105F2000114C527A00238DF804206946D4F85003AE
:105F30000A22ADF800308DF805308DF8063002F0F9
:105F4000B8FB0A2201A9D4F8540302F0B2FB694657
:105F50000648FFF707FE064801A9FFF703FE02B057
:105F600010BD00BF0C4D0108C80B0020A17801082E
:105F7000B578010807B5194B19485A7A00238DF8EE
:105F800000208DF804208DF801308DF802308DF856
:105F900005308DF8063000F099FD124B12490128AA
:105FA00008BF194601A80EF05BFC0D4800F08CFDFF
:105FB0000A22694602F07DFB01A90C48FFF7D2FDD9
:105FC00069460B48FFF7CEFD054800F07BFD014612
:105FD0000848FFF7C7FD03B05DF804FB0C4D01084E
:105FE000D00B0020B67A010843780108CA7801086E
:105FF000DB780108F078010838B50B4C0B4D04F143
:10600000080000F004FDA889012101F069FE28695B
:10601000FFF7F6FE012384F84C33FFF75FFFBDE87E
:106020003840FFF7A7BF00BFC80B002000000020CA
:1060300010B50B4C04F1080000F0FCFC0020FFF749
:10604000DFFE084B0021988901F04AFE002384F806
:106050004C33FFF743FFBDE81040FFF78BBF00BF95
:10606000C80B002000000020034B93F84C330BB109
:10607000FFF7DEBFFFF7C0BFC80B002008B5FFF772
:106080002DFFFFF777FFBDE80840FFF747BF00008F
:10609000F7B5314C002104F55675304E0B46009192
:1060A0000A46284602F0C6F932462D49284604F52C
:1060B00058750DF001FC284602F01CFD32462949B6
:1060C00028460DF0F9FB04F5A27704F50D7000F0F9
:1060D00079FD3846244902F03AFB324638462349D6
:1060E0000DF0EAFBC4F85451214B224DC4F8E831BD
:1060F00005F11403C4F8F03105F1200140F25B739F
:10610000A4F8F43104F108000EC900F05BFCEA6A5F
:10611000296BD4F87835C4F87C15C4F88025696BF0
:10612000AA6B04F5B560C4F8843500F097FEE96BFE
:1061300004F2D450022200F025FE296C04F5BE6062
:10614000022200F01FFE696C04F20C60022203B010
:10615000BDE8F04000F016BEC80B00207813002008
:106160003954000845540008447D0108CB860008D6
:10617000356700080000002070B510210646202277
:106180000F4802F069F80E4801F03AFF1F28FADDC7
:106190000A24102C0A4808BF002401F039FF06EB3E
:1061A00044050002A881064801F032FFAB89092CA2
:1061B00043EA0000A88101D00134EAE770BD00BFC6
:1061C000801E002070B5102106460C4802F058F8D9
:1061D000002433191D8A0948290A01F05FFF02349F
:1061E0000648E9B201F05AFF0C2CF2D1034802F044
:1061F000AFF8D0F1010038BF002070BD801E002034
:1062000070B50A2671430446A1F50855FFF7B4FF9F
:10621000638A2E3D23F4FF7395FBF6F523F001030B
:106220001D436FEA45456FEA554565822046FFF7F5
:10623000C9FF2046FFF7A0FF238C5A04F9D520465A
:10624000FFF79AFF638A2046C3F30E036382FFF7CA
:10625000B9FF2046FFF790FF238C5B04F9D470BD93
:1062600038B5054C0546294604F27C50FFF7C8FFB7
:10627000C4F8545338BD00BFC80B0020154B40F282
:106280008F30D3F85433834219D0B3F5647F08DAE2
:1062900040F26F3293420FD040F27D32934216D0DB
:1062A00013E040F2A93293420CD040F2CB32934239
:1062B0000BD140F2F5300AE040F27D3007E040F2C9
:1062C000A93004E040F2CB3001E040F26F30FFF73C
:1062D000C7BF00BFC80B0020264B70B593F84031F4
:1062E00004460D46244E5BB3B36C99420AD148284C
:1062F00004D0502806D12148214901E01F482149F6
:10630000FFF730FCF36C9D420AD1482C04D0502C8E
:1063100006D11D481A4901E01B481A49FFF722FC23
:10632000336D9D4224D1482C04D0502C20D11748E5
:10633000134901E015481349BDE87040FFF712BC4E
:10634000B36C994203D1502801D1FFF78DFEF36C55
:106350009D4204D1502C02D10D4800F0A8FB336DB2
:106360009D4205D1502C03D1BDE87040FFF786BF98
:1063700070BD00BFC80B002000000020017901089B
:1063800013790108197901081E790108307901088B
:10639000D00B002038B5134C134DFFF721FC04F14E
:1063A000080000F074FB04F5B56000F07EFD696D37
:1063B000FFF76CFD04F2D45000F004FDE96CFFF728
:1063C0008BFF04F5BE6000F0FDFCA96CFFF784FFB5
:1063D00004F20C6000F0F6FC296DBDE83840FFF7D0
:1063E0007BBF00BFC80B00200000002038B50C4662
:1063F0000546FFF7C1FE002C03DB0F2CA8BF0F24BE
:1064000000E00024EB8A284623F00F031C43EC82B3
:10641000BDE83840FFF7D6BE38B5054C05462946DD
:1064200004F27C50FFF7E2FFC4F8505338BD00BFC0
:10643000C80B00202DE9F341044618461D4690463E
:106440000DF048FA904906462846FFF73FF801A9A3
:106450000A220746404602F02CF98C4801A9FFF7B2
:106460005FFC20468A49FFF731F818B189488A490C
:10647000FFF778FB20468949FFF728F820B18848C4
:106480008149FFF76FFB50E120468649FFF71EF870
:1064900010B1854B1E6648E120468449FFF716F887
:1064A00010B1814B1F7240E120468149FFF70EF881
:1064B00020B18048314600F0C1FA36E120467E49DD
:1064C000FFF704F810B1FFF7D9FD2EE120467B4914
:1064D000FEF7FCFF10B1FFF701FD26E120467849E9
:1064E000FEF7F4FF10B1FFF7BDFC1EE12046754931
:1064F000FEF7ECFF10B1FFF73DFD16E120467249B3
:10650000FEF7E4FF10B1FFF709FD0EE120466F49E9
:10651000FEF7DCFF68B128466D49FEF7D7FF00287B
:1065200000F0A1806B4B93F84C33002B40F09B8024
:10653000A7E020466849FEF7C9FF002833D0284667
:106540006649FEF7C3FF10B1FFF70EFCEDE02846E9
:106550006349FEF7BBFF10B1FFF724FCE5E02846D6
:106560006049FEF7B3FF10B1FFF73AFCDDE02846C3
:106570005D49FEF7ABFF10B14B4B586E06E0284665
:106580005A49FEF7A3FF20B1474B986EFFF738FC3E
:10659000CBE028465649FEF799FF002800F0C58059
:1065A000414BD86EF2E720465249FEF78FFF08B103
:1065B0003046EBE720465049FEF788FF18B13046D9
:1065C000FFF72AFFB1E020464C49FEF77FFF98B164
:1065D00028464B49FEF77AFF10B1FFF74FFEA4E0C3
:1065E00028464849FEF772FF10B12F4B186E00E0A5
:1065F0003046FFF735FE98E020464349FEF766FF38
:1066000098B128463249FEF761FF18B1294800F0D9
:10661000FEF98AE028463D49FEF758FF002800F0C1
:106620008480244800F006FA7FE020463849FEF7CF
:106630004DFF18B11F4800F03AFA76E02046354980
:10664000FEF744FF20B11B48294600F041FA6CE0F8
:1066500020463149FEF73AFF002866D015483146FA
:1066600000F0EEF961E028462849FEF72FFF0028E8
:1066700054D0184B93F84C33002B4FD0FFF7D8FC75
:1066800053E0FFF7B9FC50E00278010843790108B4
:106690004F790108607901085800002070790108DD
:1066A000827901089379010800000020AF79010880
:1066B000C9790108D00B0020E1790108F4790108BB
:1066C000077A01081A7A01082D7A0108427A01082E
:1066D000B67A0108C80B0020567A010879780108BB
:1066E0007C7801086C7A01087B7B0108727A0108CA
:1066F000767A01087B7A01088E7A0108A37A01086C
:10670000B97A0108BE7A0108C47A01084378010801
:10671000D67A0108E67A0108F87A01082846044981
:10672000FEF7D4FE08B1FFF79FFC02B0BDE8F08190
:106730000E7B01082DE9F04F89B000AF80468A46F4
:10674000C7F80CD01546002A00F08780D31D23F02F
:106750000703ADEB030D0EF0E1F8073020F0070062
:106760006E46ADEB000D40460EF0D8F80730E94616
:1067700020F00700ADEB000D414648460EF070F8E2
:10678000514607F1100001F0E2FF6A1C07F110000A
:106790003146002302F04BF840462F210DF0E6FF72
:1067A0006C4683460025BBF1000F0CD00BF10100B5
:1067B0002F210DF0DBFF83461DB9204659460EF010
:1067C0004FF80135EFE720460EF0A8F8611C0246AD
:1067D00020460DF08DFCAA000A3222F007026B1E43
:1067E000ADEB020DBB60EA46EDB91E484946FFF726
:1067F00097FA1D482146FFF793FA1C483146FFF7E8
:106800008FFA334620465146BA68FFF713FE4846D2
:1068100021463246FFF732FA07F1100001F055FF2A
:10682000FB689D4619E0404611490EF04BF9584669
:106830000F490EF047F9E8460123AB42D5DA0C497F
:1068400000207B600EF03EF9014648F8040F09482D
:10685000FFF766FA7B680133EFE72437BD46BDE8F2
:10686000F08F00BF157B0108287B01083C7B0108E5
:10687000184D01084D7B010810B500210446008821
:1068800001F0B4F9A088002101F0B0F9A08800213E
:1068900001F026FA2088002101F022FA012001F0FF
:1068A00051FB0121208801F01BFA012001F04AFB75
:1068B000134801F019FC2046FFF75EFC4FF401433A
:1068C00063832046FFF77EFC4FF4FA7001F03AFB39
:1068D0002046FFF751FC44F201032382A38A20469D
:1068E00043F4C053A382E38A23F00F0343F0110360
:1068F000E382FFF767FCBDE810406E2001F022BB89
:10690000801E002038B52948294C4FF4165102F05A
:1069100039FB28482849FFF7CFF8B4F87000002168
:1069200001F064F92088002101F060F9A0880021BD
:1069300001F05CF9A089002101F058F9208E0021B6
:1069400001F054F92088002101F0CAF91B4DA088FC
:10695000002101F0C5F90121B4F8700001F0C0F97F
:1069600005F27C50FFF788FF606FFFF755FD206E42
:10697000FFF776FC4FF4FA7001F0E4FA2088012169
:1069800001F0AEF90835A088012101F0A9F92846E7
:10699000A16F00F053F82846E16F00F051F8284647
:1069A0000749BDE8384000F093B800BF50200020F0
:1069B000000000208D540008AD540008C80B0020D2
:1069C000B6770108F8B50446383015460E461F461E
:1069D00000F0F8F84FF4AF736560636300251E2381
:1069E000E362B0B229462660A760E5602561656173
:1069F000A561E561A56201F0F9F8A088294601F0DA
:106A0000F5F82089294601F0F1F82046F8BD012368
:106A10008361704710B500210446008801F0DCF95D
:106A2000A088002101F0D8F920890021BDE810409C
:106A300001F0D2B900228261FFF7ECBFC16270475A
:106A4000836970B5012B044681621CD102696423FD
:106A500092FBF3F201FB02F6426992FBF3F201FBB7
:106A600002F5C268008892FBF3F35943C9B201F002
:106A7000B3F9A088F1B201F0AFF92089E9B2BDE81D
:106A8000704001F0A9B970BD816AFFF7D9BF10B598
:106A90000446383000F001F9A369012B06D1E369FF
:106AA00023B92046BDE81040FFF7EEBF10BD826954
:106AB000012A06D1816A0129D4BFC16A4910FFF7B2
:106AC000BFBF7047406A7047806A704780697047EF
:106AD00038B504460D46616208462649FEF78EFB2E
:106AE00018B9FF23E3602361636128462249FEF75A
:106AF00085FB18B9FF23E3602061606128461F49C8
:106B0000FEF77CFB18B9FF23E06023616061284633
:106B10001B49FEF773FB18B9FF23E0602061636136
:106B200028461849FEF76AFB18B9FF23E060236185
:106B3000636128461449FEF761FB18B9FF23E3603F
:106B40002061636128461149FEF758FB18B9FF23FD
:106B5000E3602361606128460D49FEF74FFB20B9D1
:106B6000FF23E360A523236160612046BDE8384030
:106B7000FFF78ABF607B0108B6770108B07701088C
:106B8000667B01086B7B0108707B0108787B01083C
:106B90007F7B010813B5084C002100910A460B4683
:106BA000204601F047FC0549054A204602B0BDE8F1
:106BB00010400CF081BE00BFF011002039540008D5
:106BC0007813002038B5044601F0BAF923460021B5
:106BD0006518013100220A2985F8C82003F1040351
:106BE0005A6243F8040CC3F89C20F1D1C4F8FC208D
:106BF000204638BDD0F8FC30092B0ADC002300EB1E
:106C00008302926A1AB101330A2BF8D101E01846C7
:106C100070474FF0FF3070472DE9F04104460F46B2
:106C200016469846FFF7E6FF051E16DBAEB104EBED
:106C300085006319012207658662C0F8788083F8B1
:106C4000C82001F07DF944F82500D4F8FC3028462E
:106C50000133C4F8FC30BDE8F0814FF0FF30BDE8EF
:106C6000F0810023FFF7D8BF0123FFF7D5BF092923
:106C700010B511DCD0F8FC4074B100EB81039A6AC6
:106C800052B100220144013C9A6281F8C8201A6581
:106C9000C3F8A020C0F8FC4010BD70B5064601F056
:106CA0004FF906F1240300220021C3F8B01053F875
:106CB000041FE9B153F8281C9C6A451AA54217D352
:106CC000214443F8281CB11891F8C81081B1196DFE
:106CD00009B901210AE09C6F8C4209DA01252C4494
:106CE0008C42C3F8AC509C6702DB0221C3F8AC10A5
:106CF00001320A2AD8D134460025D4F8D430012BE9
:106D000008D0022B08D1A36A984730462946FFF7DE
:106D1000AEFF01E0A36A984701350A2D04F104048F
:106D2000EBD170BD092938B505460C4603DC01F0EE
:106D300007F945F8240038BD092903DC0144012383
:106D400081F8C8307047092903DC0144002381F829
:106D5000C830704713B5084C002100910A460B4615
:106D6000204601F067FB0549054A204602B0BDE810
:106D700010400CF0A1BD00BFF811002039540008EC
:106D800078130020F8B58EB204460D463046114601
:106D9000174600F02BFF4FF4FA620023022FE26047
:106DA0004FF001020CBF627263723046636025606F
:106DB0002374A3720CBF23722272617A00F090FFD9
:106DC0002046F8BD10B5044601F0BAF8606120888D
:106DD00000F0C8FFA27A6060237C4AB9B3B9217A77
:106DE000884213D10123A37201F0AAF8A0611AE02E
:106DF00063B9217A884209D1A369E2681A446369B8
:106E0000934210D901232374482010BD617A88422F
:106E100009D10AB92D2002E0002BFBD1502000231C
:106E2000A372237410BD2D2010BD000013B5084CB3
:106E3000002100910A460B46204601F0FBFA054965
:106E4000054A204602B0BDE810400CF035BD00BF39
:106E50000012002039540008781300202DE9F04179
:106E600015461FFA81F804460E464046AFB202218D
:106E700000F0BCFE3846022100F0B8FE4046012179
:106E800000F02EFF3846012100F02AFF0123E360C5
:106E900023616361A36100236660A560E3612362EF
:106EA0006362A3622046BDE8F081002310B504466A
:106EB0000370808800F056FFE060208900F052FFE8
:106EC000E36862692061934202D1A26990423CD09A
:106ED000012B6361A06106D1012801D1002309E0E3
:106EE00048B9032306E033B9012801D1E06102E08B
:106EF00008B90223E361E369226A23629A1A82EAEB
:106F0000E271A1EBE271022962620DD0012A01D087
:106F1000D01C02D1A26A013205E0511C01D0032A23
:106F200002D1A26A013AA2627BB9A26A002A04DDF8
:106F3000A362012323703E2010BD04D001222270E1
:106F4000A3623C2010BD2370A3622D2010BD000061
:106F500013B5084C002100910A460B46204601F06B
:106F600069FA0549054A204602B0BDE810400CF018
:106F7000A3BC00BF08120020395400087813002079
:106F8000013101EB420291420BD0030F092B94BF58
:106F90003033373301F8013C0023000101F8023B94
:106FA000F1E770471F4B10B51A88032A04D8042054
:106FB0000146188006F0EEFB4FF000604FF4A04150
:106FC00006F0DEFB0124184B184821461C7006F021
:106FD000EDFD05F095FC05F06BF92146402006F02B
:106FE000AFFF6FF07F4005F0E5FAE72005F05EFBAC
:106FF0000F4B1C7005F0A6F97D2006F0D1FF18B1EB
:107000000C4B1C7006F0E0FF40F6B83005F003FAB8
:1070100005F04CFF06F0BCF9074A01231370074A3C
:10702000137010BD482100202821002000043000EA
:107030007C200020EC2A0020EC200020A82000204A
:1070400038B52F4C2388042B04D805210420218037
:1070500006F0A0FB2B4D2B7813B12B4802F078F9EA
:107060002B7853B12388052B05D8254B0621042006
:10707000198006F08FFB02F0FFF92B7863B1234BE8
:107080001B784BB9224B1B7833B1224B1B781BB9B1
:10709000214B1B78002BE3D0204B1B78002BDFD13A
:1070A0001F4B1B78002BDBD11B4B1B78012B0FD008
:1070B0001C4B6BB12388062B05D8114B07210420EC
:1070C000198006F067FBFFF71DFC134B01221A70B5
:1070D000154B002BC4D02388072B05D8084B08215B
:1070E0000420198006F056FBFFF754F92388082B7B
:1070F000B6D8034B09210420198006F04BFBAFE7FB
:1071000048210020EC200020F5780008A120002074
:10711000A82000207A200020101200207B200020D0
:10712000EC2A00200569000895630008F8B5524B69
:107130001A6812B11A68013A1A60504B504D1B7808
:107140003BB1504B1B78002B28D04F4B002B47D125
:1071500024E04E4C2368264613B12368013B0FE020
:107160004B4B1B78D3B94B4B1B78BBB94A4B1B78A5
:10717000A3B94A4F3B782BB1E72005F00BFB142352
:1071800023600BE02B78002B2DD1E72005F0BCFA13
:10719000434B1B78002B34D0322333602B7833B130
:1071A000404C23781BB92EE05A6801325A603E4B9E
:1071B0001A68B2F57A7F0FD300221A6006F01EFE1D
:1071C0003A4B4FF6FF711A888A4254D01980042036
:1071D000BDE8F84006F0DEBA1A6801321A60F8BD60
:1071E00000F0D0FBDAE7324B1B78002BCDD04FF606
:1071F000FF7005F0DFF9E72005F058FA01233B7036
:10720000CCE76423C9E7234B1B788BB1294B47F2AA
:107210002F5259689142C7D9BFF34F8F264A274B47
:10722000D16801F4E0610B43D360BFF34F8FFEE7F9
:10723000174D2B7803F0FF0633B9304605F0B2FB4B
:1072400040F6B73398420DD8002005F0ABFB41F66D
:1072500057339842ABD9002005F0ACFB184B012204
:107260001A70A4E7304605F0A5FB2378002B9ED1C9
:1072700001232B709BE7F8BDF42A00200821002091
:10728000EC200020AC15002085790008F02A0020B1
:10729000912000207B2000207D2000207C200020E9
:1072A00079200020A1200020F82A00204821002079
:1072B0007A2000201012002000ED00E00400FA0502
:1072C0008F20002008B5094B186005F095FD0020BF
:1072D00005F0DEFD064805F00FF805F0A5FD05F008
:1072E000C3FDBDE8084007F057BD00BF680200209D
:1072F000A0860100074B1B68052B08D1064B1A7AA4
:10730000012A04D1987A1B7BC01AC0B270470020B2
:10731000704700BF4C210020101200200D4B10B50B
:107320001B68052B13D10C4C237A012B0FD16289DA
:10733000A389D31A012B04D100230320237207F061
:1073400082FEA3895A1CA2811C44A07B10BD4FF071
:10735000FF3010BD4C2100201012002008B50C4B4E
:107360001B68052B12D10B4B1A6D99180132B2F51F
:10737000807F08BF002281F854001A6505F00AFCDE
:1073800020B16420BDE8084004F0B6BF08BD00BFCE
:107390004C21002010120020F8B5234B93F8542103
:1073A000012A3FD0D3F85821196DB2F5807F04BF70
:1073B0000022C3F85821D3F858411B4A8C4203D10C
:1073C000002382F85431F8BD8CBFC4F58071C4EB42
:1073D0000101C2F85C11D3F85C61134D402EA2B2DA
:1073E00007D94034403EC5F85841C5F85C61402794
:1073F00006E034440021B7B2C5F85841C5F85C1125
:107400000A4801241044C0213A4683F8544107F049
:1074100095FD2046394607F099FE2046BDE8F84024
:1074200007F0FEBDF8BD00BF10120020641200205E
:10743000094B10B593E8140008331B68D0180AD024
:1074400006490822FFF79CFD204605490422BDE8B5
:107450001040FFF795BD10BDE8F7FF1F1702002091
:107460002702002013B5084C002100910A460B4664
:10747000204600F0DFFF0549054A204602B0BDE87E
:1074800010400CF019BA00BF7013002039540008E6
:107490007813002038B504460D46AC4203D254F8A8
:1074A000043B9847F9E738BD08B507480749FFF797
:1074B000F1FF07480749FFF7EDFFBDE80840064820
:1074C0000649FFF7E7BF00BF107F0108107F0108E2
:1074D000107F0108747F0108747F0108747F010820
:1074E0000CF02EBB08B5072006F076F8FEE700008A
:1074F000074A08B5136818441060064A904204D938
:10750000082006F069F80CF0DDF9184608BD00BF48
:107510009C000020004800204FF0FF307047012001
:10752000704708B50C2006F057F8FEE7014B1868C5
:10753000704700BF7C130020064B0246582000FB1A
:10754000013101F1080303CB1060516018689060AD
:10755000704700BF7C130020014BD3F864017047D3
:107560007C130020064B0246142000FB013101F57C
:10757000B67303CB1060516018689060704700BF0D
:107580007C13002038B50546064C28B105F0B4F848
:10759000012384F8303238BD05F05CF884F83052AD
:1075A00038BD00BF7C1300200E4B2DE9F041D3F80D
:1075B000647180460024BC4211DA14256543094EEB
:1075C000414606F5B67028440C220DF0D7F920B9D3
:1075D0003544D5F86801BDE8F0810134EBE70020BF
:1075E000BDE8F0817C130020044B01221A70044B8B
:1075F00000224FF4C0201A6005F0BEBC7B200020A2
:1076000014120020034A00231370034A136005F08C
:1076100017BD00BF7B20002014120020024B002267
:107620001A6005F0CFBC00BF141200202DE9F0470E
:1076300088B0804668460D4601F089F81E4B00244C
:10764000D3F800A054452DDA55B3582666431A4F97
:10765000414607F1080030440C2207F104090DF0FF
:107660008DF9E8B928460DF059F906F110034028C4
:1076700034BF02464022294609EB0300FDF748FDCE
:107680003E44012386F85830694604A8746801F026
:1076900080F804A8A047044604A801F016F803E007
:1076A0000134CFE74FF0FF34684601F00EF8204672
:1076B00008B0BDE8F08700BF7C13002010B5064C71
:1076C000206803F00BF92368013303D0431E5842AE
:1076D000584110BD012010BDA000002070B50B4B1B
:1076E00005461B780C4673B9094B1B785BB9FFF74D
:1076F000E5FF034638B9074A294610682246BDE827
:10770000704004F0A5B84FF0FF3070BDA0200020FD
:10771000A1200020A00000202DE9F041264B86B0DA
:107720001B7880460F46002B41D1244B1B78002B41
:107730003DD1FFF7C3FF0446002838D1204D8DF816
:107740000C008DF80D008DF80E008DF80F002868E4
:1077500006AA460902EB8606012100F01F029140AD
:1077600056F80C2C01300A4346F80C2C41F28832B2
:10777000059204AA009203A922462346049403F02A
:1077800049FF002815DD2B6806AA590902EB810183
:1077900051F80C5C03F01F02154115F0010008D0F0
:1077A000184641463A46234603F0D4FF01E04FF025
:1077B000FF3006B0BDE8F081A0200020A12000200D
:1077C000A0000020F0B5144985B0064600F0BFFFC8
:1077D000124B01AC93E8070084E807000025675DC1
:1077E00030463B0903F13001392984BF03F15701C9
:1077F000C9B207F00F0700F0EEFF07F13001392999
:1078000084BF5737F9B23046013500F0E4FF0C2D44
:10781000E5D1304605B0F0BD447D0108E8F7FF1F13
:1078200030B51E48ADF5797D07F0FBFC002832D15C
:107830001B4B15A804931B4B5FAD05931A4B03908C
:1078400006931A4B0CAC0793194B02950893194BEE
:107850000993194B0A93194B0B93194B0C93194B22
:107860000D93194B0E93194B0F93194B1093194B02
:107870001193194B1293194B1393194B149305F051
:1078800025FC284605F028FC00940448154902AA66
:1078900004AB07F0CDFC0DF5797D30BDB0150020AF
:1078A000DD76000819770008E975000805760008FC
:1078B00009D100081D76000885750008417F000881
:1078C0002D750008397500082D76000859750008D7
:1078D00065750008917B0008A9750008E5D00008CF
:1078E000F9D00008E8F7FF1F014808F0D2BA00BF3E
:1078F000B015002030B502208DB00146112203F0F2
:10790000CFFD051E28DB07A8144907F0B4FD0223AC
:10791000ADF80C3016238DF80E3033238DF80F3070
:10792000E0238DF8103000238DF8113001238DF8FD
:107930001230BB238DF81330032403AB00931023C4
:107940000193284607A91322002303F08BFF013C73
:10795000F3D1284603F0D2FD0DB030BDE8F7FF1F8C
:1079600010B5074CFFF75CFF204607F05DFC204692
:1079700007F0D1FF0446FFF7BDFF204610BD00BF52
:10798000B015002038B5114CD4F8445A2DB1D4F8B4
:10799000443A013BC4F8443A38BDD4F8483A0C4A5A
:1079A00052F8230004F02EFEE72004F07FFE64234B
:1079B000084AC4F8443AD4F8483A5268013393422A
:1079C000C4F8483AA8BFC4F8485A38BD7C13002010
:1079D0001C4D0108A00000207FB5022001210622D5
:1079E00003F05EFD041E24DB0223ADF8003000230B
:1079F0008DF8023035238DF803304FF4FA50082308
:107A00008DF804308DF805308DF806308DF807308C
:107A100001F096FC694610220546204603F0CCFD95
:107A20000646284601F08CFC204603F067FD3046F0
:107A300001E04FF0FF3004B070BD000010B5064CFF
:107A40002068002805DB03F059FD4FF0FF33236069
:107A500010BD002010BD00BFA0000020F0B5A7B0F1
:107A6000FFF7ECFF02200121062203F019FD324F3F
:107A70000028386050DB314D0223A5F84C3A16231C
:107A800085F84E3A05A8332385F84F3A05F0EAFA0F
:107A9000002300939DF814303BB1012B17D0284BE5
:107AA00001AC03F1100E224602E0069B009313E0A6
:107AB00018685968264603C6083373453446F7D11B
:107AC0000FCA06AC07C424F8023B1B0C23700A241F
:107AD000009B0BB9013C22D1009B0BB9194B0093C1
:107AE000009B4FF4FA501A0E85F8502A1A0C85F8AC
:107AF000512A1A0A85F8533A85F8522A01F020FCD7
:107B0000114904461022386803F056FD0546204608
:107B100001F016FC28460CE04FF0FF3009E006A803
:107B20007E210CF0B7FF6A4681B206A803F00CFD77
:107B3000CEE727B0F0BD00BFA00000207C130020DE
:107B4000867B010804E5D036C81D00200F4B2DE9C7
:107B5000F041D3F8647180460024BC4211DA142548
:107B600065430A4E414606F5B67028440C220CF0D7
:107B700005FF20B9354495F87801BDE8F08101345E
:107B8000EBE74FF0FF30BDE8F08100BF7C13002031
:107B900008B5FFF7DBFF0138082803D8024B18446B
:107BA000007F08BD022008BD1C4D010803F004BD84
:107BB00037B50B4C002104F65C250B4600910A46B4
:107BC000284600F037FC28460649074A0BF074FEA9
:107BD00004F50D7003B0BDE8304007F00DBB00BFE9
:107BE0007C130020395400087813002014282DE954
:107BF000F34104460E4669D8FF2967D000F0ECFC3B
:107C000020B1A4F10D039BB2022B5FD900F0A6FBBB
:107C100008B1012C5AD901F04DF920B1A4F1120399
:107C20009BB2012B52D92B4D24012B192F59B3F89C
:107C30000480294B9F4201D1042003E0274B9F423F
:107C400003D10820012106F087F9ADF80480062E43
:107C500038D8DFE806F0040D13191F28310010236F
:107C60008DF8073003238DF806302C44002328E0DC
:107C700004238DF807302C44012322E048238DF89B
:107C800007302C4402231CE028238DF807302C44B5
:107C9000032316E018238DF8073003238DF80630F0
:107CA0002C4404230DE01C238DF8073003238DF8AA
:107CB00006302C44052304E000238DF807302C44C3
:107CC0000623A373384601A905F018FF02B0BDE8EA
:107CD000F08100BFA800002000080140000C014016
:107CE0001428F8B505460F4638D81D4E040133193F
:107CF0009B7B5A1ED2B2022A30D9062B2ED0FF2BE4
:107D00002CD000F069FC28B1A5F10D039BB2022B29
:107D100000D8F8BD00F022FB10B1012D00D8F8BD4D
:107D200001F0C8F828B1A5F112039BB2012B00D8CD
:107D3000F8BD33199B7B042B03D128460021FFF7A4
:107D400055FF012F04D13219335992881A61F8BDB9
:107D500027B93219335992885A61F8BDF8BD00BF6E
:107D6000A8000020142870B5044602D94FF0FF3057
:107D700070BD184E050173199B7B013BDBB2FD2BD7
:107D8000F4D800F029FC20B1A4F10D039BB2022B22
:107D9000ECD900F0E3FA08B1012CE7D901F08AF838
:107DA00020B1A4F112039BB2012BDFD973199B7B85
:107DB000062B09D1074B93F850114B1EDBB2FD2B5C
:107DC000D4D82046FFF712FF73197059998805F02F
:107DD000E3FE70BDA80000202DE9F043142889B00F
:107DE0000446884600F29E80504F0601BB199B68EE
:107DF000002B00F0978000F0EFFB28B1A4F10D03F9
:107E00009BB2022B40F28E8000F0A8FA10B1012C38
:107E100040F2888001F04EF820B1A4F112039BB229
:107E2000012B7FD9BD19AB7B13F0FB0F7AD1404BEF
:107E300001201A683F4B0146B2FBF3F94BF6803341
:107E400003FB08F8FF2398FBF3F806F085F82046BB
:107E50000421FFF7CBFEAB6809F1FF39B3F1804F86
:107E60001FFA89F91FFA88F802D10120014609E0BA
:107E7000314A934208BF022003D0304A934203D1D3
:107E80000420012106F074F8BC1900254BF67F335D
:107E9000A06801A9ADF80830ADF80A50ADF8065059
:107EA000ADF8049006F05CF96023ADF81850A58990
:107EB000ADF810300123ADF81230ADF8168045B999
:107EC000A06804A906F096F9A068082106F0D2FA85
:107ED0001FE0042D08D1A06804A906F0CFF9A0681E
:107EE000082106F0CFFA14E0082D08D1A06804A9F3
:107EF00006F008FAA068294606F0CEFA09E00C2D33
:107F000007D1A06804A906F03FFAA068082106F08E
:107F1000CBFA3E44B068012106F0A0FAB068012116
:107F200006F079FA09B0BDE8F08300BFA800002090
:107F30005803002000366E01000400400008004095
:107F400005F01CB930B54FF47A7385B01C4C009322
:107F5000236805460344236005F010F9019005F0FD
:107F60004DFF05F00BF90290029A019BD31A03937F
:107F7000039B002B03DA019B029A13440393039B98
:107F8000AB421AD20F4B1B78002BE8D00E4B1B785C
:107F9000002BE4D1039A009B9A4203D22368B3F5E5
:107FA0007A7FDCD3039B03F57A73009301F064FAC4
:107FB000064B1B78002BF9D1D1E705B030BD00BFCF
:107FC0009C200020EC200020A12000207B2000200D
:107FD00013B5084C002100910A460B46204600F0DC
:107FE00029FA0549054A204602B0BDE810400BF0C9
:107FF00063BC00BF0C1E0020395400087813002019
:10800000024B18785B78C01A704700BF141E00201E
:10801000064B5A781978914204D999180132887818
:108020005A7070474FF0FF30704700BF141E002099
:10803000054B5A781978914202D9134498787047C1
:108040004FF0FF30704700BF141E00207047000043
:10805000014B0360704700BF904D010810B5034B02
:1080600004460360FFF73CFA204610BD904D01081E
:10807000F8B5094B054693F82230164653B10C4625
:108080008F18BC4206D02B6828469B6814F8011B49
:108090009847F6E73046F8BD141E002010B50C4B8B
:1080A000012293F822408CB193F823401F2C02D96F
:1080B0004260002010BD93F824001C1884F825109D
:1080C000411CC9B283F8241083F82310104610BD58
:1080D000141E0020002242604FF47A728260014A2E
:1080E00002607047504D010838B51C4C00254FF414
:1080F000001001216570257084F8245084F8235005
:1081000005F036FF01200521FFF770FD2846052107
:10811000FFF76CFD124805F08FFD4BF6FF73A4F8D6
:108120004E3094F85830A4F84C500BB9A4F85030A5
:108130004FF48063A4F852304FF48043A4F85430D5
:10814000084B07480849A36405F090FD0448012145
:1081500005F0FAFD012384F8593038BD141E0020C3
:1081600000540040A08601005C1E00202DE9F84369
:1081700033480C46012190461F4605F0F1FDFFF7FC
:10818000DFFE05462E482F4905F01AFE28B9FFF7F5
:10819000D7FE401B0A28F5D927E0214628480122AE
:1081A00005F007FEFFF7CCFE04462548264905F0FA
:1081B00007FE28B9FFF7C4FE001B0A28F5D914E012
:1081C000FFF7BEFEB8F1200F28BF4FF0200806468B
:1081D0000024E5B2C5EB080313F0FF0908D0FFF750
:1081E000AFFE801B09280ED902E00020BDE8F8830D
:1081F0001348012105F0CCFD144B00225A701D706C
:108200002846BDE8F883B9F1010F09D1012F07D144
:108210000B48002105F0BCFD0948394605F0ACFDCE
:1082200007480B4905F0CCFD0028D8D0044805F0DC
:10823000BDFD084B1855FFF783FE01340646C8E71D
:10824000005400400100030002000300141E00203F
:1082500040000300161E0020C9B2D2B20123FFF76E
:1082600085BF0000054B012283F82220002283F8FD
:108270005A1083F8242083F823207047141E00200E
:10828000C9B2FFF7EFBF00002DE9F0412A480E46C2
:10829000012105F065FDFFF753FE044626482749F6
:1082A00005F08EFD38B9FFF74BFE001B0A28F5D903
:1082B0000420BDE8F081224C1F4894F85A10002297
:1082C00005F077FDFFF73CFE05461B481D4905F00C
:1082D00077FD28B9FFF734FE401B0A28F5D9E7E7F8
:1082E00094F823700025EBB29F4215D0164B12482C
:1082F000595D05F059FDFFF723FE80460E481349EE
:1083000005F05EFD30B9FFF71BFEC8EB00000A2840
:10831000F4D9CDE70135E6E7012E03D10648314611
:1083200005F02AFD002084F8240084F8230084F856
:108330002200BDE8F08100BF0054004001000300AE
:10834000141E002082000700391E00208400070050
:108350000121FFF799BF704770470000014B93F868
:1083600059007047141E002073B50E4C002104F113
:1083700064050D4E0B4600910A46284600F05AF857
:108380006C343246094928460BF096FA2046FFF72E
:10839000A1FE07492046324602B0BDE870400BF00E
:1083A0008BBA00BF141E0020781300203954000837
:1083B0005180000808B5034B53F8203003B19847AB
:1083C00008BD00BF901E002013B5084C002100918D
:1083D0000A460B46204600F02DF80549054A20467E
:1083E00002B0BDE810400BF067BA00BFD01E0020FD
:1083F00039540008781300202DE9F0410024074685
:108400000E4625463B1919790A22304600F0B2F88B
:108410002E218046304600F07EF801344044032C83
:108420000544EFD13046F9790A2200F0A3F8284438
:10843000BDE8F08130B58371034D9DF80C300560C7
:1084400001714271C37130BD784D0108024A02606A
:108450000A684260704700BF784D01080548064B26
:1084600006490360064A0023037143718371C37197
:108470000BF022BAD81E0020784D010839540008AC
:108480007813002013B5084C002100910A460B46D2
:108490002046FFF7CFFF0549054A204602B0BDE858
:1084A00010400BF009BA00BFE01E0020395400084C
:1084B00078130020014B0360704700BF904D010806
:1084C000F8B506460C468F180025BC4207D0336825
:1084D00030469B6814F8011B98470544F5E7284689
:1084E000F8BD000010B5034B04460360FEF7F8FF2B
:1084F000204610BD904D010838B505460C4608468B
:1085000041B10CF00BFA2B680246DB682846214685
:10851000984738BD38BD08B503689B68984708BDC3
:1085200030B500238BB08DF82430012A98BF0A2281
:108530000DF12304B1FBF2F303FB1211CDB2092DAF
:1085400094BF30353735EDB2214604F801590BB1EF
:108550001946EFE7FFF7D0FF0BB030BD10B522B9D9
:108560000268C9B29268904710BDD2B2BDE810400F
:10857000FFF7D6BFFFF7F2BF13B5084C00210091FB
:108580000A460B462046FFF755FF0549054A204697
:1085900002B0BDE810400BF08FB900BFF01E002004
:1085A000395400087813002013B5084C00210091BD
:1085B0000A460B462046FFF73DFF0549054A20467F
:1085C00002B0BDE810400BF077B900BFF81E0020E4
:1085D0003954000878130020014B587D704700BFC4
:1085E000001F00207047000013B5084C00210091C7
:1085F0000A460B462046FFF71DFF0549054A20465F
:1086000002B0BDE810400BF057B900BF181F0020A2
:10861000395400087813002013B5084C002100914C
:108620000A460B462046FFF705FF0549054A204646
:1086300002B0BDE810400BF03FB900BF241F00207E
:10864000395400087813002010B504460CF066F980
:10865000013823462044834206D21A78017803F871
:10866000011B00F80129F6E710BD38B5931EDBB2F7
:10867000222B0C461BD8A8B10B46B0FBF2F102FB33
:108680001100C5B2092803F8015BD4BF3035573556
:1086900003F8015C09B10846EFE719702046FFF7BF
:1086A000D3FF02E030230B704870204638BD002015
:1086B00038BD031E10B50C4603DA2D2001F8010B5E
:1086C0005842FFF7D2FF204610BD10B5044600689F
:1086D0000BF036FA204610BD10B50446006808B10C
:1086E0000BF02EFA00232360A360636010BD38B541
:1086F00004460D46006801310BF0CEFD10B184E850
:108700002100012038BD036810B5044613B1436849
:108710008B4207D22046FFF7EAFF20B1A3680BB9CE
:1087200022681370012010BD70B50E461146044634
:108730001546FFF7E8FF18B92046FFF7CDFF04E024
:10874000A560206831460CF08BF8204670BD38B526
:108750000023044603604360836003730D4639B110
:1087600008460CF0DBF8294602462046FFF7DCFFFE
:10877000204638BD884210B50B46044607D009682C
:1087800019B19A68FFF7D0FF01E0FFF7A5FF204677
:1087900010BD10B50023044603604360836003737B
:1087A000FFF7E8FF204610BD70B5044685680E4609
:1087B00009B9002070BD62B115442946FFF7A3FF37
:1087C0000028F6D02068A368314618440CF048F819
:1087D000A560012070BD07B500238DF804100122AB
:1087E00001A98DF80530FFF7DFFF03B05DF804FB4A
:1087F0000B4610B509689A680446FFF7D5FF10B913
:108800002046FFF769FF204610BD38B504460D46E7
:1088100041B108460CF082F8294602462046FFF78F
:10882000C3FF10B92046FFF757FF204638BD38B5C3
:108830000C469AB191B181688B4202D30023237018
:1088400038BDC91A551E8D4228BF0D4601682A46FB
:10885000194420460CF0ECF80023635538BD13B5DD
:10886000026802AB03F8011DD46819460122A04733
:1088700002B010BD10B5B0F81622B0F8143204469C
:108880009A4207D0B4F814325A1CA4F814221C449B
:10889000207D10BD03681B6998470028F2D14FF076
:1088A000FF3010BD10B5B0F81622B0F814320446EF
:1088B0009A4204D0B4F814321C44207D10BD0368E1
:1088C0001B6998470028F5D14FF0FF3010BD0023F9
:1088D000A0F81432A0F816327047F8B51746B0F871
:1088E0001432B0F8162204469A420E4606D10368A6
:1088F0001B69984710B94FF0FF3512E0B4F81432F5
:10890000B4F81652E118ED1ABD4228BF3D46304674
:1089100014312A46FCF7FCFBB4F814322B44A4F8BB
:1089200014322846F8BD10B504460069082801D065
:1089300002F0E4FD0823236110BD30B5B0F8163213
:1089400087B0044633B1B0F814229A4202D10368CA
:10895000DB69984700F040FB022838D120690828DD
:1089600035D0B4F81632B3F5007F30D2430906AAE9
:1089700002EB8303012100F01F02914000258DF8D6
:108980000C508DF80D508DF80E508DF80F5053F897
:108990000C2C01300A4343F80C2C41F28833059328
:1089A00004AB009303A92A462B46049502F032FE3D
:1089B000A8420CDD206906AB420903EB820252F8A3
:1089C0000C2C00F01F0342FA03F3DB0706D4B4F8C3
:1089D0001602B4F81432C01A07B030BDB4F816222B
:1089E0002B46A1181431C2F5007202F0B3FE002824
:1089F000EDDDB4F816320BB9A4F814320344A4F830
:108A00001632E4E7F0B585B004460D46164600F090
:108A1000E3FA0228074634D10121062202F040FD84
:108A2000002820612DDB23682046DB699847330A44
:108A30008DF802302B794FF4FA508DF804306B79B1
:108A40008DF803608DF80530AB79ADF800708DF8C6
:108A50000630EB798DF8073000F072FC6946054668
:108A600010222069FFF7A2F80646284600F068FCAD
:108A7000002E04DA23682046DB6A984701E00120D3
:108A800000E0002005B0F0BD2DE9F04188B00646B9
:108A90000F46904600F0A0FA02284FF0000422D1C1
:108AA00008AD384645F8144D0BF038FF2A4681B220
:108AB000384602F049FDA04215DD039B04A8DAB256
:108AC0000092190EC3F30742C3F30723FFF7B2FC6A
:108AD000336830461C6A064B06A90693059B42463E
:108AE0000793A04700E0204608B0BDE8F08100BF32
:108AF000784D01084FF47A718160054900220160C8
:108B0000082142600161A0F81422A0F816227047E3
:108B1000A84D0108036910B5082B044601D10020B7
:108B200010BD00F059FA0228F9D1206901F0D6FEF3
:108B3000D0F1010038BF002010BD70B504460E46CC
:108B40001546FFF7E7FF38B1206931462A46002372
:108B5000BDE8704002F07CBE4FF0FF3070BD38B50C
:108B60000446FFF7D7FF01281BD0B4F81622B4F84B
:108B700014329A4217D12069082803D001F0AEFEC2
:108B8000012801D000250FE0236820461B69984783
:108B9000051C18BF01253DB923682046DB6A9847AC
:108BA00002E0054600E00125284638BD08B5FFF77C
:108BB000B1FF003018BF012008BD000013B5084CFC
:108BC000002100910A460B462046FFF733FC054979
:108BD000054A204602B0BDE810400AF06DBE00BF55
:108BE0002C1F0020395400087813002013B5084CBE
:108BF000002100910A460B462046FFF71BFC054961
:108C0000054A204602B0BDE810400AF055BE00BF3C
:108C1000341F0020395400087813002038B5184C50
:108C200094F92C305BB394F82D3043B305F0F4F98C
:108C300094F82C2094F82D5051B2002995FBF1F1B5
:108C400006DD01290BDC013A84F82C20002307E023
:108C5000013104DB013284F82C20022300E00123DF
:108C600094F82D20013A84F82D20C41805F008FA54
:108C7000204605F0E5F9BDE8384005F001BA38BDF9
:108C80003C1F002013B5084C002100910A460B46FA
:108C90002046FFF7CFFB0549054A204602B0BDE854
:108CA00010400AF009BE00BF6C1F002039540008B4
:108CB0007813002013B5084C002100910A460B469A
:108CC0002046FFF7B7FB0549054A204602B0BDE83C
:108CD00010400AF0F1BD00BF781F00203954000891
:108CE00078130020014B0360704700BF904D0108CE
:108CF0000369186C5B6CC01A00F03F007047036991
:108D0000196C5A6C914202D05A6C985C70474FF0C3
:108D1000FF3070470369196C5A6C914207D05A6C46
:108D2000985C5A6C013202F03F025A6470474FF06F
:108D3000FF30704710B5034B04460360FEF7D0FBCD
:108D4000204610BD904D0108436910B50446196CCA
:108D50005A6C9142FBD1237E13B90023237610BDB8
:108D60000348402105F0D9FB0028F6D1F3E700BF06
:108D70000044004070B504460E462C4840F227716E
:108D800005F0D1FB20B963691A6C5B6C9A4211D172
:108D900063691D6C013505F03F0563695A6C9542A6
:108DA0000FD0EFF31082D20732D5196C5A6C914272
:108DB00007D12DE01D4840F22771012205F08DFBFF
:108DC000E6E71A4840F2277105F0ADFB0028E4D031
:108DD0001648802105F0A1FB0028DED0134840F2A0
:108DE0002771002205F079FB636910485A6C511C09
:108DF0005964995C05F089FB63690C485A6C40F230
:108E0000277102F03F025A64012205F066FBC4E7B5
:108E10001A6C06489E54636940F227711D6401254F
:108E200025762A4605F059FB284670BD00440040CF
:108E300010B51E4840F2255105F075FB78B11B486E
:108E400005F067FB1A4BC0B25A6D996D013202F002
:108E50003F028A4203D0596D5A6519440875134878
:108E600040F2277105F05FFBF8B1114CD4F89C205B
:108E7000D4F8A0309A4207D1BDE810400B4840F228
:108E80002771002205F029BBD4F8A03007485A1CEE
:108E9000234493F85C10C4F8A02005F036FBD4F806
:108EA000A03003F03F03C4F8A03010BD00440040E0
:108EB000801F0020014B187C704700BF801F0020DE
:108EC000F7B5164C002504F1A406154F2B4629468C
:108ED0002A4600953046FFF7ADFA3A46304611492A
:108EE0000AF0EAFC4FF47A73C4F8B4300E4B0F4921
:108EF000C4F8AC3004F11403C4F8BC3004F1AC0085
:108F000004F15C033A46C4F8B050C4F8C03084F8A9
:108F1000C45003B0BDE8F0400AF0CEBC801F002072
:108F20007813002039540008E84D0108E58C00084A
:108F300070474FF0FF307047014B0360704700BF30
:108F4000904D010810B5034B04460360FEF7C8FAC4
:108F5000204610BD904D0108FEF7E0B908B5FEF7B8
:108F6000C9F908BD08B50846FEF7F8F9012008BDA3
:108F7000002242604FF47A728260014A02607047B8
:108F8000104E01080846FEF79DB9000037B50D4C9C
:108F900000210D4D0B4600910A462046FFF74AFA84
:108FA0002A460A49204608340AF086FC2046FFF784
:108FB000DFFF074920462A4603B0BDE830400AF0EB
:108FC0007BBC00BF482000207813002039540008E3
:108FD000398F000870470000054B1B7803F0FF0035
:108FE0002BB1044B1B78002B14BF022001207047CB
:108FF000902000207820002037B50B4C00210B4D2D
:109000000B4600910A462046FFF714FA2A462046EE
:1090100007490AF051FC074904F108002A4603B049
:10902000BDE830400AF048BC6020002078130020E2
:1090300039540008D58F0008002303601846704794
:1090400000230360184670470023036018467047EA
:109050002DE9F0410B7886B0002B0C4614BF9046EA
:109060004FF0000806460BF059FC074620460BF06F
:1090700055FC182301931E23012502930223039319
:10908000059000950494404631463A46002302F08C
:109090001DFD034B18705D7006B0BDE8F08100BF88
:1090A0006C20002048F20202904210B524D006DC69
:1090B00099284DD048F20102904213D010BD48F2D9
:1090C0008002904207D0B0F5084F45D048F2100218
:1090D000904252D129E0294B01229A70DA70002285
:1090E0001A7110BD254C01236371FEF729FF00F5AD
:1090F000EA403030A06010BD204C637963B1FEF7C8
:109100001FFF00F5EA403030A0604FF47F4003F0CD
:1091100051FAE72003F0CAFA0023637123736373E3
:10912000A373E3732374637410BD0A7D134B62B998
:109130009A604FF47F4001221A731A7403F03AFACE
:10914000BDE81040E72003F0B1BA00221A7310BD49
:109150000A4B01229A7410BD0846002100F0BFFF9F
:109160000121044601F002F8054B1B689C4204D122
:10917000024B0022DA739A735A7310BD6C200020E0
:10918000A00000201FB54FF461504FF461610A2226
:1091900000238DE80F00064B44F620621A606846F3
:1091A00001A902AA03AB01F09FFC05B05DF804FB26
:1091B000042100201FB50023009301930293039321
:1091C00001A8694602AA03AB01F054FC05B05DF8A2
:1091D00004FB000030B5544D00249FB0FF20AC705C
:1091E000EC706C706C712C73AC746C73AC73EC734E
:1091F0002C7403F0DFF9E72003F058FA21462246E9
:10920000204602F03FFC2B46012103F8144F0E20AC
:109210000A4601F0EFFC6B79012B05D1642003F0C5
:1092200063F801F0C3F8F6E710210C2001F02EFDE1
:109230003E4802F0F1F83E4802F09AFD012002F0AB
:109240007BFD68463B4900F0CDFDAB786A78364C33
:109250001A431CD194F82330002B5AD0FF2002F07F
:109260001DFD002855D11A24013C06D0E72003F04B
:109270004BFA322003F038F8F6E70E20012122469F
:109280002D4BEC7401F0B6FC85F82340DDE7E720B8
:1092900003F00CFA04F113030E200121002201F067
:1092A0007BFCA37813B102F083FD20702B780121A1
:1092B0000133EB740022204B0E2001F09BFC0020B8
:1092C00001240146012202F0DDFB214622461B4B10
:1092D0000E202C7501F08EFC02F058FB642003F088
:1092E00003F8002002F01CFB85F824404FF47F4077
:1092F00000242C7403F05EF9E72003F0D7F948F25C
:10930000442002F0E7FCFFF73DFF85F825401FB041
:1093100030BDE72003F0F8F9FA2002F0E5FF6846D7
:1093200000F0BCFD91E700BF6C200020304E01082A
:10933000FC010020519000087F20002080200020A8
:10934000024B1A6818601046704700BF04210020C5
:109350007FB53D4C0025A06203F07EFC03F0BEFB10
:109360003A4B3B4A00933B4B3B4901933B4B3C48B8
:1093700002933C4B03933C4B02F0BAFA642002F098
:10938000B3FF002002F0CCFA012348F2442084F815
:109390002430257402F09EFC344B1A881E46012AA4
:1093A0002FD00E2010212A4604F1130301F0F4FB04
:1093B000102826D12379244D9BB9EB7C1BB90123BE
:1093C00085F825300DE0287D58B90146012202F0CC
:1093D00059FB01212B4603F8141F0E200A4601F009
:1093E00009FC237943BB184B93F8253023B320485D
:1093F00001F032FCFFF7DEFE04B0BDE87040FFF77D
:10940000C1BEFF2002F04AFC00210E2001F03EFC0C
:1094100010210E2001F03AFC0021102215480AF01C
:10942000CDFE10210022134B0E2001F0E3FB0023A0
:10943000338003F05DFDBDE74FF47F4003F0BAF8E1
:10944000E72003F033F9D2E76C20002095CB000829
:1094500041900008A9CB00083990000815CC0008FD
:10946000A59000083DCC0008499000084A03002060
:10947000982000207F2000202DE9F341A54C04F026
:10948000BDFC0023236394F834304BB994F8353095
:1094900033B9A3687BB3FEF753FDA36898422AD380
:1094A00094F824309B4D002B40D000266E71AE60A6
:1094B0002E73AE6385F83460012785F824606E73DF
:1094C000AE73EE736E7402F061FA6FF07F402F742A
:1094D00003F070F8E72003F0E9F8642002F004FFDD
:1094E00095F8253013B3304602F01AFA85F8247047
:1094F000FFF770FE1AE094F82430864DB3B92B794B
:109500002BB9FEF71DFD00F5EA403030A8600020C1
:1095100002F006FA012384F824304FF47F40002340
:10952000237403F047F8E72003F0C0F894F82530DF
:10953000784E13B1FFF74EFE06E0337923B1337B4B
:1095400003F0FF05002B6BD0E278724B012A13D198
:109550001A7B012A10D15B79012B0DD103256E48AE
:109560000BF0DCF9013D82B26B49012002F086F973
:1095700015F0FF05F3D1E57094F83C30654D33B933
:109580006B7B002B64D1AB7B002B61D1BEE02B7BCE
:10959000FBB195F83530E3B96B7B002B68D018E050
:1095A0002B4603F8162F0E200121032201F022FB87
:1095B00000264FF6FF70267402F0FCFFE72003F050
:1095C00075F8FEF74BFAB042524D78DB0123AE63DB
:1095D0006B73637B4F4D002B00F09880AB7BBBB966
:1095E000FEF7BEF9002811D002DA4FF47F0007E041
:1095F000012801D1494803E0022803D14FF0FF10B0
:1096000002F0D8FFE72003F051F801E00123AB732B
:10961000FEF76AF9002879D1E073A073607375E0F2
:1096200029462A462846B56002F02CFA3C480BF041
:1096300075F93C4F804638460BF070F90097019061
:10964000791F032042462B4602F0B6F935717BE7BD
:10965000FEF7F4F900234FF47F40E373A3736373C1
:1096600002F0A8FFE72002B0BDE8F04103F01EB809
:10967000642002F039FE05F13D0001F07BFA6B7CBD
:10968000002B95D04FF47F0002F094FF637C214DB6
:1096900003F0FF02002B83D0E72003F007F84FF41C
:1096A000FA7002F021FEE72003F00EF84FF4FA7092
:1096B00002F01AFE6B7C013BDBB26B74E6E795F8B7
:1096C00034301BBBAB6B0133022BAB6304BF0123F4
:1096D00085F83430FEF780F900280ADAA36B0133ED
:1096E000022BA36303D10B4B012283F83420022306
:1096F00000E003236374637C0E20A37501210A4BF1
:10970000032201F077FA0023637362E702B0BDE839
:10971000F08100BF6C200020FF0100200060FF00EE
:10972000060200200B0200208220002013B5084C06
:10973000002100910A460B462046FEF77BFE0549B4
:10974000054A204602B0BDE810400AF0B5B800BF97
:10975000E42000203954000878130020704708B531
:10976000012003F039FFFEE708B5032003F034FFC2
:10977000FEE708B5042003F02FFFFEE708B505203B
:1097800003F02AFFFEE770477047704708B503F003
:10979000EDFCBDE80840FDF7C9BC000008B5024B70
:1097A0000BB1AFF3008008BD0000000008B5024B0C
:1097B0000BB1FFF73DFB08BD318E000808B5024B29
:1097C0000BB1FEF7C8FD08BD5783000808B5024B72
:1097D0000BB1FEF7C1FD08BD5983000808B5024B67
:1097E0000BB1FEF7FFFE08BDE585000808B50120B6
:1097F00004F0F6F838B1012004F000F9024B13B17F
:109800000020FEF7D7FD08BDB583000808B502208B
:1098100004F0E6F838B1022004F0F0F8024B13B17E
:109820000120FEF7C7FD08BDB583000808B5042078
:1098300004F0D6F878B1042004F0E0F80020064BDC
:109840000146188002F0E8FFBDE8084003481021F7
:10985000012204F0FABD08BD24210020002C0140A3
:1098600008B5082004F0BCF838B1082004F0C6F8A8
:10987000024B13B10320FEF79DFD08BDB583000820
:1098800008B5102004F0ACF838B1102004F0B6F898
:10989000024B13B10420FEF78DFD08BDB58300080F
:1098A00008B5202004F09CF838B1202004F0A6F878
:1098B0000E4B13B10520FEF77DFD402004F090F81B
:1098C00038B1402004F09AF8084B13B10620FEF797
:1098D00071FD802004F084F838B1802004F08EF807
:1098E000024B13B10720FEF765FD08BDB5830008E4
:1098F00008B54FF4005004F073F840B14FF4005035
:1099000004F07CF8174B13B10D20FEF753FD4FF414
:10991000804004F065F840B14FF4804004F06EF8E8
:10992000104B13B10E20FEF745FD4FF4004004F03C
:1099300057F840B14FF4004004F060F8094B13B100
:109940000F20FEF737FD4FF4006004F049F838B1FE
:109950004FF4006004F052F8BDE8084002F04EBC3D
:1099600008BD00BFB583000808B51048102104F0F9
:10997000A5FDC8B10D48102104F0ABFD002003F097
:1099800001F830B90A4B1A8892B20A3292B21A80A0
:1099900008BD06481021002204F057FDBDE808402C
:1099A0000020012102F038BF08BD00BF002C01409B
:1099B0002421002008B5012004F078FB50B10120DB
:1099C00004F084FB044B0BB1FFF728F9BDE8084015
:1099D00004F056BB08BD00BF1D8C000808B502206E
:1099E00004F064FBB0B10C4B00224FF400301A704D
:1099F00004F004F8012004F02BFA10B1012004F067
:109A000031FA04F03DFB022004F060FBBDE80840A1
:109A100004F036BB08BD00BFA120002002F080BBCF
:109A200000F062B838B514490B78012B23D1134AE2
:109A300013680BB90B7038BD114C402B206881B2F4
:109A400005D94030403B20601360402504E09DB2C2
:109A500003442360002313600A482A460844C021B7
:109A600005F06CFA0120294605F070FBBDE838408E
:109A7000012005F0D5BA38BD641300206C13002016
:109A8000681300206412002008B5094B01221A70E7
:109A9000084B002203201A8005F088FB064B024683
:109AA00018804FF488710548BDE8084005F05EBA9B
:109AB000181200201C1200201A1200201E12002072
:109AC000074B1B68052B09D1064B1A68511C052A48
:109AD000196003D100221A60FDF75EBC704700BF19
:109AE0004C210020F020002070B52B4D2B4C2B6812
:109AF0002B4E9BB22380228833881340990508D5CA
:109B00004FF6FF532B60A3780133DBB2A370FFF74E
:109B1000D7FF2288338813401A0401D505F058F97D
:109B20002288338813405B0505D54FF6FF332B6041
:109B30001C4B5B689847228833881A40900444BFC6
:109B40004DF6FF722A6022881340D90405D54EF6DF
:109B5000FF732B60002003F0FDFC22883388134044
:109B60001A050BD5104B1B7813B103F0D3FC02E0A0
:109B7000022003F0EFFC4FF2FF732B602288338842
:109B80001340DB0507D54FF6FF632B600720BDE8C8
:109B9000704003F0DFBC70BD445C0040F420002046
:109BA000382B0020700200206C030020034B9B7AAE
:109BB00013B1034B05221A60704700BF142B00201D
:109BC0004C210020014B04221A6070474C210020D8
:109BD000034B1A78202A04BF00221A70704700BF76
:109BE000F820002070470000212810B508D1114B43
:109BF0001B681B7803F07F03212B10D0022010BDBF
:109C00002028FBD10B4B0C4A1B681B78107003F00B
:109C10007F03212B094B18BF00230BB9EEE7084B3C
:109C2000044A0024126820469361548298472046D3
:109C300010BD00BF342B0020F8200020919C0008AC
:109C4000799C0008074B1B681B7803F07F03212BCE
:109C500006D100F0DF00022814BF02200020704768
:109C600002207047342B002009B1022070470128E0
:109C7000FBD808467047000020B9034B08221B6838
:109C80001A82704701487047342B00206802002078
:109C900020B9034B08221B681A827047014870479D
:109CA000342B00206802002010B5FDF7C1FB054BE6
:109CB00000241B689C7203F015FC05F08DFA024B22
:109CC0001C6010BD342B00204C210020334B344A43
:109CD0001B68D27910B500245A729C72DC7220463F
:109CE00005F056F920464FF4007105F059F9204669
:109CF000102105F063F92046402105F0FBF9802191
:109D0000204605F0E7F9204605F0B0F9254B20463E
:109D100093F8341005F028FA204605F094F9012054
:109D2000214605F03DF90120C02105F0D3F90120BD
:109D3000202105F043F90120214605F058F90220C1
:109D40004FF4C06105F02CF902204FF4807105F04A
:109D5000C1F90220214605F04AF90220202105F030
:109D60002DF90320214605F01BF903204FF48871DB
:109D700005F0C0F90320402105F0F6F903204FF467
:109D8000405105F034F90320214605F017F920462B
:109D900004F0B2FF044B01221A6010BD342B0020E6
:109DA0009D4E0108680200204C210020014904F06A
:109DB0009FBD00BFA0020020014904F099BD00BF73
:109DC000A8020020054B1B68DB78042B04D804494B
:109DD00001EBC30104F08CBD00207047342B002040
:109DE000B002002038B504460D46FFF7C1F8204602
:109DF00025614FF41651FFF7C5F8204638BD70B500
:109E000006460D46002428460AF088FD844208D202
:109E1000295D3046FFF7A6F8012002F065FA01340B
:109E2000F1E770BD2DE9F04104460E46904600254D
:109E30002046FFF793F80028FADD2046FFF78CF85C
:109E40004545C1B206D10023337020461249FFF7C1
:109E5000D6FF15E00D29F6D00A29F4D0082901D043
:109E60007F2904D1002DE3D0771E013D02E0771C4D
:109E7000317001352046EDB2FFF774F83E46D7E762
:109E80002046FFF76BF8002803DD2046FFF764F853
:109E9000F6E7BDE8F08100BF427D0108F0B585B06E
:109EA0000446FFF75BF8002840F39D802046FFF74B
:109EB00053F8C0B2772868D104F11406002121229A
:109EC000304604F135050AF079F94122002128468F
:109ED0000AF074F904F17607002384F876302046FE
:109EE00042497B70FFF78BFF204631462022FFF767
:109EF00099FF20463E49FFF782FF0122204639465E
:109F0000FFF790FF94F87630A3F13002D2B2032A23
:109F1000EFD8312B0BD120463649FFF770FF204692
:109F20003549FFF76CFF20463449FFF768FF94F886
:109F30007620B2F1300708D020463149FFF75FFFA5
:109F4000204629464022FFF76DFF20462D49FFF7A6
:109F500056FF23693A4630462946984720462A4903
:109F6000FFF74DFF20462949FFF749FF20462849C2
:109F7000FFF745FF20462749FFF741FF20462649C6
:109F8000FFF73DFF2046254928E069282BD1244BC7
:109F900001AD93E8070085E8070020462149FFF757
:109FA0002EFF0026AF5D20463B0903F13001392921
:109FB00084BF03F15701C9B207F00F07FEF7D2FFC4
:109FC00007F13001392984BF5737F9B220460136ED
:109FD000FEF7C8FF0C2EE5D11349204605B0BDE8B9
:109FE000F040FFF70CBF05B0F0BD00BF967B010845
:109FF0009D7B0108CA7B0108007C01082B7C0108BD
:10A00000717C01087C7C0108BF7C0108DF7C0108B1
:10A01000127D0108457D0108847D0108B57D010898
:10A02000E8F7FF1FCB7D0108427D010813B5084CFE
:10A03000002100910A460B462046FEF7FBF9054930
:10A04000054A204602B0BDE8104009F035BC00BF0B
:10A05000FC2000203954000878130020002100F073
:10A0600004B80E4B5B58435004310D480D4B421859
:10A070009A42FFF4F6AF0C4A00F003B8002342F80E
:10A08000043B0A4B9A42FFF4F9AF03F0B1F9FCF735
:10A0900089FFFDF709FAFCF7D3FF7047747F0108C9
:10A0A00000000020C80B0020C80B0020442B00201B
:10A0B000FFF7FEBF0B0A017043700B0C090E837093
:10A0C000C170043070470170090A41700230704756
:10A0D00043185A78435C03EB022080B2704710B5F6
:10A0E00043189A78DC78415C120402EB04625878D9
:10A0F0000A4402EB002010BD73B544790023022C02
:10A1000001930FD0032C19D0012C2BD1164D2B69A4
:10A110002E4623B12B6901A898470246B8B9B16809
:10A1200001201BE0104DEB682E4623B1EB6801A81F
:10A130009847024658B9B16802200FE00A4D6B6992
:10A140002E464BB16B6901A89847024620B1A96819
:10A150002046BDF8043003E0B16803200022134616
:10A1600000F024FC02B070BD7C220020072830B52E
:10A1700012D8012910D8EFF3108472B6012585405A
:10A1800001FA00F0054B1A6822EA050202431A6040
:10A190002346DB0700D462B630BD00BFF8020020C2
:10A1A00070B5012186B00546FFF792FF43040446CF
:10A1B0002AD5B0F5824F27D128460521FFF788FF21
:10A1C00005EB8000EE1D0024C51DAE4206D03046D2
:10A1D0000221FFF77DFF04360444F6E7724B1A8E26
:10A1E00092B2224492B21A86DA6B1444DC63D96BC1
:10A1F0009A6B914240F0CA8093F84020002A00F008
:10A20000C5809B69992031E024F4FF4020F07F0055
:10A2100080B2002800F0978048F210039C4228D0BA
:10A220000CD8B4F5004F40F2BC8048F202039C42C7
:10A2300015D948F204039C4211D0B2E048F28003E1
:10A240009C420CD004D848F240039C424FD0A8E076
:10A25000B4F5024F03D0B4F5084F6BD0A1E0524BD8
:10A260009A69002A00F092809B69204600210A46E4
:10A2700067E00023EA1852790DF803200133042B1C
:10A28000F8D16B7A05F10D008DF80430AB7A8DF8BA
:10A290000530EB7A8DF806302B7B8DF807300023E4
:10A2A00000AA1A44C15C0133042B1172F8D105F1E4
:10A2B0001100002300AA1A44C15C0133042B11735E
:10A2C000F8D105F11500002300AA1A44C15C01333E
:10A2D000042B1174F8D12B798DF81430324B9A6914
:10A2E000002A53D09B6920466946152229E005358E
:10A2F00000212846FFF7F3FE042100902846FFF7CF
:10A30000EEFE082101902846FFF7E9FE0C2102909D
:10A310002846FFF7E4FE102103902846FFF7DFFEF2
:10A32000214B04909A69002A30D09B6920466946E7
:10A33000142206E01C4B9A6942B39B692046691DB2
:10A340000122984722E041F203039C4205D0A4F584
:10A3500080530E3B9BB2012B1AD86C1D2046042162
:10A36000FFF7BDFE39301CD12A790F4B0021204662
:10A37000DA62FFF7B4FE042105462046FFF7AFFE80
:10A38000393003D128460121FFF7F0FE012009E012
:10A39000054B1B889BB29C4204D0B4F5805FF5D17D
:10A3A00000E0002006B070BD7C22002070B50E4C8D
:10A3B0006688B6B2B6B1606805782B1F5D425D4114
:10A3C0002DB1FFF7EDFE003018BF012000E0284658
:10A3D000064618B935B194F841301BB900236380A3
:10A3E00001F0B4FD304670BD7C2200202DE9F04F15
:10A3F00085B004468A46914602F0C0FE00250190D1
:10A40000DFF83083B8F8023046469BB2002B40F0AC
:10A41000938003F0F3FC02F0B1FE0290029A019BDC
:10A42000D31A0393039B002B03DA019B029A134474
:10A430000393BF4B1B68002BE2D0039A9A42DFD3F1
:10A44000338841F207029BB2934227D841F20602B9
:10A45000934261D240F2022293425DD00FD80C2B7E
:10A4600008D8082B58D2002B4FD0062B88BF0023CA
:10A470005AD851E00D2B4CD040F201220BE041F2B2
:10A48000020293424BD8B3F5805F45D8B3F5017F04
:10A490003FD940F20722934237D13AE041F211020C
:10A4A000934236D014D841F20B02934234D005D8EF
:10A4B00041F2090293422FD031D82AE041F20F0233
:10A4C00093422CD028D841F20D02934227D01CE0B1
:10A4D00042F2060293421CD007D8B3F5005F14D9AC
:10A4E00042F20402934221D813E0B3F5804F00F00A
:10A4F000EE8105D8A3F50053083B012B09D904E0F0
:10A5000044F20B02934200F0E2810B2003F064F866
:10A51000DDE1FF232370DAE14FF0FF3304E04FF079
:10A52000FF3323606360D2E12360D0E12046002145
:10A530003A2209F043FECAE1D8F804603378042BCC
:10A5400040F0798130460121FFF7C2FD05463046D3
:10A55000FFF726FE002840F0638141F207039D4289
:10A5600006F1050755D841F206039D4280F0AE8002
:10A5700040F202239D4200F0A98014D80C2D09D886
:10A58000082D80F0A380002D00F04A81062D00F2F6
:10A59000E5809BE00D2D00F0968040F201239D4266
:10A5A00000F091803CE141F202039D4218D8B5F5DC
:10A5B000805F00F28B80B5F5017F40F2848040F22D
:10A5C00007239D4240F02C813379384604F8013B43
:10A5D0000021FFF784FD01462046FFF76BFD1FE1D8
:10A5E00041F204039D4200F08B8040F2A5800021DF
:10A5F0003846FFF774FD042120603846FFF76FFDF1
:10A60000083444F8040C06F10D03224606F11D013E
:10A610006FE041F211039D4255D02BD841F20B035C
:10A620009D4253D01CD841F209039D424ED000F206
:10A63000908000213846FFF752FD04212060384603
:10A64000FFF74DFD082160603846FFF748FD0C21FB
:10A65000A0603846FFF743FD04F10C0BE060DEE03C
:10A6600041F20F039D4267D036D841F20D039D425F
:10A6700046D0D5E042F206039D4224D00BD8B5F572
:10A68000005F40F2CD8042F204039D4288BF002368
:10A6900000F2888017E042F208039D42C0F0C080BB
:10A6A00042F209039D420ED944F20B039D4240F051
:10A6B000B780737938460121A8F83030FFF708FDDC
:10A6C000A8F83200ACE033792370A9E038460021C5
:10A6D000FFF705FD2060A3E000213846FFF7FFFCEF
:10A6E000A3464BF8040B04213846FFF7F8FC6060E2
:10A6F00095E053F8040B8B4242F8040BF9D18FE03C
:10A7000000213846FFF7EBFC042120603846FFF7B4
:10A71000E6FC082160603846FFF7E1FCE36804F1DD
:10A72000080B3933A0607AD10121FFF71FFD76E0D5
:10A73000042100207C22002000213846FFF7CFFCB6
:10A74000042120603846FFF7CAFC083444F8040CA2
:10A7500066E0337923713B68236061E0002138466D
:10A76000FFF7BDFC042120603846FFF7B8FC082144
:10A7700060603846FFF7ACFC0A21A0603846FFF75E
:10A78000A7FC0C3444F8020C06F11103224606F132
:10A79000350153F8040B8B4242F8040BF9D11B88A6
:10A7A00013803DE0F2185279E2540133042BF9D1C1
:10A7B00006F109000023C15CE2180133042B11717A
:10A7C000F9D106F10D000023C15CE2180133042B1E
:10A7D0001172F9D106F111000023C15CE2180133B6
:10A7E000042B1173F9D106F115000023C15CE218A6
:10A7F0000133042B1174F9D106F119000023C15C57
:10A80000E2180133062B1175F9D106F11F00002360
:10A81000C15CE2180133202B9176F9D100E05C464F
:10A82000B8F800202C4B92B2954236D100221A8003
:10A8300083F8412031E0B8F836309BB26BB3304634
:10A84000032196F802B0FFF743FC0746BAF1000F68
:10A850000BD00421701DFFF742FC06F115010246E2
:10A86000C9F800005046FAF753FCCBEB07077B1EF4
:10A87000B3F5806F07D20BF10501204631443A460B
:10A88000FAF746FC01E04FF0FF37B9F1000F01D0B5
:10A89000C9F800700023A8F836300023A8F8023069
:10A8A00001F054FB3378042B05D1B5F5805F02D15C
:10A8B0003046FFF721FCB8F800309BB2002B7FF444
:10A8C0009FAD054BDB8E9BB2002B7FF499AD002032
:10A8D00005B0BDE8F08F00BF7C22002007284FF0B4
:10A8E00001030FD8EFF3108272B603FA00F0064BA3
:10A8F0001968134608420CBF00200120DB0702D470
:10A9000062B6704718467047F8020020034B188063
:10A91000084600210A46FFF769BD00BF7C220020DF
:10A9200010B5034B0124DC86BDE81040FFF75EBD87
:10A930007C22002038B50346154601224A710C4698
:10A94000881D1946FFF7BFFB291D0570204601F041
:10A950006DFB002038BD38B5BDF814500C462B44B3
:10A96000D518ADB202216171A071E271294604F1DE
:10A970000800FFF7A8FB691D204689B201F056FBCD
:10A98000002038BD38B513440C469DB202216171D8
:10A99000A0712946E27104F10800FFF794FB691DDC
:10A9A000204689B2BDE8384001F040BB2DE9F84FA0
:10A9B0001C4604F1020B032301F107091FFA8BFB6C
:10A9C00088710D464B71484659461646FFF77BFB8A
:10A9D000B4F57A7F824605F10B0812D82146FFF7BD
:10A9E00072FB21465046FFF76EFB31464046224639
:10A9F000FAF78EFBA11D284689B2BDE8F84F01F099
:10AA000015BB4FF47A77B4FBF7F30BEB430189B234
:10AA1000FFF759FB39465046FFF755FB3146404694
:10AA20003A46FAF775FBA4F57A74284640F2EE31FF
:10AA3000A4B23E4401F0FAFAB4F57A7F84BFA4F5DB
:10AA40007A74A7B2A84688BF4FF47A74314628F8C2
:10AA5000054F4846224698BF0027FAF759FBA11C2C
:10AA6000404689B2264401F0E1FA0FB13C46E3E7E3
:10AA7000BDE8F88FF7B51E46FF238DF80730194B58
:10AA800000259C68475D63190135042D5F72F9D17B
:10AA900000200D5C2318013004285D73F9D10021DA
:10AAA000505C6318013104295874F9D104F1150080
:10AAB0000021FFF7FFFA0022B35C83540132042A1D
:10AAC000FAD12146142242F20100FFF733FF42F28D
:10AAD00001000DF10701FFF719FF9DF9070003B011
