:020000040800F2
:1050000000500020B5AA0008B5A10008B7A100080B
:10501000C1A10008CBA10008D5A100080000000034
:10502000000000000000000000000000DFA10008F8
:10503000E1A1000800000000E3A10008E5A10008CC
:1050400009AB000809AB000809AB00080DA4000873
:1050500009AB000809AB000845A2000865A20008DA
:1050600085A20008B9A20008D9A2000809AB00086F
:1050700009AB000809AB000809AB000875A40008DB
:1050800009AB000809AB0008F5A1000809AB00084E
:1050900079A4000809AB000809AB0008F9A20008D0
:1050A00009AB000809AB000809AB0008C1A3000860
:1050B00009AB000809AB000809AB000815A20008FD
:1050C00025A2000809AB000809AB000835A20008BA
:1050D00009AB000809AB000805A2000809AB0008ED
:1050E00049A3000835A4000809AB0008000000002F
:1050F00000000000000000000000000000000000B0
:0C51000000000000000000005FF808F153
:1051100081F0004102E000BF83F0004330B54FEA68
:1051200041044FEA430594EA050F08BF90EA020FD5
:105130001FBF54EA000C55EA020C7FEA645C7FEA68
:10514000655C00F0E2804FEA5454D4EB5555B8BF8B
:105150006D420CDD2C4480EA020281EA030382EAFC
:10516000000083EA010180EA020281EA0303362D8E
:1051700088BF30BD11F0004F4FEA01314FF4801C61
:105180004CEA113102D0404261EB410113F0004F73
:105190004FEA03334CEA133302D0524263EB43032A
:1051A00094EA050F00F0A780A4F10104D5F1200EC8
:1051B0000DDB02FA0EFC22FA05F2801841F1000123
:1051C00003FA0EF2801843FA05F359410EE0A5F1F7
:1051D00020050EF1200E012A03FA0EFC28BF4CF028
:1051E000020C43FA05F3C01851EBE37101F00045DE
:1051F00007D54FF0000EDCF1000C7EEB00006EEBEB
:105200000101B1F5801F1BD3B1F5001F0CD3490874
:105210005FEA30004FEA3C0C04F101044FEA4452CB
:1052200012F5800F80F09A80BCF1004F08BF5FEA52
:10523000500C50F1000041EB045141EA050130BD32
:105240005FEA4C0C404141EB010111F4801FA4F1D5
:105250000104E9D191F0000F04BF01460020B1FA2A
:1052600081F308BF2033A3F10B03B3F120020CDA62
:105270000C3208DD02F1140CC2F10C0201FA0CF040
:1052800021FA02F10CE002F11402D8BFC2F1200CA5
:1052900001FA02F120FA0CFCDCBF41EA0C0190405B
:1052A000E41AA2BF01EB0451294330BD6FEA0404A4
:1052B0001F3C1CDA0C340EDC04F11404C4F120028F
:1052C00020FA04F001FA02F340EA030021FA04F3A1
:1052D00045EA030130BDC4F10C04C4F1200220FAF8
:1052E00002F001FA04F340EA0300294630BD21FA36
:1052F00004F0294630BD94F0000F83F4801306BFFC
:1053000081F480110134013D4EE77FEA645C18BFEF
:105310007FEA655C29D094EA050F08BF90EA020F86
:1053200005D054EA000C04BF1946104630BD91EA7E
:10533000030F1EBF0021002030BD5FEA545C05D181
:105340004000494128BF41F0004130BD14F58004C0
:105350003CBF01F5801130BD01F0004545F0FE4134
:1053600041F470014FF0000030BD7FEA645C1ABF69
:10537000194610467FEA655C1CBF0B46024650EAA0
:10538000013406BF52EA033591EA030F41F40021CC
:1053900030BD00BF90F0000F04BF0021704730B552
:1053A0004FF4806404F132044FF000054FF0000127
:1053B00050E700BF90F0000F04BF0021704730B5E8
:1053C0004FF4806404F1320410F0004548BF4042BD
:1053D0004FF000013EE700BF42004FEAE2014FEA12
:1053E00031014FEA02701FBF12F07F4393F07F4FED
:1053F00081F06051704792F0000F14BF93F07F4F1F
:10540000704730B54FF4607401F0004521F0004161
:1054100020E700BF50EA010208BF704730B54FF0E7
:1054200000050AE050EA010208BF704730B511F0EC
:10543000004502D5404261EB41014FF4806404F124
:1054400032045FEA915C3FF4DCAE4FF003025FEAA6
:10545000DC0C18BF03325FEADC0C18BF033202EB2E
:10546000DC02C2F1200300FA03FC20FA02F001FA88
:1054700003FE40EA0E0021FA02F11444C1E600BF27
:1054800070B54FF0FF0C4CF4E06C1CEA11541DBFDA
:105490001CEA135594EA0C0F95EA0C0F00F0DEF8A5
:1054A0002C4481EA030621EA4C5123EA4C5350EA8A
:1054B000013518BF52EA033541F4801143F48013DB
:1054C00038D0A0FB02CE4FF00005E1FB02E506F06C
:1054D0000042E0FB03E54FF00006E1FB03569CF0C1
:1054E000000F18BF4EF0010EA4F1FF04B6F5007FC7
:1054F00064F5407404D25FEA4E0E6D4146EB060639
:1055000042EAC62141EA55514FEAC52040EA5E50C1
:105510004FEACE2EB4F1FD0C88BFBCF5E06F1ED86B
:10552000BEF1004F08BF5FEA500E50F1000041EBA2
:10553000045170BD06F0004646EA010140EA02004F
:1055400081EA0301B4EB5C04C2BFD4EB0C0541EA71
:10555000045170BD41F480114FF0000E013C00F386
:10556000AB8014F1360FDEBF002001F0004170BDAA
:10557000C4F10004203C35DA0C341BDC04F11404C3
:10558000C4F1200500FA05F320FA04F001FA05F24F
:1055900040EA020001F0004221F0004110EBD3701C
:1055A00021FA04F642EB06015EEA430E08BF20EA48
:1055B000D37070BDC4F10C04C4F1200500FA04F3EB
:1055C00020FA05F001FA04F240EA020001F000417D
:1055D00010EBD37041F100015EEA430E08BF20EAF0
:1055E000D37070BDC4F1200500FA05F24EEA020E38
:1055F00020FA04F301FA05F243EA020321FA04F067
:1056000001F0004121FA04F220EA020000EBD3701D
:105610005EEA430E08BF20EAD37070BD94F0000F1D
:105620000FD101F00046400041EB010111F4801F51
:1056300008BF013CF7D041EA060195F0000F18BF02
:10564000704703F00046520043EB030313F4801F3E
:1056500008BF013DF7D043EA0603704794EA0C0FF8
:105660000CEA135518BF95EA0C0F0CD050EA41060E
:1056700018BF52EA4306D1D181EA030101F000418B
:105680004FF0000070BD50EA410606BF10461946B3
:1056900052EA430619D094EA0C0F02D150EA0136BF
:1056A00013D195EA0C0F05D152EA03361CBF104600
:1056B00019460AD181EA030101F0004141F0FE419F
:1056C00041F470014FF0000070BD41F0FE4141F423
:1056D000780170BD70B54FF0FF0C4CF4E06C1CEA23
:1056E00011541DBF1CEA135594EA0C0F95EA0C0FD8
:1056F00000F0A7F8A4EB050481EA030E52EA033593
:105700004FEA013100F088804FEA03334FF08055B3
:1057100045EA131343EA12634FEA022245EA1115E0
:1057200045EA10654FEA00260EF000419D4208BF91
:10573000964244F1FD0404F5407402D25B084FEA3E
:105740003202B61A65EB03055B084FEA32024FF4EA
:1057500080104FF4002CB6EB020E75EB030E22BF47
:10576000B61A754640EA0C005B084FEA3202B6EB07
:10577000020E75EB030E22BFB61A754640EA5C00B6
:105780005B084FEA3202B6EB020E75EB030E22BF46
:10579000B61A754640EA9C005B084FEA3202B6EB47
:1057A000020E75EB030E22BFB61A754640EADC0006
:1057B00055EA060E18D04FEA051545EA16754FEA68
:1057C00006164FEAC30343EA52734FEAC2025FEA86
:1057D0001C1CC0D111F4801F0BD141EA00014FF015
:1057E00000004FF0004CB6E711F4801F04BF0143E6
:1057F0000020B4F1FD0C88BFBCF5E06F3FF6AFAE02
:10580000B5EB030C04BFB6EB020C5FEA500C50F191
:10581000000041EB045170BD0EF0004E4EEA113114
:1058200014EB5C04C2BFD4EB0C0541EA045170BD1B
:1058300041F480114FF0000E013C90E645EA060E5F
:105840008DE60CEA135594EA0C0F08BF95EA0C0F8D
:105850003FF43BAF94EA0C0F0AD150EA01347FF4D5
:1058600034AF95EA0C0F7FF425AF104619462CE7AC
:1058700095EA0C0F06D152EA03353FF4FDAE10460F
:10588000194622E750EA410618BF52EA43067FF460
:10589000C5AE50EA41047FF40DAF52EA43057FF4F0
:1058A000EBAE12E74FF0FF3C06E000BF4FF0010CFB
:1058B00002E000BF4FF0010C4DF804CD4FEA410C5F
:1058C0007FEA6C5C4FEA430C18BF7FEA6C5C1BD02C
:1058D00001B050EA410C0CBF52EA430C91EA030FAD
:1058E00002BF90EA020F0020704710F1000F91EA0A
:1058F000030F58BF994208BF90422CBFD8176FEAD8
:10590000E37040F0010070474FEA410C7FEA6C5CA5
:1059100002D150EA013C07D14FEA430C7FEA6C5CAC
:10592000D6D152EA033CD3D05DF8040B704700BFD8
:105930008446104662468C461946634600E000BF26
:1059400001B5FFF7B7FF002848BF10F1000F01BDF8
:105950004DF808EDFFF7F4FF0CBF012000205DF8C3
:1059600008FB00BF4DF808EDFFF7EAFF34BF012048
:1059700000205DF808FB00BF4DF808EDFFF7E0FFE1
:1059800094BF012000205DF808FB00BF4DF808ED32
:10599000FFF7CEFF94BF012000205DF808FB00BF99
:1059A0004DF808EDFFF7C4FF34BF012000205DF87B
:1059B00008FB00BF4FEA410212F5001215D211D5C3
:1059C0006FF47873B3EB625212D94FEAC12343F0FC
:1059D000004343EA505311F0004F23FA02F018BF7E
:1059E000404270474FF00000704750EA013005D147
:1059F00011F0004008BF6FF0004070474FF000000A
:105A0000704700BF844641EA000313F0030349D105
:105A1000403A23D30B6803604B6843608B68836014
:105A2000CB68C3600B6903614B6943618B69836118
:105A3000CB69C3610B6A03624B6A43628B6A836200
:105A4000CB6AC3620B6B03634B6B43638B6B8363E8
:105A5000CB6BC36340304031403ADBD230320BD3A2
:105A60000B6803604B6843608B688360CB68C360DE
:105A700010301031103AF3D20C3205D351F8043BF8
:105A800040F8043B043AF9D2043208D0D2071CBFD4
:105A900011F8013B00F8013B01D30B8803806046FD
:105AA000704700BF082A13D38B07B1D010F003034F
:105AB000AED0C3F10403D21ADB071CBF11F8013BBF
:105AC00000F8013BA4D331F8023B20F8023B9FE7EA
:105AD000043AD9D3013A11F8013B00F8013BF9D25D
:105AE0000B7803704B7843708B78837060467047F7
:105AF00040EA010C1CF0070F27D1BDF1100DCDE9D4
:105B00000245CDE900676FF000064FF0000700BFC7
:105B1000F0E80223F1E80245A242A2F1013C2CEA9E
:105B2000020C0CF0803C08BFBCF1000F40F0E58097
:105B3000AB42A3F1013C2CEA030C0CF0803C08BF03
:105B4000BCF1000F40F0D680E2E710F0030C21D04A
:105B500020F0030050F8042B5FEACC7C08D00FD271
:105B600011F801CB5FFA92F3B3EB0C0C10D17BB1BF
:105B700011F801CB5FFAA2F3B3EB0C0C08D13BB1E7
:105B800011F801CB5FFAB2F3B3EB0C0C00D10BB9F7
:105B900060467047BDF1100DCDE90245CDE90067C3
:105BA0006FF000064FF0000711F0030C33D110F036
:105BB000040F0FD050F8042B51F8044BA242A2F16D
:105BC000013C2CEA020C0CF0803C08BFBCF1000F39
:105BD00040F0938011F0040F99D051F8045B00BF9E
:105BE000F0E80223AA42A2F1013C2CEA020C0CF0DC
:105BF000803C08BFBCF1000F79D1F1E80245A34217
:105C0000A3F1013C2CEA030C0CF0803C08BFBCF172
:105C1000000F69D1E4E721F00301BCF1020F20D0AD
:105C20003FDA51F8045B00BF50F8043B4FEA1525FA
:105C3000A3F1013C2CEA030C0CF0803CB7EB0C2FD9
:105C400003EA162208BFAA4251D151F8045BBCF105
:105C5000000F82EA03034FEA056208BF934240D176
:105C6000E2E751F8045B00BF50F8043B4FEA1545EA
:105C7000A3F1013C2CEA030C0CF0803CB7EB0C4F79
:105C800003EA164208BFAA4231D151F8045BBCF1C5
:105C9000000F82EA03034FEA054208BF934220D176
:105CA000E2E751F8045B00BF50F8043B4FEA15658A
:105CB000A3F1013C2CEA030C0CF0803CB7EB0C6F19
:105CC00003EA166208BFAA4211D151F8045BBCF185
:105CD000000F82EA03034FEA052208BF934200D176
:105CE000E2E719BA12BA0AE019BA22BA07E011BA01
:105CF0002ABA04E019BA2ABA01E011BA22BA9CFA07
:105D00008CF0DDE90067DDE902451DF1100D38B1C9
:105D1000B0FA80F0C0F1180021FA00F122FA00F286
:105D20000120914298BF8041704700BF4BB942B9F2
:105D3000002908BF002802D04FF0FF31084600F0CC
:105D40003BB882B0EC462DE9005000F01DF8DDF8BC
:105D500004E002B00CBC70472DE9704F089E144659
:105D60001D468046894600F029F804FB01F3A4FB98
:105D700000AB00FB05329344B8EB0A0869EB0B0952
:105D8000C6E90089BDE8708F2DE9704F089E144662
:105D90001D468046894600F061F900FB05F5A0FB31
:105DA00004AB04FB0154A344B8EB0A0869EB0B09EC
:105DB000C6E90089BDE8708F704700BF00292DE952
:105DC000F00FC0F2A1800024002BC0F2988015468D
:105DD00006460F46002B3FD18A4258D9B2FA82F3C9
:105DE0004BB1C3F1200201FA03F720FA02F29D4001
:105DF00000FA03F61743290CB7FBF1F201FB127707
:105E0000A8B200FB02F34FEA164C4CEA0747BB422C
:105E100009D97F1902F1FF3C80F00581BB4240F2B5
:105E20000281023A2F44FF1AB7FBF1F301FB137111
:105E300000FB03F0B6B246EA0141884208D949198D
:105E400003F1FF3780F0F180884240F2EE80023BA0
:105E500043EA0242002303E08B420AD900231A4698
:105E60001046194614B1404261EB4101BDE8F00F04
:105E70007047B3FA83F8B8F1000F40F088808B4286
:105E800002D3824200F2E28000230122E8E712B945
:105E90000123B3FBF2F5B5FA85F2002A3AD17F1B54
:105EA000280C1FFA85FC0123B7FBF0F100FB1177EA
:105EB0000CFB01F24FEA164848EA0747BA4207D9F5
:105EC0007F1901F1FF3802D2BA4200F2C480414684
:105ED000BF1AB7FBF0F200FB12700CFB02FCB6B26B
:105EE00046EA0040844507D9401902F1FF3702D243
:105EF000844500F2AE803A4642EA0142B0E7E4430C
:105F0000524263EB430362E7404261EB41014FF0D1
:105F1000FF3459E79540C2F1200927FA09F126FA22
:105F200009F99740280CB1FBF0F800FB18111FFA93
:105F300085FC0CFB08F349EA07094FEA194747EAD1
:105F400001418B4206FA02F608D9491908F1FF32DD
:105F50007AD28B4278D9A8F102082944C91AB1FB38
:105F6000F0F300FB13170CFB03F21FFA89F949EA5F
:105F70000747BA4207D97F1903F1FF3160D2BA420D
:105F80005ED9023B2F44BF1A43EA08438CE7C8F1AD
:105F9000200225FA02F103FA08FC27FA02F320FA9C
:105FA00002F207FA08F741EA0C0C4FEA1C49B3FB6E
:105FB000F9F109FB11331FFA8CFA0AFB01FB1743B5
:105FC0003A0C42EA03439B4505FA08F008D913EB63
:105FD0000C0301F1FF3235D29B4533D902396344BA
:105FE000CBEB0303B3FBF9F209FB12330AFB02FA12
:105FF000BFB247EA0347BA4508D917EB0C0702F1CD
:10600000FF331BD2BA4519D9023A674442EA014527
:10601000A5FB0001CAEB07078F424FF000030AD32C
:1060200005D02A461CE76246FDE63B4610E706FA25
:1060300008F68642F5D26A1E002311E71A46E5E704
:106040000B46A0E71146CBE7904687E7434642461A
:1060500006E7023A50E702392F4439E72DE9F00FFD
:10606000144605460E46002B43D18A4253D9B2FA54
:1060700082F757B1C7F1200620FA06F601FA07F3B6
:1060800002FA07F400FA07F51E43210CB6FBF1F201
:1060900001FB1266A0B200FB02F32F0C47EA064692
:1060A000B34209D9361902F1FF3780F0FD80B342BF
:1060B00040F2FA80023A2644F61AB6FBF1F301FBED
:1060C000136100FB03F0ADB245EA0141884208D9F3
:1060D000091903F1FF3680F0E980884240F2E6803A
:1060E000023B43EA0242002310461946BDE8F00F86
:1060F00070478B424CD8B3FA83F6002E4FD18B42B7
:1061000002D3824200F2DD80BDE8F00F00230122BD
:1061100010461946704712B90124B4FBF2F4B4FAE0
:1061200084F2002A40F08280091B260CA7B20123CA
:10613000B1FBF6F006FB101107FB00F24FEA154C1D
:106140004CEA01418A4207D9091900F1FF3C02D209
:106150008A4200F2C8806046891AB1FBF6F206FB5B
:10616000121107FB02F7ADB245EA0145AF4208D96B
:106170002C1902F1FF3180F09B80A74240F29880F9
:10618000023A42EA004210461946BDE8F00F704755
:1061900000231A4610461946BDE8F00F7047C6F1B5
:1061A000200522FA05F703FA06F421FA05F301FAAD
:1061B00006FB20FA05F53C434FEA1448B3FBF8FC14
:1061C00008FB1C331FFA84F909FB0CFA45EA0B0B98
:1061D0004FEA1B4545EA03439A4502FA06F204D901
:1061E0001B190CF1FF356FD3AC46CAEB0303B3FBAD
:1061F000F8F508FB153309FB05F91FFA8BFB4BEA91
:106200000347B94504D93F1905F1FF3362D31D4651
:1062100045EA0C4CACFB0223C9EB07079F424FF049
:1062200000054AD346D062462B465DE79440C2F152
:10623000200921FA09FC914020FA09F9260CBCFB3F
:10624000F6F806FB18CCA7B207FB08F349EA0109E8
:106250004FEA194141EA0C4C634500FA02F509D9AD
:106260001CEB040C08F1FF323BD2634539D9A8F18D
:106270000208A444C3EB0C0CBCFBF6F306FB13C1F1
:1062800007FB03F21FFA89F949EA01418A4207D95B
:10629000091903F1FF3022D28A4220D9023B21445E
:1062A000891A43EA084343E73A4605E7334618E7C5
:1062B0000A4666E7B0409042B5D20CF1FF320023A7
:1062C00012E7334632460FE79A458DD9ACF1020CFE
:1062D00023448AE7B9459AD9023D274498E7034603
:1062E000DEE79046C6E70238214435E7014B0360FC
:1062F000704700BF10830108014B0360704700BF67
:106300002883010810B5034B0446036001F0B2FD79
:10631000204610BD1083010810B5034B04460360EE
:1063200001F0A8FD204610BD2883010810B50446E1
:10633000206803681B6998470028F9D02068036823
:106340005B699847C0B210BD2DE9F8430546894600
:10635000FFF7ECFF012628710027B0462846FFF71B
:10636000E5FF05EB0803187100F07F0303FB0677D8
:1063700008F101040306A4B2BFB24FEAC61601D564
:10638000A046EBE7631E89F800300026B3B2BB429B
:1063900012D27F2C0AD82846FFF7C8FF04F1010863
:1063A0001FFA88F82C442071444603E02846FFF782
:1063B000BDFF00240136E9E72046BDE8F883F7B5C4
:1063C00007461E46DDB2002405F07F0302A8ED0952
:1063D000204418BF43F08003013400F8043CE4B2C9
:1063E000002DF1D1C4F1040302EB030ED154A542F8
:1063F00006DA01A9695C131B2B4459710135F6E7D4
:106400003868721C03682244DB6871469847054669
:1064100002F060FA0134C7F888002644E8B2831B12
:106420005842584103B0F0BD023370B59BB200250D
:10643000ACB201354E1916F8016C181980B20EB1C4
:106440001654F5E7031B1A44231202F8023C02F823
:10645000014C70BD38B50546006848B103681B6B38
:106460009847044628B928680368DB6A984700E023
:106470000446204638BD00002DE9F04F85B00446A3
:106480008A4690461F46DDF83890FFF7E3FF064640
:10649000002840F0A2802568D4F89C102B6829B110
:1064A0005B6A2846B4F8A02098470BE0D4F898100F
:1064B00001A8D3F820B002F093FC284601A9B4F853
:1064C000A020D847002800F08380464A01231068A6
:1064D0005168A4F8843001AB03C3127A01A81A7082
:1064E0000023E218C15C0133092B5172F9D1B9F1D3
:1064F000000F0AD09DF840509DF83C306D0145F0EA
:10650000060545EAC305EDB200E00225B8F1000F2B
:1065100005D017B945F0800501E045F0C00500231E
:10652000A574E374251D0F232375204611235146BE
:106530002A46FFF779FF0346B9F1000F0BD0494611
:106540002A462046FFF770FF119903462A46204647
:10655000FFF76AFF0346B8F1000F0CD02046414612
:106560002A46FFF761FF03462FB1204639462A46E7
:10657000FFF75AFF0346053B10212A469BB22046EF
:10658000FFF71DFF02F0A6F9C4F88800C4F88C00DC
:10659000206803681B69984748B902F09BF9D4F852
:1065A0008C3043F69822C01A9042F1D910E0204670
:1065B0000DF10301FFF7C8FE042809D1E5793DB9C3
:1065C00002F088F90126C4F88C0084F8905005E0A8
:1065D00020680368DB6A984700E00026304605B073
:1065E000BDE8F08FAC8201081FB500220092019235
:1065F000029203921346FFF73FFF05B05DF804FBDC
:106600002DE9F04704460E46924699469DF82080B3
:10661000FFF720FF08B3251D314620462A460523F3
:10662000FFF702FF00218FB246184F45B6B201F1C5
:10663000010104D21AF8073026443371F3E7B8F1A8
:10664000000FA6F1050320462A4614BF3121302150
:106650009BB2BDE8F047FFF7B2BEBDE8F08773B567
:106660000546104614460E460EF07CFE00220346F8
:106670000092284631462246FFF7C2FF02B070BDA5
:10668000012A2DE9F04104460F46154621D8FFF7AF
:10669000E1FEF0B1B4F8843001339BB203B90123B9
:1066A000A4F88430B4F88430261D1A126272A372E2
:1066B0003946324620460723FFF7B6FE23181D71E0
:1066C000031F3246204682219BB2BDE8F041FFF70E
:1066D00076BE0020BDE8F08170B504460D46FFF798
:1066E000B9FE50B12B126372A5722046221D4021C3
:1066F0000223BDE87040FFF762BE70BD2DE9F04394
:1067000083B000AF0446FFF7A5FE002800F0988094
:1067100002F0E0F8D4F88C300546C21A43F698230C
:106720009A4204D8D4F88820821A9A4217D994F849
:106730009030206823B10368DB6A984700207FE02F
:10674000C022227163710368211DDB680222984711
:106750000123C4F88850C4F88C5084F89030206825
:1067600003681B699847002869D02046F91DFFF788
:10677000EBFD8046002862D02279C4F88C5002F0EC
:10678000F002302A48D1D4F89430002B57D0FD794C
:106790006E4661194A798B7903EB02239BB203F1B0
:1067A0000802D208A6EBC200854600221FFA82FE2C
:1067B0009E4507D201EB020E9EF807E000F802E0CA
:1067C0000132F3E70022C2542279D4F894C012F0C7
:1067D000020F05F10302C5EB08081A4414D0224445
:1067E000517992F80490C3EB080201EB0929691D65
:1067F000194421441FFA89F90431053AE04720463B
:106800004946FFF769FF05E0A118A8F1030204312A
:10681000D21AE047B54612E0C02A0BD1D023214658
:10682000237151F8040B0023637103680222DB68B3
:10683000984704E0D02A04BF002384F89030012058
:106840000C37BD46BDE8F08390B591B000AF04466B
:106850002B4907F1300002F019FC07F1200001F08C
:106860007BFC07F1200107F1300002F071FC2549A3
:1068700002F07BFC0146384602F02AFC07F12000BA
:1068800002F0C2FB07F1300002F0BEFB214607F127
:10689000100002F0FBFB394607F1300002F018FC53
:1068A00007F1100107F1300002F052FC014607F138
:1068B000200002F00DFC07F1300002F0A5FBBA6ADF
:1068C00007F1200002F1080323F00703ADEB030DED
:1068D00069460023013202F091FC694601220A4810
:1068E000FFF7CEFE07F1200002F08EFB07F110004B
:1068F00002F08AFB384602F087FB4437BD4690BD64
:1069000048AD01084BAD0108B80B002008B50D4893
:10691000FFF7A0FDA0B90B4800F1A401FFF764FE4A
:1069200040B10948FFF790FF0848FFF78DFF08487E
:10693000084901E006480849BDE8084000F09ABD52
:1069400008BD00BFB80B00204DAD010855AD0108D2
:10695000780C00205FAD010865AD0108B0B590B0BE
:1069600000AF05460C4607F130002B4902F08EFBC4
:1069700007F1200001F0F0FB07F1200107F13000E2
:1069800002F0E6FB254902F0F0FB0146384602F032
:106990009FFB07F1200002F037FB07F1300002F007
:1069A00033FB294607F1100002F070FB394607F16E
:1069B000300002F08DFB07F1100107F1300002F00A
:1069C000C7FB014607F1200002F082FB07F130000F
:1069D00002F01AFBBB6A07F1200003F1080222F063
:1069E0000702ADEB020D69465A1C002302F006FCBB
:1069F000694622460A48FFF732FE07F1200002F0FE
:106A000003FB07F1100002F0FFFA384602F0FCFA2F
:106A10004037BD46B0BD00BF48AD01084BAD0108D1
:106A2000B80B002010B50C4C052001F055FF0021DB
:106A3000208801F01FFE052001F04EFF2088012173
:106A400001F018FE054BD3F8FC203F2ADCBF0132D1
:106A5000C3F8FC2010BD00BF00000020B80B0020D0
:106A600010B50C4C052001F037FF0021A08801F083
:106A700001FE052001F030FFA088012101F0FAFDA0
:106A8000054BD3F8FC20002AC4BF02F1FF32C3F843
:106A9000FC2010BD00000020B80B002007B5074BFC
:106AA00001A8D3F8FC2006490EF0D8FB054801A93F
:106AB000FFF754FF03B05DF804FB00BFB80B0020E4
:106AC00069AD01086CAD01083C2808B504D03E282A
:106AD00008D1FFF7A7FF01E0FFF7C2FFBDE80840BC
:106AE000FFF7DCBF08BD000038B50D4B0546D3F8F5
:106AF000FC40A0420BDDFFF795FF01340A2001F0B6
:106B0000EBFEAC42F7D1BDE83840FFF7C7BFAC425F
:106B1000F9D0FFF7A5FF0A2001F0DEFE013CF6E701
:106B2000B80B002038B50B4D012128890A4C01F023
:106B3000A1FD0123E86884F80031FFF7D5FF07487D
:106B40000749FFF70BFF04F1C000BDE8384000F033
:106B500019BC00BF00000020B80B002077AD010871
:106B600046AE010810B50020FFF7BEFF084B094CE8
:106B70000021188984F8001101F07CFD06480749BE
:106B8000FFF7ECFE04F1C000BDE8104000F00DBCC2
:106B900000000020B80B002077AD01085CAE0108B2
:106BA000034B93F800310BB1FFF7DCBFFFF7BABF1F
:106BB000B80B002038B504460D460846124902F0CD
:106BC000FCFA18B1502C01D1FFF7EAFF28460F4913
:106BD00002F0F3FA20B1502C02D10D4800F010FC65
:106BE00028460C4902F0E9FA60B1482C04D0502C38
:106BF00008D10948094901E007480949BDE838407A
:106C0000FFF7ACBE38BD00BFBC0C0020CC0C002090
:106C1000780C0020DC0C002084AD010897AD010841
:106C20009DAD010830B5324C85B004F1C00000F0D4
:106C30000DFC2046FFF762FD04F59A7000F000FDA0
:106C400004F50D7000F0FBFD04F51871054668466B
:106C500002F03EFA69462846FFF736FF684602F022
:106C6000D3F904F51C7000F077FD04F58A71054630
:106C7000684602F02DFA69462846FFF79BFF6846F2
:106C800002F0C2F904F5237000F066FD04F582718C
:106C90000546684602F01CFA69462846FFF78AFF57
:106CA000684602F0B1F904F52A7000F055FD04F5CC
:106CB00092710546684602F00BFA28466946FFF7CE
:106CC00079FF684602F0A0F92046FFF7C3FB30B118
:106CD00004F59A70D4F8C41200F0FEFC05E004F547
:106CE0009A70D4F8C41200F0F0FC05B030BD00BFBB
:106CF000B80B0020F7B54D4C4D4D002104F5327610
:106D00000B4600910A46304602F05EF804F58A7799
:106D10002A4630464749484E0DF0FAFA3846474968
:106D200002F0B4F92A463146384604F582770DF070
:106D3000EFFA3846424902F0A9F92A463146384668
:106D400004F592770DF0E4FA38463E4902F09EF9D8
:106D50002A463146384604F518770DF0D9FA3846F8
:106D6000394902F093F92A463146384604F534771A
:106D70000DF0CEFA3846354902F088F92A463146F8
:106D8000384604F538770DF0C3FA3846304902F03A
:106D90007DF931462A4604F53C7638460DF0B8FABE
:106DA000304602F0B9FB2A462A4930460DF0B0FAC7
:106DB00004F59A7000F0DCFB274D284B05F11C010F
:106DC000C4F8943005F11003C4F89C3040F25B73B2
:106DD000A4F8A03004F1C0000EC9266000F0B4FA97
:106DE000AA6AE96AD4F80835C4F80C15C4F8102565
:106DF000296B6A6B04F50D70C4F8143500F0F8FCCB
:106E0000A96B04F51C70022200F086FCE96B04F506
:106E10002370022200F080FC296C04F52A70022203
:106E200003B0BDE8F04000F077BC00BFB80B002015
:106E30007C120020ED62000809900008B0AD010846
:106E4000C0AD0108D0AD0108E0AD01081EAF0108DA
:106E500025AF0108F962000800000020A96F0008B2
:106E600070B519490646194802F030F81021184843
:106E7000202201F0BBFE1548164902F027F81448FD
:106E800001F088FD1F28FADD1048134902F01EF8B2
:106E90000A24102C0E4808BF002401F083FD06EBE5
:106EA00044050002A8810A4801F07CFDAB89092C49
:106EB00043EA0000A88101D00134EAE7034807490A
:106EC000BDE8704002F002B8A2AD0108541F0020D6
:106ED000841D0020B2AD0108C2AD0108D2AD010889
:106EE00070B5102106460C4801F094FE00243319B9
:106EF0001D8A0948290A01F09BFD02340648E9B2BF
:106F000001F096FD0C2CF2D1034801F0EBFED0F11C
:106F1000010038BF002070BD841D002070B50A2616
:106F200071430446A1F50855FFF79AFF638A2E3D89
:106F300023F4FF7395FBF6F523F001031D436FEA7D
:106F400045456FEA554565822046FFF7C9FF204653
:106F5000FFF786FF238C5A04F9D52046FFF780FF00
:106F6000638A2046C3F30E036382FFF7B9FF20460E
:106F7000FFF776FF238C5B04F9D470BD38B50C465F
:106F80000546FFF76DFF002C03DB0F2CA8BF0F2475
:106F900000E00024EB8A284623F00F031C43EC8218
:106FA000BDE83840FFF79CBFF0B5D31D8DB023F08E
:106FB000070300AF0646ADEB030D1546384602F059
:106FC00065F869466A1C0023384602F017F9314615
:106FD00007F1100002F05AF8BB6907F1200007F131
:106FE00010011D22013302F021F9BA696C4602F149
:106FF000080323F00703ADEB030D0132002307F173
:107000002000694602F0FAF846486946FFF7A6FCF8
:1070100045482146FFF7A2FC07F12000434902F052
:10702000DAF8C8B142484349FFF798FC2046424984
:10703000FEF75EFD28B9FFF775FD40483D49FFF7B3
:107040008DFC20463E49FEF753FD28B93D4839499D
:10705000FFF784FCFFF786FD07F120003A4902F0B4
:10706000BAF800B339483349FFF778FC204638496D
:10707000FEF73EFD10B9374B586C12E020463649FA
:10708000FEF736FD10B9334B986C0AE020463349C1
:10709000FEF72EFD10B92F4BD86C02E0384602F0F7
:1070A000EBF8FFF721FD07F120002D4902F093F8DE
:1070B00050B120492B48FFF751FC384602F0DCF86C
:1070C00001462948FFF72AFF07F12000274902F06F
:1070D00082F850B117492648FFF740FC384602F0C5
:1070E000CBF801462048FFF749FF07F1200021496E
:1070F00002F071F838B120480E49FFF72FFC1F4805
:10710000214600F0B7F907F1200001F07DFF07F1FB
:10711000100001F079FF384601F076FF3437BD46A4
:10712000F0BD00BFE2AD0108F5AD01080AAE0108EF
:1071300018AE01082BAE010846AE010833AE0108B7
:107140005CAE010849AE010860AE01086CAE0108F2
:107150004AAF0108000000207DAE010881AE0108A1
:1071600086AE01089CAE0108C4100020B7AE01082D
:10717000C9AE0108E0AE0108ECAE0108780C0020B1
:1071800038B500210446008801F0FAF9A0880021F2
:1071900001F0F6F9A088002101F06CFA20880021A6
:1071A00001F068FA0120254D01F096FB20880121AD
:1071B00001F060FA012001F08FFB2149284601F01F
:1071C00085FE204801F05AFC1F49284601F07EFE4A
:1071D0002046FFF745FE1D49284601F077FE4FF493
:1071E000014363832046FFF77BFE1949284601F0DF
:1071F0006DFE4FF4FA7001F06FFB2046FFF730FE92
:107200001449284601F062FE44F201032382A38A56
:10721000204643F4C053A382E38A23F00F0343F0D4
:107220001103E382FFF75CFE28460B4901F04EFE96
:10723000BDE838406E2001F04FBB00BF541F002056
:10724000FDAE0108841D002004AF01080BAF01084A
:1072500012AF010819AF010820AF010810B50549A8
:107260000446054801F032FE2046BDE81040FFF715
:1072700087BF00BF27AF0108541F00207FB52F4DE7
:10728000684600F069FF0023684605F1A401192251
:1072900001F0B4FFFFF73AFB294A05F59A704FF465
:1072A0007A7100F0B4F9274CC5F8C4020021B4F893
:1072B000500001F065F92088002101F061F9A088F3
:1072C000002101F05DF92089002101F059F9A08D1C
:1072D000002101F055F92088002101F0CBF9A088A8
:1072E000002101F0C7F905F20C56B4F85000012155
:1072F00001F0C0F93046FFF7B1FF30460F21FFF72C
:107300003DFE304640F26F31FFF708FE4FF4FA7051
:1073100001F0E2FA2088012101F0ACF9A0880121F6
:1073200001F0A8F905F1C000616D00F077F8FFF7F2
:10733000F9FB684601F068FE04B070BDB80B002090
:107340000D6900080000002038B580E80E004FF4F9
:10735000AF73002583631E2304468362C560056105
:1073600045618561C561456288B2294601F008F929
:10737000A088294601F004F92089294601F000F986
:10738000204638BD01238361704710B500210446B3
:10739000008801F0EBF9A088002101F0E7F92089CD
:1073A0000021BDE8104001F0E1B900228261FFF741
:1073B000ECBF836970B5012B04461DD102696423BB
:1073C00092FBF3F201FB02F64269416292FBF3F297
:1073D00001FB02F5C268008892FBF3F35943C9B27E
:1073E00001F0C4F9A088F1B201F0C0F92089E9B236
:1073F000BDE8704001F0BAB970BD416AFFF7D9BF6E
:107400008269012A09D1426A0AB9816A03E0052A20
:10741000CCBF05210021FFF7CCBF704781624162DC
:107420007047C26A436B10B59A4204460DD9C369CE
:107430000BB9FFF7AAFFE369A26BD3F1010338BFD1
:107440000023E361E36A1344636310BD10B504468F
:1074500001F040FA94F82130E06213B12046FFF7C2
:10746000E0FFA369012B04D12046BDE81040FFF7DF
:10747000C4BF10BD38B5002304460D4680F8203047
:1074800080F8213008462649FEF732FB18B9FF2361
:10749000E3602361636128462249FEF729FB18B99E
:1074A000FF23E3602061606128461F49FEF720FB4F
:1074B00018B9FF23E0602361606128461B49FEF78D
:1074C00017FB18B9FF23E060206163612846184963
:1074D000FEF70EFB18B9FF23E060236163612846C5
:1074E0001449FEF705FB18B9FF23E36020616361CF
:1074F00028461149FEF7FCFA18B9FF23E36023611F
:10750000606128460D49FEF7F3FA20B9FF23E360D6
:10751000A523236160612046BDE83840FFF76DBFB9
:107520002FAF010865AD01085FAD010835AF010857
:107530003AAF01083FAF010847AF01084EAF01085D
:1075400013B5084C002100910A460B46204601F075
:107550003BFC0549054A204602B0BDE810400CF04E
:10756000D7BE00BFF4100020ED6200087C1200209E
:1075700038B5044601F0AEF9234600216518013103
:1075800000220A2985F8C82003F104035A6243F84F
:10759000040CC3F89C20F1D1C4F8FC20204638BD6F
:1075A000D0F8FC30092B0ADC002300EB8302926A3E
:1075B0001AB101330A2BF8D101E0184670474FF099
:1075C000FF3070472DE9F04104460F4616469846B5
:1075D000FFF7E6FF051E16DBAEB104EB850063196D
:1075E000012207658662C0F8788083F8C82001F020
:1075F00071F944F82500D4F8FC3028460133C4F86A
:10760000FC30BDE8F0814FF0FF30BDE8F081002391
:10761000FFF7D8BF092910B511DCD0F8FC4074B1D0
:1076200000EB81039A6A52B100220144013C9A6244
:1076300081F8C8201A65C3F8A020C0F8FC4010BD2E
:1076400070B5064601F046F906F124030022002138
:10765000C3F8B01053F8041FE9B153F8281C9C6A12
:10766000451AA54217D3214443F8281CB11891F8B4
:10767000C81081B1196D09B901210AE09C6F8C42D3
:1076800009DA01252C448C42C3F8AC509C6702DB1C
:107690000221C3F8AC1001320A2AD8D134460025A1
:1076A000D4F8D430012B08D0022B08D1A36A984714
:1076B00030462946FFF7AEFF01E0A36A984701353F
:1076C0000A2D04F10404EBD170BD092903DC014447
:1076D000012381F8C8307047092903DC01440023E5
:1076E00081F8C8307047000013B5084C00210091A4
:1076F0000A460B46204601F067FB0549054A20462D
:1077000002B0BDE810400CF003BE00BFFC1000202A
:10771000ED6200087C120020F8B58EB204460D46DA
:1077200030461146174600F02BFF4FF4FA62002353
:10773000022FE2604FF001020CBF627263723046AA
:10774000636025602374A3720CBF23722272617A76
:1077500000F090FF2046F8BD10B5044601F0BAF8DD
:107760006061208800F0C8FFA27A6060237C4AB97B
:10777000B3B9217A884213D10123A37201F0AAF888
:10778000A0611AE063B9217A884209D1A369E2684D
:107790001A446369934210D901232374482010BD11
:1077A000617A884209D10AB92D2002E0002BFBD171
:1077B00050200023A372237410BD2D2010BD0000A3
:1077C00013B5084C002100910A460B46204601F0F3
:1077D000FBFA0549054A204602B0BDE810400CF00E
:1077E00097BD00BF04110020ED6200087C1200204C
:1077F0002DE9F04115461FFA81F804460E46404631
:10780000AFB2022100F0BCFE3846022100F0B8FE03
:107810004046012100F02EFF3846012100F02AFFEA
:107820000123E36023616361A36100236660A560B7
:10783000E36123626362A3622046BDE8F081002316
:1078400010B504460370808800F056FFE060208980
:1078500000F052FFE36862692061934202D1A2699D
:1078600090423CD0012B6361A06106D1012801D177
:10787000002309E048B9032306E033B9012801D108
:10788000E06102E008B90223E361E369226A23624E
:107890009A1A82EAE271A1EBE271022962620DD0CA
:1078A000012A01D0D01C02D1A26A013205E0511C8C
:1078B00001D0032A02D1A26A013AA2627BB9A26A6C
:1078C000002A04DDA362012323703E2010BD04D0F2
:1078D00001222270A3623C2010BD2370A3622D20E0
:1078E00010BD000013B5084C002100910A460B465C
:1078F000204601F069FA0549054A204602B0BDE874
:1079000010400CF005BD00BF0C110020ED62000816
:107910007C120020013101EB420291420BD0030F97
:10792000092B94BF3033373301F8013C00230001A9
:1079300001F8023BF1E770471F4B10B51A88032A84
:1079400004D804200146188006F050FC4FF0006077
:107950004FF4A04106F040FC0124184B1848214682
:107960001C7006F04FFE05F0F7FC05F0CDF921463E
:10797000402007F011F86FF07F4005F047FBE7204B
:1079800005F0C0FB0F4B1C7005F008FA7D2007F0D6
:1079900033F818B10C4B1C7007F042F840F6B830C1
:1079A00005F065FA05F0AEFF06F01EFA074A01235E
:1079B0001370074A137010BD4C2000202C200020AB
:1079C00000043000911F0020F0290020F01F00204B
:1079D000AC1F002038B52F4C2388042B04D8052178
:1079E0000420218006F002FC2B4D2B7813B12B488C
:1079F00002F0CCF92B7853B12388052B05D8254B01
:107A000006210420198006F0F1FB02F053FA2B78CE
:107A100063B1234B1B784BB9224B1B7833B1224BFC
:107A20001B781BB9214B1B78002BE3D0204B1B7814
:107A3000002BDFD11F4B1B78002BDBD11B4B1B789E
:107A4000012B0FD01C4B6BB12388062B05D8114B93
:107A500007210420198006F0C9FBFFF70FFC134B28
:107A600001221A70154B002BC4D02388072B05D890
:107A7000084B08210420198006F0B8FBFFF7D2F864
:107A80002388082BB6D8034B09210420198006F05F
:107A9000ADFBAFE74C200020F01F002089820008DA
:107AA000A51F0020AC1F00208F1F002014110020F4
:107AB000901F0020F02900207D720008256C00082E
:107AC000F8B5524B1A6812B11A68013A1A60504B55
:107AD000504D1B783BB1504B1B78002B28D04F4B9F
:107AE000002B47D124E04E4C2368264613B123686F
:107AF000013B0FE04B4B1B78D3B94B4B1B78BBB909
:107B00004A4B1B78A3B94A4F3B782BB1E72005F0CD
:107B10006DFB142323600BE02B78002B2DD1E72085
:107B200005F01EFB434B1B78002B34D0322333600F
:107B30002B7833B1404C23781BB92EE05A680132C0
:107B40005A603E4B1A68B2F57A7F0FD300221A6052
:107B500006F080FE3A4B4FF6FF711A888A4254D0E5
:107B600019800420BDE8F84006F040BB1A680132D5
:107B70001A60F8BD00F0D0FBDAE7324B1B78002B1F
:107B8000CDD04FF6FF7005F041FAE72005F0BAFAC4
:107B900001233B70CCE76423C9E7234B1B788BB1EF
:107BA000294B47F22F5259689142C7D9BFF34F8FE3
:107BB000264A274BD16801F4E0610B43D360BFF341
:107BC0004F8FFEE7174D2B7803F0FF0633B9304691
:107BD00005F014FC40F6B73398420DD8002005F0AC
:107BE0000DFC41F657339842ABD9002005F00EFC4E
:107BF000184B01221A70A4E7304605F007FC2378E1
:107C0000002B9ED101232B709BE7F8BDF8290020A3
:107C10000C200020F01F0020B01400201983000861
:107C2000F42900208C1F0020901F0020921F0020AC
:107C3000911F00208E1F0020A51F0020FC2900207E
:107C40004C2000208F1F00201411002000ED00E0C8
:107C50000400FA05941F002008B5094B186005F0D0
:107C6000F7FD002005F040FE064805F071F805F02C
:107C700007FE05F025FEBDE8084007F0B9BD00BFCE
:107C800024020020A0860100074B1B68052B08D1A9
:107C9000064B1A7A012A04D1987A1B7BC01AC0B20B
:107CA00070470020704700BF5020002014110020B2
:107CB0000D4B10B51B68052B13D10C4C237A012BEF
:107CC0000FD16289A389D31A012B04D10023032089
:107CD000237207F0E4FEA3895A1CA2811C44A07BF6
:107CE00010BD4FF0FF3010BD5020002014110020B7
:107CF00008B50C4B1B68052B12D10B4B1A6D99184C
:107D00000132B2F5807F08BF002281F854001A6565
:107D100005F06CFC20B16420BDE8084005F018B8FF
:107D200008BD00BF5020002014110020F8B5234BDF
:107D300093F85421012A3FD0D3F85821196DB2F598
:107D4000807F04BF0022C3F85821D3F858411B4A52
:107D50008C4203D1002382F85431F8BD8CBFC4F5A6
:107D60008071C4EB0101C2F85C11D3F85C61134D62
:107D7000402EA2B207D94034403EC5F85841C5F85C
:107D80005C61402706E034440021B7B2C5F8584191
:107D9000C5F85C110A4801241044C0213A4683F812
:107DA000544107F0F7FD2046394607F0FBFE204618
:107DB000BDE8F84007F060BEF8BD00BF1411002018
:107DC00068110020094B10B593E8140008331B68B4
:107DD000D0180AD006490822FFF79CFD2046054925
:107DE0000422BDE81040FFF795BD10BDE8F7FF1F66
:107DF000D3010020E301002013B5084C00210091BD
:107E00000A460B46204600F0DFFF0549054A20469A
:107E100002B0BDE810400CF07BBA00BF7412002025
:107E2000ED6200087C12002038B504460D46AC42D5
:107E300003D254F8043B9847F9E738BD08B5074822
:107E40000749FFF7F1FF07480749FFF7EDFFBDE8D6
:107E5000084006480649FFF7E7BF00BF68B40108BD
:107E600068B4010868B40108CCB40108CCB40108B6
:107E7000CCB401080CF0B8BB08B5072006F0D8F860
:107E8000FEE70000074A08B5136818441060064A68
:107E9000904204D9082006F0CBF80CF067FA184697
:107EA00008BD00BF58000020004800204FF0FF3000
:107EB00070470120704708B50C2006F0B9F8FEE7BE
:107EC000014B1868704700BF80120020064B024625
:107ED000582000FB013101F1080303CB1060516011
:107EE00018689060704700BF80120020014BD3F8E3
:107EF0006401704780120020064B0246142000FBEC
:107F0000013101F5B67303CB1060516018689060C1
:107F1000704700BF8012002038B50546064C28B1D6
:107F200005F016F9012384F8303238BD05F0BEF8AB
:107F300084F8305238BD00BF801200200E4B2DE96E
:107F4000F041D3F8647180460024BC4211DA142554
:107F50006543094E414606F5B67028440C220DF0E3
:107F600031FA20B93544D5F86801BDE8F081013413
:107F7000EBE70020BDE8F08180120020044B0122D5
:107F80001A70044B00224FF4C0201A6005F020BD87
:107F9000901F002018110020034A00231370034A89
:107FA000136005F079BD00BF901F0020181100205C
:107FB000024B00221A6005F031BD00BF18110020ED
:107FC0002DE9F04788B0804668460D4601F05EF81E
:107FD0001E4B0024D3F800A054452DDA55B3582683
:107FE00066431A4F414607F1080030440C2207F15E
:107FF00004090DF0E7F9E8B928460DF0B3F906F1E8
:108000001003402834BF02464022294609EB0300F2
:10801000FDF7F8FC3E44012386F85830694604A871
:10802000746801F055F804A8A047044604A800F0BD
:10803000EBFF03E00134CFE74FF0FF34684600F078
:10804000E3FF204608B0BDE8F08700BF80120020A3
:1080500010B5064C206803F06DF92368013303D096
:10806000431E5842584110BD012010BD5C00002045
:1080700070B50B4B05461B780C4673B9094B1B7842
:108080005BB9FFF7E5FF034638B9074A2946106890
:108090002246BDE8704004F007B94FF0FF3070BDD4
:1080A000A41F0020A51F00205C0000202DE9F04146
:1080B000264B86B01B7880460F46002B41D1244BBF
:1080C0001B78002B3DD1FFF7C3FF0446002838D1B1
:1080D000204D8DF80C008DF80D008DF80E008DF8F8
:1080E0000F00286806AA460902EB8606012100F067
:1080F0001F02914056F80C2C01300A4346F80C2C14
:1081000041F28832059204AA009203A9224623462E
:10811000049403F0ABFF002815DD2B6806AA59096B
:1081200002EB810151F80C5C03F01F02154115F0C0
:10813000010008D0184641463A46234604F036F876
:1081400001E04FF0FF3006B0BDE8F081A41F002031
:10815000A51F00205C000020F0B5144985B006463C
:1081600000F094FF124B01AC93E8070084E807008D
:108170000025675D30463B0903F13001392984BF92
:1081800003F15701C9B207F00F0700F0D4FF07F160
:108190003001392984BF5737F9B23046013500F034
:1081A000CAFF0C2DE5D1304605B0F0BD1CB1010869
:1081B000E8F7FF1F30B51E48ADF5797D07F05DFD8E
:1081C000002832D11B4B15A804931B4B5FAD0593C0
:1081D0001A4B039006931A4B0CAC0793194B02955C
:1081E0000893194B0993194B0A93194B0B93194B8D
:1081F0000C93194B0D93194B0E93194B0F93194B6D
:108200001093194B1193194B1293194B1393194B4C
:10821000149305F087FC284605F08AFC0094044876
:10822000154902AA04AB07F02FFD0DF5797D30BD8D
:10823000B414002071800008AD8000087D7F000824
:10824000997F000861DB0008B17F0008197F0008F2
:10825000D5880008C17E0008CD7E0008C17F0008D7
:10826000ED7E0008F97E0008258500083D7F0008A6
:108270003DDB000851DB0008E8F7FF1F014808F06C
:1082800034BB00BFB414002030B502208DB00146CD
:10829000112203F031FE051E28DB07A8144907F060
:1082A00016FE0223ADF80C3016238DF80E30332362
:1082B0008DF80F30E0238DF8103000238DF8113049
:1082C00001238DF81230BB238DF81330032403AB48
:1082D000009310230193284607A91322002303F0DB
:1082E000EDFF013CF3D1284603F034FE0DB030BD64
:1082F000E8F7FF1F10B5074CFFF75CFF204607F0BB
:10830000BFFC204608F033F80446FFF7BDFF2046C7
:1083100010BD00BFB414002038B5114CD4F8445A35
:108320002DB1D4F8443A013BC4F8443A38BDD4F8EE
:10833000483A0C4A52F8230004F090FEE72004F07B
:10834000E1FE6423084AC4F8443AD4F8483A526833
:1083500001339342C4F8483AA8BFC4F8485A38BD1C
:1083600080120020B88201085C0000207FB5022046
:108370000121062203F0C0FD041E24DB0223ADF818
:10838000003000238DF8023035238DF803304FF490
:10839000FA5008238DF804308DF805308DF806303A
:1083A0008DF8073001F0EAFC6946102205462046A8
:1083B00003F02EFE0646284601F0E0FC204603F0BE
:1083C000C9FD304601E04FF0FF3004B070BD000041
:1083D00010B5064C2068002805DB03F0BBFD4FF00C
:1083E000FF33236010BD002010BD00BF5C000020E3
:1083F000F0B5A7B0FFF7ECFF02200121062203F041
:108400007BFD324F0028386050DB314D0223A5F848
:108410004C3A162385F84E3A05A8332385F84F3A8F
:1084200005F04CFB002300939DF814303BB1012B69
:1084300017D0284B01AC03F1100E224602E0069B38
:10844000009313E018685968264603C6083373453D
:108450003446F7D10FCA06AC07C424F8023B1B0C04
:1084600023700A24009B0BB9013C22D1009B0BB95D
:10847000194B0093009B4FF4FA501A0E85F8502ABE
:108480001A0C85F8512A1A0A85F8533A85F8522AA7
:1084900001F074FC114904461022386803F0B8FD5D
:1084A0000546204601F06AFC28460CE04FF0FF30FC
:1084B00009E006A87E210DF011F86A4681B206A8EF
:1084C00003F06EFDCEE727B0F0BD00BF5C000020DA
:1084D0008012002055AF010804E5D036CC1C0020E6
:1084E0000F4B2DE9F041D3F8647180460024BC4263
:1084F00011DA142565430A4E414606F5B670284444
:108500000C220CF05FFF20B9354495F87801BDE8E6
:10851000F0810134EBE74FF0FF30BDE8F08100BFA0
:108520008012002008B5FFF7DBFF0138082803D8C8
:10853000024B1844007F08BD022008BDB882010824
:1085400003F066BD37B50B4C002104F65C250B46E5
:1085500000910A46284600F037FC28460649074A9B
:108560000BF0D6FE04F50D7003B0BDE8304007F007
:108570006FBB00BF80120020ED6200087C1200205B
:1085800014282DE9F34104460E4669D8FF2967D027
:1085900000F002FD20B1A4F10D039BB2022B5FD9C4
:1085A00000F0A6FB08B1012C5AD901F095F920B1D1
:1085B000A4F112039BB2012B52D92B4D24012B198C
:1085C0002F59B3F80480294B9F4201D1042003E0C6
:1085D000274B9F4203D10820012106F0E9F9ADF8AD
:1085E0000480062E38D8DFE806F0040D13191F2882
:1085F000310010238DF8073003238DF806302C440A
:10860000002328E004238DF807302C44012322E0C6
:1086100048238DF807302C4402231CE028238DF8D2
:1086200007302C44032316E018238DF8073003236A
:108630008DF806302C4404230DE01C238DF8073000
:1086400003238DF806302C44052304E000238DF825
:1086500007302C440623A373384601A905F07AFF9E
:1086600002B0BDE8F08100BF6400002000080140B6
:10867000000C01401428F8B505460F4638D81D4EA9
:10868000040133199B7B5A1ED2B2022A30D9062B21
:108690002ED0FF2B2CD000F07FFC28B1A5F10D03CC
:1086A0009BB2022B00D8F8BD00F022FB10B1012DC7
:1086B00000D8F8BD01F010F928B1A5F112039BB262
:1086C000012B00D8F8BD33199B7B042B03D128461E
:1086D0000021FFF755FF012F04D132193359928839
:1086E0001A61F8BD27B93219335992885A61F8BD19
:1086F000F8BD00BF64000020142870B5044602D9FC
:108700004FF0FF3070BD184E050173199B7B013B84
:10871000DBB2FD2BF4D800F03FFC20B1A4F10D0337
:108720009BB2022BECD900F0E3FA08B1012CE7D997
:1087300001F0D2F820B1A4F112039BB2012BDFD9D2
:1087400073199B7B062B09D1074B93F850114B1ED5
:10875000DBB2FD2BD4D82046FFF712FF73197059F6
:10876000998805F045FF70BD640000202DE9F043B5
:10877000142889B00446884600F29E80504F0601B6
:10878000BB199B68002B00F0978000F005FC28B116
:10879000A4F10D039BB2022B40F28E8000F0A8FAE8
:1087A00010B1012C40F2888001F096F820B1A4F1BC
:1087B00012039BB2012B7FD9BD19AB7B13F0FB0FCA
:1087C0007AD1404B01201A683F4B0146B2FBF3F9C6
:1087D0004BF6803303FB08F8FF2398FBF3F806F011
:1087E000E7F820460421FFF7CBFEAB6809F1FF391B
:1087F000B3F1804F1FFA89F91FFA88F802D10120DE
:10880000014609E0314A934208BF022003D0304AB2
:10881000934203D10420012106F0D6F8BC190025AB
:108820004BF67F33A06801A9ADF80830ADF80A50C7
:10883000ADF80650ADF8049006F0BEF96023ADF82F
:108840001850A589ADF810300123ADF81230ADF8FD
:10885000168045B9A06804A906F0F8F9A0680821B7
:1088600006F034FB1FE0042D08D1A06804A906F02F
:1088700031FAA068082106F031FB14E0082D08D178
:10888000A06804A906F06AFAA068294606F030FB41
:1088900009E00C2D07D1A06804A906F0A1FAA06890
:1088A000082106F02DFB3E44B068012106F002FBD2
:1088B000B068012106F0DBFA09B0BDE8F08300BF23
:1088C000640000201403002000366E010004004004
:1088D0000008004005F07EB930B54FF47A7385B0DA
:1088E0001C4C0093236805460344236005F072F98D
:1088F000019005F0AFFF05F06DF90290029A019B1F
:10890000D31A0393039B002B03DA019B029A1344AF
:108910000393039BAB421AD20F4B1B78002BE8D07A
:108920000E4B1B78002BE4D1039A009B9A4203D292
:108930002368B3F57A7FDCD3039B03F57A73009346
:1089400001F0B8FA064B1B78002BF9D1D1E705B03E
:1089500030BD00BFA01F0020F01F0020A51F002079
:10896000901F002013B5084C002100910A460B46C9
:10897000204600F029FA0549054A204602B0BDE824
:1089800010400BF0C5BC00BF101D0020ED620008B8
:108990007C120020024B18785B78C01A704700BF29
:1089A000181D0020064B5A781978914204D999185D
:1089B000013288785A7070474FF0FF30704700BF1F
:1089C000181D0020054B5A781978914202D913449A
:1089D000987870474FF0FF30704700BF181D002097
:1089E00070470000014B0360704700BF28830108F7
:1089F00010B5034B04460360FFF73CFA204610BD58
:108A000028830108F8B5094B054693F8223016462D
:108A100053B10C468F18BC4206D02B6828469B6881
:108A200014F8011B9847F6E73046F8BD181D0020E2
:108A300010B50C4B012293F822408CB193F82340DF
:108A40001F2C02D94260002010BD93F824001C188E
:108A500084F82510411CC9B283F8241083F8231030
:108A6000104610BD181D0020002242604FF47A729B
:108A70008260014A02607047E882010838B51C4CE8
:108A800000254FF4001001216570257084F82450F2
:108A900084F8235005F098FF01200521FFF770FDB1
:108AA00028460521FFF76CFD124805F0F1FD4BF655
:108AB000FF73A4F84E3094F85830A4F84C500BB91A
:108AC000A4F850304FF48063A4F852304FF4804340
:108AD000A4F85430084B07480849A36405F0F2FD98
:108AE0000448012105F05CFE012384F8593038BDAB
:108AF000181D002000540040A0860100601D0020C9
:108B00002DE9F84333480C46012190461F4605F0F5
:108B100053FEFFF7DFFE05462E482F4905F07CFE89
:108B200028B9FFF7D7FE401B0A28F5D927E02146D0
:108B30002848012205F069FEFFF7CCFE04462548CF
:108B4000264905F069FE28B9FFF7C4FE001B0A2874
:108B5000F5D914E0FFF7BEFEB8F1200F28BF4FF0A3
:108B6000200806460024E5B2C5EB080313F0FF0910
:108B700008D0FFF7AFFE801B09280ED902E00020C5
:108B8000BDE8F8831348012105F02EFE144B0022A6
:108B90005A701D702846BDE8F883B9F1010F09D15C
:108BA000012F07D10B48002105F01EFE0948394668
:108BB00005F00EFE07480B4905F02EFE0028D8D020
:108BC000044805F01FFE084B1855FFF783FE0134DB
:108BD0000646C8E7005400400100030002000300FD
:108BE000181D0020400003001A1D0020C9B2D2B297
:108BF0000123FFF785BF0000054B012283F82220E7
:108C0000002283F85A1083F8242083F82320704729
:108C1000181D0020C9B2FFF7EFBF00002DE9F04199
:108C20002A480E46012105F0C7FDFFF753FE044612
:108C30002648274905F0F0FD38B9FFF74BFE001B29
:108C40000A28F5D90420BDE8F081224C1F4894F889
:108C50005A10002205F0D9FDFFF73CFE05461B48DF
:108C60001D4905F0D9FD28B9FFF734FE401B0A283D
:108C7000F5D9E7E794F823700025EBB29F4215D0B1
:108C8000164B1248595D05F0BBFDFFF723FE8046E9
:108C90000E48134905F0C0FD30B9FFF71BFEC8EBC5
:108CA00000000A28F4D9CDE70135E6E7012E03D10B
:108CB0000648314605F08CFD002084F8240084F835
:108CC000230084F82200BDE8F08100BF005400407A
:108CD00001000300181D0020820007003D1D002038
:108CE000840007000121FFF799BF7047704700001B
:108CF000014B93F859007047181D002073B50E4CB6
:108D0000002104F164050D4E0B4600910A462846E9
:108D100000F05AF86C343246094928460BF0F8FA4C
:108D20002046FFF7A1FE07492046324602B0BDE8C3
:108D300070400BF0EDBA00BF181D00207C1200201F
:108D4000ED620008E589000808B5034B53F82030B0
:108D500003B1984708BD00BF941D002013B5084C0F
:108D6000002100910A460B46204600F02DF80549E7
:108D7000054A204602B0BDE810400BF0C9BA00BF5A
:108D8000D41D0020ED6200087C1200202DE9F04186
:108D9000002407460E4625463B1919790A2230461B
:108DA00000F0C8F82E218046304600F07EF80134ED
:108DB0004044032C0544EFD13046F9790A2200F0F3
:108DC000B9F82844BDE8F08130B58371034D9DF8B2
:108DD0000C30056001714271C37130BD1083010810
:108DE000024A02600A684260704700BF10830108AF
:108DF0000548064B06490360064A00230371437188
:108E00008371C3710BF084BADC1D0020108301084C
:108E1000ED6200087C12002013B5084C002100917F
:108E20000A460B462046FFF7CFFF0549054A204674
:108E300002B0BDE810400BF06BBA00BFE41D00208B
:108E4000ED6200087C120020014B0360704700BFF8
:108E500028830108F8B506460C468F180025BC4249
:108E600007D0336830469B6814F8011B98470544C7
:108E7000F5E72846F8BD000010B5034B0446036033
:108E8000FEF7F8FF204610BD2883010838B50546D7
:108E90000C46084641B10CF065FA2B680246DB68C7
:108EA00028462146984738BD38BD08B503689B68F9
:108EB000984708BD38B50D210546FFF7F6FF0A2192
:108EC00004462846FFF7F1FF204438BD38B5044674
:108ED000FFF7DCFF05462046FFF7ECFF284438BDCE
:108EE00030B500238BB08DF82430012A98BF0A22B8
:108EF0000DF12304B1FBF2F303FB1211CDB2092DE6
:108F000094BF30353735EDB2214604F801590BB125
:108F10001946EFE7FFF7BAFF0BB030BD10B522B925
:108F20000268C9B29268904710BDD2B2BDE8104045
:108F3000FFF7D6BFFFF7F2BF13B5084C0021009131
:108F40000A460B462046FFF73FFF0549054A2046E3
:108F500002B0BDE810400BF0DBB900BFF41D0020EB
:108F6000ED6200087C12002013B5084C002100912E
:108F70000A460B462046FFF727FF0549054A2046CB
:108F800002B0BDE810400BF0C3B900BFFC1D0020CB
:108F9000ED6200087C120020014B587D704700BF35
:108FA000041E00207047000013B5084C00210091FA
:108FB0000A460B462046FFF707FF0549054A2046AB
:108FC00002B0BDE810400BF0A3B900BF1C1E00208A
:108FD000ED6200087C12002013B5084C00210091BE
:108FE0000A460B462046FFF7EFFE0549054A204694
:108FF00002B0BDE810400BF08BB900BF281E002066
:10900000ED6200087C12002010B5044600680BF0E9
:10901000EBFA204610BD10B50446006808B10BF00D
:10902000E3FA00232360A360636010BD38B50446F3
:109030000D46006801310BF0CDFE10B184E821002F
:10904000012038BD036810B5044613B143688B4254
:1090500007D22046FFF7EAFF20B1A3680BB92268C8
:109060001370012010BD70B50E461146044615461A
:10907000FFF7E8FF18B92046FFF7CDFF04E0A56031
:10908000206831460CF010F9204670BD38B5002339
:10909000044603604360836003730D4639B108469C
:1090A0000CF060F9294602462046FFF7DCFF204617
:1090B00038BD884210B50B46044607D0096819B17F
:1090C0009A68FFF7D0FF01E0FFF7A5FF204610BD2B
:1090D00010B5002304460360436083600373FFF709
:1090E000E8FF204610BD38B505460C4641B108469C
:1090F0000CF038F9214602462846FFF7B4FF01E09C
:10910000FFF789FF284638BD70B5044685680E46CE
:1091100009B9002070BD62B115442946FFF792FFDE
:109120000028F6D02068A368314618440CF0BCF83B
:10913000A560012070BD07B500238DF80410012241
:1091400001A98DF80530FFF7DFFF03B05DF804FBE0
:109150000B4610B509689A680446FFF7D5FF10B9A9
:109160002046FFF758FF204610BD38B504460D468F
:1091700041B108460CF0F6F8294602462046FFF7B2
:10918000C3FF10B92046FFF746FF204638BD0368ED
:109190000A680BB15AB905E022B1896811B110789B
:1091A000404270473BB1806830B11878704718462C
:1091B0001146FCF79DBC1846704708B582688B685D
:1091C0009A4206D1FFF7E3FFD0F1010038BF00203B
:1091D00008BD002008BD826808B50B4612B919B950
:1091E000012008BD11B90368187802E00068FCF797
:1091F0007FFCD0F1010038BF002008BD38B50C4617
:109200009AB191B181688B4202D30023237038BD9B
:10921000C91A551E8D4228BF0D4601682A461944B9
:1092200020460CF029F90023635538BD9A422DE9F8
:10923000F04107460D4614461E4601D934461646EF
:1092400038460C49FFF722FFAB689C420FD89E427C
:1092500028BF1E462B68002213F806809A552968FD
:1092600038462144FFF73FFF2B6803F80680384655
:10927000BDE8F0811CB10108006808B10BF07EB8B0
:10928000704713B5026802AB03F8011DD468194694
:109290000122A04702B010BD10B5B0F81622B0F8F8
:1092A000143204469A4207D0B4F814325A1CA4F877
:1092B00014221C44207D10BD03681B6998470028B8
:1092C000F2D14FF0FF3010BD10B5B0F81622B0F853
:1092D000143204469A4204D0B4F814321C44207D5F
:1092E00010BD03681B6998470028F5D14FF0FF3087
:1092F00010BD0023A0F81432A0F816327047F8B55C
:109300001746B0F81432B0F8162204469A420E46B8
:1093100006D103681B69984710B94FF0FF3512E07A
:10932000B4F81432B4F81652E118ED1ABD4228BF51
:109330003D46304614312A46FCF764FBB4F814323B
:109340002B44A4F814322846F8BD10B50446006931
:10935000082801D002F0FEFD0823236110BD30B5BE
:10936000B0F8163287B0044633B1B0F814229A42EE
:1093700002D10368DB69984700F040FB022838D12E
:109380002069082835D0B4F81632B3F5007F30D202
:10939000430906AA02EB8303012100F01F0291405A
:1093A00000258DF80C508DF80D508DF80E508DF86D
:1093B0000F5053F80C2C01300A4343F80C2C41F2A7
:1093C0008833059304AB009303A92A462B460495E2
:1093D00002F04CFEA8420CDD206906AB420903EB0B
:1093E000820252F80C2C00F01F0342FA03F3DB0751
:1093F00006D4B4F81602B4F81432C01A07B030BD5F
:10940000B4F816222B46A1181431C2F5007202F0EE
:10941000CDFE0028EDDDB4F816320BB9A4F81432F5
:109420000344A4F81632E4E7F0B585B004460D46CF
:10943000164600F0E3FA0228074634D1012106223D
:1094400002F05AFD002820612DDB23682046DB69ED
:109450009847330A8DF802302B794FF4FA508DF883
:1094600004306B798DF803608DF80530AB79ADF879
:1094700000708DF80630EB798DF8073000F07EFC37
:109480006946054610222069FFF75AF80646284625
:1094900000F074FC002E04DA23682046DB6A98474B
:1094A00001E0012000E0002005B0F0BD2DE9F04111
:1094B00088B006460F46904600F0A0FA02284FF00A
:1094C000000422D108AD384645F8144D0BF04AFF90
:1094D0002A4681B2384602F063FDA04215DD039BA7
:1094E00004A8DAB20092190EC3F30742C3F30723AC
:1094F000FFF76AFC336830461C6A064B06A90693E0
:10950000059B42460793A04700E0204608B0BDE80F
:10951000F08100BF108301084FF47A718160054922
:1095200000220160082142600161A0F81422A0F825
:109530001622704740830108036910B5082B0446C2
:1095400001D1002010BD00F059FA0228F9D120699C
:1095500001F0F0FED0F1010038BF002010BD70B561
:1095600004460E461546FFF7E7FF38B1206931463D
:109570002A460023BDE8704002F096BE4FF0FF304F
:1095800070BD38B50446FFF7D7FF01281BD0B4F8EB
:109590001622B4F814329A4217D12069082803D051
:1095A00001F0C8FE012801D000250FE02368204605
:1095B0001B699847051C18BF01253DB92368204643
:1095C000DB6A984702E0054600E00125284638BDE1
:1095D00008B5FFF7B1FF003018BF012008BD00003B
:1095E00013B5084C002100910A460B462046FFF7B0
:1095F000EBFB0549054A204602B0BDE810400AF0E1
:1096000087BE00BF301E0020ED6200087C120020E3
:1096100013B5084C002100910A460B462046FFF77F
:10962000D3FB0549054A204602B0BDE810400AF0C8
:109630006FBE00BF381E0020ED6200087C120020C3
:1096400038B5184C94F92C305BB394F82D3043B3F3
:1096500005F00EFA94F82C2094F82D5051B2002900
:1096600095FBF1F106DD01290BDC013A84F82C2091
:10967000002307E0013104DB013284F82C200223AF
:1096800000E0012394F82D20013A84F82D20C4181D
:1096900005F022FA204605F0FFF9BDE8384005F054
:1096A0001BBA38BD401E002013B5084C00210091A4
:1096B0000A460B462046FFF787FB0549054A204628
:1096C00002B0BDE810400AF023BE00BF701E0020AB
:1096D000ED6200087C12002013B5084C00210091B7
:1096E0000A460B462046FFF76FFB0549054A204610
:1096F00002B0BDE810400AF00BBE00BF7C1E002087
:10970000ED6200087C120020014B0360704700BF2F
:10971000288301080369186C5B6CC01A00F03F00D5
:1097200070470369196C5A6C914202D05A6C985C6C
:1097300070474FF0FF3070470369196C5A6C9142C3
:1097400007D05A6C985C5A6C013202F03F025A649E
:1097500070474FF0FF30704710B5034B044603606D
:10976000FEF788FB204610BD28830108436910B529
:109770000446196C5A6C9142FBD1237E13B9002325
:10978000237610BD0348402105F0F3FB0028F6D1F5
:10979000F3E700BF0044004070B504460E462C4875
:1097A00040F2277105F0EBFB20B963691A6C5B6C22
:1097B0009A4211D163691D6C013505F03F0563695B
:1097C0005A6C95420FD0EFF31082D20732D5196C44
:1097D0005A6C914207D12DE01D4840F227710122B9
:1097E00005F0A7FBE6E71A4840F2277105F0C7FB32
:1097F0000028E4D01648802105F0BBFB0028DED00D
:10980000134840F22771002205F093FB636910486A
:109810005A6C511C5964995C05F0A3FB63690C48B0
:109820005A6C40F2277102F03F025A64012205F09F
:1098300080FBC4E71A6C06489E54636940F22771A6
:109840001D64012525762A4605F073FB284670BD68
:109850000044004010B51E4840F2255105F08FFB32
:1098600078B11B4805F081FB1A4BC0B25A6D996D57
:10987000013202F03F028A4203D0596D5A65194401
:109880000875134840F2277105F079FBF8B1114CC7
:10989000D4F89C20D4F8A0309A4207D1BDE81040FB
:1098A0000B4840F22771002205F043BBD4F8A030EA
:1098B00007485A1C234493F85C10C4F8A02005F014
:1098C00050FBD4F8A03003F03F03C4F8A03010BD23
:1098D00000440040841E0020014B187C704700BFEC
:1098E000841E0020F7B5164C002504F1A406154F80
:1098F0002B4629462A4600953046FFF765FA3A4638
:10990000304611490AF004FD4FF47A73C4F8B430BC
:109910000E4B0F49C4F8AC3004F11403C4F8BC304A
:1099200004F1AC0004F15C033A46C4F8B050C4F84A
:10993000C03084F8C45003B0BDE8F0400AF0E8BC81
:10994000841E00207C120020ED6200088083010844
:109950000997000870474FF0FF307047014B0360D4
:10996000704700BF2883010810B5034B044603600D
:10997000FEF780FA204610BD28830108FEF798B94B
:1099800008B5FEF781F908BD08B50846FEF7B0F93D
:10999000012008BD002242604FF47A728260014AC1
:1099A00002607047A88301080846FEF755B9000019
:1099B00037B50D4C00210D4D0B4600910A4620464F
:1099C000FFF702FA2A460A49204608340AF0A0FCAA
:1099D0002046FFF7DFFF074920462A4603B0BDE8CF
:1099E00030400AF095BC00BF4C1F00207C120020C4
:1099F000ED6200085D99000870470000054B1B7878
:109A000003F0FF002BB1044B1B78002B14BF022086
:109A100001207047951F00208D1F002037B50B4C8B
:109A200000210B4D0B4600910A462046FFF7CCF96A
:109A30002A46204607490AF06BFC074904F1080052
:109A40002A4603B0BDE830400AF062BC641F002023
:109A50007C120020ED620008F999000800230360E1
:109A600018467047002303601846704700230360C0
:109A7000184670472DE9F0410B7886B0002B0C4654
:109A800014BF90464FF0000806460BF06BFC0746EB
:109A900020460BF067FC182301931E230125029337
:109AA00002230393059000950494404631463A46BC
:109AB000002302F037FD034B18705D7006B0BDE85F
:109AC000F08100BF701F002048F20202904210B5E2
:109AD00024D006DC992855D048F20102904213D0D8
:109AE00010BD48F28002904207D0B0F5084F4ED02A
:109AF00048F2100290425CD130E02E4B01229A7065
:109B0000DA7000221A7110BD2A4C01236371FEF72E
:109B1000E1FE00F5EA403030A06010BD254C6379CD
:109B20004BB100234FF47F40A36003F06FFAE720AE
:109B300003F0E8FA06E0237B13B1013B237301E055
:109B400001232377002363716377A377E37784F896
:109B5000203084F8213084F8223010BD0A7D154B66
:109B60006AB99A604FF47F4001225A7783F8212026
:109B700003F04CFABDE81040E72003F0C3BA00221E
:109B80005A7710BD0B4B012283F8232010BD0846E5
:109B9000002100F0D0FF0121044601F013F8064B2C
:109BA0001B689C4205D1034B002283F82020DA7702
:109BB0009A7710BD701F00205C0000201FB54FF485
:109BC00061504FF461610A2200238DE80F00064BBB
:109BD00044F620621A60684601A902AA03AB01F0AC
:109BE000AFFC05B05DF804FB082000201FB5002382
:109BF000009301930293039301A8694602AA03AB61
:109C000001F064FC05B05DF804FB000030B5554D73
:109C100000249FB0FF20AC70EC706C706C716C779E
:109C200085F82340AC77EC7785F8204085F8214013
:109C300003F0ECF9E72003F065FA214622462046BE
:109C400002F04CFC2B46012103F80D4F0E200A4672
:109C500001F0FCFC6B79012B05D1642003F070F856
:109C600001F0D0F8F6E710210C2001F03BFD3E4852
:109C700002F0FEF83D4802F0A7FD012002F088FD49
:109C800068463B4900F0DAFDAB786A78354C1A43F8
:109C90001CD194F82430002B5AD0FF2002F02AFD6A
:109CA000002855D11A24013C06D0E72003F058FAC9
:109CB000322003F045F8F6E70E20012122462D4B15
:109CC0002C7301F0C3FC85F82440DDE7E72003F0A6
:109CD00019FA04F10C030E200121002201F088FC86
:109CE000A37813B102F090FD20702B78012101338D
:109CF0002B7300221F4B0E2001F0A8FC0020012432
:109D00000146012202F0EAFB214622461A4B0E20B0
:109D10006C7301F09BFC02F065FB642003F010F80B
:109D2000002002F029FB85F825404FF47F400024F5
:109D300085F8214003F06AF9E72003F0E3F948F2DF
:109D4000442002F0F3FCFFF739FF2C771FB030BD41
:109D5000E72003F005FAFA2002F0F2FF684600F06F
:109D6000C9FD91E7701F0020C8830108B8010020D9
:109D7000759A00087C1F00207D1F0020024B1A6886
:109D800018601046704700BF082000207FB53D4C8A
:109D90000025A06203F08CFC03F0CCFB3A4B3B4A5D
:109DA00000933B4B3B4901933B4B3C4802933C4B5C
:109DB00003933C4B02F0C8FA642002F0C1FF00207C
:109DC00002F0DAFA012348F2442084F8253084F8BE
:109DD000215002F0ABFC344B1A881E46012A2DD0CC
:109DE0000E2010212A4604F10C0301F001FC10287A
:109DF00024D12379234D93B92B7B13B901232B77DE
:109E00000DE0687B58B90146012202F067FB012191
:109E10002B4603F80D1F0E200A4601F017FC23798C
:109E20003BBB184B1B7F23B3204801F041FCFFF7DD
:109E3000DDFE04B0BDE87040FFF7C0BEFF2002F0B9
:109E400059FC00210E2001F04DFC10210E2001F0E4
:109E500049FC0021102216480AF04EFF1021002272
:109E6000134B0E2001F0F2FB0023338003F06CFD56
:109E7000BFE74FF47F4003F0C9F8E72003F042F951
:109E8000D2E700BF701F0020EDD50008659A0008DA
:109E900001D600085D9A00086DD60008C99A00082E
:109EA00095D600086D9A0008060300209C1F00202C
:109EB0007C1F00202DE9F341AC4C04F0CBFC0023C7
:109EC000236394F834304BB994F8353033B9A36830
:109ED0008BB3FEF7FFFCA36898422CD394F825308F
:109EE000A24D002B43D000266E71AE606E77AE633C
:109EF00085F83460012785F82560AE77EE7785F820
:109F0000206085F8226002F06DFA6FF07F4085F8DE
:109F1000217003F07BF8E72003F0F4F8642002F0EE
:109F20000FFF2B7F1BB3304602F026FA85F8257011
:109F3000FFF76CFE1BE094F825308C4DBBB92B79F4
:109F40002BB9FEF7C7FC00F5EA403030A8600020CE
:109F500002F012FA012384F825304FF47F400023E9
:109F600084F8213003F052F8E72003F0CBF8237F88
:109F70007E4E13B1FFF74AFE06E0337923B1737FBB
:109F800003F0FF05002B6FD0E278784B012A13D144
:109F90005A7F012A10D15B79012B0DD1032574481A
:109FA0000BF0E0F9013D82B27149012002F092F913
:109FB00015F0FF05F3D1E57094F83C306B4D33B9E3
:109FC000AB7F002B68D1EB7F002B65D1CAE06B7FA4
:109FD0000BB395F83530F3B9AB7F002B6DD01AE099
:109FE0002B4603F80F2F0E200121032201F02EFB38
:109FF00000264FF6FF7084F8216003F007F8E72091
:10A0000003F080F8FEF7F4F9B042584DC0F28180B9
:10A010000123AE63AB77A37F544D002B00F0A280E9
:10A02000EB7FBBB9FEF766F9002811D002DA4FF4D6
:10A030007F0007E0012801D14E4803E0022803D148
:10A040004FF0FF1002F0E2FFE72003F05BF801E0C1
:10A050000123EB77FEF712F9002840F0838084F8A3
:10A060002000E077A0777DE029462A462846B560A3
:10A0700002F034FA40480BF075F9404F80463846FC
:10A080000BF070F900970190791F032042462B4690
:10A0900002F0BEF9357177E7FEF79AF900234FF425
:10A0A0007F4084F82030E377A37702F0AFFFE7200A
:10A0B00002B0BDE8F04103F025B8642002F040FE94
:10A0C00005F13D0001F082FA95F82230002B8FD087
:10A0D0004FF47F0002F09AFF94F82230234D03F0F2
:10A0E000FF02002B3FF47CAFE72003F00BF84FF4A6
:10A0F000FA7002F025FEE72003F012F84FF4FA7030
:10A1000002F01EFE95F82230013BDBB285F82230CA
:10A11000E2E795F834302BBBAB6B0133022BAB631A
:10A1200004BF012385F83430FEF720F900280ADA4D
:10A13000A36B0133022BA36303D10C4B012283F8E1
:10A140003420022300E0032384F8223094F82230E4
:10A150000E20E37301210A4B032201F077FA00235A
:10A16000A37758E702B0BDE8F08100BF701F002060
:10A17000BB0100200060FF00C2010020C7010020D9
:10A180007F1F002013B5084C002100910A460B46A2
:10A190002046FEF719FE0549054A204602B0BDE8F3
:10A1A00010400AF0B5B800BFE81F0020ED620008BB
:10A1B0007C120020704708B5012003F039FFFEE74C
:10A1C00008B5032003F034FFFEE708B5042003F0D0
:10A1D0002FFFFEE708B5052003F02AFFFEE77047D2
:10A1E0007047704708B503F0EDFCBDE80840FDF787
:10A1F00067BC000008B5024B0BB1AFF3008008BD8F
:10A200000000000008B5024B0BB1FFF723FB08BDAF
:10A210005598000808B5024B0BB1FEF766FD08BD66
:10A22000EB8C000808B5024B0BB1FEF75FFD08BDD3
:10A23000ED8C000808B5024B0BB1FEF7B3FE08BD6C
:10A24000A58F000808B5012004F0F6F838B1012008
:10A2500004F000F9024B13B10020FEF775FD08BDB4
:10A26000498D000808B5022004F0E6F838B1022054
:10A2700004F0F0F8024B13B10120FEF765FD08BDB4
:10A28000498D000808B5042004F0D6F878B1042000
:10A2900004F0E0F80020064B0146188002F0E8FFC9
:10A2A000BDE8084003481021012204F0FABD08BDB2
:10A2B00028200020002C014008B5082004F0BCF83C
:10A2C00038B1082004F0C6F8024B13B10320FEF7A2
:10A2D0003BFD08BD498D000808B5102004F0ACF81E
:10A2E00038B1102004F0B6F8024B13B10420FEF789
:10A2F0002BFD08BD498D000808B5202004F09CF80E
:10A3000038B1202004F0A6F80E4B13B10520FEF75B
:10A310001BFD402004F090F838B1402004F09AF87A
:10A32000084B13B10620FEF70FFD802004F084F8DF
:10A3300038B1802004F08EF8024B13B10720FEF7ED
:10A3400003FD08BD498D000808B54FF4005004F026
:10A3500073F840B14FF4005004F07CF8174B13B180
:10A360000D20FEF7F1FC4FF4804004F065F840B199
:10A370004FF4804004F06EF8104B13B10E20FEF73E
:10A38000E3FC4FF4004004F057F840B14FF40040B4
:10A3900004F060F8094B13B10F20FEF7D5FC4FF421
:10A3A000006004F049F838B14FF4006004F052F84E
:10A3B000BDE8084002F04EBC08BD00BF498D000852
:10A3C00008B51048102104F0A5FDC8B10D481021B2
:10A3D00004F0ABFD002003F001F830B90A4B1A88F5
:10A3E00092B20A3292B21A8008BD064810210022A9
:10A3F00004F057FDBDE808400020012102F038BFFD
:10A4000008BD00BF002C01402820002008B5012015
:10A4100004F078FB50B1012004F084FB044B0BB135
:10A42000FFF70EF9BDE8084004F056BB08BD00BFB9
:10A430004196000808B5022004F064FBB0B10C4B53
:10A4400000224FF400301A7004F004F8012004F0E8
:10A450002BFA10B1012004F031FA04F03DFB022088
:10A4600004F060FBBDE8084004F036BB08BD00BF47
:10A47000A51F002002F080BB00F062B838B5144977
:10A480000B78012B23D1134A13680BB90B7038BD1D
:10A49000114C402B206881B205D94030403B2060F0
:10A4A0001360402504E09DB2034423600023136041
:10A4B0000A482A460844C02105F06CFA01202946C2
:10A4C00005F070FBBDE83840012005F0D5BA38BD75
:10A4D00068120020701200206C1200206811002009
:10A4E00008B5094B01221A70084B002203201A807C
:10A4F00005F088FB064B024618804FF4887105482A
:10A50000BDE8084005F05EBA1C11002020110020B3
:10A510001E11002022110020074B1B68052B09D1BA
:10A52000064B1A68511C052A196003D100221A60D3
:10A53000FDF7FCBB704700BF50200020F41F002037
:10A5400070B52B4D2B4C2B682B4E9BB22380228851
:10A5500033881340990508D54FF6FF532B60A37835
:10A560000133DBB2A370FFF7D7FF22883388134093
:10A570001A0401D505F058F92288338813405B0589
:10A5800005D54FF6FF332B601C4B5B68984722883C
:10A5900033881A40900444BF4DF6FF722A60228827
:10A5A0001340D90405D54EF6FF732B60002003F04D
:10A5B000FDFC2288338813401A050BD5104B1B78FD
:10A5C00013B103F0D3FC02E0022003F0EFFC4FF2E2
:10A5D000FF732B60228833881340DB0507D54FF6C5
:10A5E000FF632B600720BDE8704003F0DFBC70BD47
:10A5F000445C0040F81F00203C2A00202C02002070
:10A6000028030020034B9B7A13B1034B05221A60E9
:10A61000704700BF182A002050200020014B042260
:10A620001A60704750200020034B1A78202A04BF7C
:10A6300000221A70704700BFFC1F00207047000006
:10A64000212810B508D1114B1B681B7803F07F033C
:10A65000212B10D0022010BD2028FBD10B4B0C4A1F
:10A660001B681B78107003F07F03212B094B18BF68
:10A6700000230BB9EEE7084B044A00241268204679
:10A68000936154829847204610BD00BF382A0020AD
:10A69000FC1F0020E9A60008D1A60008074B1B6894
:10A6A0001B7803F07F03212B06D100F0DF00022886
:10A6B00014BF02200020704702207047382A002073
:10A6C00009B1022070470128FBD8084670470000F6
:10A6D00020B9034B08221B681A8270470148704753
:10A6E000382A00202402002020B9034B08221B68CE
:10A6F0001A82704701487047382A0020240200203F
:10A7000010B5FDF75FFB054B00241B689C7203F03E
:10A7100015FC05F08DFA024B1C6010BD382A002094
:10A7200050200020334B344A1B68D27910B50024E6
:10A730005A729C72DC72204605F056F920464FF49E
:10A74000007105F059F92046102105F063F9204603
:10A75000402105F0FBF98021204605F0E7F920466D
:10A7600005F0B0F9254B204693F8341005F028FA8F
:10A77000204605F094F90120214605F03DF901201D
:10A78000C02105F0D3F90120202105F043F9012073
:10A79000214605F058F902204FF4C06105F02CF96C
:10A7A00002204FF4807105F0C1F90220214605F026
:10A7B0004AF90220202105F02DF90320214605F059
:10A7C0001BF903204FF4887105F0C0F903204021E4
:10A7D00005F0F6F903204FF4405105F034F9032059
:10A7E000214605F017F9204604F0B2FF044B012280
:10A7F0001A6010BD382A0020358401082402002088
:10A8000050200020014904F09FBD00BF5C020020E1
:10A81000014904F099BD00BF64020020054B1B688C
:10A82000DB78042B04D8044901EBC30104F08CBD90
:10A8300000207047382A00206C02002038B50446FA
:10A840000D46FFF7A7F8204625614FF41651FFF794
:10A85000ABF8204638BD70B506460D4600242846A4
:10A860000AF080FD844208D2295D3046FFF78CF85B
:10A87000012002F065FA0134F1E770BD2DE9F041E5
:10A8800004460E46904600252046FFF779F800283A
:10A89000FADD2046FFF772F84545C1B206D1002324
:10A8A000337020461249FFF7D6FF15E00D29F6D088
:10A8B0000A29F4D0082901D07F2904D1002DE3D042
:10A8C000771E013D02E0771C317001352046EDB264
:10A8D000FFF75AF83E46D7E72046FFF751F8002821
:10A8E00003DD2046FFF74AF8F6E7BDE8F08100BF38
:10A8F0001AB10108F0B585B00446FFF741F8002809
:10A9000040F39D802046FFF739F8C0B2772868D120
:10A9100004F1140600212122304604F135050AF025
:10A92000EBF94122002128460AF0E6F904F1760706
:10A93000002384F87630204642497B70FFF78BFF76
:10A94000204631462022FFF799FF20463E49FFF777
:10A9500082FF012220463946FFF790FF94F87630B7
:10A96000A3F13002D2B2032AEFD8312B0BD120460B
:10A970003649FFF770FF20463549FFF76CFF204648
:10A980003449FFF768FF94F87620B2F1300708D019
:10A9900020463149FFF75FFF204629464022FFF756
:10A9A0006DFF20462D49FFF756FF23693A46304692
:10A9B0002946984720462A49FFF74DFF2046294956
:10A9C000FFF749FF20462849FFF745FF2046274962
:10A9D000FFF741FF20462649FFF73DFF2046254966
:10A9E00028E069282BD1244B01AD93E8070085E8C6
:10A9F000070020462149FFF72EFF0026AF5D2046C5
:10AA00003B0903F13001392984BF03F15701C9B271
:10AA100007F00F07FEF7B8FF07F13001392984BFAF
:10AA20005737F9B220460136FEF7AEFF0C2EE5D1BE
:10AA30001349204605B0BDE8F040FFF70CBF05B054
:10AA4000F0BD00BF6EAF010875AF0108A2AF0108ED
:10AA5000D8AF010803B0010849B0010854B001089B
:10AA600097B00108B7B00108EAB001081DB10108AC
:10AA70005CB101088DB10108E8F7FF1FA3B101081F
:10AA80001AB1010813B5084C002100910A460B4683
:10AA90002046FEF799F90549054A204602B0BDE86F
:10AAA000104009F035BC00BF00200020ED62000816
:10AAB0007C120020002100F004B80E4B5B5843507C
:10AAC00004310D480D4B42189A42FFF4F6AF0C4A80
:10AAD00000F003B8002342F8043B0A4B9A42FFF40B
