:020000040800F2
:1050000000500020C98F0008C9860008CB86000820
:10501000D5860008DF860008E98600080000000049
:10502000000000000000000000000000F3860008FF
:10503000F586000800000000F7860008F9860008E1
:105040001D9000081D9000081D900008218900088F
:105050001D9000081D9000085987000879870008F6
:1050600099870008CD870008ED8700081D9000088B
:105070001D9000081D9000081D90000889890008F7
:105080001D9000081D900008098700081D90000869
:105090008D8900081D9000081D9000080D880008EB
:1050A0001D9000081D9000081D900008D58800087C
:1050B0001D9000081D9000081D9000082987000819
:1050C000398700081D9000081D90000849870008D6
:1050D0001D9000081D900008198700081D90000809
:1050E0005D880008498900081D9000080000000044
:1050F00000000000000000000000000000000000B0
:0C51000000000000000000005FF808F153
:10511000844641EA000313F0030349D1403A23D304
:105120000B6803604B6843608B688360CB68C36027
:105130000B6903614B6943618B698361CB69C3610F
:105140000B6A03624B6A43628B6A8362CB6AC362F7
:105150000B6B03634B6B43638B6B8363CB6BC363DF
:1051600040304031403ADBD230320BD30B68036021
:105170004B6843608B688360CB68C360103010312C
:10518000103AF3D20C3205D351F8043B40F8043BFB
:10519000043AF9D2043208D0D2071CBF11F8013BFF
:1051A00000F8013B01D30B8803806046704700BFC5
:1051B000082A13D38B07B1D010F00303AED0C3F18C
:1051C0000403D21ADB071CBF11F8013B00F8013BB6
:1051D000A4D331F8023B20F8023B9FE7043AD9D32D
:1051E000013A11F8013B00F8013BF9D20B7803704A
:1051F0004B7843708B7883706046704740EA010CAF
:105200001CF0070F27D1BDF1100DCDE90245CDE906
:1052100000676FF000064FF0000700BFF0E80223C0
:10522000F1E80245A242A2F1013C2CEA020C0CF08A
:10523000803C08BFBCF1000F40F0E580AB42A3F119
:10524000013C2CEA030C0CF0803C08BFBCF1000FC1
:1052500040F0D680E2E710F0030C21D020F00300EC
:1052600050F8042B5FEACC7C08D00FD211F801CBA8
:105270005FFA92F3B3EB0C0C10D17BB111F801CBB8
:105280005FFAA2F3B3EB0C0C08D13BB111F801CBE0
:105290005FFAB2F3B3EB0C0C00D10BB96046704768
:1052A000BDF1100DCDE90245CDE900676FF00006B4
:1052B0004FF0000711F0030C33D110F0040F0FD0A2
:1052C00050F8042B51F8044BA242A2F1013C2CEA05
:1052D000020C0CF0803C08BFBCF1000F40F0938042
:1052E00011F0040F99D051F8045B00BFF0E80223DD
:1052F000AA42A2F1013C2CEA020C0CF0803C08BF4F
:10530000BCF1000F79D1F1E80245A342A3F1013CC1
:105310002CEA030C0CF0803C08BFBCF1000F69D1F3
:10532000E4E721F00301BCF1020F20D03FDA51F88D
:10533000045B00BF50F8043B4FEA1525A3F1013C84
:105340002CEA030C0CF0803CB7EB0C2F03EA16227E
:1053500008BFAA4251D151F8045BBCF1000F82EAA8
:1053600003034FEA056208BF934240D1E2E751F8D8
:10537000045B00BF50F8043B4FEA1545A3F1013C24
:105380002CEA030C0CF0803CB7EB0C4F03EA1642FE
:1053900008BFAA4231D151F8045BBCF1000F82EA88
:1053A00003034FEA054208BF934220D1E2E751F8D8
:1053B000045B00BF50F8043B4FEA1565A3F1013CC4
:1053C0002CEA030C0CF0803CB7EB0C6F03EA16627E
:1053D00008BFAA4211D151F8045BBCF1000F82EA68
:1053E00003034FEA052208BF934200D1E2E719BA4E
:1053F00012BA0AE019BA22BA07E011BA2ABA04E0CE
:1054000019BA2ABA01E011BA22BA9CFA8CF0DDE985
:105410000067DDE902451DF1100D38B1B0FA80F0EA
:10542000C0F1180021FA00F122FA00F201209142A5
:1054300098BF8041704700BF014B0360704700BFB9
:1054400070390108014B0360704700BF88390108BB
:105450007047000010B5034B0446036001F068FA82
:10546000204610BD7039010810B5034B0446036097
:1054700001F05EFA204610BD8839010808B5FFF733
:10548000BDFED0F1010038BF002008BD10B50446B4
:10549000206803681B6998470028F9D020680368D2
:1054A0005B699847C0B210BD2DE9F84305468946AF
:1054B000FFF7ECFF012628710027B0462846FFF7CA
:1054C000E5FF05EB0803187100F07F0303FB067787
:1054D00008F101040306A4B2BFB24FEAC61601D513
:1054E000A046EBE7631E89F800300026B3B2BB424A
:1054F00012D27F2C0AD82846FFF7C8FF04F1010812
:105500001FFA88F82C442071444603E02846FFF730
:10551000BDFF00240136E9E72046BDE8F883F7B572
:1055200007461E46DDB2002405F07F0302A8ED0900
:10553000204418BF43F08003013400F8043CE4B277
:10554000002DF1D1C4F1040302EB030ED154A542A6
:1055500006DA01A9695C131B2B4459710135F6E782
:105560003868721C03682244DB6871469847054618
:1055700001F05AFE0134C7F888002644E8B2831BC4
:105580005842584103B0F0BD023370B59BB20025BC
:10559000ACB201354E1916F8016C181980B20EB173
:1055A0001654F5E7031B1A44231202F8023C02F8D2
:1055B000014C70BD38B50546006848B103681B6BE7
:1055C0009847044628B928680368DB6A984700E0D2
:1055D0000446204638BD00002DE9F04F85B0044652
:1055E0008A4690461F46DDF83890FFF7E3FF0646EF
:1055F000002840F0A2802568D4F89C102B6829B1BF
:105600005B6A2846B4F8A02098470BE0D4F89810BD
:1056100001A8D3F820B001F00FFF284601A9B4F883
:10562000A020D847002800F08380464A0123106854
:105630005168A4F8843001AB03C3127A01A81A7030
:105640000023E218C15C0133092B5172F9D1B9F181
:10565000000F0AD09DF840509DF83C306D0145F098
:10566000060545EAC305EDB200E00225B8F1000FDA
:1056700005D017B945F0800501E045F0C0050023CD
:10568000A574E374251D0523237520461123514677
:105690002A46FFF779FF0346B9F1000F0BD04946C0
:1056A0002A462046FFF770FF119903462A462046F6
:1056B000FFF76AFF0346B8F1000F0CD020464146C1
:1056C0002A46FFF761FF03462FB1204639462A4696
:1056D000FFF75AFF0346053B10212A469BB220469E
:1056E000FFF71DFF01F0A0FDC4F88800C4F88C008E
:1056F000206803681B69984748B901F095FDD4F804
:105700008C3041F28832C01A9042F1D910E0204624
:105710000DF10301FFF7C8FE042809D1E5793DB971
:1057200001F082FD0126C4F88C0084F8905005E059
:1057300020680368DB6A984700E00026304605B021
:10574000BDE8F08F083901081FB58DE80C009DF801
:10575000183000220293079B03931346FFF73CFF88
:1057600005B05DF804FB2DE9F04704460E4692466D
:1057700099469DF82080FFF71DFF08B3251D31468F
:1057800020462A460523FFF7FFFE00218FB2461868
:105790004F45B6B201F1010104D21AF80730264490
:1057A0003371F3E7B8F1000FA6F1050320462A464E
:1057B00014BF312130219BB2BDE8F047FFF7AFBEE7
:1057C000BDE8F08773B50546104614460E460DF049
:1057D00039FF002203460092284631462246FFF751
:1057E000C2FF02B070BD012A2DE9F04104460F4608
:1057F000154621D8FFF7DEFEF0B1B4F8843001334E
:105800009BB203B90123A4F88430B4F88430261D78
:105810001A126272A3723946324620460723FFF7F6
:10582000B3FE23181D71031F3246204682219BB20E
:10583000BDE8F041FFF773BE0020BDE8F081002213
:10584000FFF7D1BF70B504460D46FFF7B3FE50B168
:105850002B126372A5722046221D40210223BDE84F
:105860007040FFF75CBE70BD2DE9F04383B000AF20
:105870000446FFF79FFE002800F0988001F0D4FC5A
:10588000D4F88C300546C21A41F288339A4204D8C3
:10589000D4F88820821A9A4217D994F89030206858
:1058A00023B10368DB6A984700207FE0C0222271A1
:1058B00063710368211DDB68022298470123C4F845
:1058C0008850C4F88C5084F89030206803681B69B5
:1058D0009847002869D02046F91DFFF7E5FD80466E
:1058E000002862D02279C4F88C5002F0F002302AED
:1058F00048D1D4F89430002B57D0FD796E46611909
:105900004A798B7903EB02239BB203F10802D20898
:10591000A6EBC200854600221FFA82FE9E4507D2F2
:1059200001EB020E9EF807E000F802E00132F3E717
:105930000022C2542279D4F894C012F0020F05F16B
:105940000302C5EB08081A4414D02244517992F896
:105950000490C3EB080201EB0929691D1944214495
:105960001FFA89F90431053AE04720464946FFF716
:1059700069FF05E0A118A8F103020431D21AE0473B
:10598000B54612E0C02A0BD1D0232146237151F82D
:10599000040B0023637103680222DB68984704E06C
:1059A000D02A04BF002384F8903001200C37BD4674
:1059B000BDE8F08308B5034B00221A705A705B688B
:1059C000984708BD9C0B0020B0B51C4C8CB000AFB4
:1059D000054604F1080107F1200001F08FFE294679
:1059E00007F1100001F068FE07F1100107F1200037
:1059F00001F0B3FE0146384601F080FE07F11000C9
:105A000001F018FE07F1200001F014FEBA683846D4
:105A100002F1080323F00703ADEB030D013200236D
:105A2000694601F0B9FE694604F11800FFF707FF67
:105A3000384601F0FFFD3037BD46B0BD9C0B00205D
:105A4000F0B51D4C8DB000AF06460D4607F12000A5
:105A500004F1080101F052FE314607F1100001F097
:105A60002BFE07F1100107F1200001F076FE014640
:105A7000384601F043FE07F1100001F0DBFD07F1AD
:105A8000200001F0D7FDBB68384603F1080222F080
:105A90000702ADEB020D69465A1C002301F07CFEA3
:105AA00069462A4604F11800FFF78CFE384601F0DB
:105AB000C1FD3437BD46F0BD9C0B002010B5164C1F
:105AC00004F11800FFF7D0FE04F1BC0000F014FC54
:105AD00004F11800FFF76EFD70B104F1BC00D4F8BA
:105AE000BC1100F055FC94F8C0311BB90B480C49AF
:105AF000FFF7A6FF01230BE004F1BC00D4F8BC11B2
:105B000000F03FFC94F8C0310BB163689847002364
:105B100084F8C03110BD00BF9C0B0020A8630108B1
:105B2000BF63010890B58DB002AF3123234907F15F
:105B30001800BB8001F0E2FD214907F1180001F0D7
:105B400019FE014607F1080001F0D8FD07F1180021
:105B500001F070FD3A6907F1080002F1080323F033
:105B60000703ADEB030D02AC21460132002301F027
:105B700013FE1448FFF71EFDA0B9009011483B1D0D
:105B8000019300F2A91122460123FFF7DDFD48B180
:105B90000D48FFF719FF0D48FFF716FF09480C499C
:105BA000FFF74DFE0B490C48FFF74AFF07F10800CD
:105BB00001F040FD2C37BD4690BD00BFA40B002076
:105BC000C3630108B40B0020DD630108E56301082D
:105BD000EF630108BF630108A8630108F0B589B04D
:105BE0000446684616460F4601F014F81B4B04A8FD
:105BF0001B491C6001F060FD694604A801F0ADFD81
:105C0000184901F0B7FD184C014604F10805284673
:105C100001F065FD04A801F00DFD284604F5ED71C5
:105C20001E22002301F0B8FD0023684604F2C111D2
:105C3000192201F0B1FD4FF47A710C4A04F1BC0055
:105C4000C4F8F871666000F03EFBC4F8BC01FFF7D1
:105C500069FF684601F0EEFC09B0F0BD00000020CD
:105C6000F9630108A86401089C0B0020255B00086B
:105C700001490A46FFF7B2BF51540008F8B506467D
:105C80000C46104624491546FFF7F8FB2349074602
:105C90003046FFF7F3FB10B12148224922E030469D
:105CA0002149FFF7EBFB18B1BDE8F840FFF782BED2
:105CB00020461E49FFF7E2FB18B11D4B83F8FC712B
:105CC000F8BD20461B49FFF7D9FB20B11A4B1B48F2
:105CD0001968FFF7B5FE20461949FFF7CFFB28B139
:105CE00018480D49BDE8F840FFF7AABE20461649FE
:105CF000FFF7C4FB78B128461449FFF7BFFB50B14A
:105D000007481349FFF79CFE094B01225A701A708D
:105D1000D3F8F8319847F8BDFE6301080364010821
:105D2000A8630108BF6301081B6401083664010809
:105D30009C0B00204264010800000020536401080D
:105D40006364010875640108866401089E640108A3
:105D5000A1640108F8B50F4B00AF93F8FC3106467B
:105D60000D46A3B10DF06EFC0B3020F007006C4621
:105D7000ADEB000D684608490DF006FC684631465B
:105D80000DF062FB68462946FFF75AFEA546BD4660
:105D9000F8BD00BF9C0B0020A56401082DE9F04F61
:105DA00087B0804600AF0E46EB461546002A7AD0F3
:105DB000D31D23F00703ADEB030D0DF043FC0730BB
:105DC00020F00700E946ADEB000D40460DF03AFC2F
:105DD0000730EA4620F00700ADEB000D4146504683
:105DE0000DF0D2FB314607F1080001F065FC6A1C9A
:105DF00007F108004946002301F0CEFC40462F2160
:105E00000DF048FB6C46064600255EB1701C2F2144
:105E10000DF040FB06461DB9204631460DF0B4FB9F
:105E20000135F2E720460DF00DFC611C02462046CC
:105E30000CF0F2FFAB000A3323F00703ADEB030DC8
:105E4000B5B91B485146FFF785FF1A482146FFF7B1
:105E500081FF19484946FFF77DFF504621464A46D3
:105E6000FFF70CFF07F1080001F0E4FBDD461AE044
:105E700040461249C7F804D00DF0B8FC30460F492F
:105E80000DF0B4FC7B6801269846AE42D9DA0B4986
:105E900000200DF0ABFC014648F8040F0848FFF75E
:105EA00059FF0136F1E71C37BD46BDE8F08F00BF52
:105EB000AA640108BD640108D16401081139010810
:105EC000E2640108074B1B7853B13C2804D03E28FC
:105ED00006D10548054901E003480549FFF7B0BD73
:105EE000704700BF9C0B0020F9640108046501089D
:105EF00007650108074B1B7853B1482804D0502888
:105F000006D10548054901E003480549FFF798BD5A
:105F1000704700BF9C0B00200C6501081A65010842
:105F200020650108F8B58EB204460D46304611468C
:105F3000174601F083F84FF4FA620023022FE26063
:105F40004FF001020CBF62726372304663602560DD
:105F50002374A3720CBF23722272617A01F0E8F8F5
:105F60002046F8BD10B5044601F05EF96061208856
:105F700001F020F9A27A6060237C4AB9B3B9217A92
:105F8000884213D10123A37201F04EF9A0611AE0F7
:105F900063B9217A884209D1A369E2681A44636926
:105FA000934210D901232374482010BD617A88429E
:105FB00009D10AB92D2002E0002BFBD1502000238B
:105FC000A372237410BD2D2010BD2DE9F04115469C
:105FD0001FFA81F804460E464046AFB2022101F096
:105FE0002DF83846022101F029F84046012101F040
:105FF0009FF83846012101F09BF80123E3602361FB
:106000006361A36100236660A560E361236263624C
:10601000A3622046BDE8F081002310B5044603705A
:10602000808801F0C7F8E060208901F0C3F8E368D8
:1060300062692061934202D1A26990423CD0012B57
:106040006361A06106D1012801D1002309E048B9AC
:10605000032306E033B9012801D1E06102E008B969
:106060000223E361E369226A23629A1A82EAE271F7
:10607000A1EBE271022962620DD0012A01D0D01C8D
:1060800002D1A26A013205E0511C01D0032A02D1DB
:10609000A26A013AA2627BB9A26A002A04DDA36265
:1060A000012323703E2010BD04D001222270A36280
:1060B0003C2010BD2370A3622D2010BD08B50548FB
:1060C0004FF4165101F014FFBDE808400248FFF7F5
:1060D000CFBD00BFC01E00200400002038B5184D01
:1060E000184CFFF7EBFC05F50070FFF795FFE16832
:1060F000FFF7E8FE05F50B70FFF734FFE168FFF7E7
:10610000F9FE05F51270FFF72DFF2169FFF7F2FE8A
:1061100005F51970FFF726FF6169FFF7EBFE05F53E
:106120002070FFF71FFFA169FFF7E4FE05F5277058
:10613000FFF718FFE169BDE83840FFF7DBBE00BF9D
:106140009C0B002000000020F7B52F4C002104F527
:106150002E752E4E0B4600910A46284601F060F936
:1061600032462B49284604F530750CF03DFA284696
:1061700001F076FC3246274928460CF035FA04F146
:10618000080704F1BC0000F04FF83846224901F03E
:1061900093FA3246384621490CF026FAA561204B85
:1061A000204DC4F8AC3005F12003C4F8B430D4F865
:1061B000D81440F25B73EA6A04F50070A4F8B830B2
:1061C000FFF703FF296B04F50B700322FFF7AAFE0C
:1061D000696B04F512700322FFF7A4FEA96B04F5A6
:1061E00019700322FFF79EFEE96B04F5207003226D
:1061F000FFF798FE296C04F52770032203B0BDE871
:10620000F040FFF78FBE00BF9C0B0020E81100207C
:106210003954000845540008E36601083576000843
:106220009D5D00080000002038B5044600F0FCFF2A
:10623000234600216518013100220A2985F8C8206B
:1062400003F104035A6243F8040CC3F89C20F1D113
:10625000C4F8FC20204638BDD0F8FC30092B0ADCFD
:10626000002300EB8302926A1AB101330A2BF8D1A2
:1062700001E0184670474FF0FF3070472DE9F041BC
:1062800004460F4616469846FFF7E6FF051E16DB46
:10629000AEB104EB85006319012207658662C0F880
:1062A000788083F8C82000F0BFFF44F82500D4F8B8
:1062B000FC3028460133C4F8FC30BDE8F0814FF0D3
:1062C000FF30BDE8F0810023FFF7D8BF092910B5E2
:1062D00011DCD0F8FC4074B100EB81039A6A52B132
:1062E00000220144013C9A6281F8C8201A65C3F873
:1062F000A020C0F8FC4010BD70B5064600F094FF29
:1063000006F1240300220021C3F8B01053F8041F43
:10631000E9B153F8281C9C6A451AA54217D32144B9
:1063200043F8281CB11891F8C81081B1196D09B94A
:1063300001210AE09C6F8C4209DA01252C448C4231
:10634000C3F8AC509C6702DB0221C3F8AC100132E9
:106350000A2AD8D134460025D4F8D430012B08D0ED
:10636000022B08D1A36A984730462946FFF7AEFFB3
:1063700001E0A36A984701350A2D04F10404EBD12A
:1063800070BD092903DC0144012381F8C83070473E
:10639000092903DC0144002381F8C830704700005C
:1063A00013B5084C002100910A460B46204601F027
:1063B00037F80549054A204602B0BDE810400CF008
:1063C00013B900BF7810002039540008E8110020EC
:1063D000013101EB420291420BD0030F092B94BF14
:1063E0003033373301F8013C0023000101F8023B50
:1063F000F1E770471F4B10B51A88032A04D8042010
:106400000146188006F07CF94FF000604FF4A0417F
:1064100006F06CF90124184B184821461C7006F050
:106420007BFB05F023FA04F0F9FE2146402006F03C
:106430002BFC6FF07F4005F073F8E72005F0ECF8D7
:106440000F4B1C7004F034FF7D2006F041FC18B1A6
:106450000C4B1C7006F050FC40F6B83004F091FF75
:1064600005F0DAFC05F04AFF074A01231370074ADA
:10647000137010BDB81F0020981F002000043000CA
:10648000EC1E00205C2900205C1F0020181F00204B
:1064900038B52F4C2388042B04D8052104202180F3
:1064A00006F02EF92B4D2B7813B12B4801F006FF87
:1064B0002B7853B12388052B05D8254B06210420C2
:1064C000198006F01DF901F08DFF2B7863B1234B85
:1064D0001B784BB9224B1B7833B1224B1B781BB96D
:1064E000214B1B78002BE3D0204B1B78002BDFD1F6
:1064F0001F4B1B78002BDBD11B4B1B78012B0FD0C4
:106500001C4B6BB12388062B05D8114B07210420A7
:10651000198006F0F5F8FFF7D1FD134B01221A7030
:10652000154B002BC4D02388072B05D8084B082116
:106530000420198006F0E4F8FFF7D0FD2388082B2B
:10654000B6D8034B09210420198006F0D9F8AFE72B
:10655000B81F00205C1F0020456D0008111F00209F
:10656000181F0020EA1E002080100020EB1E0020D3
:106570005C290020BD600008DD600008F8B5524BC2
:106580001A6812B11A68013A1A60504B504D1B78C4
:106590003BB1504B1B78002B28D04F4B002B47D1E1
:1065A00024E04E4C2368264613B12368013B0FE0DC
:1065B0004B4B1B78D3B94B4B1B78BBB94A4B1B7861
:1065C000A3B94A4F3B782BB1E72005F099F8142383
:1065D00023600BE02B78002B2DD1E72005F04AF843
:1065E000434B1B78002B34D0322333602B7833B1EC
:1065F000404C23781BB92EE05A6801325A603E4B5A
:106600001A68B2F57A7F0FD300221A6006F0DCFA1E
:106610003A4B4FF6FF711A888A4254D019800420F1
:10662000BDE8F84006F06CB81A6801321A60F8BD8F
:1066300000F0D0FBDAE7324B1B78002BCDD04FF6C1
:10664000FF7004F06DFFE72004F0E6FF01233B70CC
:10665000CCE76423C9E7234B1B788BB1294B47F266
:106660002F5259689142C7D9BFF34F8F264A274B03
:10667000D16801F4E0610B43D360BFF34F8FFEE7B5
:10668000174D2B7803F0FF0633B9304605F040F97B
:1066900040F6B73398420DD8002005F039F941F69D
:1066A00057339842ABD9002005F03AF9184B012234
:1066B0001A70A4E7304605F033F92378002B9ED1F9
:1066C00001232B709BE7F8BD64290020781F002070
:1066D0005C1F00201C140020D56D000860290020DC
:1066E000011F0020EB1E0020ED1E0020EC1E0020EC
:1066F000E91E0020111F002068290020B81F00207B
:10670000EA1E00208010002000ED00E00400FA05E1
:10671000FF1E002008B5094B186005F023FB002080
:1067200005F06CFB064804F09DFD05F033FB05F019
:1067300051FBBDE8084007F0C7B900BF5402002074
:10674000A0860100074B1B68052B08D1064B1A7A5F
:10675000012A04D1987A1B7BC01AC0B2704700206E
:10676000704700BFBC1F0020801000200D4B10B5EB
:106770001B68052B13D10C4C237A012B0FD1628996
:10678000A389D31A012B04D100230320237207F01D
:10679000F2FAA3895A1CA2811C44A07B10BD4FF0C1
:1067A000FF3010BDBC1F00208010002008B50C4B2E
:1067B0001B68052B12D10B4B1A6D99180132B2F5DB
:1067C000807F08BF002281F854001A6505F098F90F
:1067D00020B16420BDE8084004F044BD08BD00BFFE
:1067E000BC1F002080100020F8B5234B93F85421E3
:1067F000012A3FD0D3F85821196DB2F5807F04BF2C
:106800000022C3F85821D3F858411B4A8C4203D1C7
:10681000002382F85431F8BD8CBFC4F58071C4EBFD
:106820000101C2F85C11D3F85C61134D402EA2B295
:1068300007D94034403EC5F85841C5F85C6140274F
:1068400006E034440021B7B2C5F85841C5F85C11E0
:106850000A4801241044C0213A4683F8544107F005
:1068600005FA2046394607F009FB2046BDE8F84006
:1068700007F06EBAF8BD00BF80100020D4100020D1
:10688000094B10B593E8140008331B68D0180AD0E0
:1068900006490822FFF79CFD204605490422BDE871
:1068A0001040FFF795BD10BDE8F7FF1F0302002061
:1068B0001302002013B5084C002100910A460B4634
:1068C000204600F0ADFD0549054A204602B0BDE86E
:1068D00010400BF089BE00BFE011002039540008C1
:1068E000E811002038B504460D46AC4203D254F8F6
:1068F000043B9847F9E738BD08B507480749FFF753
:10690000F1FF07480749FFF7EDFFBDE808400648DB
:106910000649FFF7E7BF00BFA8670108A86701089D
:10692000A8670108006801080068010800680108FC
:106930000BF09ABF08B5072005F004FEFEE7000043
:10694000074A08B5136818441060064A904204D9F3
:10695000082005F0F7FD0BF04DFE184608BD00BFFE
:1069600088000020004800204FF0FF3070470120D1
:10697000704708B50C2005F0E5FDFEE7014B1868EF
:10698000704700BFEC110020064B0246582000FB68
:10699000013101F1080303CB106051601868906069
:1069A000704700BFEC110020014BD3F86401704721
:1069B000EC110020064B0246142000FB013101F5CA
:1069C000B67303CB1060516018689060704700BFC9
:1069D000EC11002038B50546064C28B104F042FE03
:1069E000012384F8303238BD04F0EAFD84F83052D7
:1069F00038BD00BFEC1100200E4B2DE9F041D3F85B
:106A0000647180460024BC4211DA14256543094EA6
:106A1000414606F5B67028440C220CF043FE20B91E
:106A20003544D5F86801BDE8F0810134EBE700207A
:106A3000BDE8F081EC110020044B01221A70044BD8
:106A400000224FF4C0201A6005F04CBAEB1E002063
:106A500084100020034A00231370034A136005F0DA
:106A6000A5BA00BFEB1E002084100020024B0022BC
:106A70001A6005F05DBA00BF841000202DE9F047D0
:106A800088B0804668460D4600F016FE1E4B002476
:106A9000D3F800A054452DDA55B3582666431A4F53
:106AA000414607F1080030440C2207F104090CF0BC
:106AB000F9FDE8B928460CF0C5FD06F110034028A1
:106AC00034BF02464022294609EB0300FEF720FBB3
:106AD0003E44012386F85830694604A8746800F0E3
:106AE0000DFE04A8A047044604A800F0A3FD03E09F
:106AF0000134CFE74FF0FF34684600F09BFD20469D
:106B000008B0BDE8F08700BFEC11002010B5064CBE
:106B1000206802F099FE2368013303D0431E5842D7
:106B2000584110BD012010BD8C00002070B50B4BEA
:106B300005461B780C4673B9094B1B785BB9FFF708
:106B4000E5FF034638B9074A294610682246BDE8E2
:106B5000704003F033BE4FF0FF3070BD101F0020B7
:106B6000111F00208C0000202DE9F041264B86B03B
:106B70001B7880460F46002B41D1244B1B78002BFD
:106B80003DD1FFF7C3FF0446002838D1204D8DF8D2
:106B90000C008DF80D008DF80E008DF80F002868A0
:106BA00006AA460902EB8606012100F01F02914069
:106BB00056F80C2C01300A4346F80C2C41F288326E
:106BC000059204AA009203A922462346049403F0E6
:106BD000D7FC002815DD2B6806AA590902EB8101B4
:106BE00051F80C5C03F01F02154115F0010008D0AC
:106BF000184641463A46234603F062FD01E04FF055
:106C0000FF3006B0BDE8F081101F0020111F0020EA
:106C10008C000020F0B5144985B0064600F04CFD0C
:106C2000124B01AC93E8070084E807000025675D7C
:106C300030463B0903F13001392984BF03F1570184
:106C4000C9B207F00F0700F07BFD07F130013929C9
:106C500084BF5737F9B23046013500F071FD0C2D75
:106C6000E5D1304605B0F0BDE3660108E8F7FF1F47
:106C700030B51E48ADF5797D07F06BF9002832D1AB
:106C80001B4B15A804931B4B5FAD05931A4B039048
:106C900006931A4B0CAC0793194B02950893194BAA
:106CA0000993194B0A93194B0B93194B0C93194BDE
:106CB0000D93194B0E93194B0F93194B1093194BBE
:106CC0001193194B1293194B1393194B149305F00D
:106CD000B3F9284605F0B6F900940448154902AA0C
:106CE00004AB07F03DF90DF5797D30BD201400208F
:106CF0002D6B0008696B0008396A0008556A0008A6
:106D000075C000086D6A0008D5690008297200087E
:106D10007D690008896900087D6A0008A969000882
:106D2000B5690008E16F0008F969000851C0000862
:106D300065C00008E8F7FF1F014807F042BF00BF29
:106D40002014002030B502208DB00146112203F03E
:106D50005DFB051E28DB07A8144907F024FA02236F
:106D6000ADF80C3016238DF80E3033238DF80F302C
:106D7000E0238DF8103000238DF8113001238DF8B9
:106D80001230BB238DF81330032403AB0093102380
:106D90000193284607A91322002303F019FD013CA3
:106DA000F3D1284603F060FB0DB030BDE8F7FF1FBC
:106DB00010B5074CFFF75CFF204607F0CDF82046E2
:106DC00007F041FC0446FFF7BDFF204610BD00BFA1
:106DD0002014002038B5114CD4F8445A2DB1D4F801
:106DE000443A013BC4F8443A38BDD4F8483A0C4A16
:106DF00052F8230004F0BCFBE72004F00DFC6423F0
:106E0000084AC4F8443AD4F8483A526801339342E5
:106E1000C4F8483AA8BFC4F8485A38BDEC1100205D
:106E2000143901088C0000207FB5022001210622C0
:106E300003F0ECFA041E24DB0223ADF8003000233B
:106E40008DF8023035238DF803304FF4FA500823C3
:106E50008DF804308DF805308DF806308DF8073048
:106E600001F024FA694610220546204603F05AFB39
:106E70000646284601F01AFA204603F0F5FA304695
:106E800001E04FF0FF3004B070BD000010B5064CBB
:106E90002068002805DB03F0E7FA4FF0FF3323609A
:106EA00010BD002010BD00BF8C000020F0B5A7B0C1
:106EB000FFF7ECFF02200121062203F0A7FA324F70
:106EC0000028386050DB314D0223A5F84C3A1623D8
:106ED00085F84E3A05A8332385F84F3A05F078F83F
:106EE000002300939DF814303BB1012B17D0284BA1
:106EF00001AC03F1100E224602E0069B009313E062
:106F000018685968264603C6083373453446F7D1D6
:106F10000FCA06AC07C424F8023B1B0C23700A24DA
:106F2000009B0BB9013C22D1009B0BB9194B00937C
:106F3000009B4FF4FA501A0E85F8502A1A0C85F867
:106F4000512A1A0A85F8533A85F8522A01F0AEF907
:106F5000114904461022386803F0E4FA0546204639
:106F600001F0A4F928460CE04FF0FF3009E006A834
:106F70007E210CF023FC6A4681B206A803F09AFA3F
:106F8000CEE727B0F0BD00BF8C000020EC11002040
:106F90002565010804E5D036381C00200F4B2DE98B
:106FA000F041D3F8647180460024BC4211DA142504
:106FB00065430A4E414606F5B67028440C220CF093
:106FC00071FB20B9354495F87801BDE8F0810134B2
:106FD000EBE74FF0FF30BDE8F08100BFEC1100207F
:106FE00008B5FFF7DBFF0138082803D8024B184427
:106FF000007F08BD022008BD1439010803F092BAD1
:1070000037B50B4C002104F65C250B4600910A466F
:10701000284600F005FA28460649074A0BF0E4FA2C
:1070200004F50D7003B0BDE8304006F07DBF00BF31
:10703000EC11002039540008E811002014282DE933
:10704000F34104460E4669D8FF2967D000F0BAFA2A
:1070500020B1A4F10D039BB2022B5FD900F074F9AB
:1070600008B1012C5AD900F0DBFE20B1A4F11203C3
:107070009BB2012B52D92B4D24012B192F59B3F858
:107080000480294B9F4201D1042003E0274B9F42FB
:1070900003D10820012105F003FEADF80480062E7F
:1070A00038D8DFE806F0040D13191F28310010232B
:1070B0008DF8073003238DF806302C44002328E098
:1070C00004238DF807302C44012322E048238DF857
:1070D00007302C4402231CE028238DF807302C4471
:1070E000032316E018238DF8073003238DF80630AC
:1070F0002C4404230DE01C238DF8073003238DF866
:1071000006302C44052304E000238DF807302C447E
:107110000623A373384601A905F0A6FC02B0BDE81A
:10712000F08100BF9400002000080140000C0140E5
:107130001428F8B505460F4638D81D4E04013319FA
:107140009B7B5A1ED2B2022A30D9062B2ED0FF2B9F
:107150002CD000F037FA28B1A5F10D039BB2022B19
:1071600000D8F8BD00F0F0F810B1012D00D8F8BD3E
:1071700000F056FE28B1A5F112039BB2012B00D8F6
:10718000F8BD33199B7B042B03D128460021FFF760
:1071900055FF012F04D13219335992881A61F8BD75
:1071A00027B93219335992885A61F8BDF8BD00BF2A
:1071B00094000020142870B5044602D94FF0FF3027
:1071C00070BD184E050173199B7B013BDBB2FD2B93
:1071D000F4D800F0F7F920B1A4F10D039BB2022B13
:1071E000ECD900F0B1F808B1012CE7D900F018FE95
:1071F00020B1A4F112039BB2012BDFD973199B7B41
:10720000062B09D1074B93F850114B1EDBB2FD2B17
:10721000D4D82046FFF712FF73197059998805F0EA
:1072200071FC70BD9400002004F05EBF13B5084CE3
:10723000002100910A460B46204600F0F1F805496E
:10724000054A204602B0BDE810400BF0CDB900BFA2
:107250007C1C002039540008E8110020024B1878EB
:107260005B78C01A704700BF841C0020064B5A7818
:107270001978914204D99918013288785A70704768
:107280004FF0FF30704700BF841C0020054B5A7838
:107290001978914202D91344987870474FF0FF3023
:1072A000704700BF841C002070470000014B036042
:1072B000704700BF8839010810B5034B04460360CE
:1072C000FFF736FB204610BD88390108F8B5094B99
:1072D000054693F82230164653B10C468F18BC422F
:1072E00006D02B6828469B6814F8011B9847F6E7E0
:1072F0003046F8BD841C002010B50C4B012293F8D9
:1073000022408CB193F823401F2C02D94260002008
:1073100010BD93F824001C1884F82510411CC9B234
:1073200083F8241083F82310104610BD841C00201D
:10733000002242604FF47A728260014A0260704714
:107340004839010870477047014B93F8590070475E
:10735000841C002073B50E4C002104F164050D4E11
:107360000B4600910A46284600F05AF86C34324623
:10737000094928460BF038F92046FFF7D9FF07499D
:107380002046324602B0BDE870400BF02DB900BF78
:10739000841C0020E811002039540008AD72000858
:1073A00008B5034B53F8203003B1984708BD00BF20
:1073B000001D002013B5084C002100910A460B4621
:1073C000204600F02DF80549054A204602B0BDE8E8
:1073D00010400BF009B900BF401D002039540008CF
:1073E000E81100202DE9F041002407460E4625460D
:1073F0003B1919790A22304600F0B2F82E21804656
:10740000304600F07EF801344044032C0544EFD1AF
:107410003046F9790A2200F0A3F82844BDE8F0814B
:1074200030B58371034D9DF80C30056001714271D8
:10743000C37130BD70390108024A02600A684260B7
:10744000704700BF703901080548064B06490360C4
:10745000064A0023037143718371C3710BF0C4B8F2
:10746000481D00207039010839540008E811002037
:1074700013B5084C002100910A460B462046FFF741
:10748000CFFF0549054A204602B0BDE810400BF089
:10749000ABB800BF501D002039540008E81100208F
:1074A000014B0360704700BF88390108F8B50646F4
:1074B0000C468F180025BC4207D0336830469B68C5
:1074C00014F8011B98470544F5E72846F8BD00006D
:1074D00010B5034B04460360FFF72AFA204610BD9F
:1074E0008839010838B505460C46084641B10CF00C
:1074F000A9F82B680246DB6828462146984738BD24
:1075000038BD08B503689B68984708BD30B50023AF
:107510008BB08DF82430012A98BF0A220DF1230484
:10752000B1FBF2F303FB1211CDB2092D94BF30353C
:107530003735EDB2214604F801590BB11946EFE792
:10754000FFF7D0FF0BB030BD10B522B90268C9B249
:107550009268904710BDD2B2BDE81040FFF7D6BF89
:10756000FFF7F2BF13B5084C002100910A460B4605
:107570002046FFF755FF0549054A204602B0BDE801
:1075800010400BF031B800BF601D002039540008D6
:10759000E811002013B5084C002100910A460B4663
:1075A0002046FFF73DFF0549054A204602B0BDE8E9
:1075B00010400BF019B800BF681D002039540008B6
:1075C000E8110020014B587D704700BF701D00205E
:1075D0007047000013B5084C002100910A460B4685
:1075E0002046FFF71DFF0549054A204602B0BDE8C9
:1075F00010400AF0F9BF00BF881D00203954000870
:10760000E811002013B5084C002100910A460B46F2
:107610002046FFF705FF0549054A204602B0BDE8B0
:1076200010400AF0E1BF00BF941D0020395400084B
:10763000E811002010B5044600680BF015F920464B
:1076400010BD10B50446006808B10BF00DF9002319
:107650002360A360636010BD38B504460D46006822
:1076600001310BF0ADFC10B184E82100012038BDE0
:10767000036810B5044613B143688B4207D2204615
:10768000FFF7EAFF20B1A3680BB92268137001204D
:1076900010BD70B50E46114604461546FFF7E8FFCB
:1076A00018B92046FFF7CDFF04E0A56020683146F9
:1076B0000BF06AFF204670BD38B500230446036016
:1076C0004360836003730D4639B108460BF0BAFF7F
:1076D000294602462046FFF7DCFF204638BD884297
:1076E00010B50B46044607D0096819B19A68FFF730
:1076F000D0FF01E0FFF7A5FF204610BD10B5002325
:1077000004460360436083600373FFF7E8FF20468D
:1077100010BD70B5044685680E4609B9002070BDDD
:1077200062B115442946FFF7A3FF0028F6D0206870
:10773000A368314618440BF027FFA560012070BDF7
:1077400007B500238DF80410012201A98DF805303A
:10775000FFF7DFFF03B05DF804FB0B4610B50968C7
:107760009A680446FFF7D5FF10B92046FFF769FF76
:10777000204610BD38B504460D4641B108460BF011
:1077800061FF294602462046FFF7C3FF10B9204695
:10779000FFF757FF204638BD38B50C469AB191B176
:1077A00081688B4202D30023237038BDC91A551E4D
:1077B0008D4228BF0D4601682A46194420460BF029
:1077C000CBFF0023635538BD13B5026802AB03F845
:1077D000011DD46819460122A04702B010BD10B5A2
:1077E000B0F81622B0F8143204469A4207D0B4F822
:1077F00014325A1CA4F814221C44207D10BD0368C6
:107800001B6998470028F2D14FF0FF3010BD10B52A
:10781000B0F81622B0F8143204469A4204D0B4F8F4
:1078200014321C44207D10BD03681B699847002852
:10783000F5D14FF0FF3010BD0023A0F81432A0F8AE
:1078400016327047F8B51746B0F81432B0F8162261
:1078500004469A420E4606D103681B69984710B940
:107860004FF0FF3512E0B4F81432B4F81652E118B4
:10787000ED1ABD4228BF3D46304614312A46FDF779
:1078800047FCB4F814322B44A4F814322846F8BD4F
:1078900010B504460069082801D002F0E5FD082370
:1078A000236110BD30B5B0F8163287B0044633B14D
:1078B000B0F814229A4202D10368DB69984700F0BD
:1078C00041FB022838D12069082835D0B4F8163297
:1078D000B3F5007F30D2430906AA02EB83030121EE
:1078E00000F01F02914000258DF80C508DF80D50CE
:1078F0008DF80E508DF80F5053F80C2C01300A43C0
:1079000043F80C2C41F28833059304AB009303A990
:107910002A462B46049502F033FEA8420CDD20696E
:1079200006AB420903EB820252F80C2C00F01F0355
:1079300042FA03F3DB0706D4B4F81602B4F81432A3
:10794000C01A07B030BDB4F816222B46A118143166
:10795000C2F5007202F0B4FE0028EDDDB4F8163274
:107960000BB9A4F814320344A4F81632E4E7F0B5D6
:1079700085B004460D46164600F0E4FA0228074694
:1079800034D10121062202F041FD002820612DDBC7
:1079900023682046DB699847330A8DF802302B793B
:1079A0004FF4FA508DF804306B798DF803608DF840
:1079B0000530AB79ADF800708DF80630EB798DF8B5
:1079C000073000F073FC6946054610222069FFF776
:1079D00015FB0646284600F069FC002E04DA2368F1
:1079E0002046DB6A984701E0012000E0002005B056
:1079F000F0BD00002DE9F04188B006460F469046E4
:107A000000F0A0FA02284FF0000422D108AD384659
:107A100045F8144D0BF016FE2A4681B2384602F0A6
:107A200049FDA04215DD039B04A8DAB20092190EAD
:107A3000C3F30742C3F30723FFF7F2FC3368304672
:107A40001C6A064B06A90693059B42460793A0476E
:107A500000E0204608B0BDE8F08100BF70390108A1
:107A60004FF47A718160054900220160082142606B
:107A70000161A0F81422A0F816227047A03901086D
:107A8000036910B5082B044601D1002010BD00F099
:107A900059FA0228F9D1206901F0D6FED0F101008F
:107AA00038BF002010BD70B504460E461546FFF7DE
:107AB000E7FF38B1206931462A460023BDE870400F
:107AC00002F07CBE4FF0FF3070BD38B50446FFF7C2
:107AD000D7FF01281BD0B4F81622B4F814329A420A
:107AE00017D12069082803D001F0AEFE012801D08B
:107AF00000250FE0236820461B699847051C18BF26
:107B000001253DB923682046DB6A984702E0054617
:107B100000E00125284638BD08B5FFF7B1FF003069
:107B200018BF012008BD000013B5084C00210091CA
:107B30000A460B462046FFF773FC0549054A2046D6
:107B400002B0BDE810400AF04FBD00BF9C1D0020F0
:107B500039540008E811002013B5084C00210091A9
:107B60000A460B462046FFF75BFC0549054A2046BE
:107B700002B0BDE810400AF037BD00BFA41D0020D0
:107B800039540008E811002038B5184C94F92C300D
:107B90005BB394F82D3043B305F0D6F894F82C205D
:107BA00094F82D5051B2002995FBF1F106DD012921
:107BB0000BDC013A84F82C20002307E0013104DBC0
:107BC000013284F82C20022300E0012394F82D20B8
:107BD000013A84F82D20C41805F0EAF8204605F093
:107BE000C7F8BDE8384005F0E3B838BDAC1D00204B
:107BF00013B5084C002100910A460B462046FFF7BA
:107C00000FFC0549054A204602B0BDE810400AF0C5
:107C1000EBBC00BFDC1D002039540008E811002037
:107C200013B5084C002100910A460B462046FFF789
:107C3000F7FB0549054A204602B0BDE810400AF0AE
:107C4000D3BC00BFE81D002039540008E811002013
:107C5000014B0360704700BF883901080369186C45
:107C60005B6CC01A00F03F0070470369196C5A6CD6
:107C7000914202D05A6C985C70474FF0FF307047C9
:107C80000369196C5A6C914207D05A6C985C5A6C13
:107C9000013202F03F025A6470474FF0FF307047E4
:107CA00010B5034B04460360FEF742FE204610BDAC
:107CB00088390108436910B50446196C5A6C914221
:107CC000FBD1237E13B90023237610BD0348402146
:107CD00005F0BBFA0028F6D1F3E700BF00440040EE
:107CE00070B504460E462C4840F2277105F0B3FAF1
:107CF00020B963691A6C5B6C9A4211D163691D6C7F
:107D0000013505F03F0563695A6C95420FD0EFF3DA
:107D10001082D20732D5196C5A6C914207D12DE0EE
:107D20001D4840F22771012205F06FFAE6E71A4874
:107D300040F2277105F08FFA0028E4D01648802120
:107D400005F083FA0028DED0134840F227710022A4
:107D500005F05BFA636910485A6C511C5964995CD0
:107D600005F06BFA63690C485A6C40F2277102F017
:107D70003F025A64012205F048FAC4E71A6C06482B
:107D80009E54636940F227711D64012525762A46B9
:107D900005F03BFA284670BD0044004010B51E486F
:107DA00040F2255105F057FA78B11B4805F049FA21
:107DB0001A4BC0B25A6D996D013202F03F028A42ED
:107DC00003D0596D5A6519440875134840F227715C
:107DD00005F041FAF8B1114CD4F89C20D4F8A03049
:107DE0009A4207D1BDE810400B4840F227710022AB
:107DF00005F00BBAD4F8A03007485A1C234493F876
:107E00005C10C4F8A02005F018FAD4F8A03003F0F4
:107E10003F03C4F8A03010BD00440040F01D002016
:107E2000014B187C704700BFF01D0020F7B5164CC1
:107E3000002504F1A406154F2B4629462A46009535
:107E40003046FFF7EDFA3A46304611490AF0CCFBCE
:107E50004FF47A73C4F8B4300E4B0F49C4F8AC3009
:107E600004F11403C4F8BC3004F1AC0004F15C0369
:107E70003A46C4F8B050C4F8C03084F8C45003B0D7
:107E8000BDE8F0400AF0B0BBF01D0020E811002072
:107E900039540008E0390108517C000870474FF060
:107EA000FF307047014B0360704700BF88390108FD
:107EB00010B5034B04460360FEF73AFD204610BDA3
:107EC00088390108FEF752BC08B5FEF73BFC08BD37
:107ED00008B50846FEF76AFC012008BD0022426092
:107EE0004FF47A728260014A02607047083A0108D2
:107EF0000846FEF70FBC000037B50D4C00210D4DB4
:107F00000B4600910A462046FFF78AFA2A460A499C
:107F1000204608340AF068FB2046FFF7DFFF0749D8
:107F200020462A4603B0BDE830400AF05DBB00BFE2
:107F3000B81E0020E811002039540008A57E000872
:107F400070470000054B1B7803F0FF002BB1044B7A
:107F50001B78002B14BF022001207047001F002057
:107F6000E81E002037B50B4C00210B4D0B4600914D
:107F70000A462046FFF754FA2A46204607490AF0E7
:107F800033FB074904F108002A4603B0BDE830403E
:107F90000AF02ABBD01E0020E81100203954000846
:107FA000417F0008002303601846704700230360E8
:107FB0001846704700230360184670472DE9F041CA
:107FC0000B7886B0002B0C4614BF90464FF000088B
:107FD00006460BF037FB074620460BF033FB182311
:107FE00001931E230125029302230393059000951C
:107FF0000494404631463A46002302F01DFD034BEF
:1080000018705D7006B0BDE8F08100BFDC1E002076
:1080100048F20202904210B524D006DC99284DD0D7
:1080200048F20102904213D010BD48F28002904203
:1080300007D0B0F5084F45D048F21002904252D117
:1080400029E0294B01229A70DA7000221A7110BDC2
:10805000254C01236371FFF7E7F800F5EA40303063
:10806000A06010BD204C637963B1FFF7DDF800F527
:10807000EA403030A0604FF47F4003F051FAE7202F
:1080800003F0CAFA0023637123736373A373E3736A
:108090002374637410BD0A7D134B62B99A604FF468
:1080A0007F4001221A731A7403F03AFABDE81040B7
:1080B000E72003F0B1BA00221A7310BD0A4B012267
:1080C0009A7410BD0846002100F0BFFF012104464C
:1080D00001F002F8054B1B689C4204D1024B0022C0
:1080E000DA739A735A7310BDDC1E00208C000020D6
:1080F0001FB54FF461504FF461610A2200238DE8EF
:108100000F00064B44F620621A60684601A902AAD5
:1081100003AB01F09FFC05B05DF804FB741F002069
:108120001FB50023009301930293039301A86946AE
:1081300002AA03AB01F054FC05B05DF804FB00009B
:1081400030B5544D00249FB0FF20AC70EC706C70C3
:108150006C712C73AC746C73AC73EC732C7403F093
:10816000DFF9E72003F058FA21462246204602F0C4
:108170003FFC2B46012103F8144F0E200A4601F064
:10818000EFFC6B79012B05D1642003F063F801F05B
:10819000C3F8F6E710210C2001F02EFD3E4802F056
:1081A000F1F83E4802F09AFD012002F07BFD68469E
:1081B0003B4900F0CDFDAB786A78364C1A431CD1B0
:1081C00094F82330002B5AD0FF2002F01DFD002828
:1081D00055D11A24013C06D0E72003F04BFA322097
:1081E00003F038F8F6E70E20012122462D4BEC74FF
:1081F00001F0B6FC85F82340DDE7E72003F00CFA38
:1082000004F113030E200121002201F07BFCA3786E
:1082100013B102F083FD20702B7801210133EB7440
:108220000022204B0E2001F09BFC0020012401467F
:10823000012202F0DDFB214622461B4B0E202C754D
:1082400001F08EFC02F058FB642003F003F80020DC
:1082500002F01CFB85F824404FF47F4000242C746E
:1082600003F05EF9E72003F0D7F948F2442002F06A
:10827000E7FCFFF73DFF85F825401FB030BDE72044
:1082800003F0F8F9FA2002F0E5FF684600F0BCFDC3
:1082900091E700BFDC1E0020283A0108E801002019
:1082A000BD7F0008EF1E0020F01E0020024B1A6860
:1082B00018601046704700BF741F00207FB53D4C0A
:1082C0000025A06203F07EFC03F0BEFB3A4B3B4A64
:1082D00000933B4B3B4901933B4B3C4802933C4B47
:1082E00003933C4B02F0BAFA642002F0B3FF002083
:1082F00002F0CCFA012348F2442084F8243025749B
:1083000002F09EFC344B1A881E46012A2FD00E2004
:1083100010212A4604F1130301F0F4FB102826D1A2
:108320002379244D9BB9EB7C1BB9012385F82530BB
:108330000DE0287D58B90146012202F059FB0121C8
:108340002B4603F8141F0E200A4601F009FC23797E
:1083500043BB184B93F8253023B3204801F032FC7F
:10836000FFF7DEFE04B0BDE87040FFF7C1BEFF209E
:1083700002F04AFC00210E2001F03EFC10210E20EC
:1083800001F03AFC0021102215480AF0ABFD102143
:108390000022134B0E2001F0E3FB0023338003F097
:1083A0005DFDBDE74FF47F4003F0BAF8E72003F02E
:1083B00033F9D2E7DC1E002001BB0008AD7F0008C6
:1083C00015BB0008A57F000881BB000811800008CC
:1083D000A9BB0008B57F000836030020081F002055
:1083E000EF1E00202DE9F341A54C04F0EDFB002326
:1083F000236394F834304BB994F8353033B9A3681B
:108400007BB3FEF711FFA36898422AD394F8243077
:108410009B4D002B40D000266E71AE602E73AE6374
:1084200085F83460012785F824606E73AE73EE73AF
:108430006E7402F061FA6FF07F402F7403F070F8F1
:10844000E72003F0E9F8642002F004FF95F82530F6
:1084500013B3304602F01AFA85F82470FFF770FE65
:108460001AE094F82430864DB3B92B792BB9FEF776
:10847000DBFE00F5EA403030A860002002F006FA8A
:10848000012384F824304FF47F400023237403F049
:1084900047F8E72003F0C0F894F82530784E13B180
:1084A000FFF74EFE06E0337923B1337B03F0FF057F
:1084B000002B6BD0E278724B012A13D11A7B012A70
:1084C00010D15B79012B0DD103256E480BF0BAF862
:1084D000013D82B26B49012002F086F915F0FF05DB
:1084E000F3D1E57094F83C30654D33B96B7B002BCC
:1084F00064D1AB7B002B61D1BEE02B7BFBB195F847
:108500003530E3B96B7B002B68D018E02B4603F8BD
:10851000162F0E200121032201F022FB00264FF628
:10852000FF70267402F0FCFFE72003F075F8FEF7F9
:10853000BDFCB042524D78DB0123AE636B73637BAD
:108540004F4D002B00F09880AB7BBBB9FEF730FCA1
:10855000002811D002DA4FF47F0007E0012801D192
:10856000494803E0022803D14FF0FF1002F0D8FF82
:10857000E72003F051F801E00123AB73FEF7DCFBC9
:10858000002879D1E073A073607375E029462A460C
:108590002846B56002F02CFA3C480BF053F83C4FEB
:1085A000804638460BF04EF800970190791F032063
:1085B00042462B4602F0B6F935717BE7FEF766FCC2
:1085C00000234FF47F40E373A373637302F0A8FFAB
:1085D000E72002B0BDE8F04103F01EB8642002F0CD
:1085E00039FE05F13D0001F07BFA6B7C002B95D044
:1085F0004FF47F0002F094FF637C214D03F0FF02F3
:10860000002B83D0E72003F007F84FF4FA7002F054
:1086100021FEE72003F00EF84FF4FA7002F01AFE84
:108620006B7C013BDBB26B74E6E795F834301BBB27
:10863000AB6B0133022BAB6304BF012385F83430ED
:10864000FEF7F2FB00280ADAA36B0133022BA363C7
:1086500003D10B4B012283F83420022300E00323D3
:108660006374637C0E20A37501210A4B032201F081
:1086700077FA0023637362E702B0BDE8F08100BFC0
:10868000DC1E0020EB0100200060FF00F201002052
:10869000F7010020F21E002013B5084C00210091C4
:1086A0000A460B462046FEF7BBFE0549054A204612
:1086B00002B0BDE8104009F097BF00BF541F002072
:1086C00039540008E8110020704708B5012003F074
:1086D00039FFFEE708B5032003F034FFFEE708B5D5
:1086E000042003F02FFFFEE708B5052003F02AFF62
:1086F000FEE770477047704708B503F0EDFCBDE832
:108700000840FDF73BBF000008B5024B0BB1AFF3CB
:10871000008008BD0000000008B5024B0BB1FFF758
:108720003DFB08BD9D7D000808B5024B0BB1FEF76F
:1087300009FE08BD4573000808B5024B0BB1FEF7F2
:1087400002FE08BD4773000808B5024B0BB1FEF7E7
:108750003FFF08BDD175000808B5012004F0F6F808
:1087600038B1012004F000F9024B13B10020FEF7EC
:1087700017FE08BDA173000808B5022004F0E6F852
:1087800038B1022004F0F0F8024B13B10120FEF7DB
:1087900007FE08BDA173000808B5042004F0D6F850
:1087A00078B1042004F0E0F80020064B0146188060
:1087B00002F0E8FFBDE8084003481021012204F060
:1087C000DCBC08BD941F0020002C014008B5082027
:1087D00004F0BCF838B1082004F0C6F8024B13B11D
:1087E0000320FEF7DDFD08BDA173000808B51020C9
:1087F00004F0ACF838B1102004F0B6F8024B13B115
:108800000420FEF7CDFD08BDA173000808B52020A7
:1088100004F09CF838B1202004F0A6F80E4B13B1F8
:108820000520FEF7BDFD402004F090F838B140204F
:1088300004F09AF8084B13B10620FEF7B1FD802032
:1088400004F084F838B1802004F08EF8024B13B1A4
:108850000720FEF7A5FD08BDA173000808B54FF479
:10886000005004F073F840B14FF4005004F07CF86D
:10887000174B13B10D20FEF793FD4FF4804004F029
:1088800065F840B14FF4804004F06EF8104B13B11E
:108890000E20FEF785FD4FF4004004F057F840B17C
:1088A0004FF4004004F060F8094B13B10F20FEF7BD
:1088B00077FD4FF4006004F049F838B14FF40060E0
:1088C00004F052F8BDE8084002F04EBC08BD00BFFD
:1088D000A173000808B51048102104F087FCC8B146
:1088E0000D48102104F08DFC002003F001F830B990
:1088F0000A4B1A8892B20A3292B21A8008BD064810
:108900001021002204F039FCBDE8084000200121BC
:1089100002F038BF08BD00BF002C0140941F0020AA
:1089200008B5012004F05AFA50B1012004F066FAAB
:10893000044B0BB1FFF728F9BDE8084004F038BA42
:1089400008BD00BF897B000808B5022004F046FA84
:10895000B0B10C4B00224FF400301A7004F004F850
:10896000012004F05BF910B1012004F061F904F07A
:108970001FFA022004F042FABDE8084004F018BAD9
:1089800008BD00BF111F002002F080BB00F062B8DC
:1089900038B514490B78012B23D1134A13680BB94E
:1089A0000B7038BD114C402B206881B205D9403086
:1089B000403B20601360402504E09DB203442360E7
:1089C000002313600A482A460844C02105F04EF9E6
:1089D0000120294605F052FABDE83840012005F093
:1089E000B7B938BDD4110020DC110020D811002007
:1089F000D410002008B5094B01221A70084B002240
:108A000003201A8005F06AFA064B024618804FF4DC
:108A100088710548BDE8084005F040B9881000207D
:108A20008C1000208A1000208E100020074B1B683D
:108A3000052B09D1064B1A68511C052A196003D170
:108A400000221A60FDF7D0BE704700BFBC1F002097
:108A5000601F002070B52B4D2B4C2B682B4E9BB20A
:108A60002380228833881340990508D54FF6FF5399
:108A70002B60A3780133DBB2A370FFF7D7FF228806
:108A8000338813401A0401D505F03AF82288338858
:108A900013405B0505D54FF6FF332B601C4B5B681D
:108AA0009847228833881A40900444BF4DF6FF72DD
:108AB0002A6022881340D90405D54EF6FF732B6037
:108AC000002003F0FDFC2288338813401A050BD5E3
:108AD000104B1B7813B103F0D3FC02E0022003F02B
:108AE000EFFC4FF2FF732B60228833881340DB05C5
:108AF00007D54FF6FF632B600720BDE8704003F0F9
:108B0000DFBC70BD445C0040641F0020A829002029
:108B10005C02002058030020034B9B7A13B1034BE7
:108B200005221A60704700BF84290020BC1F002066
:108B3000014B04221A607047BC1F0020034B1A78B7
:108B4000202A04BF00221A70704700BF681F00204F
:108B500070470000212810B508D1114B1B681B7805
:108B600003F07F03212B10D0022010BD2028FBD161
:108B70000B4B0C4A1B681B78107003F07F03212BF2
:108B8000094B18BF00230BB9EEE7084B044A002439
:108B900012682046936154829847204610BD00BF5A
:108BA000A4290020681F0020FD8B0008E58B000829
:108BB000074B1B681B7803F07F03212B06D100F0C5
:108BC000DF00022814BF02200020704702207047F7
:108BD000A429002009B1022070470128FBD80846CB
:108BE0007047000020B9034B08221B681A827047A7
:108BF00001487047A42900205402002020B9034BEB
:108C000008221B681A82704701487047A429002077
:108C10005402002010B5FDF733FE054B00241B68FD
:108C20009C7203F015FC05F06FF9024B1C6010BD3F
:108C3000A4290020BC1F0020334B344A1B68D27982
:108C400010B500245A729C72DC72204605F038F888
:108C500020464FF4007105F03BF82046102105F046
:108C600045F82046402105F0DDF88021204605F03A
:108C7000C9F8204605F092F8254B204693F83410A9
:108C800005F00AF9204605F076F80120214605F0A6
:108C90001FF80120C02105F0B5F80120202105F0C2
:108CA00025F80120214605F03AF802204FF4C06172
:108CB00005F00EF802204FF4807105F0A3F80220B1
:108CC000214605F02CF80220202105F00FF80320A2
:108CD000214604F0FDFF03204FF4887105F0A2F84F
:108CE0000320402105F0D8F803204FF4405105F04F
:108CF00016F80320214604F0F9FF204604F094FE04
:108D0000044B01221A6010BDA4290020953A0108E5
:108D100054020020BC1F0020014904F081BC00BFA8
:108D20008C020020014904F07BBC00BF94020020AB
:108D3000054B1B68DB78042B04D8044901EBC30105
:108D400004F06EBC00207047A42900209C02002083
:108D500038B504460D46FFF7C1F8204625614FF4AB
:108D60001651FFF7C5F8204638BD70B506460D46CA
:108D7000002428460AF066FC844208D2295D304669
:108D8000FFF7A6F8012002F065FA0134F1E770BDA3
:108D90002DE9F04104460E46904600252046FFF797
:108DA00093F80028FADD2046FFF78CF84545C1B25C
:108DB00006D10023337020461249FFF7D6FF15E095
:108DC0000D29F6D00A29F4D0082901D07F2904D131
:108DD000002DE3D0771E013D02E0771C3170013594
:108DE0002046EDB2FFF774F83E46D7E72046FFF77E
:108DF0006BF8002803DD2046FFF764F8F6E7BDE8CE
:108E0000F08100BFE1660108F0B585B00446FFF7C8
:108E10005BF8002840F39D802046FFF753F8C0B26E
:108E2000772868D104F1140600212122304604F18C
:108E300035050AF057F84122002128460AF052F879
:108E400004F17607002384F87630204642497B708F
:108E5000FFF78BFF204631462022FFF799FF20467F
:108E60003E49FFF782FF012220463946FFF790FF77
:108E700094F87630A3F13002D2B2032AEFD8312B26
:108E80000BD120463649FFF770FF20463549FFF7E2
:108E90006CFF20463449FFF768FF94F87620B2F162
:108EA000300708D020463149FFF75FFF20462946AA
:108EB0004022FFF76DFF20462D49FFF756FF23693B
:108EC0003A4630462946984720462A49FFF74DFF43
:108ED00020462949FFF749FF20462849FFF745FF6B
:108EE00020462749FFF741FF20462649FFF73DFF6F
:108EF0002046254928E069282BD1244B01AD93E871
:108F0000070085E8070020462149FFF72EFF0026CD
:108F1000AF5D20463B0903F13001392984BF03F1DD
:108F20005701C9B207F00F07FEF7D2FF07F1300172
:108F3000392984BF5737F9B220460136FEF7C8FFFA
:108F40000C2EE5D11349204605B0BDE8F040FFF7EF
:108F50000CBF05B0F0BD00BF356501083C650108D8
:108F6000696501089F650108CA6501081066010866
:108F70001B6601085E6601087E660108B16601088D
:108F8000E46601082367010854670108E8F7FF1F3A
:108F90006A670108E166010813B5084C00210091D9
:108FA0000A460B462046FEF73BFA0549054A20468D
:108FB00002B0BDE8104009F017BB00BF6C1F0020D5
:108FC00039540008E8110020002100F004B80E4BCD
:108FD0005B58435004310D480D4B42189A42FFF440
:108FE000F6AF0C4A00F003B8002342F8043B0A4BEA
:108FF0009A42FFF4F9AF03F0B1F9FDF7FBF9FDF781
:109000007BFCFDF745FA704700680108000000206E
:109010009C0B00209C0B0020B4290020FFF7FEBF12
:109020000B0A017043700B0C090E8370C170043081
:1090300070470170090A41700230704743185A782E
:10904000435C03EB022080B2704710B543189A7856
:10905000DC78415C120402EB046258780A4402EBAB
:10906000002010BD73B544790023022C01930FD06A
:10907000032C19D0012C2BD1164D2B692E4623B170
:109080002B6901A898470246B8B9B16801201BE0D6
:10909000104DEB682E4623B1EB6801A898470246B5
:1090A00058B9B16802200FE00A4D6B692E464BB1EA
:1090B0006B6901A89847024620B1A9682046BDF80F
:1090C000043003E0B16803200022134600F024FCC2
:1090D00002B070BDEC200020072830B512D801295D
:1090E00010D8EFF3108472B60125854001FA00F024
:1090F000054B1A6822EA050202431A602346DB0781
:1091000000D462B630BD00BFE402002070B501217A
:1091100086B00546FFF792FF430404462AD5B0F512
:10912000824F27D128460521FFF788FF05EB8000F5
:10913000EE1D0024C51DAE4206D030460221FFF7C9
:109140007DFF04360444F6E7724B1A8E92B2224435
:1091500092B21A86DA6B1444DC63D96B9A6B914233
:1091600040F0CA8093F84020002A00F0C5809B6937
:10917000992031E024F4FF4020F07F0080B20028E5
:1091800000F0978048F210039C4228D00CD8B4F528
:10919000004F40F2BC8048F202039C4215D948F2CD
:1091A00004039C4211D0B2E048F280039C420CD0F0
:1091B00004D848F240039C424FD0A8E0B4F5024FD7
:1091C00003D0B4F5084F6BD0A1E0524B9A69002A46
:1091D00000F092809B69204600210A4667E0002348
:1091E000EA1852790DF803200133042BF8D16B7A79
:1091F00005F10D008DF80430AB7A8DF80530EB7A6F
:109200008DF806302B7B8DF80730002300AA1A4416
:10921000C15C0133042B1172F8D105F11100002358
:1092200000AA1A44C15C0133042B1173F8D105F173
:109230001500002300AA1A44C15C0133042B1174E9
:10924000F8D12B798DF81430324B9A69002A53D01B
:109250009B6920466946152229E0053500212846EC
:10926000FFF7F3FE042100902846FFF7EEFE0821E9
:1092700001902846FFF7E9FE0C2102902846FFF7EF
:10928000E4FE102103902846FFF7DFFE214B0490F7
:109290009A69002A30D09B6920466946142206E06C
:1092A0001C4B9A6942B39B692046691D012298476D
:1092B00022E041F203039C4205D0A4F580530E3B0B
:1092C0009BB2012B1AD86C1D20460421FFF7BDFE6E
:1092D00039301CD12A790F4B00212046DA62FFF782
:1092E000B4FE042105462046FFF7AFFE393003D116
:1092F00028460121FFF7F0FE012009E0054B1B88FD
:109300009BB29C4204D0B4F5805FF5D100E0002010
:1093100006B070BDEC20002070B50E4C6688B6B269
:10932000B6B1606805782B1F5D425D412DB1FFF736
:10933000EDFE003018BF012000E02846064618B9AF
:1093400035B194F841301BB90023638001F0B4FDBE
:10935000304670BDEC2000202DE9F04F85B004466A
:109360008A46914602F0C0FE00250190DFF8308366
:10937000B8F8023046469BB2002B40F0938003F0D1
:1093800023FC02F0B1FE0290029A019BD31A0393D0
:10939000039B002B03DA019B029A13440393BF4BF8
:1093A0001B68002BE2D0039A9A42DFD3338841F244
:1093B00007029BB2934227D841F20602934261D240
:1093C00040F2022293425DD00FD80C2B08D8082B14
:1093D00058D2002B4FD0062B88BF00235AD851E01B
:1093E0000D2B4CD040F201220BE041F202029342DD
:1093F0004BD8B3F5805F45D8B3F5017F3FD940F234
:109400000722934237D13AE041F21102934236D01B
:1094100014D841F20B02934234D005D841F209022C
:1094200093422FD031D82AE041F20F0293422CD040
:1094300028D841F20D02934227D01CE042F20602E6
:1094400093421CD007D8B3F5005F14D942F204024E
:10945000934221D813E0B3F5804F00F0EE8105D898
:10946000A3F50053083B012B09D904E044F20B0299
:10947000934200F0E2810B2003F064F8DDE1FF236A
:109480002370DAE14FF0FF3304E04FF0FF33236045
:109490006360D2E12360D0E1204600213A2209F046
:1094A00021FDCAE1D8F804603378042B40F07981BB
:1094B00030460121FFF7C2FD05463046FFF726FE84
:1094C000002840F0638141F207039D4206F1050741
:1094D00055D841F206039D4280F0AE8040F202234F
:1094E0009D4200F0A98014D80C2D09D8082D80F0D9
:1094F000A380002D00F04A81062D00F2E5809BE05C
:109500000D2D00F0968040F201239D4200F09180E5
:109510003CE141F202039D4218D8B5F5805F00F2AC
:109520008B80B5F5017F40F2848040F207239D4295
:1095300040F02C813379384604F8013B0021FFF7D5
:1095400084FD01462046FFF76BFD1FE141F2040355
:109550009D4200F08B8040F2A58000213846FFF745
:1095600074FD042120603846FFF76FFD083444F88D
:10957000040C06F10D03224606F11D016FE041F2D5
:1095800011039D4255D02BD841F20B039D4253D07D
:109590001CD841F209039D424ED000F29080002178
:1095A0003846FFF752FD042120603846FFF74DFD95
:1095B000082160603846FFF748FD0C21A06038465E
:1095C000FFF743FD04F10C0BE060DEE041F20F0316
:1095D0009D4267D036D841F20D039D4246D0D5E07A
:1095E00042F206039D4224D00BD8B5F5005F40F24D
:1095F000CD8042F204039D4288BF002300F28880A0
:1096000017E042F208039D42C0F0C08042F2090315
:109610009D420ED944F20B039D4240F0B78073790E
:1096200038460121A8F83030FFF708FDA8F83200CD
:10963000ACE033792370A9E038460021FFF705FD3F
:109640002060A3E000213846FFF7FFFCA3464BF85B
:10965000040B04213846FFF7F8FC606095E053F8EE
:10966000040B8B4242F8040BF9D18FE000213846FD
:10967000FFF7EBFC042120603846FFF7E6FC0821E9
:1096800060603846FFF7E1FCE36804F1080B39330A
:10969000A0607AD10121FFF71FFD76E0741F002042
:1096A000EC20002000213846FFF7CFFC0421206089
:1096B0003846FFF7CAFC083444F8040C66E03379F6
:1096C00023713B68236061E000213846FFF7BDFC51
:1096D000042120603846FFF7B8FC08216060384656
:1096E000FFF7ACFC0A21A0603846FFF7A7FC0C345A
:1096F00044F8020C06F11103224606F1350153F835
:10970000040B8B4242F8040BF9D11B8813803DE017
:10971000F2185279E2540133042BF9D106F1090011
:109720000023C15CE2180133042B1171F9D106F159
:109730000D000023C15CE2180133042B1172F9D132
:1097400006F111000023C15CE2180133042B1173F0
:10975000F9D106F115000023C15CE2180133042B96
:109760001174F9D106F119000023C15CE21801332C
:10977000062B1175F9D106F11F000023C15CE21818
:109780000133202B9176F9D100E05C46B8F8002037
:109790002C4B92B2954236D100221A8083F8412098
:1097A00031E0B8F836309BB26BB33046032196F8FF
:1097B00002B0FFF743FC0746BAF1000F0BD00421BB
:1097C000701DFFF742FC06F115010246C9F80000C2
:1097D0005046FBF79DFCCBEB07077B1EB3F5806F74
:1097E00007D20BF10501204631443A46FBF790FCC5
:1097F00001E04FF0FF37B9F1000F01D0C9F8007058
:109800000023A8F836300023A8F8023001F054FBFA
:109810003378042B05D1B5F5805F02D13046FFF7D0
:1098200021FCB8F800309BB2002B7FF49FAD054BB4
:10983000DB8E9BB2002B7FF499AD002005B0BDE814
:10984000F08F00BFEC20002007284FF001030FD855
:10985000EFF3108272B603FA00F0064B1968134654
:1098600008420CBF00200120DB0702D462B670471B
:1098700018467047E4020020034B18800846002178
:109880000A46FFF769BD00BFEC20002010B5034B6E
:109890000124DC86BDE81040FFF75EBDEC2000200F
:1098A00038B50346154601224A710C46881D1946F3
:1098B000FFF7BFFB291D0570204601F06DFB00205E
:1098C00038BD38B5BDF814500C462B44D518ADB290
:1098D00002216171A071E271294604F10800FFF7CD
:1098E000A8FB691D204689B201F056FB002038BD57
:1098F00038B513440C469DB202216171A07129460E
:10990000E27104F10800FFF794FB691D204689B25B
:10991000BDE8384001F040BB2DE9F84F1C4604F18A
:10992000020B032301F107091FFA8BFB88710D4617
:109930004B71484659461646FFF77BFBB4F57A7FD4
:10994000824605F10B0812D82146FFF772FB21462B
:109950005046FFF76EFB314640462246FBF7D8FBE8
:10996000A11D284689B2BDE8F84F01F015BB4FF4A0
:109970007A77B4FBF7F30BEB430189B2FFF759FB9E
:1099800039465046FFF755FB314640463A46FBF70D
:10999000BFFBA4F57A74284640F2EE31A4B23E44EF
:1099A00001F0FAFAB4F57A7F84BFA4F57A74A7B20D
:1099B000A84688BF4FF47A74314628F8054F4846C8
:1099C000224698BF0027FBF7A3FBA11C404689B2A3
:1099D000264401F0E1FA0FB13C46E3E7BDE8F88F19
:1099E000F7B51E46FF238DF80730194B00259C68FC
:1099F000475D63190135042D5F72F9D100200D5CBC
:109A00002318013004285D73F9D10021505C6318DC
:109A1000013104295874F9D104F115000021FFF730
:109A2000FFFA0022B35C83540132042AFAD12146A2
:109A3000142242F20100FFF733FF42F201000DF160
:109A40000701FFF719FF9DF9070003B0F0BD00BF44
:109A5000EC2000202DE9F3411F46FF238DF807304D
:109A60001E4B0646D3F8088033680C46013B122B88
:109A70009CBF142333600B6808F10900013B122BD3
:109A80009CBF14230B6013681546013B122B9CBF2F
:109A9000142313603B68013B122B9CBF14233B60D3
:109AA0003168FFF7BDFA2168FFF7BAFA2968FFF7B6
:109AB000B7FA3968FFF7B4FA4146142242F20900B6
:109AC000FFF7EEFE42F209000DF10701FFF7D4FEA9
:109AD0009DF9070002B0BDE8F08100BFEC20002036
:109AE00010B5074B0446996842F205000022FFF7C3
:109AF000D7FE214642F20500BDE81040FFF7BCBE8C
:109B0000EC2000202DE9F3411F4602ACFF2304F8AE
:109B1000053D124B86469D680E4605F109007146CB
:109B20009046FFF77DFA3146FFF77AFA4146FFF794
:109B300077FA29460C2240F20120FFF7B1FE2146B8
:109B400040F20120FFF798FE3846002101AAFFF7F6
:109B50009DFE019802B0BDE8F08100BFEC2000201E
:109B60002DE9F341984602AD4FF0FF3345F8043D2F
:109B7000134B86469E680C4606F10A00714617464E
:109B8000FFF74EFA0C21FFF74BFA2146FFF748FA90
:109B90003946FFF745FA4146224606F11A00FBF71F
:109BA000B7FA31461022A3B29020FFF7A1FE40F28F
:109BB00002202946FFF760FE019802B0BDE8F0815F
:109BC000EC20002013B50B4B04469968002240F2AC
:109BD0000720FFF765FE40F207206946FFF74CFEBD
:109BE0009DF803309DF8000023709DF804306370E9
:109BF00002B010BDEC20002037B50E4A0346946831
:109C00000D4604F109001946FFF70AFA2946FFF745
:109C100007FA2146082240F20320FFF741FE40F2F6
:109C200003200DF10601FFF727FEBDF8060003B083
:109C300030BD00BFEC2000202DE9F0430023CA5CBA
:109C4000C2540133102BFAD10022344B467B9918B1
:109C500091F801800178847B88EA01089919C97A12
:109C600090F80CC088EA01081919CF7A417880F879
:109C700010804F40C17B47745D1895F80B90857834
:109C8000634489EA050593F80B90C378FFB289EA2B
:109C9000030390F80490857488EA090890F8059009
:109CA000EDB287EA090790F80690C37485EA0905C2
:109CB00090F80790DBB283EA090390F8089080F8E7
:109CC00014805FFA88F888EA090890F809904775C7
:109CD000FFB287EA090790F80A908575EDB285EA28
:109CE000090590F80B90C375DBB283EA09030132D2
:109CF00088EA0C0C7E406C4059400A2A80F8188093
:109D000047768576C37680F81CC046778477C1771E
:109D100000F1100099D1BDE8F08300BFEA3A0108D4
:109D200010F0800F4FEA400018BF80F01B00C0B257
:109D3000704700002DE9F04F91F8A03090F800A096
:109D400042788AEA030A80F800A091F8A13097B01F
:109D5000534043708278079391F8A23090F80490B2
:109D600053408370C278059391F8A33046795340ED
:109D7000C370069391F8A430827989EA030980F8C8
:109D8000049091F8A53090F808805E40467191F8F3
:109D9000A630477A53408371C279089391F8A7306F
:109DA00004465340C3710C9391F8A8304FF0000B58
:109DB00088EA030880F8088091F8A9305F4047726C
:109DC000827A91F8AA30534083720993C07A91F84D
:109DD000AB3094F80CC04340E3720D9391F8AC3073
:109DE00094F80DE08CEA030C84F80CC091F8AD30C7
:109DF000A57B8EEA030E84F80DE091F8AE30E27B8D
:109E00005D40A57391F8AF305A40464BE2739A44D7
:109E10009AF80B0191F890A0994480EA0A0020700A
:109E200099F80BA191F8949098448AEA090984F86A
:109E3000049098F80B9191F898809C4489EA08085E
:109E400084F808809CF80B8191F89CC09E4488EAB5
:109E50000C0C84F80CC09EF80BC191F891E01F44E3
:109E60008CEA0E0E97F80BC191F89D701E448CEA97
:109E70000707677396F80B7191F899601D447E404F
:109E80006672079E0D981E4496F80B7191F89560C6
:109E900084F801E07E406671059E18441E4496F8E1
:109EA0000B7191F89A607740089E1E4496F80BE17A
:109EB00091F89E608EEA0606DDF824E09E449EF846
:109EC0000BC191F892E08CEA0E0E84F802E095F84E
:109ED0000BE191F89650A7728EEA0505A571069DD3
:109EE000A6731D4495F80B6191F89F5075400C9E28
:109EF0001E4496F80B7191F8936013447E40E6700F
:109F000090F80B6191F897007040E07193F80B2185
:109F100091F89B30CDF81CB05340E573E3720D46C9
:109F200002E000BFEA3A0108A77894F80090103DDB
:109F300087EA0900FFF7F4FEFFF7F2FEE67894F8EF
:109F400001B0824686EA0B00FFF7EAFEFFF7E8FE63
:109F50002179A37980EA060880EA0B0B83EA0100E5
:109F600003910293FFF7DCFEFFF7DAFE8AEA0909A4
:109F7000E6798AEA070A6779024686EA07000492C8
:109F8000FFF7CEFEFFF7CCFE049A029B03995340E5
:109F9000DBB294F808C00693A37A51404640C9B298
:109FA0004740F6B283EA0C000293CDF804C0059155
:109FB0000896FFF7B5FEFFF7B3FE617AE67A024630
:109FC00086EA010003910492FFF7AAFEFFF7A8FEBC
:109FD000049ADDF804C00399029B82EA0C0C5340FA
:109FE0004140C9B25FFA8CFCDBB20A91CDF824C0C3
:109FF0000B9394F80CC0A37B4640F6B283EA0C00A6
:10A000000293CDF804C00C96FFF78AFEFFF788FE96
:10A01000617BE67B024686EA010003910492FFF72A
:10A020007FFEFFF77DFE049A029BDDF804C00399D2
:10A03000534082EA0C0C5FFA89F95FFA8BFB5FFAF6
:10A040008AFA5FFA88F84140DBB24640C9B28BEA2F
:10A0500009005FFA8CFC0F93F6B288EA0A030E91AE
:10A060000293CDF834C0109683EA0006FFF758FE3D
:10A0700089EA000086EA000C5FFA8CFC84F800C0D4
:10A080008AEA0B00CDF804C0FFF74AFE8BEA000015
:10A09000029B86EA000B5FFA8BFB184684F801B03E
:10A0A000CDF844B0FFF73CFE8AEA000086EA000AD9
:10A0B0005FFA8AFA88EA090084F802A0CDF848A07D
:10A0C000FFF72EFE88EA0000059BDDF818B0DDF8EA
:10A0D00020A04640FFB2F6B287EA03008AEA0B08E6
:10A0E000E670139688EA0006FFF71AFE05994840C5
:10A0F0007040C0B2149020718BEA0700FFF710FE89
:10A10000784086EA0007FFB2677140461597FFF76F
:10A1100007FE8BEA0000059A7040C0B20690A0715D
:10A120008AEA0200FFF7FCFD8AEA00000B990A9B0D
:10A13000DDF824A0DDF830B04640F6B283EA0A002C
:10A140000596E6718BEA010686EA0007FFF7E8FD4F
:10A150008AEA00000A9B0B9A87EA00085FFA88F8EF
:10A1600082EA030084F80880FFF7DAFDDDF828A012
:10A170008AEA000087EA00095FFA89F9304684F824
:10A180000990FFF7CDFDDDF82CB00C998BEA0000AB
:10A19000099A87EA000B5FFA8BFB81EA020084F8D8
:10A1A0000AB0FFF7BDFD0C9B0D99DDF838A05840B3
:10A1B000109A47408AEA0100DDF83CA0FFB282EA2B
:10A1C0000A03E77283EA000A0293FFF7A9FD0D99DB
:10A1D0000F9A48408AEA00060E99F6B282EA010018
:10A1E0002673FFF79DFD0E9A029B50408AEA0001FC
:10A1F000C9B2617318460391FFF792FD0F9BDDF81A
:10A2000034E058408AEA0002109BD2B2A27383EA7B
:10A210000E000492FFF784FD109BDDF804C0584047
:10A220008AEA000A494B5FFA8AFA84F80FA003EB26
:10A230000C0090F80BC195F890001E448CEA0000C9
:10A24000207014981F44184490F80BC195F894009E
:10A250008CEA0000207103EB080090F80BC195F820
:10A2600098008CEA0000207295F89C0096F80B612B
:10A27000039970402073194491F80B0195F89110DF
:10A28000049A414003EB090090F80B6195F89D009A
:10A290001A44704060731598184490F80B6195F853
:10A2A0009900704060721198184490F80B6195F80D
:10A2B00095006170129970406071194491F80B011A
:10A2C00095F89A1048400699194491F80B6195F851
:10A2D0009E10714003EB0B0696F80BC195F8926047
:10A2E0008CEA0606A67092F80B6195F89620A0728B
:10A2F0007240139EA1731E4496F80B11A271059E25
:10A3000095F89F201E4496F80B014A4095F893104B
:10A3100053444140E17095F8971097F80B01DDF830
:10A320001CA04140E17193F80B1195F89B30AAF104
:10A33000100A4B401AF1900FE372E273CDF81CA0A3
:10A340007FF4F2AD17B0BDE8F08F00BFEA3A010824
:10A3500038B5054C05462046FFF76EFC28462146D9
:10A36000BDE83840FFF7E6BCF81F002008B5102113
:10A37000034600220C20FFF7C5FB103818BF6FF012
:10A38000000008BD034610210C200022FFF7E8BBA7
:10A3900030B585B0054601F0A7FE0190194CE36A7F
:10A3A0004BB108F039F9E36A03600023E36208F077
:10A3B00033F9006824E02846FFF746FA10B14FF061
:10A3C000FF301DE001F090FE0290029A019BD31A2B
:10A3D0000393039B002B03DA019B029A134403931C
:10A3E000094B039A1B689A42E9D2228E054B92B21E
:10A3F000002AD3D01A8E002092B2013A92B21A8665
:10A4000005B030BDEC200020741F0020F7B51746C2
:10A4100002AC4FF0FF3244F8042D124A034695680F
:10A420000E4605F109001946FEF7FAFD3146FEF722
:10A43000F7FD3946FEF7F4FD0C22294641F20100F2
:10A44000FFF72EFA214641F20100FFF715FA08F056
:10A45000E3F8019B002103601846FEF73DFE0198DA
:10A4600003B0F0BDEC20002073B54FF0FF3302AC19
:10A4700044F8043D0E4B05469E68294606F1090046
:10A48000FEF7CEFD0422314641F20B00FFF708FA39
:10A49000214641F20B00FFF7EFF908F0BDF8019BF0
:10A4A000012103602846FEF717FE019802B070BD37
:10A4B000EC200020F7B50C460746164608F0ACF82D
:10A4C0004FF0FF33E62C036025D8154B08219D681B
:10A4D00005F10900FEF7A4FD2146FEF7A1FD0346A4
:10A4E000191A09B2A14203DA7A5C03F8012BF7E7E3
:10A4F00004F10802D2B2294641F21000FFF7D0F968
:10A5000041F210006946FFF7B7F908F085F8009BA3
:10A510000360019B336008F07FF8006803B0F0BD72
:10A52000EC20002037B54FF0FF320192134A03466A
:10A5300094680D4604F109001946FEF771FD0821E3
:10A54000FEF76EFD0821FEF76BFD0023EA5CC254A6
:10A550000133082BFAD11422214641F20700FFF7FC
:10A560009FF901A941F20700FFF786F908F054F8B6
:10A57000019B0360184603B030BD00BFEC200020F3
:10A580002DE9FF411D46314B8646D3F808800F4622
:10A5900008F10900714616460A9CFEF741FD142198
:10A5A000FEF73EFD1421FEF73BFD1421FEF738FDBA
:10A5B0001421FEF735FDD4F1010138BF0021FEF76B
:10A5C0002FFD0FB1396800E03946FEF729FD0EB1C5
:10A5D000316800E03146FEF723FD0DB1296800E047
:10A5E0002946FEF71DFD74B1216839B9636841F24F
:10A5F00087329342DCBF41F288336360FEF710FD7F
:10A600006168FEF70DFD41462C2241F20800FFF77C
:10A6100047F941F208006946FFF72EF9009B002B2D
:10A6200009DB0FB1019838600EB1029830604DB16E
:10A630000398286006E007F0EFFF009B03604FF0EF
:10A64000FF3000E0184604B0BDE8F081EC200020A7
:10A650002DE9FF419846194B86469E6815460F46E0
:10A6600006F1090071460B9CFEF7DAFC2946FEF75D
:10A67000D7FC4146FEF7D4FCBDF8305031460C22E1
:10A680002846FFF70DF9284601A9FFF7F5F8029BC8
:10A69000002B0ADD38460A996A46FFF7F7F8009B57
:10A6A00004B12360002BD8BF029307F0B5FF029BD3
:10A6B0000360184604B0BDE8F08100BFEC20002024
:10A6C0001FB500240094019441F204040294FFF7A2
:10A6D000BFFF04B010BD00002DE9F04F89B0174650
:10A6E0008A469B46149C0390FFF752FEDDF80CC08F
:10A6F000024600285DD1304B812C996B01F101019C
:10A700009963D3F8088008F10A0007D0832C0CD194
:10A7100007F1080908F12205182609E008F11A05D1
:10A72000914610261392129202E015469146164663
:10A730006146FEF775FC311FFEF772FC3946FEF7E5
:10A740006FFC5946FEF76CFC832C05D14946FEF799
:10A7500067FC0821FEF764FC2846421B12B2BA428D
:10A7600004DA1AF8022000F8012BF6E7832C0146E0
:10A770000FD0129BE0B20093139B41469AB2019214
:10A78000BBB23246FFF79DF8832C0CD141F20F008B
:10A790000BE0421A139B12B29A42EADA129B9A5CBD
:10A7A00000F8012BF5E741F2030005A9FFF764F873
:10A7B000069809B0BDE8F08FEC2000201FB50024FA
:10A7C0000094019481240294FFF786FF04B010BD29
:10A7D0001FB5069C0094079C019483240294FFF704
:10A7E0007BFF04B010BD0000202A73B503460E465F
:10A7F000144624D8144A1946956805F10900FEF755
:10A800000FFC0821FEF70CFC2146FEF709FC03466D
:10A810001A1A12B2A24203DAB25C03F8012BF7E76C
:10A8200004F10C022946D2B241F21100FFF738F8C8
:10A8300041F2110001A9FFF71FF8019801E04FF064
:10A84000FF3002B070BD00BFEC200020024B01229F
:10A850005A805860FEF760BDEC20002010B50A4C0D
:10A86000E16022616361029BE361039B2362049BBD
:10A870006362059BA3620123A06184F8403000233A
:10A8800084F8413010BD00BFEC20002070B5174B9C
:10A89000174D002406461748AC63EC632C802C86C9
:10A8A0006C86AC86EC86EC626C806C60AB6000F011
:10A8B000CBFAA642A9680CBF234602234B720122A1
:10A8C0004FF48040FEF7ECFF21464FF48040FEF746
:10A8D000D3FFA968224644F20B00FEF7E1FF2146B0
:10A8E00044F20B00BDE87040FEF7C6BF58210020BF
:10A8F000EC2000204DA8000838B5094C0020A36AC0
:10A9000098472546EB69064C98470028FAD0A3687B
:10A910000BB10023A360BDE8384000F0BDBA00BF12
:10A92000EC2000202DE9F04F994685B04FF0FF3321
:10A9300001932E4B1546D3F808A000248346884681
:10A940000AF109001C210F9E0E9F0294ADF80C40E5
:10A95000FEF766FB2946FEF763FB5946FEF760FBF0
:10A9600005F11001FEF75CFB3146FEF759FB21466D
:10A97000FEF75FFBB9F1000F08D019F8043003555A
:10A980000134062CF9D10630034607E04B4602AAF3
:10A990009A5CC2540133062BF9D1F4E71A1A12B2A9
:10A9A000AA4204DA18F8022003F8012BF6E7194648
:10A9B00046B13FB15A1A12B2B24203DABA5C03F896
:10A9C000012BF7E71C367219D2B251460120FEF76F
:10A9D00067FF01A90120FEF74FFF07F01DFE019B55
:10A9E0000360184605B0BDE8F08F00BFEC200020E2
:10A9F000F7B5174602AC4FF0FF3244F8042D0D4A6C
:10AA0000034695680E4605F109001946FEF708FB56
:10AA10003146FEF705FB3946FEF702FB29460C22BC
:10AA20000420FEF73DFF04202146FEF725FF019894
:10AA300003B0F0BDEC2000202DE9F04F144685B0A6
:10AA400000220292ADF80C206E4A8346D2F808909C
:10AA50000F4609F1090059469A46DDF838800F9DE6
:10AA6000139EFEF7DDFABBF1030F00F2BD80DFE8B5
:10AA70000BF0022C75751421FEF7D2FA2146FEF771
:10AA8000CFFA0021FEF7D5FABAF1000F07D0002265
:10AA90001AF8021081540132062AF9D106E0534611
:10AAA00002AA9A5CC2540133062BF9D10630414602
:10AAB000FEF7B6FA03461A1A12B2A24203D2BA5CE1
:10AAC00003F8012BF7E718348CE02021FEF7A8FAF1
:10AAD0002146FEF7A5FA0021FEF7ABFABAF1000F06
