:020000040800F2
:1050000000500020159B0008D5910008D79100089A
:10501000E1910008EB910008F59100080000000004
:10502000000000000000000000000000FF910008E8
:105030000192000800000000039200080592000899
:10504000699B0008699B0008699B00086D94000833
:10505000699B0008699B00087592000895920008FA
:10506000B5920008E992000809930008699B0008BE
:10507000699B0008699B0008699B0008D59400089B
:10508000699B0008699B000815920008699B00084D
:10509000D9940008699B0008699B000829930008BF
:1050A000699B0008699B0008699B0008F193000850
:1050B0003D9400084D9400085D9400084592000856
:1050C00055920008699B0008699B000865920008DA
:1050D000699B00082592000835920008699B00082A
:1050E0007993000895940008699B0008000000006F
:1050F00000000000000000000000000000000000B0
:0C51000000000000000000005FF808F153
:1051100010F8012B11F8013B012A28BF9A42F7D061
:10512000D01A704781F0004102E000BF83F00043D5
:1051300030B54FEA41044FEA430594EA050F08BF32
:1051400090EA020F1FBF54EA000C55EA020C7FEAF6
:10515000645C7FEA655C00F0E2804FEA5454D4EB73
:105160005555B8BF6D420CDD2C4480EA020281EA3D
:10517000030382EA000083EA010180EA020281EA75
:105180000303362D88BF30BD11F0004F4FEA0131C7
:105190004FF4801C4CEA113102D0404261EB4101D6
:1051A00013F0004F4FEA03334CEA133302D052425C
:1051B00063EB430394EA050F00F0A780A4F1010418
:1051C000D5F1200E0DDB02FA0EFC22FA05F2801852
:1051D00041F1000103FA0EF2801843FA05F3594138
:1051E0000EE0A5F120050EF1200E012A03FA0EFCB7
:1051F00028BF4CF0020C43FA05F3C01851EBE371E1
:1052000001F0004507D54FF0000EDCF1000C7EEBFD
:1052100000006EEB0101B1F5801F1BD3B1F5001F3B
:105220000CD349085FEA30004FEA3C0C04F101045A
:105230004FEA445212F5800F80F09A80BCF1004F83
:1052400008BF5FEA500C50F1000041EB045141EA05
:10525000050130BD5FEA4C0C404141EB010111F406
:10526000801FA4F10104E9D191F0000F04BF0146B1
:105270000020B1FA81F308BF2033A3F10B03B3F18F
:1052800020020CDA0C3208DD02F1140CC2F10C021F
:1052900001FA0CF021FA02F10CE002F11402D8BF7D
:1052A000C2F1200C01FA02F120FA0CFCDCBF41EA49
:1052B0000C019040E41AA2BF01EB0451294330BD18
:1052C0006FEA04041F3C1CDA0C340EDC04F11404F5
:1052D000C4F1200220FA04F001FA02F340EA0300CC
:1052E00021FA04F345EA030130BDC4F10C04C4F112
:1052F000200220FA02F001FA04F340EA03002946F2
:1053000030BD21FA04F0294630BD94F0000F83F43B
:10531000801306BF81F480110134013D4EE77FEA1E
:10532000645C18BF7FEA655C29D094EA050F08BF6A
:1053300090EA020F05D054EA000C04BF194610464B
:1053400030BD91EA030F1EBF0021002030BD5FEA8F
:10535000545C05D14000494128BF41F0004130BDB7
:1053600014F580043CBF01F5801130BD01F000450B
:1053700045F0FE4141F470014FF0000030BD7FEA7E
:10538000645C1ABF194610467FEA655C1CBF0B4679
:10539000024650EA013406BF52EA033591EA030F90
:1053A00041F4002130BD00BF90F0000F04BF002188
:1053B000704730B54FF4806404F132044FF00005BB
:1053C0004FF0000150E700BF90F0000F04BF002134
:1053D000704730B54FF4806404F1320410F000459A
:1053E00048BF40424FF000013EE700BF42004FEA95
:1053F000E2014FEA31014FEA02701FBF12F07F4312
:1054000093F07F4F81F06051704792F0000F14BF0E
:1054100093F07F4F704730B54FF4607401F0004552
:1054200021F0004120E700BF50EA010208BF7047A9
:1054300030B54FF000050AE050EA010208BF70479E
:1054400030B511F0004502D5404261EB41014FF407
:10545000806404F132045FEA915C3FF4DCAE4FF00B
:1054600003025FEADC0C18BF03325FEADC0C18BFF2
:10547000033202EBDC02C2F1200300FA03FC20FA43
:1054800002F001FA03FE40EA0E0021FA02F1144490
:10549000C1E600BF70B54FF0FF0C4CF4E06C1CEAA5
:1054A00011541DBF1CEA135594EA0C0F95EA0C0F1A
:1054B00000F0DEF82C4481EA030621EA4C5123EA8D
:1054C0004C5350EA013518BF52EA033541F48011BC
:1054D00043F4801338D0A0FB02CE4FF00005E1FB6F
:1054E00002E506F00042E0FB03E54FF00006E1FBB9
:1054F00003569CF0000F18BF4EF0010EA4F1FF04FC
:10550000B6F5007F64F5407404D25FEA4E0E6D413B
:1055100046EB060642EAC62141EA55514FEAC5204C
:1055200040EA5E504FEACE2EB4F1FD0C88BFBCF5C8
:10553000E06F1ED8BEF1004F08BF5FEA500E50F179
:10554000000041EB045170BD06F0004646EA01013F
:1055500040EA020081EA0301B4EB5C04C2BFD4EB71
:105560000C0541EA045170BD41F480114FF0000E6A
:10557000013C00F3AB8014F1360FDEBF002001F0D8
:10558000004170BDC4F10004203C35DA0C341BDC52
:1055900004F11404C4F1200500FA05F320FA04F024
:1055A00001FA05F240EA020001F0004221F0004158
:1055B00010EBD37021FA04F642EB06015EEA430ECB
:1055C00008BF20EAD37070BDC4F10C04C4F12005FB
:1055D00000FA04F320FA05F001FA04F240EA0200AE
:1055E00001F0004110EBD37041F100015EEA430E7F
:1055F00008BF20EAD37070BDC4F1200500FA05F29F
:105600004EEA020E20FA04F301FA05F243EA02031D
:1056100021FA04F001F0004121FA04F220EA02002C
:1056200000EBD3705EEA430E08BF20EAD37070BD72
:1056300094F0000F0FD101F00046400041EB010152
:1056400011F4801F08BF013CF7D041EA060195F034
:10565000000F18BF704703F00046520043EB0303EE
:1056600013F4801F08BF013DF7D043EA06037047DB
:1056700094EA0C0F0CEA135518BF95EA0C0F0CD0E6
:1056800050EA410618BF52EA4306D1D181EA03012C
:1056900001F000414FF0000070BD50EA410606BF26
:1056A0001046194652EA430619D094EA0C0F02D16B
:1056B00050EA013613D195EA0C0F05D152EA0336B0
:1056C0001CBF104619460AD181EA030101F00041CE
:1056D00041F0FE4141F470014FF0000070BD41F017
:1056E000FE4141F4780170BD70B54FF0FF0C4CF4F1
:1056F000E06C1CEA11541DBF1CEA135594EA0C0F10
:1057000095EA0C0F00F0A7F8A4EB050481EA030E5C
:1057100052EA03354FEA013100F088804FEA033343
:105720004FF0805545EA131343EA12634FEA022211
:1057300045EA111545EA10654FEA00260EF00041D2
:105740009D4208BF964244F1FD0404F5407402D224
:105750005B084FEA3202B61A65EB03055B084FEAB5
:1057600032024FF480104FF4002CB6EB020E75EBB2
:10577000030E22BFB61A754640EA0C005B084FEADA
:105780003202B6EB020E75EB030E22BFB61A754657
:1057900040EA5C005B084FEA3202B6EB020E75EBA2
:1057A000030E22BFB61A754640EA9C005B084FEA1A
:1057B0003202B6EB020E75EB030E22BFB61A754627
:1057C00040EADC0055EA060E18D04FEA051545EA16
:1057D00016754FEA06164FEAC30343EA52734FEABF
:1057E000C2025FEA1C1CC0D111F4801F0BD141EA38
:1057F00000014FF000004FF0004CB6E711F4801F9D
:1058000004BF01430020B4F1FD0C88BFBCF5E06F7C
:105810003FF6AFAEB5EB030C04BFB6EB020C5FEA8C
:10582000500C50F1000041EB045170BD0EF0004EE1
:105830004EEA113114EB5C04C2BFD4EB0C0541EA13
:10584000045170BD41F480114FF0000E013C90E610
:1058500045EA060E8DE60CEA135594EA0C0F08BFD4
:1058600095EA0C0F3FF43BAF94EA0C0F0AD150EAD3
:1058700001347FF434AF95EA0C0F7FF425AF104666
:1058800019462CE795EA0C0F06D152EA03353FF48E
:10589000FDAE1046194622E750EA410618BF52EA0B
:1058A00043067FF4C5AE50EA41047FF40DAF52EADF
:1058B00043057FF4EBAE12E74FF0FF3C06E000BF7C
:1058C0004FF0010C02E000BF4FF0010C4DF804CD89
:1058D0004FEA410C7FEA6C5C4FEA430C18BF7FEA49
:1058E0006C5C1BD001B050EA410C0CBF52EA430C77
:1058F00091EA030F02BF90EA020F0020704710F1F7
:10590000000F91EA030F58BF994208BF90422CBF85
:10591000D8176FEAE37040F0010070474FEA410C7E
:105920007FEA6C5C02D150EA013C07D14FEA430C9C
:105930007FEA6C5CD6D152EA033CD3D05DF8040B0D
:10594000704700BF8446104662468C46194663463F
:1059500000E000BF01B5FFF7B7FF002848BF10F116
:10596000000F01BD4DF808EDFFF7F4FF0CBF01205B
:1059700000205DF808FB00BF4DF808EDFFF7EAFFD7
:1059800034BF012000205DF808FB00BF4DF808ED92
:10599000FFF7E0FF94BF012000205DF808FB00BF87
:1059A0004DF808EDFFF7CEFF94BF012000205DF811
:1059B00008FB00BF4DF808EDFFF7C4FF34BF01201E
:1059C00000205DF808FB00BF4FEA410212F500120B
:1059D00015D211D56FF47873B3EB625212D94FEA36
:1059E000C12343F0004343EA505311F0004F23FA20
:1059F00002F018BF404270474FF00000704750EA75
:105A0000013005D111F0004008BF6FF00040704731
:105A10004FF00000704700BF014B0360704700BFAC
:105A200078530108014B0360704700BF9053010891
:105A30007047000010B5034B0446036001F0E8FA1C
:105A4000204610BD7853010810B5034B044603608F
:105A500001F0DEFA204610BD9053010808B5FFF7AB
:105A600057FBD0F1010038BF002008BD38B504460F
:105A700001F08CFF234600216518013100220A291C
:105A800085F8C82003F104035A6243F8040CC3F8F4
:105A90009C20F1D1C4F8FC20204638BDD0F8FC3061
:105AA000092B0ADC002300EB8302926A1AB101334E
:105AB0000A2BF8D101E0184670474FF0FF307047CD
:105AC0002DE9F04104460F4616469846FFF7E6FFDB
:105AD000051E16DBAEB104EB8500631901220765D4
:105AE0008662C0F8788083F8C82001F04FFF44F840
:105AF0002500D4F8FC3028460133C4F8FC30BDE85A
:105B0000F0814FF0FF30BDE8F0810023FFF7D8BFF0
:105B1000092910B513DCD0F8FC4084B100EB8103F7
:105B20009A6A62B100220144013C9A6281F8C8205D
:105B3000C3F8D4201A65C3F8A020C0F8FC4010BDFB
:105B400070B5064601F022FF06F124030022002171
:105B5000C3F8B01053F8041FE9B153F8281C9C6A2D
:105B6000451AA54217D3214443F8281CB11891F8CF
:105B7000C81081B1196D09B901210AE09C6F8C42EE
:105B800009DA01252C448C42C3F8AC509C6702DB37
:105B90000221C3F8AC1001320A2AD8D134460025BC
:105BA000D4F8D430012B08D0022B08D1A36A98472F
:105BB00030462946FFF7ACFF01E0A36A984701355C
:105BC0000A2D04F10404EBD170BD10B50446206821
:105BD00003681B6998470028F9D0206803685B694F
:105BE0009847C0B210BD2DE9F84305468946FFF736
:105BF000ECFF012628710027B0462846FFF7E5FF95
:105C000005EB0803187100F07F0303FB067708F12A
:105C100001040306A4B2BFB24FEAC61601D5A046DE
:105C2000EBE7631E89F800300026B3B2BB4212D204
:105C30007F2C0AD82846FFF7C8FF04F101081FFA95
:105C400088F82C442071444603E02846FFF7BDFF46
:105C500000240136E9E72046BDE8F883F7B507469A
:105C60001E46DDB2002405F07F0302A8ED092044A2
:105C700018BF43F08003013400F8043CE4B2002D67
:105C8000F1D1C4F1040302EB030ED154A54206DAAC
:105C900001A9695C131B2B4459710135F6E738687B
:105CA000721C03682244DB6871469847054601F080
:105CB0006DFE0134C7F888002644E8B2831B5842C1
:105CC000584103B0F0BD023370B59BB20025ACB2B1
:105CD00001354E1916F8016C181980B20EB1165420
:105CE000F5E7031B1A44231202F8023C02F8014CA8
:105CF00070BD38B50546006858B103681B6B9847FE
:105D0000044628B928680368DB6A9847204638BDEE
:105D1000012038BD2DE9F04F85B004468A469046F3
:105D20001F46DDF83890FFF7E4FF0646002840F0F4
:105D3000A2802568D4F89C102B6829B15B6A28469C
:105D4000B4F8A02098470BE0D4F8981001A8D3F835
:105D500020B002F041F8284601A9B4F8A020D847A5
:105D6000002800F08380464A012310685168A4F897
:105D7000843001AB03C3127A01A81A700023E21821
:105D8000C15C0133092B5172F9D1B9F1000F0AD06E
:105D90009DF840509DF83C306D0145F0060545EA00
:105DA000C305EDB200E00225B8F1000F05D017B928
:105DB00045F0800501E045F0C0050023A574E374BB
:105DC000251D052323752046112351462A46FFF73A
:105DD0007AFF0346B9F1000F0BD049462A46204608
:105DE000FFF771FF119903462A462046FFF76BFF24
:105DF0000346B8F1000F0CD0204641462A46FFF773
:105E000062FF03462FB1204639462A46FFF75BFF63
:105E10000346053B10212A469BB22046FFF71EFF92
:105E200001F0B4FDC4F88800C4F88C002068036851
:105E30001B69984748B901F0A9FDD4F88C3041F2AC
:105E40008832C01A9042F1D910E020460DF10301CA
:105E5000FFF7C9FE042809D1E5793DB901F096FDA7
:105E60000126C4F88C0084F8905005E0206803688F
:105E7000DB6A984700E00026304605B0BDE8F08FA9
:105E8000105301081FB58DE80C009DF81830002252
:105E90000293079B03931346FFF73CFF05B05DF8A1
:105EA00004FB2DE9F04704460E46924699469DF8BC
:105EB0002080FFF71EFF08B3251D314620462A46E5
:105EC0000523FFF700FF00218FB246184F45B6B2F9
:105ED00001F1010104D21AF8073026443371F3E7C7
:105EE000B8F1000FA6F1050320462A4614BF312160
:105EF00030219BB2BDE8F047FFF7B0BEBDE8F087A8
:105F000073B50546104614460E460DF057FC0022A8
:105F100003460092284631462246FFF7C2FF02B0F0
:105F200070BD012A2DE9F04104460F46154621D8DF
:105F3000FFF7DFFEF0B1B4F8843001339BB203B950
:105F40000123A4F88430B4F88430261D1A1262723A
:105F5000A3723946324620460723FFF7B4FE2318C2
:105F60001D71031F3246204682219BB2BDE8F041DD
:105F7000FFF774BE0020BDE8F0810022FFF7D1BF1B
:105F800070B504460D46FFF7B4FE50B12B12637294
:105F9000A5722046221D40210223BDE87040FFF774
:105FA0005DBE70BD2DE9F04383B000AF0446FFF73E
:105FB000A0FE002800F0988001F0E8FCD4F88C30B6
:105FC0000546C21A41F288339A4204D8D4F8882090
:105FD000821A9A4217D994F89030206823B1036846
:105FE000DB6A984700207FE0C0222271637103685A
:105FF000211DDB68022298470123C4F88850C4F8A9
:106000008C5084F89030206803681B6998470028FA
:1060100069D02046F91DFFF7E6FD8046002862D0D2
:106020002279C4F88C5002F0F002302A48D1D4F81A
:106030009430002B57D0FD796E4661194A798B79DF
:1060400003EB02239BB203F10802D208A6EBC200C5
:10605000854600221FFA82FE9E4507D201EB020E02
:106060009EF807E000F802E00132F3E70022C25494
:106070002279D4F894C012F0020F05F10302C5EBA7
:1060800008081A4414D02244517992F80490C3EBC2
:10609000080201EB0929691D194421441FFA89F9F5
:1060A0000431053AE04720464946FFF769FF05E01D
:1060B000A118A8F103020431D21AE047B54612E054
:1060C000C02A0BD1D0232146237151F8040B0023A1
:1060D000637103680222DB68984704E0D02A04BF9A
:1060E000002384F8903001200C37BD46BDE8F083D2
:1060F00008B5034B00221A705A705B68984708BDB8
:1061000098040020B0B51C4C8CB000AF054604F1DB
:10611000080107F1200001F0C1FF294607F1100036
:1061200001F09AFF07F1100107F1200001F0E5FFEF
:106130000146384601F0B2FF07F1100001F04AFFB6
:1061400007F1200001F046FFBA68384602F1080363
:1061500023F00703ADEB030D01320023694601F084
:10616000EBFF694604F11800FFF707FF384601F01E
:1061700031FF3037BD46B0BD9804002090B58DB0DA
:1061800002AF3123214907F11800BB8001F086FFDF
:106190001F4907F1180001F0BDFF014607F1080093
:1061A00001F07CFF07F1180001F014FF3A6907F1D4
:1061B000080002F1080323F00703ADEB030D02AC66
:1061C00021460132002301F0B7FF1248FFF791FD8D
:1061D000A0B900900F483B1D019300F1A401224695
:1061E0000123FFF74FFE48B10B48FFF78BFF0B4829
:1061F000FFF788FF07480A49FFF7BFFE07F10800CD
:1062000001F0E8FE2C37BD4690BD00BFA004002081
:10621000AC7D0108B0040020C67D0108CE7D0108D8
:10622000D87D0108F0B589B00446684616460F4689
:1062300001F07EF81B4B04A81B491C6001F00CFF09
:10624000694604A801F059FF184901F063FF184C92
:10625000014604F10805284601F011FF04A801F0E9
:10626000B9FE284604F1D5011E22002301F064FF87
:106270000023684604F1BC01192201F05DFF4FF4D0
:10628000FA610C4A04F1F800C4F8F4706660FFF794
:106290003CFCC4F8F801FFF771FF684601F09AFE74
:1062A00009B0F0BD00000020E27D0108847E0108F5
:1062B000980400207D61000801490A46FFF7B2BF3B
:1062C000315A0008F0B51D4C8DB000AF06460D46A2
:1062D00007F1200004F1080101F0E0FE314607F16A
:1062E000100001F0B9FE07F1100107F1200001F0E4
:1062F00004FF0146384601F0D1FE07F1100001F01D
:1063000069FE07F1200001F065FEBB68384603F125
:10631000080222F00702ADEB020D69465A1C002369
:1063200001F00AFF69462A4604F11800FFF7E8FD6C
:10633000384601F04FFE3437BD46F0BD98040020CA
:10634000B0B58CB000AF05460C4607F120001849E7
:1063500001F082FE294607F1100001F07DFE07F1F1
:10636000100107F1200001F0C8FE0146384601F097
:1063700095FE07F1100001F02DFE07F1200001F05D
:1063800029FEBA68384602F1080323F00703ADEB93
:10639000030D01320023694601F0CEFE6846214616
:1063A000FFF790FF384601F015FE3037BD46B0BD0F
:1063B000E77D010810B5174C04F11800FFF7F2FD56
:1063C00004F1F800FFF7BCFB04F11800FFF791FCA3
:1063D000D4F8F83170B1092B03DC2344002283F890
:1063E000C02194F8FC311BB90B480C49FFF7A8FFFA
:1063F00001230CE0092B03DC2344012283F8C02194
:1064000094F8FC3113B1034B5B689847002384F880
:10641000FC3110BD980400206A7E0108EF7D010860
:10642000F8B506460C46104624491546FFF716FBFC
:10643000234907463046FFF711FB10B12148224996
:1064400022E030462149FFF709FB18B1BDE8F840CA
:10645000FFF74EBE20461E49FFF700FB18B11D4B4B
:1064600083F8FD71F8BD20461B49FFF7F7FA20B10C
:106470001A4B1B481968FFF763FF20461949FFF7BD
:10648000EDFA28B118480D49BDE8F840FFF758BFAC
:1064900020461649FFF7E2FA78B128461449FFF77B
:1064A000DDFA50B107481349FFF74AFF094B0122B3
:1064B0005A701A70D3F8F4309847F8BDFB7D010884
:1064C000007E01086A7E0108EF7D0108187E010840
:1064D000337E0108980400203F7E01080000002060
:1064E000477E0108507E0108587E0108627E01083F
:1064F0007A7E01087D7E0108F8B50F4B00AF93F856
:10650000FD3106460D46A3B10DF058F90B3020F0D1
:1065100007006C46ADEB000D684608490DF046F9E2
:10652000684631460DF028F968462946FFF7CAFE4D
:10653000A546BD46F8BD00BF98040020817E010835
:106540002DE9F04F87B0804600AF0E46EB4615466A
:10655000002A7AD0D31D23F00703ADEB030D0DF015
:106560002DF9073020F00700E946ADEB000D40465D
:106570000DF024F90730EA4620F00700ADEB000DDE
:10658000414650460DF012F9314607F1080001F07E
:1065900063FD6A1C07F108004946002301F0CCFDA9
:1065A00040462F210DF0F5F86C46064600255EB1F9
:1065B000701C2F210DF0EDF806461DB9204631461E
:1065C0000DF0F4F80135F2E720460DF0F7F8611C04
:1065D000024620460CF07CFFAB000A3323F0070391
:1065E000ADEB030DB5B91B485146FFF785FF1A48BF
:1065F0002146FFF781FF19484946FFF77DFF5046C6
:1066000021464A46FFF70CFF07F1080001F0E2FCC3
:10661000DD461AE040461249C7F804D00DF00CF9E7
:1066200030460F490DF008F97B6801269846AE42C6
:10663000D9DA0B4900200DF0FFF8014648F8040FA5
:106640000848FFF759FF0136F1E71C37BD46BDE8A2
:10665000F08F00BF867E0108997E0108AD7E01089B
:1066600019530108BE7E010808B5012000F0BEFDE7
:10667000402000F0CFFD002000F0B8FDBDE808404C
:1066800002484FF4165102F051B900BF70180020B3
:106690002DE9F04196B20446884630461946154623
:1066A0001F4601F05FF84FF4FA63E3600C4B0022E1
:1066B000022F236263624FF001030CBF63726272A8
:1066C00030462560C4F8148062602274A2720CBF48
:1066D00022722372617A01F0CDF82046BDE8F08184
:1066E000315A000810B5044601F050F9A061208825
:1066F00001F008F9A27A6060237C4AB9B3B9217A23
:10670000884213D10123A37201F040F9E0611AE03D
:1067100063B9217A884209D1E369E2681A44A3691E
:10672000934210D901232374482010BD617A884216
:1067300009D10AB92D2002E0002BFBD15020002303
:10674000A372237410BD2D2010BD000010B50446A7
:10675000FFF7C8FF482809D0502812D1236A98476C
:10676000084B1B786BB16069074906E0636A98477C
:10677000044B1B782BB160690449BDE81040FFF75A
:10678000DFBD10BD98040020DD7E0108E37E010816
:106790002DE9F0411D461FFA82F804464160AFB270
:1067A00040460221164600F0DDFF3846022100F087
:1067B000D9FF4046012101F05DF83846012101F082
:1067C00059F8012323616361A361E361002323621C
:1067D0006362A362E362044BA660E56023636363C4
:1067E0002046BDE8F08100BF315A0008002310B5F3
:1067F00004460370008901F085F82061A08901F04A
:1068000081F82369A2696061934202D1E2699042F2
:106810003CD0012BA361E06106D1012801D1002306
:1068200009E048B9032306E033B9012801D1206209
:1068300002E008B902232362236A626A63629A1A39
:1068400082EAE271A1EBE2710229A2620DD0012A73
:1068500001D0D01C02D1E26A013205E0511C01D006
:10686000032A02D1E26A013AE2627BB9E26A002AB3
:1068700004DDE362012323703E2010BD04D0012219
:106880002270E3623C2010BD2370E3622D2010BD16
:1068900010B50446FFF7AAFF3C2809D03E2812D1C4
:1068A000236B9847084B1B786BB16068074906E07B
:1068B000636B9847044B1B782BB160680449BDE8B3
:1068C0001040FFF73DBD10BD98040020D57E0108A3
:1068D000D87E010870B504460E4690B203211546D5
:1068E00000F040FF0023E360236142F21073256053
:1068F0006660A360204670BD08B5008801F002F80C
:10690000431E5842584108BD10B5044601F03EF8F8
:106910000A4BE0601B787BB12046FFF7EDFF58B1D2
:106920002369A2681A44E368934205D96068044960
:10693000FFF706FDE368236110BD00BF9804002047
:10694000E87E010808B5FFF78FFEBDE80840014862
:10695000FFF7B2BC0400002010B5104CFFF72AFD71
:1069600004F50070FFF794FF04F50E70FFF7EEFEDC
:1069700004F51870FFF7EAFE04F52270FFF7E6FE53
:1069800004F52C70FFF7E2FE04F53670FFF7DEFE2B
:1069900004F54070BDE81040FFF7B6BF9804002032
:1069A0002DE9F341334C002504F54576324F2B4653
:1069B00029462A460095304601F002FA3A462F4908
:1069C000304604F547760CF00FFD304601F010FD1F
:1069D0003A462B4930460CF007FD04F1080804F153
:1069E000F800FFF743F84046264901F035FB3A46E8
:1069F000404625490CF0F8FC244B04F54070C4F8DF
:106A0000AC30234B2349C4F8B4300A2240F25B7304
:106A1000A4F8B830A661FFF75DFF2A4604F50070C0
:106A20001D490123FFF7B4FE04F50E701B49022235
:106A30000323FFF72DFE0322134604F518701849AF
:106A4000FFF726FE04F52270164904220323FFF700
:106A50001FFE04F52C70144905220323FFF718FECE
:106A6000124904F536700622032302B0BDE8F04156
:106A7000FFF70EBE98040020B4090020195A000840
:106A8000255A0008CF800108D57F0008416500081D
:106A90000A000020EF7E0108F37E0108F87E01085D
:106AA000FD7E0108027F0108077F01080C7F0108B5
:106AB000013101EB420291420BD0030F092B94BF2D
:106AC0003033373301F8013C0023000101F8023B69
:106AD000F1E770471F4B10B51A88032A04D8042029
:106AE0000146188006F0D6FB4FF000604FF4A0413D
:106AF00006F0C6FB0124184B184821461C7006F00E
:106B0000DBFD05F065FC05F03BF92146402006F071
:106B10008BFE6FF07F4005F0A5FAE72005F02EFB15
:106B20000F4B1C7005F076F97D2006F0A1FE18B120
:106B30000C4B1C7006F0B0FE40F6B83005F0C4F9FE
:106B400005F02AFF06F0A4F9074A01231370074A4B
:106B5000137010BD901900206C1900200004300043
:106B60009C18002008230020241900201A19002056
:106B700038B52F4C2388042B04D80521042021800C
:106B800006F088FB2B4D2B7813B12B4802F014F93B
:106B90002B7853B12388052B05D8254B06210420DB
:106BA000198006F077FB02F08BF92B7863B1234B49
:106BB0001B784BB9224B1B7833B1224B1B781BB986
:106BC000214B1B78002BE3D0204B1B78002BDFD10F
:106BD0001F4B1B78002BDBD11B4B1B78012B0FD0DD
:106BE0001C4B6BB12388062B05D8114B07210420C1
:106BF000198006F04FFBFFF7A5FE134B01221A7018
:106C0000154B002BC4D02388072B05D8084B08212F
:106C10000420198006F03EFBFFF79EFE2388082B18
:106C2000B6D8034B09210420198006F033FBAFE7E7
:106C3000901900202419002069740008D918002038
:106C40001A1900209A1800204C0800209B180020D8
:106C5000082300204569000859690008F8B5524B1F
:106C60001A6812B11A68013A1A60504B504D1B78DD
:106C70003BB1504B1B78002B28D04F4B002B47D1FA
:106C800024E04E4C2368264613B12368013B0FE0F5
:106C90004B4B1B78D3B94B4B1B78BBB94A4B1B787A
:106CA000A3B94A4F3B782BB1E72005F0DBFA142358
:106CB00023600BE02B78002B2DD1E72005F08CFA18
:106CC000434B1B78002B34D0322333602B7833B105
:106CD000404C23781BB92EE05A6801325A603E4B73
:106CE0001A68B2F57A7F0FD300221A6006F03CFDD5
:106CF0003A4B4FF6FF711A888A4254D0198004200B
:106D0000BDE8F84006F0C6BA1A6801321A60F8BD4C
:106D100000F0F4FBDAE7324B1B78002BCDD04FF6B6
:106D2000FF7005F09FF9E72005F028FA01233B707A
:106D3000CCE76423C9E7234B1B788BB1294B47F27F
:106D40002F5259689142C7D9BFF34F8F264A274B1C
:106D5000D16801F4E0610B43D360BFF34F8FFEE7CE
:106D6000174D2B7803F0FF0633B9304605F090FB42
:106D700040F6B73398420DD8002005F089FB41F664
:106D800057339842ABD9002005F08AFB184B0122FB
:106D90001A70A4E7304605F083FB2378002B9ED1C0
:106DA00001232B709BE7F8BD102300204C19002015
:106DB00024190020E80B0020FD7400080C2300209B
:106DC000CA1800209B1800209D1800209C18002045
:106DD00099180020D91800201423002090190020B1
:106DE0009A1800204C08002000ED00E00400FA058D
:106DF000C818002008B5094B186005F073FD002085
:106E000005F0BCFD064804F0DFFF05F083FD05F04A
:106E1000A1FDBDE8084007F027BC00BFEC02002040
:106E2000A0860100074B1B68052B08D1064B1A7A78
:106E3000012A04D1987A1B7BC01AC0B27047002087
:106E4000704700BF941900204C0800200D4B10B56E
:106E50001B68052B13D10C4C237A012B0FD16289AF
:106E6000A389D31A012B04D100230320237207F036
:106E700052FDA3895A1CA2811C44A07B10BD4FF077
:106E8000FF3010BD941900204C08002008B50C4BB1
:106E90001B68052B12D10B4B1A6D99180132B2F5F4
:106EA000807F08BF002281F854001A6505F0E8FBD6
:106EB00020B16420BDE8084004F086BF08BD00BFD3
:106EC000941900204C080020F8B5234B93F8542166
:106ED000012A3FD0D3F85821196DB2F5807F04BF45
:106EE0000022C3F85821D3F858411B4A8C4203D1E1
:106EF000002382F85431F8BD8CBFC4F58071C4EB17
:106F00000101C2F85C11D3F85C61134D402EA2B2AE
:106F100007D94034403EC5F85841C5F85C61402768
:106F200006E034440021B7B2C5F85841C5F85C11F9
:106F30000A4801241044C0213A4683F8544107F01E
:106F400065FC2046394607F069FD2046BDE8F8405B
:106F500007F0CEBCF8BD00BF4C080020A008002000
:106F6000094B10B593E8140008331B68D0180AD0F9
:106F700006490822FFF79CFD204605490422BDE88A
:106F80001040FFF795BD10BDE8F7FF1F9B020020E2
:106F9000AB02002013B5084C002100910A460B46B5
:106FA000204600F00DFF0549054A204602B0BDE825
:106FB00010400CF019BA00BFAC090020195A0008A3
:106FC000B409002038B504460D46AC4203D254F84B
:106FD000043B9847F9E738BD08B507480749FFF76C
:106FE000F1FF07480749FFF7EDFFBDE808400648F5
:106FF0000649FFF7E7BF00BF1084010810840108AD
:10700000108401086C8401086C8401086C840108F8
:107010000CF03EBA08B5072006F05EF8FEE7000067
:10702000074A08B5136818441060064A904204D90C
:10703000082006F051F80CF005FA184608BD00BF0C
:1070400038000020004800204FF0FF30704701203A
:10705000704708B50C2006F03FF8FEE7014B1868B2
:10706000704700BFB8090020064B0246582000FBBD
:10707000013101F1080303CB106051601868906082
:10708000704700BFB8090020014BD3F86401704776
:10709000B8090020064B0246142000FB013101F51F
:1070A000B67303CB1060516018689060704700BFE2
:1070B000B809002038B50546064C28B105F084F81B
:1070C000012384F8303238BD05F01CF884F83052C2
:1070D00038BD00BFB80900200E4B2DE9F041D3F8B0
:1070E000647180460024BC4211DA14256543094EC0
:1070F000414606F5B67028440C220CF067FB20B917
:107100003544D5F86801BDE8F0810134EBE7002093
:10711000BDE8F081B8090020044B01221A70044B2D
:1071200000224FF4C0201A6005F0ACBC9B18002070
:1071300050080020034A00231370034A136005F02F
:10714000FFBC00BF9B18002050080020024B00220B
:107150001A6005F0BFBC00BF500800202DE9F047C1
:1071600088B0804668460D4600F076FF1E4B00242E
:10717000D3F800A054452DDA55B3582666431A4F6C
:10718000414607F1080030440C2207F104090CF0D5
:107190001DFBE8B928460CF011FB06F1100340284E
:1071A00034BF02464022294609EB03000CF087F960
:1071B0003E44012386F85830694604A8746800F0FC
:1071C0006DFF04A8A047044604A800F003FF03E0F5
:1071D0000134CFE74FF0FF34684600F0FBFE204655
:1071E00008B0BDE8F08700BFB809002038B5084BEB
:1071F000044693F831221D46824207D010B104F0B4
:10720000E3FF01E004F07EFF85F8314238BD00BFA6
:10721000B8090020034B93F831320BB104F07ABF68
:10722000704700BFB809002010B5064C206803F075
:10723000B5F82368013303D0431E5842584110BDAE
:10724000012010BD3C00002038B50B4B05461B78D3
:107250000C466BB9094B1B7853B9FFF7E5FF0346A2
:1072600030B9074A29461068224604F057F838BD5D
:107270004FF0FF3038BD00BFD8180020D9180020CB
:107280003C0000202DE9F041264B86B01B7880465B
:107290000F46002B41D1244B1B78002B3DD1FFF72B
:1072A000C3FF0446002838D1204D8DF80C008DF81E
:1072B0000D008DF80E008DF80F00286806AA46090B
:1072C00002EB8606012100F01F02914056F80C2CBB
:1072D00001300A4346F80C2C41F28832059204AA88
:1072E000009203A922462346049403F0F9FE0028E5
:1072F00015DD2B6806AA590902EB810151F80C5CD7
:1073000003F01F02154115F0010008D01846414650
:107310003A46234603F084FF01E04FF0FF3006B009
:10732000BDE8F081D8180020D91800203C000020CA
:10733000F0B5144985B0064600F08EFE124B01AC44
:1073400093E8070084E807000025675D30463B09A5
:1073500003F13001392984BF03F15701C9B207F0A5
:107360000F0700F0BDFE07F13001392984BF573700
:10737000F9B23046013500F0B3FE0C2DE5D13046B0
:1073800005B0F0BDCF800108E8F7FF1F30B51F48FA
:10739000ADF57B7D07F0ADFB002834D11C4B17A861
:1073A00005931C4B61AD06931B4B049007931B4B3D
:1073B0000EAC08931A4B039509931A4B0A931A4B78
:1073C0000B931A4B0C931A4B0D931A4B0E931A4BAB
:1073D0000F931A4B10931A4B11931A4B12931A4B8B
:1073E00013931A4B14931A4B15931A4B169305F0DB
:1073F000EDFB284605F0F0FB00940448164903AA6B
:1074000005AB07F07DFB0DF57B7D30BDEC0B00205F
:10741000497200088572000819710008357100086A
:1074200009CC00084D710008B57000088D7900087E
:10743000718500085D700008697000085D710008C2
:10744000897000089570000809770008D970000855
:10745000E5CB0008F9CB0008E8F7FF1F014808F06A
:1074600084BA00BFEC0B002030B502208DB001467D
:10747000112203F077FD051E28DB07A8144907F049
:107480008FFC0223ADF80C3016238DF80E30332319
:107490008DF80F30E0238DF8103000238DF8113077
:1074A00001238DF81230BB238DF81330032403AB76
:1074B000009310230193284607A91322002303F009
:1074C00037FF013CF3D1284603F07CFD0DB030BD01
:1074D000E8F7FF1F38B5084CFFF758FF204607F0C4
:1074E0000BFB204607F0E5FE0546FFF7BDFF2046F3
:1074F00007F04EFE284638BDEC0B002038B5114C85
:10750000D4F8585B2DB1D4F8583B013BC4F8583B34
:1075100038BDD4F85C3B0C4A52F8230004F0CAFD95
:10752000E72004F02BFE6423084AC4F8583BD4F843
:107530005C3B526801339342C4F85C3BA8BFC4F87B
:107540005C5B38BDB80900201C5301083C000020DA
:107550007FB502200121062203F004FD041E24DB76
:107560000223ADF8003000238DF8023035238DF86A
:1075700003304FF4FA5008238DF804308DF80530AD
:107580008DF806308DF8073001F00EFC69461022A8
:107590000546204603F076FD0646284601F004FC29
:1075A000204603F00FFD304601E04FF0FF3004B0FD
:1075B00070BD000010B5064C2068002805DB03F004
:1075C00001FD4FF0FF33236010BD002010BD00BF50
:1075D0003C000020F0B5A7B0FFF7ECFF022001212E
:1075E000062203F0BFFC324F0028386050DB314DDB
:1075F0000223A5F8603B162385F8623B05A83323D8
:1076000085F8633B05F0AEFA002300939DF8143033
:107610003BB1012B17D0284B01AC03F1100E2246D1
:1076200002E0069B009313E018685968264603C6DB
:10763000083373453446F7D10FCA06AC07C424F8A3
:10764000023B1B0C23700A24009B0BB9013C22D186
:10765000009B0BB9194B0093009B4FF4FA501A0E84
:1076600085F8642B1A0C85F8652B1A0A85F8673B98
:1076700085F8662B01F098FB114904461022386802
:1076800003F000FD0546204601F08EFB28460CE085
:107690004FF0FF3009E006A87E210CF0BFF86A46E3
:1076A00081B206A803F0B4FCCEE727B0F0BD00BF5E
:1076B0003C000020B8090020117F010804E5D03605
:1076C000181500200F4B2DE9F041D3F86471804666
:1076D0000024BC4211DA142565430A4E414606F5E2
:1076E000B67028440C220CF071F820B9354495F896
:1076F0007801BDE8F0810134EBE74FF0FF30BDE8E1
:10770000F08100BFB809002008B5FFF7DBFF0138A2
:10771000082803D8024B1844007F08BD022008BD8A
:107720001C53010803F0AEBC37B50B4C002104F527
:1077300037650B4600910A46284600F041FB284673
:107740000649074A0BF050FE04F50D7003B0BDE882
:10775000304007F0B9B900BFB8090020195A000835
:10776000B409002014282DE9F34104460E4677D8C9
:10777000FF2975D000F0F6FB20B1A4F10D039BB2F8
:10778000022B6DD900F0B0FA08B1012C68D901F0D4
:1077900075F820B1A4F112039BB2012B60D9182314
:1077A0006343314DEA18EF58304BB2F804809F42E2
:1077B00001D1042003E02E4B9F4203D10820012178
:1077C00006F03EF8ADF80480062E45D8DFE806F056
:1077D000040F171F27313C0010238DF807300323B7
:1077E0008DF80630182303FB0454002333E00423F0
:1077F0008DF80730182303FB045401232BE04823A2
:107800008DF80730182303FB0454022323E02823B8
:107810008DF80730182303FB045403231BE01823BF
:1078200003228DF8073003FB04548DF8062004234F
:1078300011E01C238DF8073003238DF80630182340
:1078400003FB0454052306E000238DF807301823BA
:1078500003FB04540623A373384601A905F0CEFEAA
:1078600002B0BDE8F08100BF4400002000080140E4
:10787000000C0140142870B504460E463FD8204D38
:10788000182303FB00539B7B5A1ED2B2022A36D91F
:10789000062B34D0FF2B32D000F064FB28B1A4F1CA
:1078A0000D039BB2022B00D870BD00F01DFA10B181
:1078B000012C00D870BD00F0E1FF28B1A4F1120343
:1078C0009BB2012B00D870BD182303FB04539B7B94
:1078D000042B03D120460021FFF744FF012E06D1DF
:1078E00018235C432A192B5992881A6170BD36B946
:1078F00018235C432A192B5992885A6170BD70BDB8
:1079000044000020142838B5044617D81E4D18230B
:1079100003FB00539B7BFF2B10D0043BDBB2012BFE
:107920000CD900F01FFB20B1A4F10D039BB2022B78
:1079300004D900F0D9F918B1012C01D8002038BDC4
:1079400000F09CFF20B1A4F112039BB2012BF5D9EA
:10795000182303FB04539B7B062B07D10A4B93F898
:10796000F811FF29EAD02046FFF7FCFE1822544305
:107970002544054BAA7BA988185912B905F092FE37
:1079800038BD05F089FE38BD4400002005F076B909
:1079900013B5084C002100910A460B46204600F022
:1079A0000FFA0549054A204602B0BDE810400BF029
:1079B0001BBD00BF5C150020195A0008B409002047
:1079C00038B5184B05461C8803F580631B88A4B2A4
:1079D0009BB22BB94EF6EE62A21A18BF012205E047
:1079E000F4B94EF6EE629B1A5A425A4192020E4B7D
:1079F00002F1006404F5804413449C420ED22268D4
:107A0000013209D1204605F0DDFD042809D1A01C72
:107A1000294605F0D7FD38BD0434EEE7802038BD97
:107A2000AB2038BD00400008FE43000808B50848F8
:107A300005F0AAFD04280AD10548002105F0C2FD81
:107A4000042804D1BDE80840024805F09DBD08BDEA
:107A50000040000800440008104B10B51C8803F5D6
:107A600080631B88A4B29BB21CB10BB1AB2010BDCC
:107A700001240B4BA40223440A4A224493420AD90C
:107A80001A8892B2824204D133F8023C00200B8063
:107A900010BD043BF0E7012010BD00BF004000080E
:107AA000FE43000802400008F8B5444E05F02CFDE6
:107AB000434D34884EF6EE61A4B22B888C429BB2C3
:107AC0004FF6FF7210D0944202D0002C73D142E0E6
:107AD0000BB930466CE08B426DD1304605F054FD59
:107AE00004286AD1284632E04BBB1C461646354B6B
:107AF000354A1B8832F814509BB2AB4208BFA6B27D
:107B000033B29C4203D10134642CF0D10FE02E4FEC
:107B1000284607F1C801FFF79FFF0128F3D0284648
:107B2000B7F8C810FFF74CFF0428ECD0F8BD234885
:107B3000002105F047FD04283FD1214838E0934259
:107B400039D1284605F020FD042836D130460021E1
:107B500005F038FDF8BD73B3934201D1284627E004
:107B600016461A4B184A1B8832F814509BB2AB4287
:107B700008BFA6B233B29C4203D10134642CF0D1C9
:107B80000FE0114F284607F1C801FFF765FF0128F4
:107B9000F3D02846B7F8C810FFF712FF0428ECD03E
:107BA000F8BD0748002105F00DFD042805D1034864
:107BB00005F0EAFCF8BDFFF739FFF8BD004000080A
:107BC0000044000806400008641500200644000830
:107BD00010B50446FFF768FF0023044A22F813306B
:107BE0000133642BF9D1204610BD00BF641500207D
:107BF0000148FFF7EDBF00BF2E160020024B18789A
:107C00005B78C01A704700BF30160020064B5A78C8
:107C10001978914204D99918013288785A707047BE
:107C20004FF0FF30704700BF30160020054B5A78E8
:107C30001978914202D91344987870474FF0FF3079
:107C4000704700BF3016002070470000014B0360F2
:107C5000704700BF9053010810B5034B0446036002
:107C6000FFF7D6F9204610BD90530108F8B5094B2F
:107C7000054693F82230164653B10C468F18BC4285
:107C800006D02B6828469B6814F8011B9847F6E736
:107C90003046F8BD3016002010B50C4B012293F889
:107CA00022408CB193F823401F2C02D9426000205F
:107CB00010BD93F824001C1884F82510411CC9B28B
:107CC00083F8241083F82310104610BD30160020CE
:107CD000002242604FF47A728260014A026070476B
:107CE0005053010870477047014B93F85900704793
:107CF0003016002073B50E4C002104F164050D4EC2
:107D00000B4600910A46284600F05AF86C34324679
:107D1000094928460BF068FB2046FFF7D9FF0749C1
:107D20002046324602B0BDE870400BF05DBB00BF9C
:107D300030160020B4090020195A00084D7C0008B4
:107D400008B5034B53F8203003B1984708BD00BF76
:107D5000AC16002013B5084C002100910A460B46D2
:107D6000204600F02DF80549054A204602B0BDE83E
:107D700010400BF039BB00BFEC160020195A000868
:107D8000B40900202DE9F041002407460E4625469F
:107D90003B1919790A22304600F0B2F82E218046AC
:107DA000304600F07EF801344044032C0544EFD106
:107DB0003046F9790A2200F0A3F82844BDE8F081A2
:107DC00030B58371034D9DF80C300560017142712F
:107DD000C37130BD78530108024A02600A684260EC
:107DE000704700BF785301080548064B06490360F9
:107DF000064A0023037143718371C3710BF0F4BA17
:107E0000F416002078530108195A0008B40900201C
:107E100013B5084C002100910A460B462046FFF797
:107E2000CFFF0549054A204602B0BDE810400BF0DF
:107E3000DBBA00BFFC160020195A0008B409002064
:107E4000014B0360704700BF90530108F8B5064628
:107E50000C468F180025BC4207D0336830469B681B
:107E600014F8011B98470544F5E72846F8BD0000C3
:107E700010B5034B04460360FFF7CAF8204610BD57
:107E80009053010838B505460C46084641B10BF041
:107E900095FC2B680246DB6828462146984738BD8A
:107EA00038BD08B503689B68984708BD30B5002306
:107EB0008BB08DF82430012A98BF0A220DF12304DB
:107EC000B1FBF2F303FB1211CDB2092D94BF303593
:107ED0003735EDB2214604F801590BB11946EFE7E9
:107EE000FFF7D0FF0BB030BD10B522B90268C9B2A0
:107EF0009268904710BDD2B2BDE81040FFF7D6BFE0
:107F0000FFF7F2BF13B5084C002100910A460B465B
:107F10002046FFF755FF0549054A204602B0BDE857
:107F200010400BF061BA00BF0C170020195A00086E
:107F3000B409002013B5084C002100910A460B46F5
:107F40002046FFF73DFF0549054A204602B0BDE83F
:107F500010400BF049BA00BF14170020195A00084E
:107F6000B4090020014B587D704700BF1C1700204A
:107F70007047000013B5084C002100910A460B46DB
:107F80002046FFF71DFF0549054A204602B0BDE81F
:107F900010400BF029BA00BF34170020195A00080E
:107FA000B409002013B5084C002100910A460B4685
:107FB0002046FFF705FF0549054A204602B0BDE807
:107FC00010400BF011BA00BF40170020195A0008EA
:107FD000B409002010B5044600680BF059FA204699
:107FE00010BD10B50446006808B10BF051FA00232B
:107FF0002360A360636010BD38B504460D46006879
:1080000001310BF05BFB10B184E82100012038BD89
:10801000036810B5044613B143688B4207D220466B
:10802000FFF7EAFF20B1A3680BB9226813700120A3
:1080300010BD70B50E46114604461546FFF7E8FF21
:1080400018B92046FFF7CDFF04E0A560206831464F
:108050000BF0ACFB204670BD38B50023044603602E
:108060004360836003730D4639B108460BF0A6FBED
:10807000294602462046FFF7DCFF204638BD8842ED
:1080800010B50B46044607D0096819B19A68FFF786
:10809000D0FF01E0FFF7A5FF204610BD10B500237B
:1080A00004460360436083600373FFF7E8FF2046E4
:1080B00010BD70B5044685680E4609B9002070BD34
:1080C00062B115442946FFF7A3FF0028F6D02068C7
:1080D000A368314618440BF069FBA560012070BD10
:1080E00007B500238DF80410012201A98DF8053091
:1080F000FFF7DFFF03B05DF804FB0B4610B509681E
:108100009A680446FFF7D5FF10B92046FFF769FFCC
:10811000204610BD38B504460D4641B108460BF067
:108120004DFB294602462046FFF7C3FF10B9204603
:10813000FFF757FF204638BD38B50C469AB191B1CC
:1081400081688B4202D30023237038BDC91A551EA3
:108150008D4228BF0D4601682A46194420460BF07F
:108160004BFB0023635538BD13B5026802AB03F81F
:10817000011DD46819460122A04702B010BD10B5F8
:10818000B0F89620B0F8943004469A4207D0B4F87C
:1081900094305A1CA4F894201C44207D10BD036820
:1081A0001B6998470028F2D14FF0FF3010BD10B581
:1081B000B0F89620B0F8943004469A4204D0B4F84F
:1081C00094301C44207D10BD03681B69984700282B
:1081D000F5D14FF0FF3010BD0023A0F89430A0F887
:1081E00096307047F8B51746B0F89430B0F896203E
:1081F00004469A420E4606D103681B69984710B997
:108200004FF0FF3512E0B4F89430B4F89650E1180E
:10821000ED1ABD4228BF3D46304614312A460BF0C8
:108220004EF9B4F894302B44A4F894302846F8BDA5
:1082300010B504460069082801D002F0C3FE0823E7
:10824000236110BD30B5B0F8963087B0044633B125
:10825000B0F894209A4202D10368DB69984700F095
:108260008FFB022823D12069082820D0B4F896304B
:108270007F2B1CD8430906AA02EB8303012100F0DF
:108280001F0291400025039553F80C2C01300A433E
:1082900043F80C2C41F28833059304AB009303A9F7
:1082A0002A462B46049502F01BFFA84206DCB4F8D0
:1082B0009600B4F89430C01A07B030BD206906AB00
:1082C000420903EB820252F80C2C00F01F0342FA21
:1082D00003F3DB07EBD5B4F896202B46A118143135
:1082E000C2F1800202F09CFF0028E0DDB4F8963075
:1082F0000BB9A4F894300344A4F89630D7E70000F3
:108300002DE9F04188B006460F46904600F038FB54
:1083100002284FF0000422D108AD384645F8144D2C
:108320000BF04CFA2A4681B2384602F071FEA042A8
:1083300015DD039B04A8DAB20092190EC3F30742BD
:10834000C3F30723FFF73CFD336830461C6A064B36
:1083500006A90693059B42460793A04700E02046E6
:1083600008B0BDE8F08100BF78530108F0B585B0D2
:1083700004460D46164600F003FB0228074634D19A
:108380000121062202F0EEFD002820612DDB23688A
:108390002046DB699847330A8DF802302B794FF479
:1083A000FA508DF804306B798DF803608DF8053044
:1083B000AB79ADF800708DF80630EB798DF80730A9
:1083C00000F0F2FC6946054610222069FFF7AAF981
:1083D0000646284600F0E8FC002E04DA2368204612
:1083E000DB6A984701E0012000E0002005B0F0BD05
:1083F0004FF47A71816005490022016008214260D2
:108400000161A0F89420A0F896207047A8530108B5
:10841000036910B5082B044601D1002010BD00F0FF
:10842000AFFA0228F9D1206901F0B8FFD0F10100BC
:1084300038BF002010BD70B504460E461546FFF744
:10844000E7FF30B1206931462A46002302F066FF7B
:1084500070BD4FF0FF3070BD70B50446FFF7D8FF18
:10846000012819D0B4F89620B4F894309A4212D169
:108470002069082803D001F091FF012801D00020D5
:1084800070BD236820461B69984720B923682046A1
:10849000DB6A9847F3E7012070BD08B5FFF7B8FF26
:1084A000003018BF012008BD13B5084C0021009111
:1084B0000A460B462046FFF783FC0549054A20463D
:1084C00002B0BDE810400AF08FBF00BF481700207F
:1084D000195A0008B409002013B5084C0021009176
:1084E0000A460B462046FFF76BFC0549054A204625
:1084F00002B0BDE810400AF077BF00BF501700205F
:10850000195A0008B409002038B5184C94F92C30D9
:108510005BB394F82D3043B305F0E6F994F82C20C2
:1085200094F82D5051B2002995FBF1F106DD012997
:108530000BDC013A84F82C20002307E0013104DB36
:10854000013284F82C20022300E0012394F82D202E
:10855000013A84F82D20C41805F0FAF9204605F0F8
:10856000D7F9BDE8384005F0F3B938BD58170020F9
:1085700010B5044605F0B8F9001B00F17F02FE2A91
:1085800008D905F0E5F9204605F0C2F9BDE810402C
:1085900005F0DEB9054A80EAE073A3EBE0735B0007
:1085A00082F82C0082F82D3010BD00BF5817002033
:1085B00013B5084C002100910A460B462046FFF7F0
:1085C000FFFB0549054A204602B0BDE810400AF00D
:1085D0000BBF00BF88170020195A0008B4090020FB
:1085E00013B5084C002100910A460B462046FFF7C0
:1085F000E7FB0549054A204602B0BDE810400AF0F5
:10860000F3BE00BF94170020195A0008B4090020D7
:1086100013B5084C002100910A460B462046FFF78F
:10862000CFFB0549054A204602B0BDE810400AF0DC
:10863000DBBE00BF9C170020195A0008B4090020B7
:10864000014B0360704700BF90530108426D836D7A
:10865000D01A00F03F007047426D836D9A4203D0FC
:10866000836D1844007D70474FF0FF307047426DB6
:10867000836D9A4209D0836D826D03441B7D013264
:1086800002F03F028265184670474FF0FF30704796
:1086900010B5034B04460360FEF7BAFC204610BD3C
:1086A0009053010810B50446D4F89C20D4F8A030AB
:1086B0009A42F9D1237C13B90023237410BDD4F856
:1086C000A4304021186805F090FB0028F4D1F1E7B0
:1086D000D0F8A43070B504460E46186840F22771F1
:1086E00005F089FB28B9D4F89C20D4F8A0309A4230
:1086F00015D1D4F89C50013505F03F05D4F8A030D1
:108700009D42D4F8A43013D0EFF31082D20742D5A3
:10871000D4F89C10D4F8A020914209D13BE0D4F8C1
:10872000A43040F227711868012205F03EFBE0E713
:10873000186840F2277105F05EFB0028DED0D4F8FF
:10874000A4308021186805F050FB0028D6D0D4F85A
:10875000A43040F227711868002205F026FBD4F8F7
:10876000A4301868D4F8A0305A1C2344C4F8A020C0
:1087700093F85C1005F031FBD4F8A03040F227717B
:1087800003F03F03C4F8A030D4F8A43001221868E5
:1087900005F00BFBB2E7D4F89C2040F2277122448D
:1087A00082F85C60C4F89C500125186825742A463C
:1087B00005F0FBFA284670BD10B540F2255104467D
:1087C000006805F018FB70B1206805F00AFBE3694A
:1087D000C0B21A6C596C013202F03F028A4202D0D8
:1087E000196C58541A64206840F2277105F003FB95
:1087F000B8B1A3692068196C5A6C914206D1BDE8E2
:10880000104040F22771002205F0CFBA5A6C511C7B
:108810005964995C05F0E1FAA3695A6C02F03F02D1
:108820005A6410BDF8B54FF47A7383600C4B04465C
:10883000002503604560C0F8A41004F15C074826D9
:1088400014308F613246C86129460AF05CFE384612
:10885000294632460AF057FE25742046F8BD00BF6F
:10886000E85301080148FFF7A7BF00BF40020020FE
:108870000148FFF7A1BF00BF60020020014B187C38
:10888000704700BFA417002073B50E4C002104F1FF
:1088900014050D4E0B4600910A462846FFF790FA44
:1088A0001C343246284609490AF09EFD20460849F4
:1088B000FFF7B8FF07492046324602B0BDE87040D6
:1088C0000AF092BDA4170020B4090020195A00082C
:1088D000400200204186000870474FF0FF3070478B
:1088E000014B0360704700BF9053010810B5034B64
:1088F00004460360FEF78CFB204610BD9053010830
:10890000FEF7A4BA08B5FEF78DFA08BD08B508460B
:10891000FEF7BCFA012008BD002242604FF47A72D3
:108920008260014A02607047105401080846FEF751
:1089300061BA000037B50D4C00210D4D0B4600917A
:108940000A462046FFF73CFA2A460A4920460834E0
:108950000AF04AFD2046FFF7DFFF074920462A4676
:1089600003B0BDE830400AF03FBD00BF68180020EA
:10897000B4090020195A0008E18800087047000077
:10898000054B1B7803F0FF002BB1044B1B78002B29
:1089900014BF022001207047C91800209818002039
:1089A00037B50B4C00210B4D0B4600910A46204673
:1089B000FFF706FA2A46204607490AF015FD07493F
:1089C00004F108002A4603B0BDE830400AF00CBDAF
:1089D00080180020B4090020195A00087D89000879
:1089E0000023036018467047002303601846704751
:1089F00000230360184670472DE9F0410B7890B0D2
:108A000004460D4616462BB1032A54D8DFE802F07F
:108A100002113C3C20460AF0D1FE01230246002010
:108A20000093019002900390049005902146034624
:108A30003DE008460AF0C2FE00264FEA50088DF8D5
:108A40001E60464505F1020508AF0FD015F8023C3F
:108A500007A88DF81C3015F8013C002110228DF874
:108A60001D300AF0BFFFB8550136EAE720460AF08C
:108A7000A5FE0023024601208DE8410002930393E6
:108A800004970593214612E00AF098FE074628460F
:108A90000AF094FE012118221E234FF0020E8DE8E9
:108AA0000E4005900495304621463A46002302F0D8
:108AB00077FD044B1870034B01225A7010B0BDE8CB
:108AC000F08100BF8C180020034610B548F2100456
:108AD000A34208464CD00DDC48F20102934224D058
:108AE00048F2020293422AD0992B64D1324B0122E0
:108AF0009A7410BD48F28004A3420FD0B3F5084F1A
:108B000049D048F24000834255D12B4C04F1140067
:108B10000AF0D5FCA36A0133A36210BD264B0122E3
:108B20009A70DA7000221A7110BD234C0123637110
:108B3000FEF72CFF00F5EA403030A06010BD1E4C5F
:108B4000637963B1FEF722FF00F5EA403030A060A0
:108B50004FF47F4003F086FAE72003F00FFB002379
:108B6000637123736373A373E3732374637410BD1E
:108B70000A7D114B62B99A604FF47F4001221A734B
:108B80001A7403F06FFABDE81040E72003F0F6BA5C
:108B900000221A7310BD002100F0FDFF01210446E0
:108BA00001F040F8054B1B689C4204D1024B0022A7
:108BB000DA739A735A7310BD8C1800203C000020A1
:108BC0001FB54FF461504FF461610A2200238DE814
:108BD0000F00064B44F620621A60684601A902AAFB
:108BE00003AB01F0E1FC05B05DF804FB481900207F
:108BF0001FB50023009301930293039301A86946D4
:108C000002AA03AB01F096FC05B05DF804FB00007E
:108C100070B500210A4C0E2001F098FD102510219E
:108C20000E2001F093FD2A46204600210AF06BFC3D
:108C3000294623460E200022BDE8704001F03ABDCF
:108C4000B818002030B5524D00249FB0FF20AC7002
:108C5000EC706C706C712C73AC746C73AC73EC73E3
:108C60002C7403F0FFF9E72003F088FA214622462E
:108C7000204602F071FC2B46012103F82D4F0E20F7
:108C80000A4601F017FD6B79012B05D1642003F032
:108C900093F801F0E7F8F6E710210C2001F056FDFB
:108CA0003C4802F019F93C4802F0CAFD012002F0EC
:108CB000ABFD6846394900F0F1FDAB786A78344C79
:108CC0001A4317D194F83C30002B57D0FF2002F004
:108CD0004DFD002852D11A24013C06D0E72003F0B4
:108CE0007BFA322003F068F8F6E7FFF791FF85F88A
:108CF0003C40E2E7E72003F041FA04F12C030E20A8
:108D00000121002201F0A8FCA37813B102F0B8FD04
:108D100020702B780121013385F82C300022204B64
:108D20000E2001F0C7FC002001240146012202F0C0
:108D300013FC214622461B4B0E2085F82D4001F0E6
:108D4000B9FC02F08DFB642003F036F8002002F03D
:108D500051FB85F83D404FF47F4000242C7403F014
:108D600081F9E72003F00AFA48F2042002F01AFD24
:108D7000FFF726FF85F83E401FB030BDE72003F027
:108D80002BFAFA2003F018F8684600F0E3FD94E7A8
:108D90008C1800203054010880020020F989000856
:108DA000B8180020B9180020024B1A681860104645
:108DB000704700BF481900207FB5364C002520645D
:108DC00003F0C0FC03F000FC334B344A0093344BF7
:108DD00034490193344B35480293354B0393354B5B
:108DE00002F0F0FA642002F0E7FF002002F002FB3C
:108DF000012348F2042084F83D30257402F0D2FCAF
:108E00002D4B1A881E46012A31D00E2010212A46E9
:108E100004F12C0301F020FC102828D123791D4DEA
:108E2000ABB995F82C301BB9012385F83E300EE024
:108E300095F82D0058B90146012202F08DFB012161
:108E40002B4603F82D1F0E200A4601F033FC237930
:108E5000BBB9104B93F83E309BB1184801F05CFC55
:108E6000FFF7C6FE04B0BDE87040FFF7A9BEFF20C3
:108E700002F07CFCFFF7CCFE0023338003F0B4FD4E
:108E8000CCE74FF47F4003F0EDF8E72003F076F9EC
:108E9000E3E700BF8C18002081C60008E9890008BC
:108EA00095C60008E189000801C70008C98A0008C2
:108EB00029C70008F1890008CE030020D01800203F
:108EC0002DE9F341AE4C04F04FFC0023A36494F869
:108ED0004C304BB994F84D3033B9A3687BB3FEF7EF
:108EE00055FDA36898422AD394F83D30A44D002B39
:108EF00040D000266E71AE602E732E6585F84C60F2
:108F0000012785F83D606E73AE73EE736E7402F0E8
:108F1000A7FA6FF07F402F7403F0A4F8E72003F066
:108F20002DF9642002F048FF95F83E3013B3304627
:108F300002F060FA85F83D70FFF784FE1AE094F8BD
:108F40003D308F4DB3B92B792BB9FEF71FFD00F5DE
:108F5000EA403030A860002002F04CFA012384F887
:108F60003D304FF47F400023237403F07BF8E7206B
:108F700003F004F994F83E30814E13B1FFF762FE1E
:108F800005E033791BB1337B03F0FF05FBB1E278D9
:108F90007B4B012A13D11A7B012A10D15B79012B5B
:108FA0000DD1032577480AF009FC013D82B27549CD
:108FB000012002F0C9F915F0FF05F3D1E570237B1C
:108FC0006F4DE3B195F84D30002B74D017E0294672
:108FD0002A462846B56002F0BFFA6B480AF0EEFB5D
:108FE0006A4F804638460AF0E9FB00970190791FE6
:108FF000032042462B4602F049FA3571C7E794F840
:10900000573023B1624800213A220AF07CFA94F8E2
:109010008E205B4B32B95A7B002A58D19B7B002BA8
:1090200055D1BBE01A7BFAB193F84D20E2B95A7BD7
:10903000002A5CD018E02B4603F82F2F0E200121C8
:10904000032201F037FB00264FF6FF70267403F071
:1090500009F8E72003F092F8FEF7BCFAB042484D59
:1090600065DB01232E656B73637B454D002B00F0A0
:109070009580AB7BBBB9FEF72DFA002811D002DA40
:109080004FF47F0007E0012801D1424803E00228A5
:1090900003D14FF0FF1002F0E5FFE72003F06EF878
:1090A00001E00123AB73FEF7D9F9002876D1E07314
:1090B000A073607372E095F85730002BA7D164203D
:1090C00002F07AFE05F1540001F0B4FA9FE7FEF7D2
:1090D00071FA00234FF47F40E373A373637302F0CC
:1090E000C1FFE72002B0BDE8F04103F047B85B7C68
:1090F000002BA8D04FF47F0002F0B4FF637C204D1A
:1091000003F0FF02002B96D0E72003F037F84FF46E
:10911000FA7002F051FEE72003F03EF84FF4FA70C7
:1091200002F04AFE6B7C013BDBB26B74E6E795F81C
:109130004C309BBB2B6D0133022B2B6504BF0123ED
:1091400085F84C30FEF704FA00280ADA236D013363
:10915000022B236503D10A4B012283F84C20022302
:1091600000E003236374637C0E2084F82F30012118
:10917000094B032201F09EFA0023637374E700BFDA
:109180008C180020830200208A0200208F02002019
:10919000E01800200060FF00BB18002002B0BDE80E
:1091A000F08100BF13B5084C002100910A460B4620
:1091B0002046FEF705FE0549054A204602B0BDE8F7
:1091C00010400AF011B900BF1C190020195A0008FC
:1091D000B4090020704708B5012003F07DFFFEE7C9
:1091E00008B5032003F078FFFEE708B5042003F07C
:1091F00073FFFEE708B5052003F06EFFFEE770473A
:109200007047704708B503F031FDBDE80840FDF731
:1092100025BD000008B5024B0BB1AFF3008008BDBF
:109220000000000008B5024B0BB1FFF721FB08BDA1
:109230007188000808B5024B0BB1FFF713FB08BD9E
:109240006588000808B5024B0BB1FEF74BFD08BD61
:10925000E57C000808B5024B0BB1FEF744FD08BDE4
:10926000E77C000808B5024B0BB1FEF781FE08BD94
:10927000717F000808B5012004F032F938B10120EF
:1092800004F03CF9024B13B10020FEF759FD08BD74
:10929000417D000808B5022004F022F938B102200F
:1092A00004F02CF9024B13B10120FEF749FD08BD73
:1092B000417D000808B5042004F012F978B10420BB
:1092C00004F01CF90020064B0146188003F00CF84E
:1092D000BDE8084003481021012204F01EBD08BD6E
:1092E00068190020002C014008B5082004F0F8F8A7
:1092F00038B1082004F002F9024B13B10320FEF745
:109300001FFD08BD417D000808B5102004F0E8F8F5
:1093100038B1102004F0F2F8024B13B10420FEF72C
:109320000FFD08BD417D000808B5202004F0D8F8E5
:1093300038B1202004F0E2F80E4B13B10520FEF7FF
:10934000FFFC402004F0CCF838B1402004F0D6F8FF
:10935000084B13B10620FEF7F3FC802004F0C0F8A0
:1093600038B1802004F0CAF8024B13B10720FEF791
:10937000E7FC08BD417D000808B54FF4005004F03B
:10938000AFF840B14FF4005004F0B8F8174B13B1E8
:109390000D20FEF7D5FC4FF4804004F0A1F840B159
:1093A0004FF4804004F0AAF8104B13B10E20FEF7E2
:1093B000C7FC4FF4004004F093F840B14FF4004074
:1093C00004F09CF8094B13B10F20FEF7B9FC4FF4E1
:1093D000006004F085F838B14FF4006004F08EF8B6
:1093E000BDE8084002F072BC08BD00BF417D000826
:1093F00008B51048102104F0C9FCC8B10D4810216F
:1094000004F0CFFC002003F033F830B90A4B1A887F
:1094100092B20A3292B21A8008BD06481021002288
:1094200004F07BFCBDE808400020012102F05CBF95
:1094300008BD00BF002C01406819002008B5024B90
:109440001B6803B1984708BD2819002008B5024BD6
:109450005B6803B1984708BD2819002008B5024B86
:109460009B6803B1984708BD2819002008B5012062
:1094700004F084FA50B1012004F090FA044B0BB1CF
:10948000FFF742F8BDE8084004F062BA08BD00BF2B
:109490000985000808B5022004F070FAB0B10C4B41
:1094A00000224FF400301A7004F028F8012004F074
:1094B00085F910B1012004F08BF904F049FA02207B
:1094C00004F06CFABDE8084004F042BA08BD00BFE1
:1094D000D918002002F08CBB00F062B838B51449EE
:1094E0000B78012B23D1134A13680BB90B7038BDCD
:1094F000114C402B206881B205D94030403B2060A0
:109500001360402504E09DB20344236000231360F0
:109510000A482A460844C02105F078F90120294666
:1095200005F07CFABDE83840012005F0E1B938BD0E
:10953000A0090020A8090020A4090020A0080020FC
:1095400008B5094B01221A70084B002203201A802B
:1095500005F094FA064B024618804FF488710548CE
:10956000BDE8084005F06AB95408002058080020FA
:10957000560800205A080020074B1B68052B09D10C
:10958000064B1A68511C052A196003D100221A6083
:10959000FDF79ABC704700BF9419002034190020D1
:1095A00070B52B4D2B4C2B682B4E9BB22380228801
:1095B00033881340990508D54FF6FF532B60A378E5
:1095C0000133DBB2A370FFF7D7FF22883388134043
:1095D0001A0401D505F064F82288338813405B052E
:1095E00005D54FF6FF332B601C4B5B6898472288EC
:1095F00033881A40900444BF4DF6FF722A602288D7
:109600001340D90405D54EF6FF732B60002003F0FC
:1096100021FD2288338813401A050BD5104B1B7887
:1096200013B103F0F7FC02E0022003F013FD4FF248
:10963000FF732B60228833881340DB0507D54FF674
:10964000FF632B600720BDE8704003F003BD70BDD1
:10965000445C00403819002054230020F40200200C
:10966000F4030020034B9B7A13B1034B05221A60CD
:10967000704700BF3023002094190020014B0422C2
:109680001A60704794190020034B1A78202A04BFEF
:1096900000221A70704700BF3C190020704700007C
:1096A000212810B508D1114B1B681B7803F07F03EC
:1096B000212B10D0022010BD2028FBD10B4B0C4ACF
:1096C0001B681B78107003F07F03212B094B18BF18
:1096D00000230BB9EEE7084B044A00241268204629
:1096E000936154829847204610BD00BF502300204C
:1096F0003C1900204997000831970008074B1B6868
:109700001B7803F07F03212B06D100F0DF00022835
:1097100014BF022000207047022070475023002011
:1097200009B1022070470128FBD8084670470000A5
:1097300020B9034B08221B681A8270470148704702
:1097400050230020EC02002020B9034B08221B68A4
:109750001A8270470148704750230020EC02002015
:1097600010B5FDF7FDFB054B00241B689C7203F050
:1097700039FC05F099F9024B1C6010BD5023002004
:1097800094190020334B344A1B68D27910B5002459
:109790005A729C72DC72204605F062F820464FF443
:1097A000007105F065F82046102105F06FF820469D
:1097B000402105F007F98021204605F0F3F8204606
:1097C00005F0BCF8254B204693F8341005F034F929
:1097D000204605F0A0F80120214605F049F80120B7
:1097E000C02105F0DFF80120202105F04FF801200D
:1097F000214605F064F802204FF4C06105F038F806
:1098000002204FF4807105F0CDF80220214605F0CA
:1098100056F80220202105F039F80320214605F0F2
:1098200027F803204FF4887105F0CCF8032040217D
:1098300005F002F903204FF4405105F040F80320F1
:10984000214605F023F8204604F0BEFE044B012219
:109850001A6010BD502300209D540108EC02002026
:1098600094190020014904F0ABBC00BF2403002080
:10987000014904F0A5BC00BF2C030020054B1B6868
:10988000DB78042B04D8044901EBC30104F098BC35
:1098900000207047502300203403002038B50446D0
:1098A0000D46FFF739F8204625614FF41651FFF7B2
:1098B0003DF8204638BD70B506460D4600242846C2
:1098C00009F07CFF844208D2295D3046FFF71EF87C
:1098D000012002F071FA0134F1E770BD2DE9F04189
:1098E00004460E46904600252046FFF70BF8002858
:1098F000FADD2046FFF704F84545C1B206D1002342
:10990000337020461249FFF7D6FF15E00D29F6D037
:109910000A29F4D0082901D07F2904D1002DE3D0F1
:10992000771E013D02E0771C317001352046EDB213
:10993000FEF7ECFF3E46D7E72046FEF7E3FF0028A0
:1099400003DD2046FEF7DCFFF6E7BDE8F08100BF4F
:10995000CD800108F0B585B00446FEF7D3FF00289E
:1099600040F39D802046FEF7CBFFC0B2772868D138
:1099700004F1140600212122304604F1350509F0D6
:10998000C2FD41220021284609F0BDFD04F1760701
:10999000002384F87630204642497B70FFF78BFF26
:1099A000204631462022FFF799FF20463E49FFF727
:1099B00082FF012220463946FFF790FF94F8763067
:1099C000A3F13002D2B2032AEFD8312B0BD12046BB
:1099D0003649FFF770FF20463549FFF76CFF2046F8
:1099E0003449FFF768FF94F87620B2F1300708D0C9
:1099F00020463149FFF75FFF204629464022FFF706
:109A00006DFF20462D49FFF756FF23693A46304641
:109A10002946984720462A49FFF74DFF2046294905
:109A2000FFF749FF20462849FFF745FF2046274911
:109A3000FFF741FF20462649FFF73DFF2046254915
:109A400028E069282BD1244B01AD93E8070085E875
:109A5000070020462149FFF72EFF0026AF5D204674
:109A60003B0903F13001392984BF03F15701C9B221
:109A700007F00F07FEF74AFF07F13001392984BFCD
:109A80005737F9B220460136FEF740FF0C2EE5D1DC
:109A90001349204605B0BDE8F040FFF70CBF05B004
:109AA000F0BD00BF217F0108287F0108557F010814
:109AB0008B7F0108B67F0108FC7F01080780010841
:109AC0004A8001086A8001089D800108D080010851
:109AD0000F81010840810108E8F7FF1F5681010846
:109AE000CD80010813B5084C002100910A460B46B1
:109AF0002046FEF765F90549054A204602B0BDE853
:109B0000104009F071BC00BF40190020195A00082C
:109B1000B4090020002100F004B80E4B5B584350FC
:109B200004310D480D4B42189A42FFF4F6AF0C4A2F
:109B300000F003B8002342F8043B0A4B9A42FFF4BA
:109B4000F9AF03F0D5F9FCF7C5FFFDF745FAFDF7CE
:109B50000FF870476C840108000000209804002072
:109B60009804002060230020FFF7FEBF0B0A01705D
:109B700043700B0C090E8370C17004307047017084
:109B8000090A41700230704743185A78435C03EB6E
:109B9000022080B2704710B543189A78DC78415C97
:109BA000120402EB046258780A4402EB002010BD54
:109BB00073B544790023022C01930FD0032C19D0E4
:109BC000012C2BD1164D2B692E4623B12B6901A8F0
:109BD00098470246B8B9B16801201BE0104DEB6808
:109BE0002E4623B1EB6801A89847024658B9B168E0
:109BF00002200FE00A4D6B692E464BB16B6901A83C
:109C00009847024620B1A9682046BDF8043003E019
:109C1000B16803200022134600F028FC02B070BD9A
:109C2000981A0020072830B512D8012910D8EFF370
:109C3000108472B60125854001FA00F0054B1A68C0
:109C400022EA050202431A602346DB0700D462B60B
:109C500030BD00BF7C03002070B5012186B00546F1
:109C6000FFF792FF430404462AD5B0F5824F27D16F
:109C700028460521FFF788FF05EB8000EE1D002434
:109C8000C51DAE4206D030460221FFF77DFF0436E7
:109C90000444F6E7724B1A8E92B2224492B21A86AC
:109CA000DA6B1444DC63D96B9A6B914240F0CA8042
:109CB00093F84020002A00F0C5809B69992031E08C
:109CC00024F4FF4020F07F0080B2002800F097804D
:109CD00048F210039C4228D00CD8B4F5004F40F253
:109CE000BC8048F202039C4215D948F204039C420E
:109CF00011D0B2E048F280039C420CD004D848F264
:109D000040039C424FD0A8E0B4F5024F03D0B4F515
:109D1000084F6BD0A1E0524B9A69002A00F0928064
:109D20009B69204600210A4667E00023EA18527921
:109D30000DF803200133042BF8D16B7A05F10D00E7
:109D40008DF80430AB7A8DF80530EB7A8DF806305B
:109D50002B7B8DF80730002300AA1A44C15C013325
:109D6000042B1172F8D105F11100002300AA1A4446
:109D7000C15C0133042B1173F8D105F115000023E8
:109D800000AA1A44C15C0133042B1174F8D12B7959
:109D90008DF81430324B9A69002A53D09B692046C3
:109DA0006946152229E0053500212846FFF7F3FE14
:109DB000042100902846FFF7EEFE08210190284676
:109DC000FFF7E9FE0C2102902846FFF7E4FE102180
:109DD00003902846FFF7DFFE214B04909A69002A82
:109DE00030D09B6920466946142206E01C4B9A69D4
:109DF00042B39B692046691D0122984722E041F247
:109E000003039C4205D0A4F580530E3B9BB2012B6B
:109E10001AD86C1D20460421FFF7BDFE39301CD135
:109E20002A790F4B00212046DA62FFF7B4FE0421A5
:109E300005462046FFF7AFFE393003D12846012101
:109E4000FFF7F0FE012009E0054B1B889BB29C4206
:109E500004D0B4F5805FF5D100E0002006B070BDFD
:109E6000981A002070B50E4C6688B6B2B6B160681C
:109E700005782B1F5D425D412DB1FFF7EDFE0030EF
:109E800018BF012000E02846064618B935B194F8FD
:109E900041301BB90023638001F0C0FD304670BD26
:109EA000981A00202DE9F04F85B004468A46914665
:109EB00002F0E4FE00250190DFF80883B8F80230D4
:109EC00046469BB2002B40F0938003F04DFC02F01D
:109ED000D5FE0290029A019BD31A0393039B002B99
:109EE00003DA019B029A13440393B54B1B68002BC2
:109EF000E2D0039A9A42DFD3338841F207029BB241
:109F0000934227D841F20602934261D240F20222E4
:109F100093425DD00FD80C2B08D8082B58D2002BB9
:109F20004FD0062B88BF00235AD851E00D2B4CD0C0
:109F300040F201220BE041F2020293424BD8B3F50A
:109F4000805F45D8B3F5017F3FD940F207229342A5
:109F500037D13AE041F21102934236D014D841F29F
:109F60000B02934234D005D841F2090293422FD01C
:109F700031D82AE041F20F0293422CD028D841F286
:109F80000D02934227D01CE042F2060293421CD0FD
:109F900007D8B3F5005F14D942F20402934221D8E6
:109FA00013E0B3F5804F00F0F38105D8A3F500531B
:109FB000083B012B09D904E044F20B02934200F064
:109FC000E7810B2003F088F8E2E1FF232370DFE153
:109FD0004FF0FF3304E04FF0FF3323606360D7E1BD
:109FE0002360D5E1204600213A2209F08CFACFE126
:109FF000D8F804603378042B40F07D81012130468D
:10A00000FFF7C2FD05463046FFF726FE0146002851
:10A0100040F0668141F207039D4206F1050752D8E0
:10A0200041F206039D4280F0AC8040F202239D4243
:10A0300000F0A78011D80C2D09D8082D80F0A18040
:10A04000002D00F04D81062D00F2E88099E00D2DE5
:10A0500000F0948040F201237EE041F202039D4231
:10A0600018D8B5F5805F00F28C80B5F5017F40F21D
:10A07000858040F207239D4240F032813379384693
:10A0800004F8013B0021FFF786FD01462046FFF75B
:10A090006DFD25E141F204039D4200F0958040F200
:10A0A000AB8000213846FFF776FD0421206038465A
:10A0B000FFF771FD083444F8040C06F10D03224645
:10A0C00006F11D0175E041F211039D4256D02BD8D7
:10A0D00041F20B039D4254D01CD841F209039D422A
:10A0E0004FD000F2968000213846FFF754FD04213E
:10A0F00020603846FFF74FFD082160603846FFF7C3
:10A100004AFD0C21A0603846FFF745FD04F10C0B19
:10A11000E060E4E041F20F039D426DD037D841F298
:10A120000D039D4250D0DBE042F205039D4200F05A
:10A13000998007D841F212039D4235D0B5F5005FF2
:10A140001CD8CDE042F209039D4208D842F2080330
:10A150009D4213D242F206039D420FD0C0E044F26A
:10A160000B039D4240F0BC80737938460121A8F86A
:10A170003030FFF709FDA8F83200B1E033792370E1
:10A18000AEE038460021FFF706FD2060A8E0002180
:10A190003846FFF700FDA3464BF8040B0421384670
:10A1A000FFF7F9FC60609AE03846FFF7EDFC20808D
:10A1B00096E053F8040B8B4242F8040BF9D18FE080
:10A1C00048190020981A002000213846FFF7E3FCC8
:10A1D000042120603846FFF7DEFC08216060384625
:10A1E000FFF7D9FCE36804F1080B3933A06076D19E
:10A1F0000121FFF717FD72E000213846FFF7CBFC85
:10A20000042120603846FFF7C6FC083444F8040CEB
:10A2100066E0337923713B68236061E000213846B2
:10A22000FFF7B9FC042120603846FFF7B4FC082191
:10A2300060603846FFF7A8FC0A21A0603846FFF7A7
:10A24000A3FC0C3444F8020C06F11103224606F17B
:10A25000350153F8040B8B4242F8040BF9D11B88EB
:10A2600013803DE073185B79635401310429F9D1FF
:10A2700006F109000023C15CE2180133042B1171BF
:10A28000F9D106F10D000023C15CE2180133042B63
:10A290001172F9D106F111000023C15CE2180133FB
:10A2A000042B1173F9D106F115000023C15CE218EB
:10A2B0000133042B1174F9D106F119000023C15C9C
:10A2C000E2180133062B1175F9D106F11F000023A6
:10A2D000C15CE2180133202B9176F9D100E05C4695
:10A2E000B8F800202C4B92B2954237D100221A8048
:10A2F00083F8412032E0B8F836309BB273B3304671
:10A30000032196F802B0FFF73FFC0746BAF1000FB1
:10A310000CD00421701DFFF73EFC0246C9F8000076
:10A3200006F115015046D2B209F0C9F8CBEB070788
:10A330007B1EB3F5806F07D20BF105012046314437
:10A340003A4609F0BCF801E04FF0FF37B9F1000FD1
:10A3500001D089F800700023A8F836300023A8F84F
:10A36000023001F05BFB3378042B05D1B5F5805F3B
:10A3700002D13046FFF71CFCB8F800309BB2002B2E
:10A380007FF49AAD044BDB8E9BB2002B7FF494AD2F
:10A39000002005B0BDE8F08F981A002007284FF084
:10A3A00001030FD8EFF3108272B603FA00F0064BE8
:10A3B0001968134608420CBF00200120DB0702D4B5
:10A3C00062B67047184670477C030020034B188024
:10A3D000084600210A46FFF765BD00BF981A002015
:10A3E00010B5034B0124DC86BDE81040FFF75ABDD1
:10A3F000981A002038B50346154601224A710C46CA
:10A40000881D1946FFF7BBFB291D0570204601F08A
:10A4100075FB002038BD38B5BDF814500C462B44F0
:10A42000D518ADB202216171A071E271294604F123
:10A430000800FFF7A4FB691D204689B201F05EFB0E
:10A44000002038BD38B513440C469DB2022161711D
:10A45000A0712946E27104F10800FFF790FB691D25
:10A46000204689B2BDE8384001F048BB2DE9F84FDD
:10A470001C4604F1020B032301F107091FFA8BFBB1
:10A4800088710D464B71484659461646FFF777FBD3
:10A49000B4F57A7F824605F10B0812D82146FFF702
:10A4A0006EFB21465046FFF76AFB31464046224686
:10A4B00009F005F8A11D284689B2BDE8F84F01F062
:10A4C0001DBB4FF47A77B4FBF7F30BEB430189B272
:10A4D000FFF755FB39465046FFF751FB31464046E2
:10A4E0003A4608F0ECFFA4F57A74284640F2EE31C3
:10A4F000A4B23E4401F002FBB4F57A7F84BFA4F518
:10A500007A74A7B2A84688BF4FF47A74314628F807
:10A51000054F4846224698BF002708F0D0FFA11CEF
:10A52000404689B2264401F0E9FA0FB13C46E3E720
:10A53000BDE8F88FF7B51E46FF238DF80730194B9D
:10A5400000259C68475D63190135042D5F72F9D1C0
:10A5500000200D5C2318013004285D73F9D100211F
:10A56000505C6318013104295874F9D104F11500C5
:10A570000021FFF7FBFA0022B35C83540132042A66
:10A58000FAD12146142242F20100FFF733FF42F2D2
:10A5900001000DF10701FFF719FF9DF9070003B056
:10A5A000F0BD00BF981A00202DE9F3411F46FF239C
:10A5B0008DF807301E4B0646D3F8088033680C46EA
:10A5C000013B082B9CBF0A2333600B6808F109008C
:10A5D000013B082B9CBF0A230B6013681546013B07
:10A5E000082B9CBF0A2313603B68013B082B9CBFD0
:10A5F0000A233B603168FFF7B9FA2168FFF7B6FA22
:10A600002968FFF7B3FA3968FFF7B0FA4146142218
:10A6100042F20900FFF7EEFE42F209000DF10701D8
:10A62000FFF7D4FE9DF9070002B0BDE8F08100BF3E
:10A63000981A002010B5074B0446996842F20500AD
:10A640000022FFF7D7FE214642F20500BDE8104088
:10A65000FFF7BCBE981A00202DE9F3411F4602AC5B
:10A66000FF2304F8053D124B86469D680E4605F112
:10A67000090071469046FFF779FA3146FFF776FAFE
:10A680004146FFF773FA29460C2240F20120FFF7FA
:10A69000B1FE214640F20120FFF798FE3846002126
:10A6A00001AAFFF79DFE019802B0BDE8F08100BF4E
:10A6B000981A00202DE9F341984602AD4FF0FF3380
:10A6C00045F8043D134B86469E680C4606F10A0089
:10A6D00071461746FFF74AFA0C21FFF747FA214661
:10A6E000FFF744FA3946FFF741FA4146224606F1A0
:10A6F0001A0008F0E4FE31461022A3B29020FFF7C2
:10A70000A1FE40F202202946FFF760FE019802B048
:10A71000BDE8F081981A002013B50B4B04469968E8
:10A72000002240F20720FFF765FE40F2072069464D
:10A73000FFF74CFE9DF803309DF8000023709DF854
:10A740000430637002B010BD981A002037B50E4A6D
:10A75000034694680D4604F109001946FFF706FA0E
:10A760002946FFF703FA2146082240F20320FFF7AB
:10A7700041FE40F203200DF10701FFF727FE9DF88F
:10A78000070003B030BD00BF981A00202DE9F04348
:10A790000023CA5CC2540133102BFAD10022344B7F
:10A7A000467B991891F801800178847B88EA01083A
:10A7B0009919C97A90F80CC088EA01081919CF7A5A
:10A7C000417880F810804F40C17B47745D1895F840
:10A7D0000B908578634489EA050593F80B90C3785C
:10A7E000FFB289EA030390F80490857488EA0908A7
:10A7F00090F80590EDB287EA090790F80690C374C7
:10A8000085EA090590F80790DBB283EA090390F81E
:10A81000089080F814805FFA88F888EA090890F8B0
:10A8200009904775FFB287EA090790F80A90857585
:10A83000EDB285EA090590F80B90C375DBB283EAA7
:10A840000903013288EA0C0C7E406C4059400A2A08
:10A8500080F8188047768576C37680F81CC04677E6
:10A860008477C17700F1100099D1BDE8F08300BF73
:10A87000F254010810F0800F4FEA400018BF80F03A
:10A880001B00C0B2704700002DE9F04F91F8A030D6
:10A8900090F800A042788AEA030A80F800A091F8B4
:10A8A000A13097B0534043708278079391F8A2305B
:10A8B00090F8049053408370C278059391F8A330C8
:10A8C00046795340C370069391F8A430827989EA9F
:10A8D000030980F8049091F8A53090F808805E4054
:10A8E000467191F8A630477A53408371C279089334
:10A8F00091F8A73004465340C3710C9391F8A830E7
:10A900004FF0000B88EA030880F8088091F8A9301E
:10A910005F404772827A91F8AA305340837209935C
:10A92000C07A91F8AB3094F80CC04340E3720D93B9
:10A9300091F8AC3094F80DE08CEA030C84F80CC06C
:10A9400091F8AD30A57B8EEA030E84F80DE091F806
:10A95000AE30E27B5D40A57391F8AF305A40464B74
:10A96000E2739A449AF80B0191F890A0994480EA16
:10A970000A00207099F80BA191F8949098448AEA03
:10A98000090984F8049098F80B9191F898809C44F8
:10A9900089EA080884F808809CF80B8191F89CC02B
:10A9A0009E4488EA0C0C84F80CC09EF80BC191F808
:10A9B00091E01F448CEA0E0E97F80BC191F89D7040
:10A9C0001E448CEA0707677396F80B7191F899603B
:10A9D0001D447E406672079E0D981E4496F80B71CA
:10A9E00091F8956084F801E07E406671059E1844F8
:10A9F0001E4496F80B7191F89A607740089E1E44A9
:10AA000096F80BE191F89E608EEA0606DDF824E0E8
:10AA10009E449EF80BC191F892E08CEA0E0E84F8E9
:10AA200002E095F80BE191F89650A7728EEA0505C1
:10AA3000A571069DA6731D4495F80B6191F89F5072
:10AA400075400C9E1E4496F80B7191F89360134468
:10AA50007E40E67090F80B6191F897007040E071CD
:10AA600093F80B2191F89B30CDF81CB05340E5735F
:10AA7000E3720D4602E000BFF2540108A77894F893
:10AA80000090103D87EA0900FFF7F4FEFFF7F2FEA1
:10AA9000E67894F801B0824686EA0B00FFF7EAFEFA
:10AAA000FFF7E8FE2179A37980EA060880EA0B0B1C
:10AAB00083EA010003910293FFF7DCFEFFF7DAFE61
:10AAC0008AEA0909E6798AEA070A6779024686EA84
:10AAD00007000492FFF7CEFEFFF7CCFE049A029B1C
