:020000040800F2
:105000000050002015AB0008D5A10008D7A100086A
:10501000E1A10008EBA10008F5A1000800000000D4
:10502000000000000000000000000000FFA10008D8
:1050300001A200080000000003A2000805A2000869
:1050400069AB000869AB000869AB00086DA40008F3
:1050500069AB000869AB000875A2000895A20008BA
:10506000B5A20008E9A2000809A3000869AB00087E
:1050700069AB000869AB000869AB0008D5A400085B
:1050800069AB000869AB000815A2000869AB00080D
:10509000D9A4000869AB000869AB000829A300087F
:1050A00069AB000869AB000869AB0008F1A3000810
:1050B0003DA400084DA400085DA4000845A2000816
:1050C00055A2000869AB000869AB000865A200089A
:1050D00069AB000825A2000835A2000869AB0008EA
:1050E00079A3000895A4000869AB0008000000003F
:1050F00000000000000000000000000000000000B0
:0C51000000000000000000005FF808F153
:1051100010F8012B11F8013B012A28BF9A42F7D061
:10512000D01A704781F0004102E000BF83F00043D5
:1051300030B54FEA41044FEA430594EA050F08BF32
:1051400090EA020F1FBF54EA000C55EA020C7FEAF6
:10515000645C7FEA655C00F0E2804FEA5454D4EB73
:105160005555B8BF6D420CDD2C4480EA020281EA3D
:10517000030382EA000083EA010180EA020281EA75
:105180000303362D88BF30BD11F0004F4FEA0131C7
:105190004FF4801C4CEA113102D0404261EB4101D6
:1051A00013F0004F4FEA03334CEA133302D052425C
:1051B00063EB430394EA050F00F0A780A4F1010418
:1051C000D5F1200E0DDB02FA0EFC22FA05F2801852
:1051D00041F1000103FA0EF2801843FA05F3594138
:1051E0000EE0A5F120050EF1200E012A03FA0EFCB7
:1051F00028BF4CF0020C43FA05F3C01851EBE371E1
:1052000001F0004507D54FF0000EDCF1000C7EEBFD
:1052100000006EEB0101B1F5801F1BD3B1F5001F3B
:105220000CD349085FEA30004FEA3C0C04F101045A
:105230004FEA445212F5800F80F09A80BCF1004F83
:1052400008BF5FEA500C50F1000041EB045141EA05
:10525000050130BD5FEA4C0C404141EB010111F406
:10526000801FA4F10104E9D191F0000F04BF0146B1
:105270000020B1FA81F308BF2033A3F10B03B3F18F
:1052800020020CDA0C3208DD02F1140CC2F10C021F
:1052900001FA0CF021FA02F10CE002F11402D8BF7D
:1052A000C2F1200C01FA02F120FA0CFCDCBF41EA49
:1052B0000C019040E41AA2BF01EB0451294330BD18
:1052C0006FEA04041F3C1CDA0C340EDC04F11404F5
:1052D000C4F1200220FA04F001FA02F340EA0300CC
:1052E00021FA04F345EA030130BDC4F10C04C4F112
:1052F000200220FA02F001FA04F340EA03002946F2
:1053000030BD21FA04F0294630BD94F0000F83F43B
:10531000801306BF81F480110134013D4EE77FEA1E
:10532000645C18BF7FEA655C29D094EA050F08BF6A
:1053300090EA020F05D054EA000C04BF194610464B
:1053400030BD91EA030F1EBF0021002030BD5FEA8F
:10535000545C05D14000494128BF41F0004130BDB7
:1053600014F580043CBF01F5801130BD01F000450B
:1053700045F0FE4141F470014FF0000030BD7FEA7E
:10538000645C1ABF194610467FEA655C1CBF0B4679
:10539000024650EA013406BF52EA033591EA030F90
:1053A00041F4002130BD00BF90F0000F04BF002188
:1053B000704730B54FF4806404F132044FF00005BB
:1053C0004FF0000150E700BF90F0000F04BF002134
:1053D000704730B54FF4806404F1320410F000459A
:1053E00048BF40424FF000013EE700BF42004FEA95
:1053F000E2014FEA31014FEA02701FBF12F07F4312
:1054000093F07F4F81F06051704792F0000F14BF0E
:1054100093F07F4F704730B54FF4607401F0004552
:1054200021F0004120E700BF50EA010208BF7047A9
:1054300030B54FF000050AE050EA010208BF70479E
:1054400030B511F0004502D5404261EB41014FF407
:10545000806404F132045FEA915C3FF4DCAE4FF00B
:1054600003025FEADC0C18BF03325FEADC0C18BFF2
:10547000033202EBDC02C2F1200300FA03FC20FA43
:1054800002F001FA03FE40EA0E0021FA02F1144490
:10549000C1E600BF70B54FF0FF0C4CF4E06C1CEAA5
:1054A00011541DBF1CEA135594EA0C0F95EA0C0F1A
:1054B00000F0DEF82C4481EA030621EA4C5123EA8D
:1054C0004C5350EA013518BF52EA033541F48011BC
:1054D00043F4801338D0A0FB02CE4FF00005E1FB6F
:1054E00002E506F00042E0FB03E54FF00006E1FBB9
:1054F00003569CF0000F18BF4EF0010EA4F1FF04FC
:10550000B6F5007F64F5407404D25FEA4E0E6D413B
:1055100046EB060642EAC62141EA55514FEAC5204C
:1055200040EA5E504FEACE2EB4F1FD0C88BFBCF5C8
:10553000E06F1ED8BEF1004F08BF5FEA500E50F179
:10554000000041EB045170BD06F0004646EA01013F
:1055500040EA020081EA0301B4EB5C04C2BFD4EB71
:105560000C0541EA045170BD41F480114FF0000E6A
:10557000013C00F3AB8014F1360FDEBF002001F0D8
:10558000004170BDC4F10004203C35DA0C341BDC52
:1055900004F11404C4F1200500FA05F320FA04F024
:1055A00001FA05F240EA020001F0004221F0004158
:1055B00010EBD37021FA04F642EB06015EEA430ECB
:1055C00008BF20EAD37070BDC4F10C04C4F12005FB
:1055D00000FA04F320FA05F001FA04F240EA0200AE
:1055E00001F0004110EBD37041F100015EEA430E7F
:1055F00008BF20EAD37070BDC4F1200500FA05F29F
:105600004EEA020E20FA04F301FA05F243EA02031D
:1056100021FA04F001F0004121FA04F220EA02002C
:1056200000EBD3705EEA430E08BF20EAD37070BD72
:1056300094F0000F0FD101F00046400041EB010152
:1056400011F4801F08BF013CF7D041EA060195F034
:10565000000F18BF704703F00046520043EB0303EE
:1056600013F4801F08BF013DF7D043EA06037047DB
:1056700094EA0C0F0CEA135518BF95EA0C0F0CD0E6
:1056800050EA410618BF52EA4306D1D181EA03012C
:1056900001F000414FF0000070BD50EA410606BF26
:1056A0001046194652EA430619D094EA0C0F02D16B
:1056B00050EA013613D195EA0C0F05D152EA0336B0
:1056C0001CBF104619460AD181EA030101F00041CE
:1056D00041F0FE4141F470014FF0000070BD41F017
:1056E000FE4141F4780170BD70B54FF0FF0C4CF4F1
:1056F000E06C1CEA11541DBF1CEA135594EA0C0F10
:1057000095EA0C0F00F0A7F8A4EB050481EA030E5C
:1057100052EA03354FEA013100F088804FEA033343
:105720004FF0805545EA131343EA12634FEA022211
:1057300045EA111545EA10654FEA00260EF00041D2
:105740009D4208BF964244F1FD0404F5407402D224
:105750005B084FEA3202B61A65EB03055B084FEAB5
:1057600032024FF480104FF4002CB6EB020E75EBB2
:10577000030E22BFB61A754640EA0C005B084FEADA
:105780003202B6EB020E75EB030E22BFB61A754657
:1057900040EA5C005B084FEA3202B6EB020E75EBA2
:1057A000030E22BFB61A754640EA9C005B084FEA1A
:1057B0003202B6EB020E75EB030E22BFB61A754627
:1057C00040EADC0055EA060E18D04FEA051545EA16
:1057D00016754FEA06164FEAC30343EA52734FEABF
:1057E000C2025FEA1C1CC0D111F4801F0BD141EA38
:1057F00000014FF000004FF0004CB6E711F4801F9D
:1058000004BF01430020B4F1FD0C88BFBCF5E06F7C
:105810003FF6AFAEB5EB030C04BFB6EB020C5FEA8C
:10582000500C50F1000041EB045170BD0EF0004EE1
:105830004EEA113114EB5C04C2BFD4EB0C0541EA13
:10584000045170BD41F480114FF0000E013C90E610
:1058500045EA060E8DE60CEA135594EA0C0F08BFD4
:1058600095EA0C0F3FF43BAF94EA0C0F0AD150EAD3
:1058700001347FF434AF95EA0C0F7FF425AF104666
:1058800019462CE795EA0C0F06D152EA03353FF48E
:10589000FDAE1046194622E750EA410618BF52EA0B
:1058A00043067FF4C5AE50EA41047FF40DAF52EADF
:1058B00043057FF4EBAE12E74FF0FF3C06E000BF7C
:1058C0004FF0010C02E000BF4FF0010C4DF804CD89
:1058D0004FEA410C7FEA6C5C4FEA430C18BF7FEA49
:1058E0006C5C1BD001B050EA410C0CBF52EA430C77
:1058F00091EA030F02BF90EA020F0020704710F1F7
:10590000000F91EA030F58BF994208BF90422CBF85
:10591000D8176FEAE37040F0010070474FEA410C7E
:105920007FEA6C5C02D150EA013C07D14FEA430C9C
:105930007FEA6C5CD6D152EA033CD3D05DF8040B0D
:10594000704700BF8446104662468C46194663463F
:1059500000E000BF01B5FFF7B7FF002848BF10F116
:10596000000F01BD4DF808EDFFF7F4FF0CBF01205B
:1059700000205DF808FB00BF4DF808EDFFF7EAFFD7
:1059800034BF012000205DF808FB00BF4DF808ED92
:10599000FFF7E0FF94BF012000205DF808FB00BF87
:1059A0004DF808EDFFF7CEFF94BF012000205DF811
:1059B00008FB00BF4DF808EDFFF7C4FF34BF01201E
:1059C00000205DF808FB00BF4FEA410212F500120B
:1059D00015D211D56FF47873B3EB625212D94FEA36
:1059E000C12343F0004343EA505311F0004F23FA20
:1059F00002F018BF404270474FF00000704750EA75
:105A0000013005D111F0004008BF6FF00040704731
:105A10004FF00000704700BF014B0360704700BFAC
:105A2000E0660108014B0360704700BFF86601089B
:105A300070470000014B01229A617047C8040020A2
:105A400010B5034B0446036002F068F8204610BD11
:105A5000E066010810B5034B0446036002F05EF8EF
:105A6000204610BDF866010808B5FFF751FBD0F1DC
:105A7000010038BF002008BD38B5044602F0C8FD5B
:105A8000234600216518013100220A2985F8C82023
:105A900003F104035A6243F8040CC3F89C20F1D1CB
:105AA000C4F8FC20204638BDD0F8FC30092B0ADCB5
:105AB000002300EB8302926A1AB101330A2BF8D15A
:105AC00001E0184670474FF0FF3070472DE9F04174
:105AD00004460F4616469846FFF7E6FF051E16DBFE
:105AE000AEB104EB85006319012207658662C0F838
:105AF000788083F8C82002F08BFD44F82500D4F8A4
:105B0000FC3028460133C4F8FC30BDE8F0814FF08A
:105B1000FF30BDE8F0810023FFF7D8BF092910B599
:105B200013DCD0F8FC4084B100EB81039A6A62B1C7
:105B300000220144013C9A6281F8C820C3F8D420B5
:105B40001A65C3F8A020C0F8FC4010BD70B5064629
:105B500002F05EFD06F1240300220021C3F8B0101C
:105B600053F8041FE9B153F8281C9C6A451AA54252
:105B700017D3214443F8281CB11891F8C81081B1FB
:105B8000196D09B901210AE09C6F8C4209DA0125DF
:105B90002C448C42C3F8AC509C6702DB0221C3F852
:105BA000AC1001320A2AD8D134460025D4F8D430BA
:105BB000012B08D0022B08D1A36A9847304629460A
:105BC000FFF7ACFF01E0A36A984701350A2D04F105
:105BD0000404EBD170BD10B50446206803681B694E
:105BE00098470028F9D0206803685B699847C0B2DD
:105BF00010BD2DE9F84305468946FFF7ECFF012665
:105C000028710027B0462846FFF7E5FF05EB08039B
:105C1000187100F07F0303FB067708F10104030607
:105C2000A4B2BFB24FEAC61601D5A046EBE7631E89
:105C300089F800300026B3B2BB4212D27F2C0AD8BA
:105C40002846FFF7C8FF04F101081FFA88F82C4422
:105C50002071444603E02846FFF7BDFF00240136CB
:105C6000E9E72046BDE8F883F7B507461E46DDB2F2
:105C7000002405F07F0302A8ED09204418BF43F07B
:105C80008003013400F8043CE4B2002DF1D1C4F1EA
:105C9000040302EB030ED154A54206DA01A9695CA4
:105CA000131B2B4459710135F6E73868721C0368E1
:105CB0002244DB6871469847054602F0A9FC01348E
:105CC000C7F888002644E8B2831B5842584103B005
:105CD000F0BD023370B59BB20025ACB201354E1950
:105CE00016F8016C181980B20EB11654F5E7031BB3
:105CF0001A44231202F8023C02F8014C70BD38B578
:105D00000546006858B103681B6B9847044628B9DC
:105D100028680368DB6A9847204638BD012038BDF3
:105D20002DE9F04F85B004468A4690461F46DDF8BF
:105D30003890FFF7E4FF0646002840F0A28025686F
:105D4000D4F89C102B6829B15B6A2846B4F8A020CF
:105D500098470BE0D4F8981001A8D3F820B002F0CF
:105D6000FBFF284601A9B4F8A020D847002800F07E
:105D70008380464A012310685168A4F8843001AB3F
:105D800003C3127A01A81A700023E218C15C013320
:105D9000092B5172F9D1B9F1000F0AD09DF840508A
:105DA0009DF83C306D0145F0060545EAC305EDB2AE
:105DB00000E00225B8F1000F05D017B945F08005C5
:105DC00001E045F0C0050023A574E374251D0523FB
:105DD00023752046112351462A46FFF77AFF0346D2
:105DE000B9F1000F0BD049462A462046FFF771FF54
:105DF000119903462A462046FFF76BFF0346B8F188
:105E0000000F0CD0204641462A46FFF762FF0346AA
:105E10002FB1204639462A46FFF75BFF0346053B74
:105E200010212A469BB22046FFF71EFF02F0F0FB2E
:105E3000C4F88800C4F88C00206803681B69984780
:105E400048B902F0E5FBD4F88C3041F28832C01A30
:105E50009042F1D910E020460DF10301FFF7C9FE91
:105E6000042809D1E5793DB902F0D2FB0126C4F836
:105E70008C0084F8905005E020680368DB6A98473E
:105E800000E00026304605B0BDE8F08F78660108D6
:105E90001FB58DE80C009DF8183000220293079B77
:105EA00003931346FFF73CFF05B05DF804FB2DE9B3
:105EB000F04704460E46924699469DF82080FFF72B
:105EC0001EFF08B3251D314620462A460523FFF74D
:105ED00000FF00218FB246184F45B6B201F1010113
:105EE00004D21AF8073026443371F3E7B8F1000FF3
:105EF000A6F1050320462A4614BF312130219BB26A
:105F0000BDE8F047FFF7B0BEBDE8F08773B50546C2
:105F1000104614460E460EF073FD00220346009212
:105F2000284631462246FFF7C2FF02B070BD012A63
:105F30002DE9F04104460F46154621D8FFF7DFFE54
:105F4000F0B1B4F8843001339BB203B90123A4F853
:105F50008430B4F88430261D1A126272A372394656
:105F6000324620460723FFF7B4FE23181D71031F96
:105F70003246204682219BB2BDE8F041FFF774BE55
:105F80000020BDE8F0810022FFF7D1BF70B50446C4
:105F90000D46FFF7B4FE50B12B126372A572204676
:105FA000221D40210223BDE87040FFF75DBE70BD99
:105FB0002DE9F04383B000AF0446FFF7A0FE0028B0
:105FC00000F0988002F024FBD4F88C300546C21A09
:105FD00041F288339A4204D8D4F88820821A9A422F
:105FE00017D994F89030206823B10368DB6A98478A
:105FF00000207FE0C022227163710368211DDB68ED
:10600000022298470123C4F88850C4F88C5084F8C1
:106010009030206803681B699847002869D02046A3
:10602000F91DFFF7E6FD8046002862D02279C4F80A
:106030008C5002F0F002302A48D1D4F89430002B72
:1060400057D0FD796E4661194A798B7903EB0223AB
:106050009BB203F10802D208A6EBC20085460022DB
:106060001FFA82FE9E4507D201EB020E9EF807E062
:1060700000F802E00132F3E70022C2542279D4F89A
:1060800094C012F0020F05F10302C5EB08081A4490
:1060900014D02244517992F80490C3EB080201EB2A
:1060A0000929691D194421441FFA89F90431053A67
:1060B000E04720464946FFF769FF05E0A118A8F12F
:1060C00003020431D21AE047B54612E0C02A0BD1D0
:1060D000D0232146237151F8040B00236371036818
:1060E0000222DB68984704E0D02A04BF002384F82A
:1060F000903001200C37BD46BDE8F08308B5054B54
:10610000002283F8382183F83921D3F83C319847AD
:1061100008BD00BFC8040020B0B51C4C8CB000AF57
:10612000054604F5A07107F1200002F0B8FF2946EA
:1061300007F1100002F091FF07F1100107F12000B4
:1061400002F0DCFF0146384602F0A9FF07F110001B
:1061500002F041FF07F1200002F03DFFBA68384627
:1061600002F1080323F00703ADEB030D0132002316
:10617000694602F0E2FF694604F5A870FFF703FFE5
:10618000384602F028FF3037BD46B0BDC8040020B5
:1061900090B58DB002AF3123214907F11800BB80C3
:1061A00002F07DFF1F4907F1180002F0B4FF01461D
:1061B00007F1080002F073FF07F1180002F00BFF6F
:1061C0003A6907F1080002F1080323F00703ADEB79
:1061D000030D02AC21460132002302F0AEFF12484B
:1061E000FFF78DFDA0B900900F483B1D019300F112
:1061F000A40122460123FFF74BFE48B10B48FFF7ED
:106200008BFF0B48FFF788FF07480A49FFF7BBFEE3
:1062100007F1080002F0DFFE2C37BD4690BD00BF3D
:106220000806002014910108180600202E9101088C
:106230003691010840910108F0B589B004466846DE
:1062400016460F4601F0FAFD1C4B04A81C491C60C1
:1062500002F003FF694604A802F050FF194902F05A
:106260005AFF194C014604F5A075284602F008FFB4
:1062700004A802F0B0FE284604F20D211E220023DD
:1062800002F05BFF0023684604F5FA71192202F060
:1062900054FF4FF4FA610D4A04F50C70C4F82C72E7
:1062A000C4F83C61FFF737FCC4F83003FFF770FF18
:1062B000684602F090FE09B0F0BD00BF000000206B
:1062C0004A910108EC910108C8040020916100087E
:1062D000034B93F838310BB9FFF75ABF704700BF33
:1062E000C8040020F0B51D4C8DB000AF06460D4629
:1062F00007F1200004F5A07102F0D1FE314607F14C
:10630000100002F0AAFE07F1100107F1200002F0D0
:10631000F5FE0146384602F0C2FE07F1100002F019
:106320005AFE07F1200002F056FEBB68384603F122
:10633000080222F00702ADEB020D69465A1C002349
:1063400002F0FBFE69462A4604F5A870FFF7DEFD61
:10635000384602F040FE3437BD46F0BDC804002088
:10636000B0B58CB000AF05460C4607F120001849C7
:1063700002F073FE294607F1100002F06EFE07F1ED
:10638000100107F1200002F0B9FE0146384602F084
:1063900086FE07F1100002F01EFE07F1200002F059
:1063A0001AFEBA68384602F1080323F00703ADEB82
:1063B000030D01320023694602F0BFFE6846214604
:1063C000FFF790FF384602F006FE3037BD46B0BDFD
:1063D0004F91010810B5184C04F5A870FFF7E8FDBF
:1063E00004F50C70FFF7B2FB04F5A870FFF787FC0B
:1063F000D4F8303370B1092B03DC2344002283F836
:10640000F82294F834331BB90C480D49FFF7A8FF64
:1064100001230DE0092B03DC2344012283F8F82239
:1064200094F834331BB1044BD3F83C319847002324
:1064300084F8343310BD00BFC8040020D291010895
:1064400057910108B0B58CB000AF05460C4607F176
:106450002000184902F001FE294607F1100002F061
:10646000FCFD07F1100107F1200002F047FE014694
:10647000384602F014FE07F1100002F0ACFD07F1FF
:10648000200002F0A8FDBA68384602F1080323F0A4
:106490000703ADEB030D01320023694602F04DFE08
:1064A00068462146FFF71EFF384602F094FD30375C
:1064B000BD46B0BD5B910108F8B506460C461046D6
:1064C00025491546FFF7D0FA244907463046FFF71D
:1064D000CBFA10B12248234922E030462249FFF787
:1064E000C3FA18B1BDE8F840FFF708BE20461F49BF
:1064F000FFF7BAFA18B11E4B83F83573F8BD204682
:106500001C49FFF7B1FA20B11B4B1C481968FFF773
:1065100027FF20461A49FFF7A7FA28B119480E4964
:10652000BDE8F840FFF71CBF20461749FFF79CFA6B
:1065300088B128461549FFF797FA60B10848144911
:10654000FFF70EFF0A4B012283F8392183F8382127
:10655000D3F82C329847F8BD63910108689101087F
:10656000D291010857910108809101089B9101087F
:10657000C8040020A791010800000020AF91010885
:10658000B8910108C0910108CA910108E29101087F
:10659000E5910108F8B50F4B00AF93F83533064687
:1065A0000D46A3B10EF02CFA0B3020F007006C461C
:1065B000ADEB000D684608490EF01AFA6846314600
:1065C0000EF0FCF968462946FFF78CFEA546BD464D
:1065D000F8BD00BFC8040020E991010808B50120FA
:1065E00001F08AFB402001F09BFB002001F084FBBE
:1065F000BDE8084002484FF4165103F097B900BFB8
:10660000D019002038B5044684E80C00059B049896
:10661000E3600B4B0025E3612362A161A060294682
:106620002561257580B201F023FEA089294601F07D
:106630001FFE2088294601F01BFE204638BD00BF02
:10664000315A000810B500210446008901F098FE77
:10665000A089002101F094FE4FF4FA7001F0DAFFF6
:106660002089012101F08CFEA0890121BDE81040A4
:1066700001F086BE0F4B07B593F83831B3B10E4B1E
:10668000017D5B7A0D4A8DF8043000238DF80530CA
:106690008DF806300A4B01A800290CBF1146194697
:1066A0000EF0A6F9074801A9FFF7CCFE03B05DF88C
:1066B00004FB00BFC80400207866010805920108A9
:1066C000AD930108529301080C4B07B593F838318C
:1066D0008BB10B4B01A95B7A00698DF804300A225B
:1066E00000238DF805308DF8063002F068FC05486F
:1066F00001A9FFF7A7FE03B05DF804FBC804002062
:10670000786601086B93010810B50446FFF7B2FFE5
:106710002046BDE81040FFF7D7BF10B5044605205E
:1067200001F078FF0021208901F02AFE052001F008
:1067300071FF2089012101F023FE23693F2BDCBF7B
:106740000133236110BD000010B5044C2046FFF753
:10675000E4FF2046BDE81040FFF7B6BF0008002068
:1067600010B50446052001F055FF0021A08901F075
:1067700007FE052001F04EFFA089012101F000FE77
:106780002369002BC4BF03F1FF33236110BD000058
:1067900010B5044C2046FFF7E3FF2046BDE810404B
:1067A000FFF792BF0008002070B504690546A142BA
:1067B0000E4606DD28460134FFF7AFFFB442F9D19B
:1067C00070BDB44204D02846FFF7CAFF013CF8E789
:1067D00070BD0000037D10B504467BB9008801211F
:1067E00001F0CEFD064B20465968FFF7DDFF01237F
:1067F00023752046FFF788FFE369984710BD00BF67
:1068000000000020037D10B5044673B1008800210C
:1068100001F0B6FD20460021FFF7C6FF00232375D7
:106820002046FFF771FF236A984710BD037D0BB127
:10683000FFF7E8BFFFF7CEBF0148FFF7F7BF00BF84
:106840000008002038B5054665242846FFF788FF74
:106850000A2001F0DFFE013CF7D12C6138BDF8B50C
:106860000446383015460E461F46FFF705F94FF42B
:10687000AF736560636300251E23E362B0B22946EF
:106880002660A760E56025616561A561E561A56297
:1068900001F0EEFCA088294601F0EAFC2089294697
:1068A00001F0E6FC2046F8BD10B500210446008842
:1068B00001F0F2FDA088002101F0EEFD2089002109
:1068C000BDE8104001F0E8BD00228261FFF7ECBF97
:1068D0000148FFF7F9BF00BFC8040020836970B505
:1068E000012B044681621CD10269642392FBF3F2FE
:1068F00001FB02F6426992FBF3F201FB02F5C2686A
:10690000008892FBF3F35943C9B201F0C5FDA0889A
:10691000F1B201F0C1FD2089E9B2BDE8704001F09B
:10692000BBBD70BD816AFFF7D9BF10B504463830D2
:10693000FFF70CF9A369012B06D1E36923B92046BF
:10694000BDE81040FFF7EEBF10BD8269012A06D1F5
:10695000816A0129D4BFC16A4910FFF7BFBF7047E0
:1069600038B504460D46616208462649FEF7D0FB5D
:1069700018B9FF23E3602361636128462249FEF7CB
:10698000C7FB18B9FF23E3602061606128461F49F7
:10699000FEF7BEFB18B9FF23E06023616061284663
:1069A0001B49FEF7B5FB18B9FF23E0602061636166
:1069B00028461849FEF7ACFB18B9FF23E0602361B5
:1069C000636128461449FEF7A3FB18B9FF23E3606F
:1069D0002061636128461149FEF79AFB18B9FF232D
:1069E000E3602361606128460D49FEF791FB20B901
:1069F000FF23E360A523236160612046BDE83840A2
:106A0000FFF790BF099201080F9201081392010845
:106A1000199201081E920108239201082B92010885
:106A20003292010801480249FFF79ABFC8040020CA
:106A30001392010801480249FFF792BFC8040020E1
:106A40000F920108184B13B593F83831044643B33D
:106A5000164B17495A7A00238DF800208DF8013023
:106A60008DF802308DF804208DF80530114A8DF82C
:106A70000630836901A8012B08BF11460DF0B8FF4D
:106A80000A226946A06A02F09AFA0B4801A9FFF7A8
:106A900029FC0A486946FFF725FC0948616AFFF7A7
:106AA00021FC02B010BD00BFC804002078660108B8
:106AB00005920108AD930108399201084A92010834
:106AC0005F920108124B13B593F838310446E3B1D5
:106AD000104A0023527A69468DF8042040680A2241
:106AE000ADF800308DF805308DF8063002F067FA09
:106AF00001A90A22A06802F062FA07486946FFF776
:106B0000A1FC064801A9FFF79DFC02B010BD00BF23
:106B1000C8040020786601088D930108A29301083B
:106B20002DE9F04196B2044688463046194615468E
:106B30001F4601F09DFB4FF4FA63E3600C4B00220B
:106B4000022F236263624FF001030CBF6372627213
:106B500030462560C4F8148062602274A2720CBFB3
:106B600022722372617A01F00BFC2046BDE8F081AD
:106B7000315A000810B5044601F04AFDA061208892
:106B800001F046FCA27A6060237C4AB9B3B9217A4D
:106B9000884213D10123A37201F03AFDE0611AE0AB
:106BA00063B9217A884209D1E369E2681A44A3698A
:106BB000934210D901232374482010BD617A884282
:106BC00009D10AB92D2002E0002BFBD1502000236F
:106BD000A372237410BD2D2010BD000010B5044613
:106BE000FFF7C8FF48280AD0502814D1236A9847D5
:106BF000094B93F8383173B16069084907E0636A5B
:106C00009847054B93F838312BB160690449BDE8CA
:106C10001040FFF7A5BB10BDC8040020FA91010881
:106C2000009201082DE9F0411D461FFA82F8044642
:106C30004160AFB240460221164601F019FB3846CA
:106C4000022101F015FB4046012101F099FB384675
:106C5000012101F095FB012323616361A361E361DD
:106C6000002323626362A362E362044BA660E560D3
:106C7000236363632046BDE8F08100BF315A0008FA
:106C8000002310B504460370008901F0C1FB2061A8
:106C9000A08901F0BDFB2369A2696061934202D122
:106CA000E26990423CD0012BA361E06106D101284A
:106CB00001D1002309E048B9032306E033B90128D4
:106CC00001D1206202E008B902232362236A626ACA
:106CD00063629A1A82EAE271A1EBE2710229A2626E
:106CE0000DD0012A01D0D01C02D1E26A013205E0A8
:106CF000511C01D0032A02D1E26A013AE2627BB957
:106D0000E26A002A04DDE362012323703E2010BD05
:106D100004D001222270E3623C2010BD2370E362A4
:106D20002D2010BD10B50446FFF7AAFF3C280AD05D
:106D30003E2814D1236B9847094B93F8383173B12F
:106D40006068084907E0636B9847054B93F8383152
:106D50002BB160680449BDE81040FFF701BB10BDCE
:106D6000C8040020F2910108F591010810B50C4CFF
:106D7000FFF730FB2046FFF7D8FD04F55770FFF70B
:106D8000D1FF04F56570FFF729FF04F56F70FFF779
:106D900025FF04F57970BDE81040FFF71FBF00BF65
:106DA000C80400202DE9F341384C002504F20C46BC
:106DB000374F2B4629462A460095304601F0C0FF42
:106DC0003A463449304604F214460DF02BFC304666
:106DD00002F00EFB3A46304930460DF023FC04F534
:106DE000A07804F50C70FEF747FE40462B4902F0F0
:106DF00034F93A4640462A490DF014FC294B204606
:106E0000C4F8E431284B0A21C4F8EC3140F25B733A
:106E1000A4F8F0310B220C23C4F85061FFF71FFDDA
:106E2000062207238DE80C0004F54E702B461F49FF
:106E30000322FFF7E7FB0123C4F8BC341C4B0226F6
:106E4000C4F8AC3404F557701A490E220F23C4F865
:106E5000B864C4F8C054FFF7E5FE334604F5657026
:106E600015490D22FFF75CFE334604F56F70134998
:106E70001022FFF755FE124904F5797011223346AE
:106E800002B0BDE8F041FFF74BBE00BFC8040020D0
:106E9000140B0020195A0008255A00080E96010804
:106EA000D78F000831730008080000200B930108F9
:106EB0004493010870920108759201087D920108BF
:106EC0008692010870B51021064620220F4801F075
:106ED00049FE0E4801F01AFD1F28FADD0A24102C85
:106EE0000A4808BF002401F019FD06EB4405000222
:106EF000A881064801F012FDAB89092C43EA000085
:106F0000A88101D00134EAE770BD00BFFC17002062
:106F100070B5102106460C4801F038FE00243319E4
:106F20001D8A0948290A01F03FFD02340648E9B2EA
:106F300001F03AFD0C2CF2D1034801F08FFED0F1A4
:106F4000010038BF002070BDFC17002070B50A2674
:106F500071430446A1F50855FFF7B4FF638A2E3D3F
:106F600023F4FF7395FBF6F523F001031D436FEA4D
:106F700045456FEA554565822046FFF7C9FF204623
:106F8000FFF7A0FF238C5A04F9D52046FFF79AFF9C
:106F9000638A2046C3F30E036382FFF7B9FF2046DE
:106FA000FFF790FF238C5B04F9D470BD82688A429E
:106FB00003D081600C30FFF7C9BF7047836840F28F
:106FC0008F318B4210B5024619D0B3F5647F08DAD1
:106FD00040F26F34A3420FD040F27D34A34214D06C
:106FE00010E040F2A9318B4240F2CB310DD08B4200
:106FF00008D140F2F53108E040F27D3105E040F281
:10700000A93102E0104640F26F31BDE81040FFF7B1
:10701000CDBF0000044890F838311BB900F2AC40F5
:10702000FFF7CCBF704700BFC804002038B50C463E
:107030000546FFF747FF002C03DB0F2CA8BF0F24EA
:1070400000E00024EB8A284623F00F031C43EC8267
:10705000BDE83840FFF75CBF42688A4203D0416018
:107060000C30FFF7E3BF70472DE9F34104461846A3
:107070001D4690460DF00BFB8C4906462846FEF750
:10708000F3FC01A90A220746404601F098FF884810
:1070900001A9FFF77FFA20468649FEF7E5FC10B10B
:1070A000854B5E61FFE020468449FEF7DDFC10B1B0
:1070B000814B1F76F7E020468149FEF7D5FC10B1E1
:1070C000804BDE62EFE020467F49FEF7CDFC30B119
:1070D0007E48FFF719FB7B48FFF7B4FC1CE0204615
:1070E0007B49FEF7C1FC18B17848FFF70DFBDAE0E9
:1070F00020467849FEF7B8FC002841D12046764961
:10710000FEF7B2FC18B16F48FFF79CFCCBE02046BD
:107110007249FEF7A9FC18B17148FFF7D3FCC2E031
:1071200020467049FEF7A0FCE0B128466E49FEF704
:107130009BFC18B16548FFF74DFBB4E028466B494E
:10714000FEF792FC18B16148FFF75CFBABE0284604
:107150006749FEF789FC002800F0A5805B48FFF72F
:1071600065FBA0E020466349FEF77EFC002841D085
:1071700028466149FEF778FC30B15448FFF7CDFA54
:107180005248FFF7A1FA8EE028465C49FEF76CFCF6
:1071900018B14E48FFF7E4FAF2E728465849FEF7DF
:1071A00063FC18B14948FFF74DFBE9E7284655490C
:1071B000FEF75AFC18B1404B4448D96907E028460D
:1071C0005149FEF751FC28B13B4B4048196AFFF783
:1071D000EBFAD5E728464D49FEF746FC18B1364B89
:1071E0003A48596AF3E7402E5DD838483146FFF7F0
:1071F000DBFA58E020464649FEF736FC20B1384815
:107200003146FFF729FF4EE020464249FEF72CFCAD
:10721000B0B128464049FEF727FC18B13048FFF7C7
:10722000CDFE40E028463D49FEF71EFC18B1224B3A
:107230002B48596901E02A483146FFF7B7FE32E092
:1072400020463749FEF710FC88B128462649FEF74C
:107250000BFC18B11B4B01229A6124E028462349FC
:10726000FEF702FCF8B11748FFF72EFB1BE02046A3
:107270002C49FEF7F9FB18B11248FFF766FB12E044
:1072800020462949FEF7F0FB20B10E482946FFF7BA
:1072900067FB08E020462549FEF7E6FB18B10948E0
:1072A0003146FFF71BFB02B0BDE8F0816391010896
:1072B0008F9201089B92010800000020B7920108FC
:1072C000D1920108C8040020E992010800080020BA
:1072D000FC9201080F9301082293010835930108DD
:1072E000740900204A930108AD9301080592010832
:1072F0005C93010863930108F2910108F59101087C
:10730000769301082E9201087C930108809301086E
:10731000859301089A930108B0930108B593010879
:10732000BB930108CD930108DD930108EF93010899
:107330002DE9F04F89B000AF80468A46C7F80CD0DF
:107340001546002A00F08780D31D23F00703ADEB1C
:10735000030D0DF055FB073020F007006E46ADEB36
:10736000000D40460DF04CFB0730E94620F00700C9
:10737000ADEB000D414648460DF03AFB514607F192
:10738000100001F06AFE6A1C07F11000314600236C
:1073900001F0D3FE40462F210DF01DFB6C468346C5
:1073A0000025BBF1000F0CD00BF101002F210DF0D7
:1073B00012FB83461DB9204659460DF019FB0135D5
:1073C000EFE720460DF01CFB611C024620460DF045
:1073D000A1F9AA000A3222F007026B1EADEB020DE2
:1073E000BB60EA46EDB91E484946FFF7D3F81D4891
:1073F0002146FFF7CFF81C483146FFF7CBF833465C
:1074000020465146BA68FFF72FFE484621463246CD
:10741000FFF752F807F1100001F0DDFDFB689D4613
:1074200019E0404611490DF029FB58460F490DF06F
:1074300025FBE8460123AB42D5DA0C4900207B60EE
:107440000DF01CFB014648F8040F0948FFF7A2F8AD
:107450007B680133EFE72437BD46BDE8F08F00BFFE
:1074600005940108189401082C9401088466010809
:107470003D94010810B500210446008800F0F8FE94
:10748000A088002100F0F4FEA088002100F078FF21
:107490002088002100F074FF012001F0BBF80121D9
:1074A000208800F06DFF012001F0B4F8134801F0CE
:1074B000A1FA2046FFF706FD4FF4014363832046FF
:1074C000FFF726FD4FF4FA7001F0A4F82046FFF70D
:1074D000F9FC44F201032382A38A204643F4C053FB
:1074E000A382E38A23F00F0343F01103E382FFF743
:1074F0000FFDBDE810406E2001F08CB8FC17002095
:1075000070B5224DFFF76AF8214A05F1280021499C
:10751000214CFEF791FE288E002100F0A9FE0121EA
:10752000288E00F02DFF04F54E70FFF78BF81B4BF3
:1075300004F2AC46C4F85433194B04F59760C4F810
:107540005833184BC4F88C33174BC4F89033FFF7FB
:1075500091FF3046696BFFF77FFD30466969FFF7A1
:1075600025FDAB6B2046E96BE362FFF7B7F92046D8
:107570000E49FFF7F5F90E4BC4F8B4330D4BC4F8C0
:10758000DC330D4BC4F8043470BD00BF0000002094
:10759000356A0008256A0008C8040020355A00082A
:1075A000D168000849670008916700080F92010838
:1075B000D16200083968000815700008013101EB3C
:1075C000420291420BD0030F092B94BF3033373363
:1075D00001F8013C0023000101F8023BF1E770478C
:1075E0001F4B10B51A88032A04D8042001461880BE
:1075F00006F050FE4FF000604FF4A04106F040FE50
:107600000124184B184821461C7007F055F805F066
:10761000DFFE05F0B5FB2146402007F017FA6FF0BA
:107620007F4005F01FFDE72005F0A8FD0F4B1C7003
:1076300005F0F0FB7D2007F039FA18B10C4B1C70F7
:1076400007F048FA40F6B83005F03EFC06F0A4F921
:1076500006F01EFC074A01231370074A137010BD81
:10766000F01A0020CC1A002000043000FC19002081
:1076700068240020841A00207A1A002038B52F4C84
:107680002388042B04D805210420218006F002FE63
:107690002B4D2B7813B12B4802F08EFB2B7853B176
:1076A0002388052B05D8254B06210420198006F0D8
:1076B000F1FD02F005FC2B7863B1234B1B784BB92D
:1076C000224B1B7833B1224B1B781BB9214B1B7803
:1076D000002BE3D0204B1B78002BDFD11F4B1B78F6
:1076E000002BDBD11B4B1B78012B0FD01C4B6BB13C
:1076F0002388062B05D8114B07210420198006F09A
:10770000C9FDFFF7FDFE134B01221A70154B002B2C
:10771000C4D02388072B05D8084B082104201980E2
:1077200006F0B8FDFFF722FB2388082BB6D8034BE1
:1077300009210420198006F0ADFDAFE7F01A002002
:10774000841A0020757F0008391A00207A1A002058
:10775000FA190020AC090020FB1900206824002041
:10776000017500086D6D0008F8B5524B1A6812B12A
:107770001A68013A1A60504B504D1B783BB1504B80
:107780001B78002B28D04F4B002B47D124E04E4CC8
:107790002368264613B12368013B0FE04B4B1B784F
:1077A000D3B94B4B1B78BBB94A4B1B78A3B94A4F93
:1077B0003B782BB1E72005F055FD142323600BE047
:1077C0002B78002B2DD1E72005F006FD434B1B78CD
:1077D000002B34D0322333602B7833B1404C2378E4
:1077E0001BB92EE05A6801325A603E4B1A68B2F556
:1077F0007A7F0FD300221A6007F086F83A4B4FF6D3
:10780000FF711A888A4254D019800420BDE8F840DC
:1078100006F040BD1A6801321A60F8BD00F0F4FBB2
:10782000DAE7324B1B78002BCDD04FF6FF7005F016
:1078300019FCE72005F0A2FC01233B70CCE7642390
:10784000C9E7234B1B788BB1294B47F22F5259685C
:107850009142C7D9BFF34F8F264A274BD16801F415
:10786000E0610B43D360BFF34F8FFEE7174D2B78DA
:1078700003F0FF0633B9304605F00AFE40F6B73391
:1078800098420DD8002005F003FE41F65733984288
:10789000ABD9002005F004FE184B01221A70A4E7B2
:1078A000304605F0FDFD2378002B9ED101232B707F
:1078B0009BE7F8BD70240020AC1A0020841A002039
:1078C000480D0020098000086C2400202A1A00209E
:1078D000FB190020FD190020FC190020F9190020D7
:1078E000391A002074240020F01A0020FA19002010
:1078F000AC09002000ED00E00400FA05281A002081
:1079000008B5094B186005F0EDFF002006F036F8C9
:10791000064805F059FA05F0FDFF06F01BF8BDE832
:10792000084007F0BFBF00BF08030020A086010089
:10793000074B1B68052B08D1064B1A7A012A04D184
:10794000987A1B7BC01AC0B270470020704700BFF6
:10795000F41A0020AC0900200D4B10B51B68052B54
:1079600013D10C4C237A012B0FD16289A389D31A2E
:10797000012B04D100230320237208F0EAF8A38925
:107980005A1CA2811C44A07B10BD4FF0FF3010BDDB
:10799000F41A0020AC09002008B50C4B1B68052B1D
:1079A00012D10B4B1A6D99180132B2F5807F08BFC6
:1079B000002281F854001A6505F062FE20B16420AF
:1079C000BDE8084005F000BA08BD00BFF41A002069
:1079D000AC090020F8B5234B93F85421012A3FD07D
:1079E000D3F85821196DB2F5807F04BF0022C3F887
:1079F0005821D3F858411B4A8C4203D1002382F806
:107A00005431F8BD8CBFC4F58071C4EB0101C2F8DC
:107A10005C11D3F85C61134D402EA2B207D94034FB
:107A2000403EC5F85841C5F85C61402706E0344443
:107A30000021B7B2C5F85841C5F85C110A480124C5
:107A40001044C0213A4683F8544107F0FDFF204618
:107A5000394608F001F92046BDE8F84008F066B85C
:107A6000F8BD00BFAC090020000A0020094B10B58A
:107A700093E8140008331B68D0180AD0064908227E
:107A8000FFF79CFD204605490422BDE81040FFF7A2
:107A900095BD10BDE8F7FF1FB7020020C702002008
:107AA00013B5084C002100910A460B46204601F010
:107AB00047F90549054A204602B0BDE810400CF0E0
:107AC000B1BD00BF0C0B0020195A0008140B002098
:107AD00038B504460D46AC4203D254F8043B9847EF
:107AE000F9E738BD08B507480749FFF7F1FF074830
:107AF0000749FFF7EDFFBDE8084006480649FFF7D4
:107B0000E7BF00BF5099010850990108509901083A
:107B1000AC990108AC990108AC9901080CF0DABDE8
:107B200008B5072006F0D8FAFEE70000074A08B5B6
:107B3000136818441060064A904204D9082006F0E1
:107B4000CBFA0CF09DFD184608BD00BF5400002084
:107B5000004800204FF0FF3070470120704708B503
:107B60000C2006F0B9FAFEE7014B1868704700BF19
:107B7000180B0020064B0246582000FB013101F192
:107B8000080303CB1060516018689060704700BF15
:107B9000180B0020014BD3F864017047180B00202C
:107BA000064B0246142000FB013101F5B67303CBEE
:107BB0001060516018689060704700BF180B00207B
:107BC00038B50546064C28B105F0FEFA012384F8C5
:107BD000303238BD05F096FA84F8305238BD00BF17
:107BE000180B00200E4B2DE9F041D3F8647180464C
:107BF0000024BC4211DA14256543094E414606F5BE
:107C0000B67028440C220CF003FF20B93544D5F897
:107C10006801BDE8F0810134EBE70020BDE8F081A8
:107C2000180B0020044B01221A70044B00224FF461
:107C3000C0201A6005F026BFFB190020B009002003
:107C4000034A00231370034A136005F079BF00BF95
:107C5000FB190020B0090020024B00221A6005F039
:107C600039BF00BFB00900202DE9F04788B0804639
:107C700068460D4601F0F1F91E4B0024D3F800A030
:107C800054452DDA55B3582666431A4F414607F13D
:107C9000080030440C2207F104090CF0B9FEE8B9E1
:107CA00028460CF0ADFE06F11003402834BF024612
:107CB0004022294609EB03000CF023FD3E4401233A
:107CC00086F85830694604A8746801F0E8F904A8F9
:107CD000A047044604A801F07EF903E00134CFE791
:107CE0004FF0FF34684601F076F9204608B0BDE851
:107CF000F08700BF180B002038B5084B044693F8F6
:107D000031221D46824207D010B105F05DFA01E034
:107D100005F0F8F985F8314238BD00BF180B002096
:107D2000034B93F831320BB105F0F4B9704700BF43
:107D3000180B002010B5064C206803F02FFB2368B9
:107D4000013303D0431E5842584110BD012010BDDD
:107D50005800002038B50B4B05461B780C466BB914
:107D6000094B1B7853B9FFF7E5FF034630B9074AC3
:107D700029461068224604F0D1FA38BD4FF0FF3092
:107D800038BD00BF381A0020391A002058000020E2
:107D90002DE9F041264B86B01B7880460F46002B1C
:107DA00041D1244B1B78002B3DD1FFF7C3FF044684
:107DB000002838D1204D8DF80C008DF80D008DF87D
:107DC0000E008DF80F00286806AA460902EB860609
:107DD000012100F01F02914056F80C2C01300A439B
:107DE00046F80C2C41F28832059204AA009203A9AD
:107DF00022462346049404F073F9002815DD2B680D
:107E000006AA590902EB810151F80C5C03F01F022C
:107E1000154115F0010008D0184641463A46234660
:107E200004F0FEF901E04FF0FF3006B0BDE8F0814C
:107E3000381A0020391A002058000020F0B51449E3
:107E400085B0064601F009F9124B01AC93E8070032
:107E500084E807000025675D30463B0903F13001E7
:107E6000392984BF03F15701C9B207F00F0701F0A8
:107E700038F907F13001392984BF5737F9B2304654
:107E8000013501F02EF90C2DE5D1304605B0F0BDDD
:107E90000E960108E8F7FF1F30B51F48ADF57B7D52
:107EA00007F045FF002834D11C4B17A805931C4B45
:107EB00061AD06931B4B049007931B4B0EAC0893CC
:107EC0001A4B039509931A4B0A931A4B0B931A4BAF
:107ED0000C931A4B0D931A4B0E931A4B0F931A4B8C
:107EE00010931A4B11931A4B12931A4B13931A4B6C
:107EF00014931A4B15931A4B169305F067FE2846F8
:107F000005F06AFE00940448164903AA05AB07F081
:107F100015FF0DF57B7D30BD4C0D0020557D000813
:107F2000917D0008257C0008417C000809DC0008E0
:107F3000597C0008C17B0008118600087195000873
:107F4000697B0008757B0008697C0008957B000848
:107F5000A17B000815820008E57B0008E5DB00082E
:107F6000F9DB0008E8F7FF1F014808F01CBE00BF5E
:107F70004C0D002030B502208DB00146112203F0D7
:107F8000F1FF051E28DB07A8144908F027F8022393
:107F9000ADF80C3016238DF80E3033238DF80F30EA
:107FA000E0238DF8103000238DF8113001238DF877
:107FB0001230BB238DF81330032403AB009310233E
:107FC0000193284607A91322002304F0B1F9013CCC
:107FD000F3D1284603F0F6FF0DB030BDE8F7FF1FE0
:107FE00038B5084CFFF758FF204607F0A3FE20469F
:107FF00008F07DFA0546FFF7BDFF204608F0E6F9D8
:10800000284638BD4C0D002038B5114CD4F8585BCB
:108010002DB1D4F8583B013BC4F8583B38BDD4F8D7
:108020005C3B0C4A52F8230005F044F8E72005F0C9
:10803000A5F86423084AC4F8583BD4F85C3B52685E
:1080400001339342C4F85C3BA8BFC4F85C5B38BD05
:10805000180B002088660108580000207FB5022018
:108060000121062203F07EFF041E24DB0223ADF86B
:10807000003000238DF8023035238DF803304FF4A3
:10808000FA5008238DF804308DF805308DF806304D
:108090008DF8073001F088FE69461022054620461B
:1080A00003F0F0FF0646284601F07EFE204603F06E
:1080B00089FF304601E04FF0FF3004B070BD000092
:1080C00010B5064C2068002805DB03F07BFF4FF05D
:1080D000FF33236010BD002010BD00BF58000020FA
:1080E000F0B5A7B0FFF7ECFF02200121062203F054
:1080F00039FF324F0028386050DB314D0223A5F89C
:10810000603B162385F8623B05A8332385F8633B63
:1081100005F028FD002300939DF814303BB1012B9E
:1081200017D0284B01AC03F1100E224602E0069B4B
:10813000009313E018685968264603C60833734550
:108140003446F7D10FCA06AC07C424F8023B1B0C17
:1081500023700A24009B0BB9013C22D1009B0BB970
:10816000194B0093009B4FF4FA501A0E85F8642BBC
:108170001A0C85F8652B1A0A85F8673B85F8662B7B
:1081800001F012FE114904461022386803F07AFF0C
:108190000546204601F008FE28460CE04FF0FF306F
:1081A00009E006A87E210CF05BFC6A4681B206A8B5
:1081B00003F02EFFCEE727B0F0BD00BF580000202F
:1081C000180B00205094010804E5D03678160020E2
:1081D0000F4B2DE9F041D3F8647180460024BC4276
:1081E00011DA142565430A4E414606F5B670284457
:1081F0000C220CF00DFC20B9354495F87801BDE84F
:10820000F0810134EBE74FF0FF30BDE8F08100BFB3
:10821000180B002008B5FFF7DBFF0138082803D84A
:10822000024B1844007F08BD022008BD8866010883
:1082300003F028BF37B50B4C002104F537650B461A
:1082400000910A46284600F07BFD28460649074A69
:108250000CF0E8F904F50D7003B0BDE8304007F00C
:1082600051BD00BF180B0020195A0008140B002044
:1082700014282DE9F34104460E4677D8FF2975D01E
:1082800000F030FE20B1A4F10D039BB2022B6DD99A
:1082900000F0EAFC08B1012C68D901F0EFFA20B136
:1082A000A4F112039BB2012B60D918236343314D13
:1082B000EA18EF58304BB2F804809F4201D10420F5
:1082C00003E02E4B9F4203D10820012106F0CAFB98
:1082D000ADF80480062E45D8DFE806F0040F171F1E
:1082E00027313C0010238DF8073003238DF806302A
:1082F000182303FB0454002333E004238DF80730D4
:10830000182303FB045401232BE048238DF8073086
:10831000182303FB0454022323E028238DF807309D
:10832000182303FB045403231BE0182303228DF8B6
:10833000073003FB04548DF80620042311E01C23AE
:108340008DF8073003238DF80630182303FB0454FF
:10835000052306E000238DF80730182303FB04549F
:108360000623A373384601A906F048F902B0BDE818
:10837000F08100BF6000002000080140000C0140B7
:10838000142870B504460E463FD8204D182303FB31
:1083900000539B7B5A1ED2B2022A36D9062B34D008
:1083A000FF2B32D000F09EFD28B1A4F10D039BB24B
:1083B000022B00D870BD00F057FC10B1012C00D882
:1083C00070BD01F05BFA28B1A4F112039BB2012B3E
:1083D00000D870BD182303FB04539B7B042B03D1EF
:1083E00020460021FFF744FF012E06D118235C43ED
:1083F0002A192B5992881A6170BD36B918235C432B
:108400002A192B5992885A6170BD70BD60000020F6
:10841000142838B5044617D81E4D182303FB005303
:108420009B7BFF2B10D0043BDBB2012B0CD900F05F
:1084300059FD20B1A4F10D039BB2022B04D900F029
:1084400013FC18B1012C01D8002038BD01F016FA38
:1084500020B1A4F112039BB2012BF5D9182303FB21
:1084600004539B7B062B07D10A4B93F8F811FF2985
:10847000EAD02046FFF7FCFE182254432544054B62
:10848000AA7BA988185912B906F00CF938BD06F074
:1084900003F938BD600000202DE9F043142889B0AD
:1084A00005460E4600F2A680544F182303FB0073C6
:1084B0009B68002B00F09E8000F014FD28B1A5F110
:1084C0000D039BB2022B40F2958000F0CDFB10B162
:1084D000012D40F28F8001F0D1F928B1A5F11203EE
:1084E0009BB2012B40F28680182404FB0574A37B09
:1084F00013F0FB0F7ED1424B4BF6803808FB06F899
:108500001A68404B0120B2FBF3F90146FF2398FBA8
:10851000F3F806F0A7FA28460421FFF7A9FEA3689E
:1085200009F1FF39B3F1804F1FFA89F91FFA88F872
:1085300002D10120014609E0334A934208BF0220DC
:1085400003D0324A934203D10420012106F096FA67
:10855000182404FB057400264BF67F33A06801A99C
:10856000ADF80830ADF80A60ADF80660ADF80490DB
:1085700006F07CFB6023ADF81860A689ADF81030DA
:108580000123ADF81230ADF8168046B9A06804A9F1
:1085900006F0B6FBA068082106F0F2FC1FE0042EEE
:1085A00008D1A06804A906F0EFFBA068082106F036
:1085B000EFFC14E0082E08D1A06804A906F028FCFE
:1085C000A068314606F0EEFC09E00C2E07D1A06849
:1085D00004A906F05FFCA068082106F0EBFC182354
:1085E00003FB05750121A86806F0BEFCA8680121FF
:1085F00006F097FC09B0BDE8F08300BF60000020E2
:10860000FC03002000366E0100040040000800401A
:1086100005F034BB30B54FF47A7385B01C4C009331
:10862000236805460344236005F028FB019006F00B
:108630006BF905F023FB0290029A019BD31A039376
:10864000039B002B03DA019B029A13440393039BC1
:10865000AB421AD20F4B1B78002BE8D00E4B1B7885
:10866000002BE4D1039A009B9A4203D22368B3F50E
:108670007A7FDCD3039B03F57A73009301F020FC2F
:10868000064B1B78002BF9D1D1E705B030BD00BFF8
:10869000341A0020841A0020391A0020FB19002007
:1086A00013B5084C002100910A460B46204600F005
:1086B00047FB0549054A204602B0BDE810400BF0D3
:1086C000B1BF00BFBC160020195A0008140B0020CF
:1086D00038B5184B05461C8803F580631B88A4B287
:1086E0009BB22BB94EF6EE62A21A18BF012205E02A
:1086F000F4B94EF6EE629B1A5A425A4192020E4B60
:1087000002F1006404F5804413449C420ED22268B6
:10871000013209D1204605F055FF042809D1A01CDB
:10872000294605F04FFF38BD0434EEE7802038BD00
:10873000AB2038BD00400008FE43000808B50848DB
:1087400005F022FF04280AD10548002105F03AFF70
:10875000042804D1BDE80840024805F015BF08BD53
:108760000040000800440008104B10B51C8803F5B9
:1087700080631B88A4B29BB21CB10BB1AB2010BDAF
:1087800001240B4BA40223440A4A224493420AD9EF
:108790001A8892B2824204D133F8023C00200B8046
:1087A00010BD043BF0E7012010BD00BF00400008F1
:1087B000FE43000802400008F8B5444E05F0A4FE50
:1087C000434D34884EF6EE61A4B22B888C429BB2A6
:1087D0004FF6FF7210D0944202D0002C73D142E0C9
:1087E0000BB930466CE08B426DD1304605F0CCFEC3
:1087F00004286AD1284632E04BBB1C461646354B4E
:10880000354A1B8832F814509BB2AB4208BFA6B25F
:1088100033B29C4203D10134642CF0D10FE02E4FCF
:10882000284607F1C801FFF79FFF0128F3D028462B
:10883000B7F8C810FFF74CFF0428ECD0F8BD234868
:10884000002105F0BFFE04283FD1214838E09342C3
:1088500039D1284605F098FE042836D1304600214B
:1088600005F0B0FEF8BD73B3934201D1284627E06E
:1088700016461A4B184A1B8832F814509BB2AB426A
:1088800008BFA6B233B29C4203D10134642CF0D1AC
:108890000FE0114F284607F1C801FFF765FF0128D7
:1088A000F3D02846B7F8C810FFF712FF0428ECD021
:1088B000F8BD0748002105F085FE042805D10348CE
:1088C00005F062FEF8BDFFF739FFF8BD0040000873
:1088D0000044000806400008C416002006440008B2
:1088E00010B50446FFF768FF0023044A22F813304E
:1088F0000133642BF9D1204610BD00BFC4160020FF
:108900000148FFF7EDBF00BF8E170020024B18781B
:108910005B78C01A704700BF90170020064B5A784A
:108920001978914204D99918013288785A707047A1
:108930004FF0FF30704700BF90170020054B5A786A
:108940001978914202D91344987870474FF0FF305C
:10895000704700BF9017002070470000014B036074
:10896000704700BFF866010810B5034B044603606A
:10897000FFF7D4F8204610BDF8660108F8B5094B9A
:10898000054693F82230164653B10C468F18BC4268
:1089900006D02B6828469B6814F8011B9847F6E719
:1089A0003046F8BD9017002010B50C4B012293F80B
:1089B00022408CB193F823401F2C02D94260002042
:1089C00010BD93F824001C1884F82510411CC9B26E
:1089D00083F8241083F82310104610BD9017002050
:1089E000002242604FF47A728260014A026070474E
:1089F000B866010838B51C4C00254FF40010012161
:108A00006570257084F8245084F8235006F036F8F9
:108A100001200521FFF72CFC28460521FFF728FC43
:108A2000124805F08FFE4BF6FF73A4F84E3094F811
:108A30005830A4F84C500BB9A4F850304FF4806370
:108A4000A4F852304FF48043A4F85430084B074840
:108A50000849A36405F090FE0448012105F0FAFEE0
:108A6000012384F8593038BD90170020005400408D
:108A7000A0860100D81700202DE9F84333480C46A2
:108A8000012190461F4605F0F1FEFFF7C1FD0546A6
:108A90002E482F4905F01AFF28B9FFF7B9FD401BF2
:108AA0000A28F5D927E021462848012205F007FFCA
:108AB000FFF7AEFD04462548264905F007FF28B913
:108AC000FFF7A6FD001B0A28F5D914E0FFF7A0FD6B
:108AD000B8F1200F28BF4FF0200806460024E5B269
:108AE000C5EB080313F0FF0908D0FFF791FD801BC9
:108AF00009280ED902E00020BDE8F88313480121BF
:108B000005F0CCFE144B00225A701D702846BDE8BB
:108B1000F883B9F1010F09D1012F07D10B480021CA
:108B200005F0BCFE0948394605F0ACFE07480B4984
:108B300005F0CCFE0028D8D0044805F0BDFE084B57
:108B40001855FFF765FD01340646C8E7005400409C
:108B50000100030002000300901700204000030002
:108B600092170020C9B2D2B20123FFF785BF0000DF
:108B7000054B012283F82220002283F85A1083F843
:108B8000242083F82320704790170020C9B2FFF7F4
:108B9000EFBF00002DE9F0412A480E46012105F003
:108BA00065FEFFF735FD04462648274905F08EFE91
:108BB00038B9FFF72DFD001B0A28F5D90420BDE8C0
:108BC000F081224C1F4894F85A10002205F077FEDD
:108BD000FFF71EFD05461B481D4905F077FE28B925
:108BE000FFF716FD401B0A28F5D9E7E794F8237034
:108BF0000025EBB29F4215D0164B1248595D05F087
:108C000059FEFFF705FD80460E48134905F05EFE4C
:108C100030B9FFF7FDFCC8EB00000A28F4D9CDE716
:108C20000135E6E7012E03D10648314605F02AFE5C
:108C3000002084F8240084F8230084F82200BDE892
:108C4000F08100BF00540040010003009017002095
:108C500082000700B5170020840007000121FFF7FC
:108C600099BF704770470000014B93F85900704757
:108C70009017002073B50E4C002104F164050D4ED1
:108C80000B4600910A46284600F05AF86C343246EA
:108C9000094928460BF0C6FC2046FFF7A1FE07490C
:108CA0002046324602B0BDE870400BF0BBBC00BFAE
:108CB00090170020140B0020195A00085D89000845
:108CC00008B5034B53F8203003B1984708BD00BFE7
:108CD0000C18002013B5084C002100910A460B46E1
:108CE000204600F02DF80549054A204602B0BDE8AF
:108CF00010400BF097BC00BF4C180020195A000818
:108D0000140B00202DE9F041002407460E462546AD
:108D10003B1919790A22304600F0B2F82E2180461C
:108D2000304600F07EF801344044032C0544EFD176
:108D30003046F9790A2200F0A3F82844BDE8F08112
:108D400030B58371034D9DF80C300560017142719F
:108D5000C37130BDE0660108024A02600A684260E1
:108D6000704700BFE06601080548064B06490360EE
:108D7000064A0023037143718371C3710BF052BC27
:108D800054180020E0660108195A0008140B00204E
:108D900013B5084C002100910A460B462046FFF708
:108DA000CFFF0549054A204602B0BDE810400BF050
:108DB00039BC00BF5C180020195A0008140B0020B1
:108DC000014B0360704700BFF8660108F8B506461E
:108DD0000C468F180025BC4207D0336830469B688C
:108DE00014F8011B98470544F5E72846F8BD000034
:108DF00010B5034B04460360FEF790FE204610BDFD
:108E0000F866010838B505460C46084641B10BF036
:108E1000F7FD2B680246DB6828462146984738BD97
:108E200038BD08B503689B68984708BD30B5002376
:108E30008BB08DF82430012A98BF0A220DF123044B
:108E4000B1FBF2F303FB1211CDB2092D94BF303503
:108E50003735EDB2214604F801590BB11946EFE759
:108E6000FFF7D0FF0BB030BD10B522B90268C9B210
:108E70009268904710BDD2B2BDE81040FFF7D6BF50
:108E8000FFF7F2BF13B5084C002100910A460B46CC
:108E90002046FFF755FF0549054A204602B0BDE8C8
:108EA00010400BF0BFBB00BF6C180020195A00081F
:108EB000140B002013B5084C002100910A460B4604
:108EC0002046FFF73DFF0549054A204602B0BDE8B0
:108ED00010400BF0A7BB00BF74180020195A0008FF
:108EE000140B0020014B587D704700BF7C180020F8
:108EF0007047000013B5084C002100910A460B464C
:108F00002046FFF71DFF0549054A204602B0BDE88F
:108F100010400BF087BB00BF94180020195A0008BE
:108F2000140B002013B5084C002100910A460B4693
:108F30002046FFF705FF0549054A204602B0BDE877
:108F400010400BF06FBB00BFA0180020195A00089A
:108F5000140B002010B504460BF052FD01382346D7
:108F60002044834206D21A78017803F8011B00F8E6
:108F70000129F6E710BD38B5931EDBB2222B0C4653
:108F80001BD8A8B10B46B0FBF2F102FB1100C5B231
:108F9000092803F8015BD4BF3035573503F8015C6D
:108FA00009B10846EFE719702046FFF7D3FF02E04A
:108FB00030230B704870204638BD002038BD031E9A
:108FC00010B50C4603DA2D2001F8010B5842FFF7CB
:108FD000D2FF204610BD10B5044600680BF07AFBA6
:108FE000204610BD10B50446006808B10BF072FBB6
:108FF00000232360A360636010BD38B504460D46AE
:10900000006801310BF07CFC10B184E821000120E4
:1090100038BD036810B5044613B143688B4207D2CC
:109020002046FFF7EAFF20B1A3680BB9226813704E
:10903000012010BD70B50E46114604461546FFF7D7
:10904000E8FF18B92046FFF7CDFF04E0A5602068CF
:1090500031460BF0CDFC204670BD38B500230446E8
:1090600003604360836003730D4639B108460BF01B
:10907000C7FC294602462046FFF7DCFF204638BDE4
:10908000884210B50B46044607D0096819B19A68A2
:10909000FFF7D0FF01E0FFF7A5FF204610BD10B598
:1090A000002304460360436083600373FFF7E8FF17
:1090B000204610BD70B5044685680E4609B90020EB
:1090C00070BD62B115442946FFF7A3FF0028F6D012
:1090D0002068A368314618440BF08AFCA560012083
:1090E00070BD07B500238DF80410012201A98DF889
:1090F0000530FFF7DFFF03B05DF804FB0B4610B54A
:1091000009689A680446FFF7D5FF10B92046FFF7B3
:1091100069FF204610BD38B504460D4641B10846EA
:109120000BF06EFC294602462046FFF7C3FF10B93C
:109130002046FFF757FF204638BD38B50C469AB198
:1091400091B181688B4202D30023237038BDC91AC4
:10915000551E8D4228BF0D4601682A4619442046F7
:109160000BF06CFC0023635538BD13B5026802ABED
:1091700003F8011DD46819460122A04702B010BDB2
:1091800010B5B0F89620B0F8943004469A4207D053
:10919000B4F894305A1CA4F894201C44207D10BDCF
:1091A00003681B6998470028F2D14FF0FF3010BDCB
:1091B00010B5B0F89620B0F8943004469A4204D026
:1091C000B4F894301C44207D10BD03681B69984797
:1091D0000028F5D14FF0FF3010BD0023A0F89430E7
:1091E000A0F896307047F8B51746B0F89430B0F84C
:1091F000962004469A420E4606D103681B6998479A
:1092000010B94FF0FF3512E0B4F89430B4F896502E
:10921000E118ED1ABD4228BF3D46304614312A46BA
:109220000BF06FFAB4F894302B44A4F8943028462D
:10923000F8BD10B504460069082801D002F0C2FE4E
:109240000823236110BD30B5B0F8963087B00446CE
:1092500033B1B0F894209A4202D10368DB69984791
:1092600000F08EFB022823D12069082820D0B4F812
:1092700096307F2B1CD8430906AA02EB83030121F9
:1092800000F01F0291400025039553F80C2C01308B
:109290000A4343F80C2C41F28833059304AB009346
:1092A00003A92A462B46049502F01AFFA84206DCC1
:1092B000B4F89600B4F89430C01A07B030BD2069F5
:1092C00006AB420903EB820252F80C2C00F01F039C
:1092D00042FA03F3DB07EBD5B4F896202B46A1182E
:1092E0001431C2F1800202F09BFF0028E0DDB4F8E7
:1092F00096300BB9A4F894300344A4F89630D7E71D
:109300002DE9F04188B006460F46904600F038FB44
:1093100002284FF0000422D108AD384645F8144D1C
:109320000BF06EFB2A4681B2384602F071FEA04275
:1093300015DD039B04A8DAB20092190EC3F30742AD
:10934000C3F30723FFF7FCFC336830461C6A064B67
:1093500006A90693059B42460793A04700E02046D6
:1093600008B0BDE8F08100BFE0660108F0B585B047
:1093700004460D46164600F003FB0228074634D18A
:109380000121062202F0EEFD002820612DDB23687A
:109390002046DB699847330A8DF802302B794FF469
:1093A000FA508DF804306B798DF803608DF8053034
:1093B000AB79ADF800708DF80630EB798DF8073099
:1093C00000F0F2FC6946054610222069FEF730FFE6
:1093D0000646284600F0E8FC002E04DA2368204602
:1093E000DB6A984701E0012000E0002005B0F0BDF5
:1093F0004FF47A71816005490022016008214260C2
:109400000161A0F89420A0F8962070471067010829
:10941000036910B5082B044601D1002010BD00F0EF
:10942000AFFA0228F9D1206901F0B8FFD0F10100AC
:1094300038BF002010BD70B504460E461546FFF734
:10944000E7FF30B1206931462A46002302F066FF6B
:1094500070BD4FF0FF3070BD70B50446FFF7D8FF08
:10946000012819D0B4F89620B4F894309A4212D159
:109470002069082803D001F091FF012801D00020C5
:1094800070BD236820461B69984720B92368204691
:10949000DB6A9847F3E7012070BD08B5FFF7B8FF16
:1094A000003018BF012008BD13B5084C0021009101
:1094B0000A460B462046FFF743FC0549054A20466D
:1094C00002B0BDE810400BF0ADB800BFA8180020F6
:1094D000195A0008140B002013B5084C0021009104
:1094E0000A460B462046FFF72BFC0549054A204655
:1094F00002B0BDE810400BF095B800BFB0180020D6
:10950000195A0008140B002038B5184C94F92C3067
:109510005BB394F82D3043B305F004FB94F82C2092
:1095200094F82D5051B2002995FBF1F106DD012987
:109530000BDC013A84F82C20002307E0013104DB26
:10954000013284F82C20022300E0012394F82D201E
:10955000013A84F82D20C41805F018FB204605F0C8
:10956000F5FABDE8384005F011BB38BDB818002049
:1095700010B5044605F0D6FA001B00F17F02FE2A62
:1095800008D905F003FB204605F0E0FABDE81040DD
:1095900005F0FCBA054A80EAE073A3EBE0735B00D8
:1095A00082F82C0082F82D3010BD00BFB8180020C2
:1095B00013B5084C002100910A460B462046FFF7E0
:1095C000BFFB0549054A204602B0BDE810400BF03C
:1095D00029B800BFE8180020195A0008140B002011
:1095E00013B5084C002100910A460B462046FFF7B0
:1095F000A7FB0549054A204602B0BDE810400BF024
:1096000011B800BFF4180020195A0008140B0020EC
:1096100013B5084C002100910A460B462046FFF77F
:109620008FFB0549054A204602B0BDE810400AF00C
:10963000F9BF00BFFC180020195A0008140B0020C5
:10964000014B0360704700BFF8660108426D836DEF
:10965000D01A00F03F007047426D836D9A4203D0EC
:10966000836D1844007D70474FF0FF307047426DA6
:10967000836D9A4209D0836D826D03441B7D013254
:1096800002F03F028265184670474FF0FF30704786
:1096900010B5034B04460360FEF740FA204610BDA8
:1096A000F866010810B50446D4F89C20D4F8A03020
:1096B0009A42F9D1237C13B90023237410BDD4F846
:1096C000A4304021186805F0AEFC0028F4D1F1E781
:1096D000D0F8A43070B504460E46186840F22771E1
:1096E00005F0A7FC28B9D4F89C20D4F8A0309A4201
:1096F00015D1D4F89C50013505F03F05D4F8A030C1
:109700009D42D4F8A43013D0EFF31082D20742D593
:10971000D4F89C10D4F8A020914209D13BE0D4F8B1
:10972000A43040F227711868012205F05CFCE0E7E4
:10973000186840F2277105F07CFC0028DED0D4F8D0
:10974000A4308021186805F06EFC0028D6D0D4F82B
:10975000A43040F227711868002205F044FCD4F8C8
:10976000A4301868D4F8A0305A1C2344C4F8A020B0
:1097700093F85C1005F04FFCD4F8A03040F227714C
:1097800003F03F03C4F8A030D4F8A43001221868D5
:1097900005F029FCB2E7D4F89C2040F2277122445E
:1097A00082F85C60C4F89C500125186825742A462C
:1097B00005F019FC284670BD10B540F2255104464D
:1097C000006805F036FC70B1206805F028FCE369FC
:1097D000C0B21A6C596C013202F03F028A4202D0C8
:1097E000196C58541A64206840F2277105F021FC66
:1097F000B8B1A3692068196C5A6C914206D1BDE8D2
:10980000104040F22771002205F0EDBB5A6C511C4C
:109810005964995C05F0FFFBA3695A6C02F03F02A2
:109820005A6410BDF8B54FF47A7383600C4B04464C
:10983000002503604560C0F8A41004F15C074826C9
:1098400014308F613246C86129460AF07EFF3846DF
:10985000294632460AF079FF25742046F8BD00BF3C
:10986000506701080148FFF7A7BF00BF5C02002056
:109870000148FFF7A1BF00BF7C020020014B187C0C
:10988000704700BF0419002073B50E4C002104F18D
:1098900014050D4E0B4600910A462846FFF750FA74
:1098A0001C343246284609490AF0BCFE20460849C5
:1098B000FFF7B8FF07492046324602B0BDE87040C6
:1098C0000AF0B0BE04190020140B0020195A000839
:1098D0005C0200204196000870474FF0FF3070474F
:1098E000014B0360704700BFF866010810B5034BD9
:1098F00004460360FEF712F9204610BDF866010821
:10990000FEF72AB808B5FEF713F808BD08B50846F3
:10991000FEF742F8012008BD002242604FF47A723F
:109920008260014A02607047786701080846FDF7C7
:10993000E7BF000037B50D4C00210D4D0B460091DF
:109940000A462046FFF7FCF92A460A492046083411
:109950000AF068FE2046FFF7DFFF074920462A4647
:1099600003B0BDE830400AF05DBE00BFC81900205A
:10997000140B0020195A0008E198000870470000F5
:10998000054B1B7803F0FF002BB1044B1B78002B19
:1099900014BF022001207047291A0020F819002066
:1099A00037B50B4C00210B4D0B4600910A46204663
:1099B000FFF7C6F92A46204607490AF033FE074951
:1099C00004F108002A4603B0BDE830400AF02ABE80
:1099D000E0190020140B0020195A00087D99000896
:1099E0000023036018467047002303601846704741
:1099F00000230360184670472DE9F0410B7890B0C2
:109A000004460D4616462BB1032A54D8DFE802F06F
:109A100002113C3C20460AF0F3FF012302460020DD
:109A20000093019002900390049005902146034614
:109A30003DE008460AF0E4FF00264FEA50088DF8A2
:109A40001E60464505F1020508AF0FD015F8023C2F
:109A500007A88DF81C3015F8013C002110228DF864
:109A60001D300BF071F9B8550136EAE720460AF0CF
:109A7000C7FF0023024601208DE8410002930393B3
:109A800004970593214612E00AF0BAFF07462846DC
:109A90000AF0B6FF012118221E234FF0020E8DE8B6
:109AA0000E4005900495304621463A46002302F0C8
:109AB00077FD044B1870034B01225A7010B0BDE8BB
:109AC000F08100BFEC190020034610B548F21004E5
:109AD000A34208464CD00DDC48F20102934224D048
:109AE00048F2020293422AD0992B64D1324B0122D0
:109AF0009A7410BD48F28004A3420FD0B3F5084F0A
:109B000049D048F24000834255D12B4C04F1140057
:109B10000AF0F7FDA36A0133A36210BD264B0122B0
:109B20009A70DA7000221A7110BD234C0123637100
:109B3000FEF76EFD00F5EA403030A06010BD1E4C0F
:109B4000637963B1FEF764FD00F5EA403030A06050
:109B50004FF47F4003F086FAE72003F00FFB002369
:109B6000637123736373A373E3732374637410BD0E
:109B70000A7D114B62B99A604FF47F4001221A733B
:109B80001A7403F06FFABDE81040E72003F0F6BA4C
:109B900000221A7310BD002100F0FDFF01210446D0
:109BA00001F040F8054B1B689C4204D1024B002297
:109BB000DA739A735A7310BDEC1900205800002014
:109BC0001FB54FF461504FF461610A2200238DE804
:109BD0000F00064B44F620621A60684601A902AAEB
:109BE00003AB01F0E1FC05B05DF804FBA81A00200E
:109BF0001FB50023009301930293039301A86946C4
:109C000002AA03AB01F096FC05B05DF804FB00006E
:109C100070B500210A4C0E2001F098FD102510218E
:109C20000E2001F093FD2A46204600210AF08DFD0A
:109C3000294623460E200022BDE8704001F03ABDBF
:109C4000181A002030B5524D00249FB0FF20AC7090
:109C5000EC706C706C712C73AC746C73AC73EC73D3
:109C60002C7403F0FFF9E72003F088FA214622461E
:109C7000204602F071FC2B46012103F82D4F0E20E7
:109C80000A4601F017FD6B79012B05D1642003F022
:109C900093F801F0E7F8F6E710210C2001F056FDEB
:109CA0003C4802F019F93C4802F0CAFD012002F0DC
:109CB000ABFD6846394900F0F1FDAB786A78344C69
:109CC0001A4317D194F83C30002B57D0FF2002F0F4
:109CD0004DFD002852D11A24013C06D0E72003F0A4
:109CE0007BFA322003F068F8F6E7FFF791FF85F87A
:109CF0003C40E2E7E72003F041FA04F12C030E2098
:109D00000121002201F0A8FCA37813B102F0B8FDF4
:109D100020702B780121013385F82C300022204B54
:109D20000E2001F0C7FC002001240146012202F0B0
:109D300013FC214622461B4B0E2085F82D4001F0D6
:109D4000B9FC02F08DFB642003F036F8002002F02D
:109D500051FB85F83D404FF47F4000242C7403F004
:109D600081F9E72003F00AFA48F2042002F01AFD14
:109D7000FFF726FF85F83E401FB030BDE72003F017
:109D80002BFAFA2003F018F8684600F0E3FD94E798
:109D9000EC190020986701089C020020F99900083E
:109DA000181A0020191A0020024B1A681860104671
:109DB000704700BFA81A00207FB5364C00252064EC
:109DC00003F0C0FC03F000FC334B344A0093344BE7
:109DD00034490193344B35480293354B0393354B4B
:109DE00002F0F0FA642002F0E7FF002002F002FB2C
:109DF000012348F2042084F83D30257402F0D2FC9F
:109E00002D4B1A881E46012A31D00E2010212A46D9
:109E100004F12C0301F020FC102828D123791D4DDA
:109E2000ABB995F82C301BB9012385F83E300EE014
:109E300095F82D0058B90146012202F08DFB012151
:109E40002B4603F82D1F0E200A4601F033FC237920
:109E5000BBB9104B93F83E309BB1184801F05CFC45
:109E6000FFF7C6FE04B0BDE87040FFF7A9BEFF20B3
:109E700002F07CFCFFF7CCFE0023338003F0B4FD3E
:109E8000CCE74FF47F4003F0EDF8E72003F076F9DC
:109E9000E3E700BFEC19002081D60008E99900082B
:109EA00095D60008E199000801D70008C99A000872
:109EB00029D70008F1990008EA030020301A002091
:109EC0002DE9F341AE4C04F01FFD0023A36494F888
:109ED0004C304BB994F84D3033B9A3687BB3FEF7DF
:109EE00097FBA36898422AD394F83D30A44D002BE9
:109EF00040D000266E71AE602E732E6585F84C60E2
:109F0000012785F83D606E73AE73EE736E7402F0D8
:109F1000A7FA6FF07F402F7403F0A4F8E72003F056
:109F20002DF9642002F048FF95F83E3013B3304617
:109F300002F060FA85F83D70FFF784FE1AE094F8AD
:109F40003D308F4DB3B92B792BB9FEF761FB00F58E
:109F5000EA403030A860002002F04CFA012384F877
:109F60003D304FF47F400023237403F07BF8E7205B
:109F700003F004F994F83E30814E13B1FFF762FE0E
:109F800005E033791BB1337B03F0FF05FBB1E278C9
:109F90007B4B012A13D11A7B012A10D15B79012B4B
:109FA0000DD1032577480AF02BFD013D82B275499A
:109FB000012002F0C9F915F0FF05F3D1E570237B0C
:109FC0006F4DE3B195F84D30002B74D017E0294662
:109FD0002A462846B56002F0BFFA6B480AF010FD29
:109FE0006A4F804638460AF00BFD00970190791FB2
:109FF000032042462B4602F049FA3571C7E794F830
:10A00000573023B1624800213A220AF09EFB94F8AF
:10A010008E205B4B32B95A7B002A58D19B7B002B98
:10A0200055D1BBE01A7BFAB193F84D20E2B95A7BC7
:10A03000002A5CD018E02B4603F82F2F0E200121B8
:10A04000032201F037FB00264FF6FF70267403F061
:10A0500009F8E72003F092F8FEF742F8B042484DC5
:10A0600065DB01232E656B73637B454D002B00F090
:10A070009580AB7BBBB9FDF7B3FF002811D002DAA6
:10A080004FF47F0007E0012801D1424803E0022895
:10A0900003D14FF0FF1002F0E5FFE72003F06EF868
:10A0A00001E00123AB73FDF75FFF002876D1E07379
:10A0B000A073607372E095F85730002BA7D164202D
:10A0C00002F07AFE05F1540001F0B4FA9FE7FDF7C3
:10A0D000F7FF00234FF47F40E373A373637302F031
:10A0E000C1FFE72002B0BDE8F04103F047B85B7C58
:10A0F000002BA8D04FF47F0002F0B4FF637C204D0A
:10A1000003F0FF02002B96D0E72003F037F84FF45E
:10A11000FA7002F051FEE72003F03EF84FF4FA70B7
:10A1200002F04AFE6B7C013BDBB26B74E6E795F80C
:10A130004C309BBB2B6D0133022B2B6504BF0123DD
:10A1400085F84C30FDF78AFF00280ADA236D0133C9
:10A15000022B236503D10A4B012283F84C200223F2
:10A1600000E003236374637C0E2084F82F30012108
:10A17000094B032201F09EFA0023637374E700BFCA
:10A18000EC1900209F020020A6020020AB02002054
:10A19000401A00200060FF001B1A002002B0BDE83A
:10A1A000F08100BF13B5084C002100910A460B4610
:10A1B0002046FEF7C5FD0549054A204602B0BDE828
:10A1C00010400AF02FBA00BF7C1A0020195A00086C
:10A1D000140B0020704708B5012003F07DFFFEE757
:10A1E00008B5032003F078FFFEE708B5042003F06C
:10A1F00073FFFEE708B5052003F06EFFFEE770472A
:10A200007047704708B503F031FDBDE80840FDF721
:10A21000ABBA000008B5024B0BB1AFF3008008BD2C
:10A220000000000008B5024B0BB1FFF721FB08BD91
:10A230007198000808B5024B0BB1FFF713FB08BD7E
:10A240006598000808B5024B0BB1FEF70AFD08BD82
:10A25000638C000808B5024B0BB1FEF703FD08BD87
:10A26000658C000808B5024B0BB1FEF741FE08BD36
:10A27000F18E000808B5012004F032F938B1012050
:10A2800004F03CF9024B13B10020FEF719FD08BDA4
:10A29000C18C000808B5022004F022F938B1022070
:10A2A00004F02CF9024B13B10120FEF709FD08BDA3
:10A2B000C18C000808B5042004F012F978B104201C
:10A2C00004F01CF90020064B0146188003F00CF83E
:10A2D000BDE8084003481021012204F03CBE08BD3F
:10A2E000C81A0020002C014008B5082004F0F8F836
:10A2F00038B1082004F002F9024B13B10320FEF735
:10A30000DFFC08BDC18C000808B5102004F0E8F897
:10A3100038B1102004F0F2F8024B13B10420FEF71C
:10A32000CFFC08BDC18C000808B5202004F0D8F887
:10A3300038B1202004F0E2F80E4B13B10520FEF7EF
:10A34000BFFC402004F0CCF838B1402004F0D6F82F
:10A35000084B13B10620FEF7B3FC802004F0C0F8D0
:10A3600038B1802004F0CAF8024B13B10720FEF781
:10A37000A7FC08BDC18C000808B54FF4005004F0DC
:10A38000AFF840B14FF4005004F0B8F8174B13B1D8
:10A390000D20FEF795FC4FF4804004F0A1F840B189
:10A3A0004FF4804004F0AAF8104B13B10E20FEF7D2
:10A3B00087FC4FF4004004F093F840B14FF40040A4
:10A3C00004F09CF8094B13B10F20FEF779FC4FF411
:10A3D000006004F085F838B14FF4006004F08EF8A6
:10A3E000BDE8084002F072BC08BD00BFC18C000887
:10A3F00008B51048102104F0E7FDC8B10D48102140
:10A4000004F0EDFD002003F033F830B90A4B1A8850
:10A4100092B20A3292B21A8008BD06481021002278
:10A4200004F099FDBDE808400020012102F05CBF66
:10A4300008BD00BF002C0140C81A002008B5024B1F
:10A440001B6803B1984708BD881A002008B5024B65
:10A450005B6803B1984708BD881A002008B5024B15
:10A460009B6803B1984708BD881A002008B50120F1
:10A4700004F0A2FB50B1012004F0AEFB044B0BB181
:10A48000FFF742F8BDE8084004F080BB08BD00BFFC
:10A490000995000808B5022004F08EFBB0B10C4B02
:10A4A00000224FF400301A7004F028F8012004F064
:10A4B00055FA10B1012004F05BFA04F067FB0220AA
:10A4C00004F08AFBBDE8084004F060BB08BD00BF93
:10A4D000391A002002F08CBB00F062B838B514497C
:10A4E0000B78012B23D1134A13680BB90B7038BDBD
:10A4F000114C402B206881B205D94030403B206090
:10A500001360402504E09DB20344236000231360E0
:10A510000A482A460844C02105F096FA0120294637
:10A5200005F09AFBBDE83840012005F0FFBA38BDC0
:10A53000000B0020080B0020040B0020000A002064
:10A5400008B5094B01221A70084B002203201A801B
:10A5500005F0B2FB064B024618804FF4887105489F
:10A56000BDE8084005F088BAB4090020B809002009
:10A57000B6090020BA090020074B1B68052B09D13A
:10A58000064B1A68511C052A196003D100221A6073
:10A59000FDF720BA704700BFF41A0020941A00207B
:10A5A00070B52B4D2B4C2B682B4E9BB223802288F1
:10A5B00033881340990508D54FF6FF532B60A378D5
:10A5C0000133DBB2A370FFF7D7FF22883388134033
:10A5D0001A0401D505F082F92288338813405B05FF
:10A5E00005D54FF6FF332B601C4B5B6898472288DC
:10A5F00033881A40900444BF4DF6FF722A602288C7
:10A600001340D90405D54EF6FF732B60002003F0EC
:10A6100021FD2288338813401A050BD5104B1B7877
:10A6200013B103F0F7FC02E0022003F013FD4FF238
:10A63000FF732B60228833881340DB0507D54FF664
:10A64000FF632B600720BDE8704003F003BD70BDC1
:10A65000445C0040981A0020B4240020100300201D
:10A6600010040020034B9B7A13B1034B05221A60A0
:10A67000704700BF90240020F41A0020014B0422F0
:10A680001A607047F41A0020034B1A78202A04BF7E
:10A6900000221A70704700BF9C1A0020704700000B
:10A6A000212810B508D1114B1B681B7803F07F03DC
:10A6B000212B10D0022010BD2028FBD10B4B0C4ABF
:10A6C0001B681B78107003F07F03212B094B18BF08
:10A6D00000230BB9EEE7084B044A00241268204619
:10A6E000936154829847204610BD00BFB0240020DB
:10A6F0009C1A002049A7000831A70008074B1B68D7
:10A700001B7803F07F03212B06D100F0DF00022825
:10A7100014BF02200020704702207047B0240020A0
:10A7200009B1022070470128FBD808467047000095
:10A7300020B9034B08221B681A82704701487047F2
:10A74000B02400200803002020B9034B08221B6816
:10A750001A82704701487047B02400200803002087
:10A7600010B5FDF783F9054B00241B689C7203F0BC
:10A7700039FC05F0B7FA024B1C6010BDB024002074
:10A78000F41A0020334B344A1B68D27910B50024E8
:10A790005A729C72DC72204605F080F920464FF414
:10A7A000007105F083F92046102105F08DF920464F
:10A7B000402105F025FA8021204605F011FA2046B7
:10A7C00005F0DAF9254B204693F8341005F052FADB
:10A7D000204605F0BEF90120214605F067F9012069
:10A7E000C02105F0FDF90120202105F06DF90120BF
:10A7F000214605F082F902204FF4C06105F056F9B8
:10A8000002204FF4807105F0EBF90220214605F09B
:10A8100074F90220202105F057F90320214605F0A4
:10A8200045F903204FF4887105F0EAF9032040212F
:10A8300005F020FA03204FF4405105F05EF90320A3
:10A84000214605F041F9204604F0DCFF044B0122CB
:10A850001A6010BDB024002005680108080300201C
:10A86000F41A0020014904F0C9BD00BF40030020D4
:10A87000014904F0C3BD00BF48030020054B1B681D
:10A88000DB78042B04D8044901EBC30104F0B6BD06
:10A8900000207047B02400205003002038B5044643
:10A8A0000D46FFF739F8204625614FF41651FFF7A2
:10A8B0003DF8204638BD70B506460D4600242846B2
:10A8C0000AF09EF8844208D2295D3046FFF71EF850
:10A8D000012002F071FA0134F1E770BD2DE9F04179
:10A8E00004460E46904600252046FFF70BF8002848
:10A8F000FADD2046FFF704F84545C1B206D1002332
:10A90000337020461249FFF7D6FF15E00D29F6D027
:10A910000A29F4D0082901D07F2904D1002DE3D0E1
:10A92000771E013D02E0771C317001352046EDB203
:10A93000FEF7ECFF3E46D7E72046FEF7E3FF002890
:10A9400003DD2046FEF7DCFFF6E7BDE8F08100BF3F
:10A950000C960108F0B585B00446FEF7D3FF002839
:10A9600040F39D802046FEF7CBFFC0B2772868D128
:10A9700004F1140600212122304604F1350509F0C6
:10A98000E4FE41220021284609F0DFFE04F17607AB
:10A99000002384F87630204642497B70FFF78BFF16
:10A9A000204631462022FFF799FF20463E49FFF717
:10A9B00082FF012220463946FFF790FF94F8763057
:10A9C000A3F13002D2B2032AEFD8312B0BD12046AB
:10A9D0003649FFF770FF20463549FFF76CFF2046E8
:10A9E0003449FFF768FF94F87620B2F1300708D0B9
:10A9F00020463149FFF75FFF204629464022FFF7F6
:10AA00006DFF20462D49FFF756FF23693A46304631
:10AA10002946984720462A49FFF74DFF20462949F5
:10AA2000FFF749FF20462849FFF745FF2046274901
:10AA3000FFF741FF20462649FFF73DFF2046254905
:10AA400028E069282BD1244B01AD93E8070085E865
:10AA5000070020462149FFF72EFF0026AF5D204664
:10AA60003B0903F13001392984BF03F15701C9B211
:10AA700007F00F07FEF74AFF07F13001392984BFBD
:10AA80005737F9B220460136FEF740FF0C2EE5D1CC
:10AA90001349204605B0BDE8F040FFF70CBF05B0F4
:10AAA000F0BD00BF60940108679401089494010808
:10AAB000CA940108F59401083B95010846950108E0
:10AAC00089950108A9950108DC9501080F960108F0
:10AAD0004E9601087F960108E8F7FF1F959601083A
